{
  "contractName": "BasicBridge",
  "abi": [
    {
      "constant": true,
      "inputs": [],
      "name": "requiredSignatures",
      "outputs": [
        {
          "name": "",
          "type": "uint256"
        }
      ],
      "payable": false,
      "stateMutability": "view",
      "type": "function"
    },
    {
      "constant": true,
      "inputs": [],
      "name": "owner",
      "outputs": [
        {
          "name": "",
          "type": "address"
        }
      ],
      "payable": false,
      "stateMutability": "view",
      "type": "function"
    },
    {
      "constant": true,
      "inputs": [],
      "name": "validatorContract",
      "outputs": [
        {
          "name": "",
          "type": "address"
        }
      ],
      "payable": false,
      "stateMutability": "view",
      "type": "function"
    },
    {
      "constant": true,
      "inputs": [],
      "name": "upgradeabilityAdmin",
      "outputs": [
        {
          "name": "",
          "type": "address"
        }
      ],
      "payable": false,
      "stateMutability": "view",
      "type": "function"
    },
    {
      "constant": false,
      "inputs": [
        {
          "name": "newOwner",
          "type": "address"
        }
      ],
      "name": "transferOwnership",
      "outputs": [],
      "payable": false,
      "stateMutability": "nonpayable",
      "type": "function"
    },
    {
      "anonymous": false,
      "inputs": [
        {
          "indexed": false,
          "name": "gasPrice",
          "type": "uint256"
        }
      ],
      "name": "GasPriceChanged",
      "type": "event"
    },
    {
      "anonymous": false,
      "inputs": [
        {
          "indexed": false,
          "name": "requiredBlockConfirmations",
          "type": "uint256"
        }
      ],
      "name": "RequiredBlockConfirmationChanged",
      "type": "event"
    },
    {
      "anonymous": false,
      "inputs": [
        {
          "indexed": false,
          "name": "newLimit",
          "type": "uint256"
        }
      ],
      "name": "DailyLimitChanged",
      "type": "event"
    },
    {
      "anonymous": false,
      "inputs": [
        {
          "indexed": false,
          "name": "newLimit",
          "type": "uint256"
        }
      ],
      "name": "ExecutionDailyLimitChanged",
      "type": "event"
    },
    {
      "anonymous": false,
      "inputs": [
        {
          "indexed": false,
          "name": "previousOwner",
          "type": "address"
        },
        {
          "indexed": false,
          "name": "newOwner",
          "type": "address"
        }
      ],
      "name": "OwnershipTransferred",
      "type": "event"
    },
    {
      "constant": true,
      "inputs": [],
      "name": "getBridgeInterfacesVersion",
      "outputs": [
        {
          "name": "major",
          "type": "uint64"
        },
        {
          "name": "minor",
          "type": "uint64"
        },
        {
          "name": "patch",
          "type": "uint64"
        }
      ],
      "payable": false,
      "stateMutability": "pure",
      "type": "function"
    },
    {
      "constant": false,
      "inputs": [
        {
          "name": "_gasPrice",
          "type": "uint256"
        }
      ],
      "name": "setGasPrice",
      "outputs": [],
      "payable": false,
      "stateMutability": "nonpayable",
      "type": "function"
    },
    {
      "constant": true,
      "inputs": [],
      "name": "gasPrice",
      "outputs": [
        {
          "name": "",
          "type": "uint256"
        }
      ],
      "payable": false,
      "stateMutability": "view",
      "type": "function"
    },
    {
      "constant": false,
      "inputs": [
        {
          "name": "_blockConfirmations",
          "type": "uint256"
        }
      ],
      "name": "setRequiredBlockConfirmations",
      "outputs": [],
      "payable": false,
      "stateMutability": "nonpayable",
      "type": "function"
    },
    {
      "constant": true,
      "inputs": [],
      "name": "requiredBlockConfirmations",
      "outputs": [
        {
          "name": "",
          "type": "uint256"
        }
      ],
      "payable": false,
      "stateMutability": "view",
      "type": "function"
    },
    {
      "constant": true,
      "inputs": [],
      "name": "deployedAtBlock",
      "outputs": [
        {
          "name": "",
          "type": "uint256"
        }
      ],
      "payable": false,
      "stateMutability": "view",
      "type": "function"
    },
    {
      "constant": true,
      "inputs": [
        {
          "name": "_day",
          "type": "uint256"
        }
      ],
      "name": "totalSpentPerDay",
      "outputs": [
        {
          "name": "",
          "type": "uint256"
        }
      ],
      "payable": false,
      "stateMutability": "view",
      "type": "function"
    },
    {
      "constant": true,
      "inputs": [
        {
          "name": "_day",
          "type": "uint256"
        }
      ],
      "name": "totalExecutedPerDay",
      "outputs": [
        {
          "name": "",
          "type": "uint256"
        }
      ],
      "payable": false,
      "stateMutability": "view",
      "type": "function"
    },
    {
      "constant": true,
      "inputs": [],
      "name": "minPerTx",
      "outputs": [
        {
          "name": "",
          "type": "uint256"
        }
      ],
      "payable": false,
      "stateMutability": "view",
      "type": "function"
    },
    {
      "constant": true,
      "inputs": [],
      "name": "maxPerTx",
      "outputs": [
        {
          "name": "",
          "type": "uint256"
        }
      ],
      "payable": false,
      "stateMutability": "view",
      "type": "function"
    },
    {
      "constant": true,
      "inputs": [],
      "name": "executionMaxPerTx",
      "outputs": [
        {
          "name": "",
          "type": "uint256"
        }
      ],
      "payable": false,
      "stateMutability": "view",
      "type": "function"
    },
    {
      "constant": true,
      "inputs": [],
      "name": "isInitialized",
      "outputs": [
        {
          "name": "",
          "type": "bool"
        }
      ],
      "payable": false,
      "stateMutability": "view",
      "type": "function"
    },
    {
      "constant": true,
      "inputs": [],
      "name": "getCurrentDay",
      "outputs": [
        {
          "name": "",
          "type": "uint256"
        }
      ],
      "payable": false,
      "stateMutability": "view",
      "type": "function"
    },
    {
      "constant": false,
      "inputs": [
        {
          "name": "_dailyLimit",
          "type": "uint256"
        }
      ],
      "name": "setDailyLimit",
      "outputs": [],
      "payable": false,
      "stateMutability": "nonpayable",
      "type": "function"
    },
    {
      "constant": true,
      "inputs": [],
      "name": "dailyLimit",
      "outputs": [
        {
          "name": "",
          "type": "uint256"
        }
      ],
      "payable": false,
      "stateMutability": "view",
      "type": "function"
    },
    {
      "constant": false,
      "inputs": [
        {
          "name": "_dailyLimit",
          "type": "uint256"
        }
      ],
      "name": "setExecutionDailyLimit",
      "outputs": [],
      "payable": false,
      "stateMutability": "nonpayable",
      "type": "function"
    },
    {
      "constant": true,
      "inputs": [],
      "name": "executionDailyLimit",
      "outputs": [
        {
          "name": "",
          "type": "uint256"
        }
      ],
      "payable": false,
      "stateMutability": "view",
      "type": "function"
    },
    {
      "constant": false,
      "inputs": [
        {
          "name": "_maxPerTx",
          "type": "uint256"
        }
      ],
      "name": "setExecutionMaxPerTx",
      "outputs": [],
      "payable": false,
      "stateMutability": "nonpayable",
      "type": "function"
    },
    {
      "constant": false,
      "inputs": [
        {
          "name": "_maxPerTx",
          "type": "uint256"
        }
      ],
      "name": "setMaxPerTx",
      "outputs": [],
      "payable": false,
      "stateMutability": "nonpayable",
      "type": "function"
    },
    {
      "constant": false,
      "inputs": [
        {
          "name": "_minPerTx",
          "type": "uint256"
        }
      ],
      "name": "setMinPerTx",
      "outputs": [],
      "payable": false,
      "stateMutability": "nonpayable",
      "type": "function"
    },
    {
      "constant": true,
      "inputs": [
        {
          "name": "_amount",
          "type": "uint256"
        }
      ],
      "name": "withinLimit",
      "outputs": [
        {
          "name": "",
          "type": "bool"
        }
      ],
      "payable": false,
      "stateMutability": "view",
      "type": "function"
    },
    {
      "constant": true,
      "inputs": [
        {
          "name": "_amount",
          "type": "uint256"
        }
      ],
      "name": "withinExecutionLimit",
      "outputs": [
        {
          "name": "",
          "type": "bool"
        }
      ],
      "payable": false,
      "stateMutability": "view",
      "type": "function"
    },
    {
      "constant": false,
      "inputs": [
        {
          "name": "_token",
          "type": "address"
        },
        {
          "name": "_to",
          "type": "address"
        }
      ],
      "name": "claimTokens",
      "outputs": [],
      "payable": false,
      "stateMutability": "nonpayable",
      "type": "function"
    }
  ],
  "bytecode": "0x608060405234801561001057600080fd5b50611667806100206000396000f3006080604052600436106101505763ffffffff60e060020a6000350416632bd0bb058114610155578063392e53cd1461017f5780633dd95d1b146101a85780633e6968b6146101c25780633f0a9f65146101d757806343b37dd3146101ec5780634fb3fef71461020157806367eeba0c1461021957806369ffa08a1461022e578063879ce676146102555780638aa1949a1461026d5780638d068043146102825780638da5cb5b1461029757806399439089146102c85780639a454b99146102dd5780639cb7595a146102f2578063a2a6ca2714610333578063acf5c6891461034b578063b20d30a914610363578063bf1fe4201461037b578063c6f6f21614610393578063df0ad3de146103ab578063df25f3f0146103c0578063ea9f4968146103d5578063f20151e1146103ed578063f2fde38b14610405578063f968adbe14610426578063fe173b971461043b575b600080fd5b34801561016157600080fd5b5061016d600435610450565b60408051918252519081900360200190f35b34801561018b57600080fd5b5061019461050d565b604080519115158252519081900360200190f35b3480156101b457600080fd5b506101c06004356105c5565b005b3480156101ce57600080fd5b5061016d6106c7565b3480156101e357600080fd5b5061016d6106d0565b3480156101f857600080fd5b5061016d610784565b34801561020d57600080fd5b5061016d6004356107f7565b34801561022557600080fd5b5061016d610872565b34801561023a57600080fd5b506101c0600160a060020a03600435811690602435166108e5565b34801561026157600080fd5b50610194600435610aa1565b34801561027957600080fd5b5061016d610aeb565b34801561028e57600080fd5b5061016d610b5e565b3480156102a357600080fd5b506102ac610bd6565b60408051600160a060020a039092168252519081900360200190f35b3480156102d457600080fd5b506102ac610c94565b3480156102e957600080fd5b5061016d610d08565b3480156102fe57600080fd5b50610307610d7b565b6040805167ffffffffffffffff9485168152928416602084015292168183015290519081900360600190f35b34801561033f57600080fd5b506101c0600435610d85565b34801561035757600080fd5b506101c0600435610e7c565b34801561036f57600080fd5b506101c0600435610f8b565b34801561038757600080fd5b506101c060043561108d565b34801561039f57600080fd5b506101c060043561119c565b3480156103b757600080fd5b506102ac61123d565b3480156103cc57600080fd5b5061016d61127d565b3480156103e157600080fd5b506101946004356112f0565b3480156103f957600080fd5b506101c0600435611340565b34801561041157600080fd5b506101c0600160a060020a03600435166113e1565b34801561043257600080fd5b5061016d61141e565b34801561044757600080fd5b5061016d611491565b60008060008360405160200180807f746f74616c5370656e74506572446179000000000000000000000000000000008152506010018281526020019150506040516020818303038152906040526040518082805190602001908083835b602083106104cc5780518252601f1990920191602091820191016104ad565b51815160209384036101000a600019018019909216911617905260408051929094018290039091208652850195909552929092016000205495945050505050565b60006004600060405160200180807f6973496e697469616c697a656400000000000000000000000000000000000000815250600d0190506040516020818303038152906040526040518082805190602001908083835b602083106105825780518252601f199092019160209182019101610563565b51815160209384036101000a600019018019909216911617905260408051929094018290039091208652850195909552929092016000205460ff16949350505050565b6105cd610bd6565b600160a060020a031633146105e157600080fd5b8060008060405160200180807f657865637574696f6e4461696c794c696d69740000000000000000000000000081525060130190506040516020818303038152906040526040518082805190602001908083835b602083106106545780518252601f199092019160209182019101610635565b51815160001960209485036101000a019081169019919091161790526040805194909201849003909320865285830196909652509284016000209490945550815184815291517f9bebf928b90863f24cc31f726a3a7545efd409f1dcf552301b1ee3710da70d3b9350918290030190a150565b62015180420490565b600080600060405160200180807f7265717569726564426c6f636b436f6e6669726d6174696f6e73000000000000815250601a0190506040516020818303038152906040526040518082805190602001908083835b602083106107445780518252601f199092019160209182019101610725565b51815160209384036101000a6000190180199092169116179052604080519290940182900390912086528501959095529290920160002054949350505050565b600080600060405160200180807f657865637574696f6e4461696c794c696d6974000000000000000000000000008152506013019050604051602081830303815290604052604051808280519060200190808383602083106107445780518252601f199092019160209182019101610725565b60008060008360405160200180807f746f74616c457865637574656450657244617900000000000000000000000000815250601301828152602001915050604051602081830303815290604052604051808280519060200190808383602083106104cc5780518252601f1990920191602091820191016104ad565b600080600060405160200180807f6461696c794c696d697400000000000000000000000000000000000000000000815250600a019050604051602081830303815290604052604051808280519060200190808383602083106107445780518252601f199092019160209182019101610725565b6000806108f061123d565b600160a060020a0316331461090457600080fd5b600160a060020a038316151561091957600080fd5b600160a060020a038416151561096557604051600160a060020a03841690303180156108fc02916000818181858888f1935050505015801561095f573d6000803e3d6000fd5b50610a9b565b604080517f70a082310000000000000000000000000000000000000000000000000000000081523060048201529051859350600160a060020a038416916370a082319160248083019260209291908290030181600087803b1580156109c957600080fd5b505af11580156109dd573d6000803e3d6000fd5b505050506040513d60208110156109f357600080fd5b5051604080517fa9059cbb000000000000000000000000000000000000000000000000000000008152600160a060020a0386811660048301526024820184905291519293509084169163a9059cbb916044808201926020929091908290030181600087803b158015610a6457600080fd5b505af1158015610a78573d6000803e3d6000fd5b505050506040513d6020811015610a8e57600080fd5b50511515610a9b57600080fd5b50505050565b600080610ac483610ab8610ab36106c7565b6107f7565b9063ffffffff61150416565b905080610acf610784565b10158015610ae45750610ae0610aeb565b8311155b9392505050565b600080600060405160200180807f657865637574696f6e4d617850657254780000000000000000000000000000008152506011019050604051602081830303815290604052604051808280519060200190808383602083106107445780518252601f199092019160209182019101610725565b6000610b68610c94565b600160a060020a0316638d0680436040518163ffffffff1660e060020a028152600401602060405180830381600087803b158015610ba557600080fd5b505af1158015610bb9573d6000803e3d6000fd5b505050506040513d6020811015610bcf57600080fd5b5051905090565b60006002600060405160200180807f6f776e657200000000000000000000000000000000000000000000000000000081525060050190506040516020818303038152906040526040518082805190602001908083835b60208310610c4b5780518252601f199092019160209182019101610c2c565b51815160209384036101000a6000190180199092169116179052604080519290940182900390912086528501959095529290920160002054600160a060020a0316949350505050565b60006002600060405160200180807f76616c696461746f72436f6e7472616374000000000000000000000000000000815250601101905060405160208183030381529060405260405180828051906020019080838360208310610c4b5780518252601f199092019160209182019101610c2c565b600080600060405160200180807f6465706c6f7965644174426c6f636b0000000000000000000000000000000000815250600f019050604051602081830303815290604052604051808280519060200190808383602083106107445780518252601f199092019160209182019101610725565b6002806000909192565b610d8d610bd6565b600160a060020a03163314610da157600080fd5b610da9610872565b81108015610dbd5750610dba61141e565b81105b1515610dc857600080fd5b8060008060405160200180807f6d696e506572547800000000000000000000000000000000000000000000000081525060080190506040516020818303038152906040526040518082805190602001908083835b60208310610e3b5780518252601f199092019160209182019101610e1c565b51815160209384036101000a600019018019909216911617905260408051929094018290039091208652850195909552929092016000209390935550505050565b610e84610bd6565b600160a060020a03163314610e9857600080fd5b60008111610ea557600080fd5b8060008060405160200180807f7265717569726564426c6f636b436f6e6669726d6174696f6e73000000000000815250601a0190506040516020818303038152906040526040518082805190602001908083835b60208310610f185780518252601f199092019160209182019101610ef9565b51815160001960209485036101000a019081169019919091161790526040805194909201849003909320865285830196909652509284016000209490945550815184815291517f4fb76205cd57c896b21511d2114137d8e901b4ccd659e1a0f97d6306795264fb9350918290030190a150565b610f93610bd6565b600160a060020a03163314610fa757600080fd5b8060008060405160200180807f6461696c794c696d697400000000000000000000000000000000000000000000815250600a0190506040516020818303038152906040526040518082805190602001908083835b6020831061101a5780518252601f199092019160209182019101610ffb565b51815160001960209485036101000a019081169019919091161790526040805194909201849003909320865285830196909652509284016000209490945550815184815291517fad4123ae17c414d9c6d2fec478b402e6b01856cc250fd01fbfd252fda0089d3c9350918290030190a150565b611095610bd6565b600160a060020a031633146110a957600080fd5b600081116110b657600080fd5b8060008060405160200180807f676173507269636500000000000000000000000000000000000000000000000081525060080190506040516020818303038152906040526040518082805190602001908083835b602083106111295780518252601f19909201916020918201910161110a565b51815160001960209485036101000a019081169019919091161790526040805194909201849003909320865285830196909652509284016000209490945550815184815291517f52264b89e0fceafb26e79fd49ef8a366eb6297483bf4035b027f0c99a7ad512e9350918290030190a150565b6111a4610bd6565b600160a060020a031633146111b857600080fd5b6111c0610872565b81106111cb57600080fd5b8060008060405160200180807f6d61785065725478000000000000000000000000000000000000000000000000815250600801905060405160208183030381529060405260405180828051906020019080838360208310610e3b5780518252601f199092019160209182019101610e1c565b600030600160a060020a031663025313a26040518163ffffffff1660e060020a028152600401602060405180830381600087803b158015610ba557600080fd5b600080600060405160200180807f6d696e50657254780000000000000000000000000000000000000000000000008152506008019050604051602081830303815290604052604051808280519060200190808383602083106107445780518252601f199092019160209182019101610725565b60008061130783610ab86113026106c7565b610450565b905080611312610872565b10158015611327575061132361141e565b8311155b8015610ae4575061133661127d565b9092101592915050565b611348610bd6565b600160a060020a0316331461135c57600080fd5b611364610784565b811061136f57600080fd5b8060008060405160200180807f657865637574696f6e4d61785065725478000000000000000000000000000000815250601101905060405160208183030381529060405260405180828051906020019080838360208310610e3b5780518252601f199092019160209182019101610e1c565b6113e9610bd6565b600160a060020a031633146113fd57600080fd5b600160a060020a038116151561141257600080fd5b61141b81611513565b50565b600080600060405160200180807f6d617850657254780000000000000000000000000000000000000000000000008152506008019050604051602081830303815290604052604051808280519060200190808383602083106107445780518252601f199092019160209182019101610725565b600080600060405160200180807f67617350726963650000000000000000000000000000000000000000000000008152506008019050604051602081830303815290604052604051808280519060200190808383602083106107445780518252601f199092019160209182019101610725565b600082820183811015610ae457fe5b7f8be0079c531659141344cd1fd0a4f28419497f9722a3daafe3b4186f6b6457e061153c610bd6565b60408051600160a060020a03928316815291841660208301528051918290030190a1806002600060405160200180807f6f776e657200000000000000000000000000000000000000000000000000000081525060050190506040516020818303038152906040526040518082805190602001908083835b602083106115d25780518252601f1990920191602091820191016115b3565b51815160209384036101000a60001901801990921691161790526040805192909401829003909120865285019590955292909201600020805473ffffffffffffffffffffffffffffffffffffffff1916600160a060020a039590951694909417909355505050505600a165627a7a7230582011d9c4fb59340c31e760a106598a7d3116d3d42b5c811ec437c46ed897a2e9b30029",
  "source": "pragma solidity 0.4.24;\nimport \"../IBridgeValidators.sol\";\nimport \"./OwnedUpgradeability.sol\";\nimport \"../upgradeability/EternalStorage.sol\";\nimport \"../libraries/SafeMath.sol\";\nimport \"./Validatable.sol\";\nimport \"./Ownable.sol\";\nimport \"openzeppelin-solidity/contracts/token/ERC20/ERC20Basic.sol\";\n\n\ncontract BasicBridge is EternalStorage, Validatable, Ownable, OwnedUpgradeability {\n    using SafeMath for uint256;\n\n    event GasPriceChanged(uint256 gasPrice);\n    event RequiredBlockConfirmationChanged(uint256 requiredBlockConfirmations);\n    event DailyLimitChanged(uint256 newLimit);\n    event ExecutionDailyLimitChanged(uint256 newLimit);\n\n    function getBridgeInterfacesVersion() public pure returns(uint64 major, uint64 minor, uint64 patch) {\n        return (2, 2, 0);\n    }\n\n    function setGasPrice(uint256 _gasPrice) public onlyOwner {\n        require(_gasPrice > 0);\n        uintStorage[keccak256(abi.encodePacked(\"gasPrice\"))] = _gasPrice;\n        emit GasPriceChanged(_gasPrice);\n    }\n\n    function gasPrice() public view returns(uint256) {\n        return uintStorage[keccak256(abi.encodePacked(\"gasPrice\"))];\n    }\n\n    function setRequiredBlockConfirmations(uint256 _blockConfirmations) public onlyOwner {\n        require(_blockConfirmations > 0);\n        uintStorage[keccak256(abi.encodePacked(\"requiredBlockConfirmations\"))] = _blockConfirmations;\n        emit RequiredBlockConfirmationChanged(_blockConfirmations);\n    }\n\n    function requiredBlockConfirmations() public view returns(uint256) {\n        return uintStorage[keccak256(abi.encodePacked(\"requiredBlockConfirmations\"))];\n    }\n\n    function deployedAtBlock() public view returns(uint256) {\n        return uintStorage[keccak256(abi.encodePacked(\"deployedAtBlock\"))];\n    }\n\n    function setTotalSpentPerDay(uint256 _day, uint256 _value) internal {\n        uintStorage[keccak256(abi.encodePacked(\"totalSpentPerDay\", _day))] = _value;\n    }\n\n    function totalSpentPerDay(uint256 _day) public view returns(uint256) {\n        return uintStorage[keccak256(abi.encodePacked(\"totalSpentPerDay\", _day))];\n    }\n\n    function setTotalExecutedPerDay(uint256 _day, uint256 _value) internal {\n        uintStorage[keccak256(abi.encodePacked(\"totalExecutedPerDay\", _day))] = _value;\n    }\n\n    function totalExecutedPerDay(uint256 _day) public view returns(uint256) {\n        return uintStorage[keccak256(abi.encodePacked(\"totalExecutedPerDay\", _day))];\n    }\n\n    function minPerTx() public view returns(uint256) {\n        return uintStorage[keccak256(abi.encodePacked(\"minPerTx\"))];\n    }\n\n    function maxPerTx() public view returns(uint256) {\n        return uintStorage[keccak256(abi.encodePacked(\"maxPerTx\"))];\n    }\n\n    function executionMaxPerTx() public view returns(uint256) {\n        return uintStorage[keccak256(abi.encodePacked(\"executionMaxPerTx\"))];\n    }\n\n    function setInitialize(bool _status) internal {\n        boolStorage[keccak256(abi.encodePacked(\"isInitialized\"))] = _status;\n    }\n\n    function isInitialized() public view returns(bool) {\n        return boolStorage[keccak256(abi.encodePacked(\"isInitialized\"))];\n    }\n\n    function getCurrentDay() public view returns(uint256) {\n        return now / 1 days;\n    }\n\n    function setDailyLimit(uint256 _dailyLimit) public onlyOwner {\n        uintStorage[keccak256(abi.encodePacked(\"dailyLimit\"))] = _dailyLimit;\n        emit DailyLimitChanged(_dailyLimit);\n    }\n\n    function dailyLimit() public view returns(uint256) {\n        return uintStorage[keccak256(abi.encodePacked(\"dailyLimit\"))];\n    }\n\n    function setExecutionDailyLimit(uint256 _dailyLimit) public onlyOwner {\n        uintStorage[keccak256(abi.encodePacked(\"executionDailyLimit\"))] = _dailyLimit;\n        emit ExecutionDailyLimitChanged(_dailyLimit);\n    }\n\n    function executionDailyLimit() public view returns(uint256) {\n        return uintStorage[keccak256(abi.encodePacked(\"executionDailyLimit\"))];\n    }\n\n    function setExecutionMaxPerTx(uint256 _maxPerTx) external onlyOwner {\n        require(_maxPerTx < executionDailyLimit());\n        uintStorage[keccak256(abi.encodePacked(\"executionMaxPerTx\"))] = _maxPerTx;\n    }\n\n    function setMaxPerTx(uint256 _maxPerTx) external onlyOwner {\n        require(_maxPerTx < dailyLimit());\n        uintStorage[keccak256(abi.encodePacked(\"maxPerTx\"))] = _maxPerTx;\n    }\n\n    function setMinPerTx(uint256 _minPerTx) external onlyOwner {\n        require(_minPerTx < dailyLimit() && _minPerTx < maxPerTx());\n        uintStorage[keccak256(abi.encodePacked(\"minPerTx\"))] = _minPerTx;\n    }\n\n    function withinLimit(uint256 _amount) public view returns(bool) {\n        uint256 nextLimit = totalSpentPerDay(getCurrentDay()).add(_amount);\n        return dailyLimit() >= nextLimit && _amount <= maxPerTx() && _amount >= minPerTx();\n    }\n\n    function withinExecutionLimit(uint256 _amount) public view returns(bool) {\n        uint256 nextLimit = totalExecutedPerDay(getCurrentDay()).add(_amount);\n        return executionDailyLimit() >= nextLimit && _amount <= executionMaxPerTx();\n    }\n\n    function claimTokens(address _token, address _to) public onlyIfOwnerOfProxy {\n        require(_to != address(0));\n        if (_token == address(0)) {\n            _to.transfer(address(this).balance);\n            return;\n        }\n\n        ERC20Basic token = ERC20Basic(_token);\n        uint256 balance = token.balanceOf(this);\n        require(token.transfer(_to, balance));\n    }\n\n\n    function isContract(address _addr) internal view returns (bool)\n    {\n        uint length;\n        assembly { length := extcodesize(_addr) }\n        return length > 0;\n    }\n}\n",
  "sourcePath": "/Users/fbranci/iexecdev/vivani/tokenbridge/contracts/contracts/upgradeable_contracts/BasicBridge.sol",
  "compiler": {
    "name": "solc",
    "version": "0.4.24+commit.e67f0147.Emscripten.clang"
  },
  "schemaVersion": "3.0.13",
  "updatedAt": "2019-08-28T14:04:53.187Z",
  "devdoc": {
    "methods": {
      "owner()": {
        "details": "Tells the address of the owner",
        "return": "the address of the owner"
      },
      "transferOwnership(address)": {
        "details": "Allows the current owner to transfer control of the contract to a newOwner.",
        "params": {
          "newOwner": "the address to transfer ownership to."
        }
      }
    }
  },
  "userdoc": {
    "methods": {}
  }
}