{
  "contractName": "BlockReward",
  "abi": [
    {
      "constant": true,
      "inputs": [],
      "name": "mintedCoins",
      "outputs": [
        {
          "name": "",
          "type": "uint256"
        }
      ],
      "payable": false,
      "stateMutability": "view",
      "type": "function"
    },
    {
      "constant": true,
      "inputs": [],
      "name": "feeAmount",
      "outputs": [
        {
          "name": "",
          "type": "uint256"
        }
      ],
      "payable": false,
      "stateMutability": "view",
      "type": "function"
    },
    {
      "constant": true,
      "inputs": [
        {
          "name": "",
          "type": "uint256"
        }
      ],
      "name": "validatorList",
      "outputs": [
        {
          "name": "",
          "type": "address"
        }
      ],
      "payable": false,
      "stateMutability": "view",
      "type": "function"
    },
    {
      "constant": true,
      "inputs": [],
      "name": "token",
      "outputs": [
        {
          "name": "",
          "type": "address"
        }
      ],
      "payable": false,
      "stateMutability": "view",
      "type": "function"
    },
    {
      "payable": true,
      "stateMutability": "payable",
      "type": "fallback"
    },
    {
      "constant": true,
      "inputs": [],
      "name": "bridgesAllowedLength",
      "outputs": [
        {
          "name": "",
          "type": "uint256"
        }
      ],
      "payable": false,
      "stateMutability": "view",
      "type": "function"
    },
    {
      "constant": false,
      "inputs": [
        {
          "name": "_amount",
          "type": "uint256"
        },
        {
          "name": "_receiver",
          "type": "address"
        }
      ],
      "name": "addExtraReceiver",
      "outputs": [],
      "payable": false,
      "stateMutability": "nonpayable",
      "type": "function"
    },
    {
      "constant": true,
      "inputs": [],
      "name": "mintedTotally",
      "outputs": [
        {
          "name": "",
          "type": "uint256"
        }
      ],
      "payable": false,
      "stateMutability": "view",
      "type": "function"
    },
    {
      "constant": true,
      "inputs": [
        {
          "name": "_bridge",
          "type": "address"
        }
      ],
      "name": "mintedTotallyByBridge",
      "outputs": [
        {
          "name": "",
          "type": "uint256"
        }
      ],
      "payable": false,
      "stateMutability": "view",
      "type": "function"
    },
    {
      "constant": false,
      "inputs": [
        {
          "name": "_amount",
          "type": "uint256"
        },
        {
          "name": "_bridge",
          "type": "address"
        }
      ],
      "name": "addMintedTotallyByBridge",
      "outputs": [],
      "payable": false,
      "stateMutability": "nonpayable",
      "type": "function"
    },
    {
      "constant": false,
      "inputs": [
        {
          "name": "_initialValidators",
          "type": "address[]"
        }
      ],
      "name": "setValidatorsRewards",
      "outputs": [],
      "payable": false,
      "stateMutability": "nonpayable",
      "type": "function"
    },
    {
      "constant": false,
      "inputs": [
        {
          "name": "_token",
          "type": "address"
        }
      ],
      "name": "setToken",
      "outputs": [],
      "payable": false,
      "stateMutability": "nonpayable",
      "type": "function"
    },
    {
      "constant": false,
      "inputs": [
        {
          "name": "_amount",
          "type": "uint256"
        }
      ],
      "name": "addBridgeNativeFeeReceivers",
      "outputs": [],
      "payable": false,
      "stateMutability": "nonpayable",
      "type": "function"
    },
    {
      "constant": false,
      "inputs": [
        {
          "name": "_amount",
          "type": "uint256"
        }
      ],
      "name": "addBridgeTokenFeeReceivers",
      "outputs": [],
      "payable": false,
      "stateMutability": "nonpayable",
      "type": "function"
    },
    {
      "constant": true,
      "inputs": [
        {
          "name": "_count",
          "type": "uint256"
        }
      ],
      "name": "random",
      "outputs": [
        {
          "name": "",
          "type": "uint256"
        }
      ],
      "payable": false,
      "stateMutability": "view",
      "type": "function"
    }
  ],
  "bytecode": "0x60806040526000600155600060025534801561001a57600080fd5b50610b288061002a6000396000f3006080604052600436106100cf5763ffffffff7c010000000000000000000000000000000000000000000000000000000060003504166310f2ee7c81146100d1578063128b265f146100f8578063144fa6d7146101105780631db021c01461013157806345c651ed146101465780635325138914610166578063553a5c851461017e57806369e1540414610193578063aa9fa274146101a8578063b048e056146101cc578063b4a523e814610200578063b863bd3714610221578063d2f240a814610239578063fc0c546a1461025d575b005b3480156100dd57600080fd5b506100e6610272565b60408051918252519081900360200190f35b34801561010457600080fd5b506100cf600435610278565b34801561011c57600080fd5b506100cf600160a060020a036004351661056b565b34801561013d57600080fd5b506100e661059a565b34801561015257600080fd5b506100cf60048035602481019101356105a0565b34801561017257600080fd5b506100cf6004356105b1565b34801561018a57600080fd5b506100e6610703565b34801561019f57600080fd5b506100e6610709565b3480156101b457600080fd5b506100cf600435600160a060020a036024351661070f565b3480156101d857600080fd5b506101e46004356107f3565b60408051600160a060020a039092168252519081900360200190f35b34801561020c57600080fd5b506100e6600160a060020a036004351661081b565b34801561022d57600080fd5b506100e66004356108de565b34801561024557600080fd5b506100cf600435600160a060020a0360243516610903565b34801561026957600080fd5b506101e46109dd565b60035b90565b606080600080600080600080805490506040519080825280602002602001820160405280156102b1578160200160208202803883390190505b5060005460408051828152602080840282010190915291985080156102e0578160200160208202803883390190505b5060028990556000549096506102fd90899063ffffffff6109ec16565b6000549095506103259061031890879063ffffffff610a0816565b899063ffffffff610a3a16565b9250600083111561033f5760005461033c906108de565b93505b600091505b6000548210156103e757508360008311801561035f57508184145b1561037757610374818463ffffffff610a4c16565b90505b600080548390811061038557fe5b6000918252602090912001548751600160a060020a03909116908890849081106103ab57fe5b600160a060020a03909216602092830290910190910152855181908790849081106103d257fe5b60209081029091010152600190910190610344565b6004546040805160248101918252895160648201528951600160a060020a03909316928a928a929091829160448101916084909101906020808801910280838360005b8381101561044257818101518382015260200161042a565b50505050905001838103825284818151815260200191508051906020019060200280838360005b83811015610481578181015183820152602001610469565b50506040805193909501838103601f19018452855250506020810180517fe2f764a3000000000000000000000000000000000000000000000000000000007bffffffffffffffffffffffffffffffffffffffffffffffffffffffff909116178152925181519198509650869550919350909150819050838360005b838110156105145781810151838201526020016104fc565b50505050905090810190601f1680156105415780820380516001836020036101000a031916815260200191505b509150506000604051808303816000865af1915050151561056157600080fd5b5050505050505050565b6004805473ffffffffffffffffffffffffffffffffffffffff1916600160a060020a0392909216919091179055565b60015481565b6105ac60008383610a5b565b505050565b60028190556000805481908190819081906105d390879063ffffffff6109ec16565b6000549095506105fb906105ee90879063ffffffff610a0816565b879063ffffffff610a3a16565b9250600083111561061557600054610612906108de565b93505b600091505b6000548210156106fb57508360008311801561063557508184145b1561064d5761064a818463ffffffff610a4c16565b90505b30600160a060020a031663aa9fa2748260008581548110151561066c57fe5b6000918252602082200154604080517c010000000000000000000000000000000000000000000000000000000063ffffffff87160281526004810194909452600160a060020a0390911660248401525160448084019382900301818387803b1580156106d757600080fd5b505af11580156106eb573d6000803e3d6000fd5b50506001909301925061061a9050565b505050505050565b60015490565b60025481565b6000821161071c57600080fd5b600160a060020a038116151561073157600080fd5b600154610744908363ffffffff610a4c16565b600155604080517fd2f240a8000000000000000000000000000000000000000000000000000000008152600481018490523360248201529051309163d2f240a891604480830192600092919082900301818387803b1580156107a557600080fd5b505af11580156107b9573d6000803e3d6000fd5b5050604051600160a060020a038416925084156108fc02915084906000818181858888f193505050501580156105ac573d6000803e3d6000fd5b600080548290811061080157fe5b600091825260209091200154600160a060020a0316905081565b604080517f6d696e746564546f74616c6c7942794272696467650000000000000000000000602080830191909152600160a060020a0384168284015282518083038401815260609092019283905281516000936003938593909282918401908083835b6020831061089d5780518252601f19909201916020918201910161087e565b51815160209384036101000a600019018019909216911617905260408051929094018290039091208652850195909552929092016000205495945050505050565b6000816108f243600163ffffffff610a3a16565b408115156108fc57fe5b0692915050565b604080517f6d696e746564546f74616c6c7942794272696467650000000000000000000000602080830191909152600160a060020a038416828401528251808303840181526060909201928390528151600093918291908401908083835b602083106109805780518252601f199092019160209182019101610961565b51815160209384036101000a6000190180199092169116179052604080519290940182900390912060008181526003909252929020549194506109c99350909150859050610a4c565b600091825260036020526040909120555050565b600454600160a060020a031681565b60008082848115156109fa57fe5b0490508091505b5092915050565b600080831515610a1b5760009150610a01565b50828202828482811515610a2b57fe5b0414610a3357fe5b9392505050565b600082821115610a4657fe5b50900390565b600082820183811015610a3357fe5b828054828255906000526020600020908101928215610abb579160200282015b82811115610abb57815473ffffffffffffffffffffffffffffffffffffffff1916600160a060020a03843516178255602090920191600190910190610a7b565b50610ac7929150610acb565b5090565b61027591905b80821115610ac757805473ffffffffffffffffffffffffffffffffffffffff19168155600101610ad15600a165627a7a7230582033729dfcef3359edc7eddd9d9411c6cfc98bcf019260f6934c6ffbb7390c2a670029",
  "source": "pragma solidity 0.4.24;\n\nimport \"../IBlockReward.sol\";\nimport \"../libraries/SafeMath.sol\";\n\n\ncontract BlockReward is IBlockReward {\n    using SafeMath for uint256;\n\n    address[] public validatorList;\n    uint256 public mintedCoins = 0;\n    uint256 public feeAmount = 0;\n    mapping(bytes32 => uint256) internal uintStorage;\n    bytes32 internal constant MINTED_TOTALLY_BY_BRIDGE = \"mintedTotallyByBridge\";\n    address public token;\n\n    function () external payable {\n    }\n\n    function bridgesAllowedLength() external view returns(uint256) {\n        return 3;\n    }\n\n    function addExtraReceiver(uint256 _amount, address _receiver) external {\n        require(_amount > 0);\n        require(_receiver != address(0));\n        mintedCoins = mintedCoins.add(_amount);\n        this.addMintedTotallyByBridge(_amount, msg.sender);\n        _receiver.transfer(_amount);\n    }\n\n    function mintedTotally() public view returns (uint256) {\n        return mintedCoins;\n    }\n\n    function mintedTotallyByBridge(address _bridge) public view returns(uint256) {\n        return uintStorage[\n        keccak256(abi.encode(MINTED_TOTALLY_BY_BRIDGE, _bridge))\n        ];\n    }\n\n    function addMintedTotallyByBridge(uint256 _amount, address _bridge) external {\n        bytes32 hash = keccak256(abi.encode(MINTED_TOTALLY_BY_BRIDGE, _bridge));\n        uintStorage[hash] = uintStorage[hash].add(_amount);\n    }\n\n    function setValidatorsRewards(address[] _initialValidators) external {\n        validatorList = _initialValidators;\n    }\n\n    function setToken(address _token) external {\n        token = _token;\n    }\n\n    function addBridgeNativeFeeReceivers(uint256 _amount) external {\n        feeAmount = _amount;\n        uint256 feePerValidator = _amount.div(validatorList.length);\n\n        uint256 randomValidatorIndex;\n        uint256 diff = _amount.sub(feePerValidator.mul(validatorList.length));\n        if (diff > 0) {\n            randomValidatorIndex = random(validatorList.length);\n        }\n\n        for (uint256 i = 0; i < validatorList.length; i++) {\n            uint256 feeToDistribute = feePerValidator;\n            if (diff > 0 && randomValidatorIndex == i) {\n                feeToDistribute = feeToDistribute.add(diff);\n            }\n            this.addExtraReceiver(feeToDistribute, validatorList[i]);\n        }\n    }\n\n    function addBridgeTokenFeeReceivers(uint256 _amount) external {\n        address[] memory receivers = new address[](validatorList.length);\n        uint256[] memory rewards = new uint256[](validatorList.length);\n        feeAmount = _amount;\n        uint256 feePerValidator = _amount.div(validatorList.length);\n\n        uint256 randomValidatorIndex;\n        uint256 diff = _amount.sub(feePerValidator.mul(validatorList.length));\n        if (diff > 0) {\n            randomValidatorIndex = random(validatorList.length);\n        }\n\n        for (uint256 i = 0; i < validatorList.length; i++) {\n            uint256 feeToDistribute = feePerValidator;\n            if (diff > 0 && randomValidatorIndex == i) {\n                feeToDistribute = feeToDistribute.add(diff);\n            }\n            receivers[i] = validatorList[i];\n            rewards[i] = feeToDistribute;\n        }\n\n        require(token.call(abi.encodeWithSignature(\"mintReward(address[],uint256[])\", receivers, rewards)));\n    }\n\n    function random(uint256 _count) public view returns(uint256) {\n        return uint256(blockhash(block.number.sub(1))) % _count;\n    }\n}\n",
  "sourcePath": "/Users/fbranci/iexecdev/vivani/tokenbridge/contracts/contracts/test/BlockReward.sol",
  "compiler": {
    "name": "solc",
    "version": "0.4.24+commit.e67f0147.Emscripten.clang"
  },
  "schemaVersion": "3.0.13",
  "updatedAt": "2019-08-28T14:04:53.164Z",
  "devdoc": {
    "methods": {}
  },
  "userdoc": {
    "methods": {}
  }
}