{
  "contractName": "BridgeValidators",
  "abi": [
    {
      "constant": true,
      "inputs": [],
      "name": "validatorCount",
      "outputs": [
        {
          "name": "",
          "type": "uint256"
        }
      ],
      "payable": false,
      "stateMutability": "view",
      "type": "function"
    },
    {
      "constant": true,
      "inputs": [],
      "name": "getBridgeValidatorsInterfacesVersion",
      "outputs": [
        {
          "name": "major",
          "type": "uint64"
        },
        {
          "name": "minor",
          "type": "uint64"
        },
        {
          "name": "patch",
          "type": "uint64"
        }
      ],
      "payable": false,
      "stateMutability": "pure",
      "type": "function"
    },
    {
      "constant": true,
      "inputs": [],
      "name": "isInitialized",
      "outputs": [
        {
          "name": "",
          "type": "bool"
        }
      ],
      "payable": false,
      "stateMutability": "view",
      "type": "function"
    },
    {
      "constant": true,
      "inputs": [],
      "name": "validatorList",
      "outputs": [
        {
          "name": "",
          "type": "address[]"
        }
      ],
      "payable": false,
      "stateMutability": "view",
      "type": "function"
    },
    {
      "constant": false,
      "inputs": [
        {
          "name": "_requiredSignatures",
          "type": "uint256"
        }
      ],
      "name": "setRequiredSignatures",
      "outputs": [],
      "payable": false,
      "stateMutability": "nonpayable",
      "type": "function"
    },
    {
      "constant": true,
      "inputs": [],
      "name": "requiredSignatures",
      "outputs": [
        {
          "name": "",
          "type": "uint256"
        }
      ],
      "payable": false,
      "stateMutability": "view",
      "type": "function"
    },
    {
      "constant": true,
      "inputs": [
        {
          "name": "_address",
          "type": "address"
        }
      ],
      "name": "getNextValidator",
      "outputs": [
        {
          "name": "",
          "type": "address"
        }
      ],
      "payable": false,
      "stateMutability": "view",
      "type": "function"
    },
    {
      "constant": true,
      "inputs": [],
      "name": "owner",
      "outputs": [
        {
          "name": "",
          "type": "address"
        }
      ],
      "payable": false,
      "stateMutability": "view",
      "type": "function"
    },
    {
      "constant": true,
      "inputs": [],
      "name": "deployedAtBlock",
      "outputs": [
        {
          "name": "",
          "type": "uint256"
        }
      ],
      "payable": false,
      "stateMutability": "view",
      "type": "function"
    },
    {
      "constant": true,
      "inputs": [],
      "name": "F_ADDR",
      "outputs": [
        {
          "name": "",
          "type": "address"
        }
      ],
      "payable": false,
      "stateMutability": "view",
      "type": "function"
    },
    {
      "constant": false,
      "inputs": [
        {
          "name": "newOwner",
          "type": "address"
        }
      ],
      "name": "transferOwnership",
      "outputs": [],
      "payable": false,
      "stateMutability": "nonpayable",
      "type": "function"
    },
    {
      "constant": true,
      "inputs": [
        {
          "name": "_validator",
          "type": "address"
        }
      ],
      "name": "isValidator",
      "outputs": [
        {
          "name": "",
          "type": "bool"
        }
      ],
      "payable": false,
      "stateMutability": "view",
      "type": "function"
    },
    {
      "anonymous": false,
      "inputs": [
        {
          "indexed": true,
          "name": "validator",
          "type": "address"
        }
      ],
      "name": "ValidatorAdded",
      "type": "event"
    },
    {
      "anonymous": false,
      "inputs": [
        {
          "indexed": true,
          "name": "validator",
          "type": "address"
        }
      ],
      "name": "ValidatorRemoved",
      "type": "event"
    },
    {
      "anonymous": false,
      "inputs": [
        {
          "indexed": false,
          "name": "requiredSignatures",
          "type": "uint256"
        }
      ],
      "name": "RequiredSignaturesChanged",
      "type": "event"
    },
    {
      "anonymous": false,
      "inputs": [
        {
          "indexed": false,
          "name": "previousOwner",
          "type": "address"
        },
        {
          "indexed": false,
          "name": "newOwner",
          "type": "address"
        }
      ],
      "name": "OwnershipTransferred",
      "type": "event"
    },
    {
      "constant": false,
      "inputs": [
        {
          "name": "_requiredSignatures",
          "type": "uint256"
        },
        {
          "name": "_initialValidators",
          "type": "address[]"
        },
        {
          "name": "_owner",
          "type": "address"
        }
      ],
      "name": "initialize",
      "outputs": [
        {
          "name": "",
          "type": "bool"
        }
      ],
      "payable": false,
      "stateMutability": "nonpayable",
      "type": "function"
    },
    {
      "constant": false,
      "inputs": [
        {
          "name": "_validator",
          "type": "address"
        }
      ],
      "name": "addValidator",
      "outputs": [],
      "payable": false,
      "stateMutability": "nonpayable",
      "type": "function"
    },
    {
      "constant": false,
      "inputs": [
        {
          "name": "_validator",
          "type": "address"
        }
      ],
      "name": "removeValidator",
      "outputs": [],
      "payable": false,
      "stateMutability": "nonpayable",
      "type": "function"
    }
  ],
  "bytecode": "0x608060405234801561001057600080fd5b50611487806100206000396000f3006080604052600436106100da5763ffffffff7c01000000000000000000000000000000000000000000000000000000006000350416630f43a67781146100df5780632bda4eee14610106578063392e53cd1461014757806340a141ff146101705780634d238c8e1461019357806352af719f146101b45780635890ef79146102195780637d2b9cc01461027e5780638d068043146102965780638d37052c146102ab5780638da5cb5b146102e85780639a454b99146102fd578063c794c76914610312578063f2fde38b14610327578063facd743b14610348575b600080fd5b3480156100eb57600080fd5b506100f4610369565b60408051918252519081900360200190f35b34801561011257600080fd5b5061011b61041d565b6040805167ffffffffffffffff9485168152928416602084015292168183015290519081900360600190f35b34801561015357600080fd5b5061015c610427565b604080519115158252519081900360200190f35b34801561017c57600080fd5b50610191600160a060020a03600435166104df565b005b34801561019f57600080fd5b50610191600160a060020a036004351661053b565b3480156101c057600080fd5b5060408051602060046024803582810135848102808701860190975280865261015c9684359636966044959194909101929182918501908490808284375094975050509235600160a060020a0316935061059792505050565b34801561022557600080fd5b5061022e6108f6565b60408051602080825283518183015283519192839290830191858101910280838360005b8381101561026a578181015183820152602001610252565b505050509050019250505060405180910390f35b34801561028a57600080fd5b506101916004356109c4565b3480156102a257600080fd5b506100f4610ae6565b3480156102b757600080fd5b506102cc600160a060020a0360043516610b59565b60408051600160a060020a039092168252519081900360200190f35b3480156102f457600080fd5b506102cc610c41565b34801561030957600080fd5b506100f4610cff565b34801561031e57600080fd5b506102cc610d40565b34801561033357600080fd5b50610191600160a060020a0360043516610d4b565b34801561035457600080fd5b5061015c600160a060020a0360043516610d88565b600080600060405160200180807f76616c696461746f72436f756e74000000000000000000000000000000000000815250600e0190506040516020818303038152906040526040518082805190602001908083835b602083106103dd5780518252601f1990920191602091820191016103be565b51815160209384036101000a6000190180199092169116179052604080519290940182900390912086528501959095529290920160002054949350505050565b6002806000909192565b60006004600060405160200180807f6973496e697469616c697a656400000000000000000000000000000000000000815250600d0190506040516020818303038152906040526040518082805190602001908083835b6020831061049c5780518252601f19909201916020918201910161047d565b51815160209384036101000a600019018019909216911617905260408051929094018290039091208652850195909552929092016000205460ff16949350505050565b6104e7610c41565b600160a060020a031633146104fb57600080fd5b61050481610dbb565b604051600160a060020a038216907fe1434e25d6611e0db941968fdc97811c982ac1602e951637d206f5fdda9dd8f190600090a250565b610543610c41565b600160a060020a0316331461055757600080fd5b61056081610edc565b604051600160a060020a038216907fe366c1c0452ed8eec96861e9e54141ebff23c9ec89fe27b996b45f5ec388498790600090a250565b6000806105a2610427565b156105ac57600080fd5b600160a060020a03831615156105c157600080fd5b6105ca83610f73565b8415156105d657600080fd5b83518511156105e457600080fd5b5060005b83518110156107b957835160009085908390811061060257fe5b90602001906020020151600160a060020a03161415801561064b57508351600160a060020a039085908390811061063557fe5b90602001906020020151600160a060020a031614155b151561065657600080fd5b610676848281518110151561066757fe5b90602001906020020151610d88565b1561068057600080fd5b8015156106e6576106af600160a060020a0385838151811015156106a057fe5b9060200190602002015161109b565b8351600114156106e1576106e184828151811015156106ca57fe5b90602001906020020151600160a060020a0361109b565b610743565b600184510381141561072f5761071e846001830381518110151561070657fe5b9060200190602002015185838151811015156106a057fe5b6106e184828151811015156106ca57fe5b610743846001830381518110151561070657fe5b61076461075f6001610753610369565b9063ffffffff6111a216565b6111b8565b838181518110151561077257fe5b90602001906020020151600160a060020a03167fe366c1c0452ed8eec96861e9e54141ebff23c9ec89fe27b996b45f5ec388498760405160405180910390a26001016105e8565b8460008060405160200180807f72657175697265645369676e617475726573000000000000000000000000000081525060120190506040516020818303038152906040526040518082805190602001908083835b6020831061082c5780518252601f19909201916020918201910161080d565b51815160001960209485036101000a01908116901991909116179052604080519490920184900390932086528583019690965250928401600090812095909555505081517f6465706c6f7965644174426c6f636b00000000000000000000000000000000008152825190819003600f019020835282905290204390556108b2600161126c565b6040805186815290517f10dbc913050d3180c3b99f7da91fd514af7cbc9c1bb59a0da5d2bc38f0cf395a9181900360200190a16108ed610427565b95945050505050565b606080600080610904610369565b60405190808252806020026020018201604052801561092d578160200160208202803883390190505b50925060009150610944600160a060020a03610b59565b9050600160a060020a038116151561095b57600080fd5b600160a060020a03818116146109bc5780838381518110151561097a57fe5b600160a060020a0390921660209283029091019091015261099a81610b59565b6001909201919050600160a060020a03811615156109b757600080fd5b61095b565b509092915050565b6109cc610c41565b600160a060020a031633146109e057600080fd5b806109e9610369565b10156109f457600080fd5b801515610a0057600080fd5b8060008060405160200180807f72657175697265645369676e617475726573000000000000000000000000000081525060120190506040516020818303038152906040526040518082805190602001908083835b60208310610a735780518252601f199092019160209182019101610a54565b51815160001960209485036101000a019081169019919091161790526040805194909201849003909320865285830196909652509284016000209490945550815184815291517f10dbc913050d3180c3b99f7da91fd514af7cbc9c1bb59a0da5d2bc38f0cf395a9350918290030190a150565b600080600060405160200180807f72657175697265645369676e61747572657300000000000000000000000000008152506012019050604051602081830303815290604052604051808280519060200190808383602083106103dd5780518252601f1990920191602091820191016103be565b6000600260008360405160200180807f76616c696461746f72734c697374000000000000000000000000000000000000815250600e0182600160a060020a0316600160a060020a03166c010000000000000000000000000281526014019150506040516020818303038152906040526040518082805190602001908083835b60208310610bf75780518252601f199092019160209182019101610bd8565b51815160209384036101000a6000190180199092169116179052604080519290940182900390912086528501959095529290920160002054600160a060020a031695945050505050565b60006002600060405160200180807f6f776e657200000000000000000000000000000000000000000000000000000081525060050190506040516020818303038152906040526040518082805190602001908083835b60208310610cb65780518252601f199092019160209182019101610c97565b51815160209384036101000a6000190180199092169116179052604080519290940182900390912086528501959095529290920160002054600160a060020a0316949350505050565b604080517f6465706c6f7965644174426c6f636b00000000000000000000000000000000008152815190819003600f01902060009081526020819052205490565b600160a060020a0381565b610d53610c41565b600160a060020a03163314610d6757600080fd5b600160a060020a0381161515610d7c57600080fd5b610d8581610f73565b50565b6000600160a060020a0382811614801590610db557506000610da983610b59565b600160a060020a031614155b92915050565b6000806000610dc8610ae6565b610dd0610369565b11610dda57600080fd5b610de384610d88565b1515610dee57600080fd5b610df784610b59565b9250600160a060020a039150610e0c82610b59565b9050600160a060020a0381161515610e2357600080fd5b600160a060020a0381811690851614610e7157809150610e4282610b59565b9050600160a060020a038082161480610e625750600160a060020a038116155b15610e6c57600080fd5b610e23565b610e7b828461109b565b610eba6040805190810160405280600e81526020017f76616c696461746f72734c6973740000000000000000000000000000000000008152508561132d565b610ed661075f6001610eca610369565b9063ffffffff61144916565b50505050565b6000600160a060020a03821615801590610eff5750600160a060020a0382811614155b1515610f0a57600080fd5b610f1382610d88565b15610f1d57600080fd5b610f2d600160a060020a03610b59565b9050600160a060020a0381161515610f4457600080fd5b610f4e828261109b565b610f5f600160a060020a038361109b565b610f6f61075f6001610753610369565b5050565b7f8be0079c531659141344cd1fd0a4f28419497f9722a3daafe3b4186f6b6457e0610f9c610c41565b60408051600160a060020a03928316815291841660208301528051918290030190a1806002600060405160200180807f6f776e657200000000000000000000000000000000000000000000000000000081525060050190506040516020818303038152906040526040518082805190602001908083835b602083106110325780518252601f199092019160209182019101611013565b51815160209384036101000a60001901801990921691161790526040805192909401829003909120865285019590955292909201600020805473ffffffffffffffffffffffffffffffffffffffff1916600160a060020a03959095169490941790935550505050565b80600260008460405160200180807f76616c696461746f72734c697374000000000000000000000000000000000000815250600e0182600160a060020a0316600160a060020a03166c010000000000000000000000000281526014019150506040516020818303038152906040526040518082805190602001908083835b602083106111385780518252601f199092019160209182019101611119565b51815160209384036101000a60001901801990921691161790526040805192909401829003909120865285019590955292909201600020805473ffffffffffffffffffffffffffffffffffffffff1916600160a060020a0395909516949094179093555050505050565b6000828201838110156111b157fe5b9392505050565b8060008060405160200180807f76616c696461746f72436f756e74000000000000000000000000000000000000815250600e0190506040516020818303038152906040526040518082805190602001908083835b6020831061122b5780518252601f19909201916020918201910161120c565b51815160209384036101000a600019018019909216911617905260408051929094018290039091208652850195909552929092016000209390935550505050565b806004600060405160200180807f6973496e697469616c697a656400000000000000000000000000000000000000815250600d0190506040516020818303038152906040526040518082805190602001908083835b602083106112e05780518252601f1990920191602091820191016112c1565b51815160209384036101000a60001901801990921691161790526040805192909401829003909120865285019590955292909201600020805460ff19169415159490941790935550505050565b6002600083836040516020018083805190602001908083835b602083106113655780518252601f199092019160209182019101611346565b6001836020036101000a03801982511681845116808217855250505050505090500182600160a060020a0316600160a060020a03166c01000000000000000000000000028152601401925050506040516020818303038152906040526040518082805190602001908083835b602083106113f05780518252601f1990920191602091820191016113d1565b51815160209384036101000a60001901801990921691161790526040805192909401829003909120865285019590955292909201600020805473ffffffffffffffffffffffffffffffffffffffff191690555050505050565b60008282111561145557fe5b509003905600a165627a7a72305820303bfc29ae557b6a60499bb3bb7287321950c1a60871ba5b6a64f801aa8ab93f0029",
  "source": "pragma solidity 0.4.24;\n\nimport \"./BaseBridgeValidators.sol\";\n\n\ncontract BridgeValidators is BaseBridgeValidators {\n\n    function initialize(\n        uint256 _requiredSignatures,\n        address[] _initialValidators,\n        address _owner\n    )\n        public\n        returns (bool)\n    {\n        require(!isInitialized());\n        require(_owner != address(0));\n        setOwner(_owner);\n        require(_requiredSignatures != 0);\n        require(_initialValidators.length >= _requiredSignatures);\n\n        for (uint256 i = 0; i < _initialValidators.length; i++) {\n            require(_initialValidators[i] != address(0) && _initialValidators[i] != F_ADDR);\n            require(!isValidator(_initialValidators[i]));\n\n            if (i == 0) {\n                setNextValidator(F_ADDR, _initialValidators[i]);\n                if (_initialValidators.length == 1) {\n                    setNextValidator(_initialValidators[i], F_ADDR);\n                }\n            } else if (i == _initialValidators.length - 1) {\n                setNextValidator(_initialValidators[i - 1], _initialValidators[i]);\n                setNextValidator(_initialValidators[i], F_ADDR);\n            } else {\n                setNextValidator(_initialValidators[i - 1], _initialValidators[i]);\n            }\n\n            setValidatorCount(validatorCount().add(1));\n            emit ValidatorAdded(_initialValidators[i]);\n        }\n\n        uintStorage[keccak256(abi.encodePacked(\"requiredSignatures\"))] = _requiredSignatures;\n        uintStorage[keccak256(\"deployedAtBlock\")] = block.number;\n        setInitialize(true);\n        emit RequiredSignaturesChanged(_requiredSignatures);\n\n        return isInitialized();\n    }\n\n    function addValidator(address _validator) external onlyOwner {\n        _addValidator(_validator);\n        emit ValidatorAdded(_validator);\n    }\n\n    function removeValidator(address _validator) external onlyOwner {\n        _removeValidator(_validator);\n        emit ValidatorRemoved(_validator);\n    }\n}\n",
  "sourcePath": "/Users/fbranci/iexecdev/vivani/tokenbridge/contracts/contracts/upgradeable_contracts/BridgeValidators.sol",
  "compiler": {
    "name": "solc",
    "version": "0.4.24+commit.e67f0147.Emscripten.clang"
  },
  "schemaVersion": "3.0.13",
  "updatedAt": "2019-08-28T14:04:53.224Z",
  "devdoc": {
    "methods": {
      "owner()": {
        "details": "Tells the address of the owner",
        "return": "the address of the owner"
      },
      "transferOwnership(address)": {
        "details": "Allows the current owner to transfer control of the contract to a newOwner.",
        "params": {
          "newOwner": "the address to transfer ownership to."
        }
      }
    }
  },
  "userdoc": {
    "methods": {}
  }
}