{
  "contractName": "ClassicHomeBridgeNativeToErc",
  "abi": [
    {
      "constant": true,
      "inputs": [
        {
          "name": "_message",
          "type": "bytes32"
        }
      ],
      "name": "numMessagesSigned",
      "outputs": [
        {
          "name": "",
          "type": "uint256"
        }
      ],
      "payable": false,
      "stateMutability": "view",
      "type": "function"
    },
    {
      "constant": true,
      "inputs": [
        {
          "name": "_hash",
          "type": "bytes32"
        },
        {
          "name": "_index",
          "type": "uint256"
        }
      ],
      "name": "signature",
      "outputs": [
        {
          "name": "",
          "type": "bytes"
        }
      ],
      "payable": false,
      "stateMutability": "view",
      "type": "function"
    },
    {
      "constant": false,
      "inputs": [
        {
          "name": "_validatorContract",
          "type": "address"
        },
        {
          "name": "_dailyLimit",
          "type": "uint256"
        },
        {
          "name": "_maxPerTx",
          "type": "uint256"
        },
        {
          "name": "_minPerTx",
          "type": "uint256"
        },
        {
          "name": "_homeGasPrice",
          "type": "uint256"
        },
        {
          "name": "_requiredBlockConfirmations",
          "type": "uint256"
        },
        {
          "name": "_foreignDailyLimit",
          "type": "uint256"
        },
        {
          "name": "_foreignMaxPerTx",
          "type": "uint256"
        },
        {
          "name": "_owner",
          "type": "address"
        },
        {
          "name": "_feeManager",
          "type": "address"
        },
        {
          "name": "_homeFee",
          "type": "uint256"
        },
        {
          "name": "_foreignFee",
          "type": "uint256"
        }
      ],
      "name": "rewardableInitialize",
      "outputs": [
        {
          "name": "",
          "type": "bool"
        }
      ],
      "payable": false,
      "stateMutability": "nonpayable",
      "type": "function"
    },
    {
      "constant": false,
      "inputs": [
        {
          "name": "_fee",
          "type": "uint256"
        }
      ],
      "name": "setForeignFee",
      "outputs": [],
      "payable": false,
      "stateMutability": "nonpayable",
      "type": "function"
    },
    {
      "constant": true,
      "inputs": [
        {
          "name": "_day",
          "type": "uint256"
        }
      ],
      "name": "totalSpentPerDay",
      "outputs": [
        {
          "name": "",
          "type": "uint256"
        }
      ],
      "payable": false,
      "stateMutability": "view",
      "type": "function"
    },
    {
      "constant": false,
      "inputs": [
        {
          "name": "_fee",
          "type": "uint256"
        }
      ],
      "name": "setHomeFee",
      "outputs": [],
      "payable": false,
      "stateMutability": "nonpayable",
      "type": "function"
    },
    {
      "constant": true,
      "inputs": [],
      "name": "isInitialized",
      "outputs": [
        {
          "name": "",
          "type": "bool"
        }
      ],
      "payable": false,
      "stateMutability": "view",
      "type": "function"
    },
    {
      "constant": false,
      "inputs": [
        {
          "name": "_dailyLimit",
          "type": "uint256"
        }
      ],
      "name": "setExecutionDailyLimit",
      "outputs": [],
      "payable": false,
      "stateMutability": "nonpayable",
      "type": "function"
    },
    {
      "constant": true,
      "inputs": [],
      "name": "getCurrentDay",
      "outputs": [
        {
          "name": "",
          "type": "uint256"
        }
      ],
      "payable": false,
      "stateMutability": "view",
      "type": "function"
    },
    {
      "constant": true,
      "inputs": [],
      "name": "requiredBlockConfirmations",
      "outputs": [
        {
          "name": "",
          "type": "uint256"
        }
      ],
      "payable": false,
      "stateMutability": "view",
      "type": "function"
    },
    {
      "constant": true,
      "inputs": [],
      "name": "requiredMessageLength",
      "outputs": [
        {
          "name": "",
          "type": "uint256"
        }
      ],
      "payable": false,
      "stateMutability": "pure",
      "type": "function"
    },
    {
      "constant": true,
      "inputs": [],
      "name": "getBridgeMode",
      "outputs": [
        {
          "name": "_data",
          "type": "bytes4"
        }
      ],
      "payable": false,
      "stateMutability": "pure",
      "type": "function"
    },
    {
      "constant": true,
      "inputs": [],
      "name": "executionDailyLimit",
      "outputs": [
        {
          "name": "",
          "type": "uint256"
        }
      ],
      "payable": false,
      "stateMutability": "view",
      "type": "function"
    },
    {
      "constant": true,
      "inputs": [
        {
          "name": "_hash",
          "type": "bytes32"
        }
      ],
      "name": "message",
      "outputs": [
        {
          "name": "",
          "type": "bytes"
        }
      ],
      "payable": false,
      "stateMutability": "view",
      "type": "function"
    },
    {
      "constant": true,
      "inputs": [
        {
          "name": "_day",
          "type": "uint256"
        }
      ],
      "name": "totalExecutedPerDay",
      "outputs": [
        {
          "name": "",
          "type": "uint256"
        }
      ],
      "payable": false,
      "stateMutability": "view",
      "type": "function"
    },
    {
      "constant": false,
      "inputs": [
        {
          "name": "_feeManager",
          "type": "address"
        }
      ],
      "name": "setFeeManagerContract",
      "outputs": [],
      "payable": false,
      "stateMutability": "nonpayable",
      "type": "function"
    },
    {
      "constant": false,
      "inputs": [
        {
          "name": "_validatorContract",
          "type": "address"
        },
        {
          "name": "_dailyLimit",
          "type": "uint256"
        },
        {
          "name": "_maxPerTx",
          "type": "uint256"
        },
        {
          "name": "_minPerTx",
          "type": "uint256"
        },
        {
          "name": "_homeGasPrice",
          "type": "uint256"
        },
        {
          "name": "_requiredBlockConfirmations",
          "type": "uint256"
        },
        {
          "name": "_foreignDailyLimit",
          "type": "uint256"
        },
        {
          "name": "_foreignMaxPerTx",
          "type": "uint256"
        },
        {
          "name": "_owner",
          "type": "address"
        }
      ],
      "name": "initialize",
      "outputs": [
        {
          "name": "",
          "type": "bool"
        }
      ],
      "payable": false,
      "stateMutability": "nonpayable",
      "type": "function"
    },
    {
      "constant": false,
      "inputs": [
        {
          "name": "signature",
          "type": "bytes"
        },
        {
          "name": "message",
          "type": "bytes"
        }
      ],
      "name": "submitSignature",
      "outputs": [],
      "payable": false,
      "stateMutability": "nonpayable",
      "type": "function"
    },
    {
      "constant": true,
      "inputs": [],
      "name": "dailyLimit",
      "outputs": [
        {
          "name": "",
          "type": "uint256"
        }
      ],
      "payable": false,
      "stateMutability": "view",
      "type": "function"
    },
    {
      "constant": false,
      "inputs": [
        {
          "name": "_token",
          "type": "address"
        },
        {
          "name": "_to",
          "type": "address"
        }
      ],
      "name": "claimTokens",
      "outputs": [],
      "payable": false,
      "stateMutability": "nonpayable",
      "type": "function"
    },
    {
      "constant": true,
      "inputs": [
        {
          "name": "_withdrawal",
          "type": "bytes32"
        }
      ],
      "name": "numAffirmationsSigned",
      "outputs": [
        {
          "name": "",
          "type": "uint256"
        }
      ],
      "payable": false,
      "stateMutability": "view",
      "type": "function"
    },
    {
      "constant": true,
      "inputs": [
        {
          "name": "_withdrawal",
          "type": "bytes32"
        }
      ],
      "name": "affirmationsSigned",
      "outputs": [
        {
          "name": "",
          "type": "bool"
        }
      ],
      "payable": false,
      "stateMutability": "view",
      "type": "function"
    },
    {
      "constant": true,
      "inputs": [
        {
          "name": "_amount",
          "type": "uint256"
        }
      ],
      "name": "withinExecutionLimit",
      "outputs": [
        {
          "name": "",
          "type": "bool"
        }
      ],
      "payable": false,
      "stateMutability": "view",
      "type": "function"
    },
    {
      "constant": true,
      "inputs": [],
      "name": "executionMaxPerTx",
      "outputs": [
        {
          "name": "",
          "type": "uint256"
        }
      ],
      "payable": false,
      "stateMutability": "view",
      "type": "function"
    },
    {
      "constant": true,
      "inputs": [],
      "name": "requiredSignatures",
      "outputs": [
        {
          "name": "",
          "type": "uint256"
        }
      ],
      "payable": false,
      "stateMutability": "view",
      "type": "function"
    },
    {
      "constant": true,
      "inputs": [],
      "name": "owner",
      "outputs": [
        {
          "name": "",
          "type": "address"
        }
      ],
      "payable": false,
      "stateMutability": "view",
      "type": "function"
    },
    {
      "constant": true,
      "inputs": [
        {
          "name": "_message",
          "type": "bytes32"
        }
      ],
      "name": "messagesSigned",
      "outputs": [
        {
          "name": "",
          "type": "bool"
        }
      ],
      "payable": false,
      "stateMutability": "view",
      "type": "function"
    },
    {
      "constant": true,
      "inputs": [],
      "name": "getHomeFee",
      "outputs": [
        {
          "name": "",
          "type": "uint256"
        }
      ],
      "payable": false,
      "stateMutability": "view",
      "type": "function"
    },
    {
      "constant": true,
      "inputs": [],
      "name": "validatorContract",
      "outputs": [
        {
          "name": "",
          "type": "address"
        }
      ],
      "payable": false,
      "stateMutability": "view",
      "type": "function"
    },
    {
      "constant": false,
      "inputs": [
        {
          "name": "recipient",
          "type": "address"
        },
        {
          "name": "value",
          "type": "uint256"
        },
        {
          "name": "transactionHash",
          "type": "bytes32"
        }
      ],
      "name": "executeAffirmation",
      "outputs": [],
      "payable": false,
      "stateMutability": "nonpayable",
      "type": "function"
    },
    {
      "constant": true,
      "inputs": [],
      "name": "deployedAtBlock",
      "outputs": [
        {
          "name": "",
          "type": "uint256"
        }
      ],
      "payable": false,
      "stateMutability": "view",
      "type": "function"
    },
    {
      "constant": true,
      "inputs": [],
      "name": "getBridgeInterfacesVersion",
      "outputs": [
        {
          "name": "major",
          "type": "uint64"
        },
        {
          "name": "minor",
          "type": "uint64"
        },
        {
          "name": "patch",
          "type": "uint64"
        }
      ],
      "payable": false,
      "stateMutability": "pure",
      "type": "function"
    },
    {
      "constant": false,
      "inputs": [
        {
          "name": "_minPerTx",
          "type": "uint256"
        }
      ],
      "name": "setMinPerTx",
      "outputs": [],
      "payable": false,
      "stateMutability": "nonpayable",
      "type": "function"
    },
    {
      "constant": false,
      "inputs": [
        {
          "name": "_blockConfirmations",
          "type": "uint256"
        }
      ],
      "name": "setRequiredBlockConfirmations",
      "outputs": [],
      "payable": false,
      "stateMutability": "nonpayable",
      "type": "function"
    },
    {
      "constant": false,
      "inputs": [
        {
          "name": "_dailyLimit",
          "type": "uint256"
        }
      ],
      "name": "setDailyLimit",
      "outputs": [],
      "payable": false,
      "stateMutability": "nonpayable",
      "type": "function"
    },
    {
      "constant": false,
      "inputs": [
        {
          "name": "_gasPrice",
          "type": "uint256"
        }
      ],
      "name": "setGasPrice",
      "outputs": [],
      "payable": false,
      "stateMutability": "nonpayable",
      "type": "function"
    },
    {
      "constant": false,
      "inputs": [
        {
          "name": "_maxPerTx",
          "type": "uint256"
        }
      ],
      "name": "setMaxPerTx",
      "outputs": [],
      "payable": false,
      "stateMutability": "nonpayable",
      "type": "function"
    },
    {
      "constant": true,
      "inputs": [],
      "name": "feeManagerContract",
      "outputs": [
        {
          "name": "",
          "type": "address"
        }
      ],
      "payable": false,
      "stateMutability": "view",
      "type": "function"
    },
    {
      "constant": true,
      "inputs": [],
      "name": "upgradeabilityAdmin",
      "outputs": [
        {
          "name": "",
          "type": "address"
        }
      ],
      "payable": false,
      "stateMutability": "view",
      "type": "function"
    },
    {
      "constant": true,
      "inputs": [],
      "name": "minPerTx",
      "outputs": [
        {
          "name": "",
          "type": "uint256"
        }
      ],
      "payable": false,
      "stateMutability": "view",
      "type": "function"
    },
    {
      "constant": true,
      "inputs": [
        {
          "name": "_amount",
          "type": "uint256"
        }
      ],
      "name": "withinLimit",
      "outputs": [
        {
          "name": "",
          "type": "bool"
        }
      ],
      "payable": false,
      "stateMutability": "view",
      "type": "function"
    },
    {
      "constant": false,
      "inputs": [
        {
          "name": "_maxPerTx",
          "type": "uint256"
        }
      ],
      "name": "setExecutionMaxPerTx",
      "outputs": [],
      "payable": false,
      "stateMutability": "nonpayable",
      "type": "function"
    },
    {
      "constant": true,
      "inputs": [],
      "name": "getFeeManagerMode",
      "outputs": [
        {
          "name": "",
          "type": "bytes4"
        }
      ],
      "payable": false,
      "stateMutability": "view",
      "type": "function"
    },
    {
      "constant": false,
      "inputs": [
        {
          "name": "newOwner",
          "type": "address"
        }
      ],
      "name": "transferOwnership",
      "outputs": [],
      "payable": false,
      "stateMutability": "nonpayable",
      "type": "function"
    },
    {
      "constant": true,
      "inputs": [],
      "name": "maxPerTx",
      "outputs": [
        {
          "name": "",
          "type": "uint256"
        }
      ],
      "payable": false,
      "stateMutability": "view",
      "type": "function"
    },
    {
      "constant": true,
      "inputs": [],
      "name": "gasPrice",
      "outputs": [
        {
          "name": "",
          "type": "uint256"
        }
      ],
      "payable": false,
      "stateMutability": "view",
      "type": "function"
    },
    {
      "constant": true,
      "inputs": [
        {
          "name": "_number",
          "type": "uint256"
        }
      ],
      "name": "isAlreadyProcessed",
      "outputs": [
        {
          "name": "",
          "type": "bool"
        }
      ],
      "payable": false,
      "stateMutability": "pure",
      "type": "function"
    },
    {
      "constant": true,
      "inputs": [],
      "name": "getForeignFee",
      "outputs": [
        {
          "name": "",
          "type": "uint256"
        }
      ],
      "payable": false,
      "stateMutability": "view",
      "type": "function"
    },
    {
      "payable": true,
      "stateMutability": "payable",
      "type": "fallback"
    },
    {
      "anonymous": false,
      "inputs": [
        {
          "indexed": false,
          "name": "feeAmount",
          "type": "uint256"
        },
        {
          "indexed": true,
          "name": "transactionHash",
          "type": "bytes32"
        }
      ],
      "name": "FeeDistributedFromAffirmation",
      "type": "event"
    },
    {
      "anonymous": false,
      "inputs": [
        {
          "indexed": false,
          "name": "feeAmount",
          "type": "uint256"
        },
        {
          "indexed": true,
          "name": "transactionHash",
          "type": "bytes32"
        }
      ],
      "name": "FeeDistributedFromSignatures",
      "type": "event"
    },
    {
      "anonymous": false,
      "inputs": [
        {
          "indexed": false,
          "name": "recipient",
          "type": "address"
        },
        {
          "indexed": false,
          "name": "value",
          "type": "uint256"
        }
      ],
      "name": "UserRequestForSignature",
      "type": "event"
    },
    {
      "anonymous": false,
      "inputs": [
        {
          "indexed": false,
          "name": "recipient",
          "type": "address"
        },
        {
          "indexed": false,
          "name": "value",
          "type": "uint256"
        },
        {
          "indexed": false,
          "name": "transactionHash",
          "type": "bytes32"
        }
      ],
      "name": "AffirmationCompleted",
      "type": "event"
    },
    {
      "anonymous": false,
      "inputs": [
        {
          "indexed": true,
          "name": "signer",
          "type": "address"
        },
        {
          "indexed": false,
          "name": "messageHash",
          "type": "bytes32"
        }
      ],
      "name": "SignedForUserRequest",
      "type": "event"
    },
    {
      "anonymous": false,
      "inputs": [
        {
          "indexed": true,
          "name": "signer",
          "type": "address"
        },
        {
          "indexed": false,
          "name": "transactionHash",
          "type": "bytes32"
        }
      ],
      "name": "SignedForAffirmation",
      "type": "event"
    },
    {
      "anonymous": false,
      "inputs": [
        {
          "indexed": false,
          "name": "authorityResponsibleForRelay",
          "type": "address"
        },
        {
          "indexed": false,
          "name": "messageHash",
          "type": "bytes32"
        },
        {
          "indexed": false,
          "name": "NumberOfCollectedSignatures",
          "type": "uint256"
        }
      ],
      "name": "CollectedSignatures",
      "type": "event"
    },
    {
      "anonymous": false,
      "inputs": [
        {
          "indexed": false,
          "name": "gasPrice",
          "type": "uint256"
        }
      ],
      "name": "GasPriceChanged",
      "type": "event"
    },
    {
      "anonymous": false,
      "inputs": [
        {
          "indexed": false,
          "name": "requiredBlockConfirmations",
          "type": "uint256"
        }
      ],
      "name": "RequiredBlockConfirmationChanged",
      "type": "event"
    },
    {
      "anonymous": false,
      "inputs": [
        {
          "indexed": false,
          "name": "newLimit",
          "type": "uint256"
        }
      ],
      "name": "DailyLimitChanged",
      "type": "event"
    },
    {
      "anonymous": false,
      "inputs": [
        {
          "indexed": false,
          "name": "newLimit",
          "type": "uint256"
        }
      ],
      "name": "ExecutionDailyLimitChanged",
      "type": "event"
    },
    {
      "anonymous": false,
      "inputs": [
        {
          "indexed": false,
          "name": "previousOwner",
          "type": "address"
        },
        {
          "indexed": false,
          "name": "newOwner",
          "type": "address"
        }
      ],
      "name": "OwnershipTransferred",
      "type": "event"
    }
  ],
  "bytecode": "0x608060405234801561001057600080fd5b506149d3806100206000396000f30060806040526004361061022c5763ffffffff60e060020a6000350416630cbf060181146103925780631812d996146103bc57806322fe0cb41461044c578063286c4066146104b35780632bd0bb05146104cd57806334a9e148146104e5578063392e53cd146104fd5780633dd95d1b146105125780633e6968b61461052a5780633f0a9f651461053f578063408fef2e14610554578063437764df1461056957806343b37dd31461059b578063490a32c6146105b05780634fb3fef7146105c857806360756f7c146105e0578063620b3f9b14610601578063630cea8e1461064557806367eeba0c1461067157806369ffa08a146106865780636ae1a976146106ad5780637698da24146106c5578063879ce676146106dd5780638aa1949a146106f55780638d0680431461070a5780638da5cb5b1461071f5780638f4b4b981461075057806394da17cd14610768578063994390891461077d578063995b2cff146107925780639a454b99146107b95780639cb7595a146107ce578063a2a6ca271461080f578063acf5c68914610827578063b20d30a91461083f578063bf1fe42014610857578063c6f6f2161461086f578063dbe03a8b14610887578063df0ad3de1461089c578063df25f3f0146108b1578063ea9f4968146108c6578063f20151e1146108de578063f2ba9561146108f6578063f2fde38b1461090b578063f968adbe1461092c578063fe173b9714610941578063ffd19e8c14610956578063ffd661961461096e575b6000808034811061023c57600080fd5b361561024757600080fd5b61025034610983565b151561025b57600080fd5b61028b6102666109cf565b6102863461027a6102756109cf565b6109d9565b9063ffffffff610a9616565b610aa5565b349250610296610b62565b9150600160a060020a038216156103525761033d83600084604051602001808060008051602061498883398151915281525060080190506040516020818303038152906040526040518082805190602001908083835b6020831061030b5780518252601f1990920191602091820191016102ec565b6001836020036101000a0380198251168184511680821785525050505050509050019150506040518091039020610c20565b905061034f838263ffffffff610cb516565b92505b604080513381526020810185905281517f127650bcfb0ba017401abe4931453a405140a8fd36fece67bae2db174d3fdd63929181900390910190a1505050005b34801561039e57600080fd5b506103aa600435610cc7565b60408051918252519081900360200190f35b3480156103c857600080fd5b506103d7600435602435610d4a565b6040805160208082528351818301528351919283929083019185019080838360005b838110156104115781810151838201526020016103f9565b50505050905090810190601f16801561043e5780820380516001836020036101000a031916815260200191505b509250505060405180910390f35b34801561045857600080fd5b5061049f600160a060020a036004358116906024359060443590606435906084359060a4359060c4359060e435906101043581169061012435166101443561016435610de1565b604080519115158252519081900360200190f35b3480156104bf57600080fd5b506104cb600435610ff3565b005b3480156104d957600080fd5b506103aa6004356109d9565b3480156104f157600080fd5b506104cb60043561107a565b34801561050957600080fd5b5061049f6110fe565b34801561051e57600080fd5b506104cb6004356111b6565b34801561053657600080fd5b506103aa6109cf565b34801561054b57600080fd5b506103aa6112b8565b34801561056057600080fd5b506103aa61136c565b34801561057557600080fd5b5061057e61137b565b60408051600160e060020a03199092168252519081900360200190f35b3480156105a757600080fd5b506103aa61141e565b3480156105bc57600080fd5b506103d7600435611491565b3480156105d457600080fd5b506103aa6004356114a2565b3480156105ec57600080fd5b506104cb600160a060020a036004351661151d565b34801561060d57600080fd5b5061049f600160a060020a036004358116906024359060443590606435906084359060a4359060c4359060e43590610104351661163b565b34801561065157600080fd5b506104cb602460048035828101929082013591813591820191013561166e565b34801561067d57600080fd5b506103aa611b01565b34801561069257600080fd5b506104cb600160a060020a0360043581169060243516611b74565b3480156106b957600080fd5b506103aa600435611d30565b3480156106d157600080fd5b5061049f600435611db3565b3480156106e957600080fd5b5061049f600435611e7c565b34801561070157600080fd5b506103aa611eb9565b34801561071657600080fd5b506103aa611f2c565b34801561072b57600080fd5b50610734611fa4565b60408051600160a060020a039092168252519081900360200190f35b34801561075c57600080fd5b5061049f600435612018565b34801561077457600080fd5b506103aa61209c565b34801561078957600080fd5b50610734612130565b34801561079e57600080fd5b506104cb600160a060020a03600435166024356044356121a4565b3480156107c557600080fd5b506103aa61249e565b3480156107da57600080fd5b506107e3612511565b6040805167ffffffffffffffff9485168152928416602084015292168183015290519081900360600190f35b34801561081b57600080fd5b506104cb60043561251b565b34801561083357600080fd5b506104cb600435612612565b34801561084b57600080fd5b506104cb600435612721565b34801561086357600080fd5b506104cb600435612823565b34801561087b57600080fd5b506104cb600435612932565b34801561089357600080fd5b50610734610b62565b3480156108a857600080fd5b506107346129d3565b3480156108bd57600080fd5b506103aa612a13565b3480156108d257600080fd5b5061049f600435610983565b3480156108ea57600080fd5b506104cb600435612a86565b34801561090257600080fd5b5061057e612b27565b34801561091757600080fd5b506104cb600160a060020a0360043516612b9e565b34801561093857600080fd5b506103aa612bd8565b34801561094d57600080fd5b506103aa612c4b565b34801561096257600080fd5b5061049f600435612cbe565b34801561097a57600080fd5b506103aa612ce6565b6000806109958361027a6102756109cf565b9050806109a0611b01565b101580156109b557506109b1612bd8565b8311155b80156109c857506109c4612a13565b8310155b9392505050565b6201518042045b90565b60008060008360405160200180807f746f74616c5370656e74506572446179000000000000000000000000000000008152506010018281526020019150506040516020818303038152906040526040518082805190602001908083835b60208310610a555780518252601f199092019160209182019101610a36565b51815160209384036101000a600019018019909216911617905260408051929094018290039091208652850195909552929092016000205495945050505050565b6000828201838110156109c857fe5b806000808460405160200180807f746f74616c5370656e74506572446179000000000000000000000000000000008152506010018281526020019150506040516020818303038152906040526040518082805190602001908083835b60208310610b205780518252601f199092019160209182019101610b01565b51815160209384036101000a60001901801990921691161790526040805192909401829003909120865285019590955292909201600020939093555050505050565b60006002600060405160200180807f6665654d616e61676572436f6e7472616374000000000000000000000000000081525060120190506040516020818303038152906040526040518082805190602001908083835b60208310610bd75780518252601f199092019160209182019101610bb8565b51815160209384036101000a6000190180199092169116179052604080519290940182900390912086528501959095529290920160002054600160a060020a0316949350505050565b60408051602481018690528415156044820152606480820184905282518083039091018152608490910190915260208181018051600160e060020a03167f9862f26f000000000000000000000000000000000000000000000000000000001781528251600093849390929091849182895af26000519250808015610ca357610ca8565b600080fd5b5091979650505050505050565b600082821115610cc157fe5b50900390565b60008060008360405160200180807f6e756d4d657373616765735369676e6564000000000000000000000000000000815250601101826000191660001916815260200191505060405160208183030381529060405260405180828051906020019080838360208310610a555780518252601f199092019160209182019101610a36565b604080516020808201859052818301849052825180830384018152606092830193849052805192936000939192909182918401908083835b60208310610da15780518252601f199092019160209182019101610d82565b6001836020036101000a03801982511681845116808217855250505050505090500191505060405180910390209050610dd981612d47565b949350505050565b6000610df48d8d8d8d8d8d8d8d8d612eaf565b610dfd846130a8565b1515610e0857600080fd5b836002600060405160200180807f6665654d616e61676572436f6e7472616374000000000000000000000000000081525060120190506040516020818303038152906040526040518082805190602001908083835b60208310610e7c5780518252601f199092019160209182019101610e5d565b51815160209384036101000a6000190180199092169116179052604080519290940182900390912086528581019690965250928301600020805473ffffffffffffffffffffffffffffffffffffffff1916600160a060020a03969096169590951790945550805160008051602061498883398151915281840152815160088183030181526028909101918290528051610f6f9450889388939182918401908083835b60208310610f3d5780518252601f199092019160209182019101610f1e565b6001836020036101000a03801982511681845116808217855250505050505090500191505060405180910390206130b0565b610fd084836040516020018080600080516020614968833981519152815250600b01905060405160208183030381529060405260405180828051906020019080838360208310610f3d5780518252601f199092019160209182019101610f1e565b610fda60016132cc565b610fe26110fe565b9d9c50505050505050505050505050565b610ffb611fa4565b600160a060020a0316331461100f57600080fd5b61107761101a610b62565b826040516020018080600080516020614968833981519152815250600b01905060405160208183030381529060405260405180828051906020019080838360208310610f3d5780518252601f199092019160209182019101610f1e565b50565b611082611fa4565b600160a060020a0316331461109657600080fd5b6110776110a1610b62565b826040516020018080600080516020614988833981519152815250600801905060405160208183030381529060405260405180828051906020019080838360208310610f3d5780518252601f199092019160209182019101610f1e565b60006004600060405160200180807f6973496e697469616c697a656400000000000000000000000000000000000000815250600d0190506040516020818303038152906040526040518082805190602001908083835b602083106111735780518252601f199092019160209182019101611154565b51815160209384036101000a600019018019909216911617905260408051929094018290039091208652850195909552929092016000205460ff16949350505050565b6111be611fa4565b600160a060020a031633146111d257600080fd5b8060008060405160200180807f657865637574696f6e4461696c794c696d69740000000000000000000000000081525060130190506040516020818303038152906040526040518082805190602001908083835b602083106112455780518252601f199092019160209182019101611226565b51815160001960209485036101000a019081169019919091161790526040805194909201849003909320865285830196909652509284016000209490945550815184815291517f9bebf928b90863f24cc31f726a3a7545efd409f1dcf552301b1ee3710da70d3b9350918290030190a150565b600080600060405160200180807f7265717569726564426c6f636b436f6e6669726d6174696f6e73000000000000815250601a0190506040516020818303038152906040526040518082805190602001908083835b6020831061132c5780518252601f19909201916020918201910161130d565b51815160209384036101000a6000190180199092169116179052604080519290940182900390912086528501959095529290920160002054949350505050565b600061137661338d565b905090565b600060405160200180807f6e61746976652d746f2d6572632d636f7265000000000000000000000000000081525060120190506040516020818303038152906040526040518082805190602001908083835b602083106113ec5780518252601f1990920191602091820191016113cd565b6001836020036101000a0380198251168184511680821785525050505050509050019150506040518091039020905090565b600080600060405160200180807f657865637574696f6e4461696c794c696d69740000000000000000000000000081525060130190506040516020818303038152906040526040518082805190602001908083836020831061132c5780518252601f19909201916020918201910161130d565b606061149c82613392565b92915050565b60008060008360405160200180807f746f74616c45786563757465645065724461790000000000000000000000000081525060130182815260200191505060405160208183030381529060405260405180828051906020019080838360208310610a555780518252601f199092019160209182019101610a36565b611525611fa4565b600160a060020a0316331461153957600080fd5b600160a060020a03811615806115535750611553816130a8565b151561155e57600080fd5b806002600060405160200180807f6665654d616e61676572436f6e7472616374000000000000000000000000000081525060120190506040516020818303038152906040526040518082805190602001908083835b602083106115d25780518252601f1990920191602091820191016115b3565b51815160209384036101000a60001901801990921691161790526040805192909401829003909120865285019590955292909201600020805473ffffffffffffffffffffffffffffffffffffffff1916600160a060020a03959095169490941790935550505050565b600061164e8a8a8a8a8a8a8a8a8a612eaf565b61165860016132cc565b6116606110fe565b9a9950505050505050505050565b600080600080600061167e612130565b600160a060020a031663facd743b336040518263ffffffff1660e060020a0281526004018082600160a060020a0316600160a060020a03168152602001915050602060405180830381600087803b1580156116d857600080fd5b505af11580156116ec573d6000803e3d6000fd5b505050506040513d602081101561170257600080fd5b5051151561170f57600080fd5b61174887878080601f01602080910402602001604051908101604052809392919081815260200183838082843750613416945050505050565b151561175357600080fd5b6117ba89898080601f0160208091040260200160405190810160405280939291908181526020018383808284375050604080516020601f8f018190048102820181019092528d815294508d93508c925082915084018382808284375061342a945050505050565b600160a060020a031633146117ce57600080fd5b8686604051602001808383808284378201915050925050506040516020818303038152906040526040518082805190602001908083835b602083106118245780518252601f199092019160209182019101611805565b51815160209384036101000a600019018019909216911617905260408051929094018290038220336c0100000000000000000000000002838301526034808401829052855180850390910181526054909301948590528251909b509195509293508392850191508083835b602083106118ae5780518252601f19909201916020918201910161188f565b6001836020036101000a038019825116818451168082178552505050505050905001915050604051809103902093506118e685610cc7565b92506118f183612cbe565b156118fb57600080fd5b6001928301928311156119205761191184612018565b1561191b57600080fd5b61195a565b61195a8588888080601f016020809104026020016040519081016040528093929190818152602001838380828437506134ea945050505050565b6119658460016135c1565b604080516020808201889052600019860182840152825180830384018152606090920192839052815191929182918401908083835b602083106119b95780518252601f19909201916020918201910161199a565b51815160209384036101000a600019018019909216911617905260408051929094018290038220601f8f018290048202830182019094528d8252929650611a1a9450869350918d91508c908190840183828082843750613693945050505050565b611a248584613716565b60408051868152905133917fbf06885f40778f5ccfb64497d3f92ce568ddaedb7e2fb4487f72690418cf8e4c919081900360200190a2611a62611f2c565b9050808310611af657611a7d85611a7885613798565b613716565b604080513381526020810187905280820183905290517f415557404d88a0c0b8e3b16967cafffc511213fd9c465c16832ee17ed57d72379181900360600190a1611af687878080601f016020809104026020016040519081016040528093929190818152602001838380828437506137bd945050505050565b505050505050505050565b600080600060405160200180807f6461696c794c696d697400000000000000000000000000000000000000000000815250600a0190506040516020818303038152906040526040518082805190602001908083836020831061132c5780518252601f19909201916020918201910161130d565b600080611b7f6129d3565b600160a060020a03163314611b9357600080fd5b600160a060020a0383161515611ba857600080fd5b600160a060020a0384161515611bf457604051600160a060020a03841690303180156108fc02916000818181858888f19350505050158015611bee573d6000803e3d6000fd5b50611d2a565b604080517f70a082310000000000000000000000000000000000000000000000000000000081523060048201529051859350600160a060020a038416916370a082319160248083019260209291908290030181600087803b158015611c5857600080fd5b505af1158015611c6c573d6000803e3d6000fd5b505050506040513d6020811015611c8257600080fd5b5051604080517fa9059cbb000000000000000000000000000000000000000000000000000000008152600160a060020a0386811660048301526024820184905291519293509084169163a9059cbb916044808201926020929091908290030181600087803b158015611cf357600080fd5b505af1158015611d07573d6000803e3d6000fd5b505050506040513d6020811015611d1d57600080fd5b50511515611d2a57600080fd5b50505050565b60008060008360405160200180807f6e756d41666669726d6174696f6e735369676e65640000000000000000000000815250601501826000191660001916815260200191505060405160208183030381529060405260405180828051906020019080838360208310610a555780518252601f199092019160209182019101610a36565b6000600460008360405160200180807f61666669726d6174696f6e735369676e6564000000000000000000000000000081525060120182600019166000191681526020019150506040516020818303038152906040526040518082805190602001908083835b60208310611e385780518252601f199092019160209182019101611e19565b51815160209384036101000a600019018019909216911617905260408051929094018290039091208652850195909552929092016000205460ff1695945050505050565b600080611e938361027a611e8e6109cf565b6114a2565b905080611e9e61141e565b101580156109c85750611eaf611eb9565b9092111592915050565b600080600060405160200180807f657865637574696f6e4d6178506572547800000000000000000000000000000081525060110190506040516020818303038152906040526040518082805190602001908083836020831061132c5780518252601f19909201916020918201910161130d565b6000611f36612130565b600160a060020a0316638d0680436040518163ffffffff1660e060020a028152600401602060405180830381600087803b158015611f7357600080fd5b505af1158015611f87573d6000803e3d6000fd5b505050506040513d6020811015611f9d57600080fd5b5051905090565b60006002600060405160200180807f6f776e6572000000000000000000000000000000000000000000000000000000815250600501905060405160208183030381529060405260405180828051906020019080838360208310610bd75780518252601f199092019160209182019101610bb8565b6000600460008360405160200180807f6d657373616765735369676e6564000000000000000000000000000000000000815250600e01826000191660001916815260200191505060405160208183030381529060405260405180828051906020019080838360208310611e385780518252601f199092019160209182019101611e19565b6000611376604051602001808060008051602061498883398151915281525060080190506040516020818303038152906040526040518082805190602001908083835b602083106120fe5780518252601f1990920191602091820191016120df565b6001836020036101000a0380198251168184511680821785525050505050509050019150506040518091039020613877565b60006002600060405160200180807f76616c696461746f72436f6e7472616374000000000000000000000000000000815250601101905060405160208183030381529060405260405180828051906020019080838360208310610bd75780518252601f199092019160209182019101610bb8565b60008060006121b1612130565b600160a060020a031663facd743b336040518263ffffffff1660e060020a0281526004018082600160a060020a0316600160a060020a03168152602001915050602060405180830381600087803b15801561220b57600080fd5b505af115801561221f573d6000803e3d6000fd5b505050506040513d602081101561223557600080fd5b5051151561224257600080fd5b61224b85613a3e565b1561248b57604080516c01000000000000000000000000600160a060020a0389160260208083019190915260348201889052605480830188905283518084039091018152607490920192839052815191929182918401908083835b602083106122c55780518252601f1990920191602091820191016122a6565b51815160209384036101000a600019018019909216911617905260408051929094018290038220336c01000000000000000000000000028383015260348084018290528551808503909101815260549093019485905282519099509195509293508392850191508083835b6020831061234f5780518252601f199092019160209182019101612330565b6001836020036101000a0380198251168184511680821785525050505050509050019150506040518091039020915061238782611db3565b1561239157600080fd5b61239c826001613a49565b6123a583611d30565b90506123b081612cbe565b156123ba57600080fd5b6001016123c78382613acc565b60408051858152905133917f5df9cc3eb93d8a9a481857a3b70a8ca966e6b80b25cf0ee2cce180ec5afa80a1919081900360200190a2612405611f2c565b81106124865761241d8361241883613798565b613acc565b600085111561243c57612431868686613b4e565b151561243c57600080fd5b60408051600160a060020a03881681526020810187905280820186905290517f6fc115a803b8703117d9a3956c5a15401cb42401f91630f015eb6b043fa762539181900360600190a15b612496565b612496868686610ca3565b505050505050565b600080600060405160200180807f6465706c6f7965644174426c6f636b0000000000000000000000000000000000815250600f0190506040516020818303038152906040526040518082805190602001908083836020831061132c5780518252601f19909201916020918201910161130d565b6002806000909192565b612523611fa4565b600160a060020a0316331461253757600080fd5b61253f611b01565b811080156125535750612550612bd8565b81105b151561255e57600080fd5b8060008060405160200180807f6d696e506572547800000000000000000000000000000000000000000000000081525060080190506040516020818303038152906040526040518082805190602001908083835b602083106125d15780518252601f1990920191602091820191016125b2565b51815160209384036101000a600019018019909216911617905260408051929094018290039091208652850195909552929092016000209390935550505050565b61261a611fa4565b600160a060020a0316331461262e57600080fd5b6000811161263b57600080fd5b8060008060405160200180807f7265717569726564426c6f636b436f6e6669726d6174696f6e73000000000000815250601a0190506040516020818303038152906040526040518082805190602001908083835b602083106126ae5780518252601f19909201916020918201910161268f565b51815160001960209485036101000a019081169019919091161790526040805194909201849003909320865285830196909652509284016000209490945550815184815291517f4fb76205cd57c896b21511d2114137d8e901b4ccd659e1a0f97d6306795264fb9350918290030190a150565b612729611fa4565b600160a060020a0316331461273d57600080fd5b8060008060405160200180807f6461696c794c696d697400000000000000000000000000000000000000000000815250600a0190506040516020818303038152906040526040518082805190602001908083835b602083106127b05780518252601f199092019160209182019101612791565b51815160001960209485036101000a019081169019919091161790526040805194909201849003909320865285830196909652509284016000209490945550815184815291517fad4123ae17c414d9c6d2fec478b402e6b01856cc250fd01fbfd252fda0089d3c9350918290030190a150565b61282b611fa4565b600160a060020a0316331461283f57600080fd5b6000811161284c57600080fd5b8060008060405160200180807f676173507269636500000000000000000000000000000000000000000000000081525060080190506040516020818303038152906040526040518082805190602001908083835b602083106128bf5780518252601f1990920191602091820191016128a0565b51815160001960209485036101000a019081169019919091161790526040805194909201849003909320865285830196909652509284016000209490945550815184815291517f52264b89e0fceafb26e79fd49ef8a366eb6297483bf4035b027f0c99a7ad512e9350918290030190a150565b61293a611fa4565b600160a060020a0316331461294e57600080fd5b612956611b01565b811061296157600080fd5b8060008060405160200180807f6d617850657254780000000000000000000000000000000000000000000000008152506008019050604051602081830303815290604052604051808280519060200190808383602083106125d15780518252601f1990920191602091820191016125b2565b600030600160a060020a031663025313a26040518163ffffffff1660e060020a028152600401602060405180830381600087803b158015611f7357600080fd5b600080600060405160200180807f6d696e506572547800000000000000000000000000000000000000000000000081525060080190506040516020818303038152906040526040518082805190602001908083836020831061132c5780518252601f19909201916020918201910161130d565b612a8e611fa4565b600160a060020a03163314612aa257600080fd5b612aaa61141e565b8110612ab557600080fd5b8060008060405160200180807f657865637574696f6e4d617850657254780000000000000000000000000000008152506011019050604051602081830303815290604052604051808280519060200190808383602083106125d15780518252601f1990920191602091820191016125b2565b604080516004815260248101909152602081018051600160e060020a03167ff2ba956100000000000000000000000000000000000000000000000000000000179052600090819081612b77610b62565b9050600460008351602085016000855af26000519350808015610ca3575092949350505050565b612ba6611fa4565b600160a060020a03163314612bba57600080fd5b600160a060020a0381161515612bcf57600080fd5b61107781613c84565b600080600060405160200180807f6d6178506572547800000000000000000000000000000000000000000000000081525060080190506040516020818303038152906040526040518082805190602001908083836020831061132c5780518252601f19909201916020918201910161130d565b600080600060405160200180807f676173507269636500000000000000000000000000000000000000000000000081525060080190506040516020818303038152906040526040518082805190602001908083836020831061132c5780518252601f19909201916020918201910161130d565b7f80000000000000000000000000000000000000000000000000000000000000009081161490565b60006113766040516020018080600080516020614968833981519152815250600b019050604051602081830303815290604052604051808280519060200190808383602083106120fe5780518252601f1990920191602091820191016120df565b6060600360008360405160200180807f7369676e61747572657300000000000000000000000000000000000000000000815250600a0182600019166000191681526020019150506040516020818303038152906040526040518082805190602001908083835b60208310612dcc5780518252601f199092019160209182019101612dad565b6001836020036101000a0380198251168184511680821785525050505050509050019150506040518091039020600019166000191681526020019081526020016000208054600181600116156101000203166002900480601f016020809104026020016040519081016040528092919081815260200182805460018160011615610100020316600290048015612ea35780601f10612e7857610100808354040283529160200191612ea3565b820191906000526020600020905b815481529060010190602001808311612e8657829003601f168201915b50505050509050919050565b612ec0898989898989898989613d42565b604080517f7369676e617475726528627974657333322c75696e74323536290000000000008152815190819003601a0181207f6461746153697a65730000000000000000000000000000000000000000000000602080840191909152600160e060020a031990911660298301528251600d818403018152602d9092019283905281516084936000938493909282918401908083835b60208310612f745780518252601f199092019160209182019101612f55565b51815160001960209485036101000a01908116901991909116179052604080519490920184900390932086528583019690965250928401600090812095909555505081517f6d65737361676528627974657333322900000000000000000000000000000000815282519081900360100181207f6461746153697a6573000000000000000000000000000000000000000000000082840152600160e060020a03191660298201528251600d818303018152602d90910192839052805160d294938493909182918401908083835b6020831061305f5780518252601f199092019160209182019101613040565b51815160209384036101000a6000190180199092169116179052604080519290940182900390912086528501959095529290920160002093909355505050505050505050505050565b6000903b1190565b6060604051602001808060008051602061498883398151915281525060080190506040516020818303038152906040526040518082805190602001908083835b6020831061310f5780518252601f1990920191602091820191016130f0565b5181516020939093036101000a600019018019909116921691909117905260405192018290039091208514925061317c9150505760408051808201909152601681527f736574466f726569676e4665652875696e74323536290000000000000000000060208201526131b1565b60408051808201909152601381527f736574486f6d654665652875696e74323536290000000000000000000000000060208201525b905083600160a060020a0316818460405160240180828152602001915050604051602081830303815290604052906040518082805190602001908083835b6020831061320e5780518252601f1990920191602091820191016131ef565b51815160001960209485036101000a0190811690199190911617905260408051949092018490039093209286018051600160e060020a0316600160e060020a0319909416939093178352518551909450849350905080838360005b83811015613281578181015183820152602001613269565b50505050905090810190601f1680156132ae5780820380516001836020036101000a031916815260200191505b50915050600060405180830381855af49150501515611d2a57600080fd5b806004600060405160200180807f6973496e697469616c697a656400000000000000000000000000000000000000815250600d0190506040516020818303038152906040526040518082805190602001908083835b602083106133405780518252601f199092019160209182019101613321565b51815160209384036101000a60001901801990921691161790526040805192909401829003909120865285019590955292909201600020805460ff19169415159490941790935550505050565b606890565b6060600360008360405160200180807f6d65737361676573000000000000000000000000000000000000000000000000815250600801826000191660001916815260200191505060405160208183030381529060405260405180828051906020019080838360208310612dcc5780518252601f199092019160209182019101612dad565b600061342061338d565b8251149050919050565b6000806000808551604114151561344057600080fd5b505050602083015160408401516060850151600161345d86614410565b60408051600080825260208083018085529490945260ff7f0100000000000000000000000000000000000000000000000000000000000000870416828401526060820188905260808201879052915160a08083019493601f198301938390039091019190865af11580156134d5573d6000803e3d6000fd5b5050604051601f190151979650505050505050565b80600360008460405160200180807f6d6573736167657300000000000000000000000000000000000000000000000081525060080182600019166000191681526020019150506040516020818303038152906040526040518082805190602001908083835b6020831061356e5780518252601f19909201916020918201910161354f565b51815160001960209485036101000a019081169019919091161790526040805194909201849003909320865285830196909652509290930160002084516135bc95919450920191905061489f565b505050565b80600460008460405160200180807f6d657373616765735369676e6564000000000000000000000000000000000000815250600e0182600019166000191681526020019150506040516020818303038152906040526040518082805190602001908083835b602083106136455780518252601f199092019160209182019101613626565b51815160209384036101000a60001901801990921691161790526040805192909401829003909120865285019590955292909201600020805460ff1916941515949094179093555050505050565b80600360008460405160200180807f7369676e61747572657300000000000000000000000000000000000000000000815250600a0182600019166000191681526020019150506040516020818303038152906040526040518082805190602001908083836020831061356e5780518252601f19909201916020918201910161354f565b806000808460405160200180807f6e756d4d657373616765735369676e6564000000000000000000000000000000815250601101826000191660001916815260200191505060405160208183030381529060405260405180828051906020019080838360208310610b205780518252601f199092019160209182019101610b01565b7f80000000000000000000000000000000000000000000000000000000000000001790565b6000806000806000806137ce610b62565b9550600160a060020a0386161561386e576137e8876145d5565b8095508196508297508398505050505061385b84600188604051602001808060008051602061498883398151915281525060080190506040516020818303038152906040526040518082805190602001908083836020831061030b5780518252601f1990920191602091820191016102ec565b9050801561386e5761386e81878561461b565b50505050505050565b6000806000606080613887610b62565b9250604051602001808060008051602061498883398151915281525060080190506040516020818303038152906040526040518082805190602001908083835b602083106138e65780518252601f1990920191602091820191016138c7565b5181516020939093036101000a60001901801990911692169190911790526040519201829003909120891492506139539150505760408051808201909152600f81527f676574466f726569676e466565282900000000000000000000000000000000006020820152613988565b60408051808201909152600c81527f676574486f6d654665652829000000000000000000000000000000000000000060208201525b60408051600481526024810191829052825192945091849190819060208401908083835b602083106139cb5780518252601f1990920191602091820191016139ac565b51815160209384036101000a60001901801990921691161790526040519190930181900390208583018051600160e060020a0319909216600160e060020a0390921691909117815285519596509194600094509250839050875af26000519450808015610ca35750939695505050505050565b600061149c82611e7c565b80600460008460405160200180807f61666669726d6174696f6e735369676e656400000000000000000000000000008152506012018260001916600019168152602001915050604051602081830303815290604052604051808280519060200190808383602083106136455780518252601f199092019160209182019101613626565b806000808460405160200180807f6e756d41666669726d6174696f6e735369676e65640000000000000000000000815250601501826000191660001916815260200191505060405160208183030381529060405260405180828051906020019080838360208310610b205780518252601f199092019160209182019101610b01565b600080600080613b73613b5f6109cf565b613b6e8861027a611e8e6109cf565b614720565b859250613b7e610b62565b9150600160a060020a03821615613c1257613bf2836000846040516020018080600080516020614968833981519152815250600b0190506040516020818303038152906040526040518082805190602001908083836020831061030b5780518252601f1990920191602091820191016102ec565b9050613bff81838761479a565b613c0f838263ffffffff610cb516565b92505b604051600160a060020a0388169084156108fc029085906000818181858888f193505050501515613c77578287613c4761491d565b600160a060020a039091168152604051908190036020019082f080158015613c73573d6000803e3d6000fd5b5050505b5060019695505050505050565b7f8be0079c531659141344cd1fd0a4f28419497f9722a3daafe3b4186f6b6457e0613cad611fa4565b60408051600160a060020a03928316815291841660208301528051918290030190a1806002600060405160200180807f6f776e65720000000000000000000000000000000000000000000000000000008152506005019050604051602081830303815290604052604051808280519060200190808383602083106115d25780518252601f1990920191602091820191016115b3565b613d4a6110fe565b15613d5457600080fd5b600160a060020a03891615801590613d705750613d70896130a8565b1515613d7b57600080fd5b60008511613d8857600080fd5b60008411613d9557600080fd5b600086118015613da457508587115b8015613daf57508688115b1515613dba57600080fd5b828210613dc657600080fd5b600160a060020a0381161515613ddb57600080fd5b886002600060405160200180807f76616c696461746f72436f6e747261637400000000000000000000000000000081525060110190506040516020818303038152906040526040518082805190602001908083835b60208310613e4f5780518252601f199092019160209182019101613e30565b51815160209384036101000a60001901801990921691161790526040805192909401829003909120865285810196909652509283016000908120805473ffffffffffffffffffffffffffffffffffffffff1916600160a060020a039790971696909617909555505080517f6465706c6f7965644174426c6f636b0000000000000000000000000000000000818401528151600f818303018152602f90910191829052805143949384939182918401908083835b60208310613f215780518252601f199092019160209182019101613f02565b51815160209384036101000a6000190180199092169116179052604080519290940182900390912086528581019690965250928301600090812095909555505080517f6461696c794c696d697400000000000000000000000000000000000000000000818401528151600a818303018152602a9091019182905280518c949384939182918401908083835b60208310613fcb5780518252601f199092019160209182019101613fac565b51815160209384036101000a6000190180199092169116179052604080519290940182900390912086528581019690965250928301600090812095909555505080517f6d61785065725478000000000000000000000000000000000000000000000000818401528151600881830301815260289091019182905280518b949384939182918401908083835b602083106140755780518252601f199092019160209182019101614056565b51815160209384036101000a6000190180199092169116179052604080519290940182900390912086528581019690965250928301600090812095909555505080517f6d696e5065725478000000000000000000000000000000000000000000000000818401528151600881830301815260289091019182905280518a949384939182918401908083835b6020831061411f5780518252601f199092019160209182019101614100565b51815160209384036101000a6000190180199092169116179052604080519290940182900390912086528581019690965250928301600090812095909555505080517f67617350726963650000000000000000000000000000000000000000000000008184015281516008818303018152602890910191829052805189949384939182918401908083835b602083106141c95780518252601f1990920191602091820191016141aa565b51815160209384036101000a6000190180199092169116179052604080519290940182900390912086528581019690965250928301600090812095909555505080517f7265717569726564426c6f636b436f6e6669726d6174696f6e73000000000000818401528151601a818303018152603a90910191829052805188949384939182918401908083835b602083106142735780518252601f199092019160209182019101614254565b51815160209384036101000a6000190180199092169116179052604080519290940182900390912086528581019690965250928301600090812095909555505080517f657865637574696f6e4461696c794c696d6974000000000000000000000000008184015281516013818303018152603390910191829052805187949384939182918401908083835b6020831061431d5780518252601f1990920191602091820191016142fe565b51815160209384036101000a6000190180199092169116179052604080519290940182900390912086528581019690965250928301600090812095909555505080517f657865637574696f6e4d617850657254780000000000000000000000000000008184015281516011818303018152603190910191829052805186949384939182918401908083835b602083106143c75780518252601f1990920191602091820191016143a8565b51815160209384036101000a600019018019909216911617905260408051929094018290039091208652850195909552929092016000209390935550611af69150829050613c84565b604080518082018252601a81527f19457468657265756d205369676e6564204d6573736167653a0a000000000000602080830191825283518085018552600381527f313034000000000000000000000000000000000000000000000000000000000081830152935183516000959385938593899391019182918083835b602083106144ac5780518252601f19909201916020918201910161448d565b51815160209384036101000a600019018019909216911617905286519190930192860191508083835b602083106144f45780518252601f1990920191602091820191016144d5565b51815160209384036101000a600019018019909216911617905285519190930192850191508083835b6020831061453c5780518252601f19909201916020918201910161451d565b6001836020036101000a03801982511681845116808217855250505050505090500193505050506040516020818303038152906040526040518082805190602001908083835b602083106145a15780518252601f199092019160209182019101614582565b5181516020939093036101000a60001901801990911692169190911790526040519201829003909120979650505050505050565b6000806000806145e485613416565b15156145ef57600080fd5b600160a060020a0360148601511693506034850151925060548501519150606885015190509193509193565b6040805160248082018690528251808303909101815260449091018252602081018051600160e060020a03167f59d784640000000000000000000000000000000000000000000000000000000017815291518151600160a060020a03861693829180838360005b8381101561469a578181015183820152602001614682565b50505050905090810190601f1680156146c75780820380516001836020036101000a031916815260200191505b50915050600060405180830381855af491505015156146e557600080fd5b60408051848152905182917f858abdcd5efcaebb936e8e8516f0cfe9a0ef5157ff99d16cdabb6db625be90d0919081900360200190a2505050565b806000808460405160200180807f746f74616c45786563757465645065724461790000000000000000000000000081525060130182815260200191505060405160208183030381529060405260405180828051906020019080838360208310610b205780518252601f199092019160209182019101610b01565b6040805160248082018690528251808303909101815260449091018252602081018051600160e060020a03167f054d46ec0000000000000000000000000000000000000000000000000000000017815291518151600160a060020a03861693829180838360005b83811015614819578181015183820152602001614801565b50505050905090810190601f1680156148465780820380516001836020036101000a031916815260200191505b50915050600060405180830381855af4915050151561486457600080fd5b60408051848152905182917fa52d3c9cbc541772e4edd92e2e4e2a3865ab73630f25deed8a6c8de41ff0f65c919081900360200190a2505050565b828054600181600116156101000203166002900490600052602060002090601f016020900481019282601f106148e057805160ff191683800117855561490d565b8280016001018555821561490d579182015b8281111561490d5782518255916020019190600101906148f2565b5061491992915061492c565b5090565b60405160218061494783390190565b6109d691905b8082111561491957600081556001016149325600608060405260405160208060218339810160405251600160a060020a038116ff00666f726569676e2d666565000000000000000000000000000000000000000000686f6d652d666565000000000000000000000000000000000000000000000000a165627a7a72305820d292de6ff5a23c04eacdd77f7add79497c76f265fcc3cb791e396937f1d0152d0029",
  "source": "pragma solidity 0.4.24;\n\nimport \"./HomeBridgeNativeToErc.sol\";\n\n\ncontract ClassicHomeBridgeNativeToErc is HomeBridgeNativeToErc {\n\n    function _initialize (\n        address _validatorContract,\n        uint256 _dailyLimit,\n        uint256 _maxPerTx,\n        uint256 _minPerTx,\n        uint256 _homeGasPrice,\n        uint256 _requiredBlockConfirmations,\n        uint256 _foreignDailyLimit,\n        uint256 _foreignMaxPerTx,\n        address _owner\n    ) internal\n    {\n        super._initialize(\n            _validatorContract,\n            _dailyLimit,\n            _maxPerTx,\n            _minPerTx,\n            _homeGasPrice,\n            _requiredBlockConfirmations,\n            _foreignDailyLimit,\n            _foreignMaxPerTx,\n            _owner\n        );\n        uintStorage[keccak256(abi.encodePacked(\"dataSizes\", bytes4(keccak256(\"signature(bytes32,uint256)\"))))] = 132;\n        uintStorage[keccak256(abi.encodePacked(\"dataSizes\", bytes4(keccak256(\"message(bytes32)\"))))] = 210;\n    }\n}\n",
  "sourcePath": "/Users/fbranci/iexecdev/vivani/tokenbridge/contracts/contracts/upgradeable_contracts/native_to_erc20/ClassicHomeBridgeNativeToErc.sol",
  "compiler": {
    "name": "solc",
    "version": "0.4.24+commit.e67f0147.Emscripten.clang"
  },
  "schemaVersion": "3.0.13",
  "updatedAt": "2019-08-28T14:04:53.328Z",
  "devdoc": {
    "methods": {
      "owner()": {
        "details": "Tells the address of the owner",
        "return": "the address of the owner"
      },
      "transferOwnership(address)": {
        "details": "Allows the current owner to transfer control of the contract to a newOwner.",
        "params": {
          "newOwner": "the address to transfer ownership to."
        }
      }
    }
  },
  "userdoc": {
    "methods": {}
  }
}