{
  "contractName": "ClassicEternalStorageProxy",
  "abi": [
    {
      "constant": true,
      "inputs": [],
      "name": "proxyOwner",
      "outputs": [
        {
          "name": "",
          "type": "address"
        }
      ],
      "payable": false,
      "stateMutability": "view",
      "type": "function"
    },
    {
      "constant": false,
      "inputs": [
        {
          "name": "version",
          "type": "uint256"
        },
        {
          "name": "implementation",
          "type": "address"
        }
      ],
      "name": "upgradeTo",
      "outputs": [],
      "payable": false,
      "stateMutability": "nonpayable",
      "type": "function"
    },
    {
      "constant": true,
      "inputs": [],
      "name": "version",
      "outputs": [
        {
          "name": "",
          "type": "uint256"
        }
      ],
      "payable": false,
      "stateMutability": "view",
      "type": "function"
    },
    {
      "constant": true,
      "inputs": [],
      "name": "implementation",
      "outputs": [
        {
          "name": "",
          "type": "address"
        }
      ],
      "payable": false,
      "stateMutability": "view",
      "type": "function"
    },
    {
      "constant": true,
      "inputs": [],
      "name": "upgradeabilityOwner",
      "outputs": [
        {
          "name": "",
          "type": "address"
        }
      ],
      "payable": false,
      "stateMutability": "view",
      "type": "function"
    },
    {
      "constant": false,
      "inputs": [
        {
          "name": "version",
          "type": "uint256"
        },
        {
          "name": "implementation",
          "type": "address"
        },
        {
          "name": "data",
          "type": "bytes"
        }
      ],
      "name": "upgradeToAndCall",
      "outputs": [],
      "payable": true,
      "stateMutability": "payable",
      "type": "function"
    },
    {
      "constant": false,
      "inputs": [
        {
          "name": "newOwner",
          "type": "address"
        }
      ],
      "name": "transferProxyOwnership",
      "outputs": [],
      "payable": false,
      "stateMutability": "nonpayable",
      "type": "function"
    },
    {
      "payable": true,
      "stateMutability": "payable",
      "type": "fallback"
    },
    {
      "anonymous": false,
      "inputs": [
        {
          "indexed": false,
          "name": "previousOwner",
          "type": "address"
        },
        {
          "indexed": false,
          "name": "newOwner",
          "type": "address"
        }
      ],
      "name": "ProxyOwnershipTransferred",
      "type": "event"
    },
    {
      "anonymous": false,
      "inputs": [
        {
          "indexed": false,
          "name": "version",
          "type": "uint256"
        },
        {
          "indexed": true,
          "name": "implementation",
          "type": "address"
        }
      ],
      "name": "Upgraded",
      "type": "event"
    },
    {
      "constant": true,
      "inputs": [
        {
          "name": "sig",
          "type": "bytes4"
        }
      ],
      "name": "getSize",
      "outputs": [
        {
          "name": "",
          "type": "uint256"
        }
      ],
      "payable": false,
      "stateMutability": "view",
      "type": "function"
    }
  ],
  "bytecode": "0x60806040526100163364010000000061001b810204565b61003d565b60068054600160a060020a031916600160a060020a0392909216919091179055565b6105e18061004c6000396000f30060806040526004361061008d5763ffffffff7c0100000000000000000000000000000000000000000000000000000000600035041663025313a281146100fc5780633ad06d161461012d57806349b4ca8d1461015357806354fd4d501461019c5780635c60da1b146101b15780636fde8202146101c6578063a9c45fcb146101db578063f1739cae14610237575b600080610098610258565b9150600160a060020a03821615156100af57600080fd5b6100d96000357bffffffffffffffffffffffffffffffffffffffffffffffffffffffff1916610267565b905060405136600082378160003683865af48080156100f757836000f35b836000fd5b34801561010857600080fd5b50610111610371565b60408051600160a060020a039092168252519081900360200190f35b34801561013957600080fd5b50610151600435600160a060020a0360243516610380565b005b34801561015f57600080fd5b5061018a7bffffffffffffffffffffffffffffffffffffffffffffffffffffffff1960043516610267565b60408051918252519081900360200190f35b3480156101a857600080fd5b5061018a6103aa565b3480156101bd57600080fd5b50610111610258565b3480156101d257600080fd5b506101116103b0565b604080516020600460443581810135601f81018490048402850184019095528484526101519482359460248035600160a060020a0316953695946064949201919081908401838280828437509497506103bf9650505050505050565b34801561024357600080fd5b50610151600160a060020a036004351661046d565b600854600160a060020a031690565b6000806000808460405160200180807f6461746153697a65730000000000000000000000000000000000000000000000815250600901827bffffffffffffffffffffffffffffffffffffffffffffffffffffffff19167bffffffffffffffffffffffffffffffffffffffffffffffffffffffff191681526004019150506040516020818303038152906040526040518082805190602001908083835b602083106103225780518252601f199092019160209182019101610303565b51815160209384036101000a600019018019909216911617905260408051929094018290039091208652850195909552929092016000205493505050811515905061036b575060205b92915050565b600061037b6103b0565b905090565b610388610371565b600160a060020a0316331461039c57600080fd5b6103a682826104f5565b5050565b60075490565b600654600160a060020a031690565b6103c7610371565b600160a060020a031633146103db57600080fd5b6103e58383610380565b30600160a060020a0316348260405180828051906020019080838360005b8381101561041b578181015183820152602001610403565b50505050905090810190601f1680156104485780820380516001836020036101000a031916815260200191505b5091505060006040518083038185875af192505050151561046857600080fd5b505050565b610475610371565b600160a060020a0316331461048957600080fd5b600160a060020a038116151561049e57600080fd5b7f5a3e66efaa1e445ebd894728a69d6959842ea1e97bd79b892797106e270efcd96104c7610371565b60408051600160a060020a03928316815291841660208301528051918290030190a16104f281610586565b50565b600854600160a060020a038281169116141561051057600080fd5b600754821161051e57600080fd5b600782905560088054600160a060020a03831673ffffffffffffffffffffffffffffffffffffffff1990911681179091556040805184815290517f4289d6195cf3c2d2174adf98d0e19d4d2d08887995b99cb7b100e7ffe795820e9181900360200190a25050565b6006805473ffffffffffffffffffffffffffffffffffffffff1916600160a060020a03929092169190911790555600a165627a7a723058206f70258cc0e3ca7851f80599bc69ed81eb3d5e7d57088d0e1c34de001f6c71fb0029",
  "source": "pragma solidity 0.4.24;\n\nimport \"./EternalStorage.sol\";\nimport \"./OwnedUpgradeabilityProxy.sol\";\n\n\ncontract ClassicEternalStorageProxy is EternalStorage, OwnedUpgradeabilityProxy {\n\n    function () payable public {\n        address _impl = implementation();\n        require(_impl != address(0));\n        uint256 len = getSize(msg.sig);\n        assembly {\n            let ptr := mload(0x40)\n            calldatacopy(ptr, 0, calldatasize)\n            let result := delegatecall(gas, _impl, ptr, calldatasize, 0, len)\n\n            switch result\n            case 0 { revert(0, len) }\n            default { return(0, len) }\n        }\n    }\n\n    function getSize(bytes4 sig) public view returns(uint256) {\n        uint256 ret = uintStorage[keccak256(abi.encodePacked(\"dataSizes\", sig))];\n        if (ret == 0) {\n            ret = 32;\n        }\n        return ret;\n    }\n}\n",
  "sourcePath": "/Users/fbranci/iexecdev/vivani/tokenbridge/contracts/contracts/upgradeability/ClassicEternalStorageProxy.sol",
  "compiler": {
    "name": "solc",
    "version": "0.4.24+commit.e67f0147.Emscripten.clang"
  },
  "schemaVersion": "3.0.13",
  "updatedAt": "2019-08-28T14:04:53.170Z",
  "devdoc": {
    "methods": {
      "implementation()": {
        "details": "Tells the address of the current implementation",
        "return": "address of the current implementation"
      },
      "proxyOwner()": {
        "details": "Tells the address of the proxy owner",
        "return": "the address of the proxy owner"
      },
      "transferProxyOwnership(address)": {
        "details": "Allows the current owner to transfer control of the contract to a newOwner.",
        "params": {
          "newOwner": "The address to transfer ownership to."
        }
      },
      "upgradeTo(uint256,address)": {
        "details": "Allows the upgradeability owner to upgrade the current version of the proxy.",
        "params": {
          "implementation": "representing the address of the new implementation to be set.",
          "version": "representing the version name of the new implementation to be set."
        }
      },
      "upgradeToAndCall(uint256,address,bytes)": {
        "details": "Allows the upgradeability owner to upgrade the current version of the proxy and call the new implementation to initialize whatever is needed through a low level call.",
        "params": {
          "data": "represents the msg.data to bet sent in the low level call. This parameter may include the function signature of the implementation to be called with the needed payload",
          "implementation": "representing the address of the new implementation to be set.",
          "version": "representing the version name of the new implementation to be set."
        }
      },
      "upgradeabilityOwner()": {
        "details": "Tells the address of the owner",
        "return": "the address of the owner"
      },
      "version()": {
        "details": "Tells the version name of the current implementation",
        "return": "string representing the name of the current version"
      }
    }
  },
  "userdoc": {
    "methods": {}
  }
}