{
  "contractName": "ERC677BridgeTokenRewardable",
  "abi": [
    {
      "constant": true,
      "inputs": [],
      "name": "mintingFinished",
      "outputs": [
        {
          "name": "",
          "type": "bool"
        }
      ],
      "payable": false,
      "stateMutability": "view",
      "type": "function"
    },
    {
      "constant": true,
      "inputs": [],
      "name": "name",
      "outputs": [
        {
          "name": "",
          "type": "string"
        }
      ],
      "payable": false,
      "stateMutability": "view",
      "type": "function"
    },
    {
      "constant": false,
      "inputs": [
        {
          "name": "_spender",
          "type": "address"
        },
        {
          "name": "_value",
          "type": "uint256"
        }
      ],
      "name": "approve",
      "outputs": [
        {
          "name": "",
          "type": "bool"
        }
      ],
      "payable": false,
      "stateMutability": "nonpayable",
      "type": "function"
    },
    {
      "constant": false,
      "inputs": [
        {
          "name": "_bridgeContract",
          "type": "address"
        }
      ],
      "name": "setBridgeContract",
      "outputs": [],
      "payable": false,
      "stateMutability": "nonpayable",
      "type": "function"
    },
    {
      "constant": true,
      "inputs": [],
      "name": "totalSupply",
      "outputs": [
        {
          "name": "",
          "type": "uint256"
        }
      ],
      "payable": false,
      "stateMutability": "view",
      "type": "function"
    },
    {
      "constant": true,
      "inputs": [],
      "name": "decimals",
      "outputs": [
        {
          "name": "",
          "type": "uint8"
        }
      ],
      "payable": false,
      "stateMutability": "view",
      "type": "function"
    },
    {
      "constant": false,
      "inputs": [
        {
          "name": "_to",
          "type": "address"
        },
        {
          "name": "_value",
          "type": "uint256"
        },
        {
          "name": "_data",
          "type": "bytes"
        }
      ],
      "name": "transferAndCall",
      "outputs": [
        {
          "name": "",
          "type": "bool"
        }
      ],
      "payable": false,
      "stateMutability": "nonpayable",
      "type": "function"
    },
    {
      "constant": false,
      "inputs": [
        {
          "name": "_to",
          "type": "address"
        },
        {
          "name": "_amount",
          "type": "uint256"
        }
      ],
      "name": "mint",
      "outputs": [
        {
          "name": "",
          "type": "bool"
        }
      ],
      "payable": false,
      "stateMutability": "nonpayable",
      "type": "function"
    },
    {
      "constant": false,
      "inputs": [
        {
          "name": "_value",
          "type": "uint256"
        }
      ],
      "name": "burn",
      "outputs": [],
      "payable": false,
      "stateMutability": "nonpayable",
      "type": "function"
    },
    {
      "constant": true,
      "inputs": [],
      "name": "blockRewardContract",
      "outputs": [
        {
          "name": "",
          "type": "address"
        }
      ],
      "payable": false,
      "stateMutability": "view",
      "type": "function"
    },
    {
      "constant": false,
      "inputs": [
        {
          "name": "_spender",
          "type": "address"
        },
        {
          "name": "_subtractedValue",
          "type": "uint256"
        }
      ],
      "name": "decreaseApproval",
      "outputs": [
        {
          "name": "",
          "type": "bool"
        }
      ],
      "payable": false,
      "stateMutability": "nonpayable",
      "type": "function"
    },
    {
      "constant": false,
      "inputs": [
        {
          "name": "_token",
          "type": "address"
        },
        {
          "name": "_to",
          "type": "address"
        }
      ],
      "name": "claimTokens",
      "outputs": [],
      "payable": false,
      "stateMutability": "nonpayable",
      "type": "function"
    },
    {
      "constant": true,
      "inputs": [
        {
          "name": "_owner",
          "type": "address"
        }
      ],
      "name": "balanceOf",
      "outputs": [
        {
          "name": "",
          "type": "uint256"
        }
      ],
      "payable": false,
      "stateMutability": "view",
      "type": "function"
    },
    {
      "constant": false,
      "inputs": [],
      "name": "renounceOwnership",
      "outputs": [],
      "payable": false,
      "stateMutability": "nonpayable",
      "type": "function"
    },
    {
      "constant": false,
      "inputs": [],
      "name": "finishMinting",
      "outputs": [
        {
          "name": "",
          "type": "bool"
        }
      ],
      "payable": false,
      "stateMutability": "nonpayable",
      "type": "function"
    },
    {
      "constant": true,
      "inputs": [],
      "name": "getTokenInterfacesVersion",
      "outputs": [
        {
          "name": "major",
          "type": "uint64"
        },
        {
          "name": "minor",
          "type": "uint64"
        },
        {
          "name": "patch",
          "type": "uint64"
        }
      ],
      "payable": false,
      "stateMutability": "pure",
      "type": "function"
    },
    {
      "constant": true,
      "inputs": [],
      "name": "owner",
      "outputs": [
        {
          "name": "",
          "type": "address"
        }
      ],
      "payable": false,
      "stateMutability": "view",
      "type": "function"
    },
    {
      "constant": true,
      "inputs": [],
      "name": "symbol",
      "outputs": [
        {
          "name": "",
          "type": "string"
        }
      ],
      "payable": false,
      "stateMutability": "view",
      "type": "function"
    },
    {
      "constant": true,
      "inputs": [],
      "name": "bridgeContract",
      "outputs": [
        {
          "name": "",
          "type": "address"
        }
      ],
      "payable": false,
      "stateMutability": "view",
      "type": "function"
    },
    {
      "constant": false,
      "inputs": [
        {
          "name": "_spender",
          "type": "address"
        },
        {
          "name": "_addedValue",
          "type": "uint256"
        }
      ],
      "name": "increaseApproval",
      "outputs": [
        {
          "name": "",
          "type": "bool"
        }
      ],
      "payable": false,
      "stateMutability": "nonpayable",
      "type": "function"
    },
    {
      "constant": true,
      "inputs": [
        {
          "name": "_owner",
          "type": "address"
        },
        {
          "name": "_spender",
          "type": "address"
        }
      ],
      "name": "allowance",
      "outputs": [
        {
          "name": "",
          "type": "uint256"
        }
      ],
      "payable": false,
      "stateMutability": "view",
      "type": "function"
    },
    {
      "constant": true,
      "inputs": [],
      "name": "stakingContract",
      "outputs": [
        {
          "name": "",
          "type": "address"
        }
      ],
      "payable": false,
      "stateMutability": "view",
      "type": "function"
    },
    {
      "constant": false,
      "inputs": [
        {
          "name": "_newOwner",
          "type": "address"
        }
      ],
      "name": "transferOwnership",
      "outputs": [],
      "payable": false,
      "stateMutability": "nonpayable",
      "type": "function"
    },
    {
      "inputs": [
        {
          "name": "_name",
          "type": "string"
        },
        {
          "name": "_symbol",
          "type": "string"
        },
        {
          "name": "_decimals",
          "type": "uint8"
        }
      ],
      "payable": false,
      "stateMutability": "nonpayable",
      "type": "constructor"
    },
    {
      "anonymous": false,
      "inputs": [
        {
          "indexed": false,
          "name": "from",
          "type": "address"
        },
        {
          "indexed": false,
          "name": "to",
          "type": "address"
        },
        {
          "indexed": false,
          "name": "value",
          "type": "uint256"
        }
      ],
      "name": "ContractFallbackCallFailed",
      "type": "event"
    },
    {
      "anonymous": false,
      "inputs": [
        {
          "indexed": true,
          "name": "to",
          "type": "address"
        },
        {
          "indexed": false,
          "name": "amount",
          "type": "uint256"
        }
      ],
      "name": "Mint",
      "type": "event"
    },
    {
      "anonymous": false,
      "inputs": [],
      "name": "MintFinished",
      "type": "event"
    },
    {
      "anonymous": false,
      "inputs": [
        {
          "indexed": true,
          "name": "previousOwner",
          "type": "address"
        }
      ],
      "name": "OwnershipRenounced",
      "type": "event"
    },
    {
      "anonymous": false,
      "inputs": [
        {
          "indexed": true,
          "name": "previousOwner",
          "type": "address"
        },
        {
          "indexed": true,
          "name": "newOwner",
          "type": "address"
        }
      ],
      "name": "OwnershipTransferred",
      "type": "event"
    },
    {
      "anonymous": false,
      "inputs": [
        {
          "indexed": true,
          "name": "burner",
          "type": "address"
        },
        {
          "indexed": false,
          "name": "value",
          "type": "uint256"
        }
      ],
      "name": "Burn",
      "type": "event"
    },
    {
      "anonymous": false,
      "inputs": [
        {
          "indexed": true,
          "name": "from",
          "type": "address"
        },
        {
          "indexed": true,
          "name": "to",
          "type": "address"
        },
        {
          "indexed": false,
          "name": "value",
          "type": "uint256"
        },
        {
          "indexed": false,
          "name": "data",
          "type": "bytes"
        }
      ],
      "name": "Transfer",
      "type": "event"
    },
    {
      "anonymous": false,
      "inputs": [
        {
          "indexed": true,
          "name": "owner",
          "type": "address"
        },
        {
          "indexed": true,
          "name": "spender",
          "type": "address"
        },
        {
          "indexed": false,
          "name": "value",
          "type": "uint256"
        }
      ],
      "name": "Approval",
      "type": "event"
    },
    {
      "anonymous": false,
      "inputs": [
        {
          "indexed": true,
          "name": "from",
          "type": "address"
        },
        {
          "indexed": true,
          "name": "to",
          "type": "address"
        },
        {
          "indexed": false,
          "name": "value",
          "type": "uint256"
        }
      ],
      "name": "Transfer",
      "type": "event"
    },
    {
      "constant": false,
      "inputs": [
        {
          "name": "_blockRewardContract",
          "type": "address"
        }
      ],
      "name": "setBlockRewardContract",
      "outputs": [],
      "payable": false,
      "stateMutability": "nonpayable",
      "type": "function"
    },
    {
      "constant": false,
      "inputs": [
        {
          "name": "_stakingContract",
          "type": "address"
        }
      ],
      "name": "setStakingContract",
      "outputs": [],
      "payable": false,
      "stateMutability": "nonpayable",
      "type": "function"
    },
    {
      "constant": false,
      "inputs": [
        {
          "name": "_receivers",
          "type": "address[]"
        },
        {
          "name": "_rewards",
          "type": "uint256[]"
        }
      ],
      "name": "mintReward",
      "outputs": [],
      "payable": false,
      "stateMutability": "nonpayable",
      "type": "function"
    },
    {
      "constant": false,
      "inputs": [
        {
          "name": "_staker",
          "type": "address"
        },
        {
          "name": "_amount",
          "type": "uint256"
        }
      ],
      "name": "stake",
      "outputs": [],
      "payable": false,
      "stateMutability": "nonpayable",
      "type": "function"
    },
    {
      "constant": false,
      "inputs": [
        {
          "name": "_staker",
          "type": "address"
        },
        {
          "name": "_amount",
          "type": "uint256"
        }
      ],
      "name": "withdraw",
      "outputs": [],
      "payable": false,
      "stateMutability": "nonpayable",
      "type": "function"
    },
    {
      "constant": false,
      "inputs": [
        {
          "name": "_to",
          "type": "address"
        },
        {
          "name": "_value",
          "type": "uint256"
        }
      ],
      "name": "transfer",
      "outputs": [
        {
          "name": "",
          "type": "bool"
        }
      ],
      "payable": false,
      "stateMutability": "nonpayable",
      "type": "function"
    },
    {
      "constant": false,
      "inputs": [
        {
          "name": "_from",
          "type": "address"
        },
        {
          "name": "_to",
          "type": "address"
        },
        {
          "name": "_value",
          "type": "uint256"
        }
      ],
      "name": "transferFrom",
      "outputs": [
        {
          "name": "",
          "type": "bool"
        }
      ],
      "payable": false,
      "stateMutability": "nonpayable",
      "type": "function"
    }
  ],
  "bytecode": "0x60806040526006805460a060020a60ff02191690553480156200002157600080fd5b5060405162001a3638038062001a368339810160409081528151602080840151928401519184018051909493909301928491849184918491849184916200006f9160009190860190620000bc565b50815162000085906001906020850190620000bc565b506002805460ff90921660ff19909216919091179055505060068054600160a060020a031916331790555062000161945050505050565b828054600181600116156101000203166002900490600052602060002090601f016020900481019282601f10620000ff57805160ff19168380011785556200012f565b828001600101855582156200012f579182015b828111156200012f57825182559160200191906001019062000112565b506200013d92915062000141565b5090565b6200015e91905b808211156200013d576000815560010162000148565b90565b6118c580620001716000396000f30060806040526004361061017f5763ffffffff7c010000000000000000000000000000000000000000000000000000000060003504166305d2035b811461018457806306fdde03146101ad578063095ea7b3146102375780630b26cf661461025b57806318160ddd1461027e57806323b872dd146102a557806327a3e16b146102cf578063313ce567146102f05780634000aea01461031b57806340c10f191461034c57806342966c681461037057806356b54bae1461038857806366188463146103b957806369ffa08a146103dd57806370a0823114610404578063715018a6146104255780637d64bcb41461043a578063859ba28c1461044f5780638da5cb5b1461049057806395d89b41146104a55780639dd373b9146104ba578063a9059cbb146104db578063adc9772e146104ff578063cd59658314610523578063d73dd62314610538578063dd62ed3e1461055c578063e2f764a314610583578063ee99205c146105af578063f2fde38b146105c4578063f3fef3a3146105e5575b600080fd5b34801561019057600080fd5b50610199610609565b604080519115158252519081900360200190f35b3480156101b957600080fd5b506101c261062a565b6040805160208082528351818301528351919283929083019185019080838360005b838110156101fc5781810151838201526020016101e4565b50505050905090810190601f1680156102295780820380516001836020036101000a031916815260200191505b509250505060405180910390f35b34801561024357600080fd5b50610199600160a060020a03600435166024356106b8565b34801561026757600080fd5b5061027c600160a060020a036004351661071e565b005b34801561028a57600080fd5b5061029361078b565b60408051918252519081900360200190f35b3480156102b157600080fd5b50610199600160a060020a0360043581169060243516604435610791565b3480156102db57600080fd5b5061027c600160a060020a03600435166107c2565b3480156102fc57600080fd5b5061030561082f565b6040805160ff9092168252519081900360200190f35b34801561032757600080fd5b5061019960048035600160a060020a0316906024803591604435918201910135610838565b34801561035857600080fd5b50610199600160a060020a0360043516602435610948565b34801561037c57600080fd5b5061027c600435610a53565b34801561039457600080fd5b5061039d610a60565b60408051600160a060020a039092168252519081900360200190f35b3480156103c557600080fd5b50610199600160a060020a0360043516602435610a6f565b3480156103e957600080fd5b5061027c600160a060020a0360043581169060243516610b5e565b34801561041057600080fd5b50610293600160a060020a0360043516610d17565b34801561043157600080fd5b5061027c610d32565b34801561044657600080fd5b50610199610d49565b34801561045b57600080fd5b50610464610d50565b6040805167ffffffffffffffff9485168152928416602084015292168183015290519081900360600190f35b34801561049c57600080fd5b5061039d610d5a565b3480156104b157600080fd5b506101c2610d69565b3480156104c657600080fd5b5061027c600160a060020a0360043516610dc3565b3480156104e757600080fd5b50610199600160a060020a0360043516602435610e30565b34801561050b57600080fd5b5061027c600160a060020a0360043516602435610e5f565b34801561052f57600080fd5b5061039d610f4d565b34801561054457600080fd5b50610199600160a060020a0360043516602435610f5c565b34801561056857600080fd5b50610293600160a060020a0360043581169060243516610ff5565b34801561058f57600080fd5b5061027c6024600480358281019290820135918135918201910135611020565b3480156105bb57600080fd5b5061039d611163565b3480156105d057600080fd5b5061027c600160a060020a0360043516611172565b3480156105f157600080fd5b5061027c600160a060020a0360043516602435611192565b60065474010000000000000000000000000000000000000000900460ff1681565b6000805460408051602060026001851615610100026000190190941693909304601f810184900484028201840190925281815292918301828280156106b05780601f10610685576101008083540402835291602001916106b0565b820191906000526020600020905b81548152906001019060200180831161069357829003601f168201915b505050505081565b336000818152600560209081526040808320600160a060020a038716808552908352818420869055815186815291519394909390927f8c5be1e5ebec7d5bd14f71427d1e84f3dd0314c0f7b2291e5b200ac8c7c3b925928290030190a350600192915050565b600654600160a060020a0316331461073557600080fd5b600160a060020a0381161580159061075157506107518161127e565b151561075c57600080fd5b6007805473ffffffffffffffffffffffffffffffffffffffff1916600160a060020a0392909216919091179055565b60045490565b600954600090600160a060020a03848116911614156107af57600080fd5b6107ba848484611286565b949350505050565b600654600160a060020a031633146107d957600080fd5b600160a060020a038116158015906107f557506107f58161127e565b151561080057600080fd5b6008805473ffffffffffffffffffffffffffffffffffffffff1916600160a060020a0392909216919091179055565b60025460ff1681565b600084600160a060020a0381161580159061085c5750600160a060020a0381163014155b151561086757600080fd5b61087186866113eb565b151561087c57600080fd5b85600160a060020a031633600160a060020a03167fe19260aff97b920c7df27010903aeb9c8d2be5d310a2c67824cf3f15396e4c16878787604051808481526020018060200182810382528484828181526020019250808284376040519201829003965090945050505050a36108f18661127e565b1561093c57610931868686868080601f016020809104026020016040519081016040528093929190818152602001838380828437506113f7945050505050565b151561093c57600080fd5b50600195945050505050565b600654600090600160a060020a0316331461096257600080fd5b60065474010000000000000000000000000000000000000000900460ff161561098a57600080fd5b60045461099d908363ffffffff61156116565b600455600160a060020a0383166000908152600360205260409020546109c9908363ffffffff61156116565b600160a060020a038416600081815260036020908152604091829020939093558051858152905191927f0f6798a560793a54c3bcfe86a93cde1e73087d944c0ea20544137d412139688592918290030190a2604080518381529051600160a060020a0385169160009160008051602061187a8339815191529181900360200190a350600192915050565b610a5d3382611574565b50565b600854600160a060020a031681565b336000908152600560209081526040808320600160a060020a0386168452909152812054808310610ac357336000908152600560209081526040808320600160a060020a0388168452909152812055610af8565b610ad3818463ffffffff61166316565b336000908152600560209081526040808320600160a060020a03891684529091529020555b336000818152600560209081526040808320600160a060020a0389168085529083529281902054815190815290519293927f8c5be1e5ebec7d5bd14f71427d1e84f3dd0314c0f7b2291e5b200ac8c7c3b925929181900390910190a35060019392505050565b6006546000908190600160a060020a03163314610b7a57600080fd5b600160a060020a0383161515610b8f57600080fd5b600160a060020a0384161515610bdb57604051600160a060020a03841690303180156108fc02916000818181858888f19350505050158015610bd5573d6000803e3d6000fd5b50610d11565b604080517f70a082310000000000000000000000000000000000000000000000000000000081523060048201529051859350600160a060020a038416916370a082319160248083019260209291908290030181600087803b158015610c3f57600080fd5b505af1158015610c53573d6000803e3d6000fd5b505050506040513d6020811015610c6957600080fd5b5051604080517fa9059cbb000000000000000000000000000000000000000000000000000000008152600160a060020a0386811660048301526024820184905291519293509084169163a9059cbb916044808201926020929091908290030181600087803b158015610cda57600080fd5b505af1158015610cee573d6000803e3d6000fd5b505050506040513d6020811015610d0457600080fd5b50511515610d1157600080fd5b50505050565b600160a060020a031660009081526003602052604090205490565b600654600160a060020a0316331461017f57600080fd5b6000806000fd5b6002600080909192565b600654600160a060020a031681565b60018054604080516020600284861615610100026000190190941693909304601f810184900484028201840190925281815292918301828280156106b05780601f10610685576101008083540402835291602001916106b0565b600654600160a060020a03163314610dda57600080fd5b600160a060020a03811615801590610df65750610df68161127e565b1515610e0157600080fd5b6009805473ffffffffffffffffffffffffffffffffffffffff1916600160a060020a0392909216919091179055565b600954600090600160a060020a0384811691161415610e4e57600080fd5b610e588383611675565b9392505050565b600954600160a060020a03163314610e7657600080fd5b600160a060020a038216600090815260036020526040902054811115610e9b57600080fd5b600160a060020a038216600090815260036020526040902054610ec4908263ffffffff61166316565b600160a060020a038084166000908152600360205260408082209390935560095490911681522054610efc908263ffffffff61156116565b60098054600160a060020a0390811660009081526003602090815260409182902094909455915482518581529251908216939186169260008051602061187a83398151915292908290030190a35050565b600754600160a060020a031681565b336000908152600560209081526040808320600160a060020a0386168452909152812054610f90908363ffffffff61156116565b336000818152600560209081526040808320600160a060020a0389168085529083529281902085905580519485525191937f8c5be1e5ebec7d5bd14f71427d1e84f3dd0314c0f7b2291e5b200ac8c7c3b925929081900390910190a350600192915050565b600160a060020a03918216600090815260056020908152604080832093909416825291909152205490565b60085460009081908190600160a060020a0316331461103e57600080fd5b600092505b8583101561115a5784848481811061105757fe5b905060200201359150816000141561106e5761114f565b86868481811061107a57fe5b90506020020135600160a060020a031690506110a18260045461156190919063ffffffff16565b600455600160a060020a0381166000908152600360205260409020546110cd908363ffffffff61156116565b600160a060020a038216600081815260036020908152604091829020939093558051858152905191927f0f6798a560793a54c3bcfe86a93cde1e73087d944c0ea20544137d412139688592918290030190a2604080518381529051600160a060020a0383169160009160008051602061187a8339815191529181900360200190a35b600190920191611043565b50505050505050565b600954600160a060020a031681565b600654600160a060020a0316331461118957600080fd5b610a5d8161172c565b600954600160a060020a031633146111a957600080fd5b600954600160a060020a03166000908152600360205260409020548111156111d057600080fd5b600954600160a060020a03166000908152600360205260409020546111fb908263ffffffff61166316565b600954600160a060020a039081166000908152600360205260408082209390935590841681522054611233908263ffffffff61156116565b600160a060020a038084166000818152600360209081526040918290209490945560095481518681529151929493169260008051602061187a83398151915292918290030190a35050565b6000903b1190565b600160a060020a0383166000908152600360205260408120548211156112ab57600080fd5b600160a060020a03841660009081526005602090815260408083203384529091529020548211156112db57600080fd5b600160a060020a03831615156112f057600080fd5b600160a060020a038416600090815260036020526040902054611319908363ffffffff61166316565b600160a060020a03808616600090815260036020526040808220939093559085168152205461134e908363ffffffff61156116565b600160a060020a038085166000908152600360209081526040808320949094559187168152600582528281203382529091522054611392908363ffffffff61166316565b600160a060020a038086166000818152600560209081526040808320338452825291829020949094558051868152905192871693919260008051602061187a833981519152929181900390910190a35060019392505050565b6000610e5883836117aa565b600083600160a060020a03163384846040516024018084600160a060020a0316600160a060020a0316815260200183815260200180602001828103825283818151815260200191508051906020019080838360005b8381101561146457818101518382015260200161144c565b50505050905090810190601f1680156114915780820380516001836020036101000a031916815260200191505b5060408051601f198184030181529181526020820180517bffffffffffffffffffffffffffffffffffffffffffffffffffffffff167fa4c0ed36000000000000000000000000000000000000000000000000000000001781529051825192975095508594509250905080838360005b83811015611518578181015183820152602001611500565b50505050905090810190601f1680156115455780820380516001836020036101000a031916815260200191505b509150506000604051808303816000865af19695505050505050565b8181018281101561156e57fe5b92915050565b600160a060020a03821660009081526003602052604090205481111561159957600080fd5b600160a060020a0382166000908152600360205260409020546115c2908263ffffffff61166316565b600160a060020a0383166000908152600360205260409020556004546115ee908263ffffffff61166316565b600455604080518281529051600160a060020a038416917fcc16f5dbb4873280815c1ee09dbd06736cffcc184412cf7a71a0fdb75d397ca5919081900360200190a2604080518281529051600091600160a060020a0385169160008051602061187a8339815191529181900360200190a35050565b60008282111561166f57fe5b50900390565b600061168183836113eb565b151561168c57600080fd5b6116958361127e565b80156116ba57506040805160008152602081019091526116b890849084906113f7565b155b1561172357600754600160a060020a03848116911614156116da57600080fd5b60408051338152600160a060020a038516602082015280820184905290517f11249f0fc79fc134a15a10d1da8291b79515bf987e036ced05b9ec119614070b9181900360600190a15b50600192915050565b600160a060020a038116151561174157600080fd5b600654604051600160a060020a038084169216907f8be0079c531659141344cd1fd0a4f28419497f9722a3daafe3b4186f6b6457e090600090a36006805473ffffffffffffffffffffffffffffffffffffffff1916600160a060020a0392909216919091179055565b336000908152600360205260408120548211156117c657600080fd5b600160a060020a03831615156117db57600080fd5b336000908152600360205260409020546117fb908363ffffffff61166316565b3360009081526003602052604080822092909255600160a060020a0385168152205461182d908363ffffffff61156116565b600160a060020a03841660008181526003602090815260409182902093909355805185815290519192339260008051602061187a8339815191529281900390910190a3506001929150505600ddf252ad1be2c89b69c2b068fc378daa952ba7f163c4a11628f55a4df523b3efa165627a7a723058206776aba275e4fef2d8b2a10491fcc75bd90374bbb2eb7770147fe69522b63dd70029",
  "source": "pragma solidity 0.4.24;\n\nimport \"./ERC677BridgeToken.sol\";\n\n\ncontract ERC677BridgeTokenRewardable is ERC677BridgeToken {\n\n    address public blockRewardContract;\n    address public stakingContract;\n\n    constructor(\n        string _name,\n        string _symbol,\n        uint8 _decimals\n    ) public ERC677BridgeToken(_name, _symbol, _decimals) {}\n\n    function setBlockRewardContract(address _blockRewardContract) onlyOwner public {\n        require(_blockRewardContract != address(0) && isContract(_blockRewardContract));\n        blockRewardContract = _blockRewardContract;\n    }\n\n    function setStakingContract(address _stakingContract) onlyOwner public {\n        require(_stakingContract != address(0) && isContract(_stakingContract));\n        stakingContract = _stakingContract;\n    }\n\n    modifier onlyBlockRewardContract() {\n        require(msg.sender == blockRewardContract);\n        _;\n    }\n\n    modifier onlyStakingContract() {\n        require(msg.sender == stakingContract);\n        _;\n    }\n\n    function mintReward(address[] _receivers, uint256[] _rewards) external onlyBlockRewardContract {\n        for (uint256 i = 0; i < _receivers.length; i++) {\n            uint256 amount = _rewards[i];\n\n            if (amount == 0) continue;\n\n            address to = _receivers[i];\n\n            // Mint `amount` for `to`\n            totalSupply_ = totalSupply_.add(amount);\n            balances[to] = balances[to].add(amount);\n            emit Mint(to, amount);\n            emit Transfer(address(0), to, amount);\n        }\n    }\n\n    function stake(address _staker, uint256 _amount) external onlyStakingContract {\n        // Transfer `_amount` from `_staker` to `stakingContract`\n        require(_amount <= balances[_staker]);\n        balances[_staker] = balances[_staker].sub(_amount);\n        balances[stakingContract] = balances[stakingContract].add(_amount);\n        emit Transfer(_staker, stakingContract, _amount);\n    }\n\n    function withdraw(address _staker, uint256 _amount) external onlyStakingContract {\n        // Transfer `_amount` from `stakingContract` to `_staker`\n        require(_amount <= balances[stakingContract]);\n        balances[stakingContract] = balances[stakingContract].sub(_amount);\n        balances[_staker] = balances[_staker].add(_amount);\n        emit Transfer(stakingContract, _staker, _amount);\n    }\n\n    function transfer(address _to, uint256 _value) public returns(bool) {\n        require(_to != stakingContract);\n        return super.transfer(_to, _value);\n    }\n\n    function transferFrom(address _from, address _to, uint256 _value) public returns(bool) {\n        require(_to != stakingContract);\n        return super.transferFrom(_from, _to, _value);\n    }\n\n}\n",
  "sourcePath": "/Users/fbranci/iexecdev/vivani/tokenbridge/contracts/contracts/ERC677BridgeTokenRewardable.sol",
  "compiler": {
    "name": "solc",
    "version": "0.4.24+commit.e67f0147.Emscripten.clang"
  },
  "schemaVersion": "3.0.13",
  "updatedAt": "2019-08-28T14:04:53.140Z",
  "devdoc": {
    "methods": {
      "allowance(address,address)": {
        "details": "Function to check the amount of tokens that an owner allowed to a spender.",
        "params": {
          "_owner": "address The address which owns the funds.",
          "_spender": "address The address which will spend the funds."
        },
        "return": "A uint256 specifying the amount of tokens still available for the spender."
      },
      "approve(address,uint256)": {
        "details": "Approve the passed address to spend the specified amount of tokens on behalf of msg.sender. Beware that changing an allowance with this method brings the risk that someone may use both the old and the new allowance by unfortunate transaction ordering. One possible solution to mitigate this race condition is to first reduce the spender's allowance to 0 and set the desired value afterwards: https://github.com/ethereum/EIPs/issues/20#issuecomment-263524729",
        "params": {
          "_spender": "The address which will spend the funds.",
          "_value": "The amount of tokens to be spent."
        }
      },
      "balanceOf(address)": {
        "details": "Gets the balance of the specified address.",
        "params": {
          "_owner": "The address to query the the balance of."
        },
        "return": "An uint256 representing the amount owned by the passed address."
      },
      "burn(uint256)": {
        "details": "Burns a specific amount of tokens.",
        "params": {
          "_value": "The amount of token to be burned."
        }
      },
      "decreaseApproval(address,uint256)": {
        "details": "Decrease the amount of tokens that an owner allowed to a spender. approve should be called when allowed[_spender] == 0. To decrement allowed value is better to use this function to avoid 2 calls (and wait until the first transaction is mined) From MonolithDAO Token.sol",
        "params": {
          "_spender": "The address which will spend the funds.",
          "_subtractedValue": "The amount of tokens to decrease the allowance by."
        }
      },
      "increaseApproval(address,uint256)": {
        "details": "Increase the amount of tokens that an owner allowed to a spender. approve should be called when allowed[_spender] == 0. To increment allowed value is better to use this function to avoid 2 calls (and wait until the first transaction is mined) From MonolithDAO Token.sol",
        "params": {
          "_addedValue": "The amount of tokens to increase the allowance by.",
          "_spender": "The address which will spend the funds."
        }
      },
      "mint(address,uint256)": {
        "details": "Function to mint tokens",
        "params": {
          "_amount": "The amount of tokens to mint.",
          "_to": "The address that will receive the minted tokens."
        },
        "return": "A boolean that indicates if the operation was successful."
      },
      "totalSupply()": {
        "details": "Total number of tokens in existence"
      },
      "transferOwnership(address)": {
        "details": "Allows the current owner to transfer control of the contract to a newOwner.",
        "params": {
          "_newOwner": "The address to transfer ownership to."
        }
      }
    }
  },
  "userdoc": {
    "methods": {}
  }
}