{
  "contractName": "FeeManagerNativeToErcBothDirections",
  "abi": [
    {
      "constant": false,
      "inputs": [
        {
          "name": "_fee",
          "type": "uint256"
        }
      ],
      "name": "distributeFeeFromAffirmation",
      "outputs": [],
      "payable": false,
      "stateMutability": "nonpayable",
      "type": "function"
    },
    {
      "constant": false,
      "inputs": [
        {
          "name": "_fee",
          "type": "uint256"
        }
      ],
      "name": "setForeignFee",
      "outputs": [],
      "payable": false,
      "stateMutability": "nonpayable",
      "type": "function"
    },
    {
      "constant": false,
      "inputs": [
        {
          "name": "_fee",
          "type": "uint256"
        }
      ],
      "name": "setHomeFee",
      "outputs": [],
      "payable": false,
      "stateMutability": "nonpayable",
      "type": "function"
    },
    {
      "constant": false,
      "inputs": [
        {
          "name": "_fee",
          "type": "uint256"
        }
      ],
      "name": "distributeFeeFromSignatures",
      "outputs": [],
      "payable": false,
      "stateMutability": "nonpayable",
      "type": "function"
    },
    {
      "constant": true,
      "inputs": [],
      "name": "REWARD_FOR_TRANSFERRING_FROM_FOREIGN",
      "outputs": [
        {
          "name": "",
          "type": "bytes32"
        }
      ],
      "payable": false,
      "stateMutability": "view",
      "type": "function"
    },
    {
      "constant": true,
      "inputs": [],
      "name": "REWARD_FOR_TRANSFERRING_FROM_HOME",
      "outputs": [
        {
          "name": "",
          "type": "bytes32"
        }
      ],
      "payable": false,
      "stateMutability": "view",
      "type": "function"
    },
    {
      "constant": true,
      "inputs": [],
      "name": "getHomeFee",
      "outputs": [
        {
          "name": "",
          "type": "uint256"
        }
      ],
      "payable": false,
      "stateMutability": "view",
      "type": "function"
    },
    {
      "constant": true,
      "inputs": [
        {
          "name": "_value",
          "type": "uint256"
        },
        {
          "name": "_recover",
          "type": "bool"
        },
        {
          "name": "_feeType",
          "type": "bytes32"
        }
      ],
      "name": "calculateFee",
      "outputs": [
        {
          "name": "",
          "type": "uint256"
        }
      ],
      "payable": false,
      "stateMutability": "view",
      "type": "function"
    },
    {
      "constant": true,
      "inputs": [
        {
          "name": "_count",
          "type": "uint256"
        }
      ],
      "name": "random",
      "outputs": [
        {
          "name": "",
          "type": "uint256"
        }
      ],
      "payable": false,
      "stateMutability": "view",
      "type": "function"
    },
    {
      "constant": true,
      "inputs": [],
      "name": "getForeignFee",
      "outputs": [
        {
          "name": "",
          "type": "uint256"
        }
      ],
      "payable": false,
      "stateMutability": "view",
      "type": "function"
    },
    {
      "anonymous": false,
      "inputs": [
        {
          "indexed": false,
          "name": "fee",
          "type": "uint256"
        }
      ],
      "name": "HomeFeeUpdated",
      "type": "event"
    },
    {
      "anonymous": false,
      "inputs": [
        {
          "indexed": false,
          "name": "fee",
          "type": "uint256"
        }
      ],
      "name": "ForeignFeeUpdated",
      "type": "event"
    },
    {
      "constant": true,
      "inputs": [],
      "name": "getFeeManagerMode",
      "outputs": [
        {
          "name": "",
          "type": "bytes4"
        }
      ],
      "payable": false,
      "stateMutability": "pure",
      "type": "function"
    }
  ],
  "bytecode": "0x608060405234801561001057600080fd5b50610eca806100206000396000f3006080604052600436106100955763ffffffff60e060020a600035041663054d46ec811461009a578063286c4066146100b457806334a9e148146100cc57806359d78464146100e45780637587f576146100fc578063767e15c11461012357806394da17cd146101385780639862f26f1461014d578063b863bd371461016d578063f2ba956114610185578063ffd66196146101cf575b600080fd5b3480156100a657600080fd5b506100b26004356101e4565b005b3480156100c057600080fd5b506100b260043561028c565b3480156100d857600080fd5b506100b2600435610372565b3480156100f057600080fd5b506100b2600435610458565b34801561010857600080fd5b506101116104ca565b60408051918252519081900360200190f35b34801561012f57600080fd5b50610111610569565b34801561014457600080fd5b506101116105d7565b34801561015957600080fd5b50610111600435602435151560443561068b565b34801561017957600080fd5b506101116004356107b2565b34801561019157600080fd5b5061019a6107d7565b604080517fffffffff000000000000000000000000000000000000000000000000000000009092168252519081900360200190f35b3480156101db57600080fd5b5061011161087a565b6102898160405160200180807f7265776172642d7472616e7366657272696e672d66726f6d2d666f726569676e81525060200190506040516020818303038152906040526040518082805190602001908083835b602083106102575780518252601f199092019160209182019101610238565b6001836020036101000a03801982511681845116808217855250505050505090500191505060405180910390206108ed565b50565b8060008060405160200180807f666f726569676e46656500000000000000000000000000000000000000000000815250600a0190506040516020818303038152906040526040518082805190602001908083835b602083106102ff5780518252601f1990920191602091820191016102e0565b51815160001960209485036101000a019081169019919091161790526040805194909201849003909320865285830196909652509284016000209490945550815184815291517fa1bb1f345e2d0374ec182de8bb6e574798f6b4b3e89046d75c479d7d5620c2169350918290030190a150565b8060008060405160200180807f686f6d654665650000000000000000000000000000000000000000000000000081525060070190506040516020818303038152906040526040518082805190602001908083835b602083106103e55780518252601f1990920191602091820191016103c6565b51815160001960209485036101000a019081169019919091161790526040805194909201849003909320865285830196909652509284016000209490945550815184815291517f64afb51b44460415972849f8c01723cf624c005cbadf1024a2d8568694b73ac19350918290030190a150565b6102898160405160200180807f7265776172642d7472616e7366657272696e672d66726f6d2d686f6d65000000815250601d019050604051602081830303815290604052604051808280519060200190808383602083106102575780518252601f199092019160209182019101610238565b60405160200180807f7265776172642d7472616e7366657272696e672d66726f6d2d666f726569676e81525060200190506040516020818303038152906040526040518082805190602001908083835b602083106105395780518252601f19909201916020918201910161051a565b6001836020036101000a038019825116818451168082178552505050505050905001915050604051809103902081565b60405160200180807f7265776172642d7472616e7366657272696e672d66726f6d2d686f6d65000000815250601d019050604051602081830303815290604052604051808280519060200190808383602083106105395780518252601f19909201916020918201910161051a565b600080600060405160200180807f686f6d654665650000000000000000000000000000000000000000000000000081525060070190506040516020818303038152906040526040518082805190602001908083835b6020831061064b5780518252601f19909201916020918201910161062c565b51815160209384036101000a6000190180199092169116179052604080519290940182900390912086528501959095529290920160002054949350505050565b600080600060405160200180807f686f6d652d66656500000000000000000000000000000000000000000000000081525060080190506040516020818303038152906040526040518082805190602001908083835b602083106106ff5780518252601f1990920191602091820191016106e0565b5181516020939093036101000a60001901801990911692169190911790526040519201829003909120871492506107409150505761073b61087a565b610748565b6107486105d7565b9150670de0b6b3a764000090508415156107835761077c81610770888563ffffffff610c0a16565b9063ffffffff610c4016565b92506107a9565b6107a6610796828463ffffffff610c5716565b610770888563ffffffff610c0a16565b92505b50509392505050565b6000816107c643600163ffffffff610c5716565b408115156107d057fe5b0692915050565b600060405160200180807f6d616e616765732d626f74682d646972656374696f6e7300000000000000000081525060170190506040516020818303038152906040526040518082805190602001908083835b602083106108485780518252601f199092019160209182019101610829565b6001836020036101000a0380198251168184511680821785525050505050509050019150506040518091039020905090565b600080600060405160200180807f666f726569676e46656500000000000000000000000000000000000000000000815250600a0190506040516020818303038152906040526040518082805190602001908083836020831061064b5780518252601f19909201916020918201910161062c565b600080600080600080600080600080610904610c69565b9950600160a060020a03985089600160a060020a0316630f43a6776040518163ffffffff1660e060020a028152600401602060405180830381600087803b15801561094e57600080fd5b505af1158015610962573d6000803e3d6000fd5b505050506040513d602081101561097857600080fd5b5051975061098c8c8963ffffffff610c4016565b96506109ae6109a1888a63ffffffff610c0a16565b8d9063ffffffff610c5716565b945060008511156109c5576109c2886107b2565b95505b89600160a060020a0316638d37052c8a6040518263ffffffff1660e060020a0281526004018082600160a060020a0316600160a060020a03168152602001915050602060405180830381600087803b158015610a2057600080fd5b505af1158015610a34573d6000803e3d6000fd5b505050506040513d6020811015610a4a57600080fd5b50519350600160a060020a03808516908a1614801590610a725750600160a060020a03841615155b1515610a7d57600080fd5b600092505b600160a060020a03848116908a1614610bfc57869150600085118015610aa757508286145b15610abf57610abc828663ffffffff610d2716565b91505b89600160a060020a03166381b91174856040518263ffffffff1660e060020a0281526004018082600160a060020a0316600160a060020a03168152602001915050602060405180830381600087803b158015610b1a57600080fd5b505af1158015610b2e573d6000803e3d6000fd5b505050506040513d6020811015610b4457600080fd5b50519050610b5381838d610d36565b89600160a060020a0316638d37052c856040518263ffffffff1660e060020a0281526004018082600160a060020a0316600160a060020a03168152602001915050602060405180830381600087803b158015610bae57600080fd5b505af1158015610bc2573d6000803e3d6000fd5b505050506040513d6020811015610bd857600080fd5b50519350600160a060020a0384161515610bf157600080fd5b826001019250610a82565b505050505050505050505050565b600080831515610c1d5760009150610c39565b50828202828482811515610c2d57fe5b0414610c3557fe5b8091505b5092915050565b6000808284811515610c4e57fe5b04949350505050565b600082821115610c6357fe5b50900390565b60006002600060405160200180807f76616c696461746f72436f6e747261637400000000000000000000000000000081525060110190506040516020818303038152906040526040518082805190602001908083835b60208310610cde5780518252601f199092019160209182019101610cbf565b51815160209384036101000a6000190180199092169116179052604080519290940182900390912086528501959095529290920160002054600160a060020a0316949350505050565b600082820183811015610c3557fe5b60405160200180807f7265776172642d7472616e7366657272696e672d66726f6d2d666f726569676e81525060200190506040516020818303038152906040526040518082805190602001908083835b60208310610da55780518252601f199092019160209182019101610d86565b5181516020939093036101000a600019018019909116921691909117905260405192018290039091208414159250610de991505057610de48383610df8565b610df3565b610df38383610df8565b505050565b610e028282610e06565b5050565b604051600160a060020a0383169082156108fc029083906000818181858888f193505050501515610e02578082610e3b610e6e565b600160a060020a039091168152604051908190036020019082f080158015610e67573d6000803e3d6000fd5b5050505050565b604051602180610e7e833901905600608060405260405160208060218339810160405251600160a060020a038116ff00a165627a7a7230582070033ea238b94aec8d6b8310a7490f2eac490c820992375be0d01c95e36edf660029",
  "source": "pragma solidity 0.4.24;\n\nimport \"../Sacrifice.sol\";\nimport \"../ValidatorsFeeManager.sol\";\n\n\ncontract FeeManagerNativeToErcBothDirections is ValidatorsFeeManager {\n\n    function getFeeManagerMode() public pure returns(bytes4) {\n        return bytes4(keccak256(abi.encodePacked(\"manages-both-directions\")));\n    }\n\n    function onAffirmationFeeDistribution(address _rewardAddress, uint256 _fee) internal {\n        _sendReward(_rewardAddress, _fee);\n    }\n\n    function onSignatureFeeDistribution(address _rewardAddress, uint256 _fee) internal {\n        _sendReward(_rewardAddress, _fee);\n    }\n\n    function _sendReward(address _rewardAddress, uint256 _fee) internal {\n        if (!_rewardAddress.send(_fee)) {\n            (new Sacrifice).value(_fee)(_rewardAddress);\n        }\n    }\n}\n",
  "sourcePath": "/Users/fbranci/iexecdev/vivani/tokenbridge/contracts/contracts/upgradeable_contracts/native_to_erc20/FeeManagerNativeToErcBothDirections.sol",
  "compiler": {
    "name": "solc",
    "version": "0.4.24+commit.e67f0147.Emscripten.clang"
  },
  "schemaVersion": "3.0.13",
  "updatedAt": "2019-08-28T14:04:53.334Z",
  "devdoc": {
    "methods": {}
  },
  "userdoc": {
    "methods": {}
  }
}