{
  "contractName": "FeeManagerMock",
  "abi": [
    {
      "constant": false,
      "inputs": [
        {
          "name": "_fee",
          "type": "uint256"
        }
      ],
      "name": "setForeignFee",
      "outputs": [],
      "payable": false,
      "stateMutability": "nonpayable",
      "type": "function"
    },
    {
      "constant": false,
      "inputs": [
        {
          "name": "_fee",
          "type": "uint256"
        }
      ],
      "name": "setHomeFee",
      "outputs": [],
      "payable": false,
      "stateMutability": "nonpayable",
      "type": "function"
    },
    {
      "constant": true,
      "inputs": [],
      "name": "getHomeFee",
      "outputs": [
        {
          "name": "",
          "type": "uint256"
        }
      ],
      "payable": false,
      "stateMutability": "view",
      "type": "function"
    },
    {
      "constant": true,
      "inputs": [
        {
          "name": "_value",
          "type": "uint256"
        },
        {
          "name": "_recover",
          "type": "bool"
        },
        {
          "name": "_feeType",
          "type": "bytes32"
        }
      ],
      "name": "calculateFee",
      "outputs": [
        {
          "name": "",
          "type": "uint256"
        }
      ],
      "payable": false,
      "stateMutability": "view",
      "type": "function"
    },
    {
      "constant": true,
      "inputs": [],
      "name": "getForeignFee",
      "outputs": [
        {
          "name": "",
          "type": "uint256"
        }
      ],
      "payable": false,
      "stateMutability": "view",
      "type": "function"
    },
    {
      "anonymous": false,
      "inputs": [
        {
          "indexed": false,
          "name": "fee",
          "type": "uint256"
        }
      ],
      "name": "HomeFeeUpdated",
      "type": "event"
    },
    {
      "anonymous": false,
      "inputs": [
        {
          "indexed": false,
          "name": "fee",
          "type": "uint256"
        }
      ],
      "name": "ForeignFeeUpdated",
      "type": "event"
    },
    {
      "constant": false,
      "inputs": [
        {
          "name": "_fee",
          "type": "uint256"
        }
      ],
      "name": "distributeFeeFromAffirmation",
      "outputs": [],
      "payable": false,
      "stateMutability": "nonpayable",
      "type": "function"
    },
    {
      "constant": false,
      "inputs": [
        {
          "name": "_fee",
          "type": "uint256"
        }
      ],
      "name": "distributeFeeFromSignatures",
      "outputs": [],
      "payable": false,
      "stateMutability": "nonpayable",
      "type": "function"
    },
    {
      "constant": true,
      "inputs": [],
      "name": "getFeeManagerMode",
      "outputs": [
        {
          "name": "",
          "type": "bytes4"
        }
      ],
      "payable": false,
      "stateMutability": "pure",
      "type": "function"
    },
    {
      "constant": true,
      "inputs": [
        {
          "name": "_count",
          "type": "uint256"
        }
      ],
      "name": "randomTest",
      "outputs": [
        {
          "name": "",
          "type": "uint256"
        }
      ],
      "payable": false,
      "stateMutability": "view",
      "type": "function"
    }
  ],
  "bytecode": "0x608060405234801561001057600080fd5b50610745806100206000396000f3006080604052600436106100985763ffffffff7c0100000000000000000000000000000000000000000000000000000000600035041663054d46ec811461009d578063286c4066146100b757806334a9e148146100cf57806359d784641461009d5780636dd0a998146100e757806394da17cd146101115780639862f26f14610126578063f2ba956114610146578063ffd6619614610190575b600080fd5b3480156100a957600080fd5b506100b56004356101a5565b005b3480156100c357600080fd5b506100b56004356101a8565b3480156100db57600080fd5b506100b56004356102a4565b3480156100f357600080fd5b506100ff6004356103a0565b60408051918252519081900360200190f35b34801561011d57600080fd5b506100ff6103b1565b34801561013257600080fd5b506100ff6004356024351515604435610465565b34801561015257600080fd5b5061015b61058e565b604080517fffffffff000000000000000000000000000000000000000000000000000000009092168252519081900360200190f35b34801561019c57600080fd5b506100ff610631565b50565b80670de0b6b3a764000081106101bd57600080fd5b8160008060405160200180807f666f726569676e46656500000000000000000000000000000000000000000000815250600a0190506040516020818303038152906040526040518082805190602001908083835b602083106102305780518252601f199092019160209182019101610211565b51815160001960209485036101000a019081169019919091161790526040805194909201849003909320865285830196909652509284016000209490945550815185815291517fa1bb1f345e2d0374ec182de8bb6e574798f6b4b3e89046d75c479d7d5620c2169350918290030190a15050565b80670de0b6b3a764000081106102b957600080fd5b8160008060405160200180807f686f6d654665650000000000000000000000000000000000000000000000000081525060070190506040516020818303038152906040526040518082805190602001908083835b6020831061032c5780518252601f19909201916020918201910161030d565b51815160001960209485036101000a019081169019919091161790526040805194909201849003909320865285830196909652509284016000209490945550815185815291517f64afb51b44460415972849f8c01723cf624c005cbadf1024a2d8568694b73ac19350918290030190a15050565b60006103ab826106a4565b92915050565b600080600060405160200180807f686f6d654665650000000000000000000000000000000000000000000000000081525060070190506040516020818303038152906040526040518082805190602001908083835b602083106104255780518252601f199092019160209182019101610406565b51815160209384036101000a6000190180199092169116179052604080519290940182900390912086528501959095529290920160002054949350505050565b60008060405160200180807f686f6d652d66656500000000000000000000000000000000000000000000000081525060080190506040516020818303038152906040526040518082805190602001908083835b602083106104d75780518252601f1990920191602091820191016104b8565b5181516020939093036101000a600019018019909116921691909117905260405192018290039091208614925061051891505057610513610631565b610520565b6105206103b1565b905083151561055857610551670de0b6b3a7640000610545878463ffffffff6106c916565b9063ffffffff6106f216565b9150610586565b610583610573670de0b6b3a76400008363ffffffff61070716565b610545878463ffffffff6106c916565b91505b509392505050565b600060405160200180807f6d616e616765732d6f6e652d646972656374696f6e000000000000000000000081525060150190506040516020818303038152906040526040518082805190602001908083835b602083106105ff5780518252601f1990920191602091820191016105e0565b6001836020036101000a0380198251168184511680821785525050505050509050019150506040518091039020905090565b600080600060405160200180807f666f726569676e46656500000000000000000000000000000000000000000000815250600a019050604051602081830303815290604052604051808280519060200190808383602083106104255780518252601f199092019160209182019101610406565b6000816106b843600163ffffffff61070716565b408115156106c257fe5b0692915050565b60008215156106da575060006103ab565b508181028183828115156106ea57fe5b04146103ab57fe5b600081838115156106ff57fe5b049392505050565b60008282111561071357fe5b509003905600a165627a7a723058201edcadadfa5bcc4b169a6a7e6c41c366d8ab3fb988b345d4135c6bfe2621f2100029",
  "source": "pragma solidity 0.4.24;\n\nimport \"../upgradeable_contracts/BaseFeeManager.sol\";\n\ncontract FeeManagerMock is BaseFeeManager {\n    function distributeFeeFromAffirmation(uint256 _fee) external {\n        // solhint-disable-previous-line no-empty-blocks\n    }\n\n    function distributeFeeFromSignatures(uint256 _fee) external {\n        // solhint-disable-previous-line no-empty-blocks\n    }\n\n    function getFeeManagerMode() external pure returns (bytes4) {\n        return bytes4(keccak256(abi.encodePacked(\"manages-one-direction\")));\n    }\n\n    function randomTest(uint256 _count) external view returns (uint256) {\n        return super.random(_count);\n    }\n}\n",
  "sourcePath": "/mono/contracts/contracts/mocks/FeeManagerMock.sol",
  "compiler": {
    "name": "solc",
    "version": "0.4.24+commit.e67f0147.Emscripten.clang"
  },
  "schemaVersion": "3.0.11",
  "updatedAt": "2019-09-03T09:43:49.615Z",
  "devdoc": {
    "methods": {}
  },
  "userdoc": {
    "methods": {}
  }
}