{
  "contractName": "FeeManagerErcToNativePOSDAO",
  "abi": [
    {
      "constant": false,
      "inputs": [
        {
          "name": "_fee",
          "type": "uint256"
        }
      ],
      "name": "distributeFeeFromAffirmation",
      "outputs": [],
      "payable": false,
      "stateMutability": "nonpayable",
      "type": "function"
    },
    {
      "constant": false,
      "inputs": [
        {
          "name": "_fee",
          "type": "uint256"
        }
      ],
      "name": "setForeignFee",
      "outputs": [],
      "payable": false,
      "stateMutability": "nonpayable",
      "type": "function"
    },
    {
      "constant": false,
      "inputs": [
        {
          "name": "_fee",
          "type": "uint256"
        }
      ],
      "name": "setHomeFee",
      "outputs": [],
      "payable": false,
      "stateMutability": "nonpayable",
      "type": "function"
    },
    {
      "constant": false,
      "inputs": [
        {
          "name": "_fee",
          "type": "uint256"
        }
      ],
      "name": "distributeFeeFromSignatures",
      "outputs": [],
      "payable": false,
      "stateMutability": "nonpayable",
      "type": "function"
    },
    {
      "constant": true,
      "inputs": [],
      "name": "getHomeFee",
      "outputs": [
        {
          "name": "",
          "type": "uint256"
        }
      ],
      "payable": false,
      "stateMutability": "view",
      "type": "function"
    },
    {
      "constant": true,
      "inputs": [
        {
          "name": "_value",
          "type": "uint256"
        },
        {
          "name": "_recover",
          "type": "bool"
        },
        {
          "name": "_feeType",
          "type": "bytes32"
        }
      ],
      "name": "calculateFee",
      "outputs": [
        {
          "name": "",
          "type": "uint256"
        }
      ],
      "payable": false,
      "stateMutability": "view",
      "type": "function"
    },
    {
      "constant": true,
      "inputs": [
        {
          "name": "_count",
          "type": "uint256"
        }
      ],
      "name": "random",
      "outputs": [
        {
          "name": "",
          "type": "uint256"
        }
      ],
      "payable": false,
      "stateMutability": "view",
      "type": "function"
    },
    {
      "constant": true,
      "inputs": [],
      "name": "getForeignFee",
      "outputs": [
        {
          "name": "",
          "type": "uint256"
        }
      ],
      "payable": false,
      "stateMutability": "view",
      "type": "function"
    },
    {
      "anonymous": false,
      "inputs": [
        {
          "indexed": false,
          "name": "fee",
          "type": "uint256"
        }
      ],
      "name": "HomeFeeUpdated",
      "type": "event"
    },
    {
      "anonymous": false,
      "inputs": [
        {
          "indexed": false,
          "name": "fee",
          "type": "uint256"
        }
      ],
      "name": "ForeignFeeUpdated",
      "type": "event"
    },
    {
      "constant": true,
      "inputs": [],
      "name": "getFeeManagerMode",
      "outputs": [
        {
          "name": "",
          "type": "bytes4"
        }
      ],
      "payable": false,
      "stateMutability": "pure",
      "type": "function"
    },
    {
      "constant": true,
      "inputs": [
        {
          "name": "_value",
          "type": "uint256"
        }
      ],
      "name": "getAmountToBurn",
      "outputs": [
        {
          "name": "",
          "type": "uint256"
        }
      ],
      "payable": false,
      "stateMutability": "view",
      "type": "function"
    }
  ],
  "bytecode": "0x608060405234801561001057600080fd5b506108a6806100206000396000f3006080604052600436106100a35763ffffffff7c0100000000000000000000000000000000000000000000000000000000600035041663054d46ec81146100a8578063286c4066146100c257806334a9e148146100da57806359d78464146100a8578063916850e9146100f257806394da17cd1461011c5780639862f26f14610131578063b863bd3714610151578063f2ba956114610169578063ffd66196146101b3575b600080fd5b3480156100b457600080fd5b506100c06004356101c8565b005b3480156100ce57600080fd5b506100c06004356101d4565b3480156100e657600080fd5b506100c06004356102ba565b3480156100fe57600080fd5b5061010a6004356103a0565b60408051918252519081900360200190f35b34801561012857600080fd5b5061010a6103a3565b34801561013d57600080fd5b5061010a6004356024351515604435610457565b34801561015d57600080fd5b5061010a60043561057e565b34801561017557600080fd5b5061017e6105a3565b604080517fffffffff000000000000000000000000000000000000000000000000000000009092168252519081900360200190f35b3480156101bf57600080fd5b5061010a610646565b6101d1816106b9565b50565b8060008060405160200180807f666f726569676e46656500000000000000000000000000000000000000000000815250600a0190506040516020818303038152906040526040518082805190602001908083835b602083106102475780518252601f199092019160209182019101610228565b51815160001960209485036101000a019081169019919091161790526040805194909201849003909320865285830196909652509284016000209490945550815184815291517fa1bb1f345e2d0374ec182de8bb6e574798f6b4b3e89046d75c479d7d5620c2169350918290030190a150565b8060008060405160200180807f686f6d654665650000000000000000000000000000000000000000000000000081525060070190506040516020818303038152906040526040518082805190602001908083835b6020831061032d5780518252601f19909201916020918201910161030e565b51815160001960209485036101000a019081169019919091161790526040805194909201849003909320865285830196909652509284016000209490945550815184815291517f64afb51b44460415972849f8c01723cf624c005cbadf1024a2d8568694b73ac19350918290030190a150565b90565b600080600060405160200180807f686f6d654665650000000000000000000000000000000000000000000000000081525060070190506040516020818303038152906040526040518082805190602001908083835b602083106104175780518252601f1990920191602091820191016103f8565b51815160209384036101000a6000190180199092169116179052604080519290940182900390912086528501959095529290920160002054949350505050565b600080600060405160200180807f686f6d652d66656500000000000000000000000000000000000000000000000081525060080190506040516020818303038152906040526040518082805190602001908083835b602083106104cb5780518252601f1990920191602091820191016104ac565b5181516020939093036101000a600019018019909116921691909117905260405192018290039091208714925061050c91505057610507610646565b610514565b6105146103a3565b9150670de0b6b3a7640000905084151561054f576105488161053c888563ffffffff61075016565b9063ffffffff61078616565b9250610575565b610572610562828463ffffffff61079d16565b61053c888563ffffffff61075016565b92505b50509392505050565b60008161059243600163ffffffff61079d16565b4081151561059c57fe5b0692915050565b600060405160200180807f6d616e616765732d626f74682d646972656374696f6e7300000000000000000081525060170190506040516020818303038152906040526040518082805190602001908083835b602083106106145780518252601f1990920191602091820191016105f5565b6001836020036101000a0380198251168184511680821785525050505050509050019150506040518091039020905090565b600080600060405160200180807f666f726569676e46656500000000000000000000000000000000000000000000815250600a019050604051602081830303815290604052604051808280519060200190808383602083106104175780518252601f1990920191602091820191016103f8565b60006106c36107af565b90508073ffffffffffffffffffffffffffffffffffffffff166353251389836040518263ffffffff167c010000000000000000000000000000000000000000000000000000000002815260040180828152602001915050600060405180830381600087803b15801561073457600080fd5b505af1158015610748573d6000803e3d6000fd5b505050505050565b600080831515610763576000915061077f565b5082820282848281151561077357fe5b041461077b57fe5b8091505b5092915050565b600080828481151561079457fe5b04949350505050565b6000828211156107a957fe5b50900390565b60006002600060405160200180807f626c6f636b526577617264436f6e74726163740000000000000000000000000081525060130190506040516020818303038152906040526040518082805190602001908083835b602083106108245780518252601f199092019160209182019101610805565b51815160209384036101000a600019018019909216911617905260408051929094018290039091208652850195909552929092016000205473ffffffffffffffffffffffffffffffffffffffff169493505050505600a165627a7a7230582074c2a0478385033a9743801df5d100bc7f9203e9de50b5dfbc96767a5f58b32a0029",
  "source": "pragma solidity 0.4.24;\n\nimport \"../../IBlockReward.sol\";\nimport \"../BlockRewardFeeManager.sol\";\n\ncontract FeeManagerErcToNativePOSDAO is BlockRewardFeeManager {\n\n    function getFeeManagerMode() public pure returns(bytes4) {\n        return bytes4(keccak256(abi.encodePacked(\"manages-both-directions\")));\n    }\n\n    function distributeFeeFromBlockReward(uint256 _fee) internal {\n        IBlockReward blockReward = _blockRewardContract();\n        blockReward.addBridgeNativeFeeReceivers(_fee);\n    }\n\n    function getAmountToBurn(uint256 _value) public view returns(uint256) {\n        return _value;\n    }\n}\n",
  "sourcePath": "/Users/fbranci/iexecdev/vivani/tokenbridge/contracts/contracts/upgradeable_contracts/erc20_to_native/FeeManagerErcToNativePOSDAO.sol",
  "compiler": {
    "name": "solc",
    "version": "0.4.24+commit.e67f0147.Emscripten.clang"
  },
  "schemaVersion": "3.0.13",
  "updatedAt": "2019-08-28T14:04:53.306Z",
  "devdoc": {
    "methods": {}
  },
  "userdoc": {
    "methods": {}
  }
}