{
  "contractName": "FeeManagerNativeToErc",
  "abi": [
    {
      "constant": false,
      "inputs": [
        {
          "name": "_fee",
          "type": "uint256"
        }
      ],
      "name": "distributeFeeFromAffirmation",
      "outputs": [],
      "payable": false,
      "stateMutability": "nonpayable",
      "type": "function"
    },
    {
      "constant": false,
      "inputs": [
        {
          "name": "_fee",
          "type": "uint256"
        }
      ],
      "name": "setForeignFee",
      "outputs": [],
      "payable": false,
      "stateMutability": "nonpayable",
      "type": "function"
    },
    {
      "constant": false,
      "inputs": [
        {
          "name": "_fee",
          "type": "uint256"
        }
      ],
      "name": "setHomeFee",
      "outputs": [],
      "payable": false,
      "stateMutability": "nonpayable",
      "type": "function"
    },
    {
      "constant": false,
      "inputs": [
        {
          "name": "_fee",
          "type": "uint256"
        }
      ],
      "name": "distributeFeeFromSignatures",
      "outputs": [],
      "payable": false,
      "stateMutability": "nonpayable",
      "type": "function"
    },
    {
      "constant": true,
      "inputs": [],
      "name": "REWARD_FOR_TRANSFERRING_FROM_FOREIGN",
      "outputs": [
        {
          "name": "",
          "type": "bytes32"
        }
      ],
      "payable": false,
      "stateMutability": "view",
      "type": "function"
    },
    {
      "constant": true,
      "inputs": [],
      "name": "REWARD_FOR_TRANSFERRING_FROM_HOME",
      "outputs": [
        {
          "name": "",
          "type": "bytes32"
        }
      ],
      "payable": false,
      "stateMutability": "view",
      "type": "function"
    },
    {
      "constant": true,
      "inputs": [],
      "name": "getHomeFee",
      "outputs": [
        {
          "name": "",
          "type": "uint256"
        }
      ],
      "payable": false,
      "stateMutability": "view",
      "type": "function"
    },
    {
      "constant": true,
      "inputs": [
        {
          "name": "_value",
          "type": "uint256"
        },
        {
          "name": "_recover",
          "type": "bool"
        },
        {
          "name": "_feeType",
          "type": "bytes32"
        }
      ],
      "name": "calculateFee",
      "outputs": [
        {
          "name": "",
          "type": "uint256"
        }
      ],
      "payable": false,
      "stateMutability": "view",
      "type": "function"
    },
    {
      "constant": true,
      "inputs": [
        {
          "name": "_count",
          "type": "uint256"
        }
      ],
      "name": "random",
      "outputs": [
        {
          "name": "",
          "type": "uint256"
        }
      ],
      "payable": false,
      "stateMutability": "view",
      "type": "function"
    },
    {
      "constant": true,
      "inputs": [],
      "name": "getForeignFee",
      "outputs": [
        {
          "name": "",
          "type": "uint256"
        }
      ],
      "payable": false,
      "stateMutability": "view",
      "type": "function"
    },
    {
      "anonymous": false,
      "inputs": [
        {
          "indexed": false,
          "name": "fee",
          "type": "uint256"
        }
      ],
      "name": "HomeFeeUpdated",
      "type": "event"
    },
    {
      "anonymous": false,
      "inputs": [
        {
          "indexed": false,
          "name": "fee",
          "type": "uint256"
        }
      ],
      "name": "ForeignFeeUpdated",
      "type": "event"
    },
    {
      "constant": true,
      "inputs": [],
      "name": "getFeeManagerMode",
      "outputs": [
        {
          "name": "",
          "type": "bytes4"
        }
      ],
      "payable": false,
      "stateMutability": "pure",
      "type": "function"
    },
    {
      "constant": true,
      "inputs": [],
      "name": "erc677token",
      "outputs": [
        {
          "name": "",
          "type": "address"
        }
      ],
      "payable": false,
      "stateMutability": "view",
      "type": "function"
    }
  ],
  "bytecode": "0x608060405234801561001057600080fd5b50611007806100206000396000f3006080604052600436106100a05763ffffffff60e060020a600035041663054d46ec81146100a557806318d8f9c9146100bf578063286c4066146100f057806334a9e1481461010857806359d78464146101205780637587f57614610138578063767e15c11461015f57806394da17cd146101745780639862f26f14610189578063b863bd37146101a9578063f2ba9561146101c1578063ffd661961461020b575b600080fd5b3480156100b157600080fd5b506100bd600435610220565b005b3480156100cb57600080fd5b506100d46102c8565b60408051600160a060020a039092168252519081900360200190f35b3480156100fc57600080fd5b506100bd600435610386565b34801561011457600080fd5b506100bd60043561046c565b34801561012c57600080fd5b506100bd600435610552565b34801561014457600080fd5b5061014d6105c4565b60408051918252519081900360200190f35b34801561016b57600080fd5b5061014d610663565b34801561018057600080fd5b5061014d6106d1565b34801561019557600080fd5b5061014d6004356024351515604435610785565b3480156101b557600080fd5b5061014d6004356108ac565b3480156101cd57600080fd5b506101d66108d1565b604080517fffffffff000000000000000000000000000000000000000000000000000000009092168252519081900360200190f35b34801561021757600080fd5b5061014d610974565b6102c58160405160200180807f7265776172642d7472616e7366657272696e672d66726f6d2d666f726569676e81525060200190506040516020818303038152906040526040518082805190602001908083835b602083106102935780518252601f199092019160209182019101610274565b6001836020036101000a03801982511681845116808217855250505050505090500191505060405180910390206109e7565b50565b60006002600060405160200180807f657263363737746f6b656e000000000000000000000000000000000000000000815250600b0190506040516020818303038152906040526040518082805190602001908083835b6020831061033d5780518252601f19909201916020918201910161031e565b51815160209384036101000a6000190180199092169116179052604080519290940182900390912086528501959095529290920160002054600160a060020a0316949350505050565b8060008060405160200180807f666f726569676e46656500000000000000000000000000000000000000000000815250600a0190506040516020818303038152906040526040518082805190602001908083835b602083106103f95780518252601f1990920191602091820191016103da565b51815160001960209485036101000a019081169019919091161790526040805194909201849003909320865285830196909652509284016000209490945550815184815291517fa1bb1f345e2d0374ec182de8bb6e574798f6b4b3e89046d75c479d7d5620c2169350918290030190a150565b8060008060405160200180807f686f6d654665650000000000000000000000000000000000000000000000000081525060070190506040516020818303038152906040526040518082805190602001908083835b602083106104df5780518252601f1990920191602091820191016104c0565b51815160001960209485036101000a019081169019919091161790526040805194909201849003909320865285830196909652509284016000209490945550815184815291517f64afb51b44460415972849f8c01723cf624c005cbadf1024a2d8568694b73ac19350918290030190a150565b6102c58160405160200180807f7265776172642d7472616e7366657272696e672d66726f6d2d686f6d65000000815250601d019050604051602081830303815290604052604051808280519060200190808383602083106102935780518252601f199092019160209182019101610274565b60405160200180807f7265776172642d7472616e7366657272696e672d66726f6d2d666f726569676e81525060200190506040516020818303038152906040526040518082805190602001908083835b602083106106335780518252601f199092019160209182019101610614565b6001836020036101000a038019825116818451168082178552505050505050905001915050604051809103902081565b60405160200180807f7265776172642d7472616e7366657272696e672d66726f6d2d686f6d65000000815250601d019050604051602081830303815290604052604051808280519060200190808383602083106106335780518252601f199092019160209182019101610614565b600080600060405160200180807f686f6d654665650000000000000000000000000000000000000000000000000081525060070190506040516020818303038152906040526040518082805190602001908083835b602083106107455780518252601f199092019160209182019101610726565b51815160209384036101000a6000190180199092169116179052604080519290940182900390912086528501959095529290920160002054949350505050565b600080600060405160200180807f686f6d652d66656500000000000000000000000000000000000000000000000081525060080190506040516020818303038152906040526040518082805190602001908083835b602083106107f95780518252601f1990920191602091820191016107da565b5181516020939093036101000a600019018019909116921691909117905260405192018290039091208714925061083a91505057610835610974565b610842565b6108426106d1565b9150670de0b6b3a7640000905084151561087d576108768161086a888563ffffffff610d0416565b9063ffffffff610d3a16565b92506108a3565b6108a0610890828463ffffffff610d5116565b61086a888563ffffffff610d0416565b92505b50509392505050565b6000816108c043600163ffffffff610d5116565b408115156108ca57fe5b0692915050565b600060405160200180807f6d616e616765732d6f6e652d646972656374696f6e000000000000000000000081525060150190506040516020818303038152906040526040518082805190602001908083835b602083106109425780518252601f199092019160209182019101610923565b6001836020036101000a0380198251168184511680821785525050505050509050019150506040518091039020905090565b600080600060405160200180807f666f726569676e46656500000000000000000000000000000000000000000000815250600a019050604051602081830303815290604052604051808280519060200190808383602083106107455780518252601f199092019160209182019101610726565b6000806000806000806000806000806109fe610d63565b9950600160a060020a03985089600160a060020a0316630f43a6776040518163ffffffff1660e060020a028152600401602060405180830381600087803b158015610a4857600080fd5b505af1158015610a5c573d6000803e3d6000fd5b505050506040513d6020811015610a7257600080fd5b50519750610a868c8963ffffffff610d3a16565b9650610aa8610a9b888a63ffffffff610d0416565b8d9063ffffffff610d5116565b94506000851115610abf57610abc886108ac565b95505b89600160a060020a0316638d37052c8a6040518263ffffffff1660e060020a0281526004018082600160a060020a0316600160a060020a03168152602001915050602060405180830381600087803b158015610b1a57600080fd5b505af1158015610b2e573d6000803e3d6000fd5b505050506040513d6020811015610b4457600080fd5b50519350600160a060020a03808516908a1614801590610b6c5750600160a060020a03841615155b1515610b7757600080fd5b600092505b600160a060020a03848116908a1614610cf657869150600085118015610ba157508286145b15610bb957610bb6828663ffffffff610dd716565b91505b89600160a060020a03166381b91174856040518263ffffffff1660e060020a0281526004018082600160a060020a0316600160a060020a03168152602001915050602060405180830381600087803b158015610c1457600080fd5b505af1158015610c28573d6000803e3d6000fd5b505050506040513d6020811015610c3e57600080fd5b50519050610c4d81838d610de6565b89600160a060020a0316638d37052c856040518263ffffffff1660e060020a0281526004018082600160a060020a0316600160a060020a03168152602001915050602060405180830381600087803b158015610ca857600080fd5b505af1158015610cbc573d6000803e3d6000fd5b505050506040513d6020811015610cd257600080fd5b50519350600160a060020a0384161515610ceb57600080fd5b826001019250610b7c565b505050505050505050505050565b600080831515610d175760009150610d33565b50828202828482811515610d2757fe5b0414610d2f57fe5b8091505b5092915050565b6000808284811515610d4857fe5b04949350505050565b600082821115610d5d57fe5b50900390565b60006002600060405160200180807f76616c696461746f72436f6e747261637400000000000000000000000000000081525060110190506040516020818303038152906040526040518082805190602001908083836020831061033d5780518252601f19909201916020918201910161031e565b600082820183811015610d2f57fe5b60405160200180807f7265776172642d7472616e7366657272696e672d66726f6d2d666f726569676e81525060200190506040516020818303038152906040526040518082805190602001908083835b60208310610e555780518252601f199092019160209182019101610e36565b5181516020939093036101000a600019018019909116921691909117905260405192018290039091208414159250610e9991505057610e948383610ea8565b610ea3565b610ea38383610f11565b505050565b604051600160a060020a0383169082156108fc029083906000818181858888f193505050501515610f0d578082610edd610fab565b600160a060020a039091168152604051908190036020019082f080158015610f09573d6000803e3d6000fd5b5050505b5050565b610f196102c8565b600160a060020a03166340c10f1983836040518363ffffffff1660e060020a0281526004018083600160a060020a0316600160a060020a0316815260200182815260200192505050602060405180830381600087803b158015610f7b57600080fd5b505af1158015610f8f573d6000803e3d6000fd5b505050506040513d6020811015610fa557600080fd5b50505050565b604051602180610fbb833901905600608060405260405160208060218339810160405251600160a060020a038116ff00a165627a7a72305820d925a1c5dae6b88f3e0046a386abe46d218e3915b88bbd3223373a1eeca5526d0029",
  "source": "pragma solidity 0.4.24;\n\nimport \"../../IBurnableMintableERC677Token.sol\";\nimport \"../Sacrifice.sol\";\nimport \"../ValidatorsFeeManager.sol\";\n\n\ncontract FeeManagerNativeToErc is ValidatorsFeeManager {\n\n    function getFeeManagerMode() public pure returns(bytes4) {\n        return bytes4(keccak256(abi.encodePacked(\"manages-one-direction\")));\n    }\n\n    function erc677token() public view returns(IBurnableMintableERC677Token) {\n        return IBurnableMintableERC677Token(addressStorage[keccak256(abi.encodePacked(\"erc677token\"))]);\n    }\n\n    function onAffirmationFeeDistribution(address _rewardAddress, uint256 _fee) internal {\n        if (!_rewardAddress.send(_fee)) {\n            (new Sacrifice).value(_fee)(_rewardAddress);\n        }\n    }\n\n    function onSignatureFeeDistribution(address _rewardAddress, uint256 _fee) internal {\n        erc677token().mint(_rewardAddress, _fee);\n    }\n}\n",
  "sourcePath": "/Users/fbranci/iexecdev/vivani/tokenbridge/contracts/contracts/upgradeable_contracts/native_to_erc20/FeeManagerNativeToErc.sol",
  "compiler": {
    "name": "solc",
    "version": "0.4.24+commit.e67f0147.Emscripten.clang"
  },
  "schemaVersion": "3.0.13",
  "updatedAt": "2019-08-28T14:04:53.332Z",
  "devdoc": {
    "methods": {}
  },
  "userdoc": {
    "methods": {}
  }
}