{
  "contractName": "FeeManagerNativeToErc",
  "abi": [
    {
      "constant": false,
      "inputs": [
        {
          "name": "_fee",
          "type": "uint256"
        }
      ],
      "name": "distributeFeeFromAffirmation",
      "outputs": [],
      "payable": false,
      "stateMutability": "nonpayable",
      "type": "function"
    },
    {
      "constant": false,
      "inputs": [
        {
          "name": "_fee",
          "type": "uint256"
        }
      ],
      "name": "setForeignFee",
      "outputs": [],
      "payable": false,
      "stateMutability": "nonpayable",
      "type": "function"
    },
    {
      "constant": false,
      "inputs": [
        {
          "name": "_fee",
          "type": "uint256"
        }
      ],
      "name": "setHomeFee",
      "outputs": [],
      "payable": false,
      "stateMutability": "nonpayable",
      "type": "function"
    },
    {
      "constant": false,
      "inputs": [
        {
          "name": "_fee",
          "type": "uint256"
        }
      ],
      "name": "distributeFeeFromSignatures",
      "outputs": [],
      "payable": false,
      "stateMutability": "nonpayable",
      "type": "function"
    },
    {
      "constant": true,
      "inputs": [],
      "name": "REWARD_FOR_TRANSFERRING_FROM_FOREIGN",
      "outputs": [
        {
          "name": "",
          "type": "bytes32"
        }
      ],
      "payable": false,
      "stateMutability": "view",
      "type": "function"
    },
    {
      "constant": true,
      "inputs": [],
      "name": "REWARD_FOR_TRANSFERRING_FROM_HOME",
      "outputs": [
        {
          "name": "",
          "type": "bytes32"
        }
      ],
      "payable": false,
      "stateMutability": "view",
      "type": "function"
    },
    {
      "constant": true,
      "inputs": [],
      "name": "getHomeFee",
      "outputs": [
        {
          "name": "",
          "type": "uint256"
        }
      ],
      "payable": false,
      "stateMutability": "view",
      "type": "function"
    },
    {
      "constant": true,
      "inputs": [
        {
          "name": "_value",
          "type": "uint256"
        },
        {
          "name": "_recover",
          "type": "bool"
        },
        {
          "name": "_feeType",
          "type": "bytes32"
        }
      ],
      "name": "calculateFee",
      "outputs": [
        {
          "name": "",
          "type": "uint256"
        }
      ],
      "payable": false,
      "stateMutability": "view",
      "type": "function"
    },
    {
      "constant": true,
      "inputs": [],
      "name": "getForeignFee",
      "outputs": [
        {
          "name": "",
          "type": "uint256"
        }
      ],
      "payable": false,
      "stateMutability": "view",
      "type": "function"
    },
    {
      "anonymous": false,
      "inputs": [
        {
          "indexed": false,
          "name": "fee",
          "type": "uint256"
        }
      ],
      "name": "HomeFeeUpdated",
      "type": "event"
    },
    {
      "anonymous": false,
      "inputs": [
        {
          "indexed": false,
          "name": "fee",
          "type": "uint256"
        }
      ],
      "name": "ForeignFeeUpdated",
      "type": "event"
    },
    {
      "constant": true,
      "inputs": [],
      "name": "getFeeManagerMode",
      "outputs": [
        {
          "name": "",
          "type": "bytes4"
        }
      ],
      "payable": false,
      "stateMutability": "pure",
      "type": "function"
    },
    {
      "constant": true,
      "inputs": [],
      "name": "erc677token",
      "outputs": [
        {
          "name": "",
          "type": "address"
        }
      ],
      "payable": false,
      "stateMutability": "view",
      "type": "function"
    }
  ],
  "bytecode": "0x608060405234801561001057600080fd5b50611007806100206000396000f3006080604052600436106100955763ffffffff60e060020a600035041663054d46ec811461009a57806318d8f9c9146100b4578063286c4066146100e557806334a9e148146100fd57806359d78464146101155780637587f5761461012d578063767e15c11461015457806394da17cd146101695780639862f26f1461017e578063f2ba95611461019e578063ffd66196146101e8575b600080fd5b3480156100a657600080fd5b506100b26004356101fd565b005b3480156100c057600080fd5b506100c96102a5565b60408051600160a060020a039092168252519081900360200190f35b3480156100f157600080fd5b506100b2600435610363565b34801561010957600080fd5b506100b260043561045f565b34801561012157600080fd5b506100b260043561055b565b34801561013957600080fd5b506101426105cd565b60408051918252519081900360200190f35b34801561016057600080fd5b5061014261066c565b34801561017557600080fd5b506101426106da565b34801561018a57600080fd5b50610142600435602435151560443561078e565b3480156101aa57600080fd5b506101b36108b7565b604080517fffffffff000000000000000000000000000000000000000000000000000000009092168252519081900360200190f35b3480156101f457600080fd5b5061014261095a565b6102a28160405160200180807f7265776172642d7472616e7366657272696e672d66726f6d2d666f726569676e81525060200190506040516020818303038152906040526040518082805190602001908083835b602083106102705780518252601f199092019160209182019101610251565b6001836020036101000a03801982511681845116808217855250505050505090500191505060405180910390206109cd565b50565b60006002600060405160200180807f657263363737746f6b656e000000000000000000000000000000000000000000815250600b0190506040516020818303038152906040526040518082805190602001908083835b6020831061031a5780518252601f1990920191602091820191016102fb565b51815160209384036101000a6000190180199092169116179052604080519290940182900390912086528501959095529290920160002054600160a060020a0316949350505050565b80670de0b6b3a7640000811061037857600080fd5b8160008060405160200180807f666f726569676e46656500000000000000000000000000000000000000000000815250600a0190506040516020818303038152906040526040518082805190602001908083835b602083106103eb5780518252601f1990920191602091820191016103cc565b51815160001960209485036101000a019081169019919091161790526040805194909201849003909320865285830196909652509284016000209490945550815185815291517fa1bb1f345e2d0374ec182de8bb6e574798f6b4b3e89046d75c479d7d5620c2169350918290030190a15050565b80670de0b6b3a7640000811061047457600080fd5b8160008060405160200180807f686f6d654665650000000000000000000000000000000000000000000000000081525060070190506040516020818303038152906040526040518082805190602001908083835b602083106104e75780518252601f1990920191602091820191016104c8565b51815160001960209485036101000a019081169019919091161790526040805194909201849003909320865285830196909652509284016000209490945550815185815291517f64afb51b44460415972849f8c01723cf624c005cbadf1024a2d8568694b73ac19350918290030190a15050565b6102a28160405160200180807f7265776172642d7472616e7366657272696e672d66726f6d2d686f6d65000000815250601d019050604051602081830303815290604052604051808280519060200190808383602083106102705780518252601f199092019160209182019101610251565b60405160200180807f7265776172642d7472616e7366657272696e672d66726f6d2d666f726569676e81525060200190506040516020818303038152906040526040518082805190602001908083835b6020831061063c5780518252601f19909201916020918201910161061d565b6001836020036101000a038019825116818451168082178552505050505050905001915050604051809103902081565b60405160200180807f7265776172642d7472616e7366657272696e672d66726f6d2d686f6d65000000815250601d0190506040516020818303038152906040526040518082805190602001908083836020831061063c5780518252601f19909201916020918201910161061d565b600080600060405160200180807f686f6d654665650000000000000000000000000000000000000000000000000081525060070190506040516020818303038152906040526040518082805190602001908083835b6020831061074e5780518252601f19909201916020918201910161072f565b51815160209384036101000a6000190180199092169116179052604080519290940182900390912086528501959095529290920160002054949350505050565b60008060405160200180807f686f6d652d66656500000000000000000000000000000000000000000000000081525060080190506040516020818303038152906040526040518082805190602001908083835b602083106108005780518252601f1990920191602091820191016107e1565b5181516020939093036101000a60001901801990911692169190911790526040519201829003909120861492506108419150505761083c61095a565b610849565b6108496106da565b90508315156108815761087a670de0b6b3a764000061086e878463ffffffff610cea16565b9063ffffffff610d1916565b91506108af565b6108ac61089c670de0b6b3a76400008363ffffffff610d2e16565b61086e878463ffffffff610cea16565b91505b509392505050565b600060405160200180807f6d616e616765732d6f6e652d646972656374696f6e000000000000000000000081525060150190506040516020818303038152906040526040518082805190602001908083835b602083106109285780518252601f199092019160209182019101610909565b6001836020036101000a0380198251168184511680821785525050505050509050019150506040518091039020905090565b600080600060405160200180807f666f726569676e46656500000000000000000000000000000000000000000000815250600a0190506040516020818303038152906040526040518082805190602001908083836020831061074e5780518252601f19909201916020918201910161072f565b6000806000806000806000806000806109e4610d40565b9950600160a060020a03985089600160a060020a0316630f43a6776040518163ffffffff1660e060020a028152600401602060405180830381600087803b158015610a2e57600080fd5b505af1158015610a42573d6000803e3d6000fd5b505050506040513d6020811015610a5857600080fd5b50519750610a6c8c8963ffffffff610d1916565b9650610a8e610a81888a63ffffffff610cea16565b8d9063ffffffff610d2e16565b94506000851115610aa557610aa288610db4565b95505b89600160a060020a0316638d37052c8a6040518263ffffffff1660e060020a0281526004018082600160a060020a0316600160a060020a03168152602001915050602060405180830381600087803b158015610b0057600080fd5b505af1158015610b14573d6000803e3d6000fd5b505050506040513d6020811015610b2a57600080fd5b50519350600160a060020a03808516908a1614801590610b525750600160a060020a03841615155b1515610b5d57600080fd5b600092505b600160a060020a03848116908a1614610cdc57869150600085118015610b8757508286145b15610b9f57610b9c828663ffffffff610dd916565b91505b89600160a060020a03166381b91174856040518263ffffffff1660e060020a0281526004018082600160a060020a0316600160a060020a03168152602001915050602060405180830381600087803b158015610bfa57600080fd5b505af1158015610c0e573d6000803e3d6000fd5b505050506040513d6020811015610c2457600080fd5b50519050610c3381838d610de6565b89600160a060020a0316638d37052c856040518263ffffffff1660e060020a0281526004018082600160a060020a0316600160a060020a03168152602001915050602060405180830381600087803b158015610c8e57600080fd5b505af1158015610ca2573d6000803e3d6000fd5b505050506040513d6020811015610cb857600080fd5b50519350600160a060020a0384161515610cd157600080fd5b826001019250610b62565b505050505050505050505050565b6000821515610cfb57506000610d13565b50818102818382811515610d0b57fe5b0414610d1357fe5b92915050565b60008183811515610d2657fe5b049392505050565b600082821115610d3a57fe5b50900390565b60006002600060405160200180807f76616c696461746f72436f6e747261637400000000000000000000000000000081525060110190506040516020818303038152906040526040518082805190602001908083836020831061031a5780518252601f1990920191602091820191016102fb565b600081610dc843600163ffffffff610d2e16565b40811515610dd257fe5b0692915050565b81810182811015610d1357fe5b60405160200180807f7265776172642d7472616e7366657272696e672d66726f6d2d666f726569676e81525060200190506040516020818303038152906040526040518082805190602001908083835b60208310610e555780518252601f199092019160209182019101610e36565b5181516020939093036101000a600019018019909116921691909117905260405192018290039091208414159250610e9991505057610e948383610ea8565b610ea3565b610ea38383610f11565b505050565b604051600160a060020a0383169082156108fc029083906000818181858888f193505050501515610f0d578082610edd610fab565b600160a060020a039091168152604051908190036020019082f080158015610f09573d6000803e3d6000fd5b5050505b5050565b610f196102a5565b600160a060020a03166340c10f1983836040518363ffffffff1660e060020a0281526004018083600160a060020a0316600160a060020a0316815260200182815260200192505050602060405180830381600087803b158015610f7b57600080fd5b505af1158015610f8f573d6000803e3d6000fd5b505050506040513d6020811015610fa557600080fd5b50505050565b604051602180610fbb833901905600608060405260405160208060218339810160405251600160a060020a038116ff00a165627a7a72305820915180dfb589f1e476ddb5ba29acc1f995f0a6213dcf291cce4f2c97d77061610029",
  "source": "pragma solidity 0.4.24;\n\nimport \"../../interfaces/IBurnableMintableERC677Token.sol\";\nimport \"../Sacrifice.sol\";\nimport \"../ValidatorsFeeManager.sol\";\nimport \"../ERC677Storage.sol\";\n\ncontract FeeManagerNativeToErc is ValidatorsFeeManager, ERC677Storage {\n    function getFeeManagerMode() external pure returns (bytes4) {\n        return bytes4(keccak256(abi.encodePacked(\"manages-one-direction\")));\n    }\n\n    function erc677token() public view returns (IBurnableMintableERC677Token) {\n        return IBurnableMintableERC677Token(addressStorage[ERC677_TOKEN]);\n    }\n\n    function onAffirmationFeeDistribution(address _rewardAddress, uint256 _fee) internal {\n        if (!_rewardAddress.send(_fee)) {\n            (new Sacrifice).value(_fee)(_rewardAddress);\n        }\n    }\n\n    function onSignatureFeeDistribution(address _rewardAddress, uint256 _fee) internal {\n        erc677token().mint(_rewardAddress, _fee);\n    }\n}\n",
  "sourcePath": "/mono/contracts/contracts/upgradeable_contracts/native_to_erc20/FeeManagerNativeToErc.sol",
  "compiler": {
    "name": "solc",
    "version": "0.4.24+commit.e67f0147.Emscripten.clang"
  },
  "schemaVersion": "3.0.11",
  "updatedAt": "2019-09-03T09:43:49.714Z",
  "devdoc": {
    "methods": {}
  },
  "userdoc": {
    "methods": {}
  }
}