{
  "contractName": "FeeManagerErcToNative",
  "abi": [
    {
      "constant": false,
      "inputs": [
        {
          "name": "_fee",
          "type": "uint256"
        }
      ],
      "name": "distributeFeeFromAffirmation",
      "outputs": [],
      "payable": false,
      "stateMutability": "nonpayable",
      "type": "function"
    },
    {
      "constant": false,
      "inputs": [
        {
          "name": "_fee",
          "type": "uint256"
        }
      ],
      "name": "setForeignFee",
      "outputs": [],
      "payable": false,
      "stateMutability": "nonpayable",
      "type": "function"
    },
    {
      "constant": false,
      "inputs": [
        {
          "name": "_fee",
          "type": "uint256"
        }
      ],
      "name": "setHomeFee",
      "outputs": [],
      "payable": false,
      "stateMutability": "nonpayable",
      "type": "function"
    },
    {
      "constant": false,
      "inputs": [
        {
          "name": "_fee",
          "type": "uint256"
        }
      ],
      "name": "distributeFeeFromSignatures",
      "outputs": [],
      "payable": false,
      "stateMutability": "nonpayable",
      "type": "function"
    },
    {
      "constant": true,
      "inputs": [],
      "name": "REWARD_FOR_TRANSFERRING_FROM_FOREIGN",
      "outputs": [
        {
          "name": "",
          "type": "bytes32"
        }
      ],
      "payable": false,
      "stateMutability": "view",
      "type": "function"
    },
    {
      "constant": true,
      "inputs": [],
      "name": "REWARD_FOR_TRANSFERRING_FROM_HOME",
      "outputs": [
        {
          "name": "",
          "type": "bytes32"
        }
      ],
      "payable": false,
      "stateMutability": "view",
      "type": "function"
    },
    {
      "constant": true,
      "inputs": [],
      "name": "getHomeFee",
      "outputs": [
        {
          "name": "",
          "type": "uint256"
        }
      ],
      "payable": false,
      "stateMutability": "view",
      "type": "function"
    },
    {
      "constant": true,
      "inputs": [
        {
          "name": "_value",
          "type": "uint256"
        },
        {
          "name": "_recover",
          "type": "bool"
        },
        {
          "name": "_feeType",
          "type": "bytes32"
        }
      ],
      "name": "calculateFee",
      "outputs": [
        {
          "name": "",
          "type": "uint256"
        }
      ],
      "payable": false,
      "stateMutability": "view",
      "type": "function"
    },
    {
      "constant": true,
      "inputs": [
        {
          "name": "_count",
          "type": "uint256"
        }
      ],
      "name": "random",
      "outputs": [
        {
          "name": "",
          "type": "uint256"
        }
      ],
      "payable": false,
      "stateMutability": "view",
      "type": "function"
    },
    {
      "constant": true,
      "inputs": [],
      "name": "getForeignFee",
      "outputs": [
        {
          "name": "",
          "type": "uint256"
        }
      ],
      "payable": false,
      "stateMutability": "view",
      "type": "function"
    },
    {
      "anonymous": false,
      "inputs": [
        {
          "indexed": false,
          "name": "fee",
          "type": "uint256"
        }
      ],
      "name": "HomeFeeUpdated",
      "type": "event"
    },
    {
      "anonymous": false,
      "inputs": [
        {
          "indexed": false,
          "name": "fee",
          "type": "uint256"
        }
      ],
      "name": "ForeignFeeUpdated",
      "type": "event"
    },
    {
      "constant": true,
      "inputs": [],
      "name": "getFeeManagerMode",
      "outputs": [
        {
          "name": "",
          "type": "bytes4"
        }
      ],
      "payable": false,
      "stateMutability": "pure",
      "type": "function"
    },
    {
      "constant": true,
      "inputs": [
        {
          "name": "_value",
          "type": "uint256"
        }
      ],
      "name": "getAmountToBurn",
      "outputs": [
        {
          "name": "",
          "type": "uint256"
        }
      ],
      "payable": false,
      "stateMutability": "view",
      "type": "function"
    }
  ],
  "bytecode": "0x608060405234801561001057600080fd5b506110a3806100206000396000f3006080604052600436106100a05763ffffffff60e060020a600035041663054d46ec81146100a5578063286c4066146100bf57806334a9e148146100d757806359d78464146100ef5780637587f57614610107578063767e15c11461012e578063916850e91461014357806394da17cd1461015b5780639862f26f14610170578063b863bd3714610190578063f2ba9561146101a8578063ffd66196146101f2575b600080fd5b3480156100b157600080fd5b506100bd600435610207565b005b3480156100cb57600080fd5b506100bd6004356102af565b3480156100e357600080fd5b506100bd600435610395565b3480156100fb57600080fd5b506100bd60043561047b565b34801561011357600080fd5b5061011c6104ed565b60408051918252519081900360200190f35b34801561013a57600080fd5b5061011c61058c565b34801561014f57600080fd5b5061011c6004356105fa565b34801561016757600080fd5b5061011c6106bd565b34801561017c57600080fd5b5061011c6004356024351515604435610771565b34801561019c57600080fd5b5061011c600435610898565b3480156101b457600080fd5b506101bd6108bd565b604080517fffffffff000000000000000000000000000000000000000000000000000000009092168252519081900360200190f35b3480156101fe57600080fd5b5061011c610960565b6102ac8160405160200180807f7265776172642d7472616e7366657272696e672d66726f6d2d666f726569676e81525060200190506040516020818303038152906040526040518082805190602001908083835b6020831061027a5780518252601f19909201916020918201910161025b565b6001836020036101000a03801982511681845116808217855250505050505090500191505060405180910390206109d3565b50565b8060008060405160200180807f666f726569676e46656500000000000000000000000000000000000000000000815250600a0190506040516020818303038152906040526040518082805190602001908083835b602083106103225780518252601f199092019160209182019101610303565b51815160001960209485036101000a019081169019919091161790526040805194909201849003909320865285830196909652509284016000209490945550815184815291517fa1bb1f345e2d0374ec182de8bb6e574798f6b4b3e89046d75c479d7d5620c2169350918290030190a150565b8060008060405160200180807f686f6d654665650000000000000000000000000000000000000000000000000081525060070190506040516020818303038152906040526040518082805190602001908083835b602083106104085780518252601f1990920191602091820191016103e9565b51815160001960209485036101000a019081169019919091161790526040805194909201849003909320865285830196909652509284016000209490945550815184815291517f64afb51b44460415972849f8c01723cf624c005cbadf1024a2d8568694b73ac19350918290030190a150565b6102ac8160405160200180807f7265776172642d7472616e7366657272696e672d66726f6d2d686f6d65000000815250601d0190506040516020818303038152906040526040518082805190602001908083836020831061027a5780518252601f19909201916020918201910161025b565b60405160200180807f7265776172642d7472616e7366657272696e672d66726f6d2d666f726569676e81525060200190506040516020818303038152906040526040518082805190602001908083835b6020831061055c5780518252601f19909201916020918201910161053d565b6001836020036101000a038019825116818451168082178552505050505050905001915050604051809103902081565b60405160200180807f7265776172642d7472616e7366657272696e672d66726f6d2d686f6d65000000815250601d0190506040516020818303038152906040526040518082805190602001908083836020831061055c5780518252601f19909201916020918201910161053d565b6000806106a483600060405160200180807f686f6d652d66656500000000000000000000000000000000000000000000000081525060080190506040516020818303038152906040526040518082805190602001908083835b602083106106725780518252601f199092019160209182019101610653565b6001836020036101000a0380198251168184511680821785525050505050509050019150506040518091039020610771565b90506106b6838263ffffffff610cf016565b9392505050565b600080600060405160200180807f686f6d654665650000000000000000000000000000000000000000000000000081525060070190506040516020818303038152906040526040518082805190602001908083835b602083106107315780518252601f199092019160209182019101610712565b51815160209384036101000a6000190180199092169116179052604080519290940182900390912086528501959095529290920160002054949350505050565b600080600060405160200180807f686f6d652d66656500000000000000000000000000000000000000000000000081525060080190506040516020818303038152906040526040518082805190602001908083835b602083106107e55780518252601f1990920191602091820191016107c6565b5181516020939093036101000a600019018019909116921691909117905260405192018290039091208714925061082691505057610821610960565b61082e565b61082e6106bd565b9150670de0b6b3a764000090508415156108695761086281610856888563ffffffff610d0216565b9063ffffffff610d3816565b925061088f565b61088c61087c828463ffffffff610cf016565b610856888563ffffffff610d0216565b92505b50509392505050565b6000816108ac43600163ffffffff610cf016565b408115156108b657fe5b0692915050565b600060405160200180807f6d616e616765732d626f74682d646972656374696f6e7300000000000000000081525060170190506040516020818303038152906040526040518082805190602001908083835b6020831061092e5780518252601f19909201916020918201910161090f565b6001836020036101000a0380198251168184511680821785525050505050509050019150506040518091039020905090565b600080600060405160200180807f666f726569676e46656500000000000000000000000000000000000000000000815250600a019050604051602081830303815290604052604051808280519060200190808383602083106107315780518252601f199092019160209182019101610712565b6000806000806000806000806000806109ea610d4f565b9950600160a060020a03985089600160a060020a0316630f43a6776040518163ffffffff1660e060020a028152600401602060405180830381600087803b158015610a3457600080fd5b505af1158015610a48573d6000803e3d6000fd5b505050506040513d6020811015610a5e57600080fd5b50519750610a728c8963ffffffff610d3816565b9650610a94610a87888a63ffffffff610d0216565b8d9063ffffffff610cf016565b94506000851115610aab57610aa888610898565b95505b89600160a060020a0316638d37052c8a6040518263ffffffff1660e060020a0281526004018082600160a060020a0316600160a060020a03168152602001915050602060405180830381600087803b158015610b0657600080fd5b505af1158015610b1a573d6000803e3d6000fd5b505050506040513d6020811015610b3057600080fd5b50519350600160a060020a03808516908a1614801590610b585750600160a060020a03841615155b1515610b6357600080fd5b600092505b600160a060020a03848116908a1614610ce257869150600085118015610b8d57508286145b15610ba557610ba2828663ffffffff610e0d16565b91505b89600160a060020a03166381b91174856040518263ffffffff1660e060020a0281526004018082600160a060020a0316600160a060020a03168152602001915050602060405180830381600087803b158015610c0057600080fd5b505af1158015610c14573d6000803e3d6000fd5b505050506040513d6020811015610c2a57600080fd5b50519050610c3981838d610e1c565b89600160a060020a0316638d37052c856040518263ffffffff1660e060020a0281526004018082600160a060020a0316600160a060020a03168152602001915050602060405180830381600087803b158015610c9457600080fd5b505af1158015610ca8573d6000803e3d6000fd5b505050506040513d6020811015610cbe57600080fd5b50519350600160a060020a0384161515610cd757600080fd5b826001019250610b68565b505050505050505050505050565b600082821115610cfc57fe5b50900390565b600080831515610d155760009150610d31565b50828202828482811515610d2557fe5b0414610d2d57fe5b8091505b5092915050565b6000808284811515610d4657fe5b04949350505050565b60006002600060405160200180807f76616c696461746f72436f6e747261637400000000000000000000000000000081525060110190506040516020818303038152906040526040518082805190602001908083835b60208310610dc45780518252601f199092019160209182019101610da5565b51815160209384036101000a6000190180199092169116179052604080519290940182900390912086528501959095529290920160002054600160a060020a0316949350505050565b600082820183811015610d2d57fe5b60405160200180807f7265776172642d7472616e7366657272696e672d66726f6d2d666f726569676e81525060200190506040516020818303038152906040526040518082805190602001908083835b60208310610e8b5780518252601f199092019160209182019101610e6c565b5181516020939093036101000a600019018019909116921691909117905260405192018290039091208414159250610ecf91505057610eca8383610ede565b610ed9565b610ed98383610f6a565b505050565b6000610ee8610fd3565b905080600160a060020a031663aa9fa27483856040518363ffffffff1660e060020a0281526004018083815260200182600160a060020a0316600160a060020a0316815260200192505050600060405180830381600087803b158015610f4d57600080fd5b505af1158015610f61573d6000803e3d6000fd5b50505050505050565b604051600160a060020a0383169082156108fc029083906000818181858888f193505050501515610fcf578082610f9f611047565b600160a060020a039091168152604051908190036020019082f080158015610fcb573d6000803e3d6000fd5b5050505b5050565b60006002600060405160200180807f626c6f636b526577617264436f6e747261637400000000000000000000000000815250601301905060405160208183030381529060405260405180828051906020019080838360208310610dc45780518252601f199092019160209182019101610da5565b604051602180611057833901905600608060405260405160208060218339810160405251600160a060020a038116ff00a165627a7a72305820feb9b42e57c3cfe01adf60646e55e517f9a6c77765d8aa7b94156574d5ca1c260029",
  "source": "pragma solidity 0.4.24;\n\nimport \"../../IBlockReward.sol\";\nimport \"../Sacrifice.sol\";\nimport \"../ValidatorsFeeManager.sol\";\n\n\ncontract FeeManagerErcToNative is ValidatorsFeeManager {\n\n    function getFeeManagerMode() public pure returns(bytes4) {\n        return bytes4(keccak256(abi.encodePacked(\"manages-both-directions\")));\n    }\n\n    function blockRewardContract() internal view returns(IBlockReward) {\n        return IBlockReward(addressStorage[keccak256(abi.encodePacked(\"blockRewardContract\"))]);\n    }\n\n    function onAffirmationFeeDistribution(address _rewardAddress, uint256 _fee) internal {\n        IBlockReward blockReward = blockRewardContract();\n        blockReward.addExtraReceiver(_fee, _rewardAddress);\n    }\n\n    function onSignatureFeeDistribution(address _rewardAddress, uint256 _fee) internal {\n        if (!_rewardAddress.send(_fee)) {\n            (new Sacrifice).value(_fee)(_rewardAddress);\n        }\n    }\n\n    function getAmountToBurn(uint256 _value) public view returns(uint256) {\n        uint256 fee = calculateFee(_value, false, HOME_FEE);\n        return _value.sub(fee);\n    }\n}\n",
  "sourcePath": "/Users/fbranci/iexecdev/vivani/tokenbridge/contracts/contracts/upgradeable_contracts/erc20_to_native/FeeManagerErcToNative.sol",
  "compiler": {
    "name": "solc",
    "version": "0.4.24+commit.e67f0147.Emscripten.clang"
  },
  "schemaVersion": "3.0.13",
  "updatedAt": "2019-08-28T14:04:53.304Z",
  "devdoc": {
    "methods": {}
  },
  "userdoc": {
    "methods": {}
  }
}