{
  "contractName": "FeeManagerErcToErcPOSDAO",
  "abi": [
    {
      "constant": false,
      "inputs": [
        {
          "name": "_fee",
          "type": "uint256"
        }
      ],
      "name": "distributeFeeFromAffirmation",
      "outputs": [],
      "payable": false,
      "stateMutability": "nonpayable",
      "type": "function"
    },
    {
      "constant": false,
      "inputs": [
        {
          "name": "_fee",
          "type": "uint256"
        }
      ],
      "name": "setForeignFee",
      "outputs": [],
      "payable": false,
      "stateMutability": "nonpayable",
      "type": "function"
    },
    {
      "constant": false,
      "inputs": [
        {
          "name": "_fee",
          "type": "uint256"
        }
      ],
      "name": "setHomeFee",
      "outputs": [],
      "payable": false,
      "stateMutability": "nonpayable",
      "type": "function"
    },
    {
      "constant": false,
      "inputs": [
        {
          "name": "_fee",
          "type": "uint256"
        }
      ],
      "name": "distributeFeeFromSignatures",
      "outputs": [],
      "payable": false,
      "stateMutability": "nonpayable",
      "type": "function"
    },
    {
      "constant": true,
      "inputs": [],
      "name": "getHomeFee",
      "outputs": [
        {
          "name": "",
          "type": "uint256"
        }
      ],
      "payable": false,
      "stateMutability": "view",
      "type": "function"
    },
    {
      "constant": true,
      "inputs": [
        {
          "name": "_value",
          "type": "uint256"
        },
        {
          "name": "_recover",
          "type": "bool"
        },
        {
          "name": "_feeType",
          "type": "bytes32"
        }
      ],
      "name": "calculateFee",
      "outputs": [
        {
          "name": "",
          "type": "uint256"
        }
      ],
      "payable": false,
      "stateMutability": "view",
      "type": "function"
    },
    {
      "constant": true,
      "inputs": [
        {
          "name": "_count",
          "type": "uint256"
        }
      ],
      "name": "random",
      "outputs": [
        {
          "name": "",
          "type": "uint256"
        }
      ],
      "payable": false,
      "stateMutability": "view",
      "type": "function"
    },
    {
      "constant": true,
      "inputs": [],
      "name": "getForeignFee",
      "outputs": [
        {
          "name": "",
          "type": "uint256"
        }
      ],
      "payable": false,
      "stateMutability": "view",
      "type": "function"
    },
    {
      "anonymous": false,
      "inputs": [
        {
          "indexed": false,
          "name": "fee",
          "type": "uint256"
        }
      ],
      "name": "HomeFeeUpdated",
      "type": "event"
    },
    {
      "anonymous": false,
      "inputs": [
        {
          "indexed": false,
          "name": "fee",
          "type": "uint256"
        }
      ],
      "name": "ForeignFeeUpdated",
      "type": "event"
    },
    {
      "constant": true,
      "inputs": [],
      "name": "getFeeManagerMode",
      "outputs": [
        {
          "name": "",
          "type": "bytes4"
        }
      ],
      "payable": false,
      "stateMutability": "pure",
      "type": "function"
    },
    {
      "constant": true,
      "inputs": [],
      "name": "blockRewardContract",
      "outputs": [
        {
          "name": "",
          "type": "address"
        }
      ],
      "payable": false,
      "stateMutability": "view",
      "type": "function"
    },
    {
      "constant": false,
      "inputs": [
        {
          "name": "_blockReward",
          "type": "address"
        }
      ],
      "name": "setBlockRewardContract",
      "outputs": [],
      "payable": false,
      "stateMutability": "nonpayable",
      "type": "function"
    }
  ],
  "bytecode": "0x608060405234801561001057600080fd5b50610a2b806100206000396000f3006080604052600436106100955763ffffffff60e060020a600035041663054d46ec811461009a57806327a3e16b146100b4578063286c4066146100d557806334a9e148146100ed57806356b54bae1461010557806359d784641461009a57806394da17cd146101365780639862f26f1461015d578063b863bd371461017d578063f2ba956114610195578063ffd66196146101df575b600080fd5b3480156100a657600080fd5b506100b26004356101f4565b005b3480156100c057600080fd5b506100b2600160a060020a0360043516610200565b3480156100e157600080fd5b506100b2600435610378565b3480156100f957600080fd5b506100b260043561045e565b34801561011157600080fd5b5061011a610544565b60408051600160a060020a039092168252519081900360200190f35b34801561014257600080fd5b5061014b610553565b60408051918252519081900360200190f35b34801561016957600080fd5b5061014b6004356024351515604435610607565b34801561018957600080fd5b5061014b60043561072e565b3480156101a157600080fd5b506101aa610753565b604080517fffffffff000000000000000000000000000000000000000000000000000000009092168252519081900360200190f35b3480156101eb57600080fd5b5061014b6107f6565b6101fd81610869565b50565b600160a060020a0381161580159061021c575061021c816108da565b8015610290575080600160a060020a03166310f2ee7c6040518163ffffffff1660e060020a028152600401602060405180830381600087803b15801561026157600080fd5b505af1158015610275573d6000803e3d6000fd5b505050506040513d602081101561028b57600080fd5b505115155b151561029b57600080fd5b806002600060405160200180807f626c6f636b526577617264436f6e74726163740000000000000000000000000081525060130190506040516020818303038152906040526040518082805190602001908083835b6020831061030f5780518252601f1990920191602091820191016102f0565b51815160209384036101000a60001901801990921691161790526040805192909401829003909120865285019590955292909201600020805473ffffffffffffffffffffffffffffffffffffffff1916600160a060020a03959095169490941790935550505050565b8060008060405160200180807f666f726569676e46656500000000000000000000000000000000000000000000815250600a0190506040516020818303038152906040526040518082805190602001908083835b602083106103eb5780518252601f1990920191602091820191016103cc565b51815160001960209485036101000a019081169019919091161790526040805194909201849003909320865285830196909652509284016000209490945550815184815291517fa1bb1f345e2d0374ec182de8bb6e574798f6b4b3e89046d75c479d7d5620c2169350918290030190a150565b8060008060405160200180807f686f6d654665650000000000000000000000000000000000000000000000000081525060070190506040516020818303038152906040526040518082805190602001908083835b602083106104d15780518252601f1990920191602091820191016104b2565b51815160001960209485036101000a019081169019919091161790526040805194909201849003909320865285830196909652509284016000209490945550815184815291517f64afb51b44460415972849f8c01723cf624c005cbadf1024a2d8568694b73ac19350918290030190a150565b600061054e6108e2565b905090565b600080600060405160200180807f686f6d654665650000000000000000000000000000000000000000000000000081525060070190506040516020818303038152906040526040518082805190602001908083835b602083106105c75780518252601f1990920191602091820191016105a8565b51815160209384036101000a6000190180199092169116179052604080519290940182900390912086528501959095529290920160002054949350505050565b600080600060405160200180807f686f6d652d66656500000000000000000000000000000000000000000000000081525060080190506040516020818303038152906040526040518082805190602001908083835b6020831061067b5780518252601f19909201916020918201910161065c565b5181516020939093036101000a60001901801990911692169190911790526040519201829003909120871492506106bc915050576106b76107f6565b6106c4565b6106c4610553565b9150670de0b6b3a764000090508415156106ff576106f8816106ec888563ffffffff6109a016565b9063ffffffff6109d616565b9250610725565b610722610712828463ffffffff6109ed16565b6106ec888563ffffffff6109a016565b92505b50509392505050565b60008161074243600163ffffffff6109ed16565b4081151561074c57fe5b0692915050565b600060405160200180807f6d616e616765732d626f74682d646972656374696f6e7300000000000000000081525060170190506040516020818303038152906040526040518082805190602001908083835b602083106107c45780518252601f1990920191602091820191016107a5565b6001836020036101000a0380198251168184511680821785525050505050509050019150506040518091039020905090565b600080600060405160200180807f666f726569676e46656500000000000000000000000000000000000000000000815250600a019050604051602081830303815290604052604051808280519060200190808383602083106105c75780518252601f1990920191602091820191016105a8565b60006108736108e2565b905080600160a060020a031663128b265f836040518263ffffffff1660e060020a02815260040180828152602001915050600060405180830381600087803b1580156108be57600080fd5b505af11580156108d2573d6000803e3d6000fd5b505050505050565b6000903b1190565b60006002600060405160200180807f626c6f636b526577617264436f6e74726163740000000000000000000000000081525060130190506040516020818303038152906040526040518082805190602001908083835b602083106109575780518252601f199092019160209182019101610938565b51815160209384036101000a6000190180199092169116179052604080519290940182900390912086528501959095529290920160002054600160a060020a0316949350505050565b6000808315156109b357600091506109cf565b508282028284828115156109c357fe5b04146109cb57fe5b8091505b5092915050565b60008082848115156109e457fe5b04949350505050565b6000828211156109f957fe5b509003905600a165627a7a723058201f45c1d583ba5721fa7f89d122503075b1fd20d05636888a2b5c904dbae5b7fb0029",
  "source": "pragma solidity 0.4.24;\n\nimport \"../BlockRewardFeeManager.sol\";\n\ncontract FeeManagerErcToErcPOSDAO is BlockRewardFeeManager {\n\n    function getFeeManagerMode() public pure returns(bytes4) {\n        return bytes4(keccak256(abi.encodePacked(\"manages-both-directions\")));\n    }\n\n    function blockRewardContract() public view returns(address) {\n        return _blockRewardContract();\n    }\n\n    function setBlockRewardContract(address _blockReward) external {\n        require(_blockReward != address(0) && isContract(_blockReward) && (IBlockReward(_blockReward).bridgesAllowedLength() != 0));\n        addressStorage[keccak256(abi.encodePacked(\"blockRewardContract\"))] = _blockReward;\n    }\n\n    function distributeFeeFromBlockReward(uint256 _fee) internal {\n        IBlockReward blockReward = _blockRewardContract();\n        blockReward.addBridgeTokenFeeReceivers(_fee);\n    }\n\n    function isContract(address _addr) internal view returns (bool)\n    {\n        uint length;\n        assembly { length := extcodesize(_addr) }\n        return length > 0;\n    }\n}\n",
  "sourcePath": "/Users/fbranci/iexecdev/vivani/tokenbridge/contracts/contracts/upgradeable_contracts/erc20_to_erc20/FeeManagerErcToErcPOSDAO.sol",
  "compiler": {
    "name": "solc",
    "version": "0.4.24+commit.e67f0147.Emscripten.clang"
  },
  "schemaVersion": "3.0.13",
  "updatedAt": "2019-08-28T14:04:53.282Z",
  "devdoc": {
    "methods": {}
  },
  "userdoc": {
    "methods": {}
  }
}