{
  "contractName": "ForeignBridgeErcToNative",
  "abi": [
    {
      "constant": true,
      "inputs": [
        {
          "name": "_txHash",
          "type": "bytes32"
        }
      ],
      "name": "relayedMessages",
      "outputs": [
        {
          "name": "",
          "type": "bool"
        }
      ],
      "payable": false,
      "stateMutability": "view",
      "type": "function"
    },
    {
      "constant": false,
      "inputs": [
        {
          "name": "vs",
          "type": "uint8[]"
        },
        {
          "name": "rs",
          "type": "bytes32[]"
        },
        {
          "name": "ss",
          "type": "bytes32[]"
        },
        {
          "name": "message",
          "type": "bytes"
        }
      ],
      "name": "executeSignatures",
      "outputs": [],
      "payable": false,
      "stateMutability": "nonpayable",
      "type": "function"
    },
    {
      "constant": true,
      "inputs": [
        {
          "name": "_day",
          "type": "uint256"
        }
      ],
      "name": "totalSpentPerDay",
      "outputs": [
        {
          "name": "",
          "type": "uint256"
        }
      ],
      "payable": false,
      "stateMutability": "view",
      "type": "function"
    },
    {
      "constant": true,
      "inputs": [],
      "name": "isInitialized",
      "outputs": [
        {
          "name": "",
          "type": "bool"
        }
      ],
      "payable": false,
      "stateMutability": "view",
      "type": "function"
    },
    {
      "constant": false,
      "inputs": [
        {
          "name": "_dailyLimit",
          "type": "uint256"
        }
      ],
      "name": "setExecutionDailyLimit",
      "outputs": [],
      "payable": false,
      "stateMutability": "nonpayable",
      "type": "function"
    },
    {
      "constant": true,
      "inputs": [],
      "name": "getCurrentDay",
      "outputs": [
        {
          "name": "",
          "type": "uint256"
        }
      ],
      "payable": false,
      "stateMutability": "view",
      "type": "function"
    },
    {
      "constant": true,
      "inputs": [],
      "name": "requiredBlockConfirmations",
      "outputs": [
        {
          "name": "",
          "type": "uint256"
        }
      ],
      "payable": false,
      "stateMutability": "view",
      "type": "function"
    },
    {
      "constant": true,
      "inputs": [],
      "name": "executionDailyLimit",
      "outputs": [
        {
          "name": "",
          "type": "uint256"
        }
      ],
      "payable": false,
      "stateMutability": "view",
      "type": "function"
    },
    {
      "constant": true,
      "inputs": [
        {
          "name": "_day",
          "type": "uint256"
        }
      ],
      "name": "totalExecutedPerDay",
      "outputs": [
        {
          "name": "",
          "type": "uint256"
        }
      ],
      "payable": false,
      "stateMutability": "view",
      "type": "function"
    },
    {
      "constant": true,
      "inputs": [],
      "name": "dailyLimit",
      "outputs": [
        {
          "name": "",
          "type": "uint256"
        }
      ],
      "payable": false,
      "stateMutability": "view",
      "type": "function"
    },
    {
      "constant": true,
      "inputs": [
        {
          "name": "_amount",
          "type": "uint256"
        }
      ],
      "name": "withinExecutionLimit",
      "outputs": [
        {
          "name": "",
          "type": "bool"
        }
      ],
      "payable": false,
      "stateMutability": "view",
      "type": "function"
    },
    {
      "constant": true,
      "inputs": [],
      "name": "executionMaxPerTx",
      "outputs": [
        {
          "name": "",
          "type": "uint256"
        }
      ],
      "payable": false,
      "stateMutability": "view",
      "type": "function"
    },
    {
      "constant": true,
      "inputs": [],
      "name": "requiredSignatures",
      "outputs": [
        {
          "name": "",
          "type": "uint256"
        }
      ],
      "payable": false,
      "stateMutability": "view",
      "type": "function"
    },
    {
      "constant": true,
      "inputs": [],
      "name": "owner",
      "outputs": [
        {
          "name": "",
          "type": "address"
        }
      ],
      "payable": false,
      "stateMutability": "view",
      "type": "function"
    },
    {
      "constant": true,
      "inputs": [],
      "name": "validatorContract",
      "outputs": [
        {
          "name": "",
          "type": "address"
        }
      ],
      "payable": false,
      "stateMutability": "view",
      "type": "function"
    },
    {
      "constant": true,
      "inputs": [],
      "name": "deployedAtBlock",
      "outputs": [
        {
          "name": "",
          "type": "uint256"
        }
      ],
      "payable": false,
      "stateMutability": "view",
      "type": "function"
    },
    {
      "constant": true,
      "inputs": [],
      "name": "getBridgeInterfacesVersion",
      "outputs": [
        {
          "name": "major",
          "type": "uint64"
        },
        {
          "name": "minor",
          "type": "uint64"
        },
        {
          "name": "patch",
          "type": "uint64"
        }
      ],
      "payable": false,
      "stateMutability": "pure",
      "type": "function"
    },
    {
      "constant": false,
      "inputs": [
        {
          "name": "_minPerTx",
          "type": "uint256"
        }
      ],
      "name": "setMinPerTx",
      "outputs": [],
      "payable": false,
      "stateMutability": "nonpayable",
      "type": "function"
    },
    {
      "constant": false,
      "inputs": [
        {
          "name": "_blockConfirmations",
          "type": "uint256"
        }
      ],
      "name": "setRequiredBlockConfirmations",
      "outputs": [],
      "payable": false,
      "stateMutability": "nonpayable",
      "type": "function"
    },
    {
      "constant": false,
      "inputs": [
        {
          "name": "_dailyLimit",
          "type": "uint256"
        }
      ],
      "name": "setDailyLimit",
      "outputs": [],
      "payable": false,
      "stateMutability": "nonpayable",
      "type": "function"
    },
    {
      "constant": false,
      "inputs": [
        {
          "name": "_gasPrice",
          "type": "uint256"
        }
      ],
      "name": "setGasPrice",
      "outputs": [],
      "payable": false,
      "stateMutability": "nonpayable",
      "type": "function"
    },
    {
      "constant": false,
      "inputs": [
        {
          "name": "_maxPerTx",
          "type": "uint256"
        }
      ],
      "name": "setMaxPerTx",
      "outputs": [],
      "payable": false,
      "stateMutability": "nonpayable",
      "type": "function"
    },
    {
      "constant": true,
      "inputs": [],
      "name": "upgradeabilityAdmin",
      "outputs": [
        {
          "name": "",
          "type": "address"
        }
      ],
      "payable": false,
      "stateMutability": "view",
      "type": "function"
    },
    {
      "constant": true,
      "inputs": [],
      "name": "minPerTx",
      "outputs": [
        {
          "name": "",
          "type": "uint256"
        }
      ],
      "payable": false,
      "stateMutability": "view",
      "type": "function"
    },
    {
      "constant": true,
      "inputs": [
        {
          "name": "_amount",
          "type": "uint256"
        }
      ],
      "name": "withinLimit",
      "outputs": [
        {
          "name": "",
          "type": "bool"
        }
      ],
      "payable": false,
      "stateMutability": "view",
      "type": "function"
    },
    {
      "constant": false,
      "inputs": [
        {
          "name": "_maxPerTx",
          "type": "uint256"
        }
      ],
      "name": "setExecutionMaxPerTx",
      "outputs": [],
      "payable": false,
      "stateMutability": "nonpayable",
      "type": "function"
    },
    {
      "constant": false,
      "inputs": [
        {
          "name": "newOwner",
          "type": "address"
        }
      ],
      "name": "transferOwnership",
      "outputs": [],
      "payable": false,
      "stateMutability": "nonpayable",
      "type": "function"
    },
    {
      "constant": true,
      "inputs": [],
      "name": "maxPerTx",
      "outputs": [
        {
          "name": "",
          "type": "uint256"
        }
      ],
      "payable": false,
      "stateMutability": "view",
      "type": "function"
    },
    {
      "constant": true,
      "inputs": [],
      "name": "gasPrice",
      "outputs": [
        {
          "name": "",
          "type": "uint256"
        }
      ],
      "payable": false,
      "stateMutability": "view",
      "type": "function"
    },
    {
      "anonymous": false,
      "inputs": [
        {
          "indexed": false,
          "name": "recipient",
          "type": "address"
        },
        {
          "indexed": false,
          "name": "value",
          "type": "uint256"
        },
        {
          "indexed": false,
          "name": "transactionHash",
          "type": "bytes32"
        }
      ],
      "name": "RelayedMessage",
      "type": "event"
    },
    {
      "anonymous": false,
      "inputs": [
        {
          "indexed": false,
          "name": "gasPrice",
          "type": "uint256"
        }
      ],
      "name": "GasPriceChanged",
      "type": "event"
    },
    {
      "anonymous": false,
      "inputs": [
        {
          "indexed": false,
          "name": "requiredBlockConfirmations",
          "type": "uint256"
        }
      ],
      "name": "RequiredBlockConfirmationChanged",
      "type": "event"
    },
    {
      "anonymous": false,
      "inputs": [
        {
          "indexed": false,
          "name": "newLimit",
          "type": "uint256"
        }
      ],
      "name": "DailyLimitChanged",
      "type": "event"
    },
    {
      "anonymous": false,
      "inputs": [
        {
          "indexed": false,
          "name": "newLimit",
          "type": "uint256"
        }
      ],
      "name": "ExecutionDailyLimitChanged",
      "type": "event"
    },
    {
      "anonymous": false,
      "inputs": [
        {
          "indexed": false,
          "name": "previousOwner",
          "type": "address"
        },
        {
          "indexed": false,
          "name": "newOwner",
          "type": "address"
        }
      ],
      "name": "OwnershipTransferred",
      "type": "event"
    },
    {
      "constant": false,
      "inputs": [
        {
          "name": "_validatorContract",
          "type": "address"
        },
        {
          "name": "_erc20token",
          "type": "address"
        },
        {
          "name": "_requiredBlockConfirmations",
          "type": "uint256"
        },
        {
          "name": "_gasPrice",
          "type": "uint256"
        },
        {
          "name": "_maxPerTx",
          "type": "uint256"
        },
        {
          "name": "_homeDailyLimit",
          "type": "uint256"
        },
        {
          "name": "_homeMaxPerTx",
          "type": "uint256"
        },
        {
          "name": "_owner",
          "type": "address"
        }
      ],
      "name": "initialize",
      "outputs": [
        {
          "name": "",
          "type": "bool"
        }
      ],
      "payable": false,
      "stateMutability": "nonpayable",
      "type": "function"
    },
    {
      "constant": true,
      "inputs": [],
      "name": "getBridgeMode",
      "outputs": [
        {
          "name": "_data",
          "type": "bytes4"
        }
      ],
      "payable": false,
      "stateMutability": "pure",
      "type": "function"
    },
    {
      "constant": false,
      "inputs": [
        {
          "name": "_token",
          "type": "address"
        },
        {
          "name": "_to",
          "type": "address"
        }
      ],
      "name": "claimTokens",
      "outputs": [],
      "payable": false,
      "stateMutability": "nonpayable",
      "type": "function"
    },
    {
      "constant": true,
      "inputs": [],
      "name": "erc20token",
      "outputs": [
        {
          "name": "",
          "type": "address"
        }
      ],
      "payable": false,
      "stateMutability": "view",
      "type": "function"
    }
  ],
  "bytecode": "0x608060405234801561001057600080fd5b506129db806100206000396000f3006080604052600436106101875763ffffffff60e060020a6000350416631dcea427811461018c57806321d800ec146101bd578063232a2c1d146101e95780632aa2c3811461022f5780632bd0bb0514610270578063392e53cd1461029a5780633dd95d1b146102af5780633e6968b6146102c75780633f0a9f65146102dc578063437764df146102f157806343b37dd31461033b5780634fb3fef71461035057806367eeba0c1461036857806369ffa08a1461037d578063879ce676146103a45780638aa1949a146103bc5780638d068043146103d15780638da5cb5b146103e657806399439089146103fb5780639a454b99146104105780639cb7595a14610425578063a2a6ca2714610466578063acf5c6891461047e578063b20d30a914610496578063bf1fe420146104ae578063c6f6f216146104c6578063df0ad3de146104de578063df25f3f0146104f3578063ea9f496814610508578063f20151e114610520578063f2fde38b14610538578063f968adbe14610559578063fe173b971461056e575b600080fd5b34801561019857600080fd5b506101a1610583565b60408051600160a060020a039092168252519081900360200190f35b3480156101c957600080fd5b506101d5600435610641565b604080519115158252519081900360200190f35b3480156101f557600080fd5b5061022d602460048035828101929082013591813580830192908201359160443580830192908201359160643591820191013561070a565b005b34801561023b57600080fd5b506101d5600160a060020a0360043581169060243581169060443590606435906084359060a4359060c4359060e435166108e3565b34801561027c57600080fd5b50610288600435610e6a565b60408051918252519081900360200190f35b3480156102a657600080fd5b506101d5610f27565b3480156102bb57600080fd5b5061022d600435610fdf565b3480156102d357600080fd5b506102886110e1565b3480156102e857600080fd5b506102886110ea565b3480156102fd57600080fd5b5061030661119e565b604080517fffffffff000000000000000000000000000000000000000000000000000000009092168252519081900360200190f35b34801561034757600080fd5b50610288611241565b34801561035c57600080fd5b506102886004356112b4565b34801561037457600080fd5b5061028861132f565b34801561038957600080fd5b5061022d600160a060020a03600435811690602435166113a2565b3480156103b057600080fd5b506101d56004356113ec565b3480156103c857600080fd5b50610288611436565b3480156103dd57600080fd5b506102886114a9565b3480156103f257600080fd5b506101a1611521565b34801561040757600080fd5b506101a1611595565b34801561041c57600080fd5b50610288611609565b34801561043157600080fd5b5061043a61167c565b6040805167ffffffffffffffff9485168152928416602084015292168183015290519081900360600190f35b34801561047257600080fd5b5061022d600435611686565b34801561048a57600080fd5b5061022d60043561177d565b3480156104a257600080fd5b5061022d60043561188c565b3480156104ba57600080fd5b5061022d60043561198e565b3480156104d257600080fd5b5061022d600435611a9d565b3480156104ea57600080fd5b506101a1611b3e565b3480156104ff57600080fd5b50610288611b7e565b34801561051457600080fd5b506101d5600435611bf1565b34801561052c57600080fd5b5061022d600435611c41565b34801561054457600080fd5b5061022d600160a060020a0360043516611ce2565b34801561056557600080fd5b50610288611d1f565b34801561057a57600080fd5b50610288611d92565b60006002600060405160200180807f6572633230746f6b656e00000000000000000000000000000000000000000000815250600a0190506040516020818303038152906040526040518082805190602001908083835b602083106105f85780518252601f1990920191602091820191016105d9565b51815160209384036101000a6000190180199092169116179052604080519290940182900390912086528501959095529290920160002054600160a060020a0316949350505050565b6000600460008360405160200180807f72656c617965644d657373616765730000000000000000000000000000000000815250600f0182600019166000191681526020019150506040516020818303038152906040526040518082805190602001908083835b602083106106c65780518252601f1990920191602091820191016106a7565b51815160209384036101000a600019018019909216911617905260408051929094018290039091208652850195909552929092016000205460ff1695945050505050565b6000806000806107e286868080601f0160208091040260200160405190810160405280939291908181526020018383808284378201915050505050508d8d808060200260200160405190810160405280939291908181526020018383602002808284378201915050505050508c8c808060200260200160405190810160405280939291908181526020018383602002808284378201915050505050508b8b80806020026020016040519081016040528093929190818152602001838360200280828437506107dd94506115959350505050565b611e05565b61081b86868080601f01602080910402602001604051908101604052809392919081815260200183838082843750612072945050505050565b9296509094509250905061082e836120b8565b156108ca57600160a060020a038116301461084857600080fd5b61085182610641565b1561085b57600080fd5b6108668260016120c9565b61087184848461219b565b151561087c57600080fd5b60408051600160a060020a03861681526020810185905280820184905290517f4ab7d581336d92edbea22636a613e8e76c99ac7f91137c1523db38dbfb3bf3299181900360600190a16108d5565b6108d5848484610187565b505050505050505050505050565b60006108ed610f27565b156108f757600080fd5b600160a060020a0389161580159061091357506109138961225a565b151561091e57600080fd5b86151561092a57600080fd5b6000861161093757600080fd5b83831061094357600080fd5b600160a060020a038216151561095857600080fd5b886002600060405160200180807f76616c696461746f72436f6e747261637400000000000000000000000000000081525060110190506040516020818303038152906040526040518082805190602001908083835b602083106109cc5780518252601f1990920191602091820191016109ad565b51815160209384036101000a60001901801990921691161790526040805192909401829003909120865285019590955292909201600020805473ffffffffffffffffffffffffffffffffffffffff1916600160a060020a03959095169490941790935550610a3d9150899050612262565b4360008060405160200180807f6465706c6f7965644174426c6f636b0000000000000000000000000000000000815250600f0190506040516020818303038152906040526040518082805190602001908083835b60208310610ab05780518252601f199092019160209182019101610a91565b51815160209384036101000a6000190180199092169116179052604080519290940182900390912086528581019690965250928301600090812095909555505080517f7265717569726564426c6f636b436f6e6669726d6174696f6e73000000000000818401528151601a818303018152603a9091019182905280518b949384939182918401908083835b60208310610b5a5780518252601f199092019160209182019101610b3b565b51815160209384036101000a6000190180199092169116179052604080519290940182900390912086528581019690965250928301600090812095909555505080517f6761735072696365000000000000000000000000000000000000000000000000818401528151600881830301815260289091019182905280518a949384939182918401908083835b60208310610c045780518252601f199092019160209182019101610be5565b51815160209384036101000a6000190180199092169116179052604080519290940182900390912086528581019690965250928301600090812095909555505080517f6d617850657254780000000000000000000000000000000000000000000000008184015281516008818303018152602890910191829052805189949384939182918401908083835b60208310610cae5780518252601f199092019160209182019101610c8f565b51815160209384036101000a6000190180199092169116179052604080519290940182900390912086528581019690965250928301600090812095909555505080517f657865637574696f6e4461696c794c696d6974000000000000000000000000008184015281516013818303018152603390910191829052805188949384939182918401908083835b60208310610d585780518252601f199092019160209182019101610d39565b51815160209384036101000a6000190180199092169116179052604080519290940182900390912086528581019690965250928301600090812095909555505080517f657865637574696f6e4d617850657254780000000000000000000000000000008184015281516011818303018152603190910191829052805187949384939182918401908083835b60208310610e025780518252601f199092019160209182019101610de3565b51815160209384036101000a600019018019909216911617905260408051929094018290039091208652850195909552929092016000209390935550610e4b9150839050612366565b610e556001612424565b610e5d610f27565b9998505050505050505050565b60008060008360405160200180807f746f74616c5370656e74506572446179000000000000000000000000000000008152506010018281526020019150506040516020818303038152906040526040518082805190602001908083835b60208310610ee65780518252601f199092019160209182019101610ec7565b51815160209384036101000a600019018019909216911617905260408051929094018290039091208652850195909552929092016000205495945050505050565b60006004600060405160200180807f6973496e697469616c697a656400000000000000000000000000000000000000815250600d0190506040516020818303038152906040526040518082805190602001908083835b60208310610f9c5780518252601f199092019160209182019101610f7d565b51815160209384036101000a600019018019909216911617905260408051929094018290039091208652850195909552929092016000205460ff16949350505050565b610fe7611521565b600160a060020a03163314610ffb57600080fd5b8060008060405160200180807f657865637574696f6e4461696c794c696d69740000000000000000000000000081525060130190506040516020818303038152906040526040518082805190602001908083835b6020831061106e5780518252601f19909201916020918201910161104f565b51815160001960209485036101000a019081169019919091161790526040805194909201849003909320865285830196909652509284016000209490945550815184815291517f9bebf928b90863f24cc31f726a3a7545efd409f1dcf552301b1ee3710da70d3b9350918290030190a150565b62015180420490565b600080600060405160200180807f7265717569726564426c6f636b436f6e6669726d6174696f6e73000000000000815250601a0190506040516020818303038152906040526040518082805190602001908083835b6020831061115e5780518252601f19909201916020918201910161113f565b51815160209384036101000a6000190180199092169116179052604080519290940182900390912086528501959095529290920160002054949350505050565b600060405160200180807f6572632d746f2d6e61746976652d636f7265000000000000000000000000000081525060120190506040516020818303038152906040526040518082805190602001908083835b6020831061120f5780518252601f1990920191602091820191016111f0565b6001836020036101000a0380198251168184511680821785525050505050509050019150506040518091039020905090565b600080600060405160200180807f657865637574696f6e4461696c794c696d69740000000000000000000000000081525060130190506040516020818303038152906040526040518082805190602001908083836020831061115e5780518252601f19909201916020918201910161113f565b60008060008360405160200180807f746f74616c45786563757465645065724461790000000000000000000000000081525060130182815260200191505060405160208183030381529060405260405180828051906020019080838360208310610ee65780518252601f199092019160209182019101610ec7565b600080600060405160200180807f6461696c794c696d697400000000000000000000000000000000000000000000815250600a0190506040516020818303038152906040526040518082805190602001908083836020831061115e5780518252601f19909201916020918201910161113f565b6113aa611b3e565b600160a060020a031633146113be57600080fd5b6113c6610583565b600160a060020a03838116911614156113de57600080fd5b6113e882826124e5565b5050565b60008061140f836114036113fe6110e1565b6112b4565b9063ffffffff6126a116565b90508061141a611241565b1015801561142f575061142b611436565b8311155b9392505050565b600080600060405160200180807f657865637574696f6e4d6178506572547800000000000000000000000000000081525060110190506040516020818303038152906040526040518082805190602001908083836020831061115e5780518252601f19909201916020918201910161113f565b60006114b3611595565b600160a060020a0316638d0680436040518163ffffffff1660e060020a028152600401602060405180830381600087803b1580156114f057600080fd5b505af1158015611504573d6000803e3d6000fd5b505050506040513d602081101561151a57600080fd5b5051905090565b60006002600060405160200180807f6f776e65720000000000000000000000000000000000000000000000000000008152506005019050604051602081830303815290604052604051808280519060200190808383602083106105f85780518252601f1990920191602091820191016105d9565b60006002600060405160200180807f76616c696461746f72436f6e74726163740000000000000000000000000000008152506011019050604051602081830303815290604052604051808280519060200190808383602083106105f85780518252601f1990920191602091820191016105d9565b600080600060405160200180807f6465706c6f7965644174426c6f636b0000000000000000000000000000000000815250600f0190506040516020818303038152906040526040518082805190602001908083836020831061115e5780518252601f19909201916020918201910161113f565b6002806000909192565b61168e611521565b600160a060020a031633146116a257600080fd5b6116aa61132f565b811080156116be57506116bb611d1f565b81105b15156116c957600080fd5b8060008060405160200180807f6d696e506572547800000000000000000000000000000000000000000000000081525060080190506040516020818303038152906040526040518082805190602001908083835b6020831061173c5780518252601f19909201916020918201910161171d565b51815160209384036101000a600019018019909216911617905260408051929094018290039091208652850195909552929092016000209390935550505050565b611785611521565b600160a060020a0316331461179957600080fd5b600081116117a657600080fd5b8060008060405160200180807f7265717569726564426c6f636b436f6e6669726d6174696f6e73000000000000815250601a0190506040516020818303038152906040526040518082805190602001908083835b602083106118195780518252601f1990920191602091820191016117fa565b51815160001960209485036101000a019081169019919091161790526040805194909201849003909320865285830196909652509284016000209490945550815184815291517f4fb76205cd57c896b21511d2114137d8e901b4ccd659e1a0f97d6306795264fb9350918290030190a150565b611894611521565b600160a060020a031633146118a857600080fd5b8060008060405160200180807f6461696c794c696d697400000000000000000000000000000000000000000000815250600a0190506040516020818303038152906040526040518082805190602001908083835b6020831061191b5780518252601f1990920191602091820191016118fc565b51815160001960209485036101000a019081169019919091161790526040805194909201849003909320865285830196909652509284016000209490945550815184815291517fad4123ae17c414d9c6d2fec478b402e6b01856cc250fd01fbfd252fda0089d3c9350918290030190a150565b611996611521565b600160a060020a031633146119aa57600080fd5b600081116119b757600080fd5b8060008060405160200180807f676173507269636500000000000000000000000000000000000000000000000081525060080190506040516020818303038152906040526040518082805190602001908083835b60208310611a2a5780518252601f199092019160209182019101611a0b565b51815160001960209485036101000a019081169019919091161790526040805194909201849003909320865285830196909652509284016000209490945550815184815291517f52264b89e0fceafb26e79fd49ef8a366eb6297483bf4035b027f0c99a7ad512e9350918290030190a150565b611aa5611521565b600160a060020a03163314611ab957600080fd5b611ac161132f565b8110611acc57600080fd5b8060008060405160200180807f6d6178506572547800000000000000000000000000000000000000000000000081525060080190506040516020818303038152906040526040518082805190602001908083836020831061173c5780518252601f19909201916020918201910161171d565b600030600160a060020a031663025313a26040518163ffffffff1660e060020a028152600401602060405180830381600087803b1580156114f057600080fd5b600080600060405160200180807f6d696e506572547800000000000000000000000000000000000000000000000081525060080190506040516020818303038152906040526040518082805190602001908083836020831061115e5780518252601f19909201916020918201910161113f565b600080611c0883611403611c036110e1565b610e6a565b905080611c1361132f565b10158015611c285750611c24611d1f565b8311155b801561142f5750611c37611b7e565b9092101592915050565b611c49611521565b600160a060020a03163314611c5d57600080fd5b611c65611241565b8110611c7057600080fd5b8060008060405160200180807f657865637574696f6e4d6178506572547800000000000000000000000000000081525060110190506040516020818303038152906040526040518082805190602001908083836020831061173c5780518252601f19909201916020918201910161171d565b611cea611521565b600160a060020a03163314611cfe57600080fd5b600160a060020a0381161515611d1357600080fd5b611d1c81612366565b50565b600080600060405160200180807f6d6178506572547800000000000000000000000000000000000000000000000081525060080190506040516020818303038152906040526040518082805190602001908083836020831061115e5780518252601f19909201916020918201910161113f565b600080600060405160200180807f676173507269636500000000000000000000000000000000000000000000000081525060080190506040516020818303038152906040526040518082805190602001908083836020831061115e5780518252601f19909201916020918201910161113f565b6000806060600080611e168a6126bb565b1515611e2157600080fd5b85600160a060020a0316638d0680436040518163ffffffff1660e060020a028152600401602060405180830381600087803b158015611e5f57600080fd5b505af1158015611e73573d6000803e3d6000fd5b505050506040513d6020811015611e8957600080fd5b50518951909550851115611e9c57600080fd5b611ea58a6126cf565b935084604051908082528060200260200182016040528015611ed1578160200160208202803883390190505b509250600091505b84821015612066576001848a84815181101515611ef257fe5b906020019060200201518a85815181101515611f0a57fe5b906020019060200201518a86815181101515611f2257fe5b60209081029091018101516040805160008082528185018084529790975260ff9095168582015260608501939093526080840152905160a0808401949293601f19830193908390039091019190865af1158015611f83573d6000803e3d6000fd5b50505060206040510351905085600160a060020a031663facd743b826040518263ffffffff1660e060020a0281526004018082600160a060020a0316600160a060020a03168152602001915050602060405180830381600087803b158015611fea57600080fd5b505af1158015611ffe573d6000803e3d6000fd5b505050506040513d602081101561201457600080fd5b5051151561202157600080fd5b61202b8382612894565b1561203557600080fd5b80838381518110151561204457fe5b600160a060020a03909216602092830290910190910152600190910190611ed9565b50505050505050505050565b600080600080612081856126bb565b151561208c57600080fd5b600160a060020a0360148601511693506034850151925060548501519150606885015190509193509193565b60006120c3826113ec565b92915050565b80600460008460405160200180807f72656c617965644d657373616765730000000000000000000000000000000000815250600f0182600019166000191681526020019150506040516020818303038152906040526040518082805190602001908083835b6020831061214d5780518252601f19909201916020918201910161212e565b51815160209384036101000a60001901801990921691161790526040805192909401829003909120865285019590955292909201600020805460ff1916941515949094179093555050505050565b60006121bc6121a86110e1565b6121b7856114036113fe6110e1565b6128ed565b6121c4610583565b600160a060020a031663a9059cbb85856040518363ffffffff1660e060020a0281526004018083600160a060020a0316600160a060020a0316815260200182815260200192505050602060405180830381600087803b15801561222657600080fd5b505af115801561223a573d6000803e3d6000fd5b505050506040513d602081101561225057600080fd5b5051949350505050565b6000903b1190565b600160a060020a0381161580159061227e575061227e8161225a565b151561228957600080fd5b806002600060405160200180807f6572633230746f6b656e00000000000000000000000000000000000000000000815250600a0190506040516020818303038152906040526040518082805190602001908083835b602083106122fd5780518252601f1990920191602091820191016122de565b51815160209384036101000a60001901801990921691161790526040805192909401829003909120865285019590955292909201600020805473ffffffffffffffffffffffffffffffffffffffff1916600160a060020a03959095169490941790935550505050565b7f8be0079c531659141344cd1fd0a4f28419497f9722a3daafe3b4186f6b6457e061238f611521565b60408051600160a060020a03928316815291841660208301528051918290030190a1806002600060405160200180807f6f776e65720000000000000000000000000000000000000000000000000000008152506005019050604051602081830303815290604052604051808280519060200190808383602083106122fd5780518252601f1990920191602091820191016122de565b806004600060405160200180807f6973496e697469616c697a656400000000000000000000000000000000000000815250600d0190506040516020818303038152906040526040518082805190602001908083835b602083106124985780518252601f199092019160209182019101612479565b51815160209384036101000a60001901801990921691161790526040805192909401829003909120865285019590955292909201600020805460ff19169415159490941790935550505050565b6000806124f0611b3e565b600160a060020a0316331461250457600080fd5b600160a060020a038316151561251957600080fd5b600160a060020a038416151561256557604051600160a060020a03841690303180156108fc02916000818181858888f1935050505015801561255f573d6000803e3d6000fd5b5061269b565b604080517f70a082310000000000000000000000000000000000000000000000000000000081523060048201529051859350600160a060020a038416916370a082319160248083019260209291908290030181600087803b1580156125c957600080fd5b505af11580156125dd573d6000803e3d6000fd5b505050506040513d60208110156125f357600080fd5b5051604080517fa9059cbb000000000000000000000000000000000000000000000000000000008152600160a060020a0386811660048301526024820184905291519293509084169163a9059cbb916044808201926020929091908290030181600087803b15801561266457600080fd5b505af1158015612678573d6000803e3d6000fd5b505050506040513d602081101561268e57600080fd5b5051151561269b57600080fd5b50505050565b6000828201838110156126b057fe5b8091505b5092915050565b60006126c56129aa565b8251149050919050565b604080518082018252601a81527f19457468657265756d205369676e6564204d6573736167653a0a000000000000602080830191825283518085018552600381527f313034000000000000000000000000000000000000000000000000000000000081830152935183516000959385938593899391019182918083835b6020831061276b5780518252601f19909201916020918201910161274c565b51815160209384036101000a600019018019909216911617905286519190930192860191508083835b602083106127b35780518252601f199092019160209182019101612794565b51815160209384036101000a600019018019909216911617905285519190930192850191508083835b602083106127fb5780518252601f1990920191602091820191016127dc565b6001836020036101000a03801982511681845116808217855250505050505090500193505050506040516020818303038152906040526040518082805190602001908083835b602083106128605780518252601f199092019160209182019101612841565b5181516020939093036101000a60001901801990911692169190911790526040519201829003909120979650505050505050565b6000805b83518110156128e35782600160a060020a031684828151811015156128b957fe5b90602001906020020151600160a060020a031614156128db57600191506126b4565b600101612898565b5060009392505050565b806000808460405160200180807f746f74616c4578656375746564506572446179000000000000000000000000008152506013018281526020019150506040516020818303038152906040526040518082805190602001908083835b602083106129685780518252601f199092019160209182019101612949565b51815160209384036101000a60001901801990921691161790526040805192909401829003909120865285019590955292909201600020939093555050505050565b6068905600a165627a7a72305820847503e054a929f97ab8dac2edebc1d02453c819b50ea0430bf13bd61ca3c1d20029",
  "source": "pragma solidity 0.4.24;\nimport \"../../libraries/SafeMath.sol\";\nimport \"../../libraries/Message.sol\";\nimport \"../BasicBridge.sol\";\nimport \"../BasicForeignBridge.sol\";\nimport \"../../IBurnableMintableERC677Token.sol\";\nimport \"../../ERC677Receiver.sol\";\nimport \"openzeppelin-solidity/contracts/token/ERC20/ERC20Basic.sol\";\n\n\ncontract ForeignBridgeErcToNative is BasicBridge, BasicForeignBridge {\n    event RelayedMessage(address recipient, uint value, bytes32 transactionHash);\n\n    function initialize(\n        address _validatorContract,\n        address _erc20token,\n        uint256 _requiredBlockConfirmations,\n        uint256 _gasPrice,\n        uint256 _maxPerTx,\n        uint256 _homeDailyLimit,\n        uint256 _homeMaxPerTx,\n        address _owner\n    ) public returns(bool) {\n        require(!isInitialized());\n        require(_validatorContract != address(0) && isContract(_validatorContract));\n        require(_requiredBlockConfirmations != 0);\n        require(_gasPrice > 0);\n        require(_homeMaxPerTx < _homeDailyLimit);\n        require(_owner != address(0));\n        addressStorage[keccak256(abi.encodePacked(\"validatorContract\"))] = _validatorContract;\n        setErc20token(_erc20token);\n        uintStorage[keccak256(abi.encodePacked(\"deployedAtBlock\"))] = block.number;\n        uintStorage[keccak256(abi.encodePacked(\"requiredBlockConfirmations\"))] = _requiredBlockConfirmations;\n        uintStorage[keccak256(abi.encodePacked(\"gasPrice\"))] = _gasPrice;\n        uintStorage[keccak256(abi.encodePacked(\"maxPerTx\"))] = _maxPerTx;\n        uintStorage[keccak256(abi.encodePacked(\"executionDailyLimit\"))] = _homeDailyLimit;\n        uintStorage[keccak256(abi.encodePacked(\"executionMaxPerTx\"))] = _homeMaxPerTx;\n        setOwner(_owner);\n        setInitialize(true);\n        return isInitialized();\n    }\n\n    function getBridgeMode() public pure returns(bytes4 _data) {\n        return bytes4(keccak256(abi.encodePacked(\"erc-to-native-core\")));\n    }\n\n    function claimTokens(address _token, address _to) public onlyIfOwnerOfProxy {\n        require(_token != address(erc20token()));\n        super.claimTokens(_token, _to);\n    }\n\n    function erc20token() public view returns(ERC20Basic) {\n        return ERC20Basic(addressStorage[keccak256(abi.encodePacked(\"erc20token\"))]);\n    }\n\n    function onExecuteMessage(address _recipient, uint256 _amount, bytes32 _txHash) internal returns(bool) {\n        setTotalExecutedPerDay(getCurrentDay(), totalExecutedPerDay(getCurrentDay()).add(_amount));\n        return erc20token().transfer(_recipient, _amount);\n    }\n\n    function setErc20token(address _token) private {\n        require(_token != address(0) && isContract(_token));\n        addressStorage[keccak256(abi.encodePacked(\"erc20token\"))] = _token;\n    }\n\n    function messageWithinLimits(uint256 _amount) internal view returns(bool) {\n        return withinExecutionLimit(_amount);\n    }\n\n    function onFailedMessage(address, uint256, bytes32) internal {\n        revert();\n    }\n}\n",
  "sourcePath": "/Users/fbranci/iexecdev/vivani/tokenbridge/contracts/contracts/upgradeable_contracts/erc20_to_native/ForeignBridgeErcToNative.sol",
  "compiler": {
    "name": "solc",
    "version": "0.4.24+commit.e67f0147.Emscripten.clang"
  },
  "schemaVersion": "3.0.13",
  "updatedAt": "2019-08-28T14:04:53.307Z",
  "devdoc": {
    "methods": {
      "owner()": {
        "details": "Tells the address of the owner",
        "return": "the address of the owner"
      },
      "transferOwnership(address)": {
        "details": "Allows the current owner to transfer control of the contract to a newOwner.",
        "params": {
          "newOwner": "the address to transfer ownership to."
        }
      }
    }
  },
  "userdoc": {
    "methods": {}
  }
}