{
  "contractName": "ForeignBridgeErcToErc",
  "abi": [
    {
      "constant": true,
      "inputs": [
        {
          "name": "_txHash",
          "type": "bytes32"
        }
      ],
      "name": "relayedMessages",
      "outputs": [
        {
          "name": "",
          "type": "bool"
        }
      ],
      "payable": false,
      "stateMutability": "view",
      "type": "function"
    },
    {
      "constant": false,
      "inputs": [
        {
          "name": "vs",
          "type": "uint8[]"
        },
        {
          "name": "rs",
          "type": "bytes32[]"
        },
        {
          "name": "ss",
          "type": "bytes32[]"
        },
        {
          "name": "message",
          "type": "bytes"
        }
      ],
      "name": "executeSignatures",
      "outputs": [],
      "payable": false,
      "stateMutability": "nonpayable",
      "type": "function"
    },
    {
      "constant": true,
      "inputs": [
        {
          "name": "_day",
          "type": "uint256"
        }
      ],
      "name": "totalSpentPerDay",
      "outputs": [
        {
          "name": "",
          "type": "uint256"
        }
      ],
      "payable": false,
      "stateMutability": "view",
      "type": "function"
    },
    {
      "constant": true,
      "inputs": [],
      "name": "isInitialized",
      "outputs": [
        {
          "name": "",
          "type": "bool"
        }
      ],
      "payable": false,
      "stateMutability": "view",
      "type": "function"
    },
    {
      "constant": false,
      "inputs": [
        {
          "name": "_dailyLimit",
          "type": "uint256"
        }
      ],
      "name": "setExecutionDailyLimit",
      "outputs": [],
      "payable": false,
      "stateMutability": "nonpayable",
      "type": "function"
    },
    {
      "constant": true,
      "inputs": [],
      "name": "getCurrentDay",
      "outputs": [
        {
          "name": "",
          "type": "uint256"
        }
      ],
      "payable": false,
      "stateMutability": "view",
      "type": "function"
    },
    {
      "constant": true,
      "inputs": [],
      "name": "requiredBlockConfirmations",
      "outputs": [
        {
          "name": "",
          "type": "uint256"
        }
      ],
      "payable": false,
      "stateMutability": "view",
      "type": "function"
    },
    {
      "constant": true,
      "inputs": [],
      "name": "getBridgeMode",
      "outputs": [
        {
          "name": "_data",
          "type": "bytes4"
        }
      ],
      "payable": false,
      "stateMutability": "pure",
      "type": "function"
    },
    {
      "constant": true,
      "inputs": [],
      "name": "executionDailyLimit",
      "outputs": [
        {
          "name": "",
          "type": "uint256"
        }
      ],
      "payable": false,
      "stateMutability": "view",
      "type": "function"
    },
    {
      "constant": true,
      "inputs": [
        {
          "name": "_day",
          "type": "uint256"
        }
      ],
      "name": "totalExecutedPerDay",
      "outputs": [
        {
          "name": "",
          "type": "uint256"
        }
      ],
      "payable": false,
      "stateMutability": "view",
      "type": "function"
    },
    {
      "constant": true,
      "inputs": [],
      "name": "dailyLimit",
      "outputs": [
        {
          "name": "",
          "type": "uint256"
        }
      ],
      "payable": false,
      "stateMutability": "view",
      "type": "function"
    },
    {
      "constant": false,
      "inputs": [
        {
          "name": "_token",
          "type": "address"
        },
        {
          "name": "_to",
          "type": "address"
        }
      ],
      "name": "claimTokens",
      "outputs": [],
      "payable": false,
      "stateMutability": "nonpayable",
      "type": "function"
    },
    {
      "constant": true,
      "inputs": [
        {
          "name": "_amount",
          "type": "uint256"
        }
      ],
      "name": "withinExecutionLimit",
      "outputs": [
        {
          "name": "",
          "type": "bool"
        }
      ],
      "payable": false,
      "stateMutability": "view",
      "type": "function"
    },
    {
      "constant": true,
      "inputs": [],
      "name": "executionMaxPerTx",
      "outputs": [
        {
          "name": "",
          "type": "uint256"
        }
      ],
      "payable": false,
      "stateMutability": "view",
      "type": "function"
    },
    {
      "constant": true,
      "inputs": [],
      "name": "requiredSignatures",
      "outputs": [
        {
          "name": "",
          "type": "uint256"
        }
      ],
      "payable": false,
      "stateMutability": "view",
      "type": "function"
    },
    {
      "constant": true,
      "inputs": [],
      "name": "owner",
      "outputs": [
        {
          "name": "",
          "type": "address"
        }
      ],
      "payable": false,
      "stateMutability": "view",
      "type": "function"
    },
    {
      "constant": true,
      "inputs": [],
      "name": "validatorContract",
      "outputs": [
        {
          "name": "",
          "type": "address"
        }
      ],
      "payable": false,
      "stateMutability": "view",
      "type": "function"
    },
    {
      "constant": true,
      "inputs": [],
      "name": "deployedAtBlock",
      "outputs": [
        {
          "name": "",
          "type": "uint256"
        }
      ],
      "payable": false,
      "stateMutability": "view",
      "type": "function"
    },
    {
      "constant": true,
      "inputs": [],
      "name": "getBridgeInterfacesVersion",
      "outputs": [
        {
          "name": "major",
          "type": "uint64"
        },
        {
          "name": "minor",
          "type": "uint64"
        },
        {
          "name": "patch",
          "type": "uint64"
        }
      ],
      "payable": false,
      "stateMutability": "pure",
      "type": "function"
    },
    {
      "constant": false,
      "inputs": [
        {
          "name": "_minPerTx",
          "type": "uint256"
        }
      ],
      "name": "setMinPerTx",
      "outputs": [],
      "payable": false,
      "stateMutability": "nonpayable",
      "type": "function"
    },
    {
      "constant": false,
      "inputs": [
        {
          "name": "_blockConfirmations",
          "type": "uint256"
        }
      ],
      "name": "setRequiredBlockConfirmations",
      "outputs": [],
      "payable": false,
      "stateMutability": "nonpayable",
      "type": "function"
    },
    {
      "constant": false,
      "inputs": [
        {
          "name": "_dailyLimit",
          "type": "uint256"
        }
      ],
      "name": "setDailyLimit",
      "outputs": [],
      "payable": false,
      "stateMutability": "nonpayable",
      "type": "function"
    },
    {
      "constant": false,
      "inputs": [
        {
          "name": "_gasPrice",
          "type": "uint256"
        }
      ],
      "name": "setGasPrice",
      "outputs": [],
      "payable": false,
      "stateMutability": "nonpayable",
      "type": "function"
    },
    {
      "constant": false,
      "inputs": [
        {
          "name": "_maxPerTx",
          "type": "uint256"
        }
      ],
      "name": "setMaxPerTx",
      "outputs": [],
      "payable": false,
      "stateMutability": "nonpayable",
      "type": "function"
    },
    {
      "constant": true,
      "inputs": [],
      "name": "upgradeabilityAdmin",
      "outputs": [
        {
          "name": "",
          "type": "address"
        }
      ],
      "payable": false,
      "stateMutability": "view",
      "type": "function"
    },
    {
      "constant": true,
      "inputs": [],
      "name": "minPerTx",
      "outputs": [
        {
          "name": "",
          "type": "uint256"
        }
      ],
      "payable": false,
      "stateMutability": "view",
      "type": "function"
    },
    {
      "constant": true,
      "inputs": [
        {
          "name": "_amount",
          "type": "uint256"
        }
      ],
      "name": "withinLimit",
      "outputs": [
        {
          "name": "",
          "type": "bool"
        }
      ],
      "payable": false,
      "stateMutability": "view",
      "type": "function"
    },
    {
      "constant": false,
      "inputs": [
        {
          "name": "_maxPerTx",
          "type": "uint256"
        }
      ],
      "name": "setExecutionMaxPerTx",
      "outputs": [],
      "payable": false,
      "stateMutability": "nonpayable",
      "type": "function"
    },
    {
      "constant": false,
      "inputs": [
        {
          "name": "newOwner",
          "type": "address"
        }
      ],
      "name": "transferOwnership",
      "outputs": [],
      "payable": false,
      "stateMutability": "nonpayable",
      "type": "function"
    },
    {
      "constant": true,
      "inputs": [],
      "name": "maxPerTx",
      "outputs": [
        {
          "name": "",
          "type": "uint256"
        }
      ],
      "payable": false,
      "stateMutability": "view",
      "type": "function"
    },
    {
      "constant": true,
      "inputs": [],
      "name": "gasPrice",
      "outputs": [
        {
          "name": "",
          "type": "uint256"
        }
      ],
      "payable": false,
      "stateMutability": "view",
      "type": "function"
    },
    {
      "anonymous": false,
      "inputs": [
        {
          "indexed": false,
          "name": "recipient",
          "type": "address"
        },
        {
          "indexed": false,
          "name": "value",
          "type": "uint256"
        },
        {
          "indexed": false,
          "name": "transactionHash",
          "type": "bytes32"
        }
      ],
      "name": "RelayedMessage",
      "type": "event"
    },
    {
      "anonymous": false,
      "inputs": [
        {
          "indexed": false,
          "name": "gasPrice",
          "type": "uint256"
        }
      ],
      "name": "GasPriceChanged",
      "type": "event"
    },
    {
      "anonymous": false,
      "inputs": [
        {
          "indexed": false,
          "name": "requiredBlockConfirmations",
          "type": "uint256"
        }
      ],
      "name": "RequiredBlockConfirmationChanged",
      "type": "event"
    },
    {
      "anonymous": false,
      "inputs": [
        {
          "indexed": false,
          "name": "newLimit",
          "type": "uint256"
        }
      ],
      "name": "DailyLimitChanged",
      "type": "event"
    },
    {
      "anonymous": false,
      "inputs": [
        {
          "indexed": false,
          "name": "newLimit",
          "type": "uint256"
        }
      ],
      "name": "ExecutionDailyLimitChanged",
      "type": "event"
    },
    {
      "anonymous": false,
      "inputs": [
        {
          "indexed": false,
          "name": "previousOwner",
          "type": "address"
        },
        {
          "indexed": false,
          "name": "newOwner",
          "type": "address"
        }
      ],
      "name": "OwnershipTransferred",
      "type": "event"
    },
    {
      "constant": false,
      "inputs": [
        {
          "name": "_validatorContract",
          "type": "address"
        },
        {
          "name": "_erc20token",
          "type": "address"
        },
        {
          "name": "_requiredBlockConfirmations",
          "type": "uint256"
        },
        {
          "name": "_gasPrice",
          "type": "uint256"
        },
        {
          "name": "_maxPerTx",
          "type": "uint256"
        },
        {
          "name": "_homeDailyLimit",
          "type": "uint256"
        },
        {
          "name": "_homeMaxPerTx",
          "type": "uint256"
        },
        {
          "name": "_owner",
          "type": "address"
        }
      ],
      "name": "initialize",
      "outputs": [
        {
          "name": "",
          "type": "bool"
        }
      ],
      "payable": false,
      "stateMutability": "nonpayable",
      "type": "function"
    },
    {
      "constant": true,
      "inputs": [],
      "name": "erc20token",
      "outputs": [
        {
          "name": "",
          "type": "address"
        }
      ],
      "payable": false,
      "stateMutability": "view",
      "type": "function"
    }
  ],
  "bytecode": "0x608060405234801561001057600080fd5b506129f5806100206000396000f3006080604052600436106101875763ffffffff60e060020a6000350416631dcea427811461018c57806321d800ec146101bd578063232a2c1d146101e95780632aa2c3811461022f5780632bd0bb0514610270578063392e53cd1461029a5780633dd95d1b146102af5780633e6968b6146102c75780633f0a9f65146102dc578063437764df146102f157806343b37dd31461033b5780634fb3fef71461035057806367eeba0c1461036857806369ffa08a1461037d578063879ce676146103a45780638aa1949a146103bc5780638d068043146103d15780638da5cb5b146103e657806399439089146103fb5780639a454b99146104105780639cb7595a14610425578063a2a6ca2714610466578063acf5c6891461047e578063b20d30a914610496578063bf1fe420146104ae578063c6f6f216146104c6578063df0ad3de146104de578063df25f3f0146104f3578063ea9f496814610508578063f20151e114610520578063f2fde38b14610538578063f968adbe14610559578063fe173b971461056e575b600080fd5b34801561019857600080fd5b506101a1610583565b60408051600160a060020a039092168252519081900360200190f35b3480156101c957600080fd5b506101d5600435610641565b604080519115158252519081900360200190f35b3480156101f557600080fd5b5061022d602460048035828101929082013591813580830192908201359160443580830192908201359160643591820191013561070a565b005b34801561023b57600080fd5b506101d5600160a060020a0360043581169060243581169060443590606435906084359060a4359060c4359060e435166108e3565b34801561027c57600080fd5b5061028860043561090a565b60408051918252519081900360200190f35b3480156102a657600080fd5b506101d56109c7565b3480156102bb57600080fd5b5061022d600435610a7f565b3480156102d357600080fd5b50610288610b81565b3480156102e857600080fd5b50610288610b8a565b3480156102fd57600080fd5b50610306610c3e565b604080517fffffffff000000000000000000000000000000000000000000000000000000009092168252519081900360200190f35b34801561034757600080fd5b50610288610ce1565b34801561035c57600080fd5b50610288600435610d54565b34801561037457600080fd5b50610288610dcf565b34801561038957600080fd5b5061022d600160a060020a0360043581169060243516610e42565b3480156103b057600080fd5b506101d5600435610e8c565b3480156103c857600080fd5b50610288610ed6565b3480156103dd57600080fd5b50610288610f49565b3480156103f257600080fd5b506101a1610fc1565b34801561040757600080fd5b506101a1611035565b34801561041c57600080fd5b506102886110a9565b34801561043157600080fd5b5061043a61111c565b6040805167ffffffffffffffff9485168152928416602084015292168183015290519081900360600190f35b34801561047257600080fd5b5061022d600435611126565b34801561048a57600080fd5b5061022d60043561121d565b3480156104a257600080fd5b5061022d60043561132c565b3480156104ba57600080fd5b5061022d60043561142e565b3480156104d257600080fd5b5061022d60043561153d565b3480156104ea57600080fd5b506101a16115de565b3480156104ff57600080fd5b5061028861161e565b34801561051457600080fd5b506101d5600435611691565b34801561052c57600080fd5b5061022d6004356116e1565b34801561054457600080fd5b5061022d600160a060020a0360043516611782565b34801561056557600080fd5b506102886117bf565b34801561057a57600080fd5b50610288611832565b60006002600060405160200180807f6572633230746f6b656e00000000000000000000000000000000000000000000815250600a0190506040516020818303038152906040526040518082805190602001908083835b602083106105f85780518252601f1990920191602091820191016105d9565b51815160209384036101000a6000190180199092169116179052604080519290940182900390912086528501959095529290920160002054600160a060020a0316949350505050565b6000600460008360405160200180807f72656c617965644d657373616765730000000000000000000000000000000000815250600f0182600019166000191681526020019150506040516020818303038152906040526040518082805190602001908083835b602083106106c65780518252601f1990920191602091820191016106a7565b51815160209384036101000a600019018019909216911617905260408051929094018290039091208652850195909552929092016000205460ff1695945050505050565b6000806000806107e286868080601f0160208091040260200160405190810160405280939291908181526020018383808284378201915050505050508d8d808060200260200160405190810160405280939291908181526020018383602002808284378201915050505050508c8c808060200260200160405190810160405280939291908181526020018383602002808284378201915050505050508b8b80806020026020016040519081016040528093929190818152602001838360200280828437506107dd94506110359350505050565b6118a5565b61081b86868080601f01602080910402602001604051908101604052809392919081815260200183838082843750611b12945050505050565b9296509094509250905061082e83611b58565b156108ca57600160a060020a038116301461084857600080fd5b61085182610641565b1561085b57600080fd5b610866826001611b69565b610871848484611c3b565b151561087c57600080fd5b60408051600160a060020a03861681526020810185905280820184905290517f4ab7d581336d92edbea22636a613e8e76c99ac7f91137c1523db38dbfb3bf3299181900360600190a16108d5565b6108d5848484610187565b505050505050505050505050565b60006108f58989898989898989611cfa565b6108fd6109c7565b9998505050505050505050565b60008060008360405160200180807f746f74616c5370656e74506572446179000000000000000000000000000000008152506010018281526020019150506040516020818303038152906040526040518082805190602001908083835b602083106109865780518252601f199092019160209182019101610967565b51815160209384036101000a600019018019909216911617905260408051929094018290039091208652850195909552929092016000205495945050505050565b60006004600060405160200180807f6973496e697469616c697a656400000000000000000000000000000000000000815250600d0190506040516020818303038152906040526040518082805190602001908083835b60208310610a3c5780518252601f199092019160209182019101610a1d565b51815160209384036101000a600019018019909216911617905260408051929094018290039091208652850195909552929092016000205460ff16949350505050565b610a87610fc1565b600160a060020a03163314610a9b57600080fd5b8060008060405160200180807f657865637574696f6e4461696c794c696d69740000000000000000000000000081525060130190506040516020818303038152906040526040518082805190602001908083835b60208310610b0e5780518252601f199092019160209182019101610aef565b51815160001960209485036101000a019081169019919091161790526040805194909201849003909320865285830196909652509284016000209490945550815184815291517f9bebf928b90863f24cc31f726a3a7545efd409f1dcf552301b1ee3710da70d3b9350918290030190a150565b62015180420490565b600080600060405160200180807f7265717569726564426c6f636b436f6e6669726d6174696f6e73000000000000815250601a0190506040516020818303038152906040526040518082805190602001908083835b60208310610bfe5780518252601f199092019160209182019101610bdf565b51815160209384036101000a6000190180199092169116179052604080519290940182900390912086528501959095529290920160002054949350505050565b600060405160200180807f6572632d746f2d6572632d636f72650000000000000000000000000000000000815250600f0190506040516020818303038152906040526040518082805190602001908083835b60208310610caf5780518252601f199092019160209182019101610c90565b6001836020036101000a0380198251168184511680821785525050505050509050019150506040518091039020905090565b600080600060405160200180807f657865637574696f6e4461696c794c696d697400000000000000000000000000815250601301905060405160208183030381529060405260405180828051906020019080838360208310610bfe5780518252601f199092019160209182019101610bdf565b60008060008360405160200180807f746f74616c457865637574656450657244617900000000000000000000000000815250601301828152602001915050604051602081830303815290604052604051808280519060200190808383602083106109865780518252601f199092019160209182019101610967565b600080600060405160200180807f6461696c794c696d697400000000000000000000000000000000000000000000815250600a01905060405160208183030381529060405260405180828051906020019080838360208310610bfe5780518252601f199092019160209182019101610bdf565b610e4a6115de565b600160a060020a03163314610e5e57600080fd5b610e66610583565b600160a060020a0383811691161415610e7e57600080fd5b610e888282612274565b5050565b600080610eaf83610ea3610e9e610b81565b610d54565b9063ffffffff61243016565b905080610eba610ce1565b10158015610ecf5750610ecb610ed6565b8311155b9392505050565b600080600060405160200180807f657865637574696f6e4d61785065725478000000000000000000000000000000815250601101905060405160208183030381529060405260405180828051906020019080838360208310610bfe5780518252601f199092019160209182019101610bdf565b6000610f53611035565b600160a060020a0316638d0680436040518163ffffffff1660e060020a028152600401602060405180830381600087803b158015610f9057600080fd5b505af1158015610fa4573d6000803e3d6000fd5b505050506040513d6020811015610fba57600080fd5b5051905090565b60006002600060405160200180807f6f776e65720000000000000000000000000000000000000000000000000000008152506005019050604051602081830303815290604052604051808280519060200190808383602083106105f85780518252601f1990920191602091820191016105d9565b60006002600060405160200180807f76616c696461746f72436f6e74726163740000000000000000000000000000008152506011019050604051602081830303815290604052604051808280519060200190808383602083106105f85780518252601f1990920191602091820191016105d9565b600080600060405160200180807f6465706c6f7965644174426c6f636b0000000000000000000000000000000000815250600f01905060405160208183030381529060405260405180828051906020019080838360208310610bfe5780518252601f199092019160209182019101610bdf565b6002806000909192565b61112e610fc1565b600160a060020a0316331461114257600080fd5b61114a610dcf565b8110801561115e575061115b6117bf565b81105b151561116957600080fd5b8060008060405160200180807f6d696e506572547800000000000000000000000000000000000000000000000081525060080190506040516020818303038152906040526040518082805190602001908083835b602083106111dc5780518252601f1990920191602091820191016111bd565b51815160209384036101000a600019018019909216911617905260408051929094018290039091208652850195909552929092016000209390935550505050565b611225610fc1565b600160a060020a0316331461123957600080fd5b6000811161124657600080fd5b8060008060405160200180807f7265717569726564426c6f636b436f6e6669726d6174696f6e73000000000000815250601a0190506040516020818303038152906040526040518082805190602001908083835b602083106112b95780518252601f19909201916020918201910161129a565b51815160001960209485036101000a019081169019919091161790526040805194909201849003909320865285830196909652509284016000209490945550815184815291517f4fb76205cd57c896b21511d2114137d8e901b4ccd659e1a0f97d6306795264fb9350918290030190a150565b611334610fc1565b600160a060020a0316331461134857600080fd5b8060008060405160200180807f6461696c794c696d697400000000000000000000000000000000000000000000815250600a0190506040516020818303038152906040526040518082805190602001908083835b602083106113bb5780518252601f19909201916020918201910161139c565b51815160001960209485036101000a019081169019919091161790526040805194909201849003909320865285830196909652509284016000209490945550815184815291517fad4123ae17c414d9c6d2fec478b402e6b01856cc250fd01fbfd252fda0089d3c9350918290030190a150565b611436610fc1565b600160a060020a0316331461144a57600080fd5b6000811161145757600080fd5b8060008060405160200180807f676173507269636500000000000000000000000000000000000000000000000081525060080190506040516020818303038152906040526040518082805190602001908083835b602083106114ca5780518252601f1990920191602091820191016114ab565b51815160001960209485036101000a019081169019919091161790526040805194909201849003909320865285830196909652509284016000209490945550815184815291517f52264b89e0fceafb26e79fd49ef8a366eb6297483bf4035b027f0c99a7ad512e9350918290030190a150565b611545610fc1565b600160a060020a0316331461155957600080fd5b611561610dcf565b811061156c57600080fd5b8060008060405160200180807f6d617850657254780000000000000000000000000000000000000000000000008152506008019050604051602081830303815290604052604051808280519060200190808383602083106111dc5780518252601f1990920191602091820191016111bd565b600030600160a060020a031663025313a26040518163ffffffff1660e060020a028152600401602060405180830381600087803b158015610f9057600080fd5b600080600060405160200180807f6d696e5065725478000000000000000000000000000000000000000000000000815250600801905060405160208183030381529060405260405180828051906020019080838360208310610bfe5780518252601f199092019160209182019101610bdf565b6000806116a883610ea36116a3610b81565b61090a565b9050806116b3610dcf565b101580156116c857506116c46117bf565b8311155b8015610ecf57506116d761161e565b9092101592915050565b6116e9610fc1565b600160a060020a031633146116fd57600080fd5b611705610ce1565b811061171057600080fd5b8060008060405160200180807f657865637574696f6e4d617850657254780000000000000000000000000000008152506011019050604051602081830303815290604052604051808280519060200190808383602083106111dc5780518252601f1990920191602091820191016111bd565b61178a610fc1565b600160a060020a0316331461179e57600080fd5b600160a060020a03811615156117b357600080fd5b6117bc8161244a565b50565b600080600060405160200180807f6d61785065725478000000000000000000000000000000000000000000000000815250600801905060405160208183030381529060405260405180828051906020019080838360208310610bfe5780518252601f199092019160209182019101610bdf565b600080600060405160200180807f6761735072696365000000000000000000000000000000000000000000000000815250600801905060405160208183030381529060405260405180828051906020019080838360208310610bfe5780518252601f199092019160209182019101610bdf565b60008060606000806118b68a612572565b15156118c157600080fd5b85600160a060020a0316638d0680436040518163ffffffff1660e060020a028152600401602060405180830381600087803b1580156118ff57600080fd5b505af1158015611913573d6000803e3d6000fd5b505050506040513d602081101561192957600080fd5b5051895190955085111561193c57600080fd5b6119458a612586565b935084604051908082528060200260200182016040528015611971578160200160208202803883390190505b509250600091505b84821015611b06576001848a8481518110151561199257fe5b906020019060200201518a858151811015156119aa57fe5b906020019060200201518a868151811015156119c257fe5b60209081029091018101516040805160008082528185018084529790975260ff9095168582015260608501939093526080840152905160a0808401949293601f19830193908390039091019190865af1158015611a23573d6000803e3d6000fd5b50505060206040510351905085600160a060020a031663facd743b826040518263ffffffff1660e060020a0281526004018082600160a060020a0316600160a060020a03168152602001915050602060405180830381600087803b158015611a8a57600080fd5b505af1158015611a9e573d6000803e3d6000fd5b505050506040513d6020811015611ab457600080fd5b50511515611ac157600080fd5b611acb838261274b565b15611ad557600080fd5b808383815181101515611ae457fe5b600160a060020a03909216602092830290910190910152600190910190611979565b50505050505050505050565b600080600080611b2185612572565b1515611b2c57600080fd5b600160a060020a0360148601511693506034850151925060548501519150606885015190509193509193565b6000611b6382610e8c565b92915050565b80600460008460405160200180807f72656c617965644d657373616765730000000000000000000000000000000000815250600f0182600019166000191681526020019150506040516020818303038152906040526040518082805190602001908083835b60208310611bed5780518252601f199092019160209182019101611bce565b51815160209384036101000a60001901801990921691161790526040805192909401829003909120865285019590955292909201600020805460ff1916941515949094179093555050505050565b6000611c5c611c48610b81565b611c5785610ea3610e9e610b81565b6127a4565b611c64610583565b600160a060020a031663a9059cbb85856040518363ffffffff1660e060020a0281526004018083600160a060020a0316600160a060020a0316815260200182815260200192505050602060405180830381600087803b158015611cc657600080fd5b505af1158015611cda573d6000803e3d6000fd5b505050506040513d6020811015611cf057600080fd5b5051949350505050565b611d026109c7565b15611d0c57600080fd5b600160a060020a03881615801590611d285750611d2888612861565b1515611d3357600080fd5b851515611d3f57600080fd5b60008511611d4c57600080fd5b828210611d5857600080fd5b600160a060020a0381161515611d6d57600080fd5b876002600060405160200180807f76616c696461746f72436f6e747261637400000000000000000000000000000081525060110190506040516020818303038152906040526040518082805190602001908083835b60208310611de15780518252601f199092019160209182019101611dc2565b51815160209384036101000a60001901801990921691161790526040805192909401829003909120865285019590955292909201600020805473ffffffffffffffffffffffffffffffffffffffff1916600160a060020a03959095169490941790935550611e529150889050612869565b4360008060405160200180807f6465706c6f7965644174426c6f636b0000000000000000000000000000000000815250600f0190506040516020818303038152906040526040518082805190602001908083835b60208310611ec55780518252601f199092019160209182019101611ea6565b51815160209384036101000a6000190180199092169116179052604080519290940182900390912086528581019690965250928301600090812095909555505080517f7265717569726564426c6f636b436f6e6669726d6174696f6e73000000000000818401528151601a818303018152603a9091019182905280518a949384939182918401908083835b60208310611f6f5780518252601f199092019160209182019101611f50565b51815160209384036101000a6000190180199092169116179052604080519290940182900390912086528581019690965250928301600090812095909555505080517f67617350726963650000000000000000000000000000000000000000000000008184015281516008818303018152602890910191829052805189949384939182918401908083835b602083106120195780518252601f199092019160209182019101611ffa565b51815160209384036101000a6000190180199092169116179052604080519290940182900390912086528581019690965250928301600090812095909555505080517f6d617850657254780000000000000000000000000000000000000000000000008184015281516008818303018152602890910191829052805188949384939182918401908083835b602083106120c35780518252601f1990920191602091820191016120a4565b51815160209384036101000a6000190180199092169116179052604080519290940182900390912086528581019690965250928301600090812095909555505080517f657865637574696f6e4461696c794c696d6974000000000000000000000000008184015281516013818303018152603390910191829052805187949384939182918401908083835b6020831061216d5780518252601f19909201916020918201910161214e565b51815160209384036101000a6000190180199092169116179052604080519290940182900390912086528581019690965250928301600090812095909555505080517f657865637574696f6e4d617850657254780000000000000000000000000000008184015281516011818303018152603190910191829052805186949384939182918401908083835b602083106122175780518252601f1990920191602091820191016121f8565b51815160209384036101000a600019018019909216911617905260408051929094018290039091208652850195909552929092016000209390935550612260915082905061244a565b61226a6001612903565b5050505050505050565b60008061227f6115de565b600160a060020a0316331461229357600080fd5b600160a060020a03831615156122a857600080fd5b600160a060020a03841615156122f457604051600160a060020a03841690303180156108fc02916000818181858888f193505050501580156122ee573d6000803e3d6000fd5b5061242a565b604080517f70a082310000000000000000000000000000000000000000000000000000000081523060048201529051859350600160a060020a038416916370a082319160248083019260209291908290030181600087803b15801561235857600080fd5b505af115801561236c573d6000803e3d6000fd5b505050506040513d602081101561238257600080fd5b5051604080517fa9059cbb000000000000000000000000000000000000000000000000000000008152600160a060020a0386811660048301526024820184905291519293509084169163a9059cbb916044808201926020929091908290030181600087803b1580156123f357600080fd5b505af1158015612407573d6000803e3d6000fd5b505050506040513d602081101561241d57600080fd5b5051151561242a57600080fd5b50505050565b60008282018381101561243f57fe5b8091505b5092915050565b7f8be0079c531659141344cd1fd0a4f28419497f9722a3daafe3b4186f6b6457e0612473610fc1565b60408051600160a060020a03928316815291841660208301528051918290030190a1806002600060405160200180807f6f776e657200000000000000000000000000000000000000000000000000000081525060050190506040516020818303038152906040526040518082805190602001908083835b602083106125095780518252601f1990920191602091820191016124ea565b51815160209384036101000a60001901801990921691161790526040805192909401829003909120865285019590955292909201600020805473ffffffffffffffffffffffffffffffffffffffff1916600160a060020a03959095169490941790935550505050565b600061257c6129c4565b8251149050919050565b604080518082018252601a81527f19457468657265756d205369676e6564204d6573736167653a0a000000000000602080830191825283518085018552600381527f313034000000000000000000000000000000000000000000000000000000000081830152935183516000959385938593899391019182918083835b602083106126225780518252601f199092019160209182019101612603565b51815160209384036101000a600019018019909216911617905286519190930192860191508083835b6020831061266a5780518252601f19909201916020918201910161264b565b51815160209384036101000a600019018019909216911617905285519190930192850191508083835b602083106126b25780518252601f199092019160209182019101612693565b6001836020036101000a03801982511681845116808217855250505050505090500193505050506040516020818303038152906040526040518082805190602001908083835b602083106127175780518252601f1990920191602091820191016126f8565b5181516020939093036101000a60001901801990911692169190911790526040519201829003909120979650505050505050565b6000805b835181101561279a5782600160a060020a0316848281518110151561277057fe5b90602001906020020151600160a060020a031614156127925760019150612443565b60010161274f565b5060009392505050565b806000808460405160200180807f746f74616c4578656375746564506572446179000000000000000000000000008152506013018281526020019150506040516020818303038152906040526040518082805190602001908083835b6020831061281f5780518252601f199092019160209182019101612800565b51815160209384036101000a60001901801990921691161790526040805192909401829003909120865285019590955292909201600020939093555050505050565b6000903b1190565b600160a060020a03811615801590612885575061288581612861565b151561289057600080fd5b806002600060405160200180807f6572633230746f6b656e00000000000000000000000000000000000000000000815250600a019050604051602081830303815290604052604051808280519060200190808383602083106125095780518252601f1990920191602091820191016124ea565b806004600060405160200180807f6973496e697469616c697a656400000000000000000000000000000000000000815250600d0190506040516020818303038152906040526040518082805190602001908083835b602083106129775780518252601f199092019160209182019101612958565b51815160209384036101000a60001901801990921691161790526040805192909401829003909120865285019590955292909201600020805460ff19169415159490941790935550505050565b6068905600a165627a7a723058208e5cde71774ea9181f6093ed82cb61163b7c810e4e13a29f23dd300fce3a11f40029",
  "source": "pragma solidity 0.4.24;\n\n\nimport \"./BasicForeignBridgeErcToErc.sol\";\n\n\ncontract ForeignBridgeErcToErc is BasicForeignBridgeErcToErc {\n    function initialize(\n        address _validatorContract,\n        address _erc20token,\n        uint256 _requiredBlockConfirmations,\n        uint256 _gasPrice,\n        uint256 _maxPerTx,\n        uint256 _homeDailyLimit,\n        uint256 _homeMaxPerTx,\n        address _owner\n    ) public returns(bool) {\n        _initialize(\n            _validatorContract,\n            _erc20token,\n            _requiredBlockConfirmations,\n            _gasPrice,\n            _maxPerTx,\n            _homeDailyLimit,\n            _homeMaxPerTx,\n            _owner\n        );\n        return isInitialized();\n    }\n\n    function erc20token() public view returns(ERC20Basic) {\n        return ERC20Basic(addressStorage[keccak256(abi.encodePacked(\"erc20token\"))]);\n    }\n\n    function setErc20token(address _token) internal {\n        require(_token != address(0) && isContract(_token));\n        addressStorage[keccak256(abi.encodePacked(\"erc20token\"))] = _token;\n    }\n}\n",
  "sourcePath": "/Users/fbranci/iexecdev/vivani/tokenbridge/contracts/contracts/upgradeable_contracts/erc20_to_erc20/ForeignBridgeErcToErc.sol",
  "compiler": {
    "name": "solc",
    "version": "0.4.24+commit.e67f0147.Emscripten.clang"
  },
  "schemaVersion": "3.0.13",
  "updatedAt": "2019-08-28T14:04:53.287Z",
  "devdoc": {
    "methods": {
      "owner()": {
        "details": "Tells the address of the owner",
        "return": "the address of the owner"
      },
      "transferOwnership(address)": {
        "details": "Allows the current owner to transfer control of the contract to a newOwner.",
        "params": {
          "newOwner": "the address to transfer ownership to."
        }
      }
    }
  },
  "userdoc": {
    "methods": {}
  }
}