{
  "contractName": "ForeignBridgeNativeToErc",
  "abi": [
    {
      "constant": true,
      "inputs": [],
      "name": "erc677token",
      "outputs": [
        {
          "name": "",
          "type": "address"
        }
      ],
      "payable": false,
      "stateMutability": "view",
      "type": "function"
    },
    {
      "constant": true,
      "inputs": [
        {
          "name": "_txHash",
          "type": "bytes32"
        }
      ],
      "name": "relayedMessages",
      "outputs": [
        {
          "name": "",
          "type": "bool"
        }
      ],
      "payable": false,
      "stateMutability": "view",
      "type": "function"
    },
    {
      "constant": false,
      "inputs": [
        {
          "name": "vs",
          "type": "uint8[]"
        },
        {
          "name": "rs",
          "type": "bytes32[]"
        },
        {
          "name": "ss",
          "type": "bytes32[]"
        },
        {
          "name": "message",
          "type": "bytes"
        }
      ],
      "name": "executeSignatures",
      "outputs": [],
      "payable": false,
      "stateMutability": "nonpayable",
      "type": "function"
    },
    {
      "constant": true,
      "inputs": [
        {
          "name": "_day",
          "type": "uint256"
        }
      ],
      "name": "totalSpentPerDay",
      "outputs": [
        {
          "name": "",
          "type": "uint256"
        }
      ],
      "payable": false,
      "stateMutability": "view",
      "type": "function"
    },
    {
      "constant": false,
      "inputs": [
        {
          "name": "_fee",
          "type": "uint256"
        }
      ],
      "name": "setHomeFee",
      "outputs": [],
      "payable": false,
      "stateMutability": "nonpayable",
      "type": "function"
    },
    {
      "constant": true,
      "inputs": [],
      "name": "isInitialized",
      "outputs": [
        {
          "name": "",
          "type": "bool"
        }
      ],
      "payable": false,
      "stateMutability": "view",
      "type": "function"
    },
    {
      "constant": false,
      "inputs": [
        {
          "name": "_dailyLimit",
          "type": "uint256"
        }
      ],
      "name": "setExecutionDailyLimit",
      "outputs": [],
      "payable": false,
      "stateMutability": "nonpayable",
      "type": "function"
    },
    {
      "constant": true,
      "inputs": [],
      "name": "getCurrentDay",
      "outputs": [
        {
          "name": "",
          "type": "uint256"
        }
      ],
      "payable": false,
      "stateMutability": "view",
      "type": "function"
    },
    {
      "constant": true,
      "inputs": [],
      "name": "requiredBlockConfirmations",
      "outputs": [
        {
          "name": "",
          "type": "uint256"
        }
      ],
      "payable": false,
      "stateMutability": "view",
      "type": "function"
    },
    {
      "constant": true,
      "inputs": [],
      "name": "executionDailyLimit",
      "outputs": [
        {
          "name": "",
          "type": "uint256"
        }
      ],
      "payable": false,
      "stateMutability": "view",
      "type": "function"
    },
    {
      "constant": true,
      "inputs": [
        {
          "name": "_day",
          "type": "uint256"
        }
      ],
      "name": "totalExecutedPerDay",
      "outputs": [
        {
          "name": "",
          "type": "uint256"
        }
      ],
      "payable": false,
      "stateMutability": "view",
      "type": "function"
    },
    {
      "constant": false,
      "inputs": [
        {
          "name": "_feeManager",
          "type": "address"
        }
      ],
      "name": "setFeeManagerContract",
      "outputs": [],
      "payable": false,
      "stateMutability": "nonpayable",
      "type": "function"
    },
    {
      "constant": true,
      "inputs": [],
      "name": "dailyLimit",
      "outputs": [
        {
          "name": "",
          "type": "uint256"
        }
      ],
      "payable": false,
      "stateMutability": "view",
      "type": "function"
    },
    {
      "constant": false,
      "inputs": [
        {
          "name": "_token",
          "type": "address"
        },
        {
          "name": "_to",
          "type": "address"
        }
      ],
      "name": "claimTokens",
      "outputs": [],
      "payable": false,
      "stateMutability": "nonpayable",
      "type": "function"
    },
    {
      "constant": true,
      "inputs": [
        {
          "name": "_amount",
          "type": "uint256"
        }
      ],
      "name": "withinExecutionLimit",
      "outputs": [
        {
          "name": "",
          "type": "bool"
        }
      ],
      "payable": false,
      "stateMutability": "view",
      "type": "function"
    },
    {
      "constant": true,
      "inputs": [],
      "name": "executionMaxPerTx",
      "outputs": [
        {
          "name": "",
          "type": "uint256"
        }
      ],
      "payable": false,
      "stateMutability": "view",
      "type": "function"
    },
    {
      "constant": true,
      "inputs": [],
      "name": "requiredSignatures",
      "outputs": [
        {
          "name": "",
          "type": "uint256"
        }
      ],
      "payable": false,
      "stateMutability": "view",
      "type": "function"
    },
    {
      "constant": true,
      "inputs": [],
      "name": "owner",
      "outputs": [
        {
          "name": "",
          "type": "address"
        }
      ],
      "payable": false,
      "stateMutability": "view",
      "type": "function"
    },
    {
      "constant": true,
      "inputs": [],
      "name": "getHomeFee",
      "outputs": [
        {
          "name": "",
          "type": "uint256"
        }
      ],
      "payable": false,
      "stateMutability": "view",
      "type": "function"
    },
    {
      "constant": true,
      "inputs": [],
      "name": "validatorContract",
      "outputs": [
        {
          "name": "",
          "type": "address"
        }
      ],
      "payable": false,
      "stateMutability": "view",
      "type": "function"
    },
    {
      "constant": true,
      "inputs": [],
      "name": "deployedAtBlock",
      "outputs": [
        {
          "name": "",
          "type": "uint256"
        }
      ],
      "payable": false,
      "stateMutability": "view",
      "type": "function"
    },
    {
      "constant": true,
      "inputs": [],
      "name": "getBridgeInterfacesVersion",
      "outputs": [
        {
          "name": "major",
          "type": "uint64"
        },
        {
          "name": "minor",
          "type": "uint64"
        },
        {
          "name": "patch",
          "type": "uint64"
        }
      ],
      "payable": false,
      "stateMutability": "pure",
      "type": "function"
    },
    {
      "constant": false,
      "inputs": [
        {
          "name": "_minPerTx",
          "type": "uint256"
        }
      ],
      "name": "setMinPerTx",
      "outputs": [],
      "payable": false,
      "stateMutability": "nonpayable",
      "type": "function"
    },
    {
      "constant": false,
      "inputs": [
        {
          "name": "_from",
          "type": "address"
        },
        {
          "name": "_value",
          "type": "uint256"
        },
        {
          "name": "",
          "type": "bytes"
        }
      ],
      "name": "onTokenTransfer",
      "outputs": [
        {
          "name": "",
          "type": "bool"
        }
      ],
      "payable": false,
      "stateMutability": "nonpayable",
      "type": "function"
    },
    {
      "constant": false,
      "inputs": [
        {
          "name": "_blockConfirmations",
          "type": "uint256"
        }
      ],
      "name": "setRequiredBlockConfirmations",
      "outputs": [],
      "payable": false,
      "stateMutability": "nonpayable",
      "type": "function"
    },
    {
      "constant": false,
      "inputs": [
        {
          "name": "_dailyLimit",
          "type": "uint256"
        }
      ],
      "name": "setDailyLimit",
      "outputs": [],
      "payable": false,
      "stateMutability": "nonpayable",
      "type": "function"
    },
    {
      "constant": false,
      "inputs": [
        {
          "name": "_gasPrice",
          "type": "uint256"
        }
      ],
      "name": "setGasPrice",
      "outputs": [],
      "payable": false,
      "stateMutability": "nonpayable",
      "type": "function"
    },
    {
      "constant": false,
      "inputs": [
        {
          "name": "_maxPerTx",
          "type": "uint256"
        }
      ],
      "name": "setMaxPerTx",
      "outputs": [],
      "payable": false,
      "stateMutability": "nonpayable",
      "type": "function"
    },
    {
      "constant": true,
      "inputs": [],
      "name": "decimalShift",
      "outputs": [
        {
          "name": "",
          "type": "uint256"
        }
      ],
      "payable": false,
      "stateMutability": "view",
      "type": "function"
    },
    {
      "constant": true,
      "inputs": [],
      "name": "feeManagerContract",
      "outputs": [
        {
          "name": "",
          "type": "address"
        }
      ],
      "payable": false,
      "stateMutability": "view",
      "type": "function"
    },
    {
      "constant": true,
      "inputs": [],
      "name": "minPerTx",
      "outputs": [
        {
          "name": "",
          "type": "uint256"
        }
      ],
      "payable": false,
      "stateMutability": "view",
      "type": "function"
    },
    {
      "constant": true,
      "inputs": [
        {
          "name": "_amount",
          "type": "uint256"
        }
      ],
      "name": "withinLimit",
      "outputs": [
        {
          "name": "",
          "type": "bool"
        }
      ],
      "payable": false,
      "stateMutability": "view",
      "type": "function"
    },
    {
      "constant": false,
      "inputs": [
        {
          "name": "_maxPerTx",
          "type": "uint256"
        }
      ],
      "name": "setExecutionMaxPerTx",
      "outputs": [],
      "payable": false,
      "stateMutability": "nonpayable",
      "type": "function"
    },
    {
      "constant": true,
      "inputs": [],
      "name": "getFeeManagerMode",
      "outputs": [
        {
          "name": "",
          "type": "bytes4"
        }
      ],
      "payable": false,
      "stateMutability": "view",
      "type": "function"
    },
    {
      "constant": false,
      "inputs": [
        {
          "name": "newOwner",
          "type": "address"
        }
      ],
      "name": "transferOwnership",
      "outputs": [],
      "payable": false,
      "stateMutability": "nonpayable",
      "type": "function"
    },
    {
      "constant": true,
      "inputs": [],
      "name": "maxPerTx",
      "outputs": [
        {
          "name": "",
          "type": "uint256"
        }
      ],
      "payable": false,
      "stateMutability": "view",
      "type": "function"
    },
    {
      "constant": true,
      "inputs": [],
      "name": "gasPrice",
      "outputs": [
        {
          "name": "",
          "type": "uint256"
        }
      ],
      "payable": false,
      "stateMutability": "view",
      "type": "function"
    },
    {
      "anonymous": false,
      "inputs": [
        {
          "indexed": false,
          "name": "recipient",
          "type": "address"
        },
        {
          "indexed": false,
          "name": "value",
          "type": "uint256"
        }
      ],
      "name": "UserRequestForAffirmation",
      "type": "event"
    },
    {
      "anonymous": false,
      "inputs": [
        {
          "indexed": false,
          "name": "feeAmount",
          "type": "uint256"
        },
        {
          "indexed": true,
          "name": "transactionHash",
          "type": "bytes32"
        }
      ],
      "name": "FeeDistributedFromAffirmation",
      "type": "event"
    },
    {
      "anonymous": false,
      "inputs": [
        {
          "indexed": false,
          "name": "feeAmount",
          "type": "uint256"
        },
        {
          "indexed": true,
          "name": "transactionHash",
          "type": "bytes32"
        }
      ],
      "name": "FeeDistributedFromSignatures",
      "type": "event"
    },
    {
      "anonymous": false,
      "inputs": [
        {
          "indexed": false,
          "name": "recipient",
          "type": "address"
        },
        {
          "indexed": false,
          "name": "value",
          "type": "uint256"
        },
        {
          "indexed": false,
          "name": "transactionHash",
          "type": "bytes32"
        }
      ],
      "name": "RelayedMessage",
      "type": "event"
    },
    {
      "anonymous": false,
      "inputs": [
        {
          "indexed": false,
          "name": "gasPrice",
          "type": "uint256"
        }
      ],
      "name": "GasPriceChanged",
      "type": "event"
    },
    {
      "anonymous": false,
      "inputs": [
        {
          "indexed": false,
          "name": "requiredBlockConfirmations",
          "type": "uint256"
        }
      ],
      "name": "RequiredBlockConfirmationChanged",
      "type": "event"
    },
    {
      "anonymous": false,
      "inputs": [
        {
          "indexed": false,
          "name": "newLimit",
          "type": "uint256"
        }
      ],
      "name": "DailyLimitChanged",
      "type": "event"
    },
    {
      "anonymous": false,
      "inputs": [
        {
          "indexed": false,
          "name": "newLimit",
          "type": "uint256"
        }
      ],
      "name": "ExecutionDailyLimitChanged",
      "type": "event"
    },
    {
      "anonymous": false,
      "inputs": [
        {
          "indexed": false,
          "name": "previousOwner",
          "type": "address"
        },
        {
          "indexed": false,
          "name": "newOwner",
          "type": "address"
        }
      ],
      "name": "OwnershipTransferred",
      "type": "event"
    },
    {
      "constant": false,
      "inputs": [
        {
          "name": "_validatorContract",
          "type": "address"
        },
        {
          "name": "_erc677token",
          "type": "address"
        },
        {
          "name": "_dailyLimitMaxPerTxMinPerTxArray",
          "type": "uint256[]"
        },
        {
          "name": "_foreignGasPrice",
          "type": "uint256"
        },
        {
          "name": "_requiredBlockConfirmations",
          "type": "uint256"
        },
        {
          "name": "_homeDailyLimitHomeMaxPerTxArray",
          "type": "uint256[]"
        },
        {
          "name": "_owner",
          "type": "address"
        },
        {
          "name": "_decimalShift",
          "type": "uint256"
        }
      ],
      "name": "initialize",
      "outputs": [
        {
          "name": "",
          "type": "bool"
        }
      ],
      "payable": false,
      "stateMutability": "nonpayable",
      "type": "function"
    },
    {
      "constant": false,
      "inputs": [
        {
          "name": "_validatorContract",
          "type": "address"
        },
        {
          "name": "_erc677token",
          "type": "address"
        },
        {
          "name": "_dailyLimitMaxPerTxMinPerTxArray",
          "type": "uint256[]"
        },
        {
          "name": "_foreignGasPrice",
          "type": "uint256"
        },
        {
          "name": "_requiredBlockConfirmations",
          "type": "uint256"
        },
        {
          "name": "_homeDailyLimitHomeMaxPerTxArray",
          "type": "uint256[]"
        },
        {
          "name": "_owner",
          "type": "address"
        },
        {
          "name": "_feeManager",
          "type": "address"
        },
        {
          "name": "_homeFee",
          "type": "uint256"
        },
        {
          "name": "_decimalShift",
          "type": "uint256"
        }
      ],
      "name": "rewardableInitialize",
      "outputs": [
        {
          "name": "",
          "type": "bool"
        }
      ],
      "payable": false,
      "stateMutability": "nonpayable",
      "type": "function"
    },
    {
      "constant": true,
      "inputs": [],
      "name": "getBridgeMode",
      "outputs": [
        {
          "name": "_data",
          "type": "bytes4"
        }
      ],
      "payable": false,
      "stateMutability": "pure",
      "type": "function"
    },
    {
      "constant": false,
      "inputs": [
        {
          "name": "_token",
          "type": "address"
        },
        {
          "name": "_to",
          "type": "address"
        }
      ],
      "name": "claimTokensFromErc677",
      "outputs": [],
      "payable": false,
      "stateMutability": "nonpayable",
      "type": "function"
    }
  ],
  "bytecode": "0x608060405234801561001057600080fd5b50613e57806100206000396000f3006080604052600436106101df5763ffffffff60e060020a60003504166318d8f9c981146101e457806321d800ec14610215578063232a2c1d146102415780632bd0bb051461028757806334a9e148146102b1578063392e53cd146102c95780633dd95d1b146102de5780633e6968b6146102f65780633f0a9f651461030b578063437764df1461032057806343b37dd3146103675780634fb3fef71461037c57806360756f7c1461039457806367eeba0c146103b557806369ffa08a146103ca578063879ce676146103f15780638aa1949a146104095780638d0680431461041e5780638da5cb5b146104335780639313dc431461044857806394da17cd1461046f57806399439089146104845780639a454b99146104995780639cb7595a146104ae578063a2a6ca27146104ef578063a4c0ed3614610507578063acf5c68914610538578063b20d30a914610550578063bf1fe42014610568578063bf740b6914610580578063c6f6f216146105dc578063dae5f0fd146105f4578063dbe03a8b14610609578063df25f3f01461061e578063ea9f496814610633578063f20151e11461064b578063f2ba956114610663578063f2fde38b14610678578063f968adbe14610699578063fc7b6aed146106ae578063fe173b97146106ff575b600080fd5b3480156101f057600080fd5b506101f9610714565b60408051600160a060020a039092168252519081900360200190f35b34801561022157600080fd5b5061022d6004356107d2565b604080519115158252519081900360200190f35b34801561024d57600080fd5b50610285602460048035828101929082013591813580830192908201359160443580830192908201359160643591820191013561089b565b005b34801561029357600080fd5b5061029f600435610a74565b60408051918252519081900360200190f35b3480156102bd57600080fd5b50610285600435610b31565b3480156102d557600080fd5b5061022d610beb565b3480156102ea57600080fd5b50610285600435610ca3565b34801561030257600080fd5b5061029f610dc3565b34801561031757600080fd5b5061029f610dcc565b34801561032c57600080fd5b50610335610e80565b604080517bffffffffffffffffffffffffffffffffffffffffffffffffffffffff199092168252519081900360200190f35b34801561037357600080fd5b5061029f610f23565b34801561038857600080fd5b5061029f600435610f96565b3480156103a057600080fd5b50610285600160a060020a0360043516611011565b3480156103c157600080fd5b5061029f61112f565b3480156103d657600080fd5b50610285600160a060020a03600435811690602435166111a2565b3480156103fd57600080fd5b5061022d600435611245565b34801561041557600080fd5b5061029f61128f565b34801561042a57600080fd5b5061029f611302565b34801561043f57600080fd5b506101f961137a565b34801561045457600080fd5b50610285600160a060020a03600435811690602435166113ee565b34801561047b57600080fd5b5061029f6114fd565b34801561049057600080fd5b506101f9611596565b3480156104a557600080fd5b5061029f61160a565b3480156104ba57600080fd5b506104c361167d565b6040805167ffffffffffffffff9485168152928416602084015292168183015290519081900360600190f35b3480156104fb57600080fd5b50610285600435611688565b34801561051357600080fd5b5061022d60048035600160a060020a031690602480359160443591820191013561177f565b34801561054457600080fd5b506102856004356117f0565b34801561055c57600080fd5b506102856004356118ff565b34801561057457600080fd5b50610285600435611a1f565b34801561058c57600080fd5b5061022d60048035600160a060020a039081169160248035831692604435808301939081013592606435926084359260a4359283019201359060c43581169060e435166101043561012435611b2e565b3480156105e857600080fd5b50610285600435611d0a565b34801561060057600080fd5b5061029f611dab565b34801561061557600080fd5b506101f9611e1e565b34801561062a57600080fd5b5061029f611e92565b34801561063f57600080fd5b5061022d600435611f05565b34801561065757600080fd5b50610285600435611f50565b34801561066f57600080fd5b50610335611ff1565b34801561068457600080fd5b50610285600160a060020a0360043516612068565b3480156106a557600080fd5b5061029f6120a2565b3480156106ba57600080fd5b5061022d60048035600160a060020a039081169160248035831692604435808301939081013592606435926084359260a4359283019201359060c4351660e435612115565b34801561070b57600080fd5b5061029f6121a4565b60006002600060405160200180807f657263363737746f6b656e000000000000000000000000000000000000000000815250600b0190506040516020818303038152906040526040518082805190602001908083835b602083106107895780518252601f19909201916020918201910161076a565b51815160209384036101000a6000190180199092169116179052604080519290940182900390912086528501959095529290920160002054600160a060020a0316949350505050565b6000600460008360405160200180807f72656c617965644d657373616765730000000000000000000000000000000000815250600f0182600019166000191681526020019150506040516020818303038152906040526040518082805190602001908083835b602083106108575780518252601f199092019160209182019101610838565b51815160209384036101000a600019018019909216911617905260408051929094018290039091208652850195909552929092016000205460ff1695945050505050565b60008060008061097386868080601f0160208091040260200160405190810160405280939291908181526020018383808284378201915050505050508d8d808060200260200160405190810160405280939291908181526020018383602002808284378201915050505050508c8c808060200260200160405190810160405280939291908181526020018383602002808284378201915050505050508b8b808060200260200160405190810160405280939291908181526020018383602002808284375061096e94506115969350505050565b612217565b6109ac86868080601f01602080910402602001604051908101604052809392919081815260200183838082843750612484945050505050565b929650909450925090506109bf83611245565b15610a5b57600160a060020a03811630146109d957600080fd5b6109e2826107d2565b156109ec57600080fd5b6109f78260016124bf565b610a02848484612591565b1515610a0d57600080fd5b60408051600160a060020a03861681526020810185905280820184905290517f4ab7d581336d92edbea22636a613e8e76c99ac7f91137c1523db38dbfb3bf3299181900360600190a1610a66565b610a668484846101df565b505050505050505050505050565b60008060008360405160200180807f746f74616c5370656e74506572446179000000000000000000000000000000008152506010018281526020019150506040516020818303038152906040526040518082805190602001908083835b60208310610af05780518252601f199092019160209182019101610ad1565b51815160209384036101000a600019018019909216911617905260408051929094018290039091208652850195909552929092016000205495945050505050565b610b3961137a565b600160a060020a03163314610b4d57600080fd5b610be8610b58611e1e565b826040516020018080600080516020613e0c83398151915281525060080190506040516020818303038152906040526040518082805190602001908083835b60208310610bb65780518252601f199092019160209182019101610b97565b6001836020036101000a0380198251168184511680821785525050505050509050019150506040518091039020612749565b50565b60006004600060405160200180807f6973496e697469616c697a656400000000000000000000000000000000000000815250600d0190506040516020818303038152906040526040518082805190602001908083835b60208310610c605780518252601f199092019160209182019101610c41565b51815160209384036101000a600019018019909216911617905260408051929094018290039091208652850195909552929092016000205460ff16949350505050565b610cab61137a565b600160a060020a03163314610cbf57600080fd5b610cc761128f565b811180610cd2575080155b1515610cdd57600080fd5b8060008060405160200180807f657865637574696f6e4461696c794c696d69740000000000000000000000000081525060130190506040516020818303038152906040526040518082805190602001908083835b60208310610d505780518252601f199092019160209182019101610d31565b51815160001960209485036101000a019081169019919091161790526040805194909201849003909320865285830196909652509284016000209490945550815184815291517f9bebf928b90863f24cc31f726a3a7545efd409f1dcf552301b1ee3710da70d3b9350918290030190a150565b62015180420490565b600080600060405160200180807f7265717569726564426c6f636b436f6e6669726d6174696f6e73000000000000815250601a0190506040516020818303038152906040526040518082805190602001908083835b60208310610e405780518252601f199092019160209182019101610e21565b51815160209384036101000a6000190180199092169116179052604080519290940182900390912086528501959095529290920160002054949350505050565b600060405160200180807f6e61746976652d746f2d6572632d636f7265000000000000000000000000000081525060120190506040516020818303038152906040526040518082805190602001908083835b60208310610ef15780518252601f199092019160209182019101610ed2565b6001836020036101000a0380198251168184511680821785525050505050509050019150506040518091039020905090565b600080600060405160200180807f657865637574696f6e4461696c794c696d697400000000000000000000000000815250601301905060405160208183030381529060405260405180828051906020019080838360208310610e405780518252601f199092019160209182019101610e21565b60008060008360405160200180807f746f74616c45786563757465645065724461790000000000000000000000000081525060130182815260200191505060405160208183030381529060405260405180828051906020019080838360208310610af05780518252601f199092019160209182019101610ad1565b61101961137a565b600160a060020a0316331461102d57600080fd5b600160a060020a03811615806110475750611047816128fb565b151561105257600080fd5b806002600060405160200180807f6665654d616e61676572436f6e7472616374000000000000000000000000000081525060120190506040516020818303038152906040526040518082805190602001908083835b602083106110c65780518252601f1990920191602091820191016110a7565b51815160209384036101000a60001901801990921691161790526040805192909401829003909120865285019590955292909201600020805473ffffffffffffffffffffffffffffffffffffffff1916600160a060020a03959095169490941790935550505050565b600080600060405160200180807f6461696c794c696d697400000000000000000000000000000000000000000000815250600a01905060405160208183030381529060405260405180828051906020019080838360208310610e405780518252601f199092019160209182019101610e21565b30600160a060020a0316636fde82026040518163ffffffff1660e060020a028152600401602060405180830381600087803b1580156111e057600080fd5b505af11580156111f4573d6000803e3d6000fd5b505050506040513d602081101561120a57600080fd5b5051600160a060020a0316331461122057600080fd5b80600160a060020a038116151561123657600080fd5b6112408383612903565b505050565b6000806112688361125c611257610dc3565b610f96565b9063ffffffff61292f16565b905080611273610f23565b10158015611288575061128461128f565b8311155b9392505050565b600080600060405160200180807f657865637574696f6e4d61785065725478000000000000000000000000000000815250601101905060405160208183030381529060405260405180828051906020019080838360208310610e405780518252601f199092019160209182019101610e21565b600061130c611596565b600160a060020a0316638d0680436040518163ffffffff1660e060020a028152600401602060405180830381600087803b15801561134957600080fd5b505af115801561135d573d6000803e3d6000fd5b505050506040513d602081101561137357600080fd5b5051905090565b60006002600060405160200180807f6f776e65720000000000000000000000000000000000000000000000000000008152506005019050604051602081830303815290604052604051808280519060200190808383602083106107895780518252601f19909201916020918201910161076a565b30600160a060020a0316636fde82026040518163ffffffff1660e060020a028152600401602060405180830381600087803b15801561142c57600080fd5b505af1158015611440573d6000803e3d6000fd5b505050506040513d602081101561145657600080fd5b5051600160a060020a0316331461146c57600080fd5b611474610714565b604080517f69ffa08a000000000000000000000000000000000000000000000000000000008152600160a060020a0385811660048301528481166024830152915192909116916369ffa08a9160448082019260009290919082900301818387803b1580156114e157600080fd5b505af11580156114f5573d6000803e3d6000fd5b505050505050565b60006115916040516020018080600080516020613e0c83398151915281525060080190506040516020818303038152906040526040518082805190602001908083835b6020831061155f5780518252601f199092019160209182019101611540565b6001836020036101000a0380198251168184511680821785525050505050509050019150506040518091039020612942565b905090565b60006002600060405160200180807f76616c696461746f72436f6e74726163740000000000000000000000000000008152506011019050604051602081830303815290604052604051808280519060200190808383602083106107895780518252601f19909201916020918201910161076a565b600080600060405160200180807f6465706c6f7965644174426c6f636b0000000000000000000000000000000000815250600f01905060405160208183030381529060405260405180828051906020019080838360208310610e405780518252601f199092019160209182019101610e21565b600260036000909192565b61169061137a565b600160a060020a031633146116a457600080fd5b6116ac61112f565b811080156116c057506116bd6120a2565b81105b15156116cb57600080fd5b8060008060405160200180807f6d696e506572547800000000000000000000000000000000000000000000000081525060080190506040516020818303038152906040526040518082805190602001908083835b6020831061173e5780518252601f19909201916020918201910161171f565b51815160209384036101000a600019018019909216911617905260408051929094018290039091208652850195909552929092016000209390935550505050565b60008061178a610714565b905033600160a060020a038216146117a157600080fd5b6117aa85611f05565b15156117b557600080fd5b6117d96117c0610dc3565b6117d48761125c6117cf610dc3565b610a74565b612a97565b6117e4818787612b54565b50600195945050505050565b6117f861137a565b600160a060020a0316331461180c57600080fd5b6000811161181957600080fd5b8060008060405160200180807f7265717569726564426c6f636b436f6e6669726d6174696f6e73000000000000815250601a0190506040516020818303038152906040526040518082805190602001908083835b6020831061188c5780518252601f19909201916020918201910161186d565b51815160001960209485036101000a019081169019919091161790526040805194909201849003909320865285830196909652509284016000209490945550815184815291517f4fb76205cd57c896b21511d2114137d8e901b4ccd659e1a0f97d6306795264fb9350918290030190a150565b61190761137a565b600160a060020a0316331461191b57600080fd5b6119236120a2565b81118061192e575080155b151561193957600080fd5b8060008060405160200180807f6461696c794c696d697400000000000000000000000000000000000000000000815250600a0190506040516020818303038152906040526040518082805190602001908083835b602083106119ac5780518252601f19909201916020918201910161198d565b51815160001960209485036101000a019081169019919091161790526040805194909201849003909320865285830196909652509284016000209490945550815184815291517fad4123ae17c414d9c6d2fec478b402e6b01856cc250fd01fbfd252fda0089d3c9350918290030190a150565b611a2761137a565b600160a060020a03163314611a3b57600080fd5b60008111611a4857600080fd5b8060008060405160200180807f676173507269636500000000000000000000000000000000000000000000000081525060080190506040516020818303038152906040526040518082805190602001908083835b60208310611abb5780518252601f199092019160209182019101611a9c565b51815160001960209485036101000a019081169019919091161790526040805194909201849003909320865285830196909652509284016000209490945550815184815291517f52264b89e0fceafb26e79fd49ef8a366eb6297483bf4035b027f0c99a7ad512e9350918290030190a150565b6000611b9e8d8d8d8d808060200260200160405190810160405280939291908181526020018383602002808284378201915050505050508c8c8c8c808060200260200160405190810160405280939291908181526020018383602002808284378201915050505050508b89612bbf565b611ba7846128fb565b1515611bb257600080fd5b836002600060405160200180807f6665654d616e61676572436f6e7472616374000000000000000000000000000081525060120190506040516020818303038152906040526040518082805190602001908083835b60208310611c265780518252601f199092019160209182019101611c07565b51815160209384036101000a6000190180199092169116179052604080519290940182900390912086528581019690965250928301600020805473ffffffffffffffffffffffffffffffffffffffff1916600160a060020a039690961695909517909455508051600080516020613e0c83398151915281840152815160088183030181526028909101918290528051611ce994508893889391829184810191908190849084908310610bb65780518252601f199092019160209182019101610b97565b611cf1613580565b611cf9610beb565b9d9c50505050505050505050505050565b611d1261137a565b600160a060020a03163314611d2657600080fd5b611d2e61112f565b8110611d3957600080fd5b8060008060405160200180807f6d6178506572547800000000000000000000000000000000000000000000000081525060080190506040516020818303038152906040526040518082805190602001908083836020831061173e5780518252601f19909201916020918201910161171f565b600080600060405160200180807f646563696d616c53686966740000000000000000000000000000000000000000815250600c01905060405160208183030381529060405260405180828051906020019080838360208310610e405780518252601f199092019160209182019101610e21565b60006002600060405160200180807f6665654d616e61676572436f6e747261637400000000000000000000000000008152506012019050604051602081830303815290604052604051808280519060200190808383602083106107895780518252601f19909201916020918201910161076a565b600080600060405160200180807f6d696e5065725478000000000000000000000000000000000000000000000000815250600801905060405160208183030381529060405260405180828051906020019080838360208310610e405780518252601f199092019160209182019101610e21565b600080611f178361125c6117cf610dc3565b905080611f2261112f565b10158015611f375750611f336120a2565b8311155b80156112885750611f46611e92565b9092101592915050565b611f5861137a565b600160a060020a03163314611f6c57600080fd5b611f74610f23565b8110611f7f57600080fd5b8060008060405160200180807f657865637574696f6e4d6178506572547800000000000000000000000000000081525060110190506040516020818303038152906040526040518082805190602001908083836020831061173e5780518252601f19909201916020918201910161171f565b604080516004815260248101909152602081018051600160e060020a03167ff2ba956100000000000000000000000000000000000000000000000000000000179052600090819081612041611e1e565b9050600460008351602085016000855af260005193508080156101df575092949350505050565b61207061137a565b600160a060020a0316331461208457600080fd5b600160a060020a038116151561209957600080fd5b610be881613641565b600080600060405160200180807f6d61785065725478000000000000000000000000000000000000000000000000815250600801905060405160208183030381529060405260405180828051906020019080838360208310610e405780518252601f199092019160209182019101610e21565b60006121858b8b8b8b808060200260200160405190810160405280939291908181526020018383602002808284378201915050505050508a8a8a8a808060200260200160405190810160405280939291908181526020018383602002808284378201915050505050508989612bbf565b61218d613580565b612195610beb565b9b9a5050505050505050505050565b600080600060405160200180807f6761735072696365000000000000000000000000000000000000000000000000815250600801905060405160208183030381529060405260405180828051906020019080838360208310610e405780518252601f199092019160209182019101610e21565b60008060606000806122288a6136ff565b151561223357600080fd5b85600160a060020a0316638d0680436040518163ffffffff1660e060020a028152600401602060405180830381600087803b15801561227157600080fd5b505af1158015612285573d6000803e3d6000fd5b505050506040513d602081101561229b57600080fd5b505189519095508511156122ae57600080fd5b6122b78a613713565b9350846040519080825280602002602001820160405280156122e3578160200160208202803883390190505b509250600091505b84821015612478576001848a8481518110151561230457fe5b906020019060200201518a8581518110151561231c57fe5b906020019060200201518a8681518110151561233457fe5b60209081029091018101516040805160008082528185018084529790975260ff9095168582015260608501939093526080840152905160a0808401949293601f19830193908390039091019190865af1158015612395573d6000803e3d6000fd5b50505060206040510351905085600160a060020a031663facd743b826040518263ffffffff1660e060020a0281526004018082600160a060020a0316600160a060020a03168152602001915050602060405180830381600087803b1580156123fc57600080fd5b505af1158015612410573d6000803e3d6000fd5b505050506040513d602081101561242657600080fd5b5051151561243357600080fd5b61243d83826138d8565b1561244757600080fd5b80838381518110151561245657fe5b600160a060020a039092166020928302909101909101526001909101906122eb565b50505050505050505050565b600080600080612493856136ff565b151561249e57600080fd5b50505050601481015160348201516054830151606890930151919390929190565b80600460008460405160200180807f72656c617965644d657373616765730000000000000000000000000000000000815250600f0182600019166000191681526020019150506040516020818303038152906040526040518082805190602001908083835b602083106125435780518252601f199092019160209182019101612524565b51815160209384036101000a60001901801990921691161790526040805192909401829003909120865285019590955292909201600020805460ff1916941515949094179093555050505050565b6000806000806125b66125a2610dc3565b6125b18861125c611257610dc3565b613933565b6125d16125c1611dab565b8790600a0a63ffffffff6139ad16565b92506125db611e1e565b9150600160a060020a038216156126a857612682836000846040516020018080600080516020613e0c83398151915281525060080190506040516020818303038152906040526040518082805190602001908083835b602083106126505780518252601f199092019160209182019101612631565b6001836020036101000a03801982511681845116808217855250505050505090500191505060405180910390206139c2565b905080156126a857612695818387613a4d565b6126a5838263ffffffff613b5216565b92505b6126b0610714565b600160a060020a03166340c10f1988856040518363ffffffff1660e060020a0281526004018083600160a060020a0316600160a060020a0316815260200182815260200192505050602060405180830381600087803b15801561271257600080fd5b505af1158015612726573d6000803e3d6000fd5b505050506040513d602081101561273c57600080fd5b5051979650505050505050565b60006040516020018080600080516020613e0c83398151915281525060080190506040516020818303038152906040526040518082805190602001908083835b602083106127a85780518252601f199092019160209182019101612789565b5181516020939093036101000a6000190180199091169216919091179052604051920182900390912085149250612802915050577f286c406600000000000000000000000000000000000000000000000000000000612824565b7f34a9e148000000000000000000000000000000000000000000000000000000005b6040805160248082018790528251808303909101815260449091018252602081018051600160e060020a03167bffffffffffffffffffffffffffffffffffffffffffffffffffffffff19851617815291518151939450600160a060020a038816939192909182919080838360005b838110156128aa578181015183820152602001612892565b50505050905090810190601f1680156128d75780820380516001836020036101000a031916815260200191505b50915050600060405180830381855af491505015156128f557600080fd5b50505050565b6000903b1190565b600160a060020a03821615156129215761291c81613b64565b61292b565b61292b8282613bcf565b5050565b8181018281101561293c57fe5b92915050565b6000806000806060612952611e1e565b92506040516020018080600080516020613e0c83398151915281525060080190506040516020818303038152906040526040518082805190602001908083835b602083106129b15780518252601f199092019160209182019101612992565b5181516020939093036101000a6000190180199091169216919091179052604051920182900390912089149250612a0b915050577fffd6619600000000000000000000000000000000000000000000000000000000612a2d565b7f94da17cd000000000000000000000000000000000000000000000000000000005b60408051600481526024810190915260208082018051600160e060020a03167bffffffffffffffffffffffffffffffffffffffffffffffffffffffff19851617815282519395509193509160009182875af260005194508080156101df5750939695505050505050565b806000808460405160200180807f746f74616c5370656e74506572446179000000000000000000000000000000008152506010018281526020019150506040516020818303038152906040526040518082805190602001908083835b60208310612b125780518252601f199092019160209182019101612af3565b51815160209384036101000a60001901801990921691161790526040805192909401829003909120865285019590955292909201600020939093555050505050565b82600160a060020a03166342966c68826040518263ffffffff1660e060020a02815260040180828152602001915050600060405180830381600087803b158015612b9d57600080fd5b505af1158015612bb1573d6000803e3d6000fd5b505050506112408282613c6d565b612bc7610beb565b15612bd157600080fd5b612bda886128fb565b1515612be557600080fd5b6000866002815181101515612bf657fe5b90602001906020020151118015612c3c5750856002815181101515612c1757fe5b90602001906020020151866001815181101515612c3057fe5b90602001906020020151115b8015612c775750856001815181101515612c5257fe5b90602001906020020151866000815181101515612c6b57fe5b90602001906020020151115b1515612c8257600080fd5b60008411612c8f57600080fd5b60008511612c9c57600080fd5b826000815181101515612cab57fe5b90602001906020020151836001815181101515612cc457fe5b6020908102909101015110612cd857600080fd5b600160a060020a0382161515612ced57600080fd5b876002600060405160200180807f76616c696461746f72436f6e747261637400000000000000000000000000000081525060110190506040516020818303038152906040526040518082805190602001908083835b60208310612d615780518252601f199092019160209182019101612d42565b51815160209384036101000a60001901801990921691161790526040805192909401829003909120865285019590955292909201600020805473ffffffffffffffffffffffffffffffffffffffff1916600160a060020a03959095169490941790935550612dd29150889050613cb5565b856000815181101515612de157fe5b9060200190602002015160008060405160200180807f6461696c794c696d697400000000000000000000000000000000000000000000815250600a0190506040516020818303038152906040526040518082805190602001908083835b60208310612e5d5780518252601f199092019160209182019101612e3e565b51815160209384036101000a6000190180199092169116179052604080519290940182900390912086528581019690965250928301600090812095909555505080517f6465706c6f7965644174426c6f636b0000000000000000000000000000000000818401528151600f818303018152602f90910191829052805143949384939182918401908083835b60208310612f075780518252601f199092019160209182019101612ee8565b51815160209384036101000a6000190180199092169116179052604080519290940182900390912086528501959095529290920160002093909355505086518791506001908110612f5457fe5b9060200190602002015160008060405160200180807f6d6178506572547800000000000000000000000000000000000000000000000081525060080190506040516020818303038152906040526040518082805190602001908083835b60208310612fd05780518252601f199092019160209182019101612fb1565b51815160209384036101000a600019018019909216911617905260408051929094018290039091208652850195909552929092016000209390935550508651879150600290811061301d57fe5b9060200190602002015160008060405160200180807f6d696e506572547800000000000000000000000000000000000000000000000081525060080190506040516020818303038152906040526040518082805190602001908083835b602083106130995780518252601f19909201916020918201910161307a565b51815160209384036101000a6000190180199092169116179052604080519290940182900390912086528581019690965250928301600090812095909555505080517f67617350726963650000000000000000000000000000000000000000000000008184015281516008818303018152602890910191829052805189949384939182918401908083835b602083106131435780518252601f199092019160209182019101613124565b51815160209384036101000a6000190180199092169116179052604080519290940182900390912086528581019690965250928301600090812095909555505080517f7265717569726564426c6f636b436f6e6669726d6174696f6e73000000000000818401528151601a818303018152603a90910191829052805188949384939182918401908083835b602083106131ed5780518252601f1990920191602091820191016131ce565b51815160209384036101000a600019018019909216911617905260408051929094018290039091208652850195909552929092016000908120949094555050845185929150811061323a57fe5b9060200190602002015160008060405160200180807f657865637574696f6e4461696c794c696d69740000000000000000000000000081525060130190506040516020818303038152906040526040518082805190602001908083835b602083106132b65780518252601f199092019160209182019101613297565b51815160209384036101000a600019018019909216911617905260408051929094018290039091208652850195909552929092016000209390935550508351849150600190811061330357fe5b9060200190602002015160008060405160200180807f657865637574696f6e4d6178506572547800000000000000000000000000000081525060110190506040516020818303038152906040526040518082805190602001908083835b6020831061337f5780518252601f199092019160209182019101613360565b51815160209384036101000a6000190180199092169116179052604080519290940182900390912086528581019690965250928301600090812095909555505080517f646563696d616c53686966740000000000000000000000000000000000000000818401528151600c818303018152602c90910191829052805185949384939182918401908083835b602083106134295780518252601f19909201916020918201910161340a565b51815160209384036101000a6000190180199092169116179052604080519290940182900390912086528501959095529290920160002093909355506134729150839050613641565b6040805185815290517f4fb76205cd57c896b21511d2114137d8e901b4ccd659e1a0f97d6306795264fb9181900360200190a16040805186815290517f52264b89e0fceafb26e79fd49ef8a366eb6297483bf4035b027f0c99a7ad512e9181900360200190a17fad4123ae17c414d9c6d2fec478b402e6b01856cc250fd01fbfd252fda0089d3c86600081518110151561350857fe5b906020019060200201516040518082815260200191505060405180910390a17f9bebf928b90863f24cc31f726a3a7545efd409f1dcf552301b1ee3710da70d3b83600081518110151561355757fe5b906020019060200201516040518082815260200191505060405180910390a15050505050505050565b60016004600060405160200180807f6973496e697469616c697a656400000000000000000000000000000000000000815250600d0190506040516020818303038152906040526040518082805190602001908083835b602083106135f55780518252601f1990920191602091820191016135d6565b51815160209384036101000a60001901801990921691161790526040805192909401829003909120865285019590955292909201600020805460ff191694151594909417909355505050565b7f8be0079c531659141344cd1fd0a4f28419497f9722a3daafe3b4186f6b6457e061366a61137a565b60408051600160a060020a03928316815291841660208301528051918290030190a1806002600060405160200180807f6f776e65720000000000000000000000000000000000000000000000000000008152506005019050604051602081830303815290604052604051808280519060200190808383602083106110c65780518252601f1990920191602091820191016110a7565b6000613709613d3c565b8251149050919050565b604080518082018252601a81527f19457468657265756d205369676e6564204d6573736167653a0a000000000000602080830191825283518085018552600381527f313034000000000000000000000000000000000000000000000000000000000081830152935183516000959385938593899391019182918083835b602083106137af5780518252601f199092019160209182019101613790565b51815160209384036101000a600019018019909216911617905286519190930192860191508083835b602083106137f75780518252601f1990920191602091820191016137d8565b51815160209384036101000a600019018019909216911617905285519190930192850191508083835b6020831061383f5780518252601f199092019160209182019101613820565b6001836020036101000a03801982511681845116808217855250505050505090500193505050506040516020818303038152906040526040518082805190602001908083835b602083106138a45780518252601f199092019160209182019101613885565b5181516020939093036101000a60001901801990911692169190911790526040519201829003909120979650505050505050565b6000805b83518110156139275782600160a060020a031684828151811015156138fd57fe5b90602001906020020151600160a060020a0316141561391f576001915061392c565b6001016138dc565b600091505b5092915050565b806000808460405160200180807f746f74616c45786563757465645065724461790000000000000000000000000081525060130182815260200191505060405160208183030381529060405260405180828051906020019080838360208310612b125780518252601f199092019160209182019101612af3565b600081838115156139ba57fe5b049392505050565b60408051602481018690528415156044820152606480820184905282518083039091018152608490910190915260208181018051600160e060020a03167f9862f26f000000000000000000000000000000000000000000000000000000001781528251600093849390929091849182895af260005192508080156101df575091979650505050505050565b6040805160248082018690528251808303909101815260449091018252602081018051600160e060020a03167f59d784640000000000000000000000000000000000000000000000000000000017815291518151600160a060020a03861693829180838360005b83811015613acc578181015183820152602001613ab4565b50505050905090810190601f168015613af95780820380516001836020036101000a031916815260200191505b50915050600060405180830381855af49150501515613b1757600080fd5b60408051848152905182917f858abdcd5efcaebb936e8e8516f0cfe9a0ef5157ff99d16cdabb6db625be90d0919081900360200190a2505050565b600082821115613b5e57fe5b50900390565b604051303190600160a060020a0383169082156108fc029083906000818181858888f19350505050151561292b578082613b9c613ddb565b600160a060020a039091168152604051908190036020019082f080158015613bc8573d6000803e3d6000fd5b5050505050565b604080517f70a0823100000000000000000000000000000000000000000000000000000000815230600482015290518391600091600160a060020a038416916370a0823191602480830192602092919082900301818787803b158015613c3457600080fd5b505af1158015613c48573d6000803e3d6000fd5b505050506040513d6020811015613c5e57600080fd5b505190506128f5848483613d41565b60408051600160a060020a03841681526020810183905281517f1d491a427d1f8cc0d447496f300fac39f7306122481d8e663451eb268274146b929181900390910190a15050565b613cbe816128fb565b1515613cc957600080fd5b806002600060405160200180807f657263363737746f6b656e000000000000000000000000000000000000000000815250600b019050604051602081830303815290604052604051808280519060200190808383602083106110c65780518252601f1990920191602091820191016110a7565b606890565b60408051600160a060020a0384166024820152604480820184905282518083039091018152606490910190915260208181018051600160e060020a03167fa9059cbb000000000000000000000000000000000000000000000000000000001781528251606093600093909290918491828a5af160005193508392508080156101df5750506000835111156114f5578115156114f557600080fd5b604051602180613deb833901905600608060405260405160208060218339810160405251600160a060020a038116ff00686f6d652d666565000000000000000000000000000000000000000000000000a165627a7a723058209943803992ded6584bf884b44d06eb90540f6a6f12db35cee58a1bd6cdcb93570029",
  "source": "pragma solidity 0.4.24;\n\nimport \"../../interfaces/IBurnableMintableERC677Token.sol\";\nimport \"../BasicForeignBridge.sol\";\nimport \"openzeppelin-solidity/contracts/token/ERC20/ERC20Basic.sol\";\nimport \"../ERC677BridgeForBurnableMintableToken.sol\";\nimport \"./RewardableForeignBridgeNativeToErc.sol\";\n\ncontract ForeignBridgeNativeToErc is\n    BasicForeignBridge,\n    ERC677BridgeForBurnableMintableToken,\n    RewardableForeignBridgeNativeToErc\n{\n    /// Event created on money withdraw.\n    event UserRequestForAffirmation(address recipient, uint256 value);\n\n    function initialize(\n        address _validatorContract,\n        address _erc677token,\n        uint256[] _dailyLimitMaxPerTxMinPerTxArray, // [ 0 = _dailyLimit, 1 = _maxPerTx, 2 = _minPerTx ]\n        uint256 _foreignGasPrice,\n        uint256 _requiredBlockConfirmations,\n        uint256[] _homeDailyLimitHomeMaxPerTxArray, // [ 0 = _homeDailyLimit, 1 = _homeMaxPerTx ]\n        address _owner,\n        uint256 _decimalShift\n    ) external returns (bool) {\n        _initialize(\n            _validatorContract,\n            _erc677token,\n            _dailyLimitMaxPerTxMinPerTxArray,\n            _foreignGasPrice,\n            _requiredBlockConfirmations,\n            _homeDailyLimitHomeMaxPerTxArray,\n            _owner,\n            _decimalShift\n        );\n        setInitialize();\n        return isInitialized();\n    }\n\n    function rewardableInitialize(\n        address _validatorContract,\n        address _erc677token,\n        uint256[] _dailyLimitMaxPerTxMinPerTxArray, // [ 0 = _dailyLimit, 1 = _maxPerTx, 2 = _minPerTx ]\n        uint256 _foreignGasPrice,\n        uint256 _requiredBlockConfirmations,\n        uint256[] _homeDailyLimitHomeMaxPerTxArray, // [ 0 = _homeDailyLimit, 1 = _homeMaxPerTx ]\n        address _owner,\n        address _feeManager,\n        uint256 _homeFee,\n        uint256 _decimalShift\n    ) external returns (bool) {\n        _initialize(\n            _validatorContract,\n            _erc677token,\n            _dailyLimitMaxPerTxMinPerTxArray,\n            _foreignGasPrice,\n            _requiredBlockConfirmations,\n            _homeDailyLimitHomeMaxPerTxArray,\n            _owner,\n            _decimalShift\n        );\n        require(AddressUtils.isContract(_feeManager));\n        addressStorage[FEE_MANAGER_CONTRACT] = _feeManager;\n        _setFee(_feeManager, _homeFee, HOME_FEE);\n        setInitialize();\n        return isInitialized();\n    }\n\n    function getBridgeMode() external pure returns (bytes4 _data) {\n        return bytes4(keccak256(abi.encodePacked(\"native-to-erc-core\")));\n    }\n\n    function claimTokensFromErc677(address _token, address _to) external onlyIfUpgradeabilityOwner {\n        IBurnableMintableERC677Token(erc677token()).claimTokens(_token, _to);\n    }\n\n    function _initialize(\n        address _validatorContract,\n        address _erc677token,\n        uint256[] _dailyLimitMaxPerTxMinPerTxArray, // [ 0 = _dailyLimit, 1 = _maxPerTx, 2 = _minPerTx ]\n        uint256 _foreignGasPrice,\n        uint256 _requiredBlockConfirmations,\n        uint256[] _homeDailyLimitHomeMaxPerTxArray, // [ 0 = _homeDailyLimit, 1 = _homeMaxPerTx ]\n        address _owner,\n        uint256 _decimalShift\n    ) internal {\n        require(!isInitialized());\n        require(AddressUtils.isContract(_validatorContract));\n        require(\n            _dailyLimitMaxPerTxMinPerTxArray[2] > 0 && // _minPerTx > 0\n                _dailyLimitMaxPerTxMinPerTxArray[1] > _dailyLimitMaxPerTxMinPerTxArray[2] && // _maxPerTx > _minPerTx\n                _dailyLimitMaxPerTxMinPerTxArray[0] > _dailyLimitMaxPerTxMinPerTxArray[1] // _dailyLimit > _maxPerTx\n        );\n        require(_requiredBlockConfirmations > 0);\n        require(_foreignGasPrice > 0);\n        require(_homeDailyLimitHomeMaxPerTxArray[1] < _homeDailyLimitHomeMaxPerTxArray[0]); // _homeMaxPerTx < _homeDailyLimit\n        require(_owner != address(0));\n\n        addressStorage[VALIDATOR_CONTRACT] = _validatorContract;\n        setErc677token(_erc677token);\n        uintStorage[DAILY_LIMIT] = _dailyLimitMaxPerTxMinPerTxArray[0];\n        uintStorage[DEPLOYED_AT_BLOCK] = block.number;\n        uintStorage[MAX_PER_TX] = _dailyLimitMaxPerTxMinPerTxArray[1];\n        uintStorage[MIN_PER_TX] = _dailyLimitMaxPerTxMinPerTxArray[2];\n        uintStorage[GAS_PRICE] = _foreignGasPrice;\n        uintStorage[REQUIRED_BLOCK_CONFIRMATIONS] = _requiredBlockConfirmations;\n        uintStorage[EXECUTION_DAILY_LIMIT] = _homeDailyLimitHomeMaxPerTxArray[0];\n        uintStorage[EXECUTION_MAX_PER_TX] = _homeDailyLimitHomeMaxPerTxArray[1];\n        uintStorage[DECIMAL_SHIFT] = _decimalShift;\n        setOwner(_owner);\n\n        emit RequiredBlockConfirmationChanged(_requiredBlockConfirmations);\n        emit GasPriceChanged(_foreignGasPrice);\n        emit DailyLimitChanged(_dailyLimitMaxPerTxMinPerTxArray[0]);\n        emit ExecutionDailyLimitChanged(_homeDailyLimitHomeMaxPerTxArray[0]);\n    }\n\n    function onExecuteMessage(address _recipient, uint256 _amount, bytes32 _txHash) internal returns (bool) {\n        setTotalExecutedPerDay(getCurrentDay(), totalExecutedPerDay(getCurrentDay()).add(_amount));\n        uint256 valueToMint = _amount.div(10 ** decimalShift());\n        address feeManager = feeManagerContract();\n        if (feeManager != address(0)) {\n            uint256 fee = calculateFee(valueToMint, false, feeManager, HOME_FEE);\n            if (fee != 0) {\n                distributeFeeFromSignatures(fee, feeManager, _txHash);\n                valueToMint = valueToMint.sub(fee);\n            }\n        }\n        return IBurnableMintableERC677Token(erc677token()).mint(_recipient, valueToMint);\n    }\n\n    function fireEventOnTokenTransfer(address _from, uint256 _value) internal {\n        emit UserRequestForAffirmation(_from, _value);\n    }\n\n    function onFailedMessage(address, uint256, bytes32) internal {\n        revert();\n    }\n}\n",
  "sourcePath": "/mono/contracts/contracts/upgradeable_contracts/native_to_erc20/ForeignBridgeNativeToErc.sol",
  "compiler": {
    "name": "solc",
    "version": "0.4.24+commit.e67f0147.Emscripten.clang"
  },
  "schemaVersion": "3.0.11",
  "updatedAt": "2019-09-03T09:43:49.716Z",
  "devdoc": {
    "methods": {
      "owner()": {
        "details": "Tells the address of the owner",
        "return": "the address of the owner"
      },
      "transferOwnership(address)": {
        "details": "Allows the current owner to transfer control of the contract to a newOwner.",
        "params": {
          "newOwner": "the address to transfer ownership to."
        }
      }
    }
  },
  "userdoc": {
    "methods": {}
  }
}