{
  "contractName": "ForeignBridgeV2",
  "abi": [
    {
      "constant": true,
      "inputs": [],
      "name": "erc677token",
      "outputs": [
        {
          "name": "",
          "type": "address"
        }
      ],
      "payable": false,
      "stateMutability": "view",
      "type": "function"
    },
    {
      "constant": true,
      "inputs": [
        {
          "name": "_txHash",
          "type": "bytes32"
        }
      ],
      "name": "relayedMessages",
      "outputs": [
        {
          "name": "",
          "type": "bool"
        }
      ],
      "payable": false,
      "stateMutability": "view",
      "type": "function"
    },
    {
      "constant": false,
      "inputs": [
        {
          "name": "vs",
          "type": "uint8[]"
        },
        {
          "name": "rs",
          "type": "bytes32[]"
        },
        {
          "name": "ss",
          "type": "bytes32[]"
        },
        {
          "name": "message",
          "type": "bytes"
        }
      ],
      "name": "executeSignatures",
      "outputs": [],
      "payable": false,
      "stateMutability": "nonpayable",
      "type": "function"
    },
    {
      "constant": true,
      "inputs": [
        {
          "name": "_day",
          "type": "uint256"
        }
      ],
      "name": "totalSpentPerDay",
      "outputs": [
        {
          "name": "",
          "type": "uint256"
        }
      ],
      "payable": false,
      "stateMutability": "view",
      "type": "function"
    },
    {
      "constant": false,
      "inputs": [
        {
          "name": "_fee",
          "type": "uint256"
        }
      ],
      "name": "setHomeFee",
      "outputs": [],
      "payable": false,
      "stateMutability": "nonpayable",
      "type": "function"
    },
    {
      "constant": true,
      "inputs": [],
      "name": "isInitialized",
      "outputs": [
        {
          "name": "",
          "type": "bool"
        }
      ],
      "payable": false,
      "stateMutability": "view",
      "type": "function"
    },
    {
      "constant": false,
      "inputs": [
        {
          "name": "_dailyLimit",
          "type": "uint256"
        }
      ],
      "name": "setExecutionDailyLimit",
      "outputs": [],
      "payable": false,
      "stateMutability": "nonpayable",
      "type": "function"
    },
    {
      "constant": true,
      "inputs": [],
      "name": "getCurrentDay",
      "outputs": [
        {
          "name": "",
          "type": "uint256"
        }
      ],
      "payable": false,
      "stateMutability": "view",
      "type": "function"
    },
    {
      "constant": true,
      "inputs": [],
      "name": "requiredBlockConfirmations",
      "outputs": [
        {
          "name": "",
          "type": "uint256"
        }
      ],
      "payable": false,
      "stateMutability": "view",
      "type": "function"
    },
    {
      "constant": true,
      "inputs": [],
      "name": "getBridgeMode",
      "outputs": [
        {
          "name": "_data",
          "type": "bytes4"
        }
      ],
      "payable": false,
      "stateMutability": "pure",
      "type": "function"
    },
    {
      "constant": true,
      "inputs": [],
      "name": "executionDailyLimit",
      "outputs": [
        {
          "name": "",
          "type": "uint256"
        }
      ],
      "payable": false,
      "stateMutability": "view",
      "type": "function"
    },
    {
      "constant": true,
      "inputs": [
        {
          "name": "_day",
          "type": "uint256"
        }
      ],
      "name": "totalExecutedPerDay",
      "outputs": [
        {
          "name": "",
          "type": "uint256"
        }
      ],
      "payable": false,
      "stateMutability": "view",
      "type": "function"
    },
    {
      "constant": false,
      "inputs": [
        {
          "name": "_feeManager",
          "type": "address"
        }
      ],
      "name": "setFeeManagerContract",
      "outputs": [],
      "payable": false,
      "stateMutability": "nonpayable",
      "type": "function"
    },
    {
      "constant": true,
      "inputs": [],
      "name": "dailyLimit",
      "outputs": [
        {
          "name": "",
          "type": "uint256"
        }
      ],
      "payable": false,
      "stateMutability": "view",
      "type": "function"
    },
    {
      "constant": false,
      "inputs": [
        {
          "name": "_token",
          "type": "address"
        },
        {
          "name": "_to",
          "type": "address"
        }
      ],
      "name": "claimTokens",
      "outputs": [],
      "payable": false,
      "stateMutability": "nonpayable",
      "type": "function"
    },
    {
      "constant": true,
      "inputs": [
        {
          "name": "_amount",
          "type": "uint256"
        }
      ],
      "name": "withinExecutionLimit",
      "outputs": [
        {
          "name": "",
          "type": "bool"
        }
      ],
      "payable": false,
      "stateMutability": "view",
      "type": "function"
    },
    {
      "constant": true,
      "inputs": [],
      "name": "executionMaxPerTx",
      "outputs": [
        {
          "name": "",
          "type": "uint256"
        }
      ],
      "payable": false,
      "stateMutability": "view",
      "type": "function"
    },
    {
      "constant": true,
      "inputs": [],
      "name": "requiredSignatures",
      "outputs": [
        {
          "name": "",
          "type": "uint256"
        }
      ],
      "payable": false,
      "stateMutability": "view",
      "type": "function"
    },
    {
      "constant": true,
      "inputs": [],
      "name": "owner",
      "outputs": [
        {
          "name": "",
          "type": "address"
        }
      ],
      "payable": false,
      "stateMutability": "view",
      "type": "function"
    },
    {
      "constant": false,
      "inputs": [
        {
          "name": "_token",
          "type": "address"
        },
        {
          "name": "_to",
          "type": "address"
        }
      ],
      "name": "claimTokensFromErc677",
      "outputs": [],
      "payable": false,
      "stateMutability": "nonpayable",
      "type": "function"
    },
    {
      "constant": true,
      "inputs": [],
      "name": "getHomeFee",
      "outputs": [
        {
          "name": "",
          "type": "uint256"
        }
      ],
      "payable": false,
      "stateMutability": "view",
      "type": "function"
    },
    {
      "constant": true,
      "inputs": [],
      "name": "validatorContract",
      "outputs": [
        {
          "name": "",
          "type": "address"
        }
      ],
      "payable": false,
      "stateMutability": "view",
      "type": "function"
    },
    {
      "constant": true,
      "inputs": [],
      "name": "deployedAtBlock",
      "outputs": [
        {
          "name": "",
          "type": "uint256"
        }
      ],
      "payable": false,
      "stateMutability": "view",
      "type": "function"
    },
    {
      "constant": true,
      "inputs": [],
      "name": "getBridgeInterfacesVersion",
      "outputs": [
        {
          "name": "major",
          "type": "uint64"
        },
        {
          "name": "minor",
          "type": "uint64"
        },
        {
          "name": "patch",
          "type": "uint64"
        }
      ],
      "payable": false,
      "stateMutability": "pure",
      "type": "function"
    },
    {
      "constant": false,
      "inputs": [
        {
          "name": "_minPerTx",
          "type": "uint256"
        }
      ],
      "name": "setMinPerTx",
      "outputs": [],
      "payable": false,
      "stateMutability": "nonpayable",
      "type": "function"
    },
    {
      "constant": false,
      "inputs": [
        {
          "name": "_from",
          "type": "address"
        },
        {
          "name": "_value",
          "type": "uint256"
        },
        {
          "name": "",
          "type": "bytes"
        }
      ],
      "name": "onTokenTransfer",
      "outputs": [
        {
          "name": "",
          "type": "bool"
        }
      ],
      "payable": false,
      "stateMutability": "nonpayable",
      "type": "function"
    },
    {
      "constant": true,
      "inputs": [],
      "name": "something",
      "outputs": [
        {
          "name": "",
          "type": "address"
        }
      ],
      "payable": false,
      "stateMutability": "view",
      "type": "function"
    },
    {
      "constant": false,
      "inputs": [
        {
          "name": "_blockConfirmations",
          "type": "uint256"
        }
      ],
      "name": "setRequiredBlockConfirmations",
      "outputs": [],
      "payable": false,
      "stateMutability": "nonpayable",
      "type": "function"
    },
    {
      "constant": false,
      "inputs": [
        {
          "name": "_dailyLimit",
          "type": "uint256"
        }
      ],
      "name": "setDailyLimit",
      "outputs": [],
      "payable": false,
      "stateMutability": "nonpayable",
      "type": "function"
    },
    {
      "constant": false,
      "inputs": [
        {
          "name": "_gasPrice",
          "type": "uint256"
        }
      ],
      "name": "setGasPrice",
      "outputs": [],
      "payable": false,
      "stateMutability": "nonpayable",
      "type": "function"
    },
    {
      "constant": false,
      "inputs": [
        {
          "name": "_validatorContract",
          "type": "address"
        },
        {
          "name": "_erc677token",
          "type": "address"
        },
        {
          "name": "_dailyLimitMaxPerTxMinPerTxArray",
          "type": "uint256[]"
        },
        {
          "name": "_foreignGasPrice",
          "type": "uint256"
        },
        {
          "name": "_requiredBlockConfirmations",
          "type": "uint256"
        },
        {
          "name": "_homeDailyLimitHomeMaxPerTxArray",
          "type": "uint256[]"
        },
        {
          "name": "_owner",
          "type": "address"
        },
        {
          "name": "_feeManager",
          "type": "address"
        },
        {
          "name": "_homeFee",
          "type": "uint256"
        },
        {
          "name": "_decimalShift",
          "type": "uint256"
        }
      ],
      "name": "rewardableInitialize",
      "outputs": [
        {
          "name": "",
          "type": "bool"
        }
      ],
      "payable": false,
      "stateMutability": "nonpayable",
      "type": "function"
    },
    {
      "constant": false,
      "inputs": [
        {
          "name": "_maxPerTx",
          "type": "uint256"
        }
      ],
      "name": "setMaxPerTx",
      "outputs": [],
      "payable": false,
      "stateMutability": "nonpayable",
      "type": "function"
    },
    {
      "constant": true,
      "inputs": [],
      "name": "decimalShift",
      "outputs": [
        {
          "name": "",
          "type": "uint256"
        }
      ],
      "payable": false,
      "stateMutability": "view",
      "type": "function"
    },
    {
      "constant": true,
      "inputs": [],
      "name": "feeManagerContract",
      "outputs": [
        {
          "name": "",
          "type": "address"
        }
      ],
      "payable": false,
      "stateMutability": "view",
      "type": "function"
    },
    {
      "constant": true,
      "inputs": [],
      "name": "minPerTx",
      "outputs": [
        {
          "name": "",
          "type": "uint256"
        }
      ],
      "payable": false,
      "stateMutability": "view",
      "type": "function"
    },
    {
      "constant": true,
      "inputs": [
        {
          "name": "_amount",
          "type": "uint256"
        }
      ],
      "name": "withinLimit",
      "outputs": [
        {
          "name": "",
          "type": "bool"
        }
      ],
      "payable": false,
      "stateMutability": "view",
      "type": "function"
    },
    {
      "constant": false,
      "inputs": [
        {
          "name": "_maxPerTx",
          "type": "uint256"
        }
      ],
      "name": "setExecutionMaxPerTx",
      "outputs": [],
      "payable": false,
      "stateMutability": "nonpayable",
      "type": "function"
    },
    {
      "constant": true,
      "inputs": [],
      "name": "getFeeManagerMode",
      "outputs": [
        {
          "name": "",
          "type": "bytes4"
        }
      ],
      "payable": false,
      "stateMutability": "view",
      "type": "function"
    },
    {
      "constant": false,
      "inputs": [
        {
          "name": "newOwner",
          "type": "address"
        }
      ],
      "name": "transferOwnership",
      "outputs": [],
      "payable": false,
      "stateMutability": "nonpayable",
      "type": "function"
    },
    {
      "constant": true,
      "inputs": [],
      "name": "maxPerTx",
      "outputs": [
        {
          "name": "",
          "type": "uint256"
        }
      ],
      "payable": false,
      "stateMutability": "view",
      "type": "function"
    },
    {
      "constant": false,
      "inputs": [
        {
          "name": "_validatorContract",
          "type": "address"
        },
        {
          "name": "_erc677token",
          "type": "address"
        },
        {
          "name": "_dailyLimitMaxPerTxMinPerTxArray",
          "type": "uint256[]"
        },
        {
          "name": "_foreignGasPrice",
          "type": "uint256"
        },
        {
          "name": "_requiredBlockConfirmations",
          "type": "uint256"
        },
        {
          "name": "_homeDailyLimitHomeMaxPerTxArray",
          "type": "uint256[]"
        },
        {
          "name": "_owner",
          "type": "address"
        },
        {
          "name": "_decimalShift",
          "type": "uint256"
        }
      ],
      "name": "initialize",
      "outputs": [
        {
          "name": "",
          "type": "bool"
        }
      ],
      "payable": false,
      "stateMutability": "nonpayable",
      "type": "function"
    },
    {
      "constant": true,
      "inputs": [],
      "name": "gasPrice",
      "outputs": [
        {
          "name": "",
          "type": "uint256"
        }
      ],
      "payable": false,
      "stateMutability": "view",
      "type": "function"
    },
    {
      "anonymous": false,
      "inputs": [
        {
          "indexed": false,
          "name": "recipient",
          "type": "address"
        },
        {
          "indexed": false,
          "name": "value",
          "type": "uint256"
        }
      ],
      "name": "UserRequestForAffirmation",
      "type": "event"
    },
    {
      "anonymous": false,
      "inputs": [
        {
          "indexed": false,
          "name": "feeAmount",
          "type": "uint256"
        },
        {
          "indexed": true,
          "name": "transactionHash",
          "type": "bytes32"
        }
      ],
      "name": "FeeDistributedFromAffirmation",
      "type": "event"
    },
    {
      "anonymous": false,
      "inputs": [
        {
          "indexed": false,
          "name": "feeAmount",
          "type": "uint256"
        },
        {
          "indexed": true,
          "name": "transactionHash",
          "type": "bytes32"
        }
      ],
      "name": "FeeDistributedFromSignatures",
      "type": "event"
    },
    {
      "anonymous": false,
      "inputs": [
        {
          "indexed": false,
          "name": "recipient",
          "type": "address"
        },
        {
          "indexed": false,
          "name": "value",
          "type": "uint256"
        },
        {
          "indexed": false,
          "name": "transactionHash",
          "type": "bytes32"
        }
      ],
      "name": "RelayedMessage",
      "type": "event"
    },
    {
      "anonymous": false,
      "inputs": [
        {
          "indexed": false,
          "name": "gasPrice",
          "type": "uint256"
        }
      ],
      "name": "GasPriceChanged",
      "type": "event"
    },
    {
      "anonymous": false,
      "inputs": [
        {
          "indexed": false,
          "name": "requiredBlockConfirmations",
          "type": "uint256"
        }
      ],
      "name": "RequiredBlockConfirmationChanged",
      "type": "event"
    },
    {
      "anonymous": false,
      "inputs": [
        {
          "indexed": false,
          "name": "newLimit",
          "type": "uint256"
        }
      ],
      "name": "DailyLimitChanged",
      "type": "event"
    },
    {
      "anonymous": false,
      "inputs": [
        {
          "indexed": false,
          "name": "newLimit",
          "type": "uint256"
        }
      ],
      "name": "ExecutionDailyLimitChanged",
      "type": "event"
    },
    {
      "anonymous": false,
      "inputs": [
        {
          "indexed": false,
          "name": "previousOwner",
          "type": "address"
        },
        {
          "indexed": false,
          "name": "newOwner",
          "type": "address"
        }
      ],
      "name": "OwnershipTransferred",
      "type": "event"
    },
    {
      "constant": false,
      "inputs": [
        {
          "name": "_newTokenOwner",
          "type": "address"
        }
      ],
      "name": "changeTokenOwnership",
      "outputs": [],
      "payable": false,
      "stateMutability": "nonpayable",
      "type": "function"
    },
    {
      "constant": false,
      "inputs": [
        {
          "name": "_newTokenOwner",
          "type": "address"
        }
      ],
      "name": "doSomething",
      "outputs": [],
      "payable": false,
      "stateMutability": "nonpayable",
      "type": "function"
    }
  ],
  "bytecode": "0x608060405234801561001057600080fd5b50613fcd806100206000396000f3006080604052600436106102005763ffffffff60e060020a60003504166318d8f9c9811461020557806321d800ec14610236578063232a2c1d146102625780632bd0bb05146102a857806334a9e148146102d2578063392e53cd146102ea5780633dd95d1b146102ff5780633e6968b6146103175780633f0a9f651461032c578063437764df1461034157806343b37dd3146103885780634fb3fef71461039d57806360756f7c146103b557806367eeba0c146103d657806369ffa08a146103eb578063879ce676146104125780638aa1949a1461042a5780638d0680431461043f5780638da5cb5b146104545780639313dc431461046957806394da17cd1461049057806399439089146104a55780639a454b99146104ba5780639cb7595a146104cf5780639e629f6c14610510578063a2a6ca2714610531578063a4c0ed3614610549578063a7a0d5371461057a578063acf5c6891461058f578063b20d30a9146105a7578063bf1fe420146105bf578063bf740b69146105d7578063c6f6f21614610633578063dae5f0fd1461064b578063dbe03a8b14610660578063df25f3f014610675578063e60c2d441461068a578063ea9f4968146106ab578063f20151e1146106c3578063f2ba9561146106db578063f2fde38b146106f0578063f968adbe14610711578063fc7b6aed14610726578063fe173b9714610777575b600080fd5b34801561021157600080fd5b5061021a61078c565b60408051600160a060020a039092168252519081900360200190f35b34801561024257600080fd5b5061024e60043561084a565b604080519115158252519081900360200190f35b34801561026e57600080fd5b506102a66024600480358281019290820135918135808301929082013591604435808301929082013591606435918201910135610913565b005b3480156102b457600080fd5b506102c0600435610aec565b60408051918252519081900360200190f35b3480156102de57600080fd5b506102a6600435610ba9565b3480156102f657600080fd5b5061024e610c63565b34801561030b57600080fd5b506102a6600435610d1b565b34801561032357600080fd5b506102c0610e3b565b34801561033857600080fd5b506102c0610e44565b34801561034d57600080fd5b50610356610ef8565b604080517bffffffffffffffffffffffffffffffffffffffffffffffffffffffff199092168252519081900360200190f35b34801561039457600080fd5b506102c0610f9b565b3480156103a957600080fd5b506102c060043561100e565b3480156103c157600080fd5b506102a6600160a060020a0360043516611089565b3480156103e257600080fd5b506102c06111a7565b3480156103f757600080fd5b506102a6600160a060020a036004358116906024351661121a565b34801561041e57600080fd5b5061024e6004356112bd565b34801561043657600080fd5b506102c0611307565b34801561044b57600080fd5b506102c061137a565b34801561046057600080fd5b5061021a6113f2565b34801561047557600080fd5b506102a6600160a060020a0360043581169060243516611466565b34801561049c57600080fd5b506102c0611575565b3480156104b157600080fd5b5061021a61160e565b3480156104c657600080fd5b506102c0611682565b3480156104db57600080fd5b506104e46116f5565b6040805167ffffffffffffffff9485168152928416602084015292168183015290519081900360600190f35b34801561051c57600080fd5b506102a6600160a060020a0360043516611700565b34801561053d57600080fd5b506102a66004356117a4565b34801561055557600080fd5b5061024e60048035600160a060020a031690602480359160443591820191013561189b565b34801561058657600080fd5b5061021a61190c565b34801561059b57600080fd5b506102a660043561191b565b3480156105b357600080fd5b506102a6600435611a2a565b3480156105cb57600080fd5b506102a6600435611b4a565b3480156105e357600080fd5b5061024e60048035600160a060020a039081169160248035831692604435808301939081013592606435926084359260a4359283019201359060c43581169060e435166101043561012435611c59565b34801561063f57600080fd5b506102a6600435611e35565b34801561065757600080fd5b506102c0611ed6565b34801561066c57600080fd5b5061021a611f49565b34801561068157600080fd5b506102c0611fbd565b34801561069657600080fd5b506102a6600160a060020a0360043516612030565b3480156106b757600080fd5b5061024e60043561207b565b3480156106cf57600080fd5b506102a66004356120c6565b3480156106e757600080fd5b50610356612167565b3480156106fc57600080fd5b506102a6600160a060020a03600435166121de565b34801561071d57600080fd5b506102c0612218565b34801561073257600080fd5b5061024e60048035600160a060020a039081169160248035831692604435808301939081013592606435926084359260a4359283019201359060c4351660e43561228b565b34801561078357600080fd5b506102c061231a565b60006002600060405160200180807f657263363737746f6b656e000000000000000000000000000000000000000000815250600b0190506040516020818303038152906040526040518082805190602001908083835b602083106108015780518252601f1990920191602091820191016107e2565b51815160209384036101000a6000190180199092169116179052604080519290940182900390912086528501959095529290920160002054600160a060020a0316949350505050565b6000600460008360405160200180807f72656c617965644d657373616765730000000000000000000000000000000000815250600f0182600019166000191681526020019150506040516020818303038152906040526040518082805190602001908083835b602083106108cf5780518252601f1990920191602091820191016108b0565b51815160209384036101000a600019018019909216911617905260408051929094018290039091208652850195909552929092016000205460ff1695945050505050565b6000806000806109eb86868080601f0160208091040260200160405190810160405280939291908181526020018383808284378201915050505050508d8d808060200260200160405190810160405280939291908181526020018383602002808284378201915050505050508c8c808060200260200160405190810160405280939291908181526020018383602002808284378201915050505050508b8b80806020026020016040519081016040528093929190818152602001838360200280828437506109e6945061160e9350505050565b61238d565b610a2486868080601f016020809104026020016040519081016040528093929190818152602001838380828437506125fa945050505050565b92965090945092509050610a37836112bd565b15610ad357600160a060020a0381163014610a5157600080fd5b610a5a8261084a565b15610a6457600080fd5b610a6f826001612635565b610a7a848484612707565b1515610a8557600080fd5b60408051600160a060020a03861681526020810185905280820184905290517f4ab7d581336d92edbea22636a613e8e76c99ac7f91137c1523db38dbfb3bf3299181900360600190a1610ade565b610ade848484610200565b505050505050505050505050565b60008060008360405160200180807f746f74616c5370656e74506572446179000000000000000000000000000000008152506010018281526020019150506040516020818303038152906040526040518082805190602001908083835b60208310610b685780518252601f199092019160209182019101610b49565b51815160209384036101000a600019018019909216911617905260408051929094018290039091208652850195909552929092016000205495945050505050565b610bb16113f2565b600160a060020a03163314610bc557600080fd5b610c60610bd0611f49565b826040516020018080600080516020613f8283398151915281525060080190506040516020818303038152906040526040518082805190602001908083835b60208310610c2e5780518252601f199092019160209182019101610c0f565b6001836020036101000a03801982511681845116808217855250505050505090500191505060405180910390206128bf565b50565b60006004600060405160200180807f6973496e697469616c697a656400000000000000000000000000000000000000815250600d0190506040516020818303038152906040526040518082805190602001908083835b60208310610cd85780518252601f199092019160209182019101610cb9565b51815160209384036101000a600019018019909216911617905260408051929094018290039091208652850195909552929092016000205460ff16949350505050565b610d236113f2565b600160a060020a03163314610d3757600080fd5b610d3f611307565b811180610d4a575080155b1515610d5557600080fd5b8060008060405160200180807f657865637574696f6e4461696c794c696d69740000000000000000000000000081525060130190506040516020818303038152906040526040518082805190602001908083835b60208310610dc85780518252601f199092019160209182019101610da9565b51815160001960209485036101000a019081169019919091161790526040805194909201849003909320865285830196909652509284016000209490945550815184815291517f9bebf928b90863f24cc31f726a3a7545efd409f1dcf552301b1ee3710da70d3b9350918290030190a150565b62015180420490565b600080600060405160200180807f7265717569726564426c6f636b436f6e6669726d6174696f6e73000000000000815250601a0190506040516020818303038152906040526040518082805190602001908083835b60208310610eb85780518252601f199092019160209182019101610e99565b51815160209384036101000a6000190180199092169116179052604080519290940182900390912086528501959095529290920160002054949350505050565b600060405160200180807f6e61746976652d746f2d6572632d636f7265000000000000000000000000000081525060120190506040516020818303038152906040526040518082805190602001908083835b60208310610f695780518252601f199092019160209182019101610f4a565b6001836020036101000a0380198251168184511680821785525050505050509050019150506040518091039020905090565b600080600060405160200180807f657865637574696f6e4461696c794c696d697400000000000000000000000000815250601301905060405160208183030381529060405260405180828051906020019080838360208310610eb85780518252601f199092019160209182019101610e99565b60008060008360405160200180807f746f74616c45786563757465645065724461790000000000000000000000000081525060130182815260200191505060405160208183030381529060405260405180828051906020019080838360208310610b685780518252601f199092019160209182019101610b49565b6110916113f2565b600160a060020a031633146110a557600080fd5b600160a060020a03811615806110bf57506110bf81612a71565b15156110ca57600080fd5b806002600060405160200180807f6665654d616e61676572436f6e7472616374000000000000000000000000000081525060120190506040516020818303038152906040526040518082805190602001908083835b6020831061113e5780518252601f19909201916020918201910161111f565b51815160209384036101000a60001901801990921691161790526040805192909401829003909120865285019590955292909201600020805473ffffffffffffffffffffffffffffffffffffffff1916600160a060020a03959095169490941790935550505050565b600080600060405160200180807f6461696c794c696d697400000000000000000000000000000000000000000000815250600a01905060405160208183030381529060405260405180828051906020019080838360208310610eb85780518252601f199092019160209182019101610e99565b30600160a060020a0316636fde82026040518163ffffffff1660e060020a028152600401602060405180830381600087803b15801561125857600080fd5b505af115801561126c573d6000803e3d6000fd5b505050506040513d602081101561128257600080fd5b5051600160a060020a0316331461129857600080fd5b80600160a060020a03811615156112ae57600080fd5b6112b88383612a79565b505050565b6000806112e0836112d46112cf610e3b565b61100e565b9063ffffffff612aa516565b9050806112eb610f9b565b1015801561130057506112fc611307565b8311155b9392505050565b600080600060405160200180807f657865637574696f6e4d61785065725478000000000000000000000000000000815250601101905060405160208183030381529060405260405180828051906020019080838360208310610eb85780518252601f199092019160209182019101610e99565b600061138461160e565b600160a060020a0316638d0680436040518163ffffffff1660e060020a028152600401602060405180830381600087803b1580156113c157600080fd5b505af11580156113d5573d6000803e3d6000fd5b505050506040513d60208110156113eb57600080fd5b5051905090565b60006002600060405160200180807f6f776e65720000000000000000000000000000000000000000000000000000008152506005019050604051602081830303815290604052604051808280519060200190808383602083106108015780518252601f1990920191602091820191016107e2565b30600160a060020a0316636fde82026040518163ffffffff1660e060020a028152600401602060405180830381600087803b1580156114a457600080fd5b505af11580156114b8573d6000803e3d6000fd5b505050506040513d60208110156114ce57600080fd5b5051600160a060020a031633146114e457600080fd5b6114ec61078c565b604080517f69ffa08a000000000000000000000000000000000000000000000000000000008152600160a060020a0385811660048301528481166024830152915192909116916369ffa08a9160448082019260009290919082900301818387803b15801561155957600080fd5b505af115801561156d573d6000803e3d6000fd5b505050505050565b60006116096040516020018080600080516020613f8283398151915281525060080190506040516020818303038152906040526040518082805190602001908083835b602083106115d75780518252601f1990920191602091820191016115b8565b6001836020036101000a0380198251168184511680821785525050505050509050019150506040518091039020612ab8565b905090565b60006002600060405160200180807f76616c696461746f72436f6e74726163740000000000000000000000000000008152506011019050604051602081830303815290604052604051808280519060200190808383602083106108015780518252601f1990920191602091820191016107e2565b600080600060405160200180807f6465706c6f7965644174426c6f636b0000000000000000000000000000000000815250600f01905060405160208183030381529060405260405180828051906020019080838360208310610eb85780518252601f199092019160209182019101610e99565b600260036000909192565b60008061170b6113f2565b600160a060020a0316331461171f57600080fd5b61172761078c565b915081905080600160a060020a031663f2fde38b846040518263ffffffff1660e060020a0281526004018082600160a060020a0316600160a060020a03168152602001915050600060405180830381600087803b15801561178757600080fd5b505af115801561179b573d6000803e3d6000fd5b50505050505050565b6117ac6113f2565b600160a060020a031633146117c057600080fd5b6117c86111a7565b811080156117dc57506117d9612218565b81105b15156117e757600080fd5b8060008060405160200180807f6d696e506572547800000000000000000000000000000000000000000000000081525060080190506040516020818303038152906040526040518082805190602001908083835b6020831061185a5780518252601f19909201916020918201910161183b565b51815160209384036101000a600019018019909216911617905260408051929094018290039091208652850195909552929092016000209390935550505050565b6000806118a661078c565b905033600160a060020a038216146118bd57600080fd5b6118c68561207b565b15156118d157600080fd5b6118f56118dc610e3b565b6118f0876112d46118eb610e3b565b610aec565b612c0d565b611900818787612cca565b50600195945050505050565b600654600160a060020a031681565b6119236113f2565b600160a060020a0316331461193757600080fd5b6000811161194457600080fd5b8060008060405160200180807f7265717569726564426c6f636b436f6e6669726d6174696f6e73000000000000815250601a0190506040516020818303038152906040526040518082805190602001908083835b602083106119b75780518252601f199092019160209182019101611998565b51815160001960209485036101000a019081169019919091161790526040805194909201849003909320865285830196909652509284016000209490945550815184815291517f4fb76205cd57c896b21511d2114137d8e901b4ccd659e1a0f97d6306795264fb9350918290030190a150565b611a326113f2565b600160a060020a03163314611a4657600080fd5b611a4e612218565b811180611a59575080155b1515611a6457600080fd5b8060008060405160200180807f6461696c794c696d697400000000000000000000000000000000000000000000815250600a0190506040516020818303038152906040526040518082805190602001908083835b60208310611ad75780518252601f199092019160209182019101611ab8565b51815160001960209485036101000a019081169019919091161790526040805194909201849003909320865285830196909652509284016000209490945550815184815291517fad4123ae17c414d9c6d2fec478b402e6b01856cc250fd01fbfd252fda0089d3c9350918290030190a150565b611b526113f2565b600160a060020a03163314611b6657600080fd5b60008111611b7357600080fd5b8060008060405160200180807f676173507269636500000000000000000000000000000000000000000000000081525060080190506040516020818303038152906040526040518082805190602001908083835b60208310611be65780518252601f199092019160209182019101611bc7565b51815160001960209485036101000a019081169019919091161790526040805194909201849003909320865285830196909652509284016000209490945550815184815291517f52264b89e0fceafb26e79fd49ef8a366eb6297483bf4035b027f0c99a7ad512e9350918290030190a150565b6000611cc98d8d8d8d808060200260200160405190810160405280939291908181526020018383602002808284378201915050505050508c8c8c8c808060200260200160405190810160405280939291908181526020018383602002808284378201915050505050508b89612d35565b611cd284612a71565b1515611cdd57600080fd5b836002600060405160200180807f6665654d616e61676572436f6e7472616374000000000000000000000000000081525060120190506040516020818303038152906040526040518082805190602001908083835b60208310611d515780518252601f199092019160209182019101611d32565b51815160209384036101000a6000190180199092169116179052604080519290940182900390912086528581019690965250928301600020805473ffffffffffffffffffffffffffffffffffffffff1916600160a060020a039690961695909517909455508051600080516020613f8283398151915281840152815160088183030181526028909101918290528051611e1494508893889391829184810191908190849084908310610c2e5780518252601f199092019160209182019101610c0f565b611e1c6136f6565b611e24610c63565b9d9c50505050505050505050505050565b611e3d6113f2565b600160a060020a03163314611e5157600080fd5b611e596111a7565b8110611e6457600080fd5b8060008060405160200180807f6d6178506572547800000000000000000000000000000000000000000000000081525060080190506040516020818303038152906040526040518082805190602001908083836020831061185a5780518252601f19909201916020918201910161183b565b600080600060405160200180807f646563696d616c53686966740000000000000000000000000000000000000000815250600c01905060405160208183030381529060405260405180828051906020019080838360208310610eb85780518252601f199092019160209182019101610e99565b60006002600060405160200180807f6665654d616e61676572436f6e747261637400000000000000000000000000008152506012019050604051602081830303815290604052604051808280519060200190808383602083106108015780518252601f1990920191602091820191016107e2565b600080600060405160200180807f6d696e5065725478000000000000000000000000000000000000000000000000815250600801905060405160208183030381529060405260405180828051906020019080838360208310610eb85780518252601f199092019160209182019101610e99565b6120386113f2565b600160a060020a0316331461204c57600080fd5b6006805473ffffffffffffffffffffffffffffffffffffffff1916600160a060020a0392909216919091179055565b60008061208d836112d46118eb610e3b565b9050806120986111a7565b101580156120ad57506120a9612218565b8311155b801561130057506120bc611fbd565b9092101592915050565b6120ce6113f2565b600160a060020a031633146120e257600080fd5b6120ea610f9b565b81106120f557600080fd5b8060008060405160200180807f657865637574696f6e4d6178506572547800000000000000000000000000000081525060110190506040516020818303038152906040526040518082805190602001908083836020831061185a5780518252601f19909201916020918201910161183b565b604080516004815260248101909152602081018051600160e060020a03167ff2ba9561000000000000000000000000000000000000000000000000000000001790526000908190816121b7611f49565b9050600460008351602085016000855af26000519350808015610200575092949350505050565b6121e66113f2565b600160a060020a031633146121fa57600080fd5b600160a060020a038116151561220f57600080fd5b610c60816137b7565b600080600060405160200180807f6d61785065725478000000000000000000000000000000000000000000000000815250600801905060405160208183030381529060405260405180828051906020019080838360208310610eb85780518252601f199092019160209182019101610e99565b60006122fb8b8b8b8b808060200260200160405190810160405280939291908181526020018383602002808284378201915050505050508a8a8a8a808060200260200160405190810160405280939291908181526020018383602002808284378201915050505050508989612d35565b6123036136f6565b61230b610c63565b9b9a5050505050505050505050565b600080600060405160200180807f6761735072696365000000000000000000000000000000000000000000000000815250600801905060405160208183030381529060405260405180828051906020019080838360208310610eb85780518252601f199092019160209182019101610e99565b600080606060008061239e8a613875565b15156123a957600080fd5b85600160a060020a0316638d0680436040518163ffffffff1660e060020a028152600401602060405180830381600087803b1580156123e757600080fd5b505af11580156123fb573d6000803e3d6000fd5b505050506040513d602081101561241157600080fd5b5051895190955085111561242457600080fd5b61242d8a613889565b935084604051908082528060200260200182016040528015612459578160200160208202803883390190505b509250600091505b848210156125ee576001848a8481518110151561247a57fe5b906020019060200201518a8581518110151561249257fe5b906020019060200201518a868151811015156124aa57fe5b60209081029091018101516040805160008082528185018084529790975260ff9095168582015260608501939093526080840152905160a0808401949293601f19830193908390039091019190865af115801561250b573d6000803e3d6000fd5b50505060206040510351905085600160a060020a031663facd743b826040518263ffffffff1660e060020a0281526004018082600160a060020a0316600160a060020a03168152602001915050602060405180830381600087803b15801561257257600080fd5b505af1158015612586573d6000803e3d6000fd5b505050506040513d602081101561259c57600080fd5b505115156125a957600080fd5b6125b38382613a4e565b156125bd57600080fd5b8083838151811015156125cc57fe5b600160a060020a03909216602092830290910190910152600190910190612461565b50505050505050505050565b60008060008061260985613875565b151561261457600080fd5b50505050601481015160348201516054830151606890930151919390929190565b80600460008460405160200180807f72656c617965644d657373616765730000000000000000000000000000000000815250600f0182600019166000191681526020019150506040516020818303038152906040526040518082805190602001908083835b602083106126b95780518252601f19909201916020918201910161269a565b51815160209384036101000a60001901801990921691161790526040805192909401829003909120865285019590955292909201600020805460ff1916941515949094179093555050505050565b60008060008061272c612718610e3b565b612727886112d46112cf610e3b565b613aa9565b612747612737611ed6565b8790600a0a63ffffffff613b2316565b9250612751611f49565b9150600160a060020a0382161561281e576127f8836000846040516020018080600080516020613f8283398151915281525060080190506040516020818303038152906040526040518082805190602001908083835b602083106127c65780518252601f1990920191602091820191016127a7565b6001836020036101000a0380198251168184511680821785525050505050509050019150506040518091039020613b38565b9050801561281e5761280b818387613bc3565b61281b838263ffffffff613cc816565b92505b61282661078c565b600160a060020a03166340c10f1988856040518363ffffffff1660e060020a0281526004018083600160a060020a0316600160a060020a0316815260200182815260200192505050602060405180830381600087803b15801561288857600080fd5b505af115801561289c573d6000803e3d6000fd5b505050506040513d60208110156128b257600080fd5b5051979650505050505050565b60006040516020018080600080516020613f8283398151915281525060080190506040516020818303038152906040526040518082805190602001908083835b6020831061291e5780518252601f1990920191602091820191016128ff565b5181516020939093036101000a6000190180199091169216919091179052604051920182900390912085149250612978915050577f286c40660000000000000000000000000000000000000000000000000000000061299a565b7f34a9e148000000000000000000000000000000000000000000000000000000005b6040805160248082018790528251808303909101815260449091018252602081018051600160e060020a03167bffffffffffffffffffffffffffffffffffffffffffffffffffffffff19851617815291518151939450600160a060020a038816939192909182919080838360005b83811015612a20578181015183820152602001612a08565b50505050905090810190601f168015612a4d5780820380516001836020036101000a031916815260200191505b50915050600060405180830381855af49150501515612a6b57600080fd5b50505050565b6000903b1190565b600160a060020a0382161515612a9757612a9281613cda565b612aa1565b612aa18282613d45565b5050565b81810182811015612ab257fe5b92915050565b6000806000806060612ac8611f49565b92506040516020018080600080516020613f8283398151915281525060080190506040516020818303038152906040526040518082805190602001908083835b60208310612b275780518252601f199092019160209182019101612b08565b5181516020939093036101000a6000190180199091169216919091179052604051920182900390912089149250612b81915050577fffd6619600000000000000000000000000000000000000000000000000000000612ba3565b7f94da17cd000000000000000000000000000000000000000000000000000000005b60408051600481526024810190915260208082018051600160e060020a03167bffffffffffffffffffffffffffffffffffffffffffffffffffffffff19851617815282519395509193509160009182875af260005194508080156102005750939695505050505050565b806000808460405160200180807f746f74616c5370656e74506572446179000000000000000000000000000000008152506010018281526020019150506040516020818303038152906040526040518082805190602001908083835b60208310612c885780518252601f199092019160209182019101612c69565b51815160209384036101000a60001901801990921691161790526040805192909401829003909120865285019590955292909201600020939093555050505050565b82600160a060020a03166342966c68826040518263ffffffff1660e060020a02815260040180828152602001915050600060405180830381600087803b158015612d1357600080fd5b505af1158015612d27573d6000803e3d6000fd5b505050506112b88282613de3565b612d3d610c63565b15612d4757600080fd5b612d5088612a71565b1515612d5b57600080fd5b6000866002815181101515612d6c57fe5b90602001906020020151118015612db25750856002815181101515612d8d57fe5b90602001906020020151866001815181101515612da657fe5b90602001906020020151115b8015612ded5750856001815181101515612dc857fe5b90602001906020020151866000815181101515612de157fe5b90602001906020020151115b1515612df857600080fd5b60008411612e0557600080fd5b60008511612e1257600080fd5b826000815181101515612e2157fe5b90602001906020020151836001815181101515612e3a57fe5b6020908102909101015110612e4e57600080fd5b600160a060020a0382161515612e6357600080fd5b876002600060405160200180807f76616c696461746f72436f6e747261637400000000000000000000000000000081525060110190506040516020818303038152906040526040518082805190602001908083835b60208310612ed75780518252601f199092019160209182019101612eb8565b51815160209384036101000a60001901801990921691161790526040805192909401829003909120865285019590955292909201600020805473ffffffffffffffffffffffffffffffffffffffff1916600160a060020a03959095169490941790935550612f489150889050613e2b565b856000815181101515612f5757fe5b9060200190602002015160008060405160200180807f6461696c794c696d697400000000000000000000000000000000000000000000815250600a0190506040516020818303038152906040526040518082805190602001908083835b60208310612fd35780518252601f199092019160209182019101612fb4565b51815160209384036101000a6000190180199092169116179052604080519290940182900390912086528581019690965250928301600090812095909555505080517f6465706c6f7965644174426c6f636b0000000000000000000000000000000000818401528151600f818303018152602f90910191829052805143949384939182918401908083835b6020831061307d5780518252601f19909201916020918201910161305e565b51815160209384036101000a60001901801990921691161790526040805192909401829003909120865285019590955292909201600020939093555050865187915060019081106130ca57fe5b9060200190602002015160008060405160200180807f6d6178506572547800000000000000000000000000000000000000000000000081525060080190506040516020818303038152906040526040518082805190602001908083835b602083106131465780518252601f199092019160209182019101613127565b51815160209384036101000a600019018019909216911617905260408051929094018290039091208652850195909552929092016000209390935550508651879150600290811061319357fe5b9060200190602002015160008060405160200180807f6d696e506572547800000000000000000000000000000000000000000000000081525060080190506040516020818303038152906040526040518082805190602001908083835b6020831061320f5780518252601f1990920191602091820191016131f0565b51815160209384036101000a6000190180199092169116179052604080519290940182900390912086528581019690965250928301600090812095909555505080517f67617350726963650000000000000000000000000000000000000000000000008184015281516008818303018152602890910191829052805189949384939182918401908083835b602083106132b95780518252601f19909201916020918201910161329a565b51815160209384036101000a6000190180199092169116179052604080519290940182900390912086528581019690965250928301600090812095909555505080517f7265717569726564426c6f636b436f6e6669726d6174696f6e73000000000000818401528151601a818303018152603a90910191829052805188949384939182918401908083835b602083106133635780518252601f199092019160209182019101613344565b51815160209384036101000a60001901801990921691161790526040805192909401829003909120865285019590955292909201600090812094909455505084518592915081106133b057fe5b9060200190602002015160008060405160200180807f657865637574696f6e4461696c794c696d69740000000000000000000000000081525060130190506040516020818303038152906040526040518082805190602001908083835b6020831061342c5780518252601f19909201916020918201910161340d565b51815160209384036101000a600019018019909216911617905260408051929094018290039091208652850195909552929092016000209390935550508351849150600190811061347957fe5b9060200190602002015160008060405160200180807f657865637574696f6e4d6178506572547800000000000000000000000000000081525060110190506040516020818303038152906040526040518082805190602001908083835b602083106134f55780518252601f1990920191602091820191016134d6565b51815160209384036101000a6000190180199092169116179052604080519290940182900390912086528581019690965250928301600090812095909555505080517f646563696d616c53686966740000000000000000000000000000000000000000818401528151600c818303018152602c90910191829052805185949384939182918401908083835b6020831061359f5780518252601f199092019160209182019101613580565b51815160209384036101000a6000190180199092169116179052604080519290940182900390912086528501959095529290920160002093909355506135e891508390506137b7565b6040805185815290517f4fb76205cd57c896b21511d2114137d8e901b4ccd659e1a0f97d6306795264fb9181900360200190a16040805186815290517f52264b89e0fceafb26e79fd49ef8a366eb6297483bf4035b027f0c99a7ad512e9181900360200190a17fad4123ae17c414d9c6d2fec478b402e6b01856cc250fd01fbfd252fda0089d3c86600081518110151561367e57fe5b906020019060200201516040518082815260200191505060405180910390a17f9bebf928b90863f24cc31f726a3a7545efd409f1dcf552301b1ee3710da70d3b8360008151811015156136cd57fe5b906020019060200201516040518082815260200191505060405180910390a15050505050505050565b60016004600060405160200180807f6973496e697469616c697a656400000000000000000000000000000000000000815250600d0190506040516020818303038152906040526040518082805190602001908083835b6020831061376b5780518252601f19909201916020918201910161374c565b51815160209384036101000a60001901801990921691161790526040805192909401829003909120865285019590955292909201600020805460ff191694151594909417909355505050565b7f8be0079c531659141344cd1fd0a4f28419497f9722a3daafe3b4186f6b6457e06137e06113f2565b60408051600160a060020a03928316815291841660208301528051918290030190a1806002600060405160200180807f6f776e657200000000000000000000000000000000000000000000000000000081525060050190506040516020818303038152906040526040518082805190602001908083836020831061113e5780518252601f19909201916020918201910161111f565b600061387f613eb2565b8251149050919050565b604080518082018252601a81527f19457468657265756d205369676e6564204d6573736167653a0a000000000000602080830191825283518085018552600381527f313034000000000000000000000000000000000000000000000000000000000081830152935183516000959385938593899391019182918083835b602083106139255780518252601f199092019160209182019101613906565b51815160209384036101000a600019018019909216911617905286519190930192860191508083835b6020831061396d5780518252601f19909201916020918201910161394e565b51815160209384036101000a600019018019909216911617905285519190930192850191508083835b602083106139b55780518252601f199092019160209182019101613996565b6001836020036101000a03801982511681845116808217855250505050505090500193505050506040516020818303038152906040526040518082805190602001908083835b60208310613a1a5780518252601f1990920191602091820191016139fb565b5181516020939093036101000a60001901801990911692169190911790526040519201829003909120979650505050505050565b6000805b8351811015613a9d5782600160a060020a03168482815181101515613a7357fe5b90602001906020020151600160a060020a03161415613a955760019150613aa2565b600101613a52565b600091505b5092915050565b806000808460405160200180807f746f74616c45786563757465645065724461790000000000000000000000000081525060130182815260200191505060405160208183030381529060405260405180828051906020019080838360208310612c885780518252601f199092019160209182019101612c69565b60008183811515613b3057fe5b049392505050565b60408051602481018690528415156044820152606480820184905282518083039091018152608490910190915260208181018051600160e060020a03167f9862f26f000000000000000000000000000000000000000000000000000000001781528251600093849390929091849182895af26000519250808015610200575091979650505050505050565b6040805160248082018690528251808303909101815260449091018252602081018051600160e060020a03167f59d784640000000000000000000000000000000000000000000000000000000017815291518151600160a060020a03861693829180838360005b83811015613c42578181015183820152602001613c2a565b50505050905090810190601f168015613c6f5780820380516001836020036101000a031916815260200191505b50915050600060405180830381855af49150501515613c8d57600080fd5b60408051848152905182917f858abdcd5efcaebb936e8e8516f0cfe9a0ef5157ff99d16cdabb6db625be90d0919081900360200190a2505050565b600082821115613cd457fe5b50900390565b604051303190600160a060020a0383169082156108fc029083906000818181858888f193505050501515612aa1578082613d12613f51565b600160a060020a039091168152604051908190036020019082f080158015613d3e573d6000803e3d6000fd5b5050505050565b604080517f70a0823100000000000000000000000000000000000000000000000000000000815230600482015290518391600091600160a060020a038416916370a0823191602480830192602092919082900301818787803b158015613daa57600080fd5b505af1158015613dbe573d6000803e3d6000fd5b505050506040513d6020811015613dd457600080fd5b50519050612a6b848483613eb7565b60408051600160a060020a03841681526020810183905281517f1d491a427d1f8cc0d447496f300fac39f7306122481d8e663451eb268274146b929181900390910190a15050565b613e3481612a71565b1515613e3f57600080fd5b806002600060405160200180807f657263363737746f6b656e000000000000000000000000000000000000000000815250600b0190506040516020818303038152906040526040518082805190602001908083836020831061113e5780518252601f19909201916020918201910161111f565b606890565b60408051600160a060020a0384166024820152604480820184905282518083039091018152606490910190915260208181018051600160e060020a03167fa9059cbb000000000000000000000000000000000000000000000000000000001781528251606093600093909290918491828a5af1600051935083925080801561020057505060008351111561156d5781151561156d57600080fd5b604051602180613f61833901905600608060405260405160208060218339810160405251600160a060020a038116ff00686f6d652d666565000000000000000000000000000000000000000000000000a165627a7a72305820109ff5d01055b6d4bd44dd874c0dfe841066c540479679525c29c20004682c930029",
  "source": "pragma solidity 0.4.24;\n\nimport \"../upgradeable_contracts/native_to_erc20/ForeignBridgeNativeToErc.sol\";\n\ninterface OwnableToken {\n    function transferOwnership(address) external;\n}\n\ncontract ForeignBridgeV2 is ForeignBridgeNativeToErc {\n    function changeTokenOwnership(address _newTokenOwner) public onlyOwner {\n        address token = address(erc677token());\n        OwnableToken poa = OwnableToken(token);\n        poa.transferOwnership(_newTokenOwner);\n    }\n    // used for testing\n    address public something;\n    function doSomething(address _newTokenOwner) public onlyOwner {\n        something = _newTokenOwner;\n    }\n}\n",
  "sourcePath": "/mono/contracts/contracts/mocks/ForeignBridgeV2.sol",
  "compiler": {
    "name": "solc",
    "version": "0.4.24+commit.e67f0147.Emscripten.clang"
  },
  "schemaVersion": "3.0.11",
  "updatedAt": "2019-09-03T09:43:49.616Z",
  "devdoc": {
    "methods": {
      "owner()": {
        "details": "Tells the address of the owner",
        "return": "the address of the owner"
      },
      "transferOwnership(address)": {
        "details": "Allows the current owner to transfer control of the contract to a newOwner.",
        "params": {
          "newOwner": "the address to transfer ownership to."
        }
      }
    }
  },
  "userdoc": {
    "methods": {}
  }
}