{
  "contractName": "ForeignBridgeErc677ToErc677",
  "abi": [
    {
      "constant": true,
      "inputs": [],
      "name": "erc677token",
      "outputs": [
        {
          "name": "",
          "type": "address"
        }
      ],
      "payable": false,
      "stateMutability": "view",
      "type": "function"
    },
    {
      "constant": true,
      "inputs": [
        {
          "name": "_txHash",
          "type": "bytes32"
        }
      ],
      "name": "relayedMessages",
      "outputs": [
        {
          "name": "",
          "type": "bool"
        }
      ],
      "payable": false,
      "stateMutability": "view",
      "type": "function"
    },
    {
      "constant": false,
      "inputs": [
        {
          "name": "vs",
          "type": "uint8[]"
        },
        {
          "name": "rs",
          "type": "bytes32[]"
        },
        {
          "name": "ss",
          "type": "bytes32[]"
        },
        {
          "name": "message",
          "type": "bytes"
        }
      ],
      "name": "executeSignatures",
      "outputs": [],
      "payable": false,
      "stateMutability": "nonpayable",
      "type": "function"
    },
    {
      "constant": true,
      "inputs": [
        {
          "name": "_day",
          "type": "uint256"
        }
      ],
      "name": "totalSpentPerDay",
      "outputs": [
        {
          "name": "",
          "type": "uint256"
        }
      ],
      "payable": false,
      "stateMutability": "view",
      "type": "function"
    },
    {
      "constant": true,
      "inputs": [],
      "name": "isInitialized",
      "outputs": [
        {
          "name": "",
          "type": "bool"
        }
      ],
      "payable": false,
      "stateMutability": "view",
      "type": "function"
    },
    {
      "constant": false,
      "inputs": [
        {
          "name": "_dailyLimit",
          "type": "uint256"
        }
      ],
      "name": "setExecutionDailyLimit",
      "outputs": [],
      "payable": false,
      "stateMutability": "nonpayable",
      "type": "function"
    },
    {
      "constant": true,
      "inputs": [],
      "name": "getCurrentDay",
      "outputs": [
        {
          "name": "",
          "type": "uint256"
        }
      ],
      "payable": false,
      "stateMutability": "view",
      "type": "function"
    },
    {
      "constant": true,
      "inputs": [],
      "name": "requiredBlockConfirmations",
      "outputs": [
        {
          "name": "",
          "type": "uint256"
        }
      ],
      "payable": false,
      "stateMutability": "view",
      "type": "function"
    },
    {
      "constant": true,
      "inputs": [],
      "name": "getBridgeMode",
      "outputs": [
        {
          "name": "_data",
          "type": "bytes4"
        }
      ],
      "payable": false,
      "stateMutability": "pure",
      "type": "function"
    },
    {
      "constant": true,
      "inputs": [],
      "name": "executionDailyLimit",
      "outputs": [
        {
          "name": "",
          "type": "uint256"
        }
      ],
      "payable": false,
      "stateMutability": "view",
      "type": "function"
    },
    {
      "constant": true,
      "inputs": [
        {
          "name": "_day",
          "type": "uint256"
        }
      ],
      "name": "totalExecutedPerDay",
      "outputs": [
        {
          "name": "",
          "type": "uint256"
        }
      ],
      "payable": false,
      "stateMutability": "view",
      "type": "function"
    },
    {
      "constant": true,
      "inputs": [],
      "name": "dailyLimit",
      "outputs": [
        {
          "name": "",
          "type": "uint256"
        }
      ],
      "payable": false,
      "stateMutability": "view",
      "type": "function"
    },
    {
      "constant": false,
      "inputs": [
        {
          "name": "_token",
          "type": "address"
        },
        {
          "name": "_to",
          "type": "address"
        }
      ],
      "name": "claimTokens",
      "outputs": [],
      "payable": false,
      "stateMutability": "nonpayable",
      "type": "function"
    },
    {
      "constant": true,
      "inputs": [
        {
          "name": "_amount",
          "type": "uint256"
        }
      ],
      "name": "withinExecutionLimit",
      "outputs": [
        {
          "name": "",
          "type": "bool"
        }
      ],
      "payable": false,
      "stateMutability": "view",
      "type": "function"
    },
    {
      "constant": true,
      "inputs": [],
      "name": "executionMaxPerTx",
      "outputs": [
        {
          "name": "",
          "type": "uint256"
        }
      ],
      "payable": false,
      "stateMutability": "view",
      "type": "function"
    },
    {
      "constant": true,
      "inputs": [],
      "name": "requiredSignatures",
      "outputs": [
        {
          "name": "",
          "type": "uint256"
        }
      ],
      "payable": false,
      "stateMutability": "view",
      "type": "function"
    },
    {
      "constant": true,
      "inputs": [],
      "name": "owner",
      "outputs": [
        {
          "name": "",
          "type": "address"
        }
      ],
      "payable": false,
      "stateMutability": "view",
      "type": "function"
    },
    {
      "constant": true,
      "inputs": [],
      "name": "validatorContract",
      "outputs": [
        {
          "name": "",
          "type": "address"
        }
      ],
      "payable": false,
      "stateMutability": "view",
      "type": "function"
    },
    {
      "constant": true,
      "inputs": [],
      "name": "deployedAtBlock",
      "outputs": [
        {
          "name": "",
          "type": "uint256"
        }
      ],
      "payable": false,
      "stateMutability": "view",
      "type": "function"
    },
    {
      "constant": true,
      "inputs": [],
      "name": "getBridgeInterfacesVersion",
      "outputs": [
        {
          "name": "major",
          "type": "uint64"
        },
        {
          "name": "minor",
          "type": "uint64"
        },
        {
          "name": "patch",
          "type": "uint64"
        }
      ],
      "payable": false,
      "stateMutability": "pure",
      "type": "function"
    },
    {
      "constant": false,
      "inputs": [
        {
          "name": "_minPerTx",
          "type": "uint256"
        }
      ],
      "name": "setMinPerTx",
      "outputs": [],
      "payable": false,
      "stateMutability": "nonpayable",
      "type": "function"
    },
    {
      "constant": false,
      "inputs": [
        {
          "name": "_from",
          "type": "address"
        },
        {
          "name": "_value",
          "type": "uint256"
        },
        {
          "name": "",
          "type": "bytes"
        }
      ],
      "name": "onTokenTransfer",
      "outputs": [
        {
          "name": "",
          "type": "bool"
        }
      ],
      "payable": false,
      "stateMutability": "nonpayable",
      "type": "function"
    },
    {
      "constant": false,
      "inputs": [
        {
          "name": "_blockConfirmations",
          "type": "uint256"
        }
      ],
      "name": "setRequiredBlockConfirmations",
      "outputs": [],
      "payable": false,
      "stateMutability": "nonpayable",
      "type": "function"
    },
    {
      "constant": false,
      "inputs": [
        {
          "name": "_dailyLimit",
          "type": "uint256"
        }
      ],
      "name": "setDailyLimit",
      "outputs": [],
      "payable": false,
      "stateMutability": "nonpayable",
      "type": "function"
    },
    {
      "constant": false,
      "inputs": [
        {
          "name": "_gasPrice",
          "type": "uint256"
        }
      ],
      "name": "setGasPrice",
      "outputs": [],
      "payable": false,
      "stateMutability": "nonpayable",
      "type": "function"
    },
    {
      "constant": false,
      "inputs": [
        {
          "name": "_maxPerTx",
          "type": "uint256"
        }
      ],
      "name": "setMaxPerTx",
      "outputs": [],
      "payable": false,
      "stateMutability": "nonpayable",
      "type": "function"
    },
    {
      "constant": true,
      "inputs": [],
      "name": "decimalShift",
      "outputs": [
        {
          "name": "",
          "type": "uint256"
        }
      ],
      "payable": false,
      "stateMutability": "view",
      "type": "function"
    },
    {
      "constant": true,
      "inputs": [],
      "name": "minPerTx",
      "outputs": [
        {
          "name": "",
          "type": "uint256"
        }
      ],
      "payable": false,
      "stateMutability": "view",
      "type": "function"
    },
    {
      "constant": true,
      "inputs": [
        {
          "name": "_amount",
          "type": "uint256"
        }
      ],
      "name": "withinLimit",
      "outputs": [
        {
          "name": "",
          "type": "bool"
        }
      ],
      "payable": false,
      "stateMutability": "view",
      "type": "function"
    },
    {
      "constant": false,
      "inputs": [
        {
          "name": "_maxPerTx",
          "type": "uint256"
        }
      ],
      "name": "setExecutionMaxPerTx",
      "outputs": [],
      "payable": false,
      "stateMutability": "nonpayable",
      "type": "function"
    },
    {
      "constant": false,
      "inputs": [
        {
          "name": "newOwner",
          "type": "address"
        }
      ],
      "name": "transferOwnership",
      "outputs": [],
      "payable": false,
      "stateMutability": "nonpayable",
      "type": "function"
    },
    {
      "constant": true,
      "inputs": [],
      "name": "maxPerTx",
      "outputs": [
        {
          "name": "",
          "type": "uint256"
        }
      ],
      "payable": false,
      "stateMutability": "view",
      "type": "function"
    },
    {
      "constant": true,
      "inputs": [],
      "name": "gasPrice",
      "outputs": [
        {
          "name": "",
          "type": "uint256"
        }
      ],
      "payable": false,
      "stateMutability": "view",
      "type": "function"
    },
    {
      "anonymous": false,
      "inputs": [
        {
          "indexed": false,
          "name": "recipient",
          "type": "address"
        },
        {
          "indexed": false,
          "name": "value",
          "type": "uint256"
        }
      ],
      "name": "UserRequestForAffirmation",
      "type": "event"
    },
    {
      "anonymous": false,
      "inputs": [
        {
          "indexed": false,
          "name": "recipient",
          "type": "address"
        },
        {
          "indexed": false,
          "name": "value",
          "type": "uint256"
        },
        {
          "indexed": false,
          "name": "transactionHash",
          "type": "bytes32"
        }
      ],
      "name": "RelayedMessage",
      "type": "event"
    },
    {
      "anonymous": false,
      "inputs": [
        {
          "indexed": false,
          "name": "gasPrice",
          "type": "uint256"
        }
      ],
      "name": "GasPriceChanged",
      "type": "event"
    },
    {
      "anonymous": false,
      "inputs": [
        {
          "indexed": false,
          "name": "requiredBlockConfirmations",
          "type": "uint256"
        }
      ],
      "name": "RequiredBlockConfirmationChanged",
      "type": "event"
    },
    {
      "anonymous": false,
      "inputs": [
        {
          "indexed": false,
          "name": "newLimit",
          "type": "uint256"
        }
      ],
      "name": "DailyLimitChanged",
      "type": "event"
    },
    {
      "anonymous": false,
      "inputs": [
        {
          "indexed": false,
          "name": "newLimit",
          "type": "uint256"
        }
      ],
      "name": "ExecutionDailyLimitChanged",
      "type": "event"
    },
    {
      "anonymous": false,
      "inputs": [
        {
          "indexed": false,
          "name": "previousOwner",
          "type": "address"
        },
        {
          "indexed": false,
          "name": "newOwner",
          "type": "address"
        }
      ],
      "name": "OwnershipTransferred",
      "type": "event"
    },
    {
      "constant": false,
      "inputs": [
        {
          "name": "_validatorContract",
          "type": "address"
        },
        {
          "name": "_erc20token",
          "type": "address"
        },
        {
          "name": "_requiredBlockConfirmations",
          "type": "uint256"
        },
        {
          "name": "_gasPrice",
          "type": "uint256"
        },
        {
          "name": "_dailyLimitMaxPerTxMinPerTxArray",
          "type": "uint256[]"
        },
        {
          "name": "_homeDailyLimitHomeMaxPerTxArray",
          "type": "uint256[]"
        },
        {
          "name": "_owner",
          "type": "address"
        },
        {
          "name": "_decimalShift",
          "type": "uint256"
        }
      ],
      "name": "initialize",
      "outputs": [
        {
          "name": "",
          "type": "bool"
        }
      ],
      "payable": false,
      "stateMutability": "nonpayable",
      "type": "function"
    },
    {
      "constant": true,
      "inputs": [],
      "name": "erc20token",
      "outputs": [
        {
          "name": "",
          "type": "address"
        }
      ],
      "payable": false,
      "stateMutability": "view",
      "type": "function"
    }
  ],
  "bytecode": "0x608060405234801561001057600080fd5b506131ea806100206000396000f30060806040526004361061019d5763ffffffff60e060020a60003504166318d8f9c981146101a25780631dcea427146101d357806321d800ec146101e8578063232a2c1d146102145780632bd0bb051461025a578063392e53cd146102845780633dd95d1b146102995780633e6968b6146102b15780633f0a9f65146102c6578063437764df146102db57806343b37dd3146103255780634fb3fef71461033a57806367eeba0c1461035257806369ffa08a14610367578063879ce6761461038e5780638aa1949a146103a65780638d068043146103bb5780638da5cb5b146103d057806399439089146103e55780639a454b99146103fa5780639cb7595a1461040f578063a2a6ca2714610450578063a4c0ed3614610468578063acf5c68914610499578063b20d30a9146104b1578063bf1fe420146104c9578063c6f6f216146104e1578063dae5f0fd146104f9578063df25f3f01461050e578063ea9f496814610523578063ed2cec2c1461053b578063f20151e11461058c578063f2fde38b146105a4578063f968adbe146105c5578063fe173b97146105da575b600080fd5b3480156101ae57600080fd5b506101b76105ef565b60408051600160a060020a039092168252519081900360200190f35b3480156101df57600080fd5b506101b76106ad565b3480156101f457600080fd5b506102006004356106bc565b604080519115158252519081900360200190f35b34801561022057600080fd5b506102586024600480358281019290820135918135808301929082013591604435808301929082013591606435918201910135610785565b005b34801561026657600080fd5b5061027260043561095e565b60408051918252519081900360200190f35b34801561029057600080fd5b50610200610a1b565b3480156102a557600080fd5b50610258600435610ad3565b3480156102bd57600080fd5b50610272610bf3565b3480156102d257600080fd5b50610272610bfc565b3480156102e757600080fd5b506102f0610cb0565b604080517fffffffff000000000000000000000000000000000000000000000000000000009092168252519081900360200190f35b34801561033157600080fd5b50610272610d53565b34801561034657600080fd5b50610272600435610dc6565b34801561035e57600080fd5b50610272610e41565b34801561037357600080fd5b50610258600160a060020a0360043581169060243516610eb4565b34801561039a57600080fd5b50610200600435610ee2565b3480156103b257600080fd5b50610272610f2c565b3480156103c757600080fd5b50610272610f9f565b3480156103dc57600080fd5b506101b7611017565b3480156103f157600080fd5b506101b761108b565b34801561040657600080fd5b506102726110ff565b34801561041b57600080fd5b50610424611172565b6040805167ffffffffffffffff9485168152928416602084015292168183015290519081900360600190f35b34801561045c57600080fd5b5061025860043561117d565b34801561047457600080fd5b5061020060048035600160a060020a0316906024803591604435918201910135611274565b3480156104a557600080fd5b506102586004356112e5565b3480156104bd57600080fd5b506102586004356113f4565b3480156104d557600080fd5b50610258600435611514565b3480156104ed57600080fd5b50610258600435611623565b34801561050557600080fd5b506102726116c4565b34801561051a57600080fd5b50610272611737565b34801561052f57600080fd5b506102006004356117aa565b34801561054757600080fd5b5061020060048035600160a060020a039081169160248035831692604435926064359260843580820193908301359260a4359283019201359060c4351660e4356117f5565b34801561059857600080fd5b50610258600435611b26565b3480156105b057600080fd5b50610258600160a060020a0360043516611bc7565b3480156105d157600080fd5b50610272611c04565b3480156105e657600080fd5b50610272611c77565b60006002600060405160200180807f657263363737746f6b656e000000000000000000000000000000000000000000815250600b0190506040516020818303038152906040526040518082805190602001908083835b602083106106645780518252601f199092019160209182019101610645565b51815160209384036101000a6000190180199092169116179052604080519290940182900390912086528501959095529290920160002054600160a060020a0316949350505050565b60006106b76105ef565b905090565b6000600460008360405160200180807f72656c617965644d657373616765730000000000000000000000000000000000815250600f0182600019166000191681526020019150506040516020818303038152906040526040518082805190602001908083835b602083106107415780518252601f199092019160209182019101610722565b51815160209384036101000a600019018019909216911617905260408051929094018290039091208652850195909552929092016000205460ff1695945050505050565b60008060008061085d86868080601f0160208091040260200160405190810160405280939291908181526020018383808284378201915050505050508d8d808060200260200160405190810160405280939291908181526020018383602002808284378201915050505050508c8c808060200260200160405190810160405280939291908181526020018383602002808284378201915050505050508b8b8080602002602001604051908101604052809392919081815260200183836020028082843750610858945061108b9350505050565b611cea565b61089686868080601f01602080910402602001604051908101604052809392919081815260200183838082843750611f57945050505050565b929650909450925090506108a983610ee2565b1561094557600160a060020a03811630146108c357600080fd5b6108cc826106bc565b156108d657600080fd5b6108e1826001611f92565b6108ec848484612064565b15156108f757600080fd5b60408051600160a060020a03861681526020810185905280820184905290517f4ab7d581336d92edbea22636a613e8e76c99ac7f91137c1523db38dbfb3bf3299181900360600190a1610950565b61095084848461019d565b505050505050505050505050565b60008060008360405160200180807f746f74616c5370656e74506572446179000000000000000000000000000000008152506010018281526020019150506040516020818303038152906040526040518082805190602001908083835b602083106109da5780518252601f1990920191602091820191016109bb565b51815160209384036101000a600019018019909216911617905260408051929094018290039091208652850195909552929092016000205495945050505050565b60006004600060405160200180807f6973496e697469616c697a656400000000000000000000000000000000000000815250600d0190506040516020818303038152906040526040518082805190602001908083835b60208310610a905780518252601f199092019160209182019101610a71565b51815160209384036101000a600019018019909216911617905260408051929094018290039091208652850195909552929092016000205460ff16949350505050565b610adb611017565b600160a060020a03163314610aef57600080fd5b610af7610f2c565b811180610b02575080155b1515610b0d57600080fd5b8060008060405160200180807f657865637574696f6e4461696c794c696d69740000000000000000000000000081525060130190506040516020818303038152906040526040518082805190602001908083835b60208310610b805780518252601f199092019160209182019101610b61565b51815160001960209485036101000a019081169019919091161790526040805194909201849003909320865285830196909652509284016000209490945550815184815291517f9bebf928b90863f24cc31f726a3a7545efd409f1dcf552301b1ee3710da70d3b9350918290030190a150565b62015180420490565b600080600060405160200180807f7265717569726564426c6f636b436f6e6669726d6174696f6e73000000000000815250601a0190506040516020818303038152906040526040518082805190602001908083835b60208310610c705780518252601f199092019160209182019101610c51565b51815160209384036101000a6000190180199092169116179052604080519290940182900390912086528501959095529290920160002054949350505050565b600060405160200180807f6572632d746f2d6572632d636f72650000000000000000000000000000000000815250600f0190506040516020818303038152906040526040518082805190602001908083835b60208310610d215780518252601f199092019160209182019101610d02565b6001836020036101000a0380198251168184511680821785525050505050509050019150506040518091039020905090565b600080600060405160200180807f657865637574696f6e4461696c794c696d697400000000000000000000000000815250601301905060405160208183030381529060405260405180828051906020019080838360208310610c705780518252601f199092019160209182019101610c51565b60008060008360405160200180807f746f74616c457865637574656450657244617900000000000000000000000000815250601301828152602001915050604051602081830303815290604052604051808280519060200190808383602083106109da5780518252601f1990920191602091820191016109bb565b600080600060405160200180807f6461696c794c696d697400000000000000000000000000000000000000000000815250600a01905060405160208183030381529060405260405180828051906020019080838360208310610c705780518252601f199092019160209182019101610c51565b610ebc6106ad565b600160a060020a0383811691161415610ed457600080fd5b610ede8282612142565b5050565b600080610f0583610ef9610ef4610bf3565b610dc6565b9063ffffffff6121e516565b905080610f10610d53565b10158015610f255750610f21610f2c565b8311155b9392505050565b600080600060405160200180807f657865637574696f6e4d61785065725478000000000000000000000000000000815250601101905060405160208183030381529060405260405180828051906020019080838360208310610c705780518252601f199092019160209182019101610c51565b6000610fa961108b565b600160a060020a0316638d0680436040518163ffffffff1660e060020a028152600401602060405180830381600087803b158015610fe657600080fd5b505af1158015610ffa573d6000803e3d6000fd5b505050506040513d602081101561101057600080fd5b5051905090565b60006002600060405160200180807f6f776e65720000000000000000000000000000000000000000000000000000008152506005019050604051602081830303815290604052604051808280519060200190808383602083106106645780518252601f199092019160209182019101610645565b60006002600060405160200180807f76616c696461746f72436f6e74726163740000000000000000000000000000008152506011019050604051602081830303815290604052604051808280519060200190808383602083106106645780518252601f199092019160209182019101610645565b600080600060405160200180807f6465706c6f7965644174426c6f636b0000000000000000000000000000000000815250600f01905060405160208183030381529060405260405180828051906020019080838360208310610c705780518252601f199092019160209182019101610c51565b600260036000909192565b611185611017565b600160a060020a0316331461119957600080fd5b6111a1610e41565b811080156111b557506111b2611c04565b81105b15156111c057600080fd5b8060008060405160200180807f6d696e506572547800000000000000000000000000000000000000000000000081525060080190506040516020818303038152906040526040518082805190602001908083835b602083106112335780518252601f199092019160209182019101611214565b51815160209384036101000a600019018019909216911617905260408051929094018290039091208652850195909552929092016000209390935550505050565b60008061127f6105ef565b905033600160a060020a0382161461129657600080fd5b61129f856117aa565b15156112aa57600080fd5b6112ce6112b5610bf3565b6112c987610ef96112c4610bf3565b61095e565b6121f8565b6112d98187876122b5565b50600195945050505050565b6112ed611017565b600160a060020a0316331461130157600080fd5b6000811161130e57600080fd5b8060008060405160200180807f7265717569726564426c6f636b436f6e6669726d6174696f6e73000000000000815250601a0190506040516020818303038152906040526040518082805190602001908083835b602083106113815780518252601f199092019160209182019101611362565b51815160001960209485036101000a019081169019919091161790526040805194909201849003909320865285830196909652509284016000209490945550815184815291517f4fb76205cd57c896b21511d2114137d8e901b4ccd659e1a0f97d6306795264fb9350918290030190a150565b6113fc611017565b600160a060020a0316331461141057600080fd5b611418611c04565b811180611423575080155b151561142e57600080fd5b8060008060405160200180807f6461696c794c696d697400000000000000000000000000000000000000000000815250600a0190506040516020818303038152906040526040518082805190602001908083835b602083106114a15780518252601f199092019160209182019101611482565b51815160001960209485036101000a019081169019919091161790526040805194909201849003909320865285830196909652509284016000209490945550815184815291517fad4123ae17c414d9c6d2fec478b402e6b01856cc250fd01fbfd252fda0089d3c9350918290030190a150565b61151c611017565b600160a060020a0316331461153057600080fd5b6000811161153d57600080fd5b8060008060405160200180807f676173507269636500000000000000000000000000000000000000000000000081525060080190506040516020818303038152906040526040518082805190602001908083835b602083106115b05780518252601f199092019160209182019101611591565b51815160001960209485036101000a019081169019919091161790526040805194909201849003909320865285830196909652509284016000209490945550815184815291517f52264b89e0fceafb26e79fd49ef8a366eb6297483bf4035b027f0c99a7ad512e9350918290030190a150565b61162b611017565b600160a060020a0316331461163f57600080fd5b611647610e41565b811061165257600080fd5b8060008060405160200180807f6d617850657254780000000000000000000000000000000000000000000000008152506008019050604051602081830303815290604052604051808280519060200190808383602083106112335780518252601f199092019160209182019101611214565b600080600060405160200180807f646563696d616c53686966740000000000000000000000000000000000000000815250600c01905060405160208183030381529060405260405180828051906020019080838360208310610c705780518252601f199092019160209182019101610c51565b600080600060405160200180807f6d696e5065725478000000000000000000000000000000000000000000000000815250600801905060405160208183030381529060405260405180828051906020019080838360208310610c705780518252601f199092019160209182019101610c51565b6000806117bc83610ef96112c4610bf3565b9050806117c7610e41565b101580156117dc57506117d8611c04565b8311155b8015610f2557506117eb611737565b9092101592915050565b60006060818888600281811061180757fe5b9050602002013511801561184257508787600281811061182357fe5b9050602002013588886001818110151561183957fe5b90506020020135115b801561187557508787600181811061185657fe5b9050602002013588886000818110151561186c57fe5b90506020020135115b151561188057600080fd5b604080516003808252608082019092529060208201606080388339019050509050878760018181106118ae57fe5b905060200201358160008151811015156118c457fe5b60209081029091010152858560008181106118db57fe5b905060200201358160018151811015156118f157fe5b602090810290910101528585600181811061190857fe5b9050602002013581600281518110151561191e57fe5b602090810290910101526119378c8c8c8c8589896122bf565b8787600081811061194457fe5b9050602002013560008060405160200180807f6461696c794c696d697400000000000000000000000000000000000000000000815250600a0190506040516020818303038152906040526040518082805190602001908083835b602083106119bd5780518252601f19909201916020918201910161199e565b51815160209384036101000a6000190180199092169116179052604080519290940182900390912086528501959095529290920160002093909355508991508890506002818110611a0a57fe5b9050602002013560008060405160200180807f6d696e506572547800000000000000000000000000000000000000000000000081525060080190506040516020818303038152906040526040518082805190602001908083835b60208310611a835780518252601f199092019160209182019101611a64565b51815160209384036101000a60001901801990921691161790526040805192909401829003909120865285019590955292909201600090812094909455507fad4123ae17c414d9c6d2fec478b402e6b01856cc250fd01fbfd252fda0089d3c928b92508a9150818110611af257fe5b905060200201356040518082815260200191505060405180910390a1611b16610a1b565b9c9b505050505050505050505050565b611b2e611017565b600160a060020a03163314611b4257600080fd5b611b4a610d53565b8110611b5557600080fd5b8060008060405160200180807f657865637574696f6e4d617850657254780000000000000000000000000000008152506011019050604051602081830303815290604052604051808280519060200190808383602083106112335780518252601f199092019160209182019101611214565b611bcf611017565b600160a060020a03163314611be357600080fd5b600160a060020a0381161515611bf857600080fd5b611c0181612a0f565b50565b600080600060405160200180807f6d61785065725478000000000000000000000000000000000000000000000000815250600801905060405160208183030381529060405260405180828051906020019080838360208310610c705780518252601f199092019160209182019101610c51565b600080600060405160200180807f6761735072696365000000000000000000000000000000000000000000000000815250600801905060405160208183030381529060405260405180828051906020019080838360208310610c705780518252601f199092019160209182019101610c51565b6000806060600080611cfb8a612b37565b1515611d0657600080fd5b85600160a060020a0316638d0680436040518163ffffffff1660e060020a028152600401602060405180830381600087803b158015611d4457600080fd5b505af1158015611d58573d6000803e3d6000fd5b505050506040513d6020811015611d6e57600080fd5b50518951909550851115611d8157600080fd5b611d8a8a612b4b565b935084604051908082528060200260200182016040528015611db6578160200160208202803883390190505b509250600091505b84821015611f4b576001848a84815181101515611dd757fe5b906020019060200201518a85815181101515611def57fe5b906020019060200201518a86815181101515611e0757fe5b60209081029091018101516040805160008082528185018084529790975260ff9095168582015260608501939093526080840152905160a0808401949293601f19830193908390039091019190865af1158015611e68573d6000803e3d6000fd5b50505060206040510351905085600160a060020a031663facd743b826040518263ffffffff1660e060020a0281526004018082600160a060020a0316600160a060020a03168152602001915050602060405180830381600087803b158015611ecf57600080fd5b505af1158015611ee3573d6000803e3d6000fd5b505050506040513d6020811015611ef957600080fd5b50511515611f0657600080fd5b611f108382612d10565b15611f1a57600080fd5b808383815181101515611f2957fe5b600160a060020a03909216602092830290910190910152600190910190611dbe565b50505050505050505050565b600080600080611f6685612b37565b1515611f7157600080fd5b50505050601481015160348201516054830151606890930151919390929190565b80600460008460405160200180807f72656c617965644d657373616765730000000000000000000000000000000000815250600f0182600019166000191681526020019150506040516020818303038152906040526040518082805190602001908083835b602083106120165780518252601f199092019160209182019101611ff7565b51815160209384036101000a60001901801990921691161790526040805192909401829003909120865285019590955292909201600020805460ff1916941515949094179093555050505050565b600080612086612072610bf3565b61208186610ef9610ef4610bf3565b612d6b565b6120a16120916116c4565b8590600a0a63ffffffff612de516565b90506120ab6106ad565b600160a060020a031663a9059cbb86836040518363ffffffff1660e060020a0281526004018083600160a060020a0316600160a060020a0316815260200182815260200192505050602060405180830381600087803b15801561210d57600080fd5b505af1158015612121573d6000803e3d6000fd5b505050506040513d602081101561213757600080fd5b505195945050505050565b30600160a060020a0316636fde82026040518163ffffffff1660e060020a028152600401602060405180830381600087803b15801561218057600080fd5b505af1158015612194573d6000803e3d6000fd5b505050506040513d60208110156121aa57600080fd5b5051600160a060020a031633146121c057600080fd5b80600160a060020a03811615156121d657600080fd5b6121e08383612dfa565b505050565b818101828110156121f257fe5b92915050565b806000808460405160200180807f746f74616c5370656e74506572446179000000000000000000000000000000008152506010018281526020019150506040516020818303038152906040526040518082805190602001908083835b602083106122735780518252601f199092019160209182019101612254565b51815160209384036101000a60001901801990921691161790526040805192909401829003909120865285019590955292909201600020939093555050505050565b6121e08282612e22565b6122c7610a1b565b156122d157600080fd5b6122da87612e6a565b15156122e557600080fd5b8415156122f157600080fd5b600084116122fe57600080fd5b82600181518110151561230d57fe5b9060200190602002015183600281518110151561232657fe5b602090810290910101511061233a57600080fd5b600160a060020a038216151561234f57600080fd5b866002600060405160200180807f76616c696461746f72436f6e747261637400000000000000000000000000000081525060110190506040516020818303038152906040526040518082805190602001908083835b602083106123c35780518252601f1990920191602091820191016123a4565b51815160209384036101000a60001901801990921691161790526040805192909401829003909120865285019590955292909201600020805473ffffffffffffffffffffffffffffffffffffffff1916600160a060020a039590951694909417909355506124349150879050612e72565b4360008060405160200180807f6465706c6f7965644174426c6f636b0000000000000000000000000000000000815250600f0190506040516020818303038152906040526040518082805190602001908083835b602083106124a75780518252601f199092019160209182019101612488565b51815160209384036101000a6000190180199092169116179052604080519290940182900390912086528581019690965250928301600090812095909555505080517f7265717569726564426c6f636b436f6e6669726d6174696f6e73000000000000818401528151601a818303018152603a90910191829052805189949384939182918401908083835b602083106125515780518252601f199092019160209182019101612532565b51815160209384036101000a6000190180199092169116179052604080519290940182900390912086528581019690965250928301600090812095909555505080517f67617350726963650000000000000000000000000000000000000000000000008184015281516008818303018152602890910191829052805188949384939182918401908083835b602083106125fb5780518252601f1990920191602091820191016125dc565b51815160209384036101000a600019018019909216911617905260408051929094018290039091208652850195909552929092016000908120949094555050845185929150811061264857fe5b9060200190602002015160008060405160200180807f6d6178506572547800000000000000000000000000000000000000000000000081525060080190506040516020818303038152906040526040518082805190602001908083835b602083106126c45780518252601f1990920191602091820191016126a5565b51815160209384036101000a600019018019909216911617905260408051929094018290039091208652850195909552929092016000209390935550508351849150600190811061271157fe5b9060200190602002015160008060405160200180807f657865637574696f6e4461696c794c696d69740000000000000000000000000081525060130190506040516020818303038152906040526040518082805190602001908083835b6020831061278d5780518252601f19909201916020918201910161276e565b51815160209384036101000a60001901801990921691161790526040805192909401829003909120865285019590955292909201600020939093555050835184915060029081106127da57fe5b9060200190602002015160008060405160200180807f657865637574696f6e4d6178506572547800000000000000000000000000000081525060110190506040516020818303038152906040526040518082805190602001908083835b602083106128565780518252601f199092019160209182019101612837565b51815160209384036101000a6000190180199092169116179052604080519290940182900390912086528581019690965250928301600090812095909555505080517f646563696d616c53686966740000000000000000000000000000000000000000818401528151600c818303018152602c90910191829052805185949384939182918401908083835b602083106129005780518252601f1990920191602091820191016128e1565b51815160209384036101000a6000190180199092169116179052604080519290940182900390912086528501959095529290920160002093909355506129499150839050612a0f565b612951612e7b565b6040805186815290517f4fb76205cd57c896b21511d2114137d8e901b4ccd659e1a0f97d6306795264fb9181900360200190a16040805185815290517f52264b89e0fceafb26e79fd49ef8a366eb6297483bf4035b027f0c99a7ad512e9181900360200190a17f9bebf928b90863f24cc31f726a3a7545efd409f1dcf552301b1ee3710da70d3b8360018151811015156129e757fe5b906020019060200201516040518082815260200191505060405180910390a150505050505050565b7f8be0079c531659141344cd1fd0a4f28419497f9722a3daafe3b4186f6b6457e0612a38611017565b60408051600160a060020a03928316815291841660208301528051918290030190a1806002600060405160200180807f6f776e657200000000000000000000000000000000000000000000000000000081525060050190506040516020818303038152906040526040518082805190602001908083835b60208310612ace5780518252601f199092019160209182019101612aaf565b51815160209384036101000a60001901801990921691161790526040805192909401829003909120865285019590955292909201600020805473ffffffffffffffffffffffffffffffffffffffff1916600160a060020a03959095169490941790935550505050565b6000612b41612f3c565b8251149050919050565b604080518082018252601a81527f19457468657265756d205369676e6564204d6573736167653a0a000000000000602080830191825283518085018552600381527f313034000000000000000000000000000000000000000000000000000000000081830152935183516000959385938593899391019182918083835b60208310612be75780518252601f199092019160209182019101612bc8565b51815160209384036101000a600019018019909216911617905286519190930192860191508083835b60208310612c2f5780518252601f199092019160209182019101612c10565b51815160209384036101000a600019018019909216911617905285519190930192850191508083835b60208310612c775780518252601f199092019160209182019101612c58565b6001836020036101000a03801982511681845116808217855250505050505090500193505050506040516020818303038152906040526040518082805190602001908083835b60208310612cdc5780518252601f199092019160209182019101612cbd565b5181516020939093036101000a60001901801990911692169190911790526040519201829003909120979650505050505050565b6000805b8351811015612d5f5782600160a060020a03168482815181101515612d3557fe5b90602001906020020151600160a060020a03161415612d575760019150612d64565b600101612d14565b600091505b5092915050565b806000808460405160200180807f746f74616c457865637574656450657244617900000000000000000000000000815250601301828152602001915050604051602081830303815290604052604051808280519060200190808383602083106122735780518252601f199092019160209182019101612254565b60008183811515612df257fe5b049392505050565b600160a060020a0382161515612e1857612e1381612f41565b610ede565b610ede8282612fac565b60408051600160a060020a03841681526020810183905281517f1d491a427d1f8cc0d447496f300fac39f7306122481d8e663451eb268274146b929181900390910190a15050565b6000903b1190565b611c0181613050565b60016004600060405160200180807f6973496e697469616c697a656400000000000000000000000000000000000000815250600d0190506040516020818303038152906040526040518082805190602001908083835b60208310612ef05780518252601f199092019160209182019101612ed1565b51815160209384036101000a60001901801990921691161790526040805192909401829003909120865285019590955292909201600020805460ff191694151594909417909355505050565b606890565b604051303190600160a060020a0383169082156108fc029083906000818181858888f193505050501515610ede578082612f7961318e565b600160a060020a039091168152604051908190036020019082f080158015612fa5573d6000803e3d6000fd5b5050505050565b604080517f70a0823100000000000000000000000000000000000000000000000000000000815230600482015290518391600091600160a060020a038416916370a0823191602480830192602092919082900301818787803b15801561301157600080fd5b505af1158015613025573d6000803e3d6000fd5b505050506040513d602081101561303b57600080fd5b5051905061304a8484836130d7565b50505050565b61305981612e6a565b151561306457600080fd5b806002600060405160200180807f657263363737746f6b656e000000000000000000000000000000000000000000815250600b01905060405160208183030381529060405260405180828051906020019080838360208310612ace5780518252601f199092019160209182019101612aaf565b60408051600160a060020a03841660248201526044808201849052825180830390910181526064909101909152602081810180517bffffffffffffffffffffffffffffffffffffffffffffffffffffffff167fa9059cbb000000000000000000000000000000000000000000000000000000001781528251606093600093909290918491828a5af1600051935083925080801561019d5750506000835111156131865781151561318657600080fd5b505050505050565b60405160218061319e833901905600608060405260405160208060218339810160405251600160a060020a038116ff00a165627a7a72305820a72931faf587344314af27b240b81384ff5f6f47b2cb89a47b81f54c5b96bd5d0029",
  "source": "pragma solidity 0.4.24;\n\nimport \"./BasicForeignBridgeErcToErc.sol\";\nimport \"../ERC677Bridge.sol\";\n\ncontract ForeignBridgeErc677ToErc677 is ERC677Bridge, BasicForeignBridgeErcToErc {\n    event UserRequestForAffirmation(address recipient, uint256 value);\n\n    function initialize(\n        address _validatorContract,\n        address _erc20token,\n        uint256 _requiredBlockConfirmations,\n        uint256 _gasPrice,\n        uint256[] _dailyLimitMaxPerTxMinPerTxArray, // [ 0 = _dailyLimit, 1 = _maxPerTx, 2 = _minPerTx ]\n        uint256[] _homeDailyLimitHomeMaxPerTxArray, // [ 0 = _homeDailyLimit, 1 = _homeMaxPerTx ]\n        address _owner,\n        uint256 _decimalShift\n    ) external returns (bool) {\n        require(\n            _dailyLimitMaxPerTxMinPerTxArray[2] > 0 && // _minPerTx > 0\n                _dailyLimitMaxPerTxMinPerTxArray[1] > _dailyLimitMaxPerTxMinPerTxArray[2] && // _maxPerTx > _minPerTx\n                _dailyLimitMaxPerTxMinPerTxArray[0] > _dailyLimitMaxPerTxMinPerTxArray[1] // _dailyLimit > _maxPerTx\n        );\n        uint256[] memory _maxPerTxHomeDailyLimitHomeMaxPerTxArray = new uint256[](3);\n        _maxPerTxHomeDailyLimitHomeMaxPerTxArray[0] = _dailyLimitMaxPerTxMinPerTxArray[1]; // _maxPerTx\n        _maxPerTxHomeDailyLimitHomeMaxPerTxArray[1] = _homeDailyLimitHomeMaxPerTxArray[0]; // _homeDailyLimit\n        _maxPerTxHomeDailyLimitHomeMaxPerTxArray[2] = _homeDailyLimitHomeMaxPerTxArray[1]; // _homeMaxPerTx\n        _initialize(\n            _validatorContract,\n            _erc20token,\n            _requiredBlockConfirmations,\n            _gasPrice,\n            _maxPerTxHomeDailyLimitHomeMaxPerTxArray, // [ 0 = _maxPerTx, 1 = _homeDailyLimit, 2 = _homeMaxPerTx ]\n            _owner,\n            _decimalShift\n        );\n\n        uintStorage[DAILY_LIMIT] = _dailyLimitMaxPerTxMinPerTxArray[0];\n        uintStorage[MIN_PER_TX] = _dailyLimitMaxPerTxMinPerTxArray[2];\n\n        emit DailyLimitChanged(_dailyLimitMaxPerTxMinPerTxArray[0]);\n\n        return isInitialized();\n    }\n\n    function erc20token() public view returns (ERC20Basic) {\n        return erc677token();\n    }\n\n    function setErc20token(address _token) internal {\n        setErc677token(_token);\n    }\n\n    function fireEventOnTokenTransfer(address _from, uint256 _value) internal {\n        emit UserRequestForAffirmation(_from, _value);\n    }\n}\n",
  "sourcePath": "/mono/contracts/contracts/upgradeable_contracts/erc20_to_erc20/ForeignBridgeErc677ToErc677.sol",
  "compiler": {
    "name": "solc",
    "version": "0.4.24+commit.e67f0147.Emscripten.clang"
  },
  "schemaVersion": "3.0.11",
  "updatedAt": "2019-09-03T09:43:49.678Z",
  "devdoc": {
    "methods": {
      "owner()": {
        "details": "Tells the address of the owner",
        "return": "the address of the owner"
      },
      "transferOwnership(address)": {
        "details": "Allows the current owner to transfer control of the contract to a newOwner.",
        "params": {
          "newOwner": "the address to transfer ownership to."
        }
      }
    }
  },
  "userdoc": {
    "methods": {}
  }
}