{
  "contractName": "ForeignBridgeErc677ToErc677",
  "abi": [
    {
      "constant": true,
      "inputs": [],
      "name": "erc677token",
      "outputs": [
        {
          "name": "",
          "type": "address"
        }
      ],
      "payable": false,
      "stateMutability": "view",
      "type": "function"
    },
    {
      "constant": true,
      "inputs": [
        {
          "name": "_txHash",
          "type": "bytes32"
        }
      ],
      "name": "relayedMessages",
      "outputs": [
        {
          "name": "",
          "type": "bool"
        }
      ],
      "payable": false,
      "stateMutability": "view",
      "type": "function"
    },
    {
      "constant": false,
      "inputs": [
        {
          "name": "vs",
          "type": "uint8[]"
        },
        {
          "name": "rs",
          "type": "bytes32[]"
        },
        {
          "name": "ss",
          "type": "bytes32[]"
        },
        {
          "name": "message",
          "type": "bytes"
        }
      ],
      "name": "executeSignatures",
      "outputs": [],
      "payable": false,
      "stateMutability": "nonpayable",
      "type": "function"
    },
    {
      "constant": true,
      "inputs": [
        {
          "name": "_day",
          "type": "uint256"
        }
      ],
      "name": "totalSpentPerDay",
      "outputs": [
        {
          "name": "",
          "type": "uint256"
        }
      ],
      "payable": false,
      "stateMutability": "view",
      "type": "function"
    },
    {
      "constant": true,
      "inputs": [],
      "name": "isInitialized",
      "outputs": [
        {
          "name": "",
          "type": "bool"
        }
      ],
      "payable": false,
      "stateMutability": "view",
      "type": "function"
    },
    {
      "constant": false,
      "inputs": [
        {
          "name": "_dailyLimit",
          "type": "uint256"
        }
      ],
      "name": "setExecutionDailyLimit",
      "outputs": [],
      "payable": false,
      "stateMutability": "nonpayable",
      "type": "function"
    },
    {
      "constant": true,
      "inputs": [],
      "name": "getCurrentDay",
      "outputs": [
        {
          "name": "",
          "type": "uint256"
        }
      ],
      "payable": false,
      "stateMutability": "view",
      "type": "function"
    },
    {
      "constant": true,
      "inputs": [],
      "name": "requiredBlockConfirmations",
      "outputs": [
        {
          "name": "",
          "type": "uint256"
        }
      ],
      "payable": false,
      "stateMutability": "view",
      "type": "function"
    },
    {
      "constant": true,
      "inputs": [],
      "name": "getBridgeMode",
      "outputs": [
        {
          "name": "_data",
          "type": "bytes4"
        }
      ],
      "payable": false,
      "stateMutability": "pure",
      "type": "function"
    },
    {
      "constant": true,
      "inputs": [],
      "name": "executionDailyLimit",
      "outputs": [
        {
          "name": "",
          "type": "uint256"
        }
      ],
      "payable": false,
      "stateMutability": "view",
      "type": "function"
    },
    {
      "constant": true,
      "inputs": [
        {
          "name": "_day",
          "type": "uint256"
        }
      ],
      "name": "totalExecutedPerDay",
      "outputs": [
        {
          "name": "",
          "type": "uint256"
        }
      ],
      "payable": false,
      "stateMutability": "view",
      "type": "function"
    },
    {
      "constant": true,
      "inputs": [],
      "name": "dailyLimit",
      "outputs": [
        {
          "name": "",
          "type": "uint256"
        }
      ],
      "payable": false,
      "stateMutability": "view",
      "type": "function"
    },
    {
      "constant": false,
      "inputs": [
        {
          "name": "_token",
          "type": "address"
        },
        {
          "name": "_to",
          "type": "address"
        }
      ],
      "name": "claimTokens",
      "outputs": [],
      "payable": false,
      "stateMutability": "nonpayable",
      "type": "function"
    },
    {
      "constant": true,
      "inputs": [
        {
          "name": "_amount",
          "type": "uint256"
        }
      ],
      "name": "withinExecutionLimit",
      "outputs": [
        {
          "name": "",
          "type": "bool"
        }
      ],
      "payable": false,
      "stateMutability": "view",
      "type": "function"
    },
    {
      "constant": true,
      "inputs": [],
      "name": "executionMaxPerTx",
      "outputs": [
        {
          "name": "",
          "type": "uint256"
        }
      ],
      "payable": false,
      "stateMutability": "view",
      "type": "function"
    },
    {
      "constant": true,
      "inputs": [],
      "name": "requiredSignatures",
      "outputs": [
        {
          "name": "",
          "type": "uint256"
        }
      ],
      "payable": false,
      "stateMutability": "view",
      "type": "function"
    },
    {
      "constant": true,
      "inputs": [],
      "name": "owner",
      "outputs": [
        {
          "name": "",
          "type": "address"
        }
      ],
      "payable": false,
      "stateMutability": "view",
      "type": "function"
    },
    {
      "constant": true,
      "inputs": [],
      "name": "validatorContract",
      "outputs": [
        {
          "name": "",
          "type": "address"
        }
      ],
      "payable": false,
      "stateMutability": "view",
      "type": "function"
    },
    {
      "constant": true,
      "inputs": [],
      "name": "deployedAtBlock",
      "outputs": [
        {
          "name": "",
          "type": "uint256"
        }
      ],
      "payable": false,
      "stateMutability": "view",
      "type": "function"
    },
    {
      "constant": true,
      "inputs": [],
      "name": "getBridgeInterfacesVersion",
      "outputs": [
        {
          "name": "major",
          "type": "uint64"
        },
        {
          "name": "minor",
          "type": "uint64"
        },
        {
          "name": "patch",
          "type": "uint64"
        }
      ],
      "payable": false,
      "stateMutability": "pure",
      "type": "function"
    },
    {
      "constant": false,
      "inputs": [
        {
          "name": "_minPerTx",
          "type": "uint256"
        }
      ],
      "name": "setMinPerTx",
      "outputs": [],
      "payable": false,
      "stateMutability": "nonpayable",
      "type": "function"
    },
    {
      "constant": false,
      "inputs": [
        {
          "name": "_from",
          "type": "address"
        },
        {
          "name": "_value",
          "type": "uint256"
        },
        {
          "name": "",
          "type": "bytes"
        }
      ],
      "name": "onTokenTransfer",
      "outputs": [
        {
          "name": "",
          "type": "bool"
        }
      ],
      "payable": false,
      "stateMutability": "nonpayable",
      "type": "function"
    },
    {
      "constant": false,
      "inputs": [
        {
          "name": "_blockConfirmations",
          "type": "uint256"
        }
      ],
      "name": "setRequiredBlockConfirmations",
      "outputs": [],
      "payable": false,
      "stateMutability": "nonpayable",
      "type": "function"
    },
    {
      "constant": false,
      "inputs": [
        {
          "name": "_dailyLimit",
          "type": "uint256"
        }
      ],
      "name": "setDailyLimit",
      "outputs": [],
      "payable": false,
      "stateMutability": "nonpayable",
      "type": "function"
    },
    {
      "constant": false,
      "inputs": [
        {
          "name": "_gasPrice",
          "type": "uint256"
        }
      ],
      "name": "setGasPrice",
      "outputs": [],
      "payable": false,
      "stateMutability": "nonpayable",
      "type": "function"
    },
    {
      "constant": false,
      "inputs": [
        {
          "name": "_maxPerTx",
          "type": "uint256"
        }
      ],
      "name": "setMaxPerTx",
      "outputs": [],
      "payable": false,
      "stateMutability": "nonpayable",
      "type": "function"
    },
    {
      "constant": true,
      "inputs": [],
      "name": "upgradeabilityAdmin",
      "outputs": [
        {
          "name": "",
          "type": "address"
        }
      ],
      "payable": false,
      "stateMutability": "view",
      "type": "function"
    },
    {
      "constant": true,
      "inputs": [],
      "name": "minPerTx",
      "outputs": [
        {
          "name": "",
          "type": "uint256"
        }
      ],
      "payable": false,
      "stateMutability": "view",
      "type": "function"
    },
    {
      "constant": true,
      "inputs": [
        {
          "name": "_amount",
          "type": "uint256"
        }
      ],
      "name": "withinLimit",
      "outputs": [
        {
          "name": "",
          "type": "bool"
        }
      ],
      "payable": false,
      "stateMutability": "view",
      "type": "function"
    },
    {
      "constant": false,
      "inputs": [
        {
          "name": "_maxPerTx",
          "type": "uint256"
        }
      ],
      "name": "setExecutionMaxPerTx",
      "outputs": [],
      "payable": false,
      "stateMutability": "nonpayable",
      "type": "function"
    },
    {
      "constant": false,
      "inputs": [
        {
          "name": "newOwner",
          "type": "address"
        }
      ],
      "name": "transferOwnership",
      "outputs": [],
      "payable": false,
      "stateMutability": "nonpayable",
      "type": "function"
    },
    {
      "constant": true,
      "inputs": [],
      "name": "maxPerTx",
      "outputs": [
        {
          "name": "",
          "type": "uint256"
        }
      ],
      "payable": false,
      "stateMutability": "view",
      "type": "function"
    },
    {
      "constant": true,
      "inputs": [],
      "name": "gasPrice",
      "outputs": [
        {
          "name": "",
          "type": "uint256"
        }
      ],
      "payable": false,
      "stateMutability": "view",
      "type": "function"
    },
    {
      "anonymous": false,
      "inputs": [
        {
          "indexed": false,
          "name": "recipient",
          "type": "address"
        },
        {
          "indexed": false,
          "name": "value",
          "type": "uint256"
        }
      ],
      "name": "UserRequestForAffirmation",
      "type": "event"
    },
    {
      "anonymous": false,
      "inputs": [
        {
          "indexed": false,
          "name": "recipient",
          "type": "address"
        },
        {
          "indexed": false,
          "name": "value",
          "type": "uint256"
        },
        {
          "indexed": false,
          "name": "transactionHash",
          "type": "bytes32"
        }
      ],
      "name": "RelayedMessage",
      "type": "event"
    },
    {
      "anonymous": false,
      "inputs": [
        {
          "indexed": false,
          "name": "gasPrice",
          "type": "uint256"
        }
      ],
      "name": "GasPriceChanged",
      "type": "event"
    },
    {
      "anonymous": false,
      "inputs": [
        {
          "indexed": false,
          "name": "requiredBlockConfirmations",
          "type": "uint256"
        }
      ],
      "name": "RequiredBlockConfirmationChanged",
      "type": "event"
    },
    {
      "anonymous": false,
      "inputs": [
        {
          "indexed": false,
          "name": "newLimit",
          "type": "uint256"
        }
      ],
      "name": "DailyLimitChanged",
      "type": "event"
    },
    {
      "anonymous": false,
      "inputs": [
        {
          "indexed": false,
          "name": "newLimit",
          "type": "uint256"
        }
      ],
      "name": "ExecutionDailyLimitChanged",
      "type": "event"
    },
    {
      "anonymous": false,
      "inputs": [
        {
          "indexed": false,
          "name": "previousOwner",
          "type": "address"
        },
        {
          "indexed": false,
          "name": "newOwner",
          "type": "address"
        }
      ],
      "name": "OwnershipTransferred",
      "type": "event"
    },
    {
      "constant": false,
      "inputs": [
        {
          "name": "_validatorContract",
          "type": "address"
        },
        {
          "name": "_erc20token",
          "type": "address"
        },
        {
          "name": "_requiredBlockConfirmations",
          "type": "uint256"
        },
        {
          "name": "_gasPrice",
          "type": "uint256"
        },
        {
          "name": "_dailyLimit",
          "type": "uint256"
        },
        {
          "name": "_maxPerTx",
          "type": "uint256"
        },
        {
          "name": "_minPerTx",
          "type": "uint256"
        },
        {
          "name": "_homeDailyLimit",
          "type": "uint256"
        },
        {
          "name": "_homeMaxPerTx",
          "type": "uint256"
        },
        {
          "name": "_owner",
          "type": "address"
        }
      ],
      "name": "initialize",
      "outputs": [
        {
          "name": "",
          "type": "bool"
        }
      ],
      "payable": false,
      "stateMutability": "nonpayable",
      "type": "function"
    },
    {
      "constant": true,
      "inputs": [],
      "name": "erc20token",
      "outputs": [
        {
          "name": "",
          "type": "address"
        }
      ],
      "payable": false,
      "stateMutability": "view",
      "type": "function"
    }
  ],
  "bytecode": "0x608060405234801561001057600080fd5b50612d33806100206000396000f30060806040526004361061019d5763ffffffff60e060020a60003504166318d8f9c981146101a25780631dcea427146101d357806321d800ec146101e8578063232a2c1d146102145780632bd0bb051461025a578063392e53cd146102845780633dd95d1b146102995780633e6968b6146102b15780633f0a9f65146102c6578063437764df146102db57806343b37dd3146103255780634fb3fef71461033a5780635ad1d7f91461035257806367eeba0c1461039d57806369ffa08a146103b2578063879ce676146103d95780638aa1949a146103f15780638d068043146104065780638da5cb5b1461041b57806399439089146104305780639a454b99146104455780639cb7595a1461045a578063a2a6ca271461049b578063a4c0ed36146104b3578063acf5c689146104e4578063b20d30a9146104fc578063bf1fe42014610514578063c6f6f2161461052c578063df0ad3de14610544578063df25f3f014610559578063ea9f49681461056e578063f20151e114610586578063f2fde38b1461059e578063f968adbe146105bf578063fe173b97146105d4575b600080fd5b3480156101ae57600080fd5b506101b76105e9565b60408051600160a060020a039092168252519081900360200190f35b3480156101df57600080fd5b506101b76106a7565b3480156101f457600080fd5b506102006004356106b6565b604080519115158252519081900360200190f35b34801561022057600080fd5b50610258602460048035828101929082013591813580830192908201359160443580830192908201359160643591820191013561077f565b005b34801561026657600080fd5b50610272600435610958565b60408051918252519081900360200190f35b34801561029057600080fd5b50610200610a15565b3480156102a557600080fd5b50610258600435610acd565b3480156102bd57600080fd5b50610272610bcf565b3480156102d257600080fd5b50610272610bd8565b3480156102e757600080fd5b506102f0610c8c565b604080517fffffffff000000000000000000000000000000000000000000000000000000009092168252519081900360200190f35b34801561033157600080fd5b50610272610d2f565b34801561034657600080fd5b50610272600435610da2565b34801561035e57600080fd5b50610200600160a060020a0360043581169060243581169060443590606435906084359060a4359060c4359060e4359061010435906101243516610e1d565b3480156103a957600080fd5b50610272610fc7565b3480156103be57600080fd5b50610258600160a060020a036004358116906024351661103a565b3480156103e557600080fd5b50610200600435611084565b3480156103fd57600080fd5b506102726110ce565b34801561041257600080fd5b50610272611141565b34801561042757600080fd5b506101b76111b9565b34801561043c57600080fd5b506101b761122d565b34801561045157600080fd5b506102726112a1565b34801561046657600080fd5b5061046f611314565b6040805167ffffffffffffffff9485168152928416602084015292168183015290519081900360600190f35b3480156104a757600080fd5b5061025860043561131e565b3480156104bf57600080fd5b5061020060048035600160a060020a0316906024803591604435918201910135611415565b3480156104f057600080fd5b50610258600435611486565b34801561050857600080fd5b50610258600435611595565b34801561052057600080fd5b50610258600435611697565b34801561053857600080fd5b506102586004356117a6565b34801561055057600080fd5b506101b7611847565b34801561056557600080fd5b50610272611887565b34801561057a57600080fd5b506102006004356118fa565b34801561059257600080fd5b50610258600435611945565b3480156105aa57600080fd5b50610258600160a060020a03600435166119e6565b3480156105cb57600080fd5b50610272611a23565b3480156105e057600080fd5b50610272611a96565b60006002600060405160200180807f657263363737746f6b656e000000000000000000000000000000000000000000815250600b0190506040516020818303038152906040526040518082805190602001908083835b6020831061065e5780518252601f19909201916020918201910161063f565b51815160209384036101000a6000190180199092169116179052604080519290940182900390912086528501959095529290920160002054600160a060020a0316949350505050565b60006106b16105e9565b905090565b6000600460008360405160200180807f72656c617965644d657373616765730000000000000000000000000000000000815250600f0182600019166000191681526020019150506040516020818303038152906040526040518082805190602001908083835b6020831061073b5780518252601f19909201916020918201910161071c565b51815160209384036101000a600019018019909216911617905260408051929094018290039091208652850195909552929092016000205460ff1695945050505050565b60008060008061085786868080601f0160208091040260200160405190810160405280939291908181526020018383808284378201915050505050508d8d808060200260200160405190810160405280939291908181526020018383602002808284378201915050505050508c8c808060200260200160405190810160405280939291908181526020018383602002808284378201915050505050508b8b8080602002602001604051908101604052809392919081815260200183836020028082843750610852945061122d9350505050565b611b09565b61089086868080601f01602080910402602001604051908101604052809392919081815260200183838082843750611d76945050505050565b929650909450925090506108a383611dbc565b1561093f57600160a060020a03811630146108bd57600080fd5b6108c6826106b6565b156108d057600080fd5b6108db826001611dcd565b6108e6848484611e9f565b15156108f157600080fd5b60408051600160a060020a03861681526020810185905280820184905290517f4ab7d581336d92edbea22636a613e8e76c99ac7f91137c1523db38dbfb3bf3299181900360600190a161094a565b61094a84848461019d565b505050505050505050505050565b60008060008360405160200180807f746f74616c5370656e74506572446179000000000000000000000000000000008152506010018281526020019150506040516020818303038152906040526040518082805190602001908083835b602083106109d45780518252601f1990920191602091820191016109b5565b51815160209384036101000a600019018019909216911617905260408051929094018290039091208652850195909552929092016000205495945050505050565b60006004600060405160200180807f6973496e697469616c697a656400000000000000000000000000000000000000815250600d0190506040516020818303038152906040526040518082805190602001908083835b60208310610a8a5780518252601f199092019160209182019101610a6b565b51815160209384036101000a600019018019909216911617905260408051929094018290039091208652850195909552929092016000205460ff16949350505050565b610ad56111b9565b600160a060020a03163314610ae957600080fd5b8060008060405160200180807f657865637574696f6e4461696c794c696d69740000000000000000000000000081525060130190506040516020818303038152906040526040518082805190602001908083835b60208310610b5c5780518252601f199092019160209182019101610b3d565b51815160001960209485036101000a019081169019919091161790526040805194909201849003909320865285830196909652509284016000209490945550815184815291517f9bebf928b90863f24cc31f726a3a7545efd409f1dcf552301b1ee3710da70d3b9350918290030190a150565b62015180420490565b600080600060405160200180807f7265717569726564426c6f636b436f6e6669726d6174696f6e73000000000000815250601a0190506040516020818303038152906040526040518082805190602001908083835b60208310610c4c5780518252601f199092019160209182019101610c2d565b51815160209384036101000a6000190180199092169116179052604080519290940182900390912086528501959095529290920160002054949350505050565b600060405160200180807f6572632d746f2d6572632d636f72650000000000000000000000000000000000815250600f0190506040516020818303038152906040526040518082805190602001908083835b60208310610cfd5780518252601f199092019160209182019101610cde565b6001836020036101000a0380198251168184511680821785525050505050509050019150506040518091039020905090565b600080600060405160200180807f657865637574696f6e4461696c794c696d697400000000000000000000000000815250601301905060405160208183030381529060405260405180828051906020019080838360208310610c4c5780518252601f199092019160209182019101610c2d565b60008060008360405160200180807f746f74616c457865637574656450657244617900000000000000000000000000815250601301828152602001915050604051602081830303815290604052604051808280519060200190808383602083106109d45780518252601f1990920191602091820191016109b5565b60008085118015610e2d57508486115b8015610e3857508587115b1515610e4357600080fd5b610e538b8b8b8b8a898989611f5e565b8660008060405160200180807f6461696c794c696d697400000000000000000000000000000000000000000000815250600a0190506040516020818303038152906040526040518082805190602001908083835b60208310610ec65780518252601f199092019160209182019101610ea7565b51815160209384036101000a6000190180199092169116179052604080519290940182900390912086528581019690965250928301600090812095909555505080517f6d696e50657254780000000000000000000000000000000000000000000000008184015281516008818303018152602890910191829052805189949384939182918401908083835b60208310610f705780518252601f199092019160209182019101610f51565b51815160209384036101000a600019018019909216911617905260408051929094018290039091208652850195909552929092016000209390935550610fb89150610a159050565b9b9a5050505050505050505050565b600080600060405160200180807f6461696c794c696d697400000000000000000000000000000000000000000000815250600a01905060405160208183030381529060405260405180828051906020019080838360208310610c4c5780518252601f199092019160209182019101610c2d565b611042611847565b600160a060020a0316331461105657600080fd5b61105e6106a7565b600160a060020a038381169116141561107657600080fd5b61108082826124d8565b5050565b6000806110a78361109b611096610bcf565b610da2565b9063ffffffff61269416565b9050806110b2610d2f565b101580156110c757506110c36110ce565b8311155b9392505050565b600080600060405160200180807f657865637574696f6e4d61785065725478000000000000000000000000000000815250601101905060405160208183030381529060405260405180828051906020019080838360208310610c4c5780518252601f199092019160209182019101610c2d565b600061114b61122d565b600160a060020a0316638d0680436040518163ffffffff1660e060020a028152600401602060405180830381600087803b15801561118857600080fd5b505af115801561119c573d6000803e3d6000fd5b505050506040513d60208110156111b257600080fd5b5051905090565b60006002600060405160200180807f6f776e657200000000000000000000000000000000000000000000000000000081525060050190506040516020818303038152906040526040518082805190602001908083836020831061065e5780518252601f19909201916020918201910161063f565b60006002600060405160200180807f76616c696461746f72436f6e747261637400000000000000000000000000000081525060110190506040516020818303038152906040526040518082805190602001908083836020831061065e5780518252601f19909201916020918201910161063f565b600080600060405160200180807f6465706c6f7965644174426c6f636b0000000000000000000000000000000000815250600f01905060405160208183030381529060405260405180828051906020019080838360208310610c4c5780518252601f199092019160209182019101610c2d565b6002806000909192565b6113266111b9565b600160a060020a0316331461133a57600080fd5b611342610fc7565b811080156113565750611353611a23565b81105b151561136157600080fd5b8060008060405160200180807f6d696e506572547800000000000000000000000000000000000000000000000081525060080190506040516020818303038152906040526040518082805190602001908083835b602083106113d45780518252601f1990920191602091820191016113b5565b51815160209384036101000a600019018019909216911617905260408051929094018290039091208652850195909552929092016000209390935550505050565b6000806114206105e9565b905033600160a060020a0382161461143757600080fd5b611440856118fa565b151561144b57600080fd5b61146f611456610bcf565b61146a8761109b611465610bcf565b610958565b6126ae565b61147a81878761276b565b50600195945050505050565b61148e6111b9565b600160a060020a031633146114a257600080fd5b600081116114af57600080fd5b8060008060405160200180807f7265717569726564426c6f636b436f6e6669726d6174696f6e73000000000000815250601a0190506040516020818303038152906040526040518082805190602001908083835b602083106115225780518252601f199092019160209182019101611503565b51815160001960209485036101000a019081169019919091161790526040805194909201849003909320865285830196909652509284016000209490945550815184815291517f4fb76205cd57c896b21511d2114137d8e901b4ccd659e1a0f97d6306795264fb9350918290030190a150565b61159d6111b9565b600160a060020a031633146115b157600080fd5b8060008060405160200180807f6461696c794c696d697400000000000000000000000000000000000000000000815250600a0190506040516020818303038152906040526040518082805190602001908083835b602083106116245780518252601f199092019160209182019101611605565b51815160001960209485036101000a019081169019919091161790526040805194909201849003909320865285830196909652509284016000209490945550815184815291517fad4123ae17c414d9c6d2fec478b402e6b01856cc250fd01fbfd252fda0089d3c9350918290030190a150565b61169f6111b9565b600160a060020a031633146116b357600080fd5b600081116116c057600080fd5b8060008060405160200180807f676173507269636500000000000000000000000000000000000000000000000081525060080190506040516020818303038152906040526040518082805190602001908083835b602083106117335780518252601f199092019160209182019101611714565b51815160001960209485036101000a019081169019919091161790526040805194909201849003909320865285830196909652509284016000209490945550815184815291517f52264b89e0fceafb26e79fd49ef8a366eb6297483bf4035b027f0c99a7ad512e9350918290030190a150565b6117ae6111b9565b600160a060020a031633146117c257600080fd5b6117ca610fc7565b81106117d557600080fd5b8060008060405160200180807f6d617850657254780000000000000000000000000000000000000000000000008152506008019050604051602081830303815290604052604051808280519060200190808383602083106113d45780518252601f1990920191602091820191016113b5565b600030600160a060020a031663025313a26040518163ffffffff1660e060020a028152600401602060405180830381600087803b15801561118857600080fd5b600080600060405160200180807f6d696e5065725478000000000000000000000000000000000000000000000000815250600801905060405160208183030381529060405260405180828051906020019080838360208310610c4c5780518252601f199092019160209182019101610c2d565b60008061190c8361109b611465610bcf565b905080611917610fc7565b1015801561192c5750611928611a23565b8311155b80156110c7575061193b611887565b9092101592915050565b61194d6111b9565b600160a060020a0316331461196157600080fd5b611969610d2f565b811061197457600080fd5b8060008060405160200180807f657865637574696f6e4d617850657254780000000000000000000000000000008152506011019050604051602081830303815290604052604051808280519060200190808383602083106113d45780518252601f1990920191602091820191016113b5565b6119ee6111b9565b600160a060020a03163314611a0257600080fd5b600160a060020a0381161515611a1757600080fd5b611a208161277a565b50565b600080600060405160200180807f6d61785065725478000000000000000000000000000000000000000000000000815250600801905060405160208183030381529060405260405180828051906020019080838360208310610c4c5780518252601f199092019160209182019101610c2d565b600080600060405160200180807f6761735072696365000000000000000000000000000000000000000000000000815250600801905060405160208183030381529060405260405180828051906020019080838360208310610c4c5780518252601f199092019160209182019101610c2d565b6000806060600080611b1a8a6128a2565b1515611b2557600080fd5b85600160a060020a0316638d0680436040518163ffffffff1660e060020a028152600401602060405180830381600087803b158015611b6357600080fd5b505af1158015611b77573d6000803e3d6000fd5b505050506040513d6020811015611b8d57600080fd5b50518951909550851115611ba057600080fd5b611ba98a6128b6565b935084604051908082528060200260200182016040528015611bd5578160200160208202803883390190505b509250600091505b84821015611d6a576001848a84815181101515611bf657fe5b906020019060200201518a85815181101515611c0e57fe5b906020019060200201518a86815181101515611c2657fe5b60209081029091018101516040805160008082528185018084529790975260ff9095168582015260608501939093526080840152905160a0808401949293601f19830193908390039091019190865af1158015611c87573d6000803e3d6000fd5b50505060206040510351905085600160a060020a031663facd743b826040518263ffffffff1660e060020a0281526004018082600160a060020a0316600160a060020a03168152602001915050602060405180830381600087803b158015611cee57600080fd5b505af1158015611d02573d6000803e3d6000fd5b505050506040513d6020811015611d1857600080fd5b50511515611d2557600080fd5b611d2f8382612a7b565b15611d3957600080fd5b808383815181101515611d4857fe5b600160a060020a03909216602092830290910190910152600190910190611bdd565b50505050505050505050565b600080600080611d85856128a2565b1515611d9057600080fd5b600160a060020a0360148601511693506034850151925060548501519150606885015190509193509193565b6000611dc782611084565b92915050565b80600460008460405160200180807f72656c617965644d657373616765730000000000000000000000000000000000815250600f0182600019166000191681526020019150506040516020818303038152906040526040518082805190602001908083835b60208310611e515780518252601f199092019160209182019101611e32565b51815160209384036101000a60001901801990921691161790526040805192909401829003909120865285019590955292909201600020805460ff1916941515949094179093555050505050565b6000611ec0611eac610bcf565b611ebb8561109b611096610bcf565b612ad4565b611ec86106a7565b600160a060020a031663a9059cbb85856040518363ffffffff1660e060020a0281526004018083600160a060020a0316600160a060020a0316815260200182815260200192505050602060405180830381600087803b158015611f2a57600080fd5b505af1158015611f3e573d6000803e3d6000fd5b505050506040513d6020811015611f5457600080fd5b5051949350505050565b611f66610a15565b15611f7057600080fd5b600160a060020a03881615801590611f8c5750611f8c88612b4e565b1515611f9757600080fd5b851515611fa357600080fd5b60008511611fb057600080fd5b828210611fbc57600080fd5b600160a060020a0381161515611fd157600080fd5b876002600060405160200180807f76616c696461746f72436f6e747261637400000000000000000000000000000081525060110190506040516020818303038152906040526040518082805190602001908083835b602083106120455780518252601f199092019160209182019101612026565b51815160209384036101000a60001901801990921691161790526040805192909401829003909120865285019590955292909201600020805473ffffffffffffffffffffffffffffffffffffffff1916600160a060020a039590951694909417909355506120b69150889050612b56565b4360008060405160200180807f6465706c6f7965644174426c6f636b0000000000000000000000000000000000815250600f0190506040516020818303038152906040526040518082805190602001908083835b602083106121295780518252601f19909201916020918201910161210a565b51815160209384036101000a6000190180199092169116179052604080519290940182900390912086528581019690965250928301600090812095909555505080517f7265717569726564426c6f636b436f6e6669726d6174696f6e73000000000000818401528151601a818303018152603a9091019182905280518a949384939182918401908083835b602083106121d35780518252601f1990920191602091820191016121b4565b51815160209384036101000a6000190180199092169116179052604080519290940182900390912086528581019690965250928301600090812095909555505080517f67617350726963650000000000000000000000000000000000000000000000008184015281516008818303018152602890910191829052805189949384939182918401908083835b6020831061227d5780518252601f19909201916020918201910161225e565b51815160209384036101000a6000190180199092169116179052604080519290940182900390912086528581019690965250928301600090812095909555505080517f6d617850657254780000000000000000000000000000000000000000000000008184015281516008818303018152602890910191829052805188949384939182918401908083835b602083106123275780518252601f199092019160209182019101612308565b51815160209384036101000a6000190180199092169116179052604080519290940182900390912086528581019690965250928301600090812095909555505080517f657865637574696f6e4461696c794c696d6974000000000000000000000000008184015281516013818303018152603390910191829052805187949384939182918401908083835b602083106123d15780518252601f1990920191602091820191016123b2565b51815160209384036101000a6000190180199092169116179052604080519290940182900390912086528581019690965250928301600090812095909555505080517f657865637574696f6e4d617850657254780000000000000000000000000000008184015281516011818303018152603190910191829052805186949384939182918401908083835b6020831061247b5780518252601f19909201916020918201910161245c565b51815160209384036101000a6000190180199092169116179052604080519290940182900390912086528501959095529290920160002093909355506124c4915082905061277a565b6124ce6001612b5f565b5050505050505050565b6000806124e3611847565b600160a060020a031633146124f757600080fd5b600160a060020a038316151561250c57600080fd5b600160a060020a038416151561255857604051600160a060020a03841690303180156108fc02916000818181858888f19350505050158015612552573d6000803e3d6000fd5b5061268e565b604080517f70a082310000000000000000000000000000000000000000000000000000000081523060048201529051859350600160a060020a038416916370a082319160248083019260209291908290030181600087803b1580156125bc57600080fd5b505af11580156125d0573d6000803e3d6000fd5b505050506040513d60208110156125e657600080fd5b5051604080517fa9059cbb000000000000000000000000000000000000000000000000000000008152600160a060020a0386811660048301526024820184905291519293509084169163a9059cbb916044808201926020929091908290030181600087803b15801561265757600080fd5b505af115801561266b573d6000803e3d6000fd5b505050506040513d602081101561268157600080fd5b5051151561268e57600080fd5b50505050565b6000828201838110156126a357fe5b8091505b5092915050565b806000808460405160200180807f746f74616c5370656e74506572446179000000000000000000000000000000008152506010018281526020019150506040516020818303038152906040526040518082805190602001908083835b602083106127295780518252601f19909201916020918201910161270a565b51815160209384036101000a60001901801990921691161790526040805192909401829003909120865285019590955292909201600020939093555050505050565b6127758282612c20565b505050565b7f8be0079c531659141344cd1fd0a4f28419497f9722a3daafe3b4186f6b6457e06127a36111b9565b60408051600160a060020a03928316815291841660208301528051918290030190a1806002600060405160200180807f6f776e657200000000000000000000000000000000000000000000000000000081525060050190506040516020818303038152906040526040518082805190602001908083835b602083106128395780518252601f19909201916020918201910161281a565b51815160209384036101000a60001901801990921691161790526040805192909401829003909120865285019590955292909201600020805473ffffffffffffffffffffffffffffffffffffffff1916600160a060020a03959095169490941790935550505050565b60006128ac612c68565b8251149050919050565b604080518082018252601a81527f19457468657265756d205369676e6564204d6573736167653a0a000000000000602080830191825283518085018552600381527f313034000000000000000000000000000000000000000000000000000000000081830152935183516000959385938593899391019182918083835b602083106129525780518252601f199092019160209182019101612933565b51815160209384036101000a600019018019909216911617905286519190930192860191508083835b6020831061299a5780518252601f19909201916020918201910161297b565b51815160209384036101000a600019018019909216911617905285519190930192850191508083835b602083106129e25780518252601f1990920191602091820191016129c3565b6001836020036101000a03801982511681845116808217855250505050505090500193505050506040516020818303038152906040526040518082805190602001908083835b60208310612a475780518252601f199092019160209182019101612a28565b5181516020939093036101000a60001901801990911692169190911790526040519201829003909120979650505050505050565b6000805b8351811015612aca5782600160a060020a03168482815181101515612aa057fe5b90602001906020020151600160a060020a03161415612ac257600191506126a7565b600101612a7f565b5060009392505050565b806000808460405160200180807f746f74616c457865637574656450657244617900000000000000000000000000815250601301828152602001915050604051602081830303815290604052604051808280519060200190808383602083106127295780518252601f19909201916020918201910161270a565b6000903b1190565b611a2081612c6d565b806004600060405160200180807f6973496e697469616c697a656400000000000000000000000000000000000000815250600d0190506040516020818303038152906040526040518082805190602001908083835b60208310612bd35780518252601f199092019160209182019101612bb4565b51815160209384036101000a60001901801990921691161790526040805192909401829003909120865285019590955292909201600020805460ff19169415159490941790935550505050565b60408051600160a060020a03841681526020810183905281517f1d491a427d1f8cc0d447496f300fac39f7306122481d8e663451eb268274146b929181900390910190a15050565b606890565b600160a060020a03811615801590612c895750612c8981612b4e565b1515612c9457600080fd5b806002600060405160200180807f657263363737746f6b656e000000000000000000000000000000000000000000815250600b019050604051602081830303815290604052604051808280519060200190808383602083106128395780518252601f19909201916020918201910161281a5600a165627a7a723058205f38cb24217f6bf6b42f7c618e43e6906a12a5e47a12b08280de10528ae0fb6c0029",
  "source": "pragma solidity 0.4.24;\n\n\nimport \"./BasicForeignBridgeErcToErc.sol\";\nimport \"../ERC677Bridge.sol\";\n\n\ncontract ForeignBridgeErc677ToErc677 is ERC677Bridge, BasicForeignBridgeErcToErc {\n\n    event UserRequestForAffirmation(address recipient, uint256 value);\n\n    function initialize(\n        address _validatorContract,\n        address _erc20token,\n        uint256 _requiredBlockConfirmations,\n        uint256 _gasPrice,\n        uint256 _dailyLimit,\n        uint256 _maxPerTx,\n        uint256 _minPerTx,\n        uint256 _homeDailyLimit,\n        uint256 _homeMaxPerTx,\n        address _owner\n    ) public returns(bool) {\n        require(_minPerTx > 0 && _maxPerTx > _minPerTx && _dailyLimit > _maxPerTx);\n\n        _initialize(\n            _validatorContract,\n            _erc20token,\n            _requiredBlockConfirmations,\n            _gasPrice,\n            _maxPerTx,\n            _homeDailyLimit,\n            _homeMaxPerTx,\n            _owner\n        );\n\n        uintStorage[keccak256(abi.encodePacked(\"dailyLimit\"))] = _dailyLimit;\n        uintStorage[keccak256(abi.encodePacked(\"minPerTx\"))] = _minPerTx;\n\n        return isInitialized();\n    }\n\n    function erc20token() public view returns(ERC20Basic) {\n        return erc677token();\n    }\n\n    function setErc20token(address _token) internal {\n        setErc677token(_token);\n    }\n\n    function fireEventOnTokenTransfer(address _from, uint256 _value) internal {\n        emit UserRequestForAffirmation(_from, _value);\n    }\n}\n",
  "sourcePath": "/Users/fbranci/iexecdev/vivani/tokenbridge/contracts/contracts/upgradeable_contracts/erc20_to_erc20/ForeignBridgeErc677ToErc677.sol",
  "compiler": {
    "name": "solc",
    "version": "0.4.24+commit.e67f0147.Emscripten.clang"
  },
  "schemaVersion": "3.0.13",
  "updatedAt": "2019-08-28T14:04:53.284Z",
  "devdoc": {
    "methods": {
      "owner()": {
        "details": "Tells the address of the owner",
        "return": "the address of the owner"
      },
      "transferOwnership(address)": {
        "details": "Allows the current owner to transfer control of the contract to a newOwner.",
        "params": {
          "newOwner": "the address to transfer ownership to."
        }
      }
    }
  },
  "userdoc": {
    "methods": {}
  }
}