{
  "contractName": "ForeignBridgeNativeToErc",
  "abi": [
    {
      "constant": true,
      "inputs": [],
      "name": "erc677token",
      "outputs": [
        {
          "name": "",
          "type": "address"
        }
      ],
      "payable": false,
      "stateMutability": "view",
      "type": "function"
    },
    {
      "constant": true,
      "inputs": [
        {
          "name": "_txHash",
          "type": "bytes32"
        }
      ],
      "name": "relayedMessages",
      "outputs": [
        {
          "name": "",
          "type": "bool"
        }
      ],
      "payable": false,
      "stateMutability": "view",
      "type": "function"
    },
    {
      "constant": false,
      "inputs": [
        {
          "name": "vs",
          "type": "uint8[]"
        },
        {
          "name": "rs",
          "type": "bytes32[]"
        },
        {
          "name": "ss",
          "type": "bytes32[]"
        },
        {
          "name": "message",
          "type": "bytes"
        }
      ],
      "name": "executeSignatures",
      "outputs": [],
      "payable": false,
      "stateMutability": "nonpayable",
      "type": "function"
    },
    {
      "constant": true,
      "inputs": [
        {
          "name": "_day",
          "type": "uint256"
        }
      ],
      "name": "totalSpentPerDay",
      "outputs": [
        {
          "name": "",
          "type": "uint256"
        }
      ],
      "payable": false,
      "stateMutability": "view",
      "type": "function"
    },
    {
      "constant": false,
      "inputs": [
        {
          "name": "_fee",
          "type": "uint256"
        }
      ],
      "name": "setHomeFee",
      "outputs": [],
      "payable": false,
      "stateMutability": "nonpayable",
      "type": "function"
    },
    {
      "constant": true,
      "inputs": [],
      "name": "isInitialized",
      "outputs": [
        {
          "name": "",
          "type": "bool"
        }
      ],
      "payable": false,
      "stateMutability": "view",
      "type": "function"
    },
    {
      "constant": false,
      "inputs": [
        {
          "name": "_dailyLimit",
          "type": "uint256"
        }
      ],
      "name": "setExecutionDailyLimit",
      "outputs": [],
      "payable": false,
      "stateMutability": "nonpayable",
      "type": "function"
    },
    {
      "constant": true,
      "inputs": [],
      "name": "getCurrentDay",
      "outputs": [
        {
          "name": "",
          "type": "uint256"
        }
      ],
      "payable": false,
      "stateMutability": "view",
      "type": "function"
    },
    {
      "constant": true,
      "inputs": [],
      "name": "requiredBlockConfirmations",
      "outputs": [
        {
          "name": "",
          "type": "uint256"
        }
      ],
      "payable": false,
      "stateMutability": "view",
      "type": "function"
    },
    {
      "constant": true,
      "inputs": [],
      "name": "executionDailyLimit",
      "outputs": [
        {
          "name": "",
          "type": "uint256"
        }
      ],
      "payable": false,
      "stateMutability": "view",
      "type": "function"
    },
    {
      "constant": true,
      "inputs": [
        {
          "name": "_day",
          "type": "uint256"
        }
      ],
      "name": "totalExecutedPerDay",
      "outputs": [
        {
          "name": "",
          "type": "uint256"
        }
      ],
      "payable": false,
      "stateMutability": "view",
      "type": "function"
    },
    {
      "constant": false,
      "inputs": [
        {
          "name": "_feeManager",
          "type": "address"
        }
      ],
      "name": "setFeeManagerContract",
      "outputs": [],
      "payable": false,
      "stateMutability": "nonpayable",
      "type": "function"
    },
    {
      "constant": true,
      "inputs": [],
      "name": "dailyLimit",
      "outputs": [
        {
          "name": "",
          "type": "uint256"
        }
      ],
      "payable": false,
      "stateMutability": "view",
      "type": "function"
    },
    {
      "constant": false,
      "inputs": [
        {
          "name": "_token",
          "type": "address"
        },
        {
          "name": "_to",
          "type": "address"
        }
      ],
      "name": "claimTokens",
      "outputs": [],
      "payable": false,
      "stateMutability": "nonpayable",
      "type": "function"
    },
    {
      "constant": true,
      "inputs": [
        {
          "name": "_amount",
          "type": "uint256"
        }
      ],
      "name": "withinExecutionLimit",
      "outputs": [
        {
          "name": "",
          "type": "bool"
        }
      ],
      "payable": false,
      "stateMutability": "view",
      "type": "function"
    },
    {
      "constant": true,
      "inputs": [],
      "name": "executionMaxPerTx",
      "outputs": [
        {
          "name": "",
          "type": "uint256"
        }
      ],
      "payable": false,
      "stateMutability": "view",
      "type": "function"
    },
    {
      "constant": true,
      "inputs": [],
      "name": "requiredSignatures",
      "outputs": [
        {
          "name": "",
          "type": "uint256"
        }
      ],
      "payable": false,
      "stateMutability": "view",
      "type": "function"
    },
    {
      "constant": true,
      "inputs": [],
      "name": "owner",
      "outputs": [
        {
          "name": "",
          "type": "address"
        }
      ],
      "payable": false,
      "stateMutability": "view",
      "type": "function"
    },
    {
      "constant": true,
      "inputs": [],
      "name": "getHomeFee",
      "outputs": [
        {
          "name": "",
          "type": "uint256"
        }
      ],
      "payable": false,
      "stateMutability": "view",
      "type": "function"
    },
    {
      "constant": true,
      "inputs": [],
      "name": "validatorContract",
      "outputs": [
        {
          "name": "",
          "type": "address"
        }
      ],
      "payable": false,
      "stateMutability": "view",
      "type": "function"
    },
    {
      "constant": true,
      "inputs": [],
      "name": "deployedAtBlock",
      "outputs": [
        {
          "name": "",
          "type": "uint256"
        }
      ],
      "payable": false,
      "stateMutability": "view",
      "type": "function"
    },
    {
      "constant": true,
      "inputs": [],
      "name": "getBridgeInterfacesVersion",
      "outputs": [
        {
          "name": "major",
          "type": "uint64"
        },
        {
          "name": "minor",
          "type": "uint64"
        },
        {
          "name": "patch",
          "type": "uint64"
        }
      ],
      "payable": false,
      "stateMutability": "pure",
      "type": "function"
    },
    {
      "constant": false,
      "inputs": [
        {
          "name": "_minPerTx",
          "type": "uint256"
        }
      ],
      "name": "setMinPerTx",
      "outputs": [],
      "payable": false,
      "stateMutability": "nonpayable",
      "type": "function"
    },
    {
      "constant": false,
      "inputs": [
        {
          "name": "_from",
          "type": "address"
        },
        {
          "name": "_value",
          "type": "uint256"
        },
        {
          "name": "",
          "type": "bytes"
        }
      ],
      "name": "onTokenTransfer",
      "outputs": [
        {
          "name": "",
          "type": "bool"
        }
      ],
      "payable": false,
      "stateMutability": "nonpayable",
      "type": "function"
    },
    {
      "constant": false,
      "inputs": [
        {
          "name": "_blockConfirmations",
          "type": "uint256"
        }
      ],
      "name": "setRequiredBlockConfirmations",
      "outputs": [],
      "payable": false,
      "stateMutability": "nonpayable",
      "type": "function"
    },
    {
      "constant": false,
      "inputs": [
        {
          "name": "_dailyLimit",
          "type": "uint256"
        }
      ],
      "name": "setDailyLimit",
      "outputs": [],
      "payable": false,
      "stateMutability": "nonpayable",
      "type": "function"
    },
    {
      "constant": false,
      "inputs": [
        {
          "name": "_gasPrice",
          "type": "uint256"
        }
      ],
      "name": "setGasPrice",
      "outputs": [],
      "payable": false,
      "stateMutability": "nonpayable",
      "type": "function"
    },
    {
      "constant": false,
      "inputs": [
        {
          "name": "_maxPerTx",
          "type": "uint256"
        }
      ],
      "name": "setMaxPerTx",
      "outputs": [],
      "payable": false,
      "stateMutability": "nonpayable",
      "type": "function"
    },
    {
      "constant": true,
      "inputs": [],
      "name": "feeManagerContract",
      "outputs": [
        {
          "name": "",
          "type": "address"
        }
      ],
      "payable": false,
      "stateMutability": "view",
      "type": "function"
    },
    {
      "constant": true,
      "inputs": [],
      "name": "upgradeabilityAdmin",
      "outputs": [
        {
          "name": "",
          "type": "address"
        }
      ],
      "payable": false,
      "stateMutability": "view",
      "type": "function"
    },
    {
      "constant": true,
      "inputs": [],
      "name": "minPerTx",
      "outputs": [
        {
          "name": "",
          "type": "uint256"
        }
      ],
      "payable": false,
      "stateMutability": "view",
      "type": "function"
    },
    {
      "constant": true,
      "inputs": [
        {
          "name": "_amount",
          "type": "uint256"
        }
      ],
      "name": "withinLimit",
      "outputs": [
        {
          "name": "",
          "type": "bool"
        }
      ],
      "payable": false,
      "stateMutability": "view",
      "type": "function"
    },
    {
      "constant": false,
      "inputs": [
        {
          "name": "_maxPerTx",
          "type": "uint256"
        }
      ],
      "name": "setExecutionMaxPerTx",
      "outputs": [],
      "payable": false,
      "stateMutability": "nonpayable",
      "type": "function"
    },
    {
      "constant": true,
      "inputs": [],
      "name": "getFeeManagerMode",
      "outputs": [
        {
          "name": "",
          "type": "bytes4"
        }
      ],
      "payable": false,
      "stateMutability": "view",
      "type": "function"
    },
    {
      "constant": false,
      "inputs": [
        {
          "name": "newOwner",
          "type": "address"
        }
      ],
      "name": "transferOwnership",
      "outputs": [],
      "payable": false,
      "stateMutability": "nonpayable",
      "type": "function"
    },
    {
      "constant": true,
      "inputs": [],
      "name": "maxPerTx",
      "outputs": [
        {
          "name": "",
          "type": "uint256"
        }
      ],
      "payable": false,
      "stateMutability": "view",
      "type": "function"
    },
    {
      "constant": true,
      "inputs": [],
      "name": "gasPrice",
      "outputs": [
        {
          "name": "",
          "type": "uint256"
        }
      ],
      "payable": false,
      "stateMutability": "view",
      "type": "function"
    },
    {
      "anonymous": false,
      "inputs": [
        {
          "indexed": false,
          "name": "recipient",
          "type": "address"
        },
        {
          "indexed": false,
          "name": "value",
          "type": "uint256"
        }
      ],
      "name": "UserRequestForAffirmation",
      "type": "event"
    },
    {
      "anonymous": false,
      "inputs": [
        {
          "indexed": false,
          "name": "feeAmount",
          "type": "uint256"
        },
        {
          "indexed": true,
          "name": "transactionHash",
          "type": "bytes32"
        }
      ],
      "name": "FeeDistributedFromAffirmation",
      "type": "event"
    },
    {
      "anonymous": false,
      "inputs": [
        {
          "indexed": false,
          "name": "feeAmount",
          "type": "uint256"
        },
        {
          "indexed": true,
          "name": "transactionHash",
          "type": "bytes32"
        }
      ],
      "name": "FeeDistributedFromSignatures",
      "type": "event"
    },
    {
      "anonymous": false,
      "inputs": [
        {
          "indexed": false,
          "name": "recipient",
          "type": "address"
        },
        {
          "indexed": false,
          "name": "value",
          "type": "uint256"
        },
        {
          "indexed": false,
          "name": "transactionHash",
          "type": "bytes32"
        }
      ],
      "name": "RelayedMessage",
      "type": "event"
    },
    {
      "anonymous": false,
      "inputs": [
        {
          "indexed": false,
          "name": "gasPrice",
          "type": "uint256"
        }
      ],
      "name": "GasPriceChanged",
      "type": "event"
    },
    {
      "anonymous": false,
      "inputs": [
        {
          "indexed": false,
          "name": "requiredBlockConfirmations",
          "type": "uint256"
        }
      ],
      "name": "RequiredBlockConfirmationChanged",
      "type": "event"
    },
    {
      "anonymous": false,
      "inputs": [
        {
          "indexed": false,
          "name": "newLimit",
          "type": "uint256"
        }
      ],
      "name": "DailyLimitChanged",
      "type": "event"
    },
    {
      "anonymous": false,
      "inputs": [
        {
          "indexed": false,
          "name": "newLimit",
          "type": "uint256"
        }
      ],
      "name": "ExecutionDailyLimitChanged",
      "type": "event"
    },
    {
      "anonymous": false,
      "inputs": [
        {
          "indexed": false,
          "name": "previousOwner",
          "type": "address"
        },
        {
          "indexed": false,
          "name": "newOwner",
          "type": "address"
        }
      ],
      "name": "OwnershipTransferred",
      "type": "event"
    },
    {
      "constant": false,
      "inputs": [
        {
          "name": "_validatorContract",
          "type": "address"
        },
        {
          "name": "_erc677token",
          "type": "address"
        },
        {
          "name": "_dailyLimit",
          "type": "uint256"
        },
        {
          "name": "_maxPerTx",
          "type": "uint256"
        },
        {
          "name": "_minPerTx",
          "type": "uint256"
        },
        {
          "name": "_foreignGasPrice",
          "type": "uint256"
        },
        {
          "name": "_requiredBlockConfirmations",
          "type": "uint256"
        },
        {
          "name": "_homeDailyLimit",
          "type": "uint256"
        },
        {
          "name": "_homeMaxPerTx",
          "type": "uint256"
        },
        {
          "name": "_owner",
          "type": "address"
        }
      ],
      "name": "initialize",
      "outputs": [
        {
          "name": "",
          "type": "bool"
        }
      ],
      "payable": false,
      "stateMutability": "nonpayable",
      "type": "function"
    },
    {
      "constant": false,
      "inputs": [
        {
          "name": "_validatorContract",
          "type": "address"
        },
        {
          "name": "_erc677token",
          "type": "address"
        },
        {
          "name": "_dailyLimit",
          "type": "uint256"
        },
        {
          "name": "_maxPerTx",
          "type": "uint256"
        },
        {
          "name": "_minPerTx",
          "type": "uint256"
        },
        {
          "name": "_foreignGasPrice",
          "type": "uint256"
        },
        {
          "name": "_requiredBlockConfirmations",
          "type": "uint256"
        },
        {
          "name": "_homeDailyLimit",
          "type": "uint256"
        },
        {
          "name": "_homeMaxPerTx",
          "type": "uint256"
        },
        {
          "name": "_owner",
          "type": "address"
        },
        {
          "name": "_feeManager",
          "type": "address"
        },
        {
          "name": "_homeFee",
          "type": "uint256"
        }
      ],
      "name": "rewardableInitialize",
      "outputs": [
        {
          "name": "",
          "type": "bool"
        }
      ],
      "payable": false,
      "stateMutability": "nonpayable",
      "type": "function"
    },
    {
      "constant": true,
      "inputs": [],
      "name": "getBridgeMode",
      "outputs": [
        {
          "name": "_data",
          "type": "bytes4"
        }
      ],
      "payable": false,
      "stateMutability": "pure",
      "type": "function"
    },
    {
      "constant": false,
      "inputs": [
        {
          "name": "_token",
          "type": "address"
        },
        {
          "name": "_to",
          "type": "address"
        }
      ],
      "name": "claimTokensFromErc677",
      "outputs": [],
      "payable": false,
      "stateMutability": "nonpayable",
      "type": "function"
    }
  ],
  "bytecode": "0x608060405234801561001057600080fd5b50613a01806100206000396000f3006080604052600436106101df5763ffffffff60e060020a60003504166318d8f9c981146101e457806321d800ec14610215578063232a2c1d146102415780632bd0bb051461028757806334a9e148146102b1578063392e53cd146102c95780633dd95d1b146102de5780633e6968b6146102f65780633f0a9f651461030b5780633fe1506e14610320578063437764df1461037657806343b37dd3146103bd5780634fb3fef7146103d25780635ad1d7f9146103ea57806360756f7c1461043557806367eeba0c1461045657806369ffa08a1461046b578063879ce676146104925780638aa1949a146104aa5780638d068043146104bf5780638da5cb5b146104d45780639313dc43146104e957806394da17cd1461051057806399439089146105255780639a454b991461053a5780639cb7595a1461054f578063a2a6ca2714610590578063a4c0ed36146105a8578063acf5c689146105d9578063b20d30a9146105f1578063bf1fe42014610609578063c6f6f21614610621578063dbe03a8b14610639578063df0ad3de1461064e578063df25f3f014610663578063ea9f496814610678578063f20151e114610690578063f2ba9561146106a8578063f2fde38b146106bd578063f968adbe146106de578063fe173b97146106f3575b600080fd5b3480156101f057600080fd5b506101f9610708565b60408051600160a060020a039092168252519081900360200190f35b34801561022157600080fd5b5061022d6004356107c6565b604080519115158252519081900360200190f35b34801561024d57600080fd5b50610285602460048035828101929082013591813580830192908201359160443580830192908201359160643591820191013561088f565b005b34801561029357600080fd5b5061029f600435610a68565b60408051918252519081900360200190f35b3480156102bd57600080fd5b50610285600435610b25565b3480156102d557600080fd5b5061022d610bdf565b3480156102ea57600080fd5b50610285600435610c97565b34801561030257600080fd5b5061029f610d99565b34801561031757600080fd5b5061029f610da2565b34801561032c57600080fd5b5061022d600160a060020a0360043581169060243581169060443590606435906084359060a4359060c4359060e43590610104359061012435811690610144351661016435610e56565b34801561038257600080fd5b5061038b610fd8565b604080517bffffffffffffffffffffffffffffffffffffffffffffffffffffffff199092168252519081900360200190f35b3480156103c957600080fd5b5061029f61107b565b3480156103de57600080fd5b5061029f6004356110ee565b3480156103f657600080fd5b5061022d600160a060020a0360043581169060243581169060443590606435906084359060a4359060c4359060e4359061010435906101243516611169565b34801561044157600080fd5b50610285600160a060020a036004351661119e565b34801561046257600080fd5b5061029f6112bc565b34801561047757600080fd5b50610285600160a060020a036004358116906024351661132f565b34801561049e57600080fd5b5061022d6004356114eb565b3480156104b657600080fd5b5061029f611535565b3480156104cb57600080fd5b5061029f6115a8565b3480156104e057600080fd5b506101f9611620565b3480156104f557600080fd5b50610285600160a060020a0360043581169060243516611694565b34801561051c57600080fd5b5061029f611741565b34801561053157600080fd5b506101f96117da565b34801561054657600080fd5b5061029f61184e565b34801561055b57600080fd5b506105646118c1565b6040805167ffffffffffffffff9485168152928416602084015292168183015290519081900360600190f35b34801561059c57600080fd5b506102856004356118cb565b3480156105b457600080fd5b5061022d60048035600160a060020a03169060248035916044359182019101356119c2565b3480156105e557600080fd5b50610285600435611a33565b3480156105fd57600080fd5b50610285600435611b42565b34801561061557600080fd5b50610285600435611c44565b34801561062d57600080fd5b50610285600435611d53565b34801561064557600080fd5b506101f9611df4565b34801561065a57600080fd5b506101f9611e68565b34801561066f57600080fd5b5061029f611ea8565b34801561068457600080fd5b5061022d600435611f1b565b34801561069c57600080fd5b50610285600435611f66565b3480156106b457600080fd5b5061038b612007565b3480156106c957600080fd5b50610285600160a060020a036004351661207e565b3480156106ea57600080fd5b5061029f6120b8565b3480156106ff57600080fd5b5061029f61212b565b60006002600060405160200180807f657263363737746f6b656e000000000000000000000000000000000000000000815250600b0190506040516020818303038152906040526040518082805190602001908083835b6020831061077d5780518252601f19909201916020918201910161075e565b51815160209384036101000a6000190180199092169116179052604080519290940182900390912086528501959095529290920160002054600160a060020a0316949350505050565b6000600460008360405160200180807f72656c617965644d657373616765730000000000000000000000000000000000815250600f0182600019166000191681526020019150506040516020818303038152906040526040518082805190602001908083835b6020831061084b5780518252601f19909201916020918201910161082c565b51815160209384036101000a600019018019909216911617905260408051929094018290039091208652850195909552929092016000205460ff1695945050505050565b60008060008061096786868080601f0160208091040260200160405190810160405280939291908181526020018383808284378201915050505050508d8d808060200260200160405190810160405280939291908181526020018383602002808284378201915050505050508c8c808060200260200160405190810160405280939291908181526020018383602002808284378201915050505050508b8b808060200260200160405190810160405280939291908181526020018383602002808284375061096294506117da9350505050565b61219e565b6109a086868080601f0160208091040260200160405190810160405280939291908181526020018383808284375061240b945050505050565b929650909450925090506109b383612451565b15610a4f57600160a060020a03811630146109cd57600080fd5b6109d6826107c6565b156109e057600080fd5b6109eb826001612462565b6109f6848484612534565b1515610a0157600080fd5b60408051600160a060020a03861681526020810185905280820184905290517f4ab7d581336d92edbea22636a613e8e76c99ac7f91137c1523db38dbfb3bf3299181900360600190a1610a5a565b610a5a8484846101df565b505050505050505050505050565b60008060008360405160200180807f746f74616c5370656e74506572446179000000000000000000000000000000008152506010018281526020019150506040516020818303038152906040526040518082805190602001908083835b60208310610ae45780518252601f199092019160209182019101610ac5565b51815160209384036101000a600019018019909216911617905260408051929094018290039091208652850195909552929092016000205495945050505050565b610b2d611620565b600160a060020a03163314610b4157600080fd5b610bdc610b4c611df4565b8260405160200180806000805160206139b683398151915281525060080190506040516020818303038152906040526040518082805190602001908083835b60208310610baa5780518252601f199092019160209182019101610b8b565b6001836020036101000a03801982511681845116808217855250505050505090500191505060405180910390206126d2565b50565b60006004600060405160200180807f6973496e697469616c697a656400000000000000000000000000000000000000815250600d0190506040516020818303038152906040526040518082805190602001908083835b60208310610c545780518252601f199092019160209182019101610c35565b51815160209384036101000a600019018019909216911617905260408051929094018290039091208652850195909552929092016000205460ff16949350505050565b610c9f611620565b600160a060020a03163314610cb357600080fd5b8060008060405160200180807f657865637574696f6e4461696c794c696d69740000000000000000000000000081525060130190506040516020818303038152906040526040518082805190602001908083835b60208310610d265780518252601f199092019160209182019101610d07565b51815160001960209485036101000a019081169019919091161790526040805194909201849003909320865285830196909652509284016000209490945550815184815291517f9bebf928b90863f24cc31f726a3a7545efd409f1dcf552301b1ee3710da70d3b9350918290030190a150565b62015180420490565b600080600060405160200180807f7265717569726564426c6f636b436f6e6669726d6174696f6e73000000000000815250601a0190506040516020818303038152906040526040518082805190602001908083835b60208310610e165780518252601f199092019160209182019101610df7565b51815160209384036101000a6000190180199092169116179052604080519290940182900390912086528501959095529290920160002054949350505050565b6000610e6a8d8d8d8d8d8d8d8d8d8d612903565b610e7383612fd6565b1515610e7e57600080fd5b826002600060405160200180807f6665654d616e61676572436f6e7472616374000000000000000000000000000081525060120190506040516020818303038152906040526040518082805190602001908083835b60208310610ef25780518252601f199092019160209182019101610ed3565b51815160209384036101000a6000190180199092169116179052604080519290940182900390912086528581019690965250928301600020805473ffffffffffffffffffffffffffffffffffffffff1916600160a060020a0396909616959095179094555080516000805160206139b683398151915281840152815160088183030181526028909101918290528051610fb594508793879391829184810191908190849084908310610baa5780518252601f199092019160209182019101610b8b565b610fbf6001612fde565b610fc7610bdf565b9d9c50505050505050505050505050565b600060405160200180807f6e61746976652d746f2d6572632d636f7265000000000000000000000000000081525060120190506040516020818303038152906040526040518082805190602001908083835b602083106110495780518252601f19909201916020918201910161102a565b6001836020036101000a0380198251168184511680821785525050505050509050019150506040518091039020905090565b600080600060405160200180807f657865637574696f6e4461696c794c696d697400000000000000000000000000815250601301905060405160208183030381529060405260405180828051906020019080838360208310610e165780518252601f199092019160209182019101610df7565b60008060008360405160200180807f746f74616c45786563757465645065724461790000000000000000000000000081525060130182815260200191505060405160208183030381529060405260405180828051906020019080838360208310610ae45780518252601f199092019160209182019101610ac5565b600061117d8b8b8b8b8b8b8b8b8b8b612903565b6111876001612fde565b61118f610bdf565b9b9a5050505050505050505050565b6111a6611620565b600160a060020a031633146111ba57600080fd5b600160a060020a03811615806111d457506111d481612fd6565b15156111df57600080fd5b806002600060405160200180807f6665654d616e61676572436f6e7472616374000000000000000000000000000081525060120190506040516020818303038152906040526040518082805190602001908083835b602083106112535780518252601f199092019160209182019101611234565b51815160209384036101000a60001901801990921691161790526040805192909401829003909120865285019590955292909201600020805473ffffffffffffffffffffffffffffffffffffffff1916600160a060020a03959095169490941790935550505050565b600080600060405160200180807f6461696c794c696d697400000000000000000000000000000000000000000000815250600a01905060405160208183030381529060405260405180828051906020019080838360208310610e165780518252601f199092019160209182019101610df7565b60008061133a611e68565b600160a060020a0316331461134e57600080fd5b600160a060020a038316151561136357600080fd5b600160a060020a03841615156113af57604051600160a060020a03841690303180156108fc02916000818181858888f193505050501580156113a9573d6000803e3d6000fd5b506114e5565b604080517f70a082310000000000000000000000000000000000000000000000000000000081523060048201529051859350600160a060020a038416916370a082319160248083019260209291908290030181600087803b15801561141357600080fd5b505af1158015611427573d6000803e3d6000fd5b505050506040513d602081101561143d57600080fd5b5051604080517fa9059cbb000000000000000000000000000000000000000000000000000000008152600160a060020a0386811660048301526024820184905291519293509084169163a9059cbb916044808201926020929091908290030181600087803b1580156114ae57600080fd5b505af11580156114c2573d6000803e3d6000fd5b505050506040513d60208110156114d857600080fd5b505115156114e557600080fd5b50505050565b60008061150e836115026114fd610d99565b6110ee565b9063ffffffff61309f16565b90508061151961107b565b1015801561152e575061152a611535565b8311155b9392505050565b600080600060405160200180807f657865637574696f6e4d61785065725478000000000000000000000000000000815250601101905060405160208183030381529060405260405180828051906020019080838360208310610e165780518252601f199092019160209182019101610df7565b60006115b26117da565b600160a060020a0316638d0680436040518163ffffffff1660e060020a028152600401602060405180830381600087803b1580156115ef57600080fd5b505af1158015611603573d6000803e3d6000fd5b505050506040513d602081101561161957600080fd5b5051905090565b60006002600060405160200180807f6f776e657200000000000000000000000000000000000000000000000000000081525060050190506040516020818303038152906040526040518082805190602001908083836020831061077d5780518252601f19909201916020918201910161075e565b61169c611e68565b600160a060020a031633146116b057600080fd5b6116b8610708565b604080517f69ffa08a000000000000000000000000000000000000000000000000000000008152600160a060020a0385811660048301528481166024830152915192909116916369ffa08a9160448082019260009290919082900301818387803b15801561172557600080fd5b505af1158015611739573d6000803e3d6000fd5b505050505050565b60006117d560405160200180806000805160206139b683398151915281525060080190506040516020818303038152906040526040518082805190602001908083835b602083106117a35780518252601f199092019160209182019101611784565b6001836020036101000a03801982511681845116808217855250505050505090500191505060405180910390206130b9565b905090565b60006002600060405160200180807f76616c696461746f72436f6e747261637400000000000000000000000000000081525060110190506040516020818303038152906040526040518082805190602001908083836020831061077d5780518252601f19909201916020918201910161075e565b600080600060405160200180807f6465706c6f7965644174426c6f636b0000000000000000000000000000000000815250600f01905060405160208183030381529060405260405180828051906020019080838360208310610e165780518252601f199092019160209182019101610df7565b6002806000909192565b6118d3611620565b600160a060020a031633146118e757600080fd5b6118ef6112bc565b8110801561190357506119006120b8565b81105b151561190e57600080fd5b8060008060405160200180807f6d696e506572547800000000000000000000000000000000000000000000000081525060080190506040516020818303038152906040526040518082805190602001908083835b602083106119815780518252601f199092019160209182019101611962565b51815160209384036101000a600019018019909216911617905260408051929094018290039091208652850195909552929092016000209390935550505050565b6000806119cd610708565b905033600160a060020a038216146119e457600080fd5b6119ed85611f1b565b15156119f857600080fd5b611a1c611a03610d99565b611a1787611502611a12610d99565b610a68565b613295565b611a27818787613352565b50600195945050505050565b611a3b611620565b600160a060020a03163314611a4f57600080fd5b60008111611a5c57600080fd5b8060008060405160200180807f7265717569726564426c6f636b436f6e6669726d6174696f6e73000000000000815250601a0190506040516020818303038152906040526040518082805190602001908083835b60208310611acf5780518252601f199092019160209182019101611ab0565b51815160001960209485036101000a019081169019919091161790526040805194909201849003909320865285830196909652509284016000209490945550815184815291517f4fb76205cd57c896b21511d2114137d8e901b4ccd659e1a0f97d6306795264fb9350918290030190a150565b611b4a611620565b600160a060020a03163314611b5e57600080fd5b8060008060405160200180807f6461696c794c696d697400000000000000000000000000000000000000000000815250600a0190506040516020818303038152906040526040518082805190602001908083835b60208310611bd15780518252601f199092019160209182019101611bb2565b51815160001960209485036101000a019081169019919091161790526040805194909201849003909320865285830196909652509284016000209490945550815184815291517fad4123ae17c414d9c6d2fec478b402e6b01856cc250fd01fbfd252fda0089d3c9350918290030190a150565b611c4c611620565b600160a060020a03163314611c6057600080fd5b60008111611c6d57600080fd5b8060008060405160200180807f676173507269636500000000000000000000000000000000000000000000000081525060080190506040516020818303038152906040526040518082805190602001908083835b60208310611ce05780518252601f199092019160209182019101611cc1565b51815160001960209485036101000a019081169019919091161790526040805194909201849003909320865285830196909652509284016000209490945550815184815291517f52264b89e0fceafb26e79fd49ef8a366eb6297483bf4035b027f0c99a7ad512e9350918290030190a150565b611d5b611620565b600160a060020a03163314611d6f57600080fd5b611d776112bc565b8110611d8257600080fd5b8060008060405160200180807f6d617850657254780000000000000000000000000000000000000000000000008152506008019050604051602081830303815290604052604051808280519060200190808383602083106119815780518252601f199092019160209182019101611962565b60006002600060405160200180807f6665654d616e61676572436f6e7472616374000000000000000000000000000081525060120190506040516020818303038152906040526040518082805190602001908083836020831061077d5780518252601f19909201916020918201910161075e565b600030600160a060020a031663025313a26040518163ffffffff1660e060020a028152600401602060405180830381600087803b1580156115ef57600080fd5b600080600060405160200180807f6d696e5065725478000000000000000000000000000000000000000000000000815250600801905060405160208183030381529060405260405180828051906020019080838360208310610e165780518252601f199092019160209182019101610df7565b600080611f2d83611502611a12610d99565b905080611f386112bc565b10158015611f4d5750611f496120b8565b8311155b801561152e5750611f5c611ea8565b9092101592915050565b611f6e611620565b600160a060020a03163314611f8257600080fd5b611f8a61107b565b8110611f9557600080fd5b8060008060405160200180807f657865637574696f6e4d617850657254780000000000000000000000000000008152506011019050604051602081830303815290604052604051808280519060200190808383602083106119815780518252601f199092019160209182019101611962565b604080516004815260248101909152602081018051600160e060020a03167ff2ba956100000000000000000000000000000000000000000000000000000000179052600090819081612057611df4565b9050600460008351602085016000855af260005193508080156101df575092949350505050565b612086611620565b600160a060020a0316331461209a57600080fd5b600160a060020a03811615156120af57600080fd5b610bdc816133c2565b600080600060405160200180807f6d61785065725478000000000000000000000000000000000000000000000000815250600801905060405160208183030381529060405260405180828051906020019080838360208310610e165780518252601f199092019160209182019101610df7565b600080600060405160200180807f6761735072696365000000000000000000000000000000000000000000000000815250600801905060405160208183030381529060405260405180828051906020019080838360208310610e165780518252601f199092019160209182019101610df7565b60008060606000806121af8a613480565b15156121ba57600080fd5b85600160a060020a0316638d0680436040518163ffffffff1660e060020a028152600401602060405180830381600087803b1580156121f857600080fd5b505af115801561220c573d6000803e3d6000fd5b505050506040513d602081101561222257600080fd5b5051895190955085111561223557600080fd5b61223e8a613494565b93508460405190808252806020026020018201604052801561226a578160200160208202803883390190505b509250600091505b848210156123ff576001848a8481518110151561228b57fe5b906020019060200201518a858151811015156122a357fe5b906020019060200201518a868151811015156122bb57fe5b60209081029091018101516040805160008082528185018084529790975260ff9095168582015260608501939093526080840152905160a0808401949293601f19830193908390039091019190865af115801561231c573d6000803e3d6000fd5b50505060206040510351905085600160a060020a031663facd743b826040518263ffffffff1660e060020a0281526004018082600160a060020a0316600160a060020a03168152602001915050602060405180830381600087803b15801561238357600080fd5b505af1158015612397573d6000803e3d6000fd5b505050506040513d60208110156123ad57600080fd5b505115156123ba57600080fd5b6123c48382613659565b156123ce57600080fd5b8083838151811015156123dd57fe5b600160a060020a03909216602092830290910190910152600190910190612272565b50505050505050505050565b60008060008061241a85613480565b151561242557600080fd5b600160a060020a0360148601511693506034850151925060548501519150606885015190509193509193565b600061245c826114eb565b92915050565b80600460008460405160200180807f72656c617965644d657373616765730000000000000000000000000000000000815250600f0182600019166000191681526020019150506040516020818303038152906040526040518082805190602001908083835b602083106124e65780518252601f1990920191602091820191016124c7565b51815160209384036101000a60001901801990921691161790526040805192909401829003909120865285019590955292909201600020805460ff1916941515949094179093555050505050565b600080600080612559612545610d99565b612554886115026114fd610d99565b6136b2565b859250612564611df4565b9150600160a060020a038216156126315761260b8360008460405160200180806000805160206139b683398151915281525060080190506040516020818303038152906040526040518082805190602001908083835b602083106125d95780518252601f1990920191602091820191016125ba565b6001836020036101000a038019825116818451168082178552505050505050905001915050604051809103902061372c565b905080156126315761261e8183876137b7565b61262e838263ffffffff6138bc16565b92505b612639610708565b600160a060020a03166340c10f1988856040518363ffffffff1660e060020a0281526004018083600160a060020a0316600160a060020a0316815260200182815260200192505050602060405180830381600087803b15801561269b57600080fd5b505af11580156126af573d6000803e3d6000fd5b505050506040513d60208110156126c557600080fd5b5051979650505050505050565b606060405160200180806000805160206139b683398151915281525060080190506040516020818303038152906040526040518082805190602001908083835b602083106127315780518252601f199092019160209182019101612712565b5181516020939093036101000a600019018019909116921691909117905260405192018290039091208514925061279e9150505760408051808201909152601681527f736574466f726569676e4665652875696e74323536290000000000000000000060208201526127d3565b60408051808201909152601381527f736574486f6d654665652875696e74323536290000000000000000000000000060208201525b905083600160a060020a0316818460405160240180828152602001915050604051602081830303815290604052906040518082805190602001908083835b602083106128305780518252601f199092019160209182019101612811565b51815160001960209485036101000a0190811690199190911617905260408051949092018490039093209286018051600160e060020a03167bffffffffffffffffffffffffffffffffffffffffffffffffffffffff19909416939093178352518551909450849350905080838360005b838110156128b85781810151838201526020016128a0565b50505050905090810190601f1680156128e55780820380516001836020036101000a031916815260200191505b50915050600060405180830381855af491505015156114e557600080fd5b61290b610bdf565b1561291557600080fd5b600160a060020a038a161580159061293157506129318a612fd6565b151561293c57600080fd5b60008611801561294b57508587115b801561295657508688115b151561296157600080fd5b6000851161296e57600080fd5b82821061297a57600080fd5b600160a060020a038116151561298f57600080fd5b896002600060405160200180807f76616c696461746f72436f6e747261637400000000000000000000000000000081525060110190506040516020818303038152906040526040518082805190602001908083835b60208310612a035780518252601f1990920191602091820191016129e4565b51815160209384036101000a60001901801990921691161790526040805192909401829003909120865285019590955292909201600020805473ffffffffffffffffffffffffffffffffffffffff1916600160a060020a03959095169490941790935550612a7491508a90506138ce565b8760008060405160200180807f6461696c794c696d697400000000000000000000000000000000000000000000815250600a0190506040516020818303038152906040526040518082805190602001908083835b60208310612ae75780518252601f199092019160209182019101612ac8565b51815160209384036101000a6000190180199092169116179052604080519290940182900390912086528581019690965250928301600090812095909555505080517f6465706c6f7965644174426c6f636b0000000000000000000000000000000000818401528151600f818303018152602f90910191829052805143949384939182918401908083835b60208310612b915780518252601f199092019160209182019101612b72565b51815160209384036101000a6000190180199092169116179052604080519290940182900390912086528581019690965250928301600090812095909555505080517f6d61785065725478000000000000000000000000000000000000000000000000818401528151600881830301815260289091019182905280518b949384939182918401908083835b60208310612c3b5780518252601f199092019160209182019101612c1c565b51815160209384036101000a6000190180199092169116179052604080519290940182900390912086528581019690965250928301600090812095909555505080517f6d696e5065725478000000000000000000000000000000000000000000000000818401528151600881830301815260289091019182905280518a949384939182918401908083835b60208310612ce55780518252601f199092019160209182019101612cc6565b51815160209384036101000a6000190180199092169116179052604080519290940182900390912086528581019690965250928301600090812095909555505080517f67617350726963650000000000000000000000000000000000000000000000008184015281516008818303018152602890910191829052805189949384939182918401908083835b60208310612d8f5780518252601f199092019160209182019101612d70565b51815160209384036101000a6000190180199092169116179052604080519290940182900390912086528581019690965250928301600090812095909555505080517f7265717569726564426c6f636b436f6e6669726d6174696f6e73000000000000818401528151601a818303018152603a90910191829052805188949384939182918401908083835b60208310612e395780518252601f199092019160209182019101612e1a565b51815160209384036101000a6000190180199092169116179052604080519290940182900390912086528581019690965250928301600090812095909555505080517f657865637574696f6e4461696c794c696d6974000000000000000000000000008184015281516013818303018152603390910191829052805187949384939182918401908083835b60208310612ee35780518252601f199092019160209182019101612ec4565b51815160209384036101000a6000190180199092169116179052604080519290940182900390912086528581019690965250928301600090812095909555505080517f657865637574696f6e4d617850657254780000000000000000000000000000008184015281516011818303018152603190910191829052805186949384939182918401908083835b60208310612f8d5780518252601f199092019160209182019101612f6e565b51815160209384036101000a6000190180199092169116179052604080519290940182900390912086528501959095529290920160002093909355506123ff91508290506133c2565b6000903b1190565b806004600060405160200180807f6973496e697469616c697a656400000000000000000000000000000000000000815250600d0190506040516020818303038152906040526040518082805190602001908083835b602083106130525780518252601f199092019160209182019101613033565b51815160209384036101000a60001901801990921691161790526040805192909401829003909120865285019590955292909201600020805460ff19169415159490941790935550505050565b6000828201838110156130ae57fe5b8091505b5092915050565b60008060006060806130c9611df4565b925060405160200180806000805160206139b683398151915281525060080190506040516020818303038152906040526040518082805190602001908083835b602083106131285780518252601f199092019160209182019101613109565b5181516020939093036101000a60001901801990911692169190911790526040519201829003909120891492506131959150505760408051808201909152600f81527f676574466f726569676e4665652829000000000000000000000000000000000060208201526131ca565b60408051808201909152600c81527f676574486f6d654665652829000000000000000000000000000000000000000060208201525b60408051600481526024810191829052825192945091849190819060208401908083835b6020831061320d5780518252601f1990920191602091820191016131ee565b51815160209384036101000a600019018019909216911617905260405191909301819003902085830180517bffffffffffffffffffffffffffffffffffffffffffffffffffffffff19909216600160e060020a0390921691909117815285519596509194600094509250839050875af260005194508080156101df5750939695505050505050565b806000808460405160200180807f746f74616c5370656e74506572446179000000000000000000000000000000008152506010018281526020019150506040516020818303038152906040526040518082805190602001908083835b602083106133105780518252601f1990920191602091820191016132f1565b51815160209384036101000a60001901801990921691161790526040805192909401829003909120865285019590955292909201600020939093555050505050565b82600160a060020a03166342966c68826040518263ffffffff1660e060020a02815260040180828152602001915050600060405180830381600087803b15801561339b57600080fd5b505af11580156133af573d6000803e3d6000fd5b505050506133bd8282613968565b505050565b7f8be0079c531659141344cd1fd0a4f28419497f9722a3daafe3b4186f6b6457e06133eb611620565b60408051600160a060020a03928316815291841660208301528051918290030190a1806002600060405160200180807f6f776e65720000000000000000000000000000000000000000000000000000008152506005019050604051602081830303815290604052604051808280519060200190808383602083106112535780518252601f199092019160209182019101611234565b600061348a6139b0565b8251149050919050565b604080518082018252601a81527f19457468657265756d205369676e6564204d6573736167653a0a000000000000602080830191825283518085018552600381527f313034000000000000000000000000000000000000000000000000000000000081830152935183516000959385938593899391019182918083835b602083106135305780518252601f199092019160209182019101613511565b51815160209384036101000a600019018019909216911617905286519190930192860191508083835b602083106135785780518252601f199092019160209182019101613559565b51815160209384036101000a600019018019909216911617905285519190930192850191508083835b602083106135c05780518252601f1990920191602091820191016135a1565b6001836020036101000a03801982511681845116808217855250505050505090500193505050506040516020818303038152906040526040518082805190602001908083835b602083106136255780518252601f199092019160209182019101613606565b5181516020939093036101000a60001901801990911692169190911790526040519201829003909120979650505050505050565b6000805b83518110156136a85782600160a060020a0316848281518110151561367e57fe5b90602001906020020151600160a060020a031614156136a057600191506130b2565b60010161365d565b5060009392505050565b806000808460405160200180807f746f74616c457865637574656450657244617900000000000000000000000000815250601301828152602001915050604051602081830303815290604052604051808280519060200190808383602083106133105780518252601f1990920191602091820191016132f1565b60408051602481018690528415156044820152606480820184905282518083039091018152608490910190915260208181018051600160e060020a03167f9862f26f000000000000000000000000000000000000000000000000000000001781528251600093849390929091849182895af260005192508080156101df575091979650505050505050565b6040805160248082018690528251808303909101815260449091018252602081018051600160e060020a03167f59d784640000000000000000000000000000000000000000000000000000000017815291518151600160a060020a03861693829180838360005b8381101561383657818101518382015260200161381e565b50505050905090810190601f1680156138635780820380516001836020036101000a031916815260200191505b50915050600060405180830381855af4915050151561388157600080fd5b60408051848152905182917f858abdcd5efcaebb936e8e8516f0cfe9a0ef5157ff99d16cdabb6db625be90d0919081900360200190a2505050565b6000828211156138c857fe5b50900390565b600160a060020a038116158015906138ea57506138ea81612fd6565b15156138f557600080fd5b806002600060405160200180807f657263363737746f6b656e000000000000000000000000000000000000000000815250600b019050604051602081830303815290604052604051808280519060200190808383602083106112535780518252601f199092019160209182019101611234565b60408051600160a060020a03841681526020810183905281517f1d491a427d1f8cc0d447496f300fac39f7306122481d8e663451eb268274146b929181900390910190a15050565b6068905600686f6d652d666565000000000000000000000000000000000000000000000000a165627a7a723058203ba5d940297be9fd0f7f3eb78aa78efca9130fe17006553bf91ed800180df8c90029",
  "source": "pragma solidity 0.4.24;\nimport \"../../libraries/SafeMath.sol\";\nimport \"../BasicBridge.sol\";\nimport \"../../IBurnableMintableERC677Token.sol\";\nimport \"../../ERC677Receiver.sol\";\nimport \"../BasicForeignBridge.sol\";\nimport \"openzeppelin-solidity/contracts/token/ERC20/ERC20Basic.sol\";\nimport \"../ERC677BridgeForBurnableMintableToken.sol\";\nimport \"./RewardableForeignBridgeNativeToErc.sol\";\n\n\ncontract ForeignBridgeNativeToErc is ERC677Receiver, BasicBridge, BasicForeignBridge, ERC677BridgeForBurnableMintableToken, RewardableForeignBridgeNativeToErc {\n\n    /// Event created on money withdraw.\n    event UserRequestForAffirmation(address recipient, uint256 value);\n\n    function initialize(\n        address _validatorContract,\n        address _erc677token,\n        uint256 _dailyLimit,\n        uint256 _maxPerTx,\n        uint256 _minPerTx,\n        uint256 _foreignGasPrice,\n        uint256 _requiredBlockConfirmations,\n        uint256 _homeDailyLimit,\n        uint256 _homeMaxPerTx,\n        address _owner\n    ) public returns(bool) {\n        _initialize(\n            _validatorContract,\n            _erc677token,\n            _dailyLimit,\n            _maxPerTx,\n            _minPerTx,\n            _foreignGasPrice,\n            _requiredBlockConfirmations,\n            _homeDailyLimit,\n            _homeMaxPerTx,\n            _owner\n        );\n        setInitialize(true);\n        return isInitialized();\n    }\n\n    function rewardableInitialize(\n        address _validatorContract,\n        address _erc677token,\n        uint256 _dailyLimit,\n        uint256 _maxPerTx,\n        uint256 _minPerTx,\n        uint256 _foreignGasPrice,\n        uint256 _requiredBlockConfirmations,\n        uint256 _homeDailyLimit,\n        uint256 _homeMaxPerTx,\n        address _owner,\n        address _feeManager,\n        uint256 _homeFee\n    ) public returns(bool) {\n        _initialize(\n            _validatorContract,\n            _erc677token,\n            _dailyLimit,\n            _maxPerTx,\n            _minPerTx,\n            _foreignGasPrice,\n            _requiredBlockConfirmations,\n            _homeDailyLimit,\n            _homeMaxPerTx,\n            _owner\n        );\n        require(isContract(_feeManager));\n        addressStorage[keccak256(abi.encodePacked(\"feeManagerContract\"))] = _feeManager;\n        _setFee(_feeManager, _homeFee, HOME_FEE);\n        setInitialize(true);\n        return isInitialized();\n    }\n\n    function getBridgeMode() public pure returns(bytes4 _data) {\n        return bytes4(keccak256(abi.encodePacked(\"native-to-erc-core\")));\n    }\n\n    function claimTokensFromErc677(address _token, address _to) external onlyIfOwnerOfProxy {\n        IBurnableMintableERC677Token(erc677token()).claimTokens(_token, _to);\n    }\n\n    function _initialize(\n        address _validatorContract,\n        address _erc677token,\n        uint256 _dailyLimit,\n        uint256 _maxPerTx,\n        uint256 _minPerTx,\n        uint256 _foreignGasPrice,\n        uint256 _requiredBlockConfirmations,\n        uint256 _homeDailyLimit,\n        uint256 _homeMaxPerTx,\n        address _owner\n    ) internal {\n        require(!isInitialized());\n        require(_validatorContract != address(0) && isContract(_validatorContract));\n        require(_minPerTx > 0 && _maxPerTx > _minPerTx && _dailyLimit > _maxPerTx);\n        require(_foreignGasPrice > 0);\n        require(_homeMaxPerTx < _homeDailyLimit);\n        require(_owner != address(0));\n        addressStorage[keccak256(abi.encodePacked(\"validatorContract\"))] = _validatorContract;\n        setErc677token(_erc677token);\n        uintStorage[keccak256(abi.encodePacked(\"dailyLimit\"))] = _dailyLimit;\n        uintStorage[keccak256(abi.encodePacked(\"deployedAtBlock\"))] = block.number;\n        uintStorage[keccak256(abi.encodePacked(\"maxPerTx\"))] = _maxPerTx;\n        uintStorage[keccak256(abi.encodePacked(\"minPerTx\"))] = _minPerTx;\n        uintStorage[keccak256(abi.encodePacked(\"gasPrice\"))] = _foreignGasPrice;\n        uintStorage[keccak256(abi.encodePacked(\"requiredBlockConfirmations\"))] = _requiredBlockConfirmations;\n        uintStorage[keccak256(abi.encodePacked(\"executionDailyLimit\"))] = _homeDailyLimit;\n        uintStorage[keccak256(abi.encodePacked(\"executionMaxPerTx\"))] = _homeMaxPerTx;\n        setOwner(_owner);\n    }\n\n    function onExecuteMessage(address _recipient, uint256 _amount, bytes32 _txHash) internal returns(bool) {\n        setTotalExecutedPerDay(getCurrentDay(), totalExecutedPerDay(getCurrentDay()).add(_amount));\n        uint256 valueToMint = _amount;\n        address feeManager = feeManagerContract();\n        if (feeManager != address(0)) {\n            uint256 fee = calculateFee(valueToMint, false, feeManager, HOME_FEE);\n            if (fee != 0) {\n                distributeFeeFromSignatures(fee, feeManager, _txHash);\n                valueToMint = valueToMint.sub(fee);\n            }\n        }\n        return IBurnableMintableERC677Token(erc677token()).mint(_recipient, valueToMint);\n    }\n\n    function fireEventOnTokenTransfer(address _from, uint256 _value) internal {\n        emit UserRequestForAffirmation(_from, _value);\n    }\n\n    function messageWithinLimits(uint256 _amount) internal view returns(bool) {\n        return withinExecutionLimit(_amount);\n    }\n\n    function onFailedMessage(address, uint256, bytes32) internal {\n        revert();\n    }\n}\n",
  "sourcePath": "/Users/fbranci/iexecdev/vivani/tokenbridge/contracts/contracts/upgradeable_contracts/native_to_erc20/ForeignBridgeNativeToErc.sol",
  "compiler": {
    "name": "solc",
    "version": "0.4.24+commit.e67f0147.Emscripten.clang"
  },
  "schemaVersion": "3.0.13",
  "updatedAt": "2019-08-28T14:04:53.336Z",
  "devdoc": {
    "methods": {
      "owner()": {
        "details": "Tells the address of the owner",
        "return": "the address of the owner"
      },
      "transferOwnership(address)": {
        "details": "Allows the current owner to transfer control of the contract to a newOwner.",
        "params": {
          "newOwner": "the address to transfer ownership to."
        }
      }
    }
  },
  "userdoc": {
    "methods": {}
  }
}