{
  "contractName": "HomeBridgeErcToErc",
  "abi": [
    {
      "constant": true,
      "inputs": [
        {
          "name": "_message",
          "type": "bytes32"
        }
      ],
      "name": "numMessagesSigned",
      "outputs": [
        {
          "name": "",
          "type": "uint256"
        }
      ],
      "payable": false,
      "stateMutability": "view",
      "type": "function"
    },
    {
      "constant": true,
      "inputs": [
        {
          "name": "_hash",
          "type": "bytes32"
        },
        {
          "name": "_index",
          "type": "uint256"
        }
      ],
      "name": "signature",
      "outputs": [
        {
          "name": "",
          "type": "bytes"
        }
      ],
      "payable": false,
      "stateMutability": "view",
      "type": "function"
    },
    {
      "constant": true,
      "inputs": [],
      "name": "erc677token",
      "outputs": [
        {
          "name": "",
          "type": "address"
        }
      ],
      "payable": false,
      "stateMutability": "view",
      "type": "function"
    },
    {
      "constant": false,
      "inputs": [
        {
          "name": "_fee",
          "type": "uint256"
        }
      ],
      "name": "setForeignFee",
      "outputs": [],
      "payable": false,
      "stateMutability": "nonpayable",
      "type": "function"
    },
    {
      "constant": true,
      "inputs": [
        {
          "name": "_txHash",
          "type": "bytes32"
        }
      ],
      "name": "fixedAssets",
      "outputs": [
        {
          "name": "",
          "type": "bool"
        }
      ],
      "payable": false,
      "stateMutability": "view",
      "type": "function"
    },
    {
      "constant": true,
      "inputs": [
        {
          "name": "_day",
          "type": "uint256"
        }
      ],
      "name": "totalSpentPerDay",
      "outputs": [
        {
          "name": "",
          "type": "uint256"
        }
      ],
      "payable": false,
      "stateMutability": "view",
      "type": "function"
    },
    {
      "constant": false,
      "inputs": [
        {
          "name": "_fee",
          "type": "uint256"
        }
      ],
      "name": "setHomeFee",
      "outputs": [],
      "payable": false,
      "stateMutability": "nonpayable",
      "type": "function"
    },
    {
      "constant": true,
      "inputs": [],
      "name": "isInitialized",
      "outputs": [
        {
          "name": "",
          "type": "bool"
        }
      ],
      "payable": false,
      "stateMutability": "view",
      "type": "function"
    },
    {
      "constant": false,
      "inputs": [
        {
          "name": "_dailyLimit",
          "type": "uint256"
        }
      ],
      "name": "setExecutionDailyLimit",
      "outputs": [],
      "payable": false,
      "stateMutability": "nonpayable",
      "type": "function"
    },
    {
      "constant": true,
      "inputs": [],
      "name": "getCurrentDay",
      "outputs": [
        {
          "name": "",
          "type": "uint256"
        }
      ],
      "payable": false,
      "stateMutability": "view",
      "type": "function"
    },
    {
      "constant": true,
      "inputs": [],
      "name": "requiredBlockConfirmations",
      "outputs": [
        {
          "name": "",
          "type": "uint256"
        }
      ],
      "payable": false,
      "stateMutability": "view",
      "type": "function"
    },
    {
      "constant": true,
      "inputs": [],
      "name": "requiredMessageLength",
      "outputs": [
        {
          "name": "",
          "type": "uint256"
        }
      ],
      "payable": false,
      "stateMutability": "pure",
      "type": "function"
    },
    {
      "constant": true,
      "inputs": [],
      "name": "executionDailyLimit",
      "outputs": [
        {
          "name": "",
          "type": "uint256"
        }
      ],
      "payable": false,
      "stateMutability": "view",
      "type": "function"
    },
    {
      "constant": true,
      "inputs": [
        {
          "name": "_hash",
          "type": "bytes32"
        }
      ],
      "name": "message",
      "outputs": [
        {
          "name": "",
          "type": "bytes"
        }
      ],
      "payable": false,
      "stateMutability": "view",
      "type": "function"
    },
    {
      "constant": true,
      "inputs": [
        {
          "name": "_day",
          "type": "uint256"
        }
      ],
      "name": "totalExecutedPerDay",
      "outputs": [
        {
          "name": "",
          "type": "uint256"
        }
      ],
      "payable": false,
      "stateMutability": "view",
      "type": "function"
    },
    {
      "constant": false,
      "inputs": [
        {
          "name": "_feeManager",
          "type": "address"
        }
      ],
      "name": "setFeeManagerContract",
      "outputs": [],
      "payable": false,
      "stateMutability": "nonpayable",
      "type": "function"
    },
    {
      "constant": false,
      "inputs": [
        {
          "name": "signature",
          "type": "bytes"
        },
        {
          "name": "message",
          "type": "bytes"
        }
      ],
      "name": "submitSignature",
      "outputs": [],
      "payable": false,
      "stateMutability": "nonpayable",
      "type": "function"
    },
    {
      "constant": true,
      "inputs": [],
      "name": "dailyLimit",
      "outputs": [
        {
          "name": "",
          "type": "uint256"
        }
      ],
      "payable": false,
      "stateMutability": "view",
      "type": "function"
    },
    {
      "constant": false,
      "inputs": [
        {
          "name": "_token",
          "type": "address"
        },
        {
          "name": "_to",
          "type": "address"
        }
      ],
      "name": "claimTokens",
      "outputs": [],
      "payable": false,
      "stateMutability": "nonpayable",
      "type": "function"
    },
    {
      "constant": true,
      "inputs": [
        {
          "name": "_withdrawal",
          "type": "bytes32"
        }
      ],
      "name": "numAffirmationsSigned",
      "outputs": [
        {
          "name": "",
          "type": "uint256"
        }
      ],
      "payable": false,
      "stateMutability": "view",
      "type": "function"
    },
    {
      "constant": true,
      "inputs": [
        {
          "name": "_withdrawal",
          "type": "bytes32"
        }
      ],
      "name": "affirmationsSigned",
      "outputs": [
        {
          "name": "",
          "type": "bool"
        }
      ],
      "payable": false,
      "stateMutability": "view",
      "type": "function"
    },
    {
      "constant": true,
      "inputs": [
        {
          "name": "_amount",
          "type": "uint256"
        }
      ],
      "name": "withinExecutionLimit",
      "outputs": [
        {
          "name": "",
          "type": "bool"
        }
      ],
      "payable": false,
      "stateMutability": "view",
      "type": "function"
    },
    {
      "constant": true,
      "inputs": [],
      "name": "executionMaxPerTx",
      "outputs": [
        {
          "name": "",
          "type": "uint256"
        }
      ],
      "payable": false,
      "stateMutability": "view",
      "type": "function"
    },
    {
      "constant": true,
      "inputs": [],
      "name": "requiredSignatures",
      "outputs": [
        {
          "name": "",
          "type": "uint256"
        }
      ],
      "payable": false,
      "stateMutability": "view",
      "type": "function"
    },
    {
      "constant": true,
      "inputs": [],
      "name": "owner",
      "outputs": [
        {
          "name": "",
          "type": "address"
        }
      ],
      "payable": false,
      "stateMutability": "view",
      "type": "function"
    },
    {
      "constant": true,
      "inputs": [
        {
          "name": "_message",
          "type": "bytes32"
        }
      ],
      "name": "messagesSigned",
      "outputs": [
        {
          "name": "",
          "type": "bool"
        }
      ],
      "payable": false,
      "stateMutability": "view",
      "type": "function"
    },
    {
      "constant": true,
      "inputs": [],
      "name": "getHomeFee",
      "outputs": [
        {
          "name": "",
          "type": "uint256"
        }
      ],
      "payable": false,
      "stateMutability": "view",
      "type": "function"
    },
    {
      "constant": true,
      "inputs": [],
      "name": "validatorContract",
      "outputs": [
        {
          "name": "",
          "type": "address"
        }
      ],
      "payable": false,
      "stateMutability": "view",
      "type": "function"
    },
    {
      "constant": false,
      "inputs": [
        {
          "name": "recipient",
          "type": "address"
        },
        {
          "name": "value",
          "type": "uint256"
        },
        {
          "name": "transactionHash",
          "type": "bytes32"
        }
      ],
      "name": "executeAffirmation",
      "outputs": [],
      "payable": false,
      "stateMutability": "nonpayable",
      "type": "function"
    },
    {
      "constant": true,
      "inputs": [],
      "name": "deployedAtBlock",
      "outputs": [
        {
          "name": "",
          "type": "uint256"
        }
      ],
      "payable": false,
      "stateMutability": "view",
      "type": "function"
    },
    {
      "constant": true,
      "inputs": [],
      "name": "getBridgeInterfacesVersion",
      "outputs": [
        {
          "name": "major",
          "type": "uint64"
        },
        {
          "name": "minor",
          "type": "uint64"
        },
        {
          "name": "patch",
          "type": "uint64"
        }
      ],
      "payable": false,
      "stateMutability": "pure",
      "type": "function"
    },
    {
      "constant": true,
      "inputs": [],
      "name": "outOfLimitAmount",
      "outputs": [
        {
          "name": "",
          "type": "uint256"
        }
      ],
      "payable": false,
      "stateMutability": "view",
      "type": "function"
    },
    {
      "constant": false,
      "inputs": [
        {
          "name": "_minPerTx",
          "type": "uint256"
        }
      ],
      "name": "setMinPerTx",
      "outputs": [],
      "payable": false,
      "stateMutability": "nonpayable",
      "type": "function"
    },
    {
      "constant": false,
      "inputs": [
        {
          "name": "_from",
          "type": "address"
        },
        {
          "name": "_value",
          "type": "uint256"
        },
        {
          "name": "",
          "type": "bytes"
        }
      ],
      "name": "onTokenTransfer",
      "outputs": [
        {
          "name": "",
          "type": "bool"
        }
      ],
      "payable": false,
      "stateMutability": "nonpayable",
      "type": "function"
    },
    {
      "constant": false,
      "inputs": [
        {
          "name": "txHash",
          "type": "bytes32"
        },
        {
          "name": "unlockOnForeign",
          "type": "bool"
        },
        {
          "name": "valueToUnlock",
          "type": "uint256"
        }
      ],
      "name": "fixAssetsAboveLimits",
      "outputs": [],
      "payable": false,
      "stateMutability": "nonpayable",
      "type": "function"
    },
    {
      "constant": false,
      "inputs": [
        {
          "name": "_blockConfirmations",
          "type": "uint256"
        }
      ],
      "name": "setRequiredBlockConfirmations",
      "outputs": [],
      "payable": false,
      "stateMutability": "nonpayable",
      "type": "function"
    },
    {
      "constant": false,
      "inputs": [
        {
          "name": "_dailyLimit",
          "type": "uint256"
        }
      ],
      "name": "setDailyLimit",
      "outputs": [],
      "payable": false,
      "stateMutability": "nonpayable",
      "type": "function"
    },
    {
      "constant": false,
      "inputs": [
        {
          "name": "_gasPrice",
          "type": "uint256"
        }
      ],
      "name": "setGasPrice",
      "outputs": [],
      "payable": false,
      "stateMutability": "nonpayable",
      "type": "function"
    },
    {
      "constant": false,
      "inputs": [
        {
          "name": "_maxPerTx",
          "type": "uint256"
        }
      ],
      "name": "setMaxPerTx",
      "outputs": [],
      "payable": false,
      "stateMutability": "nonpayable",
      "type": "function"
    },
    {
      "constant": true,
      "inputs": [],
      "name": "decimalShift",
      "outputs": [
        {
          "name": "",
          "type": "uint256"
        }
      ],
      "payable": false,
      "stateMutability": "view",
      "type": "function"
    },
    {
      "constant": true,
      "inputs": [],
      "name": "feeManagerContract",
      "outputs": [
        {
          "name": "",
          "type": "address"
        }
      ],
      "payable": false,
      "stateMutability": "view",
      "type": "function"
    },
    {
      "constant": true,
      "inputs": [],
      "name": "minPerTx",
      "outputs": [
        {
          "name": "",
          "type": "uint256"
        }
      ],
      "payable": false,
      "stateMutability": "view",
      "type": "function"
    },
    {
      "constant": true,
      "inputs": [
        {
          "name": "_amount",
          "type": "uint256"
        }
      ],
      "name": "withinLimit",
      "outputs": [
        {
          "name": "",
          "type": "bool"
        }
      ],
      "payable": false,
      "stateMutability": "view",
      "type": "function"
    },
    {
      "constant": false,
      "inputs": [
        {
          "name": "_maxPerTx",
          "type": "uint256"
        }
      ],
      "name": "setExecutionMaxPerTx",
      "outputs": [],
      "payable": false,
      "stateMutability": "nonpayable",
      "type": "function"
    },
    {
      "constant": true,
      "inputs": [],
      "name": "getFeeManagerMode",
      "outputs": [
        {
          "name": "",
          "type": "bytes4"
        }
      ],
      "payable": false,
      "stateMutability": "view",
      "type": "function"
    },
    {
      "constant": false,
      "inputs": [
        {
          "name": "newOwner",
          "type": "address"
        }
      ],
      "name": "transferOwnership",
      "outputs": [],
      "payable": false,
      "stateMutability": "nonpayable",
      "type": "function"
    },
    {
      "constant": true,
      "inputs": [],
      "name": "maxPerTx",
      "outputs": [
        {
          "name": "",
          "type": "uint256"
        }
      ],
      "payable": false,
      "stateMutability": "view",
      "type": "function"
    },
    {
      "constant": true,
      "inputs": [],
      "name": "gasPrice",
      "outputs": [
        {
          "name": "",
          "type": "uint256"
        }
      ],
      "payable": false,
      "stateMutability": "view",
      "type": "function"
    },
    {
      "constant": true,
      "inputs": [
        {
          "name": "_number",
          "type": "uint256"
        }
      ],
      "name": "isAlreadyProcessed",
      "outputs": [
        {
          "name": "",
          "type": "bool"
        }
      ],
      "payable": false,
      "stateMutability": "pure",
      "type": "function"
    },
    {
      "constant": true,
      "inputs": [],
      "name": "getForeignFee",
      "outputs": [
        {
          "name": "",
          "type": "uint256"
        }
      ],
      "payable": false,
      "stateMutability": "view",
      "type": "function"
    },
    {
      "anonymous": false,
      "inputs": [
        {
          "indexed": false,
          "name": "recipient",
          "type": "address"
        },
        {
          "indexed": false,
          "name": "value",
          "type": "uint256"
        },
        {
          "indexed": false,
          "name": "transactionHash",
          "type": "bytes32"
        }
      ],
      "name": "AmountLimitExceeded",
      "type": "event"
    },
    {
      "anonymous": false,
      "inputs": [
        {
          "indexed": false,
          "name": "recipient",
          "type": "address"
        },
        {
          "indexed": false,
          "name": "value",
          "type": "uint256"
        }
      ],
      "name": "UserRequestForSignature",
      "type": "event"
    },
    {
      "anonymous": false,
      "inputs": [
        {
          "indexed": true,
          "name": "transactionHash",
          "type": "bytes32"
        },
        {
          "indexed": false,
          "name": "value",
          "type": "uint256"
        },
        {
          "indexed": false,
          "name": "remaining",
          "type": "uint256"
        }
      ],
      "name": "AssetAboveLimitsFixed",
      "type": "event"
    },
    {
      "anonymous": false,
      "inputs": [
        {
          "indexed": false,
          "name": "recipient",
          "type": "address"
        },
        {
          "indexed": false,
          "name": "value",
          "type": "uint256"
        },
        {
          "indexed": false,
          "name": "transactionHash",
          "type": "bytes32"
        }
      ],
      "name": "AffirmationCompleted",
      "type": "event"
    },
    {
      "anonymous": false,
      "inputs": [
        {
          "indexed": true,
          "name": "signer",
          "type": "address"
        },
        {
          "indexed": false,
          "name": "messageHash",
          "type": "bytes32"
        }
      ],
      "name": "SignedForUserRequest",
      "type": "event"
    },
    {
      "anonymous": false,
      "inputs": [
        {
          "indexed": true,
          "name": "signer",
          "type": "address"
        },
        {
          "indexed": false,
          "name": "transactionHash",
          "type": "bytes32"
        }
      ],
      "name": "SignedForAffirmation",
      "type": "event"
    },
    {
      "anonymous": false,
      "inputs": [
        {
          "indexed": false,
          "name": "authorityResponsibleForRelay",
          "type": "address"
        },
        {
          "indexed": false,
          "name": "messageHash",
          "type": "bytes32"
        },
        {
          "indexed": false,
          "name": "NumberOfCollectedSignatures",
          "type": "uint256"
        }
      ],
      "name": "CollectedSignatures",
      "type": "event"
    },
    {
      "anonymous": false,
      "inputs": [
        {
          "indexed": false,
          "name": "gasPrice",
          "type": "uint256"
        }
      ],
      "name": "GasPriceChanged",
      "type": "event"
    },
    {
      "anonymous": false,
      "inputs": [
        {
          "indexed": false,
          "name": "requiredBlockConfirmations",
          "type": "uint256"
        }
      ],
      "name": "RequiredBlockConfirmationChanged",
      "type": "event"
    },
    {
      "anonymous": false,
      "inputs": [
        {
          "indexed": false,
          "name": "newLimit",
          "type": "uint256"
        }
      ],
      "name": "DailyLimitChanged",
      "type": "event"
    },
    {
      "anonymous": false,
      "inputs": [
        {
          "indexed": false,
          "name": "newLimit",
          "type": "uint256"
        }
      ],
      "name": "ExecutionDailyLimitChanged",
      "type": "event"
    },
    {
      "anonymous": false,
      "inputs": [
        {
          "indexed": false,
          "name": "feeAmount",
          "type": "uint256"
        },
        {
          "indexed": true,
          "name": "transactionHash",
          "type": "bytes32"
        }
      ],
      "name": "FeeDistributedFromAffirmation",
      "type": "event"
    },
    {
      "anonymous": false,
      "inputs": [
        {
          "indexed": false,
          "name": "feeAmount",
          "type": "uint256"
        },
        {
          "indexed": true,
          "name": "transactionHash",
          "type": "bytes32"
        }
      ],
      "name": "FeeDistributedFromSignatures",
      "type": "event"
    },
    {
      "anonymous": false,
      "inputs": [
        {
          "indexed": false,
          "name": "previousOwner",
          "type": "address"
        },
        {
          "indexed": false,
          "name": "newOwner",
          "type": "address"
        }
      ],
      "name": "OwnershipTransferred",
      "type": "event"
    },
    {
      "constant": false,
      "inputs": [
        {
          "name": "_validatorContract",
          "type": "address"
        },
        {
          "name": "_dailyLimitMaxPerTxMinPerTxArray",
          "type": "uint256[]"
        },
        {
          "name": "_homeGasPrice",
          "type": "uint256"
        },
        {
          "name": "_requiredBlockConfirmations",
          "type": "uint256"
        },
        {
          "name": "_erc677token",
          "type": "address"
        },
        {
          "name": "_foreignDailyLimitForeignMaxPerTxArray",
          "type": "uint256[]"
        },
        {
          "name": "_owner",
          "type": "address"
        },
        {
          "name": "_decimalShift",
          "type": "uint256"
        }
      ],
      "name": "initialize",
      "outputs": [
        {
          "name": "",
          "type": "bool"
        }
      ],
      "payable": false,
      "stateMutability": "nonpayable",
      "type": "function"
    },
    {
      "constant": false,
      "inputs": [
        {
          "name": "_validatorContract",
          "type": "address"
        },
        {
          "name": "_dailyLimitMaxPerTxMinPerTxArray",
          "type": "uint256[]"
        },
        {
          "name": "_homeGasPrice",
          "type": "uint256"
        },
        {
          "name": "_requiredBlockConfirmations",
          "type": "uint256"
        },
        {
          "name": "_erc677token",
          "type": "address"
        },
        {
          "name": "_foreignDailyLimitForeignMaxPerTxArray",
          "type": "uint256[]"
        },
        {
          "name": "_owner",
          "type": "address"
        },
        {
          "name": "_feeManager",
          "type": "address"
        },
        {
          "name": "_homeFeeForeignFeeArray",
          "type": "uint256[]"
        },
        {
          "name": "_decimalShift",
          "type": "uint256"
        }
      ],
      "name": "rewardableInitialize",
      "outputs": [
        {
          "name": "",
          "type": "bool"
        }
      ],
      "payable": false,
      "stateMutability": "nonpayable",
      "type": "function"
    },
    {
      "constant": false,
      "inputs": [
        {
          "name": "_token",
          "type": "address"
        },
        {
          "name": "_to",
          "type": "address"
        }
      ],
      "name": "claimTokensFromErc677",
      "outputs": [],
      "payable": false,
      "stateMutability": "nonpayable",
      "type": "function"
    },
    {
      "constant": true,
      "inputs": [],
      "name": "getBridgeMode",
      "outputs": [
        {
          "name": "_data",
          "type": "bytes4"
        }
      ],
      "payable": false,
      "stateMutability": "pure",
      "type": "function"
    }
  ],
  "bytecode": "0x608060405234801561001057600080fd5b5061593b80620000216000396000f30060806040526004361061026e5763ffffffff60e060020a6000350416630cbf060181146102735780631812d9961461029d57806318d8f9c91461032d578063286c40661461035e5780632888bb9c146103785780632bd0bb05146103a457806334a9e148146103bc578063392e53cd146103d45780633dd95d1b146103e95780633e6968b6146104015780633f0a9f6514610416578063408fef2e1461042b578063437764df1461044057806343b37dd314610487578063490a32c61461049c5780634fb3fef7146104b457806360756f7c146104cc578063630cea8e146104ed57806366124e411461051957806367eeba0c1461056a57806369ffa08a1461057f5780636ae1a976146105a65780637698da24146105be578063879ce676146105d65780638aa1949a146105ee5780638d068043146106035780638da5cb5b146106185780638f4b4b981461062d5780639313dc431461064557806394da17cd1461066c5780639943908914610681578063995b2cff146106965780639a454b99146106bd5780639cb7595a146106d2578063a018934514610713578063a2a6ca2714610728578063a4c0ed3614610740578063a7444c0d14610771578063acf5c68914610791578063b20d30a9146107a9578063bf1fe420146107c1578063c6f6f216146107d9578063dae5f0fd146107f1578063dbe03a8b14610806578063df25f3f01461081b578063e46c0df014610830578063ea9f496814610894578063f20151e1146108ac578063f2ba9561146108c4578063f2fde38b146108d9578063f968adbe146108fa578063fe173b971461090f578063ffd19e8c14610924578063ffd661961461093c575b600080fd5b34801561027f57600080fd5b5061028b600435610951565b60408051918252519081900360200190f35b3480156102a957600080fd5b506102b8600435602435610a16565b6040805160208082528351818301528351919283929083019185019080838360005b838110156102f25781810151838201526020016102da565b50505050905090810190601f16801561031f5780820380516001836020036101000a031916815260200191505b509250505060405180910390f35b34801561033957600080fd5b50610342610bf3565b60408051600160a060020a039092168252519081900360200190f35b34801561036a57600080fd5b50610376600435610cb2565b005b34801561038457600080fd5b50610390600435610d6c565b604080519115158252519081900360200190f35b3480156103b057600080fd5b5061028b600435610e35565b3480156103c857600080fd5b50610376600435610eb0565b3480156103e057600080fd5b50610390610f34565b3480156103f557600080fd5b50610376600435610fec565b34801561040d57600080fd5b5061028b61110c565b34801561042257600080fd5b5061028b611115565b34801561043757600080fd5b5061028b6111c9565b34801561044c57600080fd5b506104556111d8565b604080517bffffffffffffffffffffffffffffffffffffffffffffffffffffffff199092168252519081900360200190f35b34801561049357600080fd5b5061028b61127b565b3480156104a857600080fd5b506102b86004356112ee565b3480156104c057600080fd5b5061028b600435611456565b3480156104d857600080fd5b50610376600160a060020a03600435166114d1565b3480156104f957600080fd5b5061037660246004803582810192908201359181359182019101356115ef565b34801561052557600080fd5b5061039060048035600160a060020a039081169160248035808201939083013592604435926064359260843581169260a4359283019201359060c4351660e435611a82565b34801561057657600080fd5b5061028b611b11565b34801561058b57600080fd5b50610376600160a060020a0360043581169060243516611b84565b3480156105b257600080fd5b5061028b600435611c27565b3480156105ca57600080fd5b50610390600435611caa565b3480156105e257600080fd5b50610390600435611d2e565b3480156105fa57600080fd5b5061028b611d78565b34801561060f57600080fd5b5061028b611deb565b34801561062457600080fd5b50610342611e63565b34801561063957600080fd5b50610390600435611ed7565b34801561065157600080fd5b50610376600160a060020a0360043581169060243516611f5b565b34801561067857600080fd5b5061028b61206a565b34801561068d57600080fd5b506103426120fe565b3480156106a257600080fd5b50610376600160a060020a0360043516602435604435612172565b3480156106c957600080fd5b5061028b612464565b3480156106de57600080fd5b506106e76124d7565b6040805167ffffffffffffffff9485168152928416602084015292168183015290519081900360600190f35b34801561071f57600080fd5b5061028b6124e2565b34801561073457600080fd5b50610376600435612555565b34801561074c57600080fd5b5061039060048035600160a060020a031690602480359160443591820191013561264c565b34801561077d57600080fd5b5061037660043560243515156044356126bd565b34801561079d57600080fd5b5061037660043561294a565b3480156107b557600080fd5b50610376600435612a59565b3480156107cd57600080fd5b50610376600435612b79565b3480156107e557600080fd5b50610376600435612c88565b3480156107fd57600080fd5b5061028b612d29565b34801561081257600080fd5b50610342612d9c565b34801561082757600080fd5b5061028b612e10565b34801561083c57600080fd5b50610390600160a060020a036004803582169160248035808201939081013592604435926064359260843583169260a43580840193908301359260c43583169260e43516916101043590810191013561012435612e83565b3480156108a057600080fd5b50610390600435612f46565b3480156108b857600080fd5b50610376600435612f91565b3480156108d057600080fd5b50610455613032565b3480156108e557600080fd5b50610376600160a060020a03600435166130a9565b34801561090657600080fd5b5061028b6130e3565b34801561091b57600080fd5b5061028b613156565b34801561093057600080fd5b506103906004356131c9565b34801561094857600080fd5b5061028b6131f1565b60008060008360405160200180807f6e756d4d657373616765735369676e656400000000000000000000000000000081525060110182600019166000191681526020019150506040516020818303038152906040526040518082805190602001908083835b602083106109d55780518252601f1990920191602091820191016109b6565b51815160209384036101000a600019018019909216911617905260408051929094018290039091208652850195909552929092016000205495945050505050565b604080516020808201859052818301849052825180830384018152606092830193849052805192936000939192909182918401908083835b60208310610a6d5780518252601f199092019160209182019101610a4e565b51815160209384036101000a6000190180199092169116179052604080519290940182900382207f7369676e6174757265730000000000000000000000000000000000000000000083830152602a80840182905285518085039091018152604a9093019485905282519097506003965060009550919392508291908401908083835b60208310610b0e5780518252601f199092019160209182019101610aef565b6001836020036101000a0380198251168184511680821785525050505050509050019150506040518091039020600019166000191681526020019081526020016000208054600181600116156101000203166002900480601f016020809104026020016040519081016040528092919081815260200182805460018160011615610100020316600290048015610be55780601f10610bba57610100808354040283529160200191610be5565b820191906000526020600020905b815481529060010190602001808311610bc857829003601f168201915b505050505091505092915050565b60006002600060405160200180807f657263363737746f6b656e000000000000000000000000000000000000000000815250600b0190506040516020818303038152906040526040518082805190602001908083835b60208310610c685780518252601f199092019160209182019101610c49565b51815160209384036101000a6000190180199092169116179052604080519290940182900390912086528501959095529290920160002054600160a060020a031693505050505b90565b610cba611e63565b600160a060020a03163314610cce57600080fd5b610d69610cd9612d9c565b8260405160200180806000805160206158d0833981519152815250600b0190506040516020818303038152906040526040518082805190602001908083835b60208310610d375780518252601f199092019160209182019101610d18565b6001836020036101000a0380198251168184511680821785525050505050509050019150506040518091039020613252565b50565b6000600460008360405160200180807f6669786564417373657473000000000000000000000000000000000000000000815250600b0182600019166000191681526020019150506040516020818303038152906040526040518082805190602001908083835b60208310610df15780518252601f199092019160209182019101610dd2565b51815160209384036101000a600019018019909216911617905260408051929094018290039091208652850195909552929092016000205460ff1695945050505050565b60008060008360405160200180807f746f74616c5370656e7450657244617900000000000000000000000000000000815250601001828152602001915050604051602081830303815290604052604051808280519060200190808383602083106109d55780518252601f1990920191602091820191016109b6565b610eb8611e63565b600160a060020a03163314610ecc57600080fd5b610d69610ed7612d9c565b8260405160200180806000805160206158f0833981519152815250600801905060405160208183030381529060405260405180828051906020019080838360208310610d375780518252601f199092019160209182019101610d18565b60006004600060405160200180807f6973496e697469616c697a656400000000000000000000000000000000000000815250600d0190506040516020818303038152906040526040518082805190602001908083835b60208310610fa95780518252601f199092019160209182019101610f8a565b51815160209384036101000a600019018019909216911617905260408051929094018290039091208652850195909552929092016000205460ff16949350505050565b610ff4611e63565b600160a060020a0316331461100857600080fd5b611010611d78565b81118061101b575080155b151561102657600080fd5b8060008060405160200180807f657865637574696f6e4461696c794c696d69740000000000000000000000000081525060130190506040516020818303038152906040526040518082805190602001908083835b602083106110995780518252601f19909201916020918201910161107a565b51815160001960209485036101000a019081169019919091161790526040805194909201849003909320865285830196909652509284016000209490945550815184815291517f9bebf928b90863f24cc31f726a3a7545efd409f1dcf552301b1ee3710da70d3b9350918290030190a150565b62015180420490565b600080600060405160200180807f7265717569726564426c6f636b436f6e6669726d6174696f6e73000000000000815250601a0190506040516020818303038152906040526040518082805190602001908083835b602083106111895780518252601f19909201916020918201910161116a565b51815160209384036101000a6000190180199092169116179052604080519290940182900390912086528501959095529290920160002054949350505050565b60006111d3613404565b905090565b600060405160200180807f6572632d746f2d6572632d636f72650000000000000000000000000000000000815250600f0190506040516020818303038152906040526040518082805190602001908083835b602083106112495780518252601f19909201916020918201910161122a565b6001836020036101000a0380198251168184511680821785525050505050509050019150506040518091039020905090565b600080600060405160200180807f657865637574696f6e4461696c794c696d6974000000000000000000000000008152506013019050604051602081830303815290604052604051808280519060200190808383602083106111895780518252601f19909201916020918201910161116a565b6060600360008360405160200180807f6d6573736167657300000000000000000000000000000000000000000000000081525060080182600019166000191681526020019150506040516020818303038152906040526040518082805190602001908083835b602083106113735780518252601f199092019160209182019101611354565b6001836020036101000a0380198251168184511680821785525050505050509050019150506040518091039020600019166000191681526020019081526020016000208054600181600116156101000203166002900480601f01602080910402602001604051908101604052809291908181526020018280546001816001161561010002031660029004801561144a5780601f1061141f5761010080835404028352916020019161144a565b820191906000526020600020905b81548152906001019060200180831161142d57829003601f168201915b50505050509050919050565b60008060008360405160200180807f746f74616c457865637574656450657244617900000000000000000000000000815250601301828152602001915050604051602081830303815290604052604051808280519060200190808383602083106109d55780518252601f1990920191602091820191016109b6565b6114d9611e63565b600160a060020a031633146114ed57600080fd5b600160a060020a0381161580611507575061150781613409565b151561151257600080fd5b806002600060405160200180807f6665654d616e61676572436f6e7472616374000000000000000000000000000081525060120190506040516020818303038152906040526040518082805190602001908083835b602083106115865780518252601f199092019160209182019101611567565b51815160209384036101000a60001901801990921691161790526040805192909401829003909120865285019590955292909201600020805473ffffffffffffffffffffffffffffffffffffffff1916600160a060020a03959095169490941790935550505050565b60008060008060006115ff6120fe565b600160a060020a031663facd743b336040518263ffffffff1660e060020a0281526004018082600160a060020a0316600160a060020a03168152602001915050602060405180830381600087803b15801561165957600080fd5b505af115801561166d573d6000803e3d6000fd5b505050506040513d602081101561168357600080fd5b5051151561169057600080fd5b6116c987878080601f01602080910402602001604051908101604052809392919081815260200183838082843750613411945050505050565b15156116d457600080fd5b61173b89898080601f0160208091040260200160405190810160405280939291908181526020018383808284375050604080516020601f8f018190048102820181019092528d815294508d93508c9250829150840183828082843750613425945050505050565b600160a060020a0316331461174f57600080fd5b8686604051602001808383808284378201915050925050506040516020818303038152906040526040518082805190602001908083835b602083106117a55780518252601f199092019160209182019101611786565b51815160209384036101000a600019018019909216911617905260408051929094018290038220336c0100000000000000000000000002838301526034808401829052855180850390910181526054909301948590528251909b509195509293508392850191508083835b6020831061182f5780518252601f199092019160209182019101611810565b6001836020036101000a0380198251168184511680821785525050505050509050019150506040518091039020935061186785610951565b9250611872836131c9565b1561187c57600080fd5b6001928301928311156118a15761189284611ed7565b1561189c57600080fd5b6118db565b6118db8588888080601f016020809104026020016040519081016040528093929190818152602001838380828437506134e5945050505050565b6118e68460016135b7565b604080516020808201889052600019860182840152825180830384018152606090920192839052815191929182918401908083835b6020831061193a5780518252601f19909201916020918201910161191b565b51815160209384036101000a600019018019909216911617905260408051929094018290038220601f8f018290048202830182019094528d825292965061199b9450869350918d91508c908190840183828082843750613689945050505050565b6119a5858461370c565b60408051868152905133917fbf06885f40778f5ccfb64497d3f92ce568ddaedb7e2fb4487f72690418cf8e4c919081900360200190a26119e3611deb565b9050808310611a77576119fe856119f9856137d1565b61370c565b604080513381526020810187905280820183905290517f415557404d88a0c0b8e3b16967cafffc511213fd9c465c16832ee17ed57d72379181900360600190a1611a7787878080601f016020809104026020016040519081016040528093929190818152602001838380828437506137f6945050505050565b505050505050505050565b6000611af28b8b8b808060200260200160405190810160405280939291908181526020018383602002808284378201915050505050508a8a8a8a8a8080602002602001604051908101604052809392919081815260200183836020028082843782019150505050505089896138aa565b611afa61425c565b611b02610f34565b9b9a5050505050505050505050565b600080600060405160200180807f6461696c794c696d697400000000000000000000000000000000000000000000815250600a019050604051602081830303815290604052604051808280519060200190808383602083106111895780518252601f19909201916020918201910161116a565b30600160a060020a0316636fde82026040518163ffffffff1660e060020a028152600401602060405180830381600087803b158015611bc257600080fd5b505af1158015611bd6573d6000803e3d6000fd5b505050506040513d6020811015611bec57600080fd5b5051600160a060020a03163314611c0257600080fd5b80600160a060020a0381161515611c1857600080fd5b611c22838361431d565b505050565b60008060008360405160200180807f6e756d41666669726d6174696f6e735369676e656400000000000000000000008152506015018260001916600019168152602001915050604051602081830303815290604052604051808280519060200190808383602083106109d55780518252601f1990920191602091820191016109b6565b6000600460008360405160200180807f61666669726d6174696f6e735369676e65640000000000000000000000000000815250601201826000191660001916815260200191505060405160208183030381529060405260405180828051906020019080838360208310610df15780518252601f199092019160209182019101610dd2565b600080611d5183611d45611d4061110c565b611456565b9063ffffffff61434916565b905080611d5c61127b565b10158015611d715750611d6d611d78565b8311155b9392505050565b600080600060405160200180807f657865637574696f6e4d617850657254780000000000000000000000000000008152506011019050604051602081830303815290604052604051808280519060200190808383602083106111895780518252601f19909201916020918201910161116a565b6000611df56120fe565b600160a060020a0316638d0680436040518163ffffffff1660e060020a028152600401602060405180830381600087803b158015611e3257600080fd5b505af1158015611e46573d6000803e3d6000fd5b505050506040513d6020811015611e5c57600080fd5b5051905090565b60006002600060405160200180807f6f776e6572000000000000000000000000000000000000000000000000000000815250600501905060405160208183030381529060405260405180828051906020019080838360208310610c685780518252601f199092019160209182019101610c49565b6000600460008360405160200180807f6d657373616765735369676e6564000000000000000000000000000000000000815250600e01826000191660001916815260200191505060405160208183030381529060405260405180828051906020019080838360208310610df15780518252601f199092019160209182019101610dd2565b30600160a060020a0316636fde82026040518163ffffffff1660e060020a028152600401602060405180830381600087803b158015611f9957600080fd5b505af1158015611fad573d6000803e3d6000fd5b505050506040513d6020811015611fc357600080fd5b5051600160a060020a03163314611fd957600080fd5b611fe1610bf3565b604080517f69ffa08a000000000000000000000000000000000000000000000000000000008152600160a060020a0385811660048301528481166024830152915192909116916369ffa08a9160448082019260009290919082900301818387803b15801561204e57600080fd5b505af1158015612062573d6000803e3d6000fd5b505050505050565b60006111d360405160200180806000805160206158f083398151915281525060080190506040516020818303038152906040526040518082805190602001908083835b602083106120cc5780518252601f1990920191602091820191016120ad565b6001836020036101000a038019825116818451168082178552505050505050905001915050604051809103902061435c565b60006002600060405160200180807f76616c696461746f72436f6e7472616374000000000000000000000000000000815250601101905060405160208183030381529060405260405180828051906020019080838360208310610c685780518252601f199092019160209182019101610c49565b600080600061217f6120fe565b600160a060020a031663facd743b336040518263ffffffff1660e060020a0281526004018082600160a060020a0316600160a060020a03168152602001915050602060405180830381600087803b1580156121d957600080fd5b505af11580156121ed573d6000803e3d6000fd5b505050506040513d602081101561220357600080fd5b5051151561221057600080fd5b61221985611d2e565b1561245957604080516c01000000000000000000000000600160a060020a0389160260208083019190915260348201889052605480830188905283518084039091018152607490920192839052815191929182918401908083835b602083106122935780518252601f199092019160209182019101612274565b51815160209384036101000a600019018019909216911617905260408051929094018290038220336c01000000000000000000000000028383015260348084018290528551808503909101815260549093019485905282519099509195509293508392850191508083835b6020831061231d5780518252601f1990920191602091820191016122fe565b6001836020036101000a0380198251168184511680821785525050505050509050019150506040518091039020915061235582611caa565b1561235f57600080fd5b61236a8260016144b1565b61237383611c27565b905061237e816131c9565b1561238857600080fd5b6001016123958382614534565b60408051858152905133917f5df9cc3eb93d8a9a481857a3b70a8ca966e6b80b25cf0ee2cce180ec5afa80a1919081900360200190a26123d3611deb565b8110612454576123eb836123e6836137d1565b614534565b600085111561240a576123ff8686866145b6565b151561240a57600080fd5b60408051600160a060020a03881681526020810187905280820186905290517f6fc115a803b8703117d9a3956c5a15401cb42401f91630f015eb6b043fa762539181900360600190a15b612062565b612062868686614735565b600080600060405160200180807f6465706c6f7965644174426c6f636b0000000000000000000000000000000000815250600f019050604051602081830303815290604052604051808280519060200190808383602083106111895780518252601f19909201916020918201910161116a565b600260036000909192565b600080600060405160200180807f6f75744f664c696d6974416d6f756e74000000000000000000000000000000008152506010019050604051602081830303815290604052604051808280519060200190808383602083106111895780518252601f19909201916020918201910161116a565b61255d611e63565b600160a060020a0316331461257157600080fd5b612579611b11565b8110801561258d575061258a6130e3565b81105b151561259857600080fd5b8060008060405160200180807f6d696e506572547800000000000000000000000000000000000000000000000081525060080190506040516020818303038152906040526040518082805190602001908083835b6020831061260b5780518252601f1990920191602091820191016125ec565b51815160209384036101000a600019018019909216911617905260408051929094018290039091208652850195909552929092016000209390935550505050565b600080612657610bf3565b905033600160a060020a0382161461266e57600080fd5b61267785612f46565b151561268257600080fd5b6126a661268d61110c565b6126a187611d4561269c61110c565b610e35565b6147d0565b6126b181878761484a565b50600195945050505050565b60008060008060008030600160a060020a0316636fde82026040518163ffffffff1660e060020a028152600401602060405180830381600087803b15801561270457600080fd5b505af1158015612718573d6000803e3d6000fd5b505050506040513d602081101561272e57600080fd5b5051600160a060020a0316331461274457600080fd5b61274d89610d6c565b1561275757600080fd5b61275f6130e3565b87111561276b57600080fd5b612774896148b5565b9096509450600160a060020a038616158015906127915750600085115b801561279d5750868510155b15156127a857600080fd5b6127c86127c3886127b76124e2565b9063ffffffff614a3c16565b614a4e565b6127d8858863ffffffff614a3c16565b93506127e4848a614ac0565b604080518881526020810186905281518b927f5bcec6564fe8d2cbb4e4eb8237510ceb6b291a5c2ee2e429948d25e9c924c1fa928290030190a283151561282e5761282e89614b42565b8715611a775761283c612d9c565b9250869150600160a060020a038316156128fb576128e68760008560405160200180806000805160206158f083398151915281525060080190506040516020818303038152906040526040518082805190602001908083835b602083106128b45780518252601f199092019160209182019101612895565b6001836020036101000a0380198251168184511680821785525050505050509050019150506040518091039020614c14565b90506128f8878263ffffffff614a3c16565b91505b60408051600160a060020a03881681526020810184905281517f127650bcfb0ba017401abe4931453a405140a8fd36fece67bae2db174d3fdd63929181900390910190a1505050505050505050565b612952611e63565b600160a060020a0316331461296657600080fd5b6000811161297357600080fd5b8060008060405160200180807f7265717569726564426c6f636b436f6e6669726d6174696f6e73000000000000815250601a0190506040516020818303038152906040526040518082805190602001908083835b602083106129e65780518252601f1990920191602091820191016129c7565b51815160001960209485036101000a019081169019919091161790526040805194909201849003909320865285830196909652509284016000209490945550815184815291517f4fb76205cd57c896b21511d2114137d8e901b4ccd659e1a0f97d6306795264fb9350918290030190a150565b612a61611e63565b600160a060020a03163314612a7557600080fd5b612a7d6130e3565b811180612a88575080155b1515612a9357600080fd5b8060008060405160200180807f6461696c794c696d697400000000000000000000000000000000000000000000815250600a0190506040516020818303038152906040526040518082805190602001908083835b60208310612b065780518252601f199092019160209182019101612ae7565b51815160001960209485036101000a019081169019919091161790526040805194909201849003909320865285830196909652509284016000209490945550815184815291517fad4123ae17c414d9c6d2fec478b402e6b01856cc250fd01fbfd252fda0089d3c9350918290030190a150565b612b81611e63565b600160a060020a03163314612b9557600080fd5b60008111612ba257600080fd5b8060008060405160200180807f676173507269636500000000000000000000000000000000000000000000000081525060080190506040516020818303038152906040526040518082805190602001908083835b60208310612c155780518252601f199092019160209182019101612bf6565b51815160001960209485036101000a019081169019919091161790526040805194909201849003909320865285830196909652509284016000209490945550815184815291517f52264b89e0fceafb26e79fd49ef8a366eb6297483bf4035b027f0c99a7ad512e9350918290030190a150565b612c90611e63565b600160a060020a03163314612ca457600080fd5b612cac611b11565b8110612cb757600080fd5b8060008060405160200180807f6d6178506572547800000000000000000000000000000000000000000000000081525060080190506040516020818303038152906040526040518082805190602001908083836020831061260b5780518252601f1990920191602091820191016125ec565b600080600060405160200180807f646563696d616c53686966740000000000000000000000000000000000000000815250600c019050604051602081830303815290604052604051808280519060200190808383602083106111895780518252601f19909201916020918201910161116a565b60006002600060405160200180807f6665654d616e61676572436f6e74726163740000000000000000000000000000815250601201905060405160208183030381529060405260405180828051906020019080838360208310610c685780518252601f199092019160209182019101610c49565b600080600060405160200180807f6d696e50657254780000000000000000000000000000000000000000000000008152506008019050604051602081830303815290604052604051808280519060200190808383602083106111895780518252601f19909201916020918201910161116a565b6000612f248e8e8e808060200260200160405190810160405280939291908181526020018383602002808284378201915050505050508d8d8d8d8d808060200260200160405190810160405280939291908181526020018383602002808284378201915050505050508c8c8c8c808060200260200160405190810160405280939291908181526020018383602002808284378201915050505050508b614c9f565b612f2c61425c565b612f34610f34565b9e9d5050505050505050505050505050565b600080612f5883611d4561269c61110c565b905080612f63611b11565b10158015612f785750612f746130e3565b8311155b8015611d715750612f87612e10565b9092101592915050565b612f99611e63565b600160a060020a03163314612fad57600080fd5b612fb561127b565b8110612fc057600080fd5b8060008060405160200180807f657865637574696f6e4d6178506572547800000000000000000000000000000081525060110190506040516020818303038152906040526040518082805190602001908083836020831061260b5780518252601f1990920191602091820191016125ec565b604080516004815260248101909152602081018051600160e060020a03167ff2ba956100000000000000000000000000000000000000000000000000000000179052600090819081613082612d9c565b9050600460008351602085016000855af2600051935080801561026e575092949350505050565b6130b1611e63565b600160a060020a031633146130c557600080fd5b600160a060020a03811615156130da57600080fd5b610d6981614e9c565b600080600060405160200180807f6d617850657254780000000000000000000000000000000000000000000000008152506008019050604051602081830303815290604052604051808280519060200190808383602083106111895780518252601f19909201916020918201910161116a565b600080600060405160200180807f67617350726963650000000000000000000000000000000000000000000000008152506008019050604051602081830303815290604052604051808280519060200190808383602083106111895780518252601f19909201916020918201910161116a565b7f80000000000000000000000000000000000000000000000000000000000000009081161490565b60006111d360405160200180806000805160206158d0833981519152815250600b019050604051602081830303815290604052604051808280519060200190808383602083106120cc5780518252601f1990920191602091820191016120ad565b600060405160200180806000805160206158f083398151915281525060080190506040516020818303038152906040526040518082805190602001908083835b602083106132b15780518252601f199092019160209182019101613292565b5181516020939093036101000a600019018019909116921691909117905260405192018290039091208514925061330b915050577f286c40660000000000000000000000000000000000000000000000000000000061332d565b7f34a9e148000000000000000000000000000000000000000000000000000000005b6040805160248082018790528251808303909101815260449091018252602081018051600160e060020a03167bffffffffffffffffffffffffffffffffffffffffffffffffffffffff19851617815291518151939450600160a060020a038816939192909182919080838360005b838110156133b357818101518382015260200161339b565b50505050905090810190601f1680156133e05780820380516001836020036101000a031916815260200191505b50915050600060405180830381855af491505015156133fe57600080fd5b50505050565b606890565b6000903b1190565b600061341b613404565b8251149050919050565b6000806000808551604114151561343b57600080fd5b505050602083015160408401516060850151600161345886614f5a565b60408051600080825260208083018085529490945260ff7f0100000000000000000000000000000000000000000000000000000000000000870416828401526060820188905260808201879052915160a08083019493601f198301938390039091019190865af11580156134d0573d6000803e3d6000fd5b5050604051601f190151979650505050505050565b80600360008460405160200180807f6d6573736167657300000000000000000000000000000000000000000000000081525060080182600019166000191681526020019150506040516020818303038152906040526040518082805190602001908083835b602083106135695780518252601f19909201916020918201910161354a565b51815160001960209485036101000a01908116901991909116179052604080519490920184900390932086528583019690965250929093016000208451611c22959194509201919050615807565b80600460008460405160200180807f6d657373616765735369676e6564000000000000000000000000000000000000815250600e0182600019166000191681526020019150506040516020818303038152906040526040518082805190602001908083835b6020831061363b5780518252601f19909201916020918201910161361c565b51815160209384036101000a60001901801990921691161790526040805192909401829003909120865285019590955292909201600020805460ff1916941515949094179093555050505050565b80600360008460405160200180807f7369676e61747572657300000000000000000000000000000000000000000000815250600a018260001916600019168152602001915050604051602081830303815290604052604051808280519060200190808383602083106135695780518252601f19909201916020918201910161354a565b806000808460405160200180807f6e756d4d657373616765735369676e656400000000000000000000000000000081525060110182600019166000191681526020019150506040516020818303038152906040526040518082805190602001908083835b6020831061378f5780518252601f199092019160209182019101613770565b51815160209384036101000a60001901801990921691161790526040805192909401829003909120865285019590955292909201600020939093555050505050565b7f80000000000000000000000000000000000000000000000000000000000000001790565b600080600080600080613807612d9c565b9550600160a060020a038616156138a1576138218761511f565b809550819650829750839850505050506138948460018860405160200180806000805160206158f08339815191528152506008019050604051602081830303815290604052604051808280519060200190808383602083106128b45780518252601f199092019160209182019101612895565b90506138a181878561515a565b50505050505050565b6138b2610f34565b156138bc57600080fd5b6138c588613409565b15156138d057600080fd5b600085116138dd57600080fd5b60008760028151811015156138ee57fe5b90602001906020020151118015613934575086600281518110151561390f57fe5b9060200190602002015187600181518110151561392857fe5b90602001906020020151115b801561396f575086600181518110151561394a57fe5b9060200190602002015187600081518110151561396357fe5b90602001906020020151115b151561397a57600080fd5b82600081518110151561398957fe5b906020019060200201518360018151811015156139a257fe5b60209081029091010151106139b657600080fd5b600160a060020a03821615156139cb57600080fd5b876002600060405160200180807f76616c696461746f72436f6e747261637400000000000000000000000000000081525060110190506040516020818303038152906040526040518082805190602001908083835b60208310613a3f5780518252601f199092019160209182019101613a20565b51815160209384036101000a60001901801990921691161790526040805192909401829003909120865285810196909652509283016000908120805473ffffffffffffffffffffffffffffffffffffffff1916600160a060020a039790971696909617909555505080517f6465706c6f7965644174426c6f636b0000000000000000000000000000000000818401528151600f818303018152602f90910191829052805143949384939182918401908083835b60208310613b115780518252601f199092019160209182019101613af2565b51815160209384036101000a6000190180199092169116179052604080519290940182900390912086528501959095529290920160009081209490945550508851899291508110613b5e57fe5b9060200190602002015160008060405160200180807f6461696c794c696d697400000000000000000000000000000000000000000000815250600a0190506040516020818303038152906040526040518082805190602001908083835b60208310613bda5780518252601f199092019160209182019101613bbb565b51815160209384036101000a6000190180199092169116179052604080519290940182900390912086528501959095529290920160002093909355505087518891506001908110613c2757fe5b9060200190602002015160008060405160200180807f6d6178506572547800000000000000000000000000000000000000000000000081525060080190506040516020818303038152906040526040518082805190602001908083835b60208310613ca35780518252601f199092019160209182019101613c84565b51815160209384036101000a6000190180199092169116179052604080519290940182900390912086528501959095529290920160002093909355505087518891506002908110613cf057fe5b9060200190602002015160008060405160200180807f6d696e506572547800000000000000000000000000000000000000000000000081525060080190506040516020818303038152906040526040518082805190602001908083835b60208310613d6c5780518252601f199092019160209182019101613d4d565b51815160209384036101000a6000190180199092169116179052604080519290940182900390912086528581019690965250928301600090812095909555505080517f6761735072696365000000000000000000000000000000000000000000000000818401528151600881830301815260289091019182905280518a949384939182918401908083835b60208310613e165780518252601f199092019160209182019101613df7565b51815160209384036101000a6000190180199092169116179052604080519290940182900390912086528581019690965250928301600090812095909555505080517f7265717569726564426c6f636b436f6e6669726d6174696f6e73000000000000818401528151601a818303018152603a90910191829052805189949384939182918401908083835b60208310613ec05780518252601f199092019160209182019101613ea1565b51815160209384036101000a6000190180199092169116179052604080519290940182900390912086528501959095529290920160009081209490945550508451859291508110613f0d57fe5b9060200190602002015160008060405160200180807f657865637574696f6e4461696c794c696d69740000000000000000000000000081525060130190506040516020818303038152906040526040518082805190602001908083835b60208310613f895780518252601f199092019160209182019101613f6a565b51815160209384036101000a6000190180199092169116179052604080519290940182900390912086528501959095529290920160002093909355505083518491506001908110613fd657fe5b9060200190602002015160008060405160200180807f657865637574696f6e4d6178506572547800000000000000000000000000000081525060110190506040516020818303038152906040526040518082805190602001908083835b602083106140525780518252601f199092019160209182019101614033565b51815160209384036101000a6000190180199092169116179052604080519290940182900390912086528581019690965250928301600090812095909555505080517f646563696d616c53686966740000000000000000000000000000000000000000818401528151600c818303018152602c90910191829052805185949384939182918401908083835b602083106140fc5780518252601f1990920191602091820191016140dd565b51815160209384036101000a6000190180199092169116179052604080519290940182900390912086528501959095529290920160002093909355506141459150839050614e9c565b61414e8461525f565b6040805186815290517f4fb76205cd57c896b21511d2114137d8e901b4ccd659e1a0f97d6306795264fb9181900360200190a16040805187815290517f52264b89e0fceafb26e79fd49ef8a366eb6297483bf4035b027f0c99a7ad512e9181900360200190a17fad4123ae17c414d9c6d2fec478b402e6b01856cc250fd01fbfd252fda0089d3c8760008151811015156141e457fe5b906020019060200201516040518082815260200191505060405180910390a17f9bebf928b90863f24cc31f726a3a7545efd409f1dcf552301b1ee3710da70d3b83600081518110151561423357fe5b906020019060200201516040518082815260200191505060405180910390a15050505050505050565b60016004600060405160200180807f6973496e697469616c697a656400000000000000000000000000000000000000815250600d0190506040516020818303038152906040526040518082805190602001908083835b602083106142d15780518252601f1990920191602091820191016142b2565b51815160209384036101000a60001901801990921691161790526040805192909401829003909120865285019590955292909201600020805460ff191694151594909417909355505050565b600160a060020a038216151561433b57614336816152e6565b614345565b6143458282615351565b5050565b8181018281101561435657fe5b92915050565b600080600080606061436c612d9c565b925060405160200180806000805160206158f083398151915281525060080190506040516020818303038152906040526040518082805190602001908083835b602083106143cb5780518252601f1990920191602091820191016143ac565b5181516020939093036101000a6000190180199091169216919091179052604051920182900390912089149250614425915050577fffd6619600000000000000000000000000000000000000000000000000000000614447565b7f94da17cd000000000000000000000000000000000000000000000000000000005b60408051600481526024810190915260208082018051600160e060020a03167bffffffffffffffffffffffffffffffffffffffffffffffffffffffff19851617815282519395509193509160009182875af2600051945080801561026e5750939695505050505050565b80600460008460405160200180807f61666669726d6174696f6e735369676e6564000000000000000000000000000081525060120182600019166000191681526020019150506040516020818303038152906040526040518082805190602001908083836020831061363b5780518252601f19909201916020918201910161361c565b806000808460405160200180807f6e756d41666669726d6174696f6e735369676e6564000000000000000000000081525060150182600019166000191681526020019150506040516020818303038152906040526040518082805190602001908083836020831061378f5780518252601f199092019160209182019101613770565b6000806000806145db6145c761110c565b6145d688611d45611d4061110c565b6153ef565b6145f66145e6612d29565b8790600a0a63ffffffff61546916565b9250614600612d9c565b9150600160a060020a03821615614694576146748360008460405160200180806000805160206158d0833981519152815250600b019050604051602081830303815290604052604051808280519060200190808383602083106128b45780518252601f199092019160209182019101612895565b9050614681818387615492565b614691838263ffffffff614a3c16565b92505b61469c610bf3565b600160a060020a03166340c10f1988856040518363ffffffff1660e060020a0281526004018083600160a060020a0316600160a060020a0316815260200182815260200192505050602060405180830381600087803b1580156146fe57600080fd5b505af1158015614712573d6000803e3d6000fd5b505050506040513d602081101561472857600080fd5b5051979650505050505050565b600080614741836148b5565b9092509050600160a060020a03821615801561475b575080155b151561476657600080fd5b6147756127c385611d456124e2565b614780858585615597565b60408051600160a060020a03871681526020810186905280820185905290517f159c0773f543f1e17d5e78327702770947055eb4e871b529bbc78bc9fde456929181900360600190a15050505050565b806000808460405160200180807f746f74616c5370656e74506572446179000000000000000000000000000000008152506010018281526020019150506040516020818303038152906040526040518082805190602001908083836020831061378f5780518252601f199092019160209182019101613770565b82600160a060020a03166342966c68826040518263ffffffff1660e060020a02815260040180828152602001915050600060405180830381600087803b15801561489357600080fd5b505af11580156148a7573d6000803e3d6000fd5b50505050611c22828261568d565b600080600260008460405160200180807f74784f75744f664c696d6974526563697069656e74000000000000000000000081525060150182600019166000191681526020019150506040516020818303038152906040526040518082805190602001908083835b6020831061493b5780518252601f19909201916020918201910161491c565b51815160209384036101000a600019018019909216911617905260408051929094018290039091208652858101969096525092830160009081205484517f74784f75744f664c696d697456616c75650000000000000000000000000000008188015260318082018b9052865180830390910181526051909101958690528051600160a060020a0390921698509195869592945091925082918401908083835b602083106149f95780518252601f1990920191602091820191016149da565b51815160209384036101000a6000190180199092169116179052604080519290940182900390912086528501959095529290920160002054949694955050505050565b600082821115614a4857fe5b50900390565b8060008060405160200180807f6f75744f664c696d6974416d6f756e740000000000000000000000000000000081525060100190506040516020818303038152906040526040518082805190602001908083836020831061260b5780518252601f1990920191602091820191016125ec565b816000808360405160200180807f74784f75744f664c696d697456616c756500000000000000000000000000000081525060110182600019166000191681526020019150506040516020818303038152906040526040518082805190602001908083836020831061378f5780518252601f199092019160209182019101613770565b6001600460008360405160200180807f6669786564417373657473000000000000000000000000000000000000000000815250600b0182600019166000191681526020019150506040516020818303038152906040526040518082805190602001908083835b60208310614bc75780518252601f199092019160209182019101614ba8565b51815160209384036101000a60001901801990921691161790526040805192909401829003909120865285019590955292909201600020805460ff19169415159490941790935550505050565b60408051602481018690528415156044820152606480820184905282518083039091018152608490910190915260208181018051600160e060020a03167f9862f26f000000000000000000000000000000000000000000000000000000001781528251600093849390929091849182895af2600051925080801561026e575091979650505050505050565b614caf8a8a8a8a8a8a8a886138aa565b614cb883613409565b1515614cc357600080fd5b826002600060405160200180807f6665654d616e61676572436f6e7472616374000000000000000000000000000081525060120190506040516020818303038152906040526040518082805190602001908083835b60208310614d375780518252601f199092019160209182019101614d18565b51815160209384036101000a600019018019909216911617905260408051929094018290039091208652850195909552929092016000908120805473ffffffffffffffffffffffffffffffffffffffff1916600160a060020a03969096169590951790945550508351614e179286925085918110614db157fe5b9060200190602002015160405160200180806000805160206158f0833981519152815250600801905060405160208183030381529060405260405180828051906020019080838360208310610d375780518252601f199092019160209182019101610d18565b614e9083836001815181101515614e2a57fe5b9060200190602002015160405160200180806000805160206158d0833981519152815250600b01905060405160208183030381529060405260405180828051906020019080838360208310610d375780518252601f199092019160209182019101610d18565b50505050505050505050565b7f8be0079c531659141344cd1fd0a4f28419497f9722a3daafe3b4186f6b6457e0614ec5611e63565b60408051600160a060020a03928316815291841660208301528051918290030190a1806002600060405160200180807f6f776e65720000000000000000000000000000000000000000000000000000008152506005019050604051602081830303815290604052604051808280519060200190808383602083106115865780518252601f199092019160209182019101611567565b604080518082018252601a81527f19457468657265756d205369676e6564204d6573736167653a0a000000000000602080830191825283518085018552600381527f313034000000000000000000000000000000000000000000000000000000000081830152935183516000959385938593899391019182918083835b60208310614ff65780518252601f199092019160209182019101614fd7565b51815160209384036101000a600019018019909216911617905286519190930192860191508083835b6020831061503e5780518252601f19909201916020918201910161501f565b51815160209384036101000a600019018019909216911617905285519190930192850191508083835b602083106150865780518252601f199092019160209182019101615067565b6001836020036101000a03801982511681845116808217855250505050505090500193505050506040516020818303038152906040526040518082805190602001908083835b602083106150eb5780518252601f1990920191602091820191016150cc565b5181516020939093036101000a60001901801990911692169190911790526040519201829003909120979650505050505050565b60008060008061512e85613411565b151561513957600080fd5b50505050601481015160348201516054830151606890930151919390929190565b6040805160248082018690528251808303909101815260449091018252602081018051600160e060020a03167f59d784640000000000000000000000000000000000000000000000000000000017815291518151600160a060020a03861693829180838360005b838110156151d95781810151838201526020016151c1565b50505050905090810190601f1680156152065780820380516001836020036101000a031916815260200191505b50915050600060405180830381855af4915050151561522457600080fd5b60408051848152905182917f858abdcd5efcaebb936e8e8516f0cfe9a0ef5157ff99d16cdabb6db625be90d0919081900360200190a2505050565b61526881613409565b151561527357600080fd5b806002600060405160200180807f657263363737746f6b656e000000000000000000000000000000000000000000815250600b019050604051602081830303815290604052604051808280519060200190808383602083106115865780518252601f199092019160209182019101611567565b604051303190600160a060020a0383169082156108fc029083906000818181858888f19350505050151561434557808261531e615885565b600160a060020a039091168152604051908190036020019082f08015801561534a573d6000803e3d6000fd5b5050505050565b604080517f70a0823100000000000000000000000000000000000000000000000000000000815230600482015290518391600091600160a060020a038416916370a0823191602480830192602092919082900301818787803b1580156153b657600080fd5b505af11580156153ca573d6000803e3d6000fd5b505050506040513d60208110156153e057600080fd5b505190506133fe84848361576d565b806000808460405160200180807f746f74616c4578656375746564506572446179000000000000000000000000008152506013018281526020019150506040516020818303038152906040526040518082805190602001908083836020831061378f5780518252601f199092019160209182019101613770565b600082151561547a57506000614356565b5081810281838281151561548a57fe5b041461435657fe5b6040805160248082018690528251808303909101815260449091018252602081018051600160e060020a03167f054d46ec0000000000000000000000000000000000000000000000000000000017815291518151600160a060020a03861693829180838360005b838110156155115781810151838201526020016154f9565b50505050905090810190601f16801561553e5780820380516001836020036101000a031916815260200191505b50915050600060405180830381855af4915050151561555c57600080fd5b60408051848152905182917fa52d3c9cbc541772e4edd92e2e4e2a3865ab73630f25deed8a6c8de41ff0f65c919081900360200190a2505050565b82600260008360405160200180807f74784f75744f664c696d6974526563697069656e74000000000000000000000081525060150182600019166000191681526020019150506040516020818303038152906040526040518082805190602001908083835b6020831061561b5780518252601f1990920191602091820191016155fc565b51815160209384036101000a60001901801990921691161790526040805192909401829003909120865285019590955292909201600020805473ffffffffffffffffffffffffffffffffffffffff1916600160a060020a03959095169490941790935550611c22915083905082614ac0565b80600080615699612d9c565b9150600160a060020a038216156157225761570d8360008460405160200180806000805160206158f08339815191528152506008019050604051602081830303815290604052604051808280519060200190808383602083106128b45780518252601f199092019160209182019101612895565b905061571f838263ffffffff614a3c16565b92505b60408051600160a060020a03871681526020810185905281517f127650bcfb0ba017401abe4931453a405140a8fd36fece67bae2db174d3fdd63929181900390910190a15050505050565b60408051600160a060020a0384166024820152604480820184905282518083039091018152606490910190915260208181018051600160e060020a03167fa9059cbb000000000000000000000000000000000000000000000000000000001781528251606093600093909290918491828a5af1600051935083925080801561026e5750506000835111156120625781151561206257600080fd5b828054600181600116156101000203166002900490600052602060002090601f016020900481019282601f1061584857805160ff1916838001178555615875565b82800160010185558215615875579182015b8281111561587557825182559160200191906001019061585a565b50615881929150615894565b5090565b6040516021806158af83390190565b610caf91905b80821115615881576000815560010161589a5600608060405260405160208060218339810160405251600160a060020a038116ff00666f726569676e2d666565000000000000000000000000000000000000000000686f6d652d666565000000000000000000000000000000000000000000000000a165627a7a72305820e28ca93d9b7cd1863a55e1f95c135531ab6e21a889ebf8c182678a0b1e21eb870029",
  "source": "pragma solidity 0.4.24;\n\nimport \"../../libraries/Message.sol\";\nimport \"../../upgradeability/EternalStorage.sol\";\nimport \"../../interfaces/IBurnableMintableERC677Token.sol\";\nimport \"../BasicHomeBridge.sol\";\nimport \"../OverdrawManagement.sol\";\nimport \"./RewardableHomeBridgeErcToErc.sol\";\nimport \"../ERC677BridgeForBurnableMintableToken.sol\";\n\ncontract HomeBridgeErcToErc is\n    EternalStorage,\n    BasicHomeBridge,\n    ERC677BridgeForBurnableMintableToken,\n    OverdrawManagement,\n    RewardableHomeBridgeErcToErc\n{\n    event AmountLimitExceeded(address recipient, uint256 value, bytes32 transactionHash);\n\n    function initialize(\n        address _validatorContract,\n        uint256[] _dailyLimitMaxPerTxMinPerTxArray, // [ 0 = _dailyLimit, 1 = _maxPerTx, 2 = _minPerTx ]\n        uint256 _homeGasPrice,\n        uint256 _requiredBlockConfirmations,\n        address _erc677token,\n        uint256[] _foreignDailyLimitForeignMaxPerTxArray, // [ 0 = _foreignDailyLimit, 1 = _foreignMaxPerTx ]\n        address _owner,\n        uint256 _decimalShift\n    ) external returns (bool) {\n        _initialize(\n            _validatorContract,\n            _dailyLimitMaxPerTxMinPerTxArray,\n            _homeGasPrice,\n            _requiredBlockConfirmations,\n            _erc677token,\n            _foreignDailyLimitForeignMaxPerTxArray,\n            _owner,\n            _decimalShift\n        );\n        setInitialize();\n\n        return isInitialized();\n    }\n\n    function rewardableInitialize(\n        address _validatorContract,\n        uint256[] _dailyLimitMaxPerTxMinPerTxArray, // [ 0 = _dailyLimit, 1 = _maxPerTx, 2 = _minPerTx ]\n        uint256 _homeGasPrice,\n        uint256 _requiredBlockConfirmations,\n        address _erc677token,\n        uint256[] _foreignDailyLimitForeignMaxPerTxArray, // [ 0 = _foreignDailyLimit, 1 = _foreignMaxPerTx ]\n        address _owner,\n        address _feeManager,\n        uint256[] _homeFeeForeignFeeArray, // [ 0 = _homeFee, 1 = _foreignFee ]\n        uint256 _decimalShift\n    ) external returns (bool) {\n        _rewardableInitialize(\n            _validatorContract,\n            _dailyLimitMaxPerTxMinPerTxArray,\n            _homeGasPrice,\n            _requiredBlockConfirmations,\n            _erc677token,\n            _foreignDailyLimitForeignMaxPerTxArray,\n            _owner,\n            _feeManager,\n            _homeFeeForeignFeeArray,\n            _decimalShift\n        );\n        setInitialize();\n\n        return isInitialized();\n    }\n\n    function _rewardableInitialize(\n        address _validatorContract,\n        uint256[] _dailyLimitMaxPerTxMinPerTxArray, // [ 0 = _dailyLimit, 1 = _maxPerTx, 2 = _minPerTx ]\n        uint256 _homeGasPrice,\n        uint256 _requiredBlockConfirmations,\n        address _erc677token,\n        uint256[] _foreignDailyLimitForeignMaxPerTxArray, // [ 0 = _foreignDailyLimit, 1 = _foreignMaxPerTx ]\n        address _owner,\n        address _feeManager,\n        uint256[] _homeFeeForeignFeeArray, // [ 0 = _homeFee, 1 = _foreignFee ]\n        uint256 _decimalShift\n    ) internal {\n        _initialize(\n            _validatorContract,\n            _dailyLimitMaxPerTxMinPerTxArray,\n            _homeGasPrice,\n            _requiredBlockConfirmations,\n            _erc677token,\n            _foreignDailyLimitForeignMaxPerTxArray,\n            _owner,\n            _decimalShift\n        );\n        require(AddressUtils.isContract(_feeManager));\n        addressStorage[FEE_MANAGER_CONTRACT] = _feeManager;\n        _setFee(_feeManager, _homeFeeForeignFeeArray[0], HOME_FEE);\n        _setFee(_feeManager, _homeFeeForeignFeeArray[1], FOREIGN_FEE);\n    }\n\n    function _initialize(\n        address _validatorContract,\n        uint256[] _dailyLimitMaxPerTxMinPerTxArray, // [ 0 = _dailyLimit, 1 = _maxPerTx, 2 = _minPerTx ]\n        uint256 _homeGasPrice,\n        uint256 _requiredBlockConfirmations,\n        address _erc677token,\n        uint256[] _foreignDailyLimitForeignMaxPerTxArray, // [ 0 = _foreignDailyLimit, 1 = _foreignMaxPerTx ]\n        address _owner,\n        uint256 _decimalShift\n    ) internal {\n        require(!isInitialized());\n        require(AddressUtils.isContract(_validatorContract));\n        require(_requiredBlockConfirmations > 0);\n        require(\n            _dailyLimitMaxPerTxMinPerTxArray[2] > 0 && // _minPerTx > 0\n                _dailyLimitMaxPerTxMinPerTxArray[1] > _dailyLimitMaxPerTxMinPerTxArray[2] && // _maxPerTx > _minPerTx\n                _dailyLimitMaxPerTxMinPerTxArray[0] > _dailyLimitMaxPerTxMinPerTxArray[1] // _dailyLimit > _maxPerTx\n        );\n        require(_foreignDailyLimitForeignMaxPerTxArray[1] < _foreignDailyLimitForeignMaxPerTxArray[0]); // _foreignMaxPerTx < _foreignDailyLimit\n        require(_owner != address(0));\n        addressStorage[VALIDATOR_CONTRACT] = _validatorContract;\n        uintStorage[DEPLOYED_AT_BLOCK] = block.number;\n        uintStorage[DAILY_LIMIT] = _dailyLimitMaxPerTxMinPerTxArray[0];\n        uintStorage[MAX_PER_TX] = _dailyLimitMaxPerTxMinPerTxArray[1];\n        uintStorage[MIN_PER_TX] = _dailyLimitMaxPerTxMinPerTxArray[2];\n        uintStorage[GAS_PRICE] = _homeGasPrice;\n        uintStorage[REQUIRED_BLOCK_CONFIRMATIONS] = _requiredBlockConfirmations;\n        uintStorage[EXECUTION_DAILY_LIMIT] = _foreignDailyLimitForeignMaxPerTxArray[0];\n        uintStorage[EXECUTION_MAX_PER_TX] = _foreignDailyLimitForeignMaxPerTxArray[1];\n        uintStorage[DECIMAL_SHIFT] = _decimalShift;\n        setOwner(_owner);\n        setErc677token(_erc677token);\n\n        emit RequiredBlockConfirmationChanged(_requiredBlockConfirmations);\n        emit GasPriceChanged(_homeGasPrice);\n        emit DailyLimitChanged(_dailyLimitMaxPerTxMinPerTxArray[0]);\n        emit ExecutionDailyLimitChanged(_foreignDailyLimitForeignMaxPerTxArray[0]);\n    }\n\n    function claimTokensFromErc677(address _token, address _to) external onlyIfUpgradeabilityOwner {\n        IBurnableMintableERC677Token(erc677token()).claimTokens(_token, _to);\n    }\n\n    function getBridgeMode() external pure returns (bytes4 _data) {\n        return bytes4(keccak256(abi.encodePacked(\"erc-to-erc-core\")));\n    }\n\n    function onExecuteAffirmation(address _recipient, uint256 _value, bytes32 txHash) internal returns (bool) {\n        setTotalExecutedPerDay(getCurrentDay(), totalExecutedPerDay(getCurrentDay()).add(_value));\n        uint256 valueToMint = _value.mul(10 ** decimalShift());\n        address feeManager = feeManagerContract();\n        if (feeManager != address(0)) {\n            uint256 fee = calculateFee(valueToMint, false, feeManager, FOREIGN_FEE);\n            distributeFeeFromAffirmation(fee, feeManager, txHash);\n            valueToMint = valueToMint.sub(fee);\n        }\n        return IBurnableMintableERC677Token(erc677token()).mint(_recipient, valueToMint);\n    }\n\n    function fireEventOnTokenTransfer(address _from, uint256 _value) internal {\n        uint256 valueToTransfer = _value;\n        address feeManager = feeManagerContract();\n        if (feeManager != address(0)) {\n            uint256 fee = calculateFee(valueToTransfer, false, feeManager, HOME_FEE);\n            valueToTransfer = valueToTransfer.sub(fee);\n        }\n        emit UserRequestForSignature(_from, valueToTransfer);\n    }\n\n    function onSignaturesCollected(bytes _message) internal {\n        address feeManager = feeManagerContract();\n        if (feeManager != address(0)) {\n            address recipient;\n            uint256 amount;\n            bytes32 txHash;\n            address contractAddress;\n            (recipient, amount, txHash, contractAddress) = Message.parseMessage(_message);\n            uint256 fee = calculateFee(amount, true, feeManager, HOME_FEE);\n            distributeFeeFromSignatures(fee, feeManager, txHash);\n        }\n    }\n\n    function onFailedAffirmation(address _recipient, uint256 _value, bytes32 _txHash) internal {\n        address recipient;\n        uint256 value;\n        (recipient, value) = txAboveLimits(_txHash);\n        require(recipient == address(0) && value == 0);\n        setOutOfLimitAmount(outOfLimitAmount().add(_value));\n        setTxAboveLimits(_recipient, _value, _txHash);\n        emit AmountLimitExceeded(_recipient, _value, _txHash);\n    }\n}\n",
  "sourcePath": "/mono/contracts/contracts/upgradeable_contracts/erc20_to_erc20/HomeBridgeErcToErc.sol",
  "compiler": {
    "name": "solc",
    "version": "0.4.24+commit.e67f0147.Emscripten.clang"
  },
  "schemaVersion": "3.0.11",
  "updatedAt": "2019-09-03T09:43:49.682Z",
  "devdoc": {
    "methods": {
      "owner()": {
        "details": "Tells the address of the owner",
        "return": "the address of the owner"
      },
      "transferOwnership(address)": {
        "details": "Allows the current owner to transfer control of the contract to a newOwner.",
        "params": {
          "newOwner": "the address to transfer ownership to."
        }
      }
    }
  },
  "userdoc": {
    "methods": {}
  }
}