{
  "contractName": "HomeBridgeNativeToErc",
  "abi": [
    {
      "constant": true,
      "inputs": [
        {
          "name": "_message",
          "type": "bytes32"
        }
      ],
      "name": "numMessagesSigned",
      "outputs": [
        {
          "name": "",
          "type": "uint256"
        }
      ],
      "payable": false,
      "stateMutability": "view",
      "type": "function"
    },
    {
      "constant": true,
      "inputs": [
        {
          "name": "_hash",
          "type": "bytes32"
        },
        {
          "name": "_index",
          "type": "uint256"
        }
      ],
      "name": "signature",
      "outputs": [
        {
          "name": "",
          "type": "bytes"
        }
      ],
      "payable": false,
      "stateMutability": "view",
      "type": "function"
    },
    {
      "constant": false,
      "inputs": [
        {
          "name": "_fee",
          "type": "uint256"
        }
      ],
      "name": "setForeignFee",
      "outputs": [],
      "payable": false,
      "stateMutability": "nonpayable",
      "type": "function"
    },
    {
      "constant": true,
      "inputs": [
        {
          "name": "_day",
          "type": "uint256"
        }
      ],
      "name": "totalSpentPerDay",
      "outputs": [
        {
          "name": "",
          "type": "uint256"
        }
      ],
      "payable": false,
      "stateMutability": "view",
      "type": "function"
    },
    {
      "constant": false,
      "inputs": [
        {
          "name": "_fee",
          "type": "uint256"
        }
      ],
      "name": "setHomeFee",
      "outputs": [],
      "payable": false,
      "stateMutability": "nonpayable",
      "type": "function"
    },
    {
      "constant": true,
      "inputs": [],
      "name": "isInitialized",
      "outputs": [
        {
          "name": "",
          "type": "bool"
        }
      ],
      "payable": false,
      "stateMutability": "view",
      "type": "function"
    },
    {
      "constant": false,
      "inputs": [
        {
          "name": "_dailyLimit",
          "type": "uint256"
        }
      ],
      "name": "setExecutionDailyLimit",
      "outputs": [],
      "payable": false,
      "stateMutability": "nonpayable",
      "type": "function"
    },
    {
      "constant": true,
      "inputs": [],
      "name": "getCurrentDay",
      "outputs": [
        {
          "name": "",
          "type": "uint256"
        }
      ],
      "payable": false,
      "stateMutability": "view",
      "type": "function"
    },
    {
      "constant": true,
      "inputs": [],
      "name": "requiredBlockConfirmations",
      "outputs": [
        {
          "name": "",
          "type": "uint256"
        }
      ],
      "payable": false,
      "stateMutability": "view",
      "type": "function"
    },
    {
      "constant": true,
      "inputs": [],
      "name": "requiredMessageLength",
      "outputs": [
        {
          "name": "",
          "type": "uint256"
        }
      ],
      "payable": false,
      "stateMutability": "pure",
      "type": "function"
    },
    {
      "constant": true,
      "inputs": [],
      "name": "executionDailyLimit",
      "outputs": [
        {
          "name": "",
          "type": "uint256"
        }
      ],
      "payable": false,
      "stateMutability": "view",
      "type": "function"
    },
    {
      "constant": true,
      "inputs": [
        {
          "name": "_hash",
          "type": "bytes32"
        }
      ],
      "name": "message",
      "outputs": [
        {
          "name": "",
          "type": "bytes"
        }
      ],
      "payable": false,
      "stateMutability": "view",
      "type": "function"
    },
    {
      "constant": true,
      "inputs": [
        {
          "name": "_day",
          "type": "uint256"
        }
      ],
      "name": "totalExecutedPerDay",
      "outputs": [
        {
          "name": "",
          "type": "uint256"
        }
      ],
      "payable": false,
      "stateMutability": "view",
      "type": "function"
    },
    {
      "constant": false,
      "inputs": [
        {
          "name": "_feeManager",
          "type": "address"
        }
      ],
      "name": "setFeeManagerContract",
      "outputs": [],
      "payable": false,
      "stateMutability": "nonpayable",
      "type": "function"
    },
    {
      "constant": false,
      "inputs": [
        {
          "name": "signature",
          "type": "bytes"
        },
        {
          "name": "message",
          "type": "bytes"
        }
      ],
      "name": "submitSignature",
      "outputs": [],
      "payable": false,
      "stateMutability": "nonpayable",
      "type": "function"
    },
    {
      "constant": true,
      "inputs": [],
      "name": "dailyLimit",
      "outputs": [
        {
          "name": "",
          "type": "uint256"
        }
      ],
      "payable": false,
      "stateMutability": "view",
      "type": "function"
    },
    {
      "constant": false,
      "inputs": [
        {
          "name": "_token",
          "type": "address"
        },
        {
          "name": "_to",
          "type": "address"
        }
      ],
      "name": "claimTokens",
      "outputs": [],
      "payable": false,
      "stateMutability": "nonpayable",
      "type": "function"
    },
    {
      "constant": true,
      "inputs": [
        {
          "name": "_withdrawal",
          "type": "bytes32"
        }
      ],
      "name": "numAffirmationsSigned",
      "outputs": [
        {
          "name": "",
          "type": "uint256"
        }
      ],
      "payable": false,
      "stateMutability": "view",
      "type": "function"
    },
    {
      "constant": true,
      "inputs": [
        {
          "name": "_withdrawal",
          "type": "bytes32"
        }
      ],
      "name": "affirmationsSigned",
      "outputs": [
        {
          "name": "",
          "type": "bool"
        }
      ],
      "payable": false,
      "stateMutability": "view",
      "type": "function"
    },
    {
      "constant": true,
      "inputs": [
        {
          "name": "_amount",
          "type": "uint256"
        }
      ],
      "name": "withinExecutionLimit",
      "outputs": [
        {
          "name": "",
          "type": "bool"
        }
      ],
      "payable": false,
      "stateMutability": "view",
      "type": "function"
    },
    {
      "constant": true,
      "inputs": [],
      "name": "executionMaxPerTx",
      "outputs": [
        {
          "name": "",
          "type": "uint256"
        }
      ],
      "payable": false,
      "stateMutability": "view",
      "type": "function"
    },
    {
      "constant": true,
      "inputs": [],
      "name": "requiredSignatures",
      "outputs": [
        {
          "name": "",
          "type": "uint256"
        }
      ],
      "payable": false,
      "stateMutability": "view",
      "type": "function"
    },
    {
      "constant": true,
      "inputs": [],
      "name": "owner",
      "outputs": [
        {
          "name": "",
          "type": "address"
        }
      ],
      "payable": false,
      "stateMutability": "view",
      "type": "function"
    },
    {
      "constant": true,
      "inputs": [
        {
          "name": "_message",
          "type": "bytes32"
        }
      ],
      "name": "messagesSigned",
      "outputs": [
        {
          "name": "",
          "type": "bool"
        }
      ],
      "payable": false,
      "stateMutability": "view",
      "type": "function"
    },
    {
      "constant": true,
      "inputs": [],
      "name": "getHomeFee",
      "outputs": [
        {
          "name": "",
          "type": "uint256"
        }
      ],
      "payable": false,
      "stateMutability": "view",
      "type": "function"
    },
    {
      "constant": true,
      "inputs": [],
      "name": "validatorContract",
      "outputs": [
        {
          "name": "",
          "type": "address"
        }
      ],
      "payable": false,
      "stateMutability": "view",
      "type": "function"
    },
    {
      "constant": false,
      "inputs": [
        {
          "name": "recipient",
          "type": "address"
        },
        {
          "name": "value",
          "type": "uint256"
        },
        {
          "name": "transactionHash",
          "type": "bytes32"
        }
      ],
      "name": "executeAffirmation",
      "outputs": [],
      "payable": false,
      "stateMutability": "nonpayable",
      "type": "function"
    },
    {
      "constant": true,
      "inputs": [],
      "name": "deployedAtBlock",
      "outputs": [
        {
          "name": "",
          "type": "uint256"
        }
      ],
      "payable": false,
      "stateMutability": "view",
      "type": "function"
    },
    {
      "constant": true,
      "inputs": [],
      "name": "getBridgeInterfacesVersion",
      "outputs": [
        {
          "name": "major",
          "type": "uint64"
        },
        {
          "name": "minor",
          "type": "uint64"
        },
        {
          "name": "patch",
          "type": "uint64"
        }
      ],
      "payable": false,
      "stateMutability": "pure",
      "type": "function"
    },
    {
      "constant": false,
      "inputs": [
        {
          "name": "_minPerTx",
          "type": "uint256"
        }
      ],
      "name": "setMinPerTx",
      "outputs": [],
      "payable": false,
      "stateMutability": "nonpayable",
      "type": "function"
    },
    {
      "constant": false,
      "inputs": [
        {
          "name": "_blockConfirmations",
          "type": "uint256"
        }
      ],
      "name": "setRequiredBlockConfirmations",
      "outputs": [],
      "payable": false,
      "stateMutability": "nonpayable",
      "type": "function"
    },
    {
      "constant": false,
      "inputs": [
        {
          "name": "_dailyLimit",
          "type": "uint256"
        }
      ],
      "name": "setDailyLimit",
      "outputs": [],
      "payable": false,
      "stateMutability": "nonpayable",
      "type": "function"
    },
    {
      "constant": false,
      "inputs": [
        {
          "name": "_gasPrice",
          "type": "uint256"
        }
      ],
      "name": "setGasPrice",
      "outputs": [],
      "payable": false,
      "stateMutability": "nonpayable",
      "type": "function"
    },
    {
      "constant": false,
      "inputs": [
        {
          "name": "_maxPerTx",
          "type": "uint256"
        }
      ],
      "name": "setMaxPerTx",
      "outputs": [],
      "payable": false,
      "stateMutability": "nonpayable",
      "type": "function"
    },
    {
      "constant": true,
      "inputs": [],
      "name": "feeManagerContract",
      "outputs": [
        {
          "name": "",
          "type": "address"
        }
      ],
      "payable": false,
      "stateMutability": "view",
      "type": "function"
    },
    {
      "constant": true,
      "inputs": [],
      "name": "upgradeabilityAdmin",
      "outputs": [
        {
          "name": "",
          "type": "address"
        }
      ],
      "payable": false,
      "stateMutability": "view",
      "type": "function"
    },
    {
      "constant": true,
      "inputs": [],
      "name": "minPerTx",
      "outputs": [
        {
          "name": "",
          "type": "uint256"
        }
      ],
      "payable": false,
      "stateMutability": "view",
      "type": "function"
    },
    {
      "constant": true,
      "inputs": [
        {
          "name": "_amount",
          "type": "uint256"
        }
      ],
      "name": "withinLimit",
      "outputs": [
        {
          "name": "",
          "type": "bool"
        }
      ],
      "payable": false,
      "stateMutability": "view",
      "type": "function"
    },
    {
      "constant": false,
      "inputs": [
        {
          "name": "_maxPerTx",
          "type": "uint256"
        }
      ],
      "name": "setExecutionMaxPerTx",
      "outputs": [],
      "payable": false,
      "stateMutability": "nonpayable",
      "type": "function"
    },
    {
      "constant": true,
      "inputs": [],
      "name": "getFeeManagerMode",
      "outputs": [
        {
          "name": "",
          "type": "bytes4"
        }
      ],
      "payable": false,
      "stateMutability": "view",
      "type": "function"
    },
    {
      "constant": false,
      "inputs": [
        {
          "name": "newOwner",
          "type": "address"
        }
      ],
      "name": "transferOwnership",
      "outputs": [],
      "payable": false,
      "stateMutability": "nonpayable",
      "type": "function"
    },
    {
      "constant": true,
      "inputs": [],
      "name": "maxPerTx",
      "outputs": [
        {
          "name": "",
          "type": "uint256"
        }
      ],
      "payable": false,
      "stateMutability": "view",
      "type": "function"
    },
    {
      "constant": true,
      "inputs": [],
      "name": "gasPrice",
      "outputs": [
        {
          "name": "",
          "type": "uint256"
        }
      ],
      "payable": false,
      "stateMutability": "view",
      "type": "function"
    },
    {
      "constant": true,
      "inputs": [
        {
          "name": "_number",
          "type": "uint256"
        }
      ],
      "name": "isAlreadyProcessed",
      "outputs": [
        {
          "name": "",
          "type": "bool"
        }
      ],
      "payable": false,
      "stateMutability": "pure",
      "type": "function"
    },
    {
      "constant": true,
      "inputs": [],
      "name": "getForeignFee",
      "outputs": [
        {
          "name": "",
          "type": "uint256"
        }
      ],
      "payable": false,
      "stateMutability": "view",
      "type": "function"
    },
    {
      "payable": true,
      "stateMutability": "payable",
      "type": "fallback"
    },
    {
      "anonymous": false,
      "inputs": [
        {
          "indexed": false,
          "name": "feeAmount",
          "type": "uint256"
        },
        {
          "indexed": true,
          "name": "transactionHash",
          "type": "bytes32"
        }
      ],
      "name": "FeeDistributedFromAffirmation",
      "type": "event"
    },
    {
      "anonymous": false,
      "inputs": [
        {
          "indexed": false,
          "name": "feeAmount",
          "type": "uint256"
        },
        {
          "indexed": true,
          "name": "transactionHash",
          "type": "bytes32"
        }
      ],
      "name": "FeeDistributedFromSignatures",
      "type": "event"
    },
    {
      "anonymous": false,
      "inputs": [
        {
          "indexed": false,
          "name": "recipient",
          "type": "address"
        },
        {
          "indexed": false,
          "name": "value",
          "type": "uint256"
        }
      ],
      "name": "UserRequestForSignature",
      "type": "event"
    },
    {
      "anonymous": false,
      "inputs": [
        {
          "indexed": false,
          "name": "recipient",
          "type": "address"
        },
        {
          "indexed": false,
          "name": "value",
          "type": "uint256"
        },
        {
          "indexed": false,
          "name": "transactionHash",
          "type": "bytes32"
        }
      ],
      "name": "AffirmationCompleted",
      "type": "event"
    },
    {
      "anonymous": false,
      "inputs": [
        {
          "indexed": true,
          "name": "signer",
          "type": "address"
        },
        {
          "indexed": false,
          "name": "messageHash",
          "type": "bytes32"
        }
      ],
      "name": "SignedForUserRequest",
      "type": "event"
    },
    {
      "anonymous": false,
      "inputs": [
        {
          "indexed": true,
          "name": "signer",
          "type": "address"
        },
        {
          "indexed": false,
          "name": "transactionHash",
          "type": "bytes32"
        }
      ],
      "name": "SignedForAffirmation",
      "type": "event"
    },
    {
      "anonymous": false,
      "inputs": [
        {
          "indexed": false,
          "name": "authorityResponsibleForRelay",
          "type": "address"
        },
        {
          "indexed": false,
          "name": "messageHash",
          "type": "bytes32"
        },
        {
          "indexed": false,
          "name": "NumberOfCollectedSignatures",
          "type": "uint256"
        }
      ],
      "name": "CollectedSignatures",
      "type": "event"
    },
    {
      "anonymous": false,
      "inputs": [
        {
          "indexed": false,
          "name": "gasPrice",
          "type": "uint256"
        }
      ],
      "name": "GasPriceChanged",
      "type": "event"
    },
    {
      "anonymous": false,
      "inputs": [
        {
          "indexed": false,
          "name": "requiredBlockConfirmations",
          "type": "uint256"
        }
      ],
      "name": "RequiredBlockConfirmationChanged",
      "type": "event"
    },
    {
      "anonymous": false,
      "inputs": [
        {
          "indexed": false,
          "name": "newLimit",
          "type": "uint256"
        }
      ],
      "name": "DailyLimitChanged",
      "type": "event"
    },
    {
      "anonymous": false,
      "inputs": [
        {
          "indexed": false,
          "name": "newLimit",
          "type": "uint256"
        }
      ],
      "name": "ExecutionDailyLimitChanged",
      "type": "event"
    },
    {
      "anonymous": false,
      "inputs": [
        {
          "indexed": false,
          "name": "previousOwner",
          "type": "address"
        },
        {
          "indexed": false,
          "name": "newOwner",
          "type": "address"
        }
      ],
      "name": "OwnershipTransferred",
      "type": "event"
    },
    {
      "constant": false,
      "inputs": [
        {
          "name": "_validatorContract",
          "type": "address"
        },
        {
          "name": "_dailyLimit",
          "type": "uint256"
        },
        {
          "name": "_maxPerTx",
          "type": "uint256"
        },
        {
          "name": "_minPerTx",
          "type": "uint256"
        },
        {
          "name": "_homeGasPrice",
          "type": "uint256"
        },
        {
          "name": "_requiredBlockConfirmations",
          "type": "uint256"
        },
        {
          "name": "_foreignDailyLimit",
          "type": "uint256"
        },
        {
          "name": "_foreignMaxPerTx",
          "type": "uint256"
        },
        {
          "name": "_owner",
          "type": "address"
        }
      ],
      "name": "initialize",
      "outputs": [
        {
          "name": "",
          "type": "bool"
        }
      ],
      "payable": false,
      "stateMutability": "nonpayable",
      "type": "function"
    },
    {
      "constant": false,
      "inputs": [
        {
          "name": "_validatorContract",
          "type": "address"
        },
        {
          "name": "_dailyLimit",
          "type": "uint256"
        },
        {
          "name": "_maxPerTx",
          "type": "uint256"
        },
        {
          "name": "_minPerTx",
          "type": "uint256"
        },
        {
          "name": "_homeGasPrice",
          "type": "uint256"
        },
        {
          "name": "_requiredBlockConfirmations",
          "type": "uint256"
        },
        {
          "name": "_foreignDailyLimit",
          "type": "uint256"
        },
        {
          "name": "_foreignMaxPerTx",
          "type": "uint256"
        },
        {
          "name": "_owner",
          "type": "address"
        },
        {
          "name": "_feeManager",
          "type": "address"
        },
        {
          "name": "_homeFee",
          "type": "uint256"
        },
        {
          "name": "_foreignFee",
          "type": "uint256"
        }
      ],
      "name": "rewardableInitialize",
      "outputs": [
        {
          "name": "",
          "type": "bool"
        }
      ],
      "payable": false,
      "stateMutability": "nonpayable",
      "type": "function"
    },
    {
      "constant": true,
      "inputs": [],
      "name": "getBridgeMode",
      "outputs": [
        {
          "name": "_data",
          "type": "bytes4"
        }
      ],
      "payable": false,
      "stateMutability": "pure",
      "type": "function"
    }
  ],
  "bytecode": "0x608060405234801561001057600080fd5b50614819806100206000396000f30060806040526004361061022c5763ffffffff60e060020a6000350416630cbf060181146103925780631812d996146103bc57806322fe0cb41461044c578063286c4066146104b35780632bd0bb05146104cd57806334a9e148146104e5578063392e53cd146104fd5780633dd95d1b146105125780633e6968b61461052a5780633f0a9f651461053f578063408fef2e14610554578063437764df1461056957806343b37dd3146105b0578063490a32c6146105c55780634fb3fef7146105dd57806360756f7c146105f5578063620b3f9b14610616578063630cea8e1461065a57806367eeba0c1461068657806369ffa08a1461069b5780636ae1a976146106c25780637698da24146106da578063879ce676146106f25780638aa1949a1461070a5780638d0680431461071f5780638da5cb5b146107345780638f4b4b981461076557806394da17cd1461077d5780639943908914610792578063995b2cff146107a75780639a454b99146107ce5780639cb7595a146107e3578063a2a6ca2714610824578063acf5c6891461083c578063b20d30a914610854578063bf1fe4201461086c578063c6f6f21614610884578063dbe03a8b1461089c578063df0ad3de146108b1578063df25f3f0146108c6578063ea9f4968146108db578063f20151e1146108f3578063f2ba95611461090b578063f2fde38b14610920578063f968adbe14610941578063fe173b9714610956578063ffd19e8c1461096b578063ffd6619614610983575b6000808034811061023c57600080fd5b361561024757600080fd5b61025034610998565b151561025b57600080fd5b61028b6102666109e4565b6102863461027a6102756109e4565b6109ee565b9063ffffffff610aab16565b610aba565b349250610296610b77565b9150600160a060020a038216156103525761033d8360008460405160200180806000805160206147ce83398151915281525060080190506040516020818303038152906040526040518082805190602001908083835b6020831061030b5780518252601f1990920191602091820191016102ec565b6001836020036101000a0380198251168184511680821785525050505050509050019150506040518091039020610c35565b905061034f838263ffffffff610cca16565b92505b604080513381526020810185905281517f127650bcfb0ba017401abe4931453a405140a8fd36fece67bae2db174d3fdd63929181900390910190a1505050005b34801561039e57600080fd5b506103aa600435610cdc565b60408051918252519081900360200190f35b3480156103c857600080fd5b506103d7600435602435610d5f565b6040805160208082528351818301528351919283929083019185019080838360005b838110156104115781810151838201526020016103f9565b50505050905090810190601f16801561043e5780820380516001836020036101000a031916815260200191505b509250505060405180910390f35b34801561045857600080fd5b5061049f600160a060020a036004358116906024359060443590606435906084359060a4359060c4359060e435906101043581169061012435166101443561016435610df6565b604080519115158252519081900360200190f35b3480156104bf57600080fd5b506104cb600435611008565b005b3480156104d957600080fd5b506103aa6004356109ee565b3480156104f157600080fd5b506104cb60043561108f565b34801561050957600080fd5b5061049f611113565b34801561051e57600080fd5b506104cb6004356111cb565b34801561053657600080fd5b506103aa6109e4565b34801561054b57600080fd5b506103aa6112cd565b34801561056057600080fd5b506103aa611381565b34801561057557600080fd5b5061057e611390565b604080517bffffffffffffffffffffffffffffffffffffffffffffffffffffffff199092168252519081900360200190f35b3480156105bc57600080fd5b506103aa611433565b3480156105d157600080fd5b506103d76004356114a6565b3480156105e957600080fd5b506103aa6004356114b7565b34801561060157600080fd5b506104cb600160a060020a0360043516611532565b34801561062257600080fd5b5061049f600160a060020a036004358116906024359060443590606435906084359060a4359060c4359060e435906101043516611650565b34801561066657600080fd5b506104cb6024600480358281019290820135918135918201910135611683565b34801561069257600080fd5b506103aa611b16565b3480156106a757600080fd5b506104cb600160a060020a0360043581169060243516611b89565b3480156106ce57600080fd5b506103aa600435611d45565b3480156106e657600080fd5b5061049f600435611dc8565b3480156106fe57600080fd5b5061049f600435611e91565b34801561071657600080fd5b506103aa611ece565b34801561072b57600080fd5b506103aa611f41565b34801561074057600080fd5b50610749611fb9565b60408051600160a060020a039092168252519081900360200190f35b34801561077157600080fd5b5061049f60043561202d565b34801561078957600080fd5b506103aa6120b1565b34801561079e57600080fd5b50610749612145565b3480156107b357600080fd5b506104cb600160a060020a03600435166024356044356121b9565b3480156107da57600080fd5b506103aa6124b3565b3480156107ef57600080fd5b506107f8612526565b6040805167ffffffffffffffff9485168152928416602084015292168183015290519081900360600190f35b34801561083057600080fd5b506104cb600435612530565b34801561084857600080fd5b506104cb600435612627565b34801561086057600080fd5b506104cb600435612736565b34801561087857600080fd5b506104cb600435612838565b34801561089057600080fd5b506104cb600435612947565b3480156108a857600080fd5b50610749610b77565b3480156108bd57600080fd5b506107496129e8565b3480156108d257600080fd5b506103aa612a28565b3480156108e757600080fd5b5061049f600435610998565b3480156108ff57600080fd5b506104cb600435612a9b565b34801561091757600080fd5b5061057e612b3c565b34801561092c57600080fd5b506104cb600160a060020a0360043516612bb3565b34801561094d57600080fd5b506103aa612bed565b34801561096257600080fd5b506103aa612c60565b34801561097757600080fd5b5061049f600435612cd3565b34801561098f57600080fd5b506103aa612cfb565b6000806109aa8361027a6102756109e4565b9050806109b5611b16565b101580156109ca57506109c6612bed565b8311155b80156109dd57506109d9612a28565b8310155b9392505050565b6201518042045b90565b60008060008360405160200180807f746f74616c5370656e74506572446179000000000000000000000000000000008152506010018281526020019150506040516020818303038152906040526040518082805190602001908083835b60208310610a6a5780518252601f199092019160209182019101610a4b565b51815160209384036101000a600019018019909216911617905260408051929094018290039091208652850195909552929092016000205495945050505050565b6000828201838110156109dd57fe5b806000808460405160200180807f746f74616c5370656e74506572446179000000000000000000000000000000008152506010018281526020019150506040516020818303038152906040526040518082805190602001908083835b60208310610b355780518252601f199092019160209182019101610b16565b51815160209384036101000a60001901801990921691161790526040805192909401829003909120865285019590955292909201600020939093555050505050565b60006002600060405160200180807f6665654d616e61676572436f6e7472616374000000000000000000000000000081525060120190506040516020818303038152906040526040518082805190602001908083835b60208310610bec5780518252601f199092019160209182019101610bcd565b51815160209384036101000a6000190180199092169116179052604080519290940182900390912086528501959095529290920160002054600160a060020a0316949350505050565b60408051602481018690528415156044820152606480820184905282518083039091018152608490910190915260208181018051600160e060020a03167f9862f26f000000000000000000000000000000000000000000000000000000001781528251600093849390929091849182895af26000519250808015610cb857610cbd565b600080fd5b5091979650505050505050565b600082821115610cd657fe5b50900390565b60008060008360405160200180807f6e756d4d657373616765735369676e6564000000000000000000000000000000815250601101826000191660001916815260200191505060405160208183030381529060405260405180828051906020019080838360208310610a6a5780518252601f199092019160209182019101610a4b565b604080516020808201859052818301849052825180830384018152606092830193849052805192936000939192909182918401908083835b60208310610db65780518252601f199092019160209182019101610d97565b6001836020036101000a03801982511681845116808217855250505050505090500191505060405180910390209050610dee81612d5c565b949350505050565b6000610e098d8d8d8d8d8d8d8d8d612ec4565b610e1284613592565b1515610e1d57600080fd5b836002600060405160200180807f6665654d616e61676572436f6e7472616374000000000000000000000000000081525060120190506040516020818303038152906040526040518082805190602001908083835b60208310610e915780518252601f199092019160209182019101610e72565b51815160209384036101000a6000190180199092169116179052604080519290940182900390912086528581019690965250928301600020805473ffffffffffffffffffffffffffffffffffffffff1916600160a060020a0396909616959095179094555080516000805160206147ce83398151915281840152815160088183030181526028909101918290528051610f849450889388939182918401908083835b60208310610f525780518252601f199092019160209182019101610f33565b6001836020036101000a038019825116818451168082178552505050505050905001915050604051809103902061359a565b610fe5848360405160200180806000805160206147ae833981519152815250600b01905060405160208183030381529060405260405180828051906020019080838360208310610f525780518252601f199092019160209182019101610f33565b610fef60016137cb565b610ff7611113565b9d9c50505050505050505050505050565b611010611fb9565b600160a060020a0316331461102457600080fd5b61108c61102f610b77565b8260405160200180806000805160206147ae833981519152815250600b01905060405160208183030381529060405260405180828051906020019080838360208310610f525780518252601f199092019160209182019101610f33565b50565b611097611fb9565b600160a060020a031633146110ab57600080fd5b61108c6110b6610b77565b8260405160200180806000805160206147ce833981519152815250600801905060405160208183030381529060405260405180828051906020019080838360208310610f525780518252601f199092019160209182019101610f33565b60006004600060405160200180807f6973496e697469616c697a656400000000000000000000000000000000000000815250600d0190506040516020818303038152906040526040518082805190602001908083835b602083106111885780518252601f199092019160209182019101611169565b51815160209384036101000a600019018019909216911617905260408051929094018290039091208652850195909552929092016000205460ff16949350505050565b6111d3611fb9565b600160a060020a031633146111e757600080fd5b8060008060405160200180807f657865637574696f6e4461696c794c696d69740000000000000000000000000081525060130190506040516020818303038152906040526040518082805190602001908083835b6020831061125a5780518252601f19909201916020918201910161123b565b51815160001960209485036101000a019081169019919091161790526040805194909201849003909320865285830196909652509284016000209490945550815184815291517f9bebf928b90863f24cc31f726a3a7545efd409f1dcf552301b1ee3710da70d3b9350918290030190a150565b600080600060405160200180807f7265717569726564426c6f636b436f6e6669726d6174696f6e73000000000000815250601a0190506040516020818303038152906040526040518082805190602001908083835b602083106113415780518252601f199092019160209182019101611322565b51815160209384036101000a6000190180199092169116179052604080519290940182900390912086528501959095529290920160002054949350505050565b600061138b61388c565b905090565b600060405160200180807f6e61746976652d746f2d6572632d636f7265000000000000000000000000000081525060120190506040516020818303038152906040526040518082805190602001908083835b602083106114015780518252601f1990920191602091820191016113e2565b6001836020036101000a0380198251168184511680821785525050505050509050019150506040518091039020905090565b600080600060405160200180807f657865637574696f6e4461696c794c696d6974000000000000000000000000008152506013019050604051602081830303815290604052604051808280519060200190808383602083106113415780518252601f199092019160209182019101611322565b60606114b182613891565b92915050565b60008060008360405160200180807f746f74616c45786563757465645065724461790000000000000000000000000081525060130182815260200191505060405160208183030381529060405260405180828051906020019080838360208310610a6a5780518252601f199092019160209182019101610a4b565b61153a611fb9565b600160a060020a0316331461154e57600080fd5b600160a060020a0381161580611568575061156881613592565b151561157357600080fd5b806002600060405160200180807f6665654d616e61676572436f6e7472616374000000000000000000000000000081525060120190506040516020818303038152906040526040518082805190602001908083835b602083106115e75780518252601f1990920191602091820191016115c8565b51815160209384036101000a60001901801990921691161790526040805192909401829003909120865285019590955292909201600020805473ffffffffffffffffffffffffffffffffffffffff1916600160a060020a03959095169490941790935550505050565b60006116638a8a8a8a8a8a8a8a8a612ec4565b61166d60016137cb565b611675611113565b9a9950505050505050505050565b6000806000806000611693612145565b600160a060020a031663facd743b336040518263ffffffff1660e060020a0281526004018082600160a060020a0316600160a060020a03168152602001915050602060405180830381600087803b1580156116ed57600080fd5b505af1158015611701573d6000803e3d6000fd5b505050506040513d602081101561171757600080fd5b5051151561172457600080fd5b61175d87878080601f01602080910402602001604051908101604052809392919081815260200183838082843750613915945050505050565b151561176857600080fd5b6117cf89898080601f0160208091040260200160405190810160405280939291908181526020018383808284375050604080516020601f8f018190048102820181019092528d815294508d93508c9250829150840183828082843750613929945050505050565b600160a060020a031633146117e357600080fd5b8686604051602001808383808284378201915050925050506040516020818303038152906040526040518082805190602001908083835b602083106118395780518252601f19909201916020918201910161181a565b51815160209384036101000a600019018019909216911617905260408051929094018290038220336c0100000000000000000000000002838301526034808401829052855180850390910181526054909301948590528251909b509195509293508392850191508083835b602083106118c35780518252601f1990920191602091820191016118a4565b6001836020036101000a038019825116818451168082178552505050505050905001915050604051809103902093506118fb85610cdc565b925061190683612cd3565b1561191057600080fd5b600192830192831115611935576119268461202d565b1561193057600080fd5b61196f565b61196f8588888080601f016020809104026020016040519081016040528093929190818152602001838380828437506139e9945050505050565b61197a846001613ac0565b604080516020808201889052600019860182840152825180830384018152606090920192839052815191929182918401908083835b602083106119ce5780518252601f1990920191602091820191016119af565b51815160209384036101000a600019018019909216911617905260408051929094018290038220601f8f018290048202830182019094528d8252929650611a2f9450869350918d91508c908190840183828082843750613b92945050505050565b611a398584613c15565b60408051868152905133917fbf06885f40778f5ccfb64497d3f92ce568ddaedb7e2fb4487f72690418cf8e4c919081900360200190a2611a77611f41565b9050808310611b0b57611a9285611a8d85613c97565b613c15565b604080513381526020810187905280820183905290517f415557404d88a0c0b8e3b16967cafffc511213fd9c465c16832ee17ed57d72379181900360600190a1611b0b87878080601f01602080910402602001604051908101604052809392919081815260200183838082843750613cbc945050505050565b505050505050505050565b600080600060405160200180807f6461696c794c696d697400000000000000000000000000000000000000000000815250600a019050604051602081830303815290604052604051808280519060200190808383602083106113415780518252601f199092019160209182019101611322565b600080611b946129e8565b600160a060020a03163314611ba857600080fd5b600160a060020a0383161515611bbd57600080fd5b600160a060020a0384161515611c0957604051600160a060020a03841690303180156108fc02916000818181858888f19350505050158015611c03573d6000803e3d6000fd5b50611d3f565b604080517f70a082310000000000000000000000000000000000000000000000000000000081523060048201529051859350600160a060020a038416916370a082319160248083019260209291908290030181600087803b158015611c6d57600080fd5b505af1158015611c81573d6000803e3d6000fd5b505050506040513d6020811015611c9757600080fd5b5051604080517fa9059cbb000000000000000000000000000000000000000000000000000000008152600160a060020a0386811660048301526024820184905291519293509084169163a9059cbb916044808201926020929091908290030181600087803b158015611d0857600080fd5b505af1158015611d1c573d6000803e3d6000fd5b505050506040513d6020811015611d3257600080fd5b50511515611d3f57600080fd5b50505050565b60008060008360405160200180807f6e756d41666669726d6174696f6e735369676e65640000000000000000000000815250601501826000191660001916815260200191505060405160208183030381529060405260405180828051906020019080838360208310610a6a5780518252601f199092019160209182019101610a4b565b6000600460008360405160200180807f61666669726d6174696f6e735369676e6564000000000000000000000000000081525060120182600019166000191681526020019150506040516020818303038152906040526040518082805190602001908083835b60208310611e4d5780518252601f199092019160209182019101611e2e565b51815160209384036101000a600019018019909216911617905260408051929094018290039091208652850195909552929092016000205460ff1695945050505050565b600080611ea88361027a611ea36109e4565b6114b7565b905080611eb3611433565b101580156109dd5750611ec4611ece565b9092111592915050565b600080600060405160200180807f657865637574696f6e4d617850657254780000000000000000000000000000008152506011019050604051602081830303815290604052604051808280519060200190808383602083106113415780518252601f199092019160209182019101611322565b6000611f4b612145565b600160a060020a0316638d0680436040518163ffffffff1660e060020a028152600401602060405180830381600087803b158015611f8857600080fd5b505af1158015611f9c573d6000803e3d6000fd5b505050506040513d6020811015611fb257600080fd5b5051905090565b60006002600060405160200180807f6f776e6572000000000000000000000000000000000000000000000000000000815250600501905060405160208183030381529060405260405180828051906020019080838360208310610bec5780518252601f199092019160209182019101610bcd565b6000600460008360405160200180807f6d657373616765735369676e6564000000000000000000000000000000000000815250600e01826000191660001916815260200191505060405160208183030381529060405260405180828051906020019080838360208310611e4d5780518252601f199092019160209182019101611e2e565b600061138b60405160200180806000805160206147ce83398151915281525060080190506040516020818303038152906040526040518082805190602001908083835b602083106121135780518252601f1990920191602091820191016120f4565b6001836020036101000a0380198251168184511680821785525050505050509050019150506040518091039020613d76565b60006002600060405160200180807f76616c696461746f72436f6e7472616374000000000000000000000000000000815250601101905060405160208183030381529060405260405180828051906020019080838360208310610bec5780518252601f199092019160209182019101610bcd565b60008060006121c6612145565b600160a060020a031663facd743b336040518263ffffffff1660e060020a0281526004018082600160a060020a0316600160a060020a03168152602001915050602060405180830381600087803b15801561222057600080fd5b505af1158015612234573d6000803e3d6000fd5b505050506040513d602081101561224a57600080fd5b5051151561225757600080fd5b61226085613f52565b156124a057604080516c01000000000000000000000000600160a060020a0389160260208083019190915260348201889052605480830188905283518084039091018152607490920192839052815191929182918401908083835b602083106122da5780518252601f1990920191602091820191016122bb565b51815160209384036101000a600019018019909216911617905260408051929094018290038220336c01000000000000000000000000028383015260348084018290528551808503909101815260549093019485905282519099509195509293508392850191508083835b602083106123645780518252601f199092019160209182019101612345565b6001836020036101000a0380198251168184511680821785525050505050509050019150506040518091039020915061239c82611dc8565b156123a657600080fd5b6123b1826001613f5d565b6123ba83611d45565b90506123c581612cd3565b156123cf57600080fd5b6001016123dc8382613fe0565b60408051858152905133917f5df9cc3eb93d8a9a481857a3b70a8ca966e6b80b25cf0ee2cce180ec5afa80a1919081900360200190a261241a611f41565b811061249b576124328361242d83613c97565b613fe0565b600085111561245157612446868686614062565b151561245157600080fd5b60408051600160a060020a03881681526020810187905280820186905290517f6fc115a803b8703117d9a3956c5a15401cb42401f91630f015eb6b043fa762539181900360600190a15b6124ab565b6124ab868686610cb8565b505050505050565b600080600060405160200180807f6465706c6f7965644174426c6f636b0000000000000000000000000000000000815250600f019050604051602081830303815290604052604051808280519060200190808383602083106113415780518252601f199092019160209182019101611322565b6002806000909192565b612538611fb9565b600160a060020a0316331461254c57600080fd5b612554611b16565b811080156125685750612565612bed565b81105b151561257357600080fd5b8060008060405160200180807f6d696e506572547800000000000000000000000000000000000000000000000081525060080190506040516020818303038152906040526040518082805190602001908083835b602083106125e65780518252601f1990920191602091820191016125c7565b51815160209384036101000a600019018019909216911617905260408051929094018290039091208652850195909552929092016000209390935550505050565b61262f611fb9565b600160a060020a0316331461264357600080fd5b6000811161265057600080fd5b8060008060405160200180807f7265717569726564426c6f636b436f6e6669726d6174696f6e73000000000000815250601a0190506040516020818303038152906040526040518082805190602001908083835b602083106126c35780518252601f1990920191602091820191016126a4565b51815160001960209485036101000a019081169019919091161790526040805194909201849003909320865285830196909652509284016000209490945550815184815291517f4fb76205cd57c896b21511d2114137d8e901b4ccd659e1a0f97d6306795264fb9350918290030190a150565b61273e611fb9565b600160a060020a0316331461275257600080fd5b8060008060405160200180807f6461696c794c696d697400000000000000000000000000000000000000000000815250600a0190506040516020818303038152906040526040518082805190602001908083835b602083106127c55780518252601f1990920191602091820191016127a6565b51815160001960209485036101000a019081169019919091161790526040805194909201849003909320865285830196909652509284016000209490945550815184815291517fad4123ae17c414d9c6d2fec478b402e6b01856cc250fd01fbfd252fda0089d3c9350918290030190a150565b612840611fb9565b600160a060020a0316331461285457600080fd5b6000811161286157600080fd5b8060008060405160200180807f676173507269636500000000000000000000000000000000000000000000000081525060080190506040516020818303038152906040526040518082805190602001908083835b602083106128d45780518252601f1990920191602091820191016128b5565b51815160001960209485036101000a019081169019919091161790526040805194909201849003909320865285830196909652509284016000209490945550815184815291517f52264b89e0fceafb26e79fd49ef8a366eb6297483bf4035b027f0c99a7ad512e9350918290030190a150565b61294f611fb9565b600160a060020a0316331461296357600080fd5b61296b611b16565b811061297657600080fd5b8060008060405160200180807f6d617850657254780000000000000000000000000000000000000000000000008152506008019050604051602081830303815290604052604051808280519060200190808383602083106125e65780518252601f1990920191602091820191016125c7565b600030600160a060020a031663025313a26040518163ffffffff1660e060020a028152600401602060405180830381600087803b158015611f8857600080fd5b600080600060405160200180807f6d696e50657254780000000000000000000000000000000000000000000000008152506008019050604051602081830303815290604052604051808280519060200190808383602083106113415780518252601f199092019160209182019101611322565b612aa3611fb9565b600160a060020a03163314612ab757600080fd5b612abf611433565b8110612aca57600080fd5b8060008060405160200180807f657865637574696f6e4d617850657254780000000000000000000000000000008152506011019050604051602081830303815290604052604051808280519060200190808383602083106125e65780518252601f1990920191602091820191016125c7565b604080516004815260248101909152602081018051600160e060020a03167ff2ba956100000000000000000000000000000000000000000000000000000000179052600090819081612b8c610b77565b9050600460008351602085016000855af26000519350808015610cb8575092949350505050565b612bbb611fb9565b600160a060020a03163314612bcf57600080fd5b600160a060020a0381161515612be457600080fd5b61108c81614198565b600080600060405160200180807f6d617850657254780000000000000000000000000000000000000000000000008152506008019050604051602081830303815290604052604051808280519060200190808383602083106113415780518252601f199092019160209182019101611322565b600080600060405160200180807f67617350726963650000000000000000000000000000000000000000000000008152506008019050604051602081830303815290604052604051808280519060200190808383602083106113415780518252601f199092019160209182019101611322565b7f80000000000000000000000000000000000000000000000000000000000000009081161490565b600061138b60405160200180806000805160206147ae833981519152815250600b019050604051602081830303815290604052604051808280519060200190808383602083106121135780518252601f1990920191602091820191016120f4565b6060600360008360405160200180807f7369676e61747572657300000000000000000000000000000000000000000000815250600a0182600019166000191681526020019150506040516020818303038152906040526040518082805190602001908083835b60208310612de15780518252601f199092019160209182019101612dc2565b6001836020036101000a0380198251168184511680821785525050505050509050019150506040518091039020600019166000191681526020019081526020016000208054600181600116156101000203166002900480601f016020809104026020016040519081016040528092919081815260200182805460018160011615610100020316600290048015612eb85780601f10612e8d57610100808354040283529160200191612eb8565b820191906000526020600020905b815481529060010190602001808311612e9b57829003601f168201915b50505050509050919050565b612ecc611113565b15612ed657600080fd5b600160a060020a03891615801590612ef25750612ef289613592565b1515612efd57600080fd5b60008511612f0a57600080fd5b60008411612f1757600080fd5b600086118015612f2657508587115b8015612f3157508688115b1515612f3c57600080fd5b828210612f4857600080fd5b600160a060020a0381161515612f5d57600080fd5b886002600060405160200180807f76616c696461746f72436f6e747261637400000000000000000000000000000081525060110190506040516020818303038152906040526040518082805190602001908083835b60208310612fd15780518252601f199092019160209182019101612fb2565b51815160209384036101000a60001901801990921691161790526040805192909401829003909120865285810196909652509283016000908120805473ffffffffffffffffffffffffffffffffffffffff1916600160a060020a039790971696909617909555505080517f6465706c6f7965644174426c6f636b0000000000000000000000000000000000818401528151600f818303018152602f90910191829052805143949384939182918401908083835b602083106130a35780518252601f199092019160209182019101613084565b51815160209384036101000a6000190180199092169116179052604080519290940182900390912086528581019690965250928301600090812095909555505080517f6461696c794c696d697400000000000000000000000000000000000000000000818401528151600a818303018152602a9091019182905280518c949384939182918401908083835b6020831061314d5780518252601f19909201916020918201910161312e565b51815160209384036101000a6000190180199092169116179052604080519290940182900390912086528581019690965250928301600090812095909555505080517f6d61785065725478000000000000000000000000000000000000000000000000818401528151600881830301815260289091019182905280518b949384939182918401908083835b602083106131f75780518252601f1990920191602091820191016131d8565b51815160209384036101000a6000190180199092169116179052604080519290940182900390912086528581019690965250928301600090812095909555505080517f6d696e5065725478000000000000000000000000000000000000000000000000818401528151600881830301815260289091019182905280518a949384939182918401908083835b602083106132a15780518252601f199092019160209182019101613282565b51815160209384036101000a6000190180199092169116179052604080519290940182900390912086528581019690965250928301600090812095909555505080517f67617350726963650000000000000000000000000000000000000000000000008184015281516008818303018152602890910191829052805189949384939182918401908083835b6020831061334b5780518252601f19909201916020918201910161332c565b51815160209384036101000a6000190180199092169116179052604080519290940182900390912086528581019690965250928301600090812095909555505080517f7265717569726564426c6f636b436f6e6669726d6174696f6e73000000000000818401528151601a818303018152603a90910191829052805188949384939182918401908083835b602083106133f55780518252601f1990920191602091820191016133d6565b51815160209384036101000a6000190180199092169116179052604080519290940182900390912086528581019690965250928301600090812095909555505080517f657865637574696f6e4461696c794c696d6974000000000000000000000000008184015281516013818303018152603390910191829052805187949384939182918401908083835b6020831061349f5780518252601f199092019160209182019101613480565b51815160209384036101000a6000190180199092169116179052604080519290940182900390912086528581019690965250928301600090812095909555505080517f657865637574696f6e4d617850657254780000000000000000000000000000008184015281516011818303018152603190910191829052805186949384939182918401908083835b602083106135495780518252601f19909201916020918201910161352a565b51815160209384036101000a600019018019909216911617905260408051929094018290039091208652850195909552929092016000209390935550611b0b9150829050614198565b6000903b1190565b606060405160200180806000805160206147ce83398151915281525060080190506040516020818303038152906040526040518082805190602001908083835b602083106135f95780518252601f1990920191602091820191016135da565b5181516020939093036101000a60001901801990911692169190911790526040519201829003909120851492506136669150505760408051808201909152601681527f736574466f726569676e4665652875696e743235362900000000000000000000602082015261369b565b60408051808201909152601381527f736574486f6d654665652875696e74323536290000000000000000000000000060208201525b905083600160a060020a0316818460405160240180828152602001915050604051602081830303815290604052906040518082805190602001908083835b602083106136f85780518252601f1990920191602091820191016136d9565b51815160001960209485036101000a0190811690199190911617905260408051949092018490039093209286018051600160e060020a03167bffffffffffffffffffffffffffffffffffffffffffffffffffffffff19909416939093178352518551909450849350905080838360005b83811015613780578181015183820152602001613768565b50505050905090810190601f1680156137ad5780820380516001836020036101000a031916815260200191505b50915050600060405180830381855af49150501515611d3f57600080fd5b806004600060405160200180807f6973496e697469616c697a656400000000000000000000000000000000000000815250600d0190506040516020818303038152906040526040518082805190602001908083835b6020831061383f5780518252601f199092019160209182019101613820565b51815160209384036101000a60001901801990921691161790526040805192909401829003909120865285019590955292909201600020805460ff19169415159490941790935550505050565b606890565b6060600360008360405160200180807f6d65737361676573000000000000000000000000000000000000000000000000815250600801826000191660001916815260200191505060405160208183030381529060405260405180828051906020019080838360208310612de15780518252601f199092019160209182019101612dc2565b600061391f61388c565b8251149050919050565b6000806000808551604114151561393f57600080fd5b505050602083015160408401516060850151600161395c86614256565b60408051600080825260208083018085529490945260ff7f0100000000000000000000000000000000000000000000000000000000000000870416828401526060820188905260808201879052915160a08083019493601f198301938390039091019190865af11580156139d4573d6000803e3d6000fd5b5050604051601f190151979650505050505050565b80600360008460405160200180807f6d6573736167657300000000000000000000000000000000000000000000000081525060080182600019166000191681526020019150506040516020818303038152906040526040518082805190602001908083835b60208310613a6d5780518252601f199092019160209182019101613a4e565b51815160001960209485036101000a01908116901991909116179052604080519490920184900390932086528583019690965250929093016000208451613abb9591945092019190506146e5565b505050565b80600460008460405160200180807f6d657373616765735369676e6564000000000000000000000000000000000000815250600e0182600019166000191681526020019150506040516020818303038152906040526040518082805190602001908083835b60208310613b445780518252601f199092019160209182019101613b25565b51815160209384036101000a60001901801990921691161790526040805192909401829003909120865285019590955292909201600020805460ff1916941515949094179093555050505050565b80600360008460405160200180807f7369676e61747572657300000000000000000000000000000000000000000000815250600a01826000191660001916815260200191505060405160208183030381529060405260405180828051906020019080838360208310613a6d5780518252601f199092019160209182019101613a4e565b806000808460405160200180807f6e756d4d657373616765735369676e6564000000000000000000000000000000815250601101826000191660001916815260200191505060405160208183030381529060405260405180828051906020019080838360208310610b355780518252601f199092019160209182019101610b16565b7f80000000000000000000000000000000000000000000000000000000000000001790565b600080600080600080613ccd610b77565b9550600160a060020a03861615613d6d57613ce78761441b565b80955081965082975083985050505050613d5a8460018860405160200180806000805160206147ce83398151915281525060080190506040516020818303038152906040526040518082805190602001908083836020831061030b5780518252601f1990920191602091820191016102ec565b90508015613d6d57613d6d818785614461565b50505050505050565b6000806000606080613d86610b77565b925060405160200180806000805160206147ce83398151915281525060080190506040516020818303038152906040526040518082805190602001908083835b60208310613de55780518252601f199092019160209182019101613dc6565b5181516020939093036101000a6000190180199091169216919091179052604051920182900390912089149250613e529150505760408051808201909152600f81527f676574466f726569676e466565282900000000000000000000000000000000006020820152613e87565b60408051808201909152600c81527f676574486f6d654665652829000000000000000000000000000000000000000060208201525b60408051600481526024810191829052825192945091849190819060208401908083835b60208310613eca5780518252601f199092019160209182019101613eab565b51815160209384036101000a600019018019909216911617905260405191909301819003902085830180517bffffffffffffffffffffffffffffffffffffffffffffffffffffffff19909216600160e060020a0390921691909117815285519596509194600094509250839050875af26000519450808015610cb85750939695505050505050565b60006114b182611e91565b80600460008460405160200180807f61666669726d6174696f6e735369676e65640000000000000000000000000000815250601201826000191660001916815260200191505060405160208183030381529060405260405180828051906020019080838360208310613b445780518252601f199092019160209182019101613b25565b806000808460405160200180807f6e756d41666669726d6174696f6e735369676e65640000000000000000000000815250601501826000191660001916815260200191505060405160208183030381529060405260405180828051906020019080838360208310610b355780518252601f199092019160209182019101610b16565b6000806000806140876140736109e4565b6140828861027a611ea36109e4565b614566565b859250614092610b77565b9150600160a060020a03821615614126576141068360008460405160200180806000805160206147ae833981519152815250600b0190506040516020818303038152906040526040518082805190602001908083836020831061030b5780518252601f1990920191602091820191016102ec565b90506141138183876145e0565b614123838263ffffffff610cca16565b92505b604051600160a060020a0388169084156108fc029085906000818181858888f19350505050151561418b57828761415b614763565b600160a060020a039091168152604051908190036020019082f080158015614187573d6000803e3d6000fd5b5050505b5060019695505050505050565b7f8be0079c531659141344cd1fd0a4f28419497f9722a3daafe3b4186f6b6457e06141c1611fb9565b60408051600160a060020a03928316815291841660208301528051918290030190a1806002600060405160200180807f6f776e65720000000000000000000000000000000000000000000000000000008152506005019050604051602081830303815290604052604051808280519060200190808383602083106115e75780518252601f1990920191602091820191016115c8565b604080518082018252601a81527f19457468657265756d205369676e6564204d6573736167653a0a000000000000602080830191825283518085018552600381527f313034000000000000000000000000000000000000000000000000000000000081830152935183516000959385938593899391019182918083835b602083106142f25780518252601f1990920191602091820191016142d3565b51815160209384036101000a600019018019909216911617905286519190930192860191508083835b6020831061433a5780518252601f19909201916020918201910161431b565b51815160209384036101000a600019018019909216911617905285519190930192850191508083835b602083106143825780518252601f199092019160209182019101614363565b6001836020036101000a03801982511681845116808217855250505050505090500193505050506040516020818303038152906040526040518082805190602001908083835b602083106143e75780518252601f1990920191602091820191016143c8565b5181516020939093036101000a60001901801990911692169190911790526040519201829003909120979650505050505050565b60008060008061442a85613915565b151561443557600080fd5b600160a060020a0360148601511693506034850151925060548501519150606885015190509193509193565b6040805160248082018690528251808303909101815260449091018252602081018051600160e060020a03167f59d784640000000000000000000000000000000000000000000000000000000017815291518151600160a060020a03861693829180838360005b838110156144e05781810151838201526020016144c8565b50505050905090810190601f16801561450d5780820380516001836020036101000a031916815260200191505b50915050600060405180830381855af4915050151561452b57600080fd5b60408051848152905182917f858abdcd5efcaebb936e8e8516f0cfe9a0ef5157ff99d16cdabb6db625be90d0919081900360200190a2505050565b806000808460405160200180807f746f74616c45786563757465645065724461790000000000000000000000000081525060130182815260200191505060405160208183030381529060405260405180828051906020019080838360208310610b355780518252601f199092019160209182019101610b16565b6040805160248082018690528251808303909101815260449091018252602081018051600160e060020a03167f054d46ec0000000000000000000000000000000000000000000000000000000017815291518151600160a060020a03861693829180838360005b8381101561465f578181015183820152602001614647565b50505050905090810190601f16801561468c5780820380516001836020036101000a031916815260200191505b50915050600060405180830381855af491505015156146aa57600080fd5b60408051848152905182917fa52d3c9cbc541772e4edd92e2e4e2a3865ab73630f25deed8a6c8de41ff0f65c919081900360200190a2505050565b828054600181600116156101000203166002900490600052602060002090601f016020900481019282601f1061472657805160ff1916838001178555614753565b82800160010185558215614753579182015b82811115614753578251825591602001919060010190614738565b5061475f929150614772565b5090565b60405160218061478d83390190565b6109eb91905b8082111561475f57600081556001016147785600608060405260405160208060218339810160405251600160a060020a038116ff00666f726569676e2d666565000000000000000000000000000000000000000000686f6d652d666565000000000000000000000000000000000000000000000000a165627a7a7230582000a04737654589e86c13b529985780b282440b2b754e81d1a043c663e16df8fd0029",
  "source": "pragma solidity 0.4.24;\nimport \"../../libraries/SafeMath.sol\";\nimport \"../../libraries/Message.sol\";\nimport \"../BasicBridge.sol\";\nimport \"../../upgradeability/EternalStorage.sol\";\nimport \"../BasicHomeBridge.sol\";\nimport \"./RewardableHomeBridgeNativeToErc.sol\";\nimport \"../Sacrifice.sol\";\n\n\ncontract HomeBridgeNativeToErc is EternalStorage, BasicBridge, BasicHomeBridge, RewardableHomeBridgeNativeToErc {\n\n    function () public payable {\n        require(msg.value > 0);\n        require(msg.data.length == 0);\n        require(withinLimit(msg.value));\n        setTotalSpentPerDay(getCurrentDay(), totalSpentPerDay(getCurrentDay()).add(msg.value));\n        uint256 valueToTransfer = msg.value;\n        address feeManager = feeManagerContract();\n        if (feeManager != address(0)) {\n            uint256 fee = calculateFee(valueToTransfer, false, feeManager, HOME_FEE);\n            valueToTransfer = valueToTransfer.sub(fee);\n        }\n        emit UserRequestForSignature(msg.sender, valueToTransfer);\n    }\n\n    function initialize (\n        address _validatorContract,\n        uint256 _dailyLimit,\n        uint256 _maxPerTx,\n        uint256 _minPerTx,\n        uint256 _homeGasPrice,\n        uint256 _requiredBlockConfirmations,\n        uint256 _foreignDailyLimit,\n        uint256 _foreignMaxPerTx,\n        address _owner\n    ) public returns(bool)\n    {\n        _initialize(\n            _validatorContract,\n            _dailyLimit,\n            _maxPerTx,\n            _minPerTx,\n            _homeGasPrice,\n            _requiredBlockConfirmations,\n            _foreignDailyLimit,\n            _foreignMaxPerTx,\n            _owner\n        );\n        setInitialize(true);\n        return isInitialized();\n    }\n\n    function rewardableInitialize (\n        address _validatorContract,\n        uint256 _dailyLimit,\n        uint256 _maxPerTx,\n        uint256 _minPerTx,\n        uint256 _homeGasPrice,\n        uint256 _requiredBlockConfirmations,\n        uint256 _foreignDailyLimit,\n        uint256 _foreignMaxPerTx,\n        address _owner,\n        address _feeManager,\n        uint256 _homeFee,\n        uint256 _foreignFee\n    ) public returns(bool)\n    {\n        _initialize(\n            _validatorContract,\n            _dailyLimit,\n            _maxPerTx,\n            _minPerTx,\n            _homeGasPrice,\n            _requiredBlockConfirmations,\n            _foreignDailyLimit,\n            _foreignMaxPerTx,\n            _owner\n        );\n        require(isContract(_feeManager));\n        addressStorage[keccak256(abi.encodePacked(\"feeManagerContract\"))] = _feeManager;\n        _setFee(_feeManager, _homeFee, HOME_FEE);\n        _setFee(_feeManager, _foreignFee, FOREIGN_FEE);\n        setInitialize(true);\n        return isInitialized();\n    }\n\n    function getBridgeMode() public pure returns(bytes4 _data) {\n        return bytes4(keccak256(abi.encodePacked(\"native-to-erc-core\")));\n    }\n\n    function _initialize (\n        address _validatorContract,\n        uint256 _dailyLimit,\n        uint256 _maxPerTx,\n        uint256 _minPerTx,\n        uint256 _homeGasPrice,\n        uint256 _requiredBlockConfirmations,\n        uint256 _foreignDailyLimit,\n        uint256 _foreignMaxPerTx,\n        address _owner\n    ) internal\n    {\n        require(!isInitialized());\n        require(_validatorContract != address(0) && isContract(_validatorContract));\n        require(_homeGasPrice > 0);\n        require(_requiredBlockConfirmations > 0);\n        require(_minPerTx > 0 && _maxPerTx > _minPerTx && _dailyLimit > _maxPerTx);\n        require(_foreignMaxPerTx < _foreignDailyLimit);\n        require(_owner != address(0));\n        addressStorage[keccak256(abi.encodePacked(\"validatorContract\"))] = _validatorContract;\n        uintStorage[keccak256(abi.encodePacked(\"deployedAtBlock\"))] = block.number;\n        uintStorage[keccak256(abi.encodePacked(\"dailyLimit\"))] = _dailyLimit;\n        uintStorage[keccak256(abi.encodePacked(\"maxPerTx\"))] = _maxPerTx;\n        uintStorage[keccak256(abi.encodePacked(\"minPerTx\"))] = _minPerTx;\n        uintStorage[keccak256(abi.encodePacked(\"gasPrice\"))] = _homeGasPrice;\n        uintStorage[keccak256(abi.encodePacked(\"requiredBlockConfirmations\"))] = _requiredBlockConfirmations;\n        uintStorage[keccak256(abi.encodePacked(\"executionDailyLimit\"))] = _foreignDailyLimit;\n        uintStorage[keccak256(abi.encodePacked(\"executionMaxPerTx\"))] = _foreignMaxPerTx;\n        setOwner(_owner);\n    }\n\n    function onSignaturesCollected(bytes _message) internal {\n        address feeManager = feeManagerContract();\n        if (feeManager != address(0)) {\n            address recipient;\n            uint256 amount;\n            bytes32 txHash;\n            address contractAddress;\n            (recipient, amount, txHash, contractAddress) = Message.parseMessage(_message);\n            uint256 fee = calculateFee(amount, true, feeManager, HOME_FEE);\n            if (fee != 0) {\n                distributeFeeFromSignatures(fee, feeManager, txHash);\n            }\n        }\n    }\n\n    function onExecuteAffirmation(address _recipient, uint256 _value, bytes32 txHash) internal returns(bool) {\n        setTotalExecutedPerDay(getCurrentDay(), totalExecutedPerDay(getCurrentDay()).add(_value));\n        uint256 valueToTransfer = _value;\n\n        address feeManager = feeManagerContract();\n        if (feeManager != address(0)) {\n            uint256 fee = calculateFee(valueToTransfer, false, feeManager, FOREIGN_FEE);\n            distributeFeeFromAffirmation(fee, feeManager, txHash);\n            valueToTransfer = valueToTransfer.sub(fee);\n        }\n\n        if (!_recipient.send(valueToTransfer)) {\n            (new Sacrifice).value(valueToTransfer)(_recipient);\n        }\n        return true;\n    }\n\n    function affirmationWithinLimits(uint256 _amount) internal view returns(bool) {\n        return withinExecutionLimit(_amount);\n    }\n\n    function onFailedAffirmation(address _recipient, uint256 _value, bytes32 _txHash) internal {\n        revert();\n    }\n}\n",
  "sourcePath": "/Users/fbranci/iexecdev/vivani/tokenbridge/contracts/contracts/upgradeable_contracts/native_to_erc20/HomeBridgeNativeToErc.sol",
  "compiler": {
    "name": "solc",
    "version": "0.4.24+commit.e67f0147.Emscripten.clang"
  },
  "schemaVersion": "3.0.13",
  "updatedAt": "2019-08-28T14:04:53.346Z",
  "devdoc": {
    "methods": {
      "owner()": {
        "details": "Tells the address of the owner",
        "return": "the address of the owner"
      },
      "transferOwnership(address)": {
        "details": "Allows the current owner to transfer control of the contract to a newOwner.",
        "params": {
          "newOwner": "the address to transfer ownership to."
        }
      }
    }
  },
  "userdoc": {
    "methods": {}
  }
}