{
  "contractName": "HomeBridgeErcToErc",
  "abi": [
    {
      "constant": true,
      "inputs": [
        {
          "name": "_message",
          "type": "bytes32"
        }
      ],
      "name": "numMessagesSigned",
      "outputs": [
        {
          "name": "",
          "type": "uint256"
        }
      ],
      "payable": false,
      "stateMutability": "view",
      "type": "function"
    },
    {
      "constant": true,
      "inputs": [
        {
          "name": "_hash",
          "type": "bytes32"
        },
        {
          "name": "_index",
          "type": "uint256"
        }
      ],
      "name": "signature",
      "outputs": [
        {
          "name": "",
          "type": "bytes"
        }
      ],
      "payable": false,
      "stateMutability": "view",
      "type": "function"
    },
    {
      "constant": true,
      "inputs": [],
      "name": "erc677token",
      "outputs": [
        {
          "name": "",
          "type": "address"
        }
      ],
      "payable": false,
      "stateMutability": "view",
      "type": "function"
    },
    {
      "constant": false,
      "inputs": [
        {
          "name": "_fee",
          "type": "uint256"
        }
      ],
      "name": "setForeignFee",
      "outputs": [],
      "payable": false,
      "stateMutability": "nonpayable",
      "type": "function"
    },
    {
      "constant": true,
      "inputs": [
        {
          "name": "_txHash",
          "type": "bytes32"
        }
      ],
      "name": "fixedAssets",
      "outputs": [
        {
          "name": "",
          "type": "bool"
        }
      ],
      "payable": false,
      "stateMutability": "view",
      "type": "function"
    },
    {
      "constant": true,
      "inputs": [
        {
          "name": "_day",
          "type": "uint256"
        }
      ],
      "name": "totalSpentPerDay",
      "outputs": [
        {
          "name": "",
          "type": "uint256"
        }
      ],
      "payable": false,
      "stateMutability": "view",
      "type": "function"
    },
    {
      "constant": false,
      "inputs": [
        {
          "name": "_fee",
          "type": "uint256"
        }
      ],
      "name": "setHomeFee",
      "outputs": [],
      "payable": false,
      "stateMutability": "nonpayable",
      "type": "function"
    },
    {
      "constant": true,
      "inputs": [],
      "name": "isInitialized",
      "outputs": [
        {
          "name": "",
          "type": "bool"
        }
      ],
      "payable": false,
      "stateMutability": "view",
      "type": "function"
    },
    {
      "constant": false,
      "inputs": [
        {
          "name": "_dailyLimit",
          "type": "uint256"
        }
      ],
      "name": "setExecutionDailyLimit",
      "outputs": [],
      "payable": false,
      "stateMutability": "nonpayable",
      "type": "function"
    },
    {
      "constant": true,
      "inputs": [],
      "name": "getCurrentDay",
      "outputs": [
        {
          "name": "",
          "type": "uint256"
        }
      ],
      "payable": false,
      "stateMutability": "view",
      "type": "function"
    },
    {
      "constant": true,
      "inputs": [],
      "name": "requiredBlockConfirmations",
      "outputs": [
        {
          "name": "",
          "type": "uint256"
        }
      ],
      "payable": false,
      "stateMutability": "view",
      "type": "function"
    },
    {
      "constant": true,
      "inputs": [],
      "name": "requiredMessageLength",
      "outputs": [
        {
          "name": "",
          "type": "uint256"
        }
      ],
      "payable": false,
      "stateMutability": "pure",
      "type": "function"
    },
    {
      "constant": true,
      "inputs": [],
      "name": "executionDailyLimit",
      "outputs": [
        {
          "name": "",
          "type": "uint256"
        }
      ],
      "payable": false,
      "stateMutability": "view",
      "type": "function"
    },
    {
      "constant": true,
      "inputs": [
        {
          "name": "_hash",
          "type": "bytes32"
        }
      ],
      "name": "message",
      "outputs": [
        {
          "name": "",
          "type": "bytes"
        }
      ],
      "payable": false,
      "stateMutability": "view",
      "type": "function"
    },
    {
      "constant": true,
      "inputs": [
        {
          "name": "_day",
          "type": "uint256"
        }
      ],
      "name": "totalExecutedPerDay",
      "outputs": [
        {
          "name": "",
          "type": "uint256"
        }
      ],
      "payable": false,
      "stateMutability": "view",
      "type": "function"
    },
    {
      "constant": false,
      "inputs": [
        {
          "name": "_feeManager",
          "type": "address"
        }
      ],
      "name": "setFeeManagerContract",
      "outputs": [],
      "payable": false,
      "stateMutability": "nonpayable",
      "type": "function"
    },
    {
      "constant": false,
      "inputs": [
        {
          "name": "signature",
          "type": "bytes"
        },
        {
          "name": "message",
          "type": "bytes"
        }
      ],
      "name": "submitSignature",
      "outputs": [],
      "payable": false,
      "stateMutability": "nonpayable",
      "type": "function"
    },
    {
      "constant": false,
      "inputs": [
        {
          "name": "txHash",
          "type": "bytes32"
        },
        {
          "name": "unlockOnForeign",
          "type": "bool"
        }
      ],
      "name": "fixAssetsAboveLimits",
      "outputs": [],
      "payable": false,
      "stateMutability": "nonpayable",
      "type": "function"
    },
    {
      "constant": true,
      "inputs": [],
      "name": "dailyLimit",
      "outputs": [
        {
          "name": "",
          "type": "uint256"
        }
      ],
      "payable": false,
      "stateMutability": "view",
      "type": "function"
    },
    {
      "constant": false,
      "inputs": [
        {
          "name": "_token",
          "type": "address"
        },
        {
          "name": "_to",
          "type": "address"
        }
      ],
      "name": "claimTokens",
      "outputs": [],
      "payable": false,
      "stateMutability": "nonpayable",
      "type": "function"
    },
    {
      "constant": true,
      "inputs": [
        {
          "name": "_withdrawal",
          "type": "bytes32"
        }
      ],
      "name": "numAffirmationsSigned",
      "outputs": [
        {
          "name": "",
          "type": "uint256"
        }
      ],
      "payable": false,
      "stateMutability": "view",
      "type": "function"
    },
    {
      "constant": true,
      "inputs": [
        {
          "name": "_withdrawal",
          "type": "bytes32"
        }
      ],
      "name": "affirmationsSigned",
      "outputs": [
        {
          "name": "",
          "type": "bool"
        }
      ],
      "payable": false,
      "stateMutability": "view",
      "type": "function"
    },
    {
      "constant": true,
      "inputs": [
        {
          "name": "_amount",
          "type": "uint256"
        }
      ],
      "name": "withinExecutionLimit",
      "outputs": [
        {
          "name": "",
          "type": "bool"
        }
      ],
      "payable": false,
      "stateMutability": "view",
      "type": "function"
    },
    {
      "constant": true,
      "inputs": [],
      "name": "executionMaxPerTx",
      "outputs": [
        {
          "name": "",
          "type": "uint256"
        }
      ],
      "payable": false,
      "stateMutability": "view",
      "type": "function"
    },
    {
      "constant": true,
      "inputs": [],
      "name": "requiredSignatures",
      "outputs": [
        {
          "name": "",
          "type": "uint256"
        }
      ],
      "payable": false,
      "stateMutability": "view",
      "type": "function"
    },
    {
      "constant": true,
      "inputs": [],
      "name": "owner",
      "outputs": [
        {
          "name": "",
          "type": "address"
        }
      ],
      "payable": false,
      "stateMutability": "view",
      "type": "function"
    },
    {
      "constant": true,
      "inputs": [
        {
          "name": "_message",
          "type": "bytes32"
        }
      ],
      "name": "messagesSigned",
      "outputs": [
        {
          "name": "",
          "type": "bool"
        }
      ],
      "payable": false,
      "stateMutability": "view",
      "type": "function"
    },
    {
      "constant": true,
      "inputs": [],
      "name": "getHomeFee",
      "outputs": [
        {
          "name": "",
          "type": "uint256"
        }
      ],
      "payable": false,
      "stateMutability": "view",
      "type": "function"
    },
    {
      "constant": true,
      "inputs": [],
      "name": "validatorContract",
      "outputs": [
        {
          "name": "",
          "type": "address"
        }
      ],
      "payable": false,
      "stateMutability": "view",
      "type": "function"
    },
    {
      "constant": false,
      "inputs": [
        {
          "name": "recipient",
          "type": "address"
        },
        {
          "name": "value",
          "type": "uint256"
        },
        {
          "name": "transactionHash",
          "type": "bytes32"
        }
      ],
      "name": "executeAffirmation",
      "outputs": [],
      "payable": false,
      "stateMutability": "nonpayable",
      "type": "function"
    },
    {
      "constant": true,
      "inputs": [],
      "name": "deployedAtBlock",
      "outputs": [
        {
          "name": "",
          "type": "uint256"
        }
      ],
      "payable": false,
      "stateMutability": "view",
      "type": "function"
    },
    {
      "constant": true,
      "inputs": [],
      "name": "getBridgeInterfacesVersion",
      "outputs": [
        {
          "name": "major",
          "type": "uint64"
        },
        {
          "name": "minor",
          "type": "uint64"
        },
        {
          "name": "patch",
          "type": "uint64"
        }
      ],
      "payable": false,
      "stateMutability": "pure",
      "type": "function"
    },
    {
      "constant": true,
      "inputs": [],
      "name": "outOfLimitAmount",
      "outputs": [
        {
          "name": "",
          "type": "uint256"
        }
      ],
      "payable": false,
      "stateMutability": "view",
      "type": "function"
    },
    {
      "constant": false,
      "inputs": [
        {
          "name": "_minPerTx",
          "type": "uint256"
        }
      ],
      "name": "setMinPerTx",
      "outputs": [],
      "payable": false,
      "stateMutability": "nonpayable",
      "type": "function"
    },
    {
      "constant": false,
      "inputs": [
        {
          "name": "_from",
          "type": "address"
        },
        {
          "name": "_value",
          "type": "uint256"
        },
        {
          "name": "",
          "type": "bytes"
        }
      ],
      "name": "onTokenTransfer",
      "outputs": [
        {
          "name": "",
          "type": "bool"
        }
      ],
      "payable": false,
      "stateMutability": "nonpayable",
      "type": "function"
    },
    {
      "constant": false,
      "inputs": [
        {
          "name": "_blockConfirmations",
          "type": "uint256"
        }
      ],
      "name": "setRequiredBlockConfirmations",
      "outputs": [],
      "payable": false,
      "stateMutability": "nonpayable",
      "type": "function"
    },
    {
      "constant": false,
      "inputs": [
        {
          "name": "_dailyLimit",
          "type": "uint256"
        }
      ],
      "name": "setDailyLimit",
      "outputs": [],
      "payable": false,
      "stateMutability": "nonpayable",
      "type": "function"
    },
    {
      "constant": false,
      "inputs": [
        {
          "name": "_gasPrice",
          "type": "uint256"
        }
      ],
      "name": "setGasPrice",
      "outputs": [],
      "payable": false,
      "stateMutability": "nonpayable",
      "type": "function"
    },
    {
      "constant": false,
      "inputs": [
        {
          "name": "_maxPerTx",
          "type": "uint256"
        }
      ],
      "name": "setMaxPerTx",
      "outputs": [],
      "payable": false,
      "stateMutability": "nonpayable",
      "type": "function"
    },
    {
      "constant": true,
      "inputs": [],
      "name": "feeManagerContract",
      "outputs": [
        {
          "name": "",
          "type": "address"
        }
      ],
      "payable": false,
      "stateMutability": "view",
      "type": "function"
    },
    {
      "constant": true,
      "inputs": [],
      "name": "upgradeabilityAdmin",
      "outputs": [
        {
          "name": "",
          "type": "address"
        }
      ],
      "payable": false,
      "stateMutability": "view",
      "type": "function"
    },
    {
      "constant": true,
      "inputs": [],
      "name": "minPerTx",
      "outputs": [
        {
          "name": "",
          "type": "uint256"
        }
      ],
      "payable": false,
      "stateMutability": "view",
      "type": "function"
    },
    {
      "constant": true,
      "inputs": [
        {
          "name": "_amount",
          "type": "uint256"
        }
      ],
      "name": "withinLimit",
      "outputs": [
        {
          "name": "",
          "type": "bool"
        }
      ],
      "payable": false,
      "stateMutability": "view",
      "type": "function"
    },
    {
      "constant": false,
      "inputs": [
        {
          "name": "_maxPerTx",
          "type": "uint256"
        }
      ],
      "name": "setExecutionMaxPerTx",
      "outputs": [],
      "payable": false,
      "stateMutability": "nonpayable",
      "type": "function"
    },
    {
      "constant": true,
      "inputs": [],
      "name": "getFeeManagerMode",
      "outputs": [
        {
          "name": "",
          "type": "bytes4"
        }
      ],
      "payable": false,
      "stateMutability": "view",
      "type": "function"
    },
    {
      "constant": false,
      "inputs": [
        {
          "name": "newOwner",
          "type": "address"
        }
      ],
      "name": "transferOwnership",
      "outputs": [],
      "payable": false,
      "stateMutability": "nonpayable",
      "type": "function"
    },
    {
      "constant": true,
      "inputs": [],
      "name": "maxPerTx",
      "outputs": [
        {
          "name": "",
          "type": "uint256"
        }
      ],
      "payable": false,
      "stateMutability": "view",
      "type": "function"
    },
    {
      "constant": true,
      "inputs": [],
      "name": "gasPrice",
      "outputs": [
        {
          "name": "",
          "type": "uint256"
        }
      ],
      "payable": false,
      "stateMutability": "view",
      "type": "function"
    },
    {
      "constant": true,
      "inputs": [
        {
          "name": "_number",
          "type": "uint256"
        }
      ],
      "name": "isAlreadyProcessed",
      "outputs": [
        {
          "name": "",
          "type": "bool"
        }
      ],
      "payable": false,
      "stateMutability": "pure",
      "type": "function"
    },
    {
      "constant": true,
      "inputs": [],
      "name": "getForeignFee",
      "outputs": [
        {
          "name": "",
          "type": "uint256"
        }
      ],
      "payable": false,
      "stateMutability": "view",
      "type": "function"
    },
    {
      "payable": true,
      "stateMutability": "payable",
      "type": "fallback"
    },
    {
      "anonymous": false,
      "inputs": [
        {
          "indexed": false,
          "name": "recipient",
          "type": "address"
        },
        {
          "indexed": false,
          "name": "value",
          "type": "uint256"
        },
        {
          "indexed": false,
          "name": "transactionHash",
          "type": "bytes32"
        }
      ],
      "name": "AmountLimitExceeded",
      "type": "event"
    },
    {
      "anonymous": false,
      "inputs": [
        {
          "indexed": false,
          "name": "feeAmount",
          "type": "uint256"
        },
        {
          "indexed": true,
          "name": "transactionHash",
          "type": "bytes32"
        }
      ],
      "name": "FeeDistributedFromAffirmation",
      "type": "event"
    },
    {
      "anonymous": false,
      "inputs": [
        {
          "indexed": false,
          "name": "feeAmount",
          "type": "uint256"
        },
        {
          "indexed": true,
          "name": "transactionHash",
          "type": "bytes32"
        }
      ],
      "name": "FeeDistributedFromSignatures",
      "type": "event"
    },
    {
      "anonymous": false,
      "inputs": [
        {
          "indexed": false,
          "name": "recipient",
          "type": "address"
        },
        {
          "indexed": false,
          "name": "value",
          "type": "uint256"
        }
      ],
      "name": "UserRequestForSignature",
      "type": "event"
    },
    {
      "anonymous": false,
      "inputs": [
        {
          "indexed": false,
          "name": "recipient",
          "type": "address"
        },
        {
          "indexed": false,
          "name": "value",
          "type": "uint256"
        },
        {
          "indexed": false,
          "name": "transactionHash",
          "type": "bytes32"
        }
      ],
      "name": "AffirmationCompleted",
      "type": "event"
    },
    {
      "anonymous": false,
      "inputs": [
        {
          "indexed": true,
          "name": "signer",
          "type": "address"
        },
        {
          "indexed": false,
          "name": "messageHash",
          "type": "bytes32"
        }
      ],
      "name": "SignedForUserRequest",
      "type": "event"
    },
    {
      "anonymous": false,
      "inputs": [
        {
          "indexed": true,
          "name": "signer",
          "type": "address"
        },
        {
          "indexed": false,
          "name": "transactionHash",
          "type": "bytes32"
        }
      ],
      "name": "SignedForAffirmation",
      "type": "event"
    },
    {
      "anonymous": false,
      "inputs": [
        {
          "indexed": false,
          "name": "authorityResponsibleForRelay",
          "type": "address"
        },
        {
          "indexed": false,
          "name": "messageHash",
          "type": "bytes32"
        },
        {
          "indexed": false,
          "name": "NumberOfCollectedSignatures",
          "type": "uint256"
        }
      ],
      "name": "CollectedSignatures",
      "type": "event"
    },
    {
      "anonymous": false,
      "inputs": [
        {
          "indexed": false,
          "name": "gasPrice",
          "type": "uint256"
        }
      ],
      "name": "GasPriceChanged",
      "type": "event"
    },
    {
      "anonymous": false,
      "inputs": [
        {
          "indexed": false,
          "name": "requiredBlockConfirmations",
          "type": "uint256"
        }
      ],
      "name": "RequiredBlockConfirmationChanged",
      "type": "event"
    },
    {
      "anonymous": false,
      "inputs": [
        {
          "indexed": false,
          "name": "newLimit",
          "type": "uint256"
        }
      ],
      "name": "DailyLimitChanged",
      "type": "event"
    },
    {
      "anonymous": false,
      "inputs": [
        {
          "indexed": false,
          "name": "newLimit",
          "type": "uint256"
        }
      ],
      "name": "ExecutionDailyLimitChanged",
      "type": "event"
    },
    {
      "anonymous": false,
      "inputs": [
        {
          "indexed": false,
          "name": "previousOwner",
          "type": "address"
        },
        {
          "indexed": false,
          "name": "newOwner",
          "type": "address"
        }
      ],
      "name": "OwnershipTransferred",
      "type": "event"
    },
    {
      "constant": false,
      "inputs": [
        {
          "name": "_validatorContract",
          "type": "address"
        },
        {
          "name": "_dailyLimit",
          "type": "uint256"
        },
        {
          "name": "_maxPerTx",
          "type": "uint256"
        },
        {
          "name": "_minPerTx",
          "type": "uint256"
        },
        {
          "name": "_homeGasPrice",
          "type": "uint256"
        },
        {
          "name": "_requiredBlockConfirmations",
          "type": "uint256"
        },
        {
          "name": "_erc677token",
          "type": "address"
        },
        {
          "name": "_foreignDailyLimit",
          "type": "uint256"
        },
        {
          "name": "_foreignMaxPerTx",
          "type": "uint256"
        },
        {
          "name": "_owner",
          "type": "address"
        }
      ],
      "name": "initialize",
      "outputs": [
        {
          "name": "",
          "type": "bool"
        }
      ],
      "payable": false,
      "stateMutability": "nonpayable",
      "type": "function"
    },
    {
      "constant": false,
      "inputs": [
        {
          "name": "_validatorContract",
          "type": "address"
        },
        {
          "name": "_dailyLimit",
          "type": "uint256"
        },
        {
          "name": "_maxPerTx",
          "type": "uint256"
        },
        {
          "name": "_minPerTx",
          "type": "uint256"
        },
        {
          "name": "_homeGasPrice",
          "type": "uint256"
        },
        {
          "name": "_requiredBlockConfirmations",
          "type": "uint256"
        },
        {
          "name": "_erc677token",
          "type": "address"
        },
        {
          "name": "_foreignDailyLimit",
          "type": "uint256"
        },
        {
          "name": "_foreignMaxPerTx",
          "type": "uint256"
        },
        {
          "name": "_owner",
          "type": "address"
        },
        {
          "name": "_feeManager",
          "type": "address"
        },
        {
          "name": "_homeFee",
          "type": "uint256"
        },
        {
          "name": "_foreignFee",
          "type": "uint256"
        }
      ],
      "name": "rewardableInitialize",
      "outputs": [
        {
          "name": "",
          "type": "bool"
        }
      ],
      "payable": false,
      "stateMutability": "nonpayable",
      "type": "function"
    },
    {
      "constant": true,
      "inputs": [],
      "name": "getBridgeMode",
      "outputs": [
        {
          "name": "_data",
          "type": "bytes4"
        }
      ],
      "payable": false,
      "stateMutability": "pure",
      "type": "function"
    }
  ],
  "bytecode": "0x608060405234801561001057600080fd5b5061513d806100206000396000f3006080604052600436106102635763ffffffff60e060020a6000350416630cbf060181146102685780631812d9961461029257806318d8f9c914610322578063286c4066146103535780632888bb9c1461036d5780632bd0bb051461039957806334a9e148146103b1578063392e53cd146103c95780633dd95d1b146103de5780633e6968b6146103f65780633f0a9f651461040b578063408fef2e14610420578063437764df1461043557806343b37dd31461047c578063490a32c6146104915780634fb3fef7146104a957806354a2b2b8146104c157806360756f7c1461050c57806362d4ed341461052d578063630cea8e1461058757806364d188eb146105b357806367eeba0c146105d057806369ffa08a146105e55780636ae1a9761461060c5780637698da2414610624578063879ce6761461063c5780638aa1949a146106545780638d068043146106695780638da5cb5b1461067e5780638f4b4b981461069357806394da17cd146106ab57806399439089146106c0578063995b2cff146106d55780639a454b99146106fc5780639cb7595a14610711578063a018934514610752578063a2a6ca2714610767578063a4c0ed361461077f578063acf5c689146107b0578063b20d30a9146107c8578063bf1fe420146107e0578063c6f6f216146107f8578063dbe03a8b14610810578063df0ad3de14610825578063df25f3f01461083a578063ea9f49681461084f578063f20151e114610867578063f2ba95611461087f578063f2fde38b14610894578063f968adbe146108b5578063fe173b97146108ca578063ffd19e8c146108df578063ffd66196146108f7575b600080fd5b34801561027457600080fd5b5061028060043561090c565b60408051918252519081900360200190f35b34801561029e57600080fd5b506102ad6004356024356109d1565b6040805160208082528351818301528351919283929083019185019080838360005b838110156102e75781810151838201526020016102cf565b50505050905090810190601f1680156103145780820380516001836020036101000a031916815260200191505b509250505060405180910390f35b34801561032e57600080fd5b50610337610a68565b60408051600160a060020a039092168252519081900360200190f35b34801561035f57600080fd5b5061036b600435610b27565b005b34801561037957600080fd5b50610385600435610be1565b604080519115158252519081900360200190f35b3480156103a557600080fd5b50610280600435610caa565b3480156103bd57600080fd5b5061036b600435610d25565b3480156103d557600080fd5b50610385610da9565b3480156103ea57600080fd5b5061036b600435610e61565b34801561040257600080fd5b50610280610f63565b34801561041757600080fd5b50610280610f6c565b34801561042c57600080fd5b50610280611020565b34801561044157600080fd5b5061044a61102f565b604080517bffffffffffffffffffffffffffffffffffffffffffffffffffffffff199092168252519081900360200190f35b34801561048857600080fd5b506102806110d2565b34801561049d57600080fd5b506102ad600435611145565b3480156104b557600080fd5b50610280600435611156565b3480156104cd57600080fd5b50610385600160a060020a036004358116906024359060443590606435906084359060a4359060c43581169060e43590610104359061012435166111d1565b34801561051857600080fd5b5061036b600160a060020a0360043516611209565b34801561053957600080fd5b50610385600160a060020a036004358116906024359060443590606435906084359060a4359060c43581169060e4359061010435906101243581169061014435166101643561018435611327565b34801561059357600080fd5b5061036b6024600480358281019290820135918135918201910135611365565b3480156105bf57600080fd5b5061036b60043560243515156117f8565b3480156105dc57600080fd5b506102806118d7565b3480156105f157600080fd5b5061036b600160a060020a036004358116906024351661194a565b34801561061857600080fd5b50610280600435611b00565b34801561063057600080fd5b50610385600435611b83565b34801561064857600080fd5b50610385600435611c07565b34801561066057600080fd5b50610280611c51565b34801561067557600080fd5b50610280611cc4565b34801561068a57600080fd5b50610337611d3c565b34801561069f57600080fd5b50610385600435611db0565b3480156106b757600080fd5b50610280611e34565b3480156106cc57600080fd5b50610337611ec8565b3480156106e157600080fd5b5061036b600160a060020a0360043516602435604435611f3c565b34801561070857600080fd5b50610280612236565b34801561071d57600080fd5b506107266122a9565b6040805167ffffffffffffffff9485168152928416602084015292168183015290519081900360600190f35b34801561075e57600080fd5b506102806122b3565b34801561077357600080fd5b5061036b600435612326565b34801561078b57600080fd5b5061038560048035600160a060020a031690602480359160443591820191013561241d565b3480156107bc57600080fd5b5061036b60043561248e565b3480156107d457600080fd5b5061036b60043561259d565b3480156107ec57600080fd5b5061036b60043561269f565b34801561080457600080fd5b5061036b6004356127ae565b34801561081c57600080fd5b5061033761284f565b34801561083157600080fd5b506103376128c3565b34801561084657600080fd5b50610280612903565b34801561085b57600080fd5b50610385600435612976565b34801561087357600080fd5b5061036b6004356129c1565b34801561088b57600080fd5b5061044a612a62565b3480156108a057600080fd5b5061036b600160a060020a0360043516612ad9565b3480156108c157600080fd5b50610280612b13565b3480156108d657600080fd5b50610280612b86565b3480156108eb57600080fd5b50610385600435612bf9565b34801561090357600080fd5b50610280612c21565b60008060008360405160200180807f6e756d4d657373616765735369676e656400000000000000000000000000000081525060110182600019166000191681526020019150506040516020818303038152906040526040518082805190602001908083835b602083106109905780518252601f199092019160209182019101610971565b51815160209384036101000a600019018019909216911617905260408051929094018290039091208652850195909552929092016000205495945050505050565b604080516020808201859052818301849052825180830384018152606092830193849052805192936000939192909182918401908083835b60208310610a285780518252601f199092019160209182019101610a09565b6001836020036101000a03801982511681845116808217855250505050505090500191505060405180910390209050610a6081612c82565b949350505050565b60006002600060405160200180807f657263363737746f6b656e000000000000000000000000000000000000000000815250600b0190506040516020818303038152906040526040518082805190602001908083835b60208310610add5780518252601f199092019160209182019101610abe565b51815160209384036101000a6000190180199092169116179052604080519290940182900390912086528501959095529290920160002054600160a060020a031693505050505b90565b610b2f611d3c565b600160a060020a03163314610b4357600080fd5b610bde610b4e61284f565b8260405160200180806000805160206150d2833981519152815250600b0190506040516020818303038152906040526040518082805190602001908083835b60208310610bac5780518252601f199092019160209182019101610b8d565b6001836020036101000a0380198251168184511680821785525050505050509050019150506040518091039020612dea565b50565b6000600460008360405160200180807f6669786564417373657473000000000000000000000000000000000000000000815250600b0182600019166000191681526020019150506040516020818303038152906040526040518082805190602001908083835b60208310610c665780518252601f199092019160209182019101610c47565b51815160209384036101000a600019018019909216911617905260408051929094018290039091208652850195909552929092016000205460ff1695945050505050565b60008060008360405160200180807f746f74616c5370656e7450657244617900000000000000000000000000000000815250601001828152602001915050604051602081830303815290604052604051808280519060200190808383602083106109905780518252601f199092019160209182019101610971565b610d2d611d3c565b600160a060020a03163314610d4157600080fd5b610bde610d4c61284f565b8260405160200180806000805160206150f2833981519152815250600801905060405160208183030381529060405260405180828051906020019080838360208310610bac5780518252601f199092019160209182019101610b8d565b60006004600060405160200180807f6973496e697469616c697a656400000000000000000000000000000000000000815250600d0190506040516020818303038152906040526040518082805190602001908083835b60208310610e1e5780518252601f199092019160209182019101610dff565b51815160209384036101000a600019018019909216911617905260408051929094018290039091208652850195909552929092016000205460ff16949350505050565b610e69611d3c565b600160a060020a03163314610e7d57600080fd5b8060008060405160200180807f657865637574696f6e4461696c794c696d69740000000000000000000000000081525060130190506040516020818303038152906040526040518082805190602001908083835b60208310610ef05780518252601f199092019160209182019101610ed1565b51815160001960209485036101000a019081169019919091161790526040805194909201849003909320865285830196909652509284016000209490945550815184815291517f9bebf928b90863f24cc31f726a3a7545efd409f1dcf552301b1ee3710da70d3b9350918290030190a150565b62015180420490565b600080600060405160200180807f7265717569726564426c6f636b436f6e6669726d6174696f6e73000000000000815250601a0190506040516020818303038152906040526040518082805190602001908083835b60208310610fe05780518252601f199092019160209182019101610fc1565b51815160209384036101000a6000190180199092169116179052604080519290940182900390912086528501959095529290920160002054949350505050565b600061102a61301b565b905090565b600060405160200180807f6572632d746f2d6572632d636f72650000000000000000000000000000000000815250600f0190506040516020818303038152906040526040518082805190602001908083835b602083106110a05780518252601f199092019160209182019101611081565b6001836020036101000a0380198251168184511680821785525050505050509050019150506040518091039020905090565b600080600060405160200180807f657865637574696f6e4461696c794c696d697400000000000000000000000000815250601301905060405160208183030381529060405260405180828051906020019080838360208310610fe05780518252601f199092019160209182019101610fc1565b606061115082613020565b92915050565b60008060008360405160200180807f746f74616c457865637574656450657244617900000000000000000000000000815250601301828152602001915050604051602081830303815290604052604051808280519060200190808383602083106109905780518252601f199092019160209182019101610971565b60006111e58b8b8b8b8b8b8b8b8b8b6130a4565b506111f0600161377d565b6111f8610da9565b90505b9a9950505050505050505050565b611211611d3c565b600160a060020a0316331461122557600080fd5b600160a060020a038116158061123f575061123f8161383e565b151561124a57600080fd5b806002600060405160200180807f6665654d616e61676572436f6e7472616374000000000000000000000000000081525060120190506040516020818303038152906040526040518082805190602001908083835b602083106112be5780518252601f19909201916020918201910161129f565b51815160209384036101000a60001901801990921691161790526040805192909401829003909120865285019590955292909201600020805473ffffffffffffffffffffffffffffffffffffffff1916600160a060020a03959095169490941790935550505050565b600061133e8e8e8e8e8e8e8e8e8e8e8e8e8e613846565b50611349600161377d565b611351610da9565b90505b9d9c50505050505050505050505050565b6000806000806000611375611ec8565b600160a060020a031663facd743b336040518263ffffffff1660e060020a0281526004018082600160a060020a0316600160a060020a03168152602001915050602060405180830381600087803b1580156113cf57600080fd5b505af11580156113e3573d6000803e3d6000fd5b505050506040513d60208110156113f957600080fd5b5051151561140657600080fd5b61143f87878080601f01602080910402602001604051908101604052809392919081815260200183838082843750613a07945050505050565b151561144a57600080fd5b6114b189898080601f0160208091040260200160405190810160405280939291908181526020018383808284375050604080516020601f8f018190048102820181019092528d815294508d93508c9250829150840183828082843750613a1b945050505050565b600160a060020a031633146114c557600080fd5b8686604051602001808383808284378201915050925050506040516020818303038152906040526040518082805190602001908083835b6020831061151b5780518252601f1990920191602091820191016114fc565b51815160209384036101000a600019018019909216911617905260408051929094018290038220336c0100000000000000000000000002838301526034808401829052855180850390910181526054909301948590528251909b509195509293508392850191508083835b602083106115a55780518252601f199092019160209182019101611586565b6001836020036101000a038019825116818451168082178552505050505050905001915050604051809103902093506115dd8561090c565b92506115e883612bf9565b156115f257600080fd5b6001928301928311156116175761160884611db0565b1561161257600080fd5b611651565b6116518588888080601f01602080910402602001604051908101604052809392919081815260200183838082843750613adb945050505050565b61165c846001613bb2565b604080516020808201889052600019860182840152825180830384018152606090920192839052815191929182918401908083835b602083106116b05780518252601f199092019160209182019101611691565b51815160209384036101000a600019018019909216911617905260408051929094018290038220601f8f018290048202830182019094528d82529296506117119450869350918d91508c908190840183828082843750613c84945050505050565b61171b8584613d07565b60408051868152905133917fbf06885f40778f5ccfb64497d3f92ce568ddaedb7e2fb4487f72690418cf8e4c919081900360200190a2611759611cc4565b90508083106117ed576117748561176f85613dcc565b613d07565b604080513381526020810187905280820183905290517f415557404d88a0c0b8e3b16967cafffc511213fd9c465c16832ee17ed57d72379181900360600190a16117ed87878080601f01602080910402602001604051908101604052809392919081815260200183838082843750613df1945050505050565b505050505050505050565b6000806118036128c3565b600160a060020a0316331461181757600080fd5b61182084610be1565b1561182a57600080fd5b61183384613ed8565b9092509050600160a060020a038216158015906118505750600081115b151561185b57600080fd5b61187b6118768261186a6122b3565b9063ffffffff61405f16565b614071565b82156118c65760408051600160a060020a03841681526020810183905281517f127650bcfb0ba017401abe4931453a405140a8fd36fece67bae2db174d3fdd63929181900390910190a15b6118d18460016140e3565b50505050565b600080600060405160200180807f6461696c794c696d697400000000000000000000000000000000000000000000815250600a01905060405160208183030381529060405260405180828051906020019080838360208310610fe05780518252601f199092019160209182019101610fc1565b6000806119556128c3565b600160a060020a0316331461196957600080fd5b600160a060020a038316151561197e57600080fd5b600160a060020a03841615156119ca57604051600160a060020a03841690303180156108fc02916000818181858888f193505050501580156119c4573d6000803e3d6000fd5b506118d1565b604080517f70a082310000000000000000000000000000000000000000000000000000000081523060048201529051859350600160a060020a038416916370a082319160248083019260209291908290030181600087803b158015611a2e57600080fd5b505af1158015611a42573d6000803e3d6000fd5b505050506040513d6020811015611a5857600080fd5b5051604080517fa9059cbb000000000000000000000000000000000000000000000000000000008152600160a060020a0386811660048301526024820184905291519293509084169163a9059cbb916044808201926020929091908290030181600087803b158015611ac957600080fd5b505af1158015611add573d6000803e3d6000fd5b505050506040513d6020811015611af357600080fd5b505115156118d157600080fd5b60008060008360405160200180807f6e756d41666669726d6174696f6e735369676e656400000000000000000000008152506015018260001916600019168152602001915050604051602081830303815290604052604051808280519060200190808383602083106109905780518252601f199092019160209182019101610971565b6000600460008360405160200180807f61666669726d6174696f6e735369676e65640000000000000000000000000000815250601201826000191660001916815260200191505060405160208183030381529060405260405180828051906020019080838360208310610c665780518252601f199092019160209182019101610c47565b600080611c2a83611c1e611c19610f63565b611156565b9063ffffffff61416616565b905080611c356110d2565b10158015611c4a5750611c46611c51565b8311155b9392505050565b600080600060405160200180807f657865637574696f6e4d61785065725478000000000000000000000000000000815250601101905060405160208183030381529060405260405180828051906020019080838360208310610fe05780518252601f199092019160209182019101610fc1565b6000611cce611ec8565b600160a060020a0316638d0680436040518163ffffffff1660e060020a028152600401602060405180830381600087803b158015611d0b57600080fd5b505af1158015611d1f573d6000803e3d6000fd5b505050506040513d6020811015611d3557600080fd5b5051905090565b60006002600060405160200180807f6f776e6572000000000000000000000000000000000000000000000000000000815250600501905060405160208183030381529060405260405180828051906020019080838360208310610add5780518252601f199092019160209182019101610abe565b6000600460008360405160200180807f6d657373616765735369676e6564000000000000000000000000000000000000815250600e01826000191660001916815260200191505060405160208183030381529060405260405180828051906020019080838360208310610c665780518252601f199092019160209182019101610c47565b600061102a60405160200180806000805160206150f283398151915281525060080190506040516020818303038152906040526040518082805190602001908083835b60208310611e965780518252601f199092019160209182019101611e77565b6001836020036101000a0380198251168184511680821785525050505050509050019150506040518091039020614175565b60006002600060405160200180807f76616c696461746f72436f6e7472616374000000000000000000000000000000815250601101905060405160208183030381529060405260405180828051906020019080838360208310610add5780518252601f199092019160209182019101610abe565b6000806000611f49611ec8565b600160a060020a031663facd743b336040518263ffffffff1660e060020a0281526004018082600160a060020a0316600160a060020a03168152602001915050602060405180830381600087803b158015611fa357600080fd5b505af1158015611fb7573d6000803e3d6000fd5b505050506040513d6020811015611fcd57600080fd5b50511515611fda57600080fd5b611fe385614351565b1561222357604080516c01000000000000000000000000600160a060020a0389160260208083019190915260348201889052605480830188905283518084039091018152607490920192839052815191929182918401908083835b6020831061205d5780518252601f19909201916020918201910161203e565b51815160209384036101000a600019018019909216911617905260408051929094018290038220336c01000000000000000000000000028383015260348084018290528551808503909101815260549093019485905282519099509195509293508392850191508083835b602083106120e75780518252601f1990920191602091820191016120c8565b6001836020036101000a0380198251168184511680821785525050505050509050019150506040518091039020915061211f82611b83565b1561212957600080fd5b61213482600161435c565b61213d83611b00565b905061214881612bf9565b1561215257600080fd5b60010161215f83826143df565b60408051858152905133917f5df9cc3eb93d8a9a481857a3b70a8ca966e6b80b25cf0ee2cce180ec5afa80a1919081900360200190a261219d611cc4565b811061221e576121b5836121b083613dcc565b6143df565b60008511156121d4576121c9868686614461565b15156121d457600080fd5b60408051600160a060020a03881681526020810187905280820186905290517f6fc115a803b8703117d9a3956c5a15401cb42401f91630f015eb6b043fa762539181900360600190a15b61222e565b61222e8686866145c6565b505050505050565b600080600060405160200180807f6465706c6f7965644174426c6f636b0000000000000000000000000000000000815250600f01905060405160208183030381529060405260405180828051906020019080838360208310610fe05780518252601f199092019160209182019101610fc1565b6002806000909192565b600080600060405160200180807f6f75744f664c696d6974416d6f756e7400000000000000000000000000000000815250601001905060405160208183030381529060405260405180828051906020019080838360208310610fe05780518252601f199092019160209182019101610fc1565b61232e611d3c565b600160a060020a0316331461234257600080fd5b61234a6118d7565b8110801561235e575061235b612b13565b81105b151561236957600080fd5b8060008060405160200180807f6d696e506572547800000000000000000000000000000000000000000000000081525060080190506040516020818303038152906040526040518082805190602001908083835b602083106123dc5780518252601f1990920191602091820191016123bd565b51815160209384036101000a600019018019909216911617905260408051929094018290039091208652850195909552929092016000209390935550505050565b600080612428610a68565b905033600160a060020a0382161461243f57600080fd5b61244885612976565b151561245357600080fd5b61247761245e610f63565b61247287611c1e61246d610f63565b610caa565b614661565b6124828187876146db565b50600195945050505050565b612496611d3c565b600160a060020a031633146124aa57600080fd5b600081116124b757600080fd5b8060008060405160200180807f7265717569726564426c6f636b436f6e6669726d6174696f6e73000000000000815250601a0190506040516020818303038152906040526040518082805190602001908083835b6020831061252a5780518252601f19909201916020918201910161250b565b51815160001960209485036101000a019081169019919091161790526040805194909201849003909320865285830196909652509284016000209490945550815184815291517f4fb76205cd57c896b21511d2114137d8e901b4ccd659e1a0f97d6306795264fb9350918290030190a150565b6125a5611d3c565b600160a060020a031633146125b957600080fd5b8060008060405160200180807f6461696c794c696d697400000000000000000000000000000000000000000000815250600a0190506040516020818303038152906040526040518082805190602001908083835b6020831061262c5780518252601f19909201916020918201910161260d565b51815160001960209485036101000a019081169019919091161790526040805194909201849003909320865285830196909652509284016000209490945550815184815291517fad4123ae17c414d9c6d2fec478b402e6b01856cc250fd01fbfd252fda0089d3c9350918290030190a150565b6126a7611d3c565b600160a060020a031633146126bb57600080fd5b600081116126c857600080fd5b8060008060405160200180807f676173507269636500000000000000000000000000000000000000000000000081525060080190506040516020818303038152906040526040518082805190602001908083835b6020831061273b5780518252601f19909201916020918201910161271c565b51815160001960209485036101000a019081169019919091161790526040805194909201849003909320865285830196909652509284016000209490945550815184815291517f52264b89e0fceafb26e79fd49ef8a366eb6297483bf4035b027f0c99a7ad512e9350918290030190a150565b6127b6611d3c565b600160a060020a031633146127ca57600080fd5b6127d26118d7565b81106127dd57600080fd5b8060008060405160200180807f6d617850657254780000000000000000000000000000000000000000000000008152506008019050604051602081830303815290604052604051808280519060200190808383602083106123dc5780518252601f1990920191602091820191016123bd565b60006002600060405160200180807f6665654d616e61676572436f6e74726163740000000000000000000000000000815250601201905060405160208183030381529060405260405180828051906020019080838360208310610add5780518252601f199092019160209182019101610abe565b600030600160a060020a031663025313a26040518163ffffffff1660e060020a028152600401602060405180830381600087803b158015611d0b57600080fd5b600080600060405160200180807f6d696e5065725478000000000000000000000000000000000000000000000000815250600801905060405160208183030381529060405260405180828051906020019080838360208310610fe05780518252601f199092019160209182019101610fc1565b60008061298883611c1e61246d610f63565b9050806129936118d7565b101580156129a857506129a4612b13565b8311155b8015611c4a57506129b7612903565b9092101592915050565b6129c9611d3c565b600160a060020a031633146129dd57600080fd5b6129e56110d2565b81106129f057600080fd5b8060008060405160200180807f657865637574696f6e4d617850657254780000000000000000000000000000008152506011019050604051602081830303815290604052604051808280519060200190808383602083106123dc5780518252601f1990920191602091820191016123bd565b604080516004815260248101909152602081018051600160e060020a03167ff2ba956100000000000000000000000000000000000000000000000000000000179052600090819081612ab261284f565b9050600460008351602085016000855af26000519350808015610263575092949350505050565b612ae1611d3c565b600160a060020a03163314612af557600080fd5b600160a060020a0381161515612b0a57600080fd5b610bde81614746565b600080600060405160200180807f6d61785065725478000000000000000000000000000000000000000000000000815250600801905060405160208183030381529060405260405180828051906020019080838360208310610fe05780518252601f199092019160209182019101610fc1565b600080600060405160200180807f6761735072696365000000000000000000000000000000000000000000000000815250600801905060405160208183030381529060405260405180828051906020019080838360208310610fe05780518252601f199092019160209182019101610fc1565b7f80000000000000000000000000000000000000000000000000000000000000009081161490565b600061102a60405160200180806000805160206150d2833981519152815250600b01905060405160208183030381529060405260405180828051906020019080838360208310611e965780518252601f199092019160209182019101611e77565b6060600360008360405160200180807f7369676e61747572657300000000000000000000000000000000000000000000815250600a0182600019166000191681526020019150506040516020818303038152906040526040518082805190602001908083835b60208310612d075780518252601f199092019160209182019101612ce8565b6001836020036101000a0380198251168184511680821785525050505050509050019150506040518091039020600019166000191681526020019081526020016000208054600181600116156101000203166002900480601f016020809104026020016040519081016040528092919081815260200182805460018160011615610100020316600290048015612dde5780601f10612db357610100808354040283529160200191612dde565b820191906000526020600020905b815481529060010190602001808311612dc157829003601f168201915b50505050509050919050565b606060405160200180806000805160206150f283398151915281525060080190506040516020818303038152906040526040518082805190602001908083835b60208310612e495780518252601f199092019160209182019101612e2a565b5181516020939093036101000a6000190180199091169216919091179052604051920182900390912085149250612eb69150505760408051808201909152601681527f736574466f726569676e4665652875696e7432353629000000000000000000006020820152612eeb565b60408051808201909152601381527f736574486f6d654665652875696e74323536290000000000000000000000000060208201525b905083600160a060020a0316818460405160240180828152602001915050604051602081830303815290604052906040518082805190602001908083835b60208310612f485780518252601f199092019160209182019101612f29565b51815160001960209485036101000a0190811690199190911617905260408051949092018490039093209286018051600160e060020a03167bffffffffffffffffffffffffffffffffffffffffffffffffffffffff19909416939093178352518551909450849350905080838360005b83811015612fd0578181015183820152602001612fb8565b50505050905090810190601f168015612ffd5780820380516001836020036101000a031916815260200191505b50915050600060405180830381855af491505015156118d157600080fd5b606890565b6060600360008360405160200180807f6d65737361676573000000000000000000000000000000000000000000000000815250600801826000191660001916815260200191505060405160208183030381529060405260405180828051906020019080838360208310612d075780518252601f199092019160209182019101612ce8565b60006130ae610da9565b156130b857600080fd5b600160a060020a038b16158015906130d457506130d48b61383e565b15156130df57600080fd5b600087116130ec57600080fd5b600086116130f957600080fd5b60008811801561310857508789115b80156131135750888a115b151561311e57600080fd5b83831061312a57600080fd5b600160a060020a038216151561313f57600080fd5b8a6002600060405160200180807f76616c696461746f72436f6e747261637400000000000000000000000000000081525060110190506040516020818303038152906040526040518082805190602001908083835b602083106131b35780518252601f199092019160209182019101613194565b51815160209384036101000a60001901801990921691161790526040805192909401829003909120865285810196909652509283016000908120805473ffffffffffffffffffffffffffffffffffffffff1916600160a060020a039790971696909617909555505080517f6465706c6f7965644174426c6f636b0000000000000000000000000000000000818401528151600f818303018152602f90910191829052805143949384939182918401908083835b602083106132855780518252601f199092019160209182019101613266565b51815160209384036101000a6000190180199092169116179052604080519290940182900390912086528581019690965250928301600090812095909555505080517f6461696c794c696d697400000000000000000000000000000000000000000000818401528151600a818303018152602a9091019182905280518e949384939182918401908083835b6020831061332f5780518252601f199092019160209182019101613310565b51815160209384036101000a6000190180199092169116179052604080519290940182900390912086528581019690965250928301600090812095909555505080517f6d61785065725478000000000000000000000000000000000000000000000000818401528151600881830301815260289091019182905280518d949384939182918401908083835b602083106133d95780518252601f1990920191602091820191016133ba565b51815160209384036101000a6000190180199092169116179052604080519290940182900390912086528581019690965250928301600090812095909555505080517f6d696e5065725478000000000000000000000000000000000000000000000000818401528151600881830301815260289091019182905280518c949384939182918401908083835b602083106134835780518252601f199092019160209182019101613464565b51815160209384036101000a6000190180199092169116179052604080519290940182900390912086528581019690965250928301600090812095909555505080517f6761735072696365000000000000000000000000000000000000000000000000818401528151600881830301815260289091019182905280518b949384939182918401908083835b6020831061352d5780518252601f19909201916020918201910161350e565b51815160209384036101000a6000190180199092169116179052604080519290940182900390912086528581019690965250928301600090812095909555505080517f7265717569726564426c6f636b436f6e6669726d6174696f6e73000000000000818401528151601a818303018152603a9091019182905280518a949384939182918401908083835b602083106135d75780518252601f1990920191602091820191016135b8565b51815160209384036101000a6000190180199092169116179052604080519290940182900390912086528581019690965250928301600090812095909555505080517f657865637574696f6e4461696c794c696d6974000000000000000000000000008184015281516013818303018152603390910191829052805188949384939182918401908083835b602083106136815780518252601f199092019160209182019101613662565b51815160209384036101000a6000190180199092169116179052604080519290940182900390912086528581019690965250928301600090812095909555505080517f657865637574696f6e4d617850657254780000000000000000000000000000008184015281516011818303018152603190910191829052805187949384939182918401908083835b6020831061372b5780518252601f19909201916020918201910161370c565b51815160209384036101000a6000190180199092169116179052604080519290940182900390912086528501959095529290920160002093909355506137749150839050614746565b6111fb85614804565b806004600060405160200180807f6973496e697469616c697a656400000000000000000000000000000000000000815250600d0190506040516020818303038152906040526040518082805190602001908083835b602083106137f15780518252601f1990920191602091820191016137d2565b51815160209384036101000a60001901801990921691161790526040805192909401829003909120865285019590955292909201600020805460ff19169415159490941790935550505050565b6000903b1190565b600061385a8e8e8e8e8e8e8e8e8e8e6130a4565b506138648461383e565b151561386f57600080fd5b836002600060405160200180807f6665654d616e61676572436f6e7472616374000000000000000000000000000081525060120190506040516020818303038152906040526040518082805190602001908083835b602083106138e35780518252601f1990920191602091820191016138c4565b51815160209384036101000a6000190180199092169116179052604080519290940182900390912086528581019690965250928301600020805473ffffffffffffffffffffffffffffffffffffffff1916600160a060020a0396909616959095179094555080516000805160206150f2833981519152818401528151600881830301815260289091019182905280516139a694508893889391829184810191908190849084908310610bac5780518252601f199092019160209182019101610b8d565b611354848360405160200180806000805160206150d2833981519152815250600b01905060405160208183030381529060405260405180828051906020019080838360208310610bac5780518252601f199092019160209182019101610b8d565b6000613a1161301b565b8251149050919050565b60008060008085516041141515613a3157600080fd5b5050506020830151604084015160608501516001613a4e8661489e565b60408051600080825260208083018085529490945260ff7f0100000000000000000000000000000000000000000000000000000000000000870416828401526060820188905260808201879052915160a08083019493601f198301938390039091019190865af1158015613ac6573d6000803e3d6000fd5b5050604051601f190151979650505050505050565b80600360008460405160200180807f6d6573736167657300000000000000000000000000000000000000000000000081525060080182600019166000191681526020019150506040516020818303038152906040526040518082805190602001908083835b60208310613b5f5780518252601f199092019160209182019101613b40565b51815160001960209485036101000a01908116901991909116179052604080519490920184900390932086528583019690965250929093016000208451613bad959194509201919050615039565b505050565b80600460008460405160200180807f6d657373616765735369676e6564000000000000000000000000000000000000815250600e0182600019166000191681526020019150506040516020818303038152906040526040518082805190602001908083835b60208310613c365780518252601f199092019160209182019101613c17565b51815160209384036101000a60001901801990921691161790526040805192909401829003909120865285019590955292909201600020805460ff1916941515949094179093555050505050565b80600360008460405160200180807f7369676e61747572657300000000000000000000000000000000000000000000815250600a01826000191660001916815260200191505060405160208183030381529060405260405180828051906020019080838360208310613b5f5780518252601f199092019160209182019101613b40565b806000808460405160200180807f6e756d4d657373616765735369676e656400000000000000000000000000000081525060110182600019166000191681526020019150506040516020818303038152906040526040518082805190602001908083835b60208310613d8a5780518252601f199092019160209182019101613d6b565b51815160209384036101000a60001901801990921691161790526040805192909401829003909120865285019590955292909201600020939093555050505050565b7f80000000000000000000000000000000000000000000000000000000000000001790565b600080600080600080613e0261284f565b9550600160a060020a03861615613ecf57613e1c87614a63565b80955081965082975083985050505050613ec28460018860405160200180806000805160206150f283398151915281525060080190506040516020818303038152906040526040518082805190602001908083835b60208310613e905780518252601f199092019160209182019101613e71565b6001836020036101000a0380198251168184511680821785525050505050509050019150506040518091039020614aa9565b9050613ecf818785614b34565b50505050505050565b600080600260008460405160200180807f74784f75744f664c696d6974526563697069656e74000000000000000000000081525060150182600019166000191681526020019150506040516020818303038152906040526040518082805190602001908083835b60208310613f5e5780518252601f199092019160209182019101613f3f565b51815160209384036101000a600019018019909216911617905260408051929094018290039091208652858101969096525092830160009081205484517f74784f75744f664c696d697456616c75650000000000000000000000000000008188015260318082018b9052865180830390910181526051909101958690528051600160a060020a0390921698509195869592945091925082918401908083835b6020831061401c5780518252601f199092019160209182019101613ffd565b51815160209384036101000a6000190180199092169116179052604080519290940182900390912086528501959095529290920160002054949694955050505050565b60008282111561406b57fe5b50900390565b8060008060405160200180807f6f75744f664c696d6974416d6f756e74000000000000000000000000000000008152506010019050604051602081830303815290604052604051808280519060200190808383602083106123dc5780518252601f1990920191602091820191016123bd565b80600460008460405160200180807f6669786564417373657473000000000000000000000000000000000000000000815250600b01826000191660001916815260200191505060405160208183030381529060405260405180828051906020019080838360208310613c365780518252601f199092019160209182019101613c17565b600082820183811015611c4a57fe5b600080600060608061418561284f565b925060405160200180806000805160206150f283398151915281525060080190506040516020818303038152906040526040518082805190602001908083835b602083106141e45780518252601f1990920191602091820191016141c5565b5181516020939093036101000a60001901801990911692169190911790526040519201829003909120891492506142519150505760408051808201909152600f81527f676574466f726569676e466565282900000000000000000000000000000000006020820152614286565b60408051808201909152600c81527f676574486f6d654665652829000000000000000000000000000000000000000060208201525b60408051600481526024810191829052825192945091849190819060208401908083835b602083106142c95780518252601f1990920191602091820191016142aa565b51815160209384036101000a600019018019909216911617905260405191909301819003902085830180517bffffffffffffffffffffffffffffffffffffffffffffffffffffffff19909216600160e060020a0390921691909117815285519596509194600094509250839050875af260005194508080156102635750939695505050505050565b600061115082611c07565b80600460008460405160200180807f61666669726d6174696f6e735369676e65640000000000000000000000000000815250601201826000191660001916815260200191505060405160208183030381529060405260405180828051906020019080838360208310613c365780518252601f199092019160209182019101613c17565b806000808460405160200180807f6e756d41666669726d6174696f6e735369676e65640000000000000000000000815250601501826000191660001916815260200191505060405160208183030381529060405260405180828051906020019080838360208310613d8a5780518252601f199092019160209182019101613d6b565b600080600080614486614472610f63565b61448188611c1e611c19610f63565b614c39565b85925061449161284f565b9150600160a060020a03821615614525576145058360008460405160200180806000805160206150d2833981519152815250600b01905060405160208183030381529060405260405180828051906020019080838360208310613e905780518252601f199092019160209182019101613e71565b9050614512818387614cb3565b614522838263ffffffff61405f16565b92505b61452d610a68565b600160a060020a03166340c10f1988856040518363ffffffff1660e060020a0281526004018083600160a060020a0316600160a060020a0316815260200182815260200192505050602060405180830381600087803b15801561458f57600080fd5b505af11580156145a3573d6000803e3d6000fd5b505050506040513d60208110156145b957600080fd5b5051979650505050505050565b6000806145d283613ed8565b9092509050600160a060020a0382161580156145ec575080155b15156145f757600080fd5b61460661187685611c1e6122b3565b614611858585614db8565b60408051600160a060020a03871681526020810186905280820185905290517f159c0773f543f1e17d5e78327702770947055eb4e871b529bbc78bc9fde456929181900360600190a15050505050565b806000808460405160200180807f746f74616c5370656e745065724461790000000000000000000000000000000081525060100182815260200191505060405160208183030381529060405260405180828051906020019080838360208310613d8a5780518252601f199092019160209182019101613d6b565b82600160a060020a03166342966c68826040518263ffffffff1660e060020a02815260040180828152602001915050600060405180830381600087803b15801561472457600080fd5b505af1158015614738573d6000803e3d6000fd5b50505050613bad8282614f59565b7f8be0079c531659141344cd1fd0a4f28419497f9722a3daafe3b4186f6b6457e061476f611d3c565b60408051600160a060020a03928316815291841660208301528051918290030190a1806002600060405160200180807f6f776e65720000000000000000000000000000000000000000000000000000008152506005019050604051602081830303815290604052604051808280519060200190808383602083106112be5780518252601f19909201916020918201910161129f565b600160a060020a0381161580159061482057506148208161383e565b151561482b57600080fd5b806002600060405160200180807f657263363737746f6b656e000000000000000000000000000000000000000000815250600b019050604051602081830303815290604052604051808280519060200190808383602083106112be5780518252601f19909201916020918201910161129f565b604080518082018252601a81527f19457468657265756d205369676e6564204d6573736167653a0a000000000000602080830191825283518085018552600381527f313034000000000000000000000000000000000000000000000000000000000081830152935183516000959385938593899391019182918083835b6020831061493a5780518252601f19909201916020918201910161491b565b51815160209384036101000a600019018019909216911617905286519190930192860191508083835b602083106149825780518252601f199092019160209182019101614963565b51815160209384036101000a600019018019909216911617905285519190930192850191508083835b602083106149ca5780518252601f1990920191602091820191016149ab565b6001836020036101000a03801982511681845116808217855250505050505090500193505050506040516020818303038152906040526040518082805190602001908083835b60208310614a2f5780518252601f199092019160209182019101614a10565b5181516020939093036101000a60001901801990911692169190911790526040519201829003909120979650505050505050565b600080600080614a7285613a07565b1515614a7d57600080fd5b600160a060020a0360148601511693506034850151925060548501519150606885015190509193509193565b60408051602481018690528415156044820152606480820184905282518083039091018152608490910190915260208181018051600160e060020a03167f9862f26f000000000000000000000000000000000000000000000000000000001781528251600093849390929091849182895af26000519250808015610263575091979650505050505050565b6040805160248082018690528251808303909101815260449091018252602081018051600160e060020a03167f59d784640000000000000000000000000000000000000000000000000000000017815291518151600160a060020a03861693829180838360005b83811015614bb3578181015183820152602001614b9b565b50505050905090810190601f168015614be05780820380516001836020036101000a031916815260200191505b50915050600060405180830381855af49150501515614bfe57600080fd5b60408051848152905182917f858abdcd5efcaebb936e8e8516f0cfe9a0ef5157ff99d16cdabb6db625be90d0919081900360200190a2505050565b806000808460405160200180807f746f74616c45786563757465645065724461790000000000000000000000000081525060130182815260200191505060405160208183030381529060405260405180828051906020019080838360208310613d8a5780518252601f199092019160209182019101613d6b565b6040805160248082018690528251808303909101815260449091018252602081018051600160e060020a03167f054d46ec0000000000000000000000000000000000000000000000000000000017815291518151600160a060020a03861693829180838360005b83811015614d32578181015183820152602001614d1a565b50505050905090810190601f168015614d5f5780820380516001836020036101000a031916815260200191505b50915050600060405180830381855af49150501515614d7d57600080fd5b60408051848152905182917fa52d3c9cbc541772e4edd92e2e4e2a3865ab73630f25deed8a6c8de41ff0f65c919081900360200190a2505050565b82600260008360405160200180807f74784f75744f664c696d6974526563697069656e74000000000000000000000081525060150182600019166000191681526020019150506040516020818303038152906040526040518082805190602001908083835b60208310614e3c5780518252601f199092019160209182019101614e1d565b51815160209384036101000a60001901801990921691161790526040805192909401829003909120865285810196909652509283016000908120805473ffffffffffffffffffffffffffffffffffffffff1916600160a060020a039790971696909617909555505080517f74784f75744f664c696d697456616c756500000000000000000000000000000081840152603180820186905282518083039091018152605190910191829052805186949384939182918401908083835b60208310614f165780518252601f199092019160209182019101614ef7565b51815160209384036101000a6000190180199092169116179052604080519290940182900390912086528501959095529290920160002093909355505050505050565b80600080614f6561284f565b9150600160a060020a03821615614fee57614fd98360008460405160200180806000805160206150f2833981519152815250600801905060405160208183030381529060405260405180828051906020019080838360208310613e905780518252601f199092019160209182019101613e71565b9050614feb838263ffffffff61405f16565b92505b60408051600160a060020a03871681526020810185905281517f127650bcfb0ba017401abe4931453a405140a8fd36fece67bae2db174d3fdd63929181900390910190a15050505050565b828054600181600116156101000203166002900490600052602060002090601f016020900481019282601f1061507a57805160ff19168380011785556150a7565b828001600101855582156150a7579182015b828111156150a757825182559160200191906001019061508c565b506150b39291506150b7565b5090565b610b2491905b808211156150b357600081556001016150bd5600666f726569676e2d666565000000000000000000000000000000000000000000686f6d652d666565000000000000000000000000000000000000000000000000a165627a7a72305820e4bafd5532f96eb00a9c47fabfa4dbf212d82341fb6067f435669dae0143a63f0029",
  "source": "pragma solidity 0.4.24;\nimport \"../../libraries/SafeMath.sol\";\nimport \"../../libraries/Message.sol\";\nimport \"../BasicBridge.sol\";\nimport \"../../upgradeability/EternalStorage.sol\";\nimport \"../../IBurnableMintableERC677Token.sol\";\nimport \"../../ERC677Receiver.sol\";\nimport \"../BasicHomeBridge.sol\";\nimport \"../OverdrawManagement.sol\";\nimport \"./RewardableHomeBridgeErcToErc.sol\";\nimport \"../ERC677BridgeForBurnableMintableToken.sol\";\n\n\ncontract HomeBridgeErcToErc is ERC677Receiver, EternalStorage, BasicBridge, BasicHomeBridge, ERC677BridgeForBurnableMintableToken, OverdrawManagement, RewardableHomeBridgeErcToErc {\n\n    event AmountLimitExceeded(address recipient, uint256 value, bytes32 transactionHash);\n\n    function initialize (\n        address _validatorContract,\n        uint256 _dailyLimit,\n        uint256 _maxPerTx,\n        uint256 _minPerTx,\n        uint256 _homeGasPrice,\n        uint256 _requiredBlockConfirmations,\n        address _erc677token,\n        uint256 _foreignDailyLimit,\n        uint256 _foreignMaxPerTx,\n        address _owner\n    ) public\n      returns(bool)\n    {\n        _initialize (\n            _validatorContract,\n            _dailyLimit,\n            _maxPerTx,\n            _minPerTx,\n            _homeGasPrice,\n            _requiredBlockConfirmations,\n            _erc677token,\n            _foreignDailyLimit,\n            _foreignMaxPerTx,\n            _owner\n        );\n        setInitialize(true);\n\n        return isInitialized();\n    }\n\n    function rewardableInitialize (\n        address _validatorContract,\n        uint256 _dailyLimit,\n        uint256 _maxPerTx,\n        uint256 _minPerTx,\n        uint256 _homeGasPrice,\n        uint256 _requiredBlockConfirmations,\n        address _erc677token,\n        uint256 _foreignDailyLimit,\n        uint256 _foreignMaxPerTx,\n        address _owner,\n        address _feeManager,\n        uint256 _homeFee,\n        uint256 _foreignFee\n    ) public\n    returns(bool)\n    {\n        _rewardableInitialize (\n            _validatorContract,\n            _dailyLimit,\n            _maxPerTx,\n            _minPerTx,\n            _homeGasPrice,\n            _requiredBlockConfirmations,\n            _erc677token,\n            _foreignDailyLimit,\n            _foreignMaxPerTx,\n            _owner,\n            _feeManager,\n            _homeFee,\n            _foreignFee\n        );\n        setInitialize(true);\n\n        return isInitialized();\n    }\n\n    function _rewardableInitialize (\n        address _validatorContract,\n        uint256 _dailyLimit,\n        uint256 _maxPerTx,\n        uint256 _minPerTx,\n        uint256 _homeGasPrice,\n        uint256 _requiredBlockConfirmations,\n        address _erc677token,\n        uint256 _foreignDailyLimit,\n        uint256 _foreignMaxPerTx,\n        address _owner,\n        address _feeManager,\n        uint256 _homeFee,\n        uint256 _foreignFee\n    ) internal\n    returns(bool)\n    {\n        _initialize (\n            _validatorContract,\n            _dailyLimit,\n            _maxPerTx,\n            _minPerTx,\n            _homeGasPrice,\n            _requiredBlockConfirmations,\n            _erc677token,\n            _foreignDailyLimit,\n            _foreignMaxPerTx,\n            _owner\n        );\n        require(isContract(_feeManager));\n        addressStorage[keccak256(abi.encodePacked(\"feeManagerContract\"))] = _feeManager;\n        _setFee(_feeManager, _homeFee, HOME_FEE);\n        _setFee(_feeManager, _foreignFee, FOREIGN_FEE);\n    }\n\n    function _initialize (\n        address _validatorContract,\n        uint256 _dailyLimit,\n        uint256 _maxPerTx,\n        uint256 _minPerTx,\n        uint256 _homeGasPrice,\n        uint256 _requiredBlockConfirmations,\n        address _erc677token,\n        uint256 _foreignDailyLimit,\n        uint256 _foreignMaxPerTx,\n        address _owner\n    ) internal\n    returns(bool)\n    {\n        require(!isInitialized());\n        require(_validatorContract != address(0) && isContract(_validatorContract));\n        require(_homeGasPrice > 0);\n        require(_requiredBlockConfirmations > 0);\n        require(_minPerTx > 0 && _maxPerTx > _minPerTx && _dailyLimit > _maxPerTx);\n        require(_foreignMaxPerTx < _foreignDailyLimit);\n        require(_owner != address(0));\n        addressStorage[keccak256(abi.encodePacked(\"validatorContract\"))] = _validatorContract;\n        uintStorage[keccak256(abi.encodePacked(\"deployedAtBlock\"))] = block.number;\n        uintStorage[keccak256(abi.encodePacked(\"dailyLimit\"))] = _dailyLimit;\n        uintStorage[keccak256(abi.encodePacked(\"maxPerTx\"))] = _maxPerTx;\n        uintStorage[keccak256(abi.encodePacked(\"minPerTx\"))] = _minPerTx;\n        uintStorage[keccak256(abi.encodePacked(\"gasPrice\"))] = _homeGasPrice;\n        uintStorage[keccak256(abi.encodePacked(\"requiredBlockConfirmations\"))] = _requiredBlockConfirmations;\n        uintStorage[keccak256(abi.encodePacked(\"executionDailyLimit\"))] = _foreignDailyLimit;\n        uintStorage[keccak256(abi.encodePacked(\"executionMaxPerTx\"))] = _foreignMaxPerTx;\n        setOwner(_owner);\n        setErc677token(_erc677token);\n    }\n\n    function getBridgeMode() public pure returns(bytes4 _data) {\n        return bytes4(keccak256(abi.encodePacked(\"erc-to-erc-core\")));\n    }\n\n    function () payable public {\n        revert();\n    }\n\n    function onExecuteAffirmation(address _recipient, uint256 _value, bytes32 txHash) internal returns(bool) {\n        setTotalExecutedPerDay(getCurrentDay(), totalExecutedPerDay(getCurrentDay()).add(_value));\n        uint256 valueToMint = _value;\n        address feeManager = feeManagerContract();\n        if (feeManager != address(0)) {\n            uint256 fee = calculateFee(valueToMint, false, feeManager, FOREIGN_FEE);\n            distributeFeeFromAffirmation(fee, feeManager, txHash);\n            valueToMint = valueToMint.sub(fee);\n        }\n        return IBurnableMintableERC677Token(erc677token()).mint(_recipient, valueToMint);\n    }\n\n    function fireEventOnTokenTransfer(address _from, uint256 _value) internal {\n        uint256 valueToTransfer = _value;\n        address feeManager = feeManagerContract();\n        if (feeManager != address(0)) {\n            uint256 fee = calculateFee(valueToTransfer, false, feeManager, HOME_FEE);\n            valueToTransfer = valueToTransfer.sub(fee);\n        }\n        emit UserRequestForSignature(_from, valueToTransfer);\n    }\n\n    function onSignaturesCollected(bytes _message) internal {\n        address feeManager = feeManagerContract();\n        if (feeManager != address(0)) {\n            address recipient;\n            uint256 amount;\n            bytes32 txHash;\n            address contractAddress;\n            (recipient, amount, txHash, contractAddress) = Message.parseMessage(_message);\n            uint256 fee = calculateFee(amount, true, feeManager, HOME_FEE);\n            distributeFeeFromSignatures(fee, feeManager, txHash);\n        }\n    }\n\n    function affirmationWithinLimits(uint256 _amount) internal view returns(bool) {\n        return withinExecutionLimit(_amount);\n    }\n\n    function onFailedAffirmation(address _recipient, uint256 _value, bytes32 _txHash) internal {\n        address recipient;\n        uint256 value;\n        (recipient, value) = txAboveLimits(_txHash);\n        require(recipient == address(0) && value == 0);\n        setOutOfLimitAmount(outOfLimitAmount().add(_value));\n        setTxAboveLimits(_recipient, _value, _txHash);\n        emit AmountLimitExceeded(_recipient, _value, _txHash);\n    }\n}\n",
  "sourcePath": "/Users/fbranci/iexecdev/vivani/tokenbridge/contracts/contracts/upgradeable_contracts/erc20_to_erc20/HomeBridgeErcToErc.sol",
  "compiler": {
    "name": "solc",
    "version": "0.4.24+commit.e67f0147.Emscripten.clang"
  },
  "schemaVersion": "3.0.13",
  "updatedAt": "2019-08-28T14:04:53.289Z",
  "devdoc": {
    "methods": {
      "owner()": {
        "details": "Tells the address of the owner",
        "return": "the address of the owner"
      },
      "transferOwnership(address)": {
        "details": "Allows the current owner to transfer control of the contract to a newOwner.",
        "params": {
          "newOwner": "the address to transfer ownership to."
        }
      }
    }
  },
  "userdoc": {
    "methods": {}
  }
}