{
  "contractName": "HomeBridgeNativeToErc",
  "abi": [
    {
      "constant": true,
      "inputs": [
        {
          "name": "_message",
          "type": "bytes32"
        }
      ],
      "name": "numMessagesSigned",
      "outputs": [
        {
          "name": "",
          "type": "uint256"
        }
      ],
      "payable": false,
      "stateMutability": "view",
      "type": "function"
    },
    {
      "constant": true,
      "inputs": [
        {
          "name": "_hash",
          "type": "bytes32"
        },
        {
          "name": "_index",
          "type": "uint256"
        }
      ],
      "name": "signature",
      "outputs": [
        {
          "name": "",
          "type": "bytes"
        }
      ],
      "payable": false,
      "stateMutability": "view",
      "type": "function"
    },
    {
      "constant": false,
      "inputs": [
        {
          "name": "_fee",
          "type": "uint256"
        }
      ],
      "name": "setForeignFee",
      "outputs": [],
      "payable": false,
      "stateMutability": "nonpayable",
      "type": "function"
    },
    {
      "constant": true,
      "inputs": [
        {
          "name": "_day",
          "type": "uint256"
        }
      ],
      "name": "totalSpentPerDay",
      "outputs": [
        {
          "name": "",
          "type": "uint256"
        }
      ],
      "payable": false,
      "stateMutability": "view",
      "type": "function"
    },
    {
      "constant": false,
      "inputs": [
        {
          "name": "_fee",
          "type": "uint256"
        }
      ],
      "name": "setHomeFee",
      "outputs": [],
      "payable": false,
      "stateMutability": "nonpayable",
      "type": "function"
    },
    {
      "constant": true,
      "inputs": [],
      "name": "isInitialized",
      "outputs": [
        {
          "name": "",
          "type": "bool"
        }
      ],
      "payable": false,
      "stateMutability": "view",
      "type": "function"
    },
    {
      "constant": false,
      "inputs": [
        {
          "name": "_dailyLimit",
          "type": "uint256"
        }
      ],
      "name": "setExecutionDailyLimit",
      "outputs": [],
      "payable": false,
      "stateMutability": "nonpayable",
      "type": "function"
    },
    {
      "constant": true,
      "inputs": [],
      "name": "getCurrentDay",
      "outputs": [
        {
          "name": "",
          "type": "uint256"
        }
      ],
      "payable": false,
      "stateMutability": "view",
      "type": "function"
    },
    {
      "constant": true,
      "inputs": [],
      "name": "requiredBlockConfirmations",
      "outputs": [
        {
          "name": "",
          "type": "uint256"
        }
      ],
      "payable": false,
      "stateMutability": "view",
      "type": "function"
    },
    {
      "constant": true,
      "inputs": [],
      "name": "requiredMessageLength",
      "outputs": [
        {
          "name": "",
          "type": "uint256"
        }
      ],
      "payable": false,
      "stateMutability": "pure",
      "type": "function"
    },
    {
      "constant": true,
      "inputs": [],
      "name": "executionDailyLimit",
      "outputs": [
        {
          "name": "",
          "type": "uint256"
        }
      ],
      "payable": false,
      "stateMutability": "view",
      "type": "function"
    },
    {
      "constant": true,
      "inputs": [
        {
          "name": "_hash",
          "type": "bytes32"
        }
      ],
      "name": "message",
      "outputs": [
        {
          "name": "",
          "type": "bytes"
        }
      ],
      "payable": false,
      "stateMutability": "view",
      "type": "function"
    },
    {
      "constant": true,
      "inputs": [
        {
          "name": "_day",
          "type": "uint256"
        }
      ],
      "name": "totalExecutedPerDay",
      "outputs": [
        {
          "name": "",
          "type": "uint256"
        }
      ],
      "payable": false,
      "stateMutability": "view",
      "type": "function"
    },
    {
      "constant": false,
      "inputs": [
        {
          "name": "_feeManager",
          "type": "address"
        }
      ],
      "name": "setFeeManagerContract",
      "outputs": [],
      "payable": false,
      "stateMutability": "nonpayable",
      "type": "function"
    },
    {
      "constant": false,
      "inputs": [
        {
          "name": "signature",
          "type": "bytes"
        },
        {
          "name": "message",
          "type": "bytes"
        }
      ],
      "name": "submitSignature",
      "outputs": [],
      "payable": false,
      "stateMutability": "nonpayable",
      "type": "function"
    },
    {
      "constant": true,
      "inputs": [],
      "name": "dailyLimit",
      "outputs": [
        {
          "name": "",
          "type": "uint256"
        }
      ],
      "payable": false,
      "stateMutability": "view",
      "type": "function"
    },
    {
      "constant": false,
      "inputs": [
        {
          "name": "_token",
          "type": "address"
        },
        {
          "name": "_to",
          "type": "address"
        }
      ],
      "name": "claimTokens",
      "outputs": [],
      "payable": false,
      "stateMutability": "nonpayable",
      "type": "function"
    },
    {
      "constant": true,
      "inputs": [
        {
          "name": "_withdrawal",
          "type": "bytes32"
        }
      ],
      "name": "numAffirmationsSigned",
      "outputs": [
        {
          "name": "",
          "type": "uint256"
        }
      ],
      "payable": false,
      "stateMutability": "view",
      "type": "function"
    },
    {
      "constant": true,
      "inputs": [
        {
          "name": "_withdrawal",
          "type": "bytes32"
        }
      ],
      "name": "affirmationsSigned",
      "outputs": [
        {
          "name": "",
          "type": "bool"
        }
      ],
      "payable": false,
      "stateMutability": "view",
      "type": "function"
    },
    {
      "constant": true,
      "inputs": [
        {
          "name": "_amount",
          "type": "uint256"
        }
      ],
      "name": "withinExecutionLimit",
      "outputs": [
        {
          "name": "",
          "type": "bool"
        }
      ],
      "payable": false,
      "stateMutability": "view",
      "type": "function"
    },
    {
      "constant": true,
      "inputs": [],
      "name": "executionMaxPerTx",
      "outputs": [
        {
          "name": "",
          "type": "uint256"
        }
      ],
      "payable": false,
      "stateMutability": "view",
      "type": "function"
    },
    {
      "constant": true,
      "inputs": [],
      "name": "requiredSignatures",
      "outputs": [
        {
          "name": "",
          "type": "uint256"
        }
      ],
      "payable": false,
      "stateMutability": "view",
      "type": "function"
    },
    {
      "constant": true,
      "inputs": [],
      "name": "owner",
      "outputs": [
        {
          "name": "",
          "type": "address"
        }
      ],
      "payable": false,
      "stateMutability": "view",
      "type": "function"
    },
    {
      "constant": true,
      "inputs": [
        {
          "name": "_message",
          "type": "bytes32"
        }
      ],
      "name": "messagesSigned",
      "outputs": [
        {
          "name": "",
          "type": "bool"
        }
      ],
      "payable": false,
      "stateMutability": "view",
      "type": "function"
    },
    {
      "constant": true,
      "inputs": [],
      "name": "getHomeFee",
      "outputs": [
        {
          "name": "",
          "type": "uint256"
        }
      ],
      "payable": false,
      "stateMutability": "view",
      "type": "function"
    },
    {
      "constant": true,
      "inputs": [],
      "name": "validatorContract",
      "outputs": [
        {
          "name": "",
          "type": "address"
        }
      ],
      "payable": false,
      "stateMutability": "view",
      "type": "function"
    },
    {
      "constant": false,
      "inputs": [
        {
          "name": "recipient",
          "type": "address"
        },
        {
          "name": "value",
          "type": "uint256"
        },
        {
          "name": "transactionHash",
          "type": "bytes32"
        }
      ],
      "name": "executeAffirmation",
      "outputs": [],
      "payable": false,
      "stateMutability": "nonpayable",
      "type": "function"
    },
    {
      "constant": true,
      "inputs": [],
      "name": "deployedAtBlock",
      "outputs": [
        {
          "name": "",
          "type": "uint256"
        }
      ],
      "payable": false,
      "stateMutability": "view",
      "type": "function"
    },
    {
      "constant": true,
      "inputs": [],
      "name": "getBridgeInterfacesVersion",
      "outputs": [
        {
          "name": "major",
          "type": "uint64"
        },
        {
          "name": "minor",
          "type": "uint64"
        },
        {
          "name": "patch",
          "type": "uint64"
        }
      ],
      "payable": false,
      "stateMutability": "pure",
      "type": "function"
    },
    {
      "constant": false,
      "inputs": [
        {
          "name": "_minPerTx",
          "type": "uint256"
        }
      ],
      "name": "setMinPerTx",
      "outputs": [],
      "payable": false,
      "stateMutability": "nonpayable",
      "type": "function"
    },
    {
      "constant": false,
      "inputs": [
        {
          "name": "_blockConfirmations",
          "type": "uint256"
        }
      ],
      "name": "setRequiredBlockConfirmations",
      "outputs": [],
      "payable": false,
      "stateMutability": "nonpayable",
      "type": "function"
    },
    {
      "constant": false,
      "inputs": [
        {
          "name": "_dailyLimit",
          "type": "uint256"
        }
      ],
      "name": "setDailyLimit",
      "outputs": [],
      "payable": false,
      "stateMutability": "nonpayable",
      "type": "function"
    },
    {
      "constant": false,
      "inputs": [
        {
          "name": "_gasPrice",
          "type": "uint256"
        }
      ],
      "name": "setGasPrice",
      "outputs": [],
      "payable": false,
      "stateMutability": "nonpayable",
      "type": "function"
    },
    {
      "constant": false,
      "inputs": [
        {
          "name": "_maxPerTx",
          "type": "uint256"
        }
      ],
      "name": "setMaxPerTx",
      "outputs": [],
      "payable": false,
      "stateMutability": "nonpayable",
      "type": "function"
    },
    {
      "constant": true,
      "inputs": [],
      "name": "decimalShift",
      "outputs": [
        {
          "name": "",
          "type": "uint256"
        }
      ],
      "payable": false,
      "stateMutability": "view",
      "type": "function"
    },
    {
      "constant": true,
      "inputs": [],
      "name": "feeManagerContract",
      "outputs": [
        {
          "name": "",
          "type": "address"
        }
      ],
      "payable": false,
      "stateMutability": "view",
      "type": "function"
    },
    {
      "constant": true,
      "inputs": [],
      "name": "minPerTx",
      "outputs": [
        {
          "name": "",
          "type": "uint256"
        }
      ],
      "payable": false,
      "stateMutability": "view",
      "type": "function"
    },
    {
      "constant": true,
      "inputs": [
        {
          "name": "_amount",
          "type": "uint256"
        }
      ],
      "name": "withinLimit",
      "outputs": [
        {
          "name": "",
          "type": "bool"
        }
      ],
      "payable": false,
      "stateMutability": "view",
      "type": "function"
    },
    {
      "constant": false,
      "inputs": [
        {
          "name": "_maxPerTx",
          "type": "uint256"
        }
      ],
      "name": "setExecutionMaxPerTx",
      "outputs": [],
      "payable": false,
      "stateMutability": "nonpayable",
      "type": "function"
    },
    {
      "constant": true,
      "inputs": [],
      "name": "getFeeManagerMode",
      "outputs": [
        {
          "name": "",
          "type": "bytes4"
        }
      ],
      "payable": false,
      "stateMutability": "view",
      "type": "function"
    },
    {
      "constant": false,
      "inputs": [
        {
          "name": "newOwner",
          "type": "address"
        }
      ],
      "name": "transferOwnership",
      "outputs": [],
      "payable": false,
      "stateMutability": "nonpayable",
      "type": "function"
    },
    {
      "constant": true,
      "inputs": [],
      "name": "maxPerTx",
      "outputs": [
        {
          "name": "",
          "type": "uint256"
        }
      ],
      "payable": false,
      "stateMutability": "view",
      "type": "function"
    },
    {
      "constant": true,
      "inputs": [],
      "name": "gasPrice",
      "outputs": [
        {
          "name": "",
          "type": "uint256"
        }
      ],
      "payable": false,
      "stateMutability": "view",
      "type": "function"
    },
    {
      "constant": true,
      "inputs": [
        {
          "name": "_number",
          "type": "uint256"
        }
      ],
      "name": "isAlreadyProcessed",
      "outputs": [
        {
          "name": "",
          "type": "bool"
        }
      ],
      "payable": false,
      "stateMutability": "pure",
      "type": "function"
    },
    {
      "constant": true,
      "inputs": [],
      "name": "getForeignFee",
      "outputs": [
        {
          "name": "",
          "type": "uint256"
        }
      ],
      "payable": false,
      "stateMutability": "view",
      "type": "function"
    },
    {
      "payable": true,
      "stateMutability": "payable",
      "type": "fallback"
    },
    {
      "anonymous": false,
      "inputs": [
        {
          "indexed": false,
          "name": "feeAmount",
          "type": "uint256"
        },
        {
          "indexed": true,
          "name": "transactionHash",
          "type": "bytes32"
        }
      ],
      "name": "FeeDistributedFromAffirmation",
      "type": "event"
    },
    {
      "anonymous": false,
      "inputs": [
        {
          "indexed": false,
          "name": "feeAmount",
          "type": "uint256"
        },
        {
          "indexed": true,
          "name": "transactionHash",
          "type": "bytes32"
        }
      ],
      "name": "FeeDistributedFromSignatures",
      "type": "event"
    },
    {
      "anonymous": false,
      "inputs": [
        {
          "indexed": false,
          "name": "recipient",
          "type": "address"
        },
        {
          "indexed": false,
          "name": "value",
          "type": "uint256"
        }
      ],
      "name": "UserRequestForSignature",
      "type": "event"
    },
    {
      "anonymous": false,
      "inputs": [
        {
          "indexed": false,
          "name": "recipient",
          "type": "address"
        },
        {
          "indexed": false,
          "name": "value",
          "type": "uint256"
        },
        {
          "indexed": false,
          "name": "transactionHash",
          "type": "bytes32"
        }
      ],
      "name": "AffirmationCompleted",
      "type": "event"
    },
    {
      "anonymous": false,
      "inputs": [
        {
          "indexed": true,
          "name": "signer",
          "type": "address"
        },
        {
          "indexed": false,
          "name": "messageHash",
          "type": "bytes32"
        }
      ],
      "name": "SignedForUserRequest",
      "type": "event"
    },
    {
      "anonymous": false,
      "inputs": [
        {
          "indexed": true,
          "name": "signer",
          "type": "address"
        },
        {
          "indexed": false,
          "name": "transactionHash",
          "type": "bytes32"
        }
      ],
      "name": "SignedForAffirmation",
      "type": "event"
    },
    {
      "anonymous": false,
      "inputs": [
        {
          "indexed": false,
          "name": "authorityResponsibleForRelay",
          "type": "address"
        },
        {
          "indexed": false,
          "name": "messageHash",
          "type": "bytes32"
        },
        {
          "indexed": false,
          "name": "NumberOfCollectedSignatures",
          "type": "uint256"
        }
      ],
      "name": "CollectedSignatures",
      "type": "event"
    },
    {
      "anonymous": false,
      "inputs": [
        {
          "indexed": false,
          "name": "gasPrice",
          "type": "uint256"
        }
      ],
      "name": "GasPriceChanged",
      "type": "event"
    },
    {
      "anonymous": false,
      "inputs": [
        {
          "indexed": false,
          "name": "requiredBlockConfirmations",
          "type": "uint256"
        }
      ],
      "name": "RequiredBlockConfirmationChanged",
      "type": "event"
    },
    {
      "anonymous": false,
      "inputs": [
        {
          "indexed": false,
          "name": "newLimit",
          "type": "uint256"
        }
      ],
      "name": "DailyLimitChanged",
      "type": "event"
    },
    {
      "anonymous": false,
      "inputs": [
        {
          "indexed": false,
          "name": "newLimit",
          "type": "uint256"
        }
      ],
      "name": "ExecutionDailyLimitChanged",
      "type": "event"
    },
    {
      "anonymous": false,
      "inputs": [
        {
          "indexed": false,
          "name": "previousOwner",
          "type": "address"
        },
        {
          "indexed": false,
          "name": "newOwner",
          "type": "address"
        }
      ],
      "name": "OwnershipTransferred",
      "type": "event"
    },
    {
      "constant": false,
      "inputs": [
        {
          "name": "_validatorContract",
          "type": "address"
        },
        {
          "name": "_dailyLimitMaxPerTxMinPerTxArray",
          "type": "uint256[]"
        },
        {
          "name": "_homeGasPrice",
          "type": "uint256"
        },
        {
          "name": "_requiredBlockConfirmations",
          "type": "uint256"
        },
        {
          "name": "_foreignDailyLimitForeignMaxPerTxArray",
          "type": "uint256[]"
        },
        {
          "name": "_owner",
          "type": "address"
        },
        {
          "name": "_decimalShift",
          "type": "uint256"
        }
      ],
      "name": "initialize",
      "outputs": [
        {
          "name": "",
          "type": "bool"
        }
      ],
      "payable": false,
      "stateMutability": "nonpayable",
      "type": "function"
    },
    {
      "constant": false,
      "inputs": [
        {
          "name": "_validatorContract",
          "type": "address"
        },
        {
          "name": "_dailyLimitMaxPerTxMinPerTxArray",
          "type": "uint256[]"
        },
        {
          "name": "_homeGasPrice",
          "type": "uint256"
        },
        {
          "name": "_requiredBlockConfirmations",
          "type": "uint256"
        },
        {
          "name": "_foreignDailyLimitForeignMaxPerTxArray",
          "type": "uint256[]"
        },
        {
          "name": "_owner",
          "type": "address"
        },
        {
          "name": "_feeManager",
          "type": "address"
        },
        {
          "name": "_homeFeeForeignFeeArray",
          "type": "uint256[]"
        },
        {
          "name": "_decimalShift",
          "type": "uint256"
        }
      ],
      "name": "rewardableInitialize",
      "outputs": [
        {
          "name": "",
          "type": "bool"
        }
      ],
      "payable": false,
      "stateMutability": "nonpayable",
      "type": "function"
    },
    {
      "constant": true,
      "inputs": [],
      "name": "getBridgeMode",
      "outputs": [
        {
          "name": "_data",
          "type": "bytes4"
        }
      ],
      "payable": false,
      "stateMutability": "pure",
      "type": "function"
    }
  ],
  "bytecode": "0x608060405234801561001057600080fd5b50614cfc806100206000396000f30060806040526004361061022c5763ffffffff60e060020a6000350416630cbf060181146102365780631812d99614610260578063286c4066146102f05780632bd0bb051461030857806334a9e14814610320578063392e53cd146103385780633b459a45146103615780633dd95d1b146103bf5780633e6968b6146103d75780633f0a9f65146103ec578063408fef2e14610401578063437764df1461041657806343b37dd31461045d578063490a32c6146104725780634fb3fef71461048a57806360756f7c146104a2578063630cea8e146104c357806367eeba0c146104ef57806369ffa08a146105045780636ae1a9761461052b5780637698da2414610543578063879ce6761461055b5780638aa1949a146105735780638d068043146105885780638d4116ce1461059d5780638da5cb5b146105e85780638f4b4b981461061957806394da17cd146106315780639943908914610646578063995b2cff1461065b5780639a454b99146106825780639cb7595a14610697578063a2a6ca27146106d8578063acf5c689146106f0578063b20d30a914610708578063bf1fe42014610720578063c6f6f21614610738578063dae5f0fd14610750578063dbe03a8b14610765578063df25f3f01461077a578063ea9f49681461078f578063f20151e1146107a7578063f2ba9561146107bf578063f2fde38b146107d4578063f968adbe146107f5578063fe173b971461080a578063ffd19e8c1461081f578063ffd6619614610837575b61023461084c565b005b34801561024257600080fd5b5061024e6004356109b2565b60408051918252519081900360200190f35b34801561026c57600080fd5b5061027b600435602435610a77565b6040805160208082528351818301528351919283929083019185019080838360005b838110156102b557818101518382015260200161029d565b50505050905090810190601f1680156102e25780820380516001836020036101000a031916815260200191505b509250505060405180910390f35b3480156102fc57600080fd5b50610234600435610c54565b34801561031457600080fd5b5061024e600435610d0e565b34801561032c57600080fd5b50610234600435610d89565b34801561034457600080fd5b5061034d610e0d565b604080519115158252519081900360200190f35b34801561036d57600080fd5b5061034d60048035600160a060020a039081169160248035808201939083013592604435926064359260843580830193908101359260a43583169260c435169160e43591820191013561010435610ec6565b3480156103cb57600080fd5b50610234600435611130565b3480156103e357600080fd5b5061024e611250565b3480156103f857600080fd5b5061024e611259565b34801561040d57600080fd5b5061024e61130d565b34801561042257600080fd5b5061042b61131c565b604080517bffffffffffffffffffffffffffffffffffffffffffffffffffffffff199092168252519081900360200190f35b34801561046957600080fd5b5061024e6113bf565b34801561047e57600080fd5b5061027b600435611432565b34801561049657600080fd5b5061024e60043561159a565b3480156104ae57600080fd5b50610234600160a060020a0360043516611615565b3480156104cf57600080fd5b506102346024600480358281019290820135918135918201910135611733565b3480156104fb57600080fd5b5061024e611bc6565b34801561051057600080fd5b50610234600160a060020a0360043581169060243516611c39565b34801561053757600080fd5b5061024e600435611cdc565b34801561054f57600080fd5b5061034d600435611d5f565b34801561056757600080fd5b5061034d600435611e28565b34801561057f57600080fd5b5061024e611e66565b34801561059457600080fd5b5061024e611ed9565b3480156105a957600080fd5b5061034d600160a060020a0360048035821691602480358082019390810135926044359260643592608435918201929101359060a4351660c435611f51565b3480156105f457600080fd5b506105fd611fde565b60408051600160a060020a039092168252519081900360200190f35b34801561062557600080fd5b5061034d60043561209c565b34801561063d57600080fd5b5061024e612120565b34801561065257600080fd5b506105fd6121b4565b34801561066757600080fd5b50610234600160a060020a0360043516602435604435612228565b34801561068e57600080fd5b5061024e612522565b3480156106a357600080fd5b506106ac612595565b6040805167ffffffffffffffff9485168152928416602084015292168183015290519081900360600190f35b3480156106e457600080fd5b506102346004356125a0565b3480156106fc57600080fd5b50610234600435612697565b34801561071457600080fd5b506102346004356127a6565b34801561072c57600080fd5b506102346004356128c6565b34801561074457600080fd5b506102346004356129d5565b34801561075c57600080fd5b5061024e612a76565b34801561077157600080fd5b506105fd612ae9565b34801561078657600080fd5b5061024e612b5d565b34801561079b57600080fd5b5061034d600435612bd0565b3480156107b357600080fd5b50610234600435612c1b565b3480156107cb57600080fd5b5061042b612cbc565b3480156107e057600080fd5b50610234600160a060020a0360043516612d3d565b34801561080157600080fd5b5061024e612d77565b34801561081657600080fd5b5061024e612dea565b34801561082b57600080fd5b5061034d600435612e5d565b34801561084357600080fd5b5061024e612e85565b6000808034811061085c57600080fd5b361561086757600080fd5b61087034612bd0565b151561087b57600080fd5b6108ab610886611250565b6108a63461089a610895611250565b610d0e565b9063ffffffff612ee616565b612ef9565b3492506108b6612ae9565b9150600160a060020a038216156109725761095d836000846040516020018080600080516020614cb183398151915281525060080190506040516020818303038152906040526040518082805190602001908083835b6020831061092b5780518252601f19909201916020918201910161090c565b6001836020036101000a0380198251168184511680821785525050505050509050019150506040518091039020612fb6565b905061096f838263ffffffff61304116565b92505b604080513381526020810185905281517f127650bcfb0ba017401abe4931453a405140a8fd36fece67bae2db174d3fdd63929181900390910190a1505050565b60008060008360405160200180807f6e756d4d657373616765735369676e656400000000000000000000000000000081525060110182600019166000191681526020019150506040516020818303038152906040526040518082805190602001908083835b60208310610a365780518252601f199092019160209182019101610a17565b51815160209384036101000a600019018019909216911617905260408051929094018290039091208652850195909552929092016000205495945050505050565b604080516020808201859052818301849052825180830384018152606092830193849052805192936000939192909182918401908083835b60208310610ace5780518252601f199092019160209182019101610aaf565b51815160209384036101000a6000190180199092169116179052604080519290940182900382207f7369676e6174757265730000000000000000000000000000000000000000000083830152602a80840182905285518085039091018152604a9093019485905282519097506003965060009550919392508291908401908083835b60208310610b6f5780518252601f199092019160209182019101610b50565b6001836020036101000a0380198251168184511680821785525050505050509050019150506040518091039020600019166000191681526020019081526020016000208054600181600116156101000203166002900480601f016020809104026020016040519081016040528092919081815260200182805460018160011615610100020316600290048015610c465780601f10610c1b57610100808354040283529160200191610c46565b820191906000526020600020905b815481529060010190602001808311610c2957829003601f168201915b505050505091505092915050565b610c5c611fde565b600160a060020a03163314610c7057600080fd5b610d0b610c7b612ae9565b826040516020018080600080516020614c91833981519152815250600b0190506040516020818303038152906040526040518082805190602001908083835b60208310610cd95780518252601f199092019160209182019101610cba565b6001836020036101000a0380198251168184511680821785525050505050509050019150506040518091039020613053565b50565b60008060008360405160200180807f746f74616c5370656e745065724461790000000000000000000000000000000081525060100182815260200191505060405160208183030381529060405260405180828051906020019080838360208310610a365780518252601f199092019160209182019101610a17565b610d91611fde565b600160a060020a03163314610da557600080fd5b610d0b610db0612ae9565b826040516020018080600080516020614cb1833981519152815250600801905060405160208183030381529060405260405180828051906020019080838360208310610cd95780518252601f199092019160209182019101610cba565b60006004600060405160200180807f6973496e697469616c697a656400000000000000000000000000000000000000815250600d0190506040516020818303038152906040526040518082805190602001908083835b60208310610e825780518252601f199092019160209182019101610e63565b51815160209384036101000a600019018019909216911617905260408051929094018290039091208652850195909552929092016000205460ff1693505050505b90565b6000610f358d8d8d808060200260200160405190810160405280939291908181526020018383602002808284378201915050505050508c8c8c8c808060200260200160405190810160405280939291908181526020018383602002808284378201915050505050508b88613205565b610f3e85613bba565b1515610f4957600080fd5b846002600060405160200180807f6665654d616e61676572436f6e7472616374000000000000000000000000000081525060120190506040516020818303038152906040526040518082805190602001908083835b60208310610fbd5780518252601f199092019160209182019101610f9e565b51815160209384036101000a600019018019909216911617905260408051929094018290039091208652850195909552929092016000908120805473ffffffffffffffffffffffffffffffffffffffff1916600160a060020a0396909616959095179094555061109b92889250879150869081811061103857fe5b905060200201356040516020018080600080516020614cb1833981519152815250600801905060405160208183030381529060405260405180828051906020019080838360208310610cd95780518252601f199092019160209182019101610cba565b61110f85858560018181106110ac57fe5b905060200201356040516020018080600080516020614c91833981519152815250600b01905060405160208183030381529060405260405180828051906020019080838360208310610cd95780518252601f199092019160209182019101610cba565b611117613bc2565b61111f610e0d565b9d9c50505050505050505050505050565b611138611fde565b600160a060020a0316331461114c57600080fd5b611154611e66565b81118061115f575080155b151561116a57600080fd5b8060008060405160200180807f657865637574696f6e4461696c794c696d69740000000000000000000000000081525060130190506040516020818303038152906040526040518082805190602001908083835b602083106111dd5780518252601f1990920191602091820191016111be565b51815160001960209485036101000a019081169019919091161790526040805194909201849003909320865285830196909652509284016000209490945550815184815291517f9bebf928b90863f24cc31f726a3a7545efd409f1dcf552301b1ee3710da70d3b9350918290030190a150565b62015180420490565b600080600060405160200180807f7265717569726564426c6f636b436f6e6669726d6174696f6e73000000000000815250601a0190506040516020818303038152906040526040518082805190602001908083835b602083106112cd5780518252601f1990920191602091820191016112ae565b51815160209384036101000a6000190180199092169116179052604080519290940182900390912086528501959095529290920160002054949350505050565b6000611317613c83565b905090565b600060405160200180807f6e61746976652d746f2d6572632d636f7265000000000000000000000000000081525060120190506040516020818303038152906040526040518082805190602001908083835b6020831061138d5780518252601f19909201916020918201910161136e565b6001836020036101000a0380198251168184511680821785525050505050509050019150506040518091039020905090565b600080600060405160200180807f657865637574696f6e4461696c794c696d6974000000000000000000000000008152506013019050604051602081830303815290604052604051808280519060200190808383602083106112cd5780518252601f1990920191602091820191016112ae565b6060600360008360405160200180807f6d6573736167657300000000000000000000000000000000000000000000000081525060080182600019166000191681526020019150506040516020818303038152906040526040518082805190602001908083835b602083106114b75780518252601f199092019160209182019101611498565b6001836020036101000a0380198251168184511680821785525050505050509050019150506040518091039020600019166000191681526020019081526020016000208054600181600116156101000203166002900480601f01602080910402602001604051908101604052809291908181526020018280546001816001161561010002031660029004801561158e5780601f106115635761010080835404028352916020019161158e565b820191906000526020600020905b81548152906001019060200180831161157157829003601f168201915b50505050509050919050565b60008060008360405160200180807f746f74616c45786563757465645065724461790000000000000000000000000081525060130182815260200191505060405160208183030381529060405260405180828051906020019080838360208310610a365780518252601f199092019160209182019101610a17565b61161d611fde565b600160a060020a0316331461163157600080fd5b600160a060020a038116158061164b575061164b81613bba565b151561165657600080fd5b806002600060405160200180807f6665654d616e61676572436f6e7472616374000000000000000000000000000081525060120190506040516020818303038152906040526040518082805190602001908083835b602083106116ca5780518252601f1990920191602091820191016116ab565b51815160209384036101000a60001901801990921691161790526040805192909401829003909120865285019590955292909201600020805473ffffffffffffffffffffffffffffffffffffffff1916600160a060020a03959095169490941790935550505050565b60008060008060006117436121b4565b600160a060020a031663facd743b336040518263ffffffff1660e060020a0281526004018082600160a060020a0316600160a060020a03168152602001915050602060405180830381600087803b15801561179d57600080fd5b505af11580156117b1573d6000803e3d6000fd5b505050506040513d60208110156117c757600080fd5b505115156117d457600080fd5b61180d87878080601f01602080910402602001604051908101604052809392919081815260200183838082843750613c88945050505050565b151561181857600080fd5b61187f89898080601f0160208091040260200160405190810160405280939291908181526020018383808284375050604080516020601f8f018190048102820181019092528d815294508d93508c9250829150840183828082843750613c9c945050505050565b600160a060020a0316331461189357600080fd5b8686604051602001808383808284378201915050925050506040516020818303038152906040526040518082805190602001908083835b602083106118e95780518252601f1990920191602091820191016118ca565b51815160209384036101000a600019018019909216911617905260408051929094018290038220336c0100000000000000000000000002838301526034808401829052855180850390910181526054909301948590528251909b509195509293508392850191508083835b602083106119735780518252601f199092019160209182019101611954565b6001836020036101000a038019825116818451168082178552505050505050905001915050604051809103902093506119ab856109b2565b92506119b683612e5d565b156119c057600080fd5b6001928301928311156119e5576119d68461209c565b156119e057600080fd5b611a1f565b611a1f8588888080601f01602080910402602001604051908101604052809392919081815260200183838082843750613d5c945050505050565b611a2a846001613e2e565b604080516020808201889052600019860182840152825180830384018152606090920192839052815191929182918401908083835b60208310611a7e5780518252601f199092019160209182019101611a5f565b51815160209384036101000a600019018019909216911617905260408051929094018290038220601f8f018290048202830182019094528d8252929650611adf9450869350918d91508c908190840183828082843750613f00945050505050565b611ae98584613f83565b60408051868152905133917fbf06885f40778f5ccfb64497d3f92ce568ddaedb7e2fb4487f72690418cf8e4c919081900360200190a2611b27611ed9565b9050808310611bbb57611b4285611b3d85614005565b613f83565b604080513381526020810187905280820183905290517f415557404d88a0c0b8e3b16967cafffc511213fd9c465c16832ee17ed57d72379181900360600190a1611bbb87878080601f0160208091040260200160405190810160405280939291908181526020018383808284375061402a945050505050565b505050505050505050565b600080600060405160200180807f6461696c794c696d697400000000000000000000000000000000000000000000815250600a019050604051602081830303815290604052604051808280519060200190808383602083106112cd5780518252601f1990920191602091820191016112ae565b30600160a060020a0316636fde82026040518163ffffffff1660e060020a028152600401602060405180830381600087803b158015611c7757600080fd5b505af1158015611c8b573d6000803e3d6000fd5b505050506040513d6020811015611ca157600080fd5b5051600160a060020a03163314611cb757600080fd5b80600160a060020a0381161515611ccd57600080fd5b611cd783836140e4565b505050565b60008060008360405160200180807f6e756d41666669726d6174696f6e735369676e65640000000000000000000000815250601501826000191660001916815260200191505060405160208183030381529060405260405180828051906020019080838360208310610a365780518252601f199092019160209182019101610a17565b6000600460008360405160200180807f61666669726d6174696f6e735369676e6564000000000000000000000000000081525060120182600019166000191681526020019150506040516020818303038152906040526040518082805190602001908083835b60208310611de45780518252601f199092019160209182019101611dc5565b51815160209384036101000a600019018019909216911617905260408051929094018290039091208652850195909552929092016000205460ff1695945050505050565b600080611e3f8361089a611e3a611250565b61159a565b905080611e4a6113bf565b10158015611e5f5750611e5b611e66565b8311155b9392505050565b600080600060405160200180807f657865637574696f6e4d617850657254780000000000000000000000000000008152506011019050604051602081830303815290604052604051808280519060200190808383602083106112cd5780518252601f1990920191602091820191016112ae565b6000611ee36121b4565b600160a060020a0316638d0680436040518163ffffffff1660e060020a028152600401602060405180830381600087803b158015611f2057600080fd5b505af1158015611f34573d6000803e3d6000fd5b505050506040513d6020811015611f4a57600080fd5b5051905090565b6000611fc08a8a8a8080602002602001604051908101604052809392919081815260200183836020028082843782019150505050505089898989808060200260200160405190810160405280939291908181526020018383602002808284378201915050505050508888613205565b611fc8613bc2565b611fd0610e0d565b9a9950505050505050505050565b60006002600060405160200180807f6f776e657200000000000000000000000000000000000000000000000000000081525060050190506040516020818303038152906040526040518082805190602001908083835b602083106120535780518252601f199092019160209182019101612034565b51815160209384036101000a6000190180199092169116179052604080519290940182900390912086528501959095529290920160002054600160a060020a0316949350505050565b6000600460008360405160200180807f6d657373616765735369676e6564000000000000000000000000000000000000815250600e01826000191660001916815260200191505060405160208183030381529060405260405180828051906020019080838360208310611de45780518252601f199092019160209182019101611dc5565b60006113176040516020018080600080516020614cb183398151915281525060080190506040516020818303038152906040526040518082805190602001908083835b602083106121825780518252601f199092019160209182019101612163565b6001836020036101000a0380198251168184511680821785525050505050509050019150506040518091039020614110565b60006002600060405160200180807f76616c696461746f72436f6e74726163740000000000000000000000000000008152506011019050604051602081830303815290604052604051808280519060200190808383602083106120535780518252601f199092019160209182019101612034565b60008060006122356121b4565b600160a060020a031663facd743b336040518263ffffffff1660e060020a0281526004018082600160a060020a0316600160a060020a03168152602001915050602060405180830381600087803b15801561228f57600080fd5b505af11580156122a3573d6000803e3d6000fd5b505050506040513d60208110156122b957600080fd5b505115156122c657600080fd5b6122cf85611e28565b1561250f57604080516c01000000000000000000000000600160a060020a0389160260208083019190915260348201889052605480830188905283518084039091018152607490920192839052815191929182918401908083835b602083106123495780518252601f19909201916020918201910161232a565b51815160209384036101000a600019018019909216911617905260408051929094018290038220336c01000000000000000000000000028383015260348084018290528551808503909101815260549093019485905282519099509195509293508392850191508083835b602083106123d35780518252601f1990920191602091820191016123b4565b6001836020036101000a0380198251168184511680821785525050505050509050019150506040518091039020915061240b82611d5f565b1561241557600080fd5b612420826001614265565b61242983611cdc565b905061243481612e5d565b1561243e57600080fd5b60010161244b83826142e8565b60408051858152905133917f5df9cc3eb93d8a9a481857a3b70a8ca966e6b80b25cf0ee2cce180ec5afa80a1919081900360200190a2612489611ed9565b811061250a576124a18361249c83614005565b6142e8565b60008511156124c0576124b586868661436a565b15156124c057600080fd5b60408051600160a060020a03881681526020810187905280820186905290517f6fc115a803b8703117d9a3956c5a15401cb42401f91630f015eb6b043fa762539181900360600190a15b61251a565b61251a868686612d2e565b505050505050565b600080600060405160200180807f6465706c6f7965644174426c6f636b0000000000000000000000000000000000815250600f019050604051602081830303815290604052604051808280519060200190808383602083106112cd5780518252601f1990920191602091820191016112ae565b600260036000909192565b6125a8611fde565b600160a060020a031633146125bc57600080fd5b6125c4611bc6565b811080156125d857506125d5612d77565b81105b15156125e357600080fd5b8060008060405160200180807f6d696e506572547800000000000000000000000000000000000000000000000081525060080190506040516020818303038152906040526040518082805190602001908083835b602083106126565780518252601f199092019160209182019101612637565b51815160209384036101000a600019018019909216911617905260408051929094018290039091208652850195909552929092016000209390935550505050565b61269f611fde565b600160a060020a031633146126b357600080fd5b600081116126c057600080fd5b8060008060405160200180807f7265717569726564426c6f636b436f6e6669726d6174696f6e73000000000000815250601a0190506040516020818303038152906040526040518082805190602001908083835b602083106127335780518252601f199092019160209182019101612714565b51815160001960209485036101000a019081169019919091161790526040805194909201849003909320865285830196909652509284016000209490945550815184815291517f4fb76205cd57c896b21511d2114137d8e901b4ccd659e1a0f97d6306795264fb9350918290030190a150565b6127ae611fde565b600160a060020a031633146127c257600080fd5b6127ca612d77565b8111806127d5575080155b15156127e057600080fd5b8060008060405160200180807f6461696c794c696d697400000000000000000000000000000000000000000000815250600a0190506040516020818303038152906040526040518082805190602001908083835b602083106128535780518252601f199092019160209182019101612834565b51815160001960209485036101000a019081169019919091161790526040805194909201849003909320865285830196909652509284016000209490945550815184815291517fad4123ae17c414d9c6d2fec478b402e6b01856cc250fd01fbfd252fda0089d3c9350918290030190a150565b6128ce611fde565b600160a060020a031633146128e257600080fd5b600081116128ef57600080fd5b8060008060405160200180807f676173507269636500000000000000000000000000000000000000000000000081525060080190506040516020818303038152906040526040518082805190602001908083835b602083106129625780518252601f199092019160209182019101612943565b51815160001960209485036101000a019081169019919091161790526040805194909201849003909320865285830196909652509284016000209490945550815184815291517f52264b89e0fceafb26e79fd49ef8a366eb6297483bf4035b027f0c99a7ad512e9350918290030190a150565b6129dd611fde565b600160a060020a031633146129f157600080fd5b6129f9611bc6565b8110612a0457600080fd5b8060008060405160200180807f6d617850657254780000000000000000000000000000000000000000000000008152506008019050604051602081830303815290604052604051808280519060200190808383602083106126565780518252601f199092019160209182019101612637565b600080600060405160200180807f646563696d616c53686966740000000000000000000000000000000000000000815250600c019050604051602081830303815290604052604051808280519060200190808383602083106112cd5780518252601f1990920191602091820191016112ae565b60006002600060405160200180807f6665654d616e61676572436f6e747261637400000000000000000000000000008152506012019050604051602081830303815290604052604051808280519060200190808383602083106120535780518252601f199092019160209182019101612034565b600080600060405160200180807f6d696e50657254780000000000000000000000000000000000000000000000008152506008019050604051602081830303815290604052604051808280519060200190808383602083106112cd5780518252601f1990920191602091820191016112ae565b600080612be28361089a610895611250565b905080612bed611bc6565b10158015612c025750612bfe612d77565b8311155b8015611e5f5750612c11612b5d565b9092101592915050565b612c23611fde565b600160a060020a03163314612c3757600080fd5b612c3f6113bf565b8110612c4a57600080fd5b8060008060405160200180807f657865637574696f6e4d617850657254780000000000000000000000000000008152506011019050604051602081830303815290604052604051808280519060200190808383602083106126565780518252601f199092019160209182019101612637565b604080516004815260248101909152602081018051600160e060020a03167ff2ba956100000000000000000000000000000000000000000000000000000000179052600090819081612d0c612ae9565b9050600460008351602085016000855af26000519350808015612d2e57612d33565b600080fd5b5092949350505050565b612d45611fde565b600160a060020a03163314612d5957600080fd5b600160a060020a0381161515612d6e57600080fd5b610d0b816144ba565b600080600060405160200180807f6d617850657254780000000000000000000000000000000000000000000000008152506008019050604051602081830303815290604052604051808280519060200190808383602083106112cd5780518252601f1990920191602091820191016112ae565b600080600060405160200180807f67617350726963650000000000000000000000000000000000000000000000008152506008019050604051602081830303815290604052604051808280519060200190808383602083106112cd5780518252601f1990920191602091820191016112ae565b7f80000000000000000000000000000000000000000000000000000000000000009081161490565b60006113176040516020018080600080516020614c91833981519152815250600b019050604051602081830303815290604052604051808280519060200190808383602083106121825780518252601f199092019160209182019101612163565b81810182811015612ef357fe5b92915050565b806000808460405160200180807f746f74616c5370656e74506572446179000000000000000000000000000000008152506010018281526020019150506040516020818303038152906040526040518082805190602001908083835b60208310612f745780518252601f199092019160209182019101612f55565b51815160209384036101000a60001901801990921691161790526040805192909401829003909120865285019590955292909201600020939093555050505050565b60408051602481018690528415156044820152606480820184905282518083039091018152608490910190915260208181018051600160e060020a03167f9862f26f000000000000000000000000000000000000000000000000000000001781528251600093849390929091849182895af26000519250808015612d2e575091979650505050505050565b60008282111561304d57fe5b50900390565b60006040516020018080600080516020614cb183398151915281525060080190506040516020818303038152906040526040518082805190602001908083835b602083106130b25780518252601f199092019160209182019101613093565b5181516020939093036101000a600019018019909116921691909117905260405192018290039091208514925061310c915050577f286c40660000000000000000000000000000000000000000000000000000000061312e565b7f34a9e148000000000000000000000000000000000000000000000000000000005b6040805160248082018790528251808303909101815260449091018252602081018051600160e060020a03167bffffffffffffffffffffffffffffffffffffffffffffffffffffffff19851617815291518151939450600160a060020a038816939192909182919080838360005b838110156131b457818101518382015260200161319c565b50505050905090810190601f1680156131e15780820380516001836020036101000a031916815260200191505b50915050600060405180830381855af491505015156131ff57600080fd5b50505050565b61320d610e0d565b1561321757600080fd5b61322087613bba565b151561322b57600080fd5b6000851161323857600080fd5b6000841161324557600080fd5b600086600281518110151561325657fe5b9060200190602002015111801561329c575085600281518110151561327757fe5b9060200190602002015186600181518110151561329057fe5b90602001906020020151115b80156132d757508560018151811015156132b257fe5b906020019060200201518660008151811015156132cb57fe5b90602001906020020151115b15156132e257600080fd5b8260008151811015156132f157fe5b9060200190602002015183600181518110151561330a57fe5b602090810290910101511061331e57600080fd5b600160a060020a038216151561333357600080fd5b866002600060405160200180807f76616c696461746f72436f6e747261637400000000000000000000000000000081525060110190506040516020818303038152906040526040518082805190602001908083835b602083106133a75780518252601f199092019160209182019101613388565b51815160209384036101000a60001901801990921691161790526040805192909401829003909120865285810196909652509283016000908120805473ffffffffffffffffffffffffffffffffffffffff1916600160a060020a039790971696909617909555505080517f6465706c6f7965644174426c6f636b0000000000000000000000000000000000818401528151600f818303018152602f90910191829052805143949384939182918401908083835b602083106134795780518252601f19909201916020918201910161345a565b51815160209384036101000a60001901801990921691161790526040805192909401829003909120865285019590955292909201600090812094909455505087518892915081106134c657fe5b9060200190602002015160008060405160200180807f6461696c794c696d697400000000000000000000000000000000000000000000815250600a0190506040516020818303038152906040526040518082805190602001908083835b602083106135425780518252601f199092019160209182019101613523565b51815160209384036101000a600019018019909216911617905260408051929094018290039091208652850195909552929092016000209390935550508651879150600190811061358f57fe5b9060200190602002015160008060405160200180807f6d6178506572547800000000000000000000000000000000000000000000000081525060080190506040516020818303038152906040526040518082805190602001908083835b6020831061360b5780518252601f1990920191602091820191016135ec565b51815160209384036101000a600019018019909216911617905260408051929094018290039091208652850195909552929092016000209390935550508651879150600290811061365857fe5b9060200190602002015160008060405160200180807f6d696e506572547800000000000000000000000000000000000000000000000081525060080190506040516020818303038152906040526040518082805190602001908083835b602083106136d45780518252601f1990920191602091820191016136b5565b51815160209384036101000a6000190180199092169116179052604080519290940182900390912086528581019690965250928301600090812095909555505080517f67617350726963650000000000000000000000000000000000000000000000008184015281516008818303018152602890910191829052805189949384939182918401908083835b6020831061377e5780518252601f19909201916020918201910161375f565b51815160209384036101000a6000190180199092169116179052604080519290940182900390912086528581019690965250928301600090812095909555505080517f7265717569726564426c6f636b436f6e6669726d6174696f6e73000000000000818401528151601a818303018152603a90910191829052805188949384939182918401908083835b602083106138285780518252601f199092019160209182019101613809565b51815160209384036101000a600019018019909216911617905260408051929094018290039091208652850195909552929092016000908120949094555050845185929150811061387557fe5b9060200190602002015160008060405160200180807f657865637574696f6e4461696c794c696d69740000000000000000000000000081525060130190506040516020818303038152906040526040518082805190602001908083835b602083106138f15780518252601f1990920191602091820191016138d2565b51815160209384036101000a600019018019909216911617905260408051929094018290039091208652850195909552929092016000209390935550508351849150600190811061393e57fe5b9060200190602002015160008060405160200180807f657865637574696f6e4d6178506572547800000000000000000000000000000081525060110190506040516020818303038152906040526040518082805190602001908083835b602083106139ba5780518252601f19909201916020918201910161399b565b51815160209384036101000a6000190180199092169116179052604080519290940182900390912086528581019690965250928301600090812095909555505080517f646563696d616c53686966740000000000000000000000000000000000000000818401528151600c818303018152602c90910191829052805185949384939182918401908083835b60208310613a645780518252601f199092019160209182019101613a45565b51815160209384036101000a600019018019909216911617905260408051929094018290039091208652850195909552929092016000209390935550613aad91508390506144ba565b6040805185815290517f4fb76205cd57c896b21511d2114137d8e901b4ccd659e1a0f97d6306795264fb9181900360200190a16040805186815290517f52264b89e0fceafb26e79fd49ef8a366eb6297483bf4035b027f0c99a7ad512e9181900360200190a17fad4123ae17c414d9c6d2fec478b402e6b01856cc250fd01fbfd252fda0089d3c866000815181101515613b4357fe5b906020019060200201516040518082815260200191505060405180910390a17f9bebf928b90863f24cc31f726a3a7545efd409f1dcf552301b1ee3710da70d3b836000815181101515613b9257fe5b906020019060200201516040518082815260200191505060405180910390a150505050505050565b6000903b1190565b60016004600060405160200180807f6973496e697469616c697a656400000000000000000000000000000000000000815250600d0190506040516020818303038152906040526040518082805190602001908083835b60208310613c375780518252601f199092019160209182019101613c18565b51815160209384036101000a60001901801990921691161790526040805192909401829003909120865285019590955292909201600020805460ff191694151594909417909355505050565b606890565b6000613c92613c83565b8251149050919050565b60008060008085516041141515613cb257600080fd5b5050506020830151604084015160608501516001613ccf86614578565b60408051600080825260208083018085529490945260ff7f0100000000000000000000000000000000000000000000000000000000000000870416828401526060820188905260808201879052915160a08083019493601f198301938390039091019190865af1158015613d47573d6000803e3d6000fd5b5050604051601f190151979650505050505050565b80600360008460405160200180807f6d6573736167657300000000000000000000000000000000000000000000000081525060080182600019166000191681526020019150506040516020818303038152906040526040518082805190602001908083835b60208310613de05780518252601f199092019160209182019101613dc1565b51815160001960209485036101000a01908116901991909116179052604080519490920184900390932086528583019690965250929093016000208451611cd7959194509201919050614bc8565b80600460008460405160200180807f6d657373616765735369676e6564000000000000000000000000000000000000815250600e0182600019166000191681526020019150506040516020818303038152906040526040518082805190602001908083835b60208310613eb25780518252601f199092019160209182019101613e93565b51815160209384036101000a60001901801990921691161790526040805192909401829003909120865285019590955292909201600020805460ff1916941515949094179093555050505050565b80600360008460405160200180807f7369676e61747572657300000000000000000000000000000000000000000000815250600a01826000191660001916815260200191505060405160208183030381529060405260405180828051906020019080838360208310613de05780518252601f199092019160209182019101613dc1565b806000808460405160200180807f6e756d4d657373616765735369676e6564000000000000000000000000000000815250601101826000191660001916815260200191505060405160208183030381529060405260405180828051906020019080838360208310612f745780518252601f199092019160209182019101612f55565b7f80000000000000000000000000000000000000000000000000000000000000001790565b60008060008060008061403b612ae9565b9550600160a060020a038616156140db576140558761473d565b809550819650829750839850505050506140c8846001886040516020018080600080516020614cb183398151915281525060080190506040516020818303038152906040526040518082805190602001908083836020831061092b5780518252601f19909201916020918201910161090c565b905080156140db576140db818785614778565b50505050505050565b600160a060020a0382161515614102576140fd8161487d565b61410c565b61410c82826148e8565b5050565b6000806000806060614120612ae9565b92506040516020018080600080516020614cb183398151915281525060080190506040516020818303038152906040526040518082805190602001908083835b6020831061417f5780518252601f199092019160209182019101614160565b5181516020939093036101000a60001901801990911692169190911790526040519201829003909120891492506141d9915050577fffd66196000000000000000000000000000000000000000000000000000000006141fb565b7f94da17cd000000000000000000000000000000000000000000000000000000005b60408051600481526024810190915260208082018051600160e060020a03167bffffffffffffffffffffffffffffffffffffffffffffffffffffffff19851617815282519395509193509160009182875af26000519450808015612d2e5750939695505050505050565b80600460008460405160200180807f61666669726d6174696f6e735369676e65640000000000000000000000000000815250601201826000191660001916815260200191505060405160208183030381529060405260405180828051906020019080838360208310613eb25780518252601f199092019160209182019101613e93565b806000808460405160200180807f6e756d41666669726d6174696f6e735369676e65640000000000000000000000815250601501826000191660001916815260200191505060405160208183030381529060405260405180828051906020019080838360208310612f745780518252601f199092019160209182019101612f55565b60008060008061438f61437b611250565b61438a8861089a611e3a611250565b614986565b6143aa61439a612a76565b8790600a0a63ffffffff614a0016565b92506143b4612ae9565b9150600160a060020a0382161561444857614428836000846040516020018080600080516020614c91833981519152815250600b0190506040516020818303038152906040526040518082805190602001908083836020831061092b5780518252601f19909201916020918201910161090c565b9050614435818387614a29565b614445838263ffffffff61304116565b92505b604051600160a060020a0388169084156108fc029085906000818181858888f1935050505015156144ad57828761447d614c46565b600160a060020a039091168152604051908190036020019082f0801580156144a9573d6000803e3d6000fd5b5050505b5060019695505050505050565b7f8be0079c531659141344cd1fd0a4f28419497f9722a3daafe3b4186f6b6457e06144e3611fde565b60408051600160a060020a03928316815291841660208301528051918290030190a1806002600060405160200180807f6f776e65720000000000000000000000000000000000000000000000000000008152506005019050604051602081830303815290604052604051808280519060200190808383602083106116ca5780518252601f1990920191602091820191016116ab565b604080518082018252601a81527f19457468657265756d205369676e6564204d6573736167653a0a000000000000602080830191825283518085018552600381527f313034000000000000000000000000000000000000000000000000000000000081830152935183516000959385938593899391019182918083835b602083106146145780518252601f1990920191602091820191016145f5565b51815160209384036101000a600019018019909216911617905286519190930192860191508083835b6020831061465c5780518252601f19909201916020918201910161463d565b51815160209384036101000a600019018019909216911617905285519190930192850191508083835b602083106146a45780518252601f199092019160209182019101614685565b6001836020036101000a03801982511681845116808217855250505050505090500193505050506040516020818303038152906040526040518082805190602001908083835b602083106147095780518252601f1990920191602091820191016146ea565b5181516020939093036101000a60001901801990911692169190911790526040519201829003909120979650505050505050565b60008060008061474c85613c88565b151561475757600080fd5b50505050601481015160348201516054830151606890930151919390929190565b6040805160248082018690528251808303909101815260449091018252602081018051600160e060020a03167f59d784640000000000000000000000000000000000000000000000000000000017815291518151600160a060020a03861693829180838360005b838110156147f75781810151838201526020016147df565b50505050905090810190601f1680156148245780820380516001836020036101000a031916815260200191505b50915050600060405180830381855af4915050151561484257600080fd5b60408051848152905182917f858abdcd5efcaebb936e8e8516f0cfe9a0ef5157ff99d16cdabb6db625be90d0919081900360200190a2505050565b604051303190600160a060020a0383169082156108fc029083906000818181858888f19350505050151561410c5780826148b5614c46565b600160a060020a039091168152604051908190036020019082f0801580156148e1573d6000803e3d6000fd5b5050505050565b604080517f70a0823100000000000000000000000000000000000000000000000000000000815230600482015290518391600091600160a060020a038416916370a0823191602480830192602092919082900301818787803b15801561494d57600080fd5b505af1158015614961573d6000803e3d6000fd5b505050506040513d602081101561497757600080fd5b505190506131ff848483614b2e565b806000808460405160200180807f746f74616c45786563757465645065724461790000000000000000000000000081525060130182815260200191505060405160208183030381529060405260405180828051906020019080838360208310612f745780518252601f199092019160209182019101612f55565b6000821515614a1157506000612ef3565b50818102818382811515614a2157fe5b0414612ef357fe5b6040805160248082018690528251808303909101815260449091018252602081018051600160e060020a03167f054d46ec0000000000000000000000000000000000000000000000000000000017815291518151600160a060020a03861693829180838360005b83811015614aa8578181015183820152602001614a90565b50505050905090810190601f168015614ad55780820380516001836020036101000a031916815260200191505b50915050600060405180830381855af49150501515614af357600080fd5b60408051848152905182917fa52d3c9cbc541772e4edd92e2e4e2a3865ab73630f25deed8a6c8de41ff0f65c919081900360200190a2505050565b60408051600160a060020a0384166024820152604480820184905282518083039091018152606490910190915260208181018051600160e060020a03167fa9059cbb000000000000000000000000000000000000000000000000000000001781528251606093600093909290918491828a5af16000519350839250808015612d2e57505060008351111561251a5781151561251a57600080fd5b828054600181600116156101000203166002900490600052602060002090601f016020900481019282601f10614c0957805160ff1916838001178555614c36565b82800160010185558215614c36579182015b82811115614c36578251825591602001919060010190614c1b565b50614c42929150614c55565b5090565b604051602180614c7083390190565b610ec391905b80821115614c425760008155600101614c5b5600608060405260405160208060218339810160405251600160a060020a038116ff00666f726569676e2d666565000000000000000000000000000000000000000000686f6d652d666565000000000000000000000000000000000000000000000000a165627a7a7230582078f37f07b2fb86e76a49097c12861fab1c2adeb91fd7f64d8b8d4b00865ca6eb0029",
  "source": "pragma solidity 0.4.24;\n\nimport \"../../libraries/Message.sol\";\nimport \"../../upgradeability/EternalStorage.sol\";\nimport \"../BasicHomeBridge.sol\";\nimport \"./RewardableHomeBridgeNativeToErc.sol\";\nimport \"../Sacrifice.sol\";\n\ncontract HomeBridgeNativeToErc is EternalStorage, BasicHomeBridge, RewardableHomeBridgeNativeToErc {\n    function() public payable {\n        nativeTransfer();\n    }\n\n    function nativeTransfer() internal {\n        require(msg.value > 0);\n        require(msg.data.length == 0);\n        require(withinLimit(msg.value));\n        setTotalSpentPerDay(getCurrentDay(), totalSpentPerDay(getCurrentDay()).add(msg.value));\n        uint256 valueToTransfer = msg.value;\n        address feeManager = feeManagerContract();\n        if (feeManager != address(0)) {\n            uint256 fee = calculateFee(valueToTransfer, false, feeManager, HOME_FEE);\n            valueToTransfer = valueToTransfer.sub(fee);\n        }\n        emit UserRequestForSignature(msg.sender, valueToTransfer);\n    }\n\n    function initialize(\n        address _validatorContract,\n        uint256[] _dailyLimitMaxPerTxMinPerTxArray, // [ 0 = _dailyLimit, 1 = _maxPerTx, 2 = _minPerTx ]\n        uint256 _homeGasPrice,\n        uint256 _requiredBlockConfirmations,\n        uint256[] _foreignDailyLimitForeignMaxPerTxArray, // [ 0 = _foreignDailyLimit, 1 = _foreignMaxPerTx ]\n        address _owner,\n        uint256 _decimalShift\n    ) external returns (bool) {\n        _initialize(\n            _validatorContract,\n            _dailyLimitMaxPerTxMinPerTxArray,\n            _homeGasPrice,\n            _requiredBlockConfirmations,\n            _foreignDailyLimitForeignMaxPerTxArray,\n            _owner,\n            _decimalShift\n        );\n        setInitialize();\n        return isInitialized();\n    }\n\n    function rewardableInitialize(\n        address _validatorContract,\n        uint256[] _dailyLimitMaxPerTxMinPerTxArray, // [ 0 = _dailyLimit, 1 = _maxPerTx, 2 = _minPerTx ]\n        uint256 _homeGasPrice,\n        uint256 _requiredBlockConfirmations,\n        uint256[] _foreignDailyLimitForeignMaxPerTxArray, // [ 0 = _foreignDailyLimit, 1 = _foreignMaxPerTx ]\n        address _owner,\n        address _feeManager,\n        uint256[] _homeFeeForeignFeeArray, // [ 0 = _homeFee, 1 = _foreignFee ]\n        uint256 _decimalShift\n    ) external returns (bool) {\n        _initialize(\n            _validatorContract,\n            _dailyLimitMaxPerTxMinPerTxArray,\n            _homeGasPrice,\n            _requiredBlockConfirmations,\n            _foreignDailyLimitForeignMaxPerTxArray,\n            _owner,\n            _decimalShift\n        );\n        require(AddressUtils.isContract(_feeManager));\n        addressStorage[FEE_MANAGER_CONTRACT] = _feeManager;\n        _setFee(_feeManager, _homeFeeForeignFeeArray[0], HOME_FEE);\n        _setFee(_feeManager, _homeFeeForeignFeeArray[1], FOREIGN_FEE);\n        setInitialize();\n        return isInitialized();\n    }\n\n    function getBridgeMode() external pure returns (bytes4 _data) {\n        return bytes4(keccak256(abi.encodePacked(\"native-to-erc-core\")));\n    }\n\n    function _initialize(\n        address _validatorContract,\n        uint256[] _dailyLimitMaxPerTxMinPerTxArray, // [ 0 = _dailyLimit, 1 = _maxPerTx, 2 = _minPerTx ]\n        uint256 _homeGasPrice,\n        uint256 _requiredBlockConfirmations,\n        uint256[] _foreignDailyLimitForeignMaxPerTxArray, // [ 0 = _foreignDailyLimit, 1 = _foreignMaxPerTx ]\n        address _owner,\n        uint256 _decimalShift\n    ) internal {\n        require(!isInitialized());\n        require(AddressUtils.isContract(_validatorContract));\n        require(_homeGasPrice > 0);\n        require(_requiredBlockConfirmations > 0);\n        require(\n            _dailyLimitMaxPerTxMinPerTxArray[2] > 0 && // _minPerTx > 0\n                _dailyLimitMaxPerTxMinPerTxArray[1] > _dailyLimitMaxPerTxMinPerTxArray[2] && // _maxPerTx > _minPerTx\n                _dailyLimitMaxPerTxMinPerTxArray[0] > _dailyLimitMaxPerTxMinPerTxArray[1] // _dailyLimit > _maxPerTx\n        );\n        require(_foreignDailyLimitForeignMaxPerTxArray[1] < _foreignDailyLimitForeignMaxPerTxArray[0]); // _foreignMaxPerTx < _foreignDailyLimit\n        require(_owner != address(0));\n\n        addressStorage[VALIDATOR_CONTRACT] = _validatorContract;\n        uintStorage[DEPLOYED_AT_BLOCK] = block.number;\n        uintStorage[DAILY_LIMIT] = _dailyLimitMaxPerTxMinPerTxArray[0];\n        uintStorage[MAX_PER_TX] = _dailyLimitMaxPerTxMinPerTxArray[1];\n        uintStorage[MIN_PER_TX] = _dailyLimitMaxPerTxMinPerTxArray[2];\n        uintStorage[GAS_PRICE] = _homeGasPrice;\n        uintStorage[REQUIRED_BLOCK_CONFIRMATIONS] = _requiredBlockConfirmations;\n        uintStorage[EXECUTION_DAILY_LIMIT] = _foreignDailyLimitForeignMaxPerTxArray[0];\n        uintStorage[EXECUTION_MAX_PER_TX] = _foreignDailyLimitForeignMaxPerTxArray[1];\n        uintStorage[DECIMAL_SHIFT] = _decimalShift;\n        setOwner(_owner);\n\n        emit RequiredBlockConfirmationChanged(_requiredBlockConfirmations);\n        emit GasPriceChanged(_homeGasPrice);\n        emit DailyLimitChanged(_dailyLimitMaxPerTxMinPerTxArray[0]);\n        emit ExecutionDailyLimitChanged(_foreignDailyLimitForeignMaxPerTxArray[0]);\n    }\n\n    function onSignaturesCollected(bytes _message) internal {\n        address feeManager = feeManagerContract();\n        if (feeManager != address(0)) {\n            address recipient;\n            uint256 amount;\n            bytes32 txHash;\n            address contractAddress;\n            (recipient, amount, txHash, contractAddress) = Message.parseMessage(_message);\n            uint256 fee = calculateFee(amount, true, feeManager, HOME_FEE);\n            if (fee != 0) {\n                distributeFeeFromSignatures(fee, feeManager, txHash);\n            }\n        }\n    }\n\n    function onExecuteAffirmation(address _recipient, uint256 _value, bytes32 txHash) internal returns (bool) {\n        setTotalExecutedPerDay(getCurrentDay(), totalExecutedPerDay(getCurrentDay()).add(_value));\n        uint256 valueToTransfer = _value.mul(10 ** decimalShift());\n\n        address feeManager = feeManagerContract();\n        if (feeManager != address(0)) {\n            uint256 fee = calculateFee(valueToTransfer, false, feeManager, FOREIGN_FEE);\n            distributeFeeFromAffirmation(fee, feeManager, txHash);\n            valueToTransfer = valueToTransfer.sub(fee);\n        }\n\n        if (!_recipient.send(valueToTransfer)) {\n            (new Sacrifice).value(valueToTransfer)(_recipient);\n        }\n        return true;\n    }\n\n    function onFailedAffirmation(\n        address, /*_recipient*/\n        uint256, /*_value*/\n        bytes32 /*_txHash*/\n    ) internal {\n        revert();\n    }\n}\n",
  "sourcePath": "/mono/contracts/contracts/upgradeable_contracts/native_to_erc20/HomeBridgeNativeToErc.sol",
  "compiler": {
    "name": "solc",
    "version": "0.4.24+commit.e67f0147.Emscripten.clang"
  },
  "schemaVersion": "3.0.11",
  "updatedAt": "2019-09-03T09:43:49.722Z",
  "devdoc": {
    "methods": {
      "owner()": {
        "details": "Tells the address of the owner",
        "return": "the address of the owner"
      },
      "transferOwnership(address)": {
        "details": "Allows the current owner to transfer control of the contract to a newOwner.",
        "params": {
          "newOwner": "the address to transfer ownership to."
        }
      }
    }
  },
  "userdoc": {
    "methods": {}
  }
}