{
  "contractName": "HomeBridgeErcToErcPOSDAO",
  "abi": [
    {
      "constant": true,
      "inputs": [
        {
          "name": "_message",
          "type": "bytes32"
        }
      ],
      "name": "numMessagesSigned",
      "outputs": [
        {
          "name": "",
          "type": "uint256"
        }
      ],
      "payable": false,
      "stateMutability": "view",
      "type": "function"
    },
    {
      "constant": true,
      "inputs": [
        {
          "name": "_hash",
          "type": "bytes32"
        },
        {
          "name": "_index",
          "type": "uint256"
        }
      ],
      "name": "signature",
      "outputs": [
        {
          "name": "",
          "type": "bytes"
        }
      ],
      "payable": false,
      "stateMutability": "view",
      "type": "function"
    },
    {
      "constant": true,
      "inputs": [],
      "name": "erc677token",
      "outputs": [
        {
          "name": "",
          "type": "address"
        }
      ],
      "payable": false,
      "stateMutability": "view",
      "type": "function"
    },
    {
      "constant": false,
      "inputs": [
        {
          "name": "_fee",
          "type": "uint256"
        }
      ],
      "name": "setForeignFee",
      "outputs": [],
      "payable": false,
      "stateMutability": "nonpayable",
      "type": "function"
    },
    {
      "constant": true,
      "inputs": [
        {
          "name": "_txHash",
          "type": "bytes32"
        }
      ],
      "name": "fixedAssets",
      "outputs": [
        {
          "name": "",
          "type": "bool"
        }
      ],
      "payable": false,
      "stateMutability": "view",
      "type": "function"
    },
    {
      "constant": true,
      "inputs": [
        {
          "name": "_day",
          "type": "uint256"
        }
      ],
      "name": "totalSpentPerDay",
      "outputs": [
        {
          "name": "",
          "type": "uint256"
        }
      ],
      "payable": false,
      "stateMutability": "view",
      "type": "function"
    },
    {
      "constant": false,
      "inputs": [
        {
          "name": "_fee",
          "type": "uint256"
        }
      ],
      "name": "setHomeFee",
      "outputs": [],
      "payable": false,
      "stateMutability": "nonpayable",
      "type": "function"
    },
    {
      "constant": true,
      "inputs": [],
      "name": "isInitialized",
      "outputs": [
        {
          "name": "",
          "type": "bool"
        }
      ],
      "payable": false,
      "stateMutability": "view",
      "type": "function"
    },
    {
      "constant": false,
      "inputs": [
        {
          "name": "_dailyLimit",
          "type": "uint256"
        }
      ],
      "name": "setExecutionDailyLimit",
      "outputs": [],
      "payable": false,
      "stateMutability": "nonpayable",
      "type": "function"
    },
    {
      "constant": true,
      "inputs": [],
      "name": "getCurrentDay",
      "outputs": [
        {
          "name": "",
          "type": "uint256"
        }
      ],
      "payable": false,
      "stateMutability": "view",
      "type": "function"
    },
    {
      "constant": true,
      "inputs": [],
      "name": "requiredBlockConfirmations",
      "outputs": [
        {
          "name": "",
          "type": "uint256"
        }
      ],
      "payable": false,
      "stateMutability": "view",
      "type": "function"
    },
    {
      "constant": true,
      "inputs": [],
      "name": "requiredMessageLength",
      "outputs": [
        {
          "name": "",
          "type": "uint256"
        }
      ],
      "payable": false,
      "stateMutability": "pure",
      "type": "function"
    },
    {
      "constant": true,
      "inputs": [],
      "name": "getBridgeMode",
      "outputs": [
        {
          "name": "_data",
          "type": "bytes4"
        }
      ],
      "payable": false,
      "stateMutability": "pure",
      "type": "function"
    },
    {
      "constant": true,
      "inputs": [],
      "name": "executionDailyLimit",
      "outputs": [
        {
          "name": "",
          "type": "uint256"
        }
      ],
      "payable": false,
      "stateMutability": "view",
      "type": "function"
    },
    {
      "constant": true,
      "inputs": [
        {
          "name": "_hash",
          "type": "bytes32"
        }
      ],
      "name": "message",
      "outputs": [
        {
          "name": "",
          "type": "bytes"
        }
      ],
      "payable": false,
      "stateMutability": "view",
      "type": "function"
    },
    {
      "constant": true,
      "inputs": [
        {
          "name": "_day",
          "type": "uint256"
        }
      ],
      "name": "totalExecutedPerDay",
      "outputs": [
        {
          "name": "",
          "type": "uint256"
        }
      ],
      "payable": false,
      "stateMutability": "view",
      "type": "function"
    },
    {
      "constant": false,
      "inputs": [
        {
          "name": "_feeManager",
          "type": "address"
        }
      ],
      "name": "setFeeManagerContract",
      "outputs": [],
      "payable": false,
      "stateMutability": "nonpayable",
      "type": "function"
    },
    {
      "constant": false,
      "inputs": [
        {
          "name": "signature",
          "type": "bytes"
        },
        {
          "name": "message",
          "type": "bytes"
        }
      ],
      "name": "submitSignature",
      "outputs": [],
      "payable": false,
      "stateMutability": "nonpayable",
      "type": "function"
    },
    {
      "constant": false,
      "inputs": [
        {
          "name": "_validatorContract",
          "type": "address"
        },
        {
          "name": "_dailyLimitMaxPerTxMinPerTxArray",
          "type": "uint256[]"
        },
        {
          "name": "_homeGasPrice",
          "type": "uint256"
        },
        {
          "name": "_requiredBlockConfirmations",
          "type": "uint256"
        },
        {
          "name": "_erc677token",
          "type": "address"
        },
        {
          "name": "_foreignDailyLimitForeignMaxPerTxArray",
          "type": "uint256[]"
        },
        {
          "name": "_owner",
          "type": "address"
        },
        {
          "name": "_decimalShift",
          "type": "uint256"
        }
      ],
      "name": "initialize",
      "outputs": [
        {
          "name": "",
          "type": "bool"
        }
      ],
      "payable": false,
      "stateMutability": "nonpayable",
      "type": "function"
    },
    {
      "constant": true,
      "inputs": [],
      "name": "dailyLimit",
      "outputs": [
        {
          "name": "",
          "type": "uint256"
        }
      ],
      "payable": false,
      "stateMutability": "view",
      "type": "function"
    },
    {
      "constant": false,
      "inputs": [
        {
          "name": "_token",
          "type": "address"
        },
        {
          "name": "_to",
          "type": "address"
        }
      ],
      "name": "claimTokens",
      "outputs": [],
      "payable": false,
      "stateMutability": "nonpayable",
      "type": "function"
    },
    {
      "constant": true,
      "inputs": [
        {
          "name": "_withdrawal",
          "type": "bytes32"
        }
      ],
      "name": "numAffirmationsSigned",
      "outputs": [
        {
          "name": "",
          "type": "uint256"
        }
      ],
      "payable": false,
      "stateMutability": "view",
      "type": "function"
    },
    {
      "constant": true,
      "inputs": [
        {
          "name": "_withdrawal",
          "type": "bytes32"
        }
      ],
      "name": "affirmationsSigned",
      "outputs": [
        {
          "name": "",
          "type": "bool"
        }
      ],
      "payable": false,
      "stateMutability": "view",
      "type": "function"
    },
    {
      "constant": true,
      "inputs": [
        {
          "name": "_amount",
          "type": "uint256"
        }
      ],
      "name": "withinExecutionLimit",
      "outputs": [
        {
          "name": "",
          "type": "bool"
        }
      ],
      "payable": false,
      "stateMutability": "view",
      "type": "function"
    },
    {
      "constant": true,
      "inputs": [],
      "name": "executionMaxPerTx",
      "outputs": [
        {
          "name": "",
          "type": "uint256"
        }
      ],
      "payable": false,
      "stateMutability": "view",
      "type": "function"
    },
    {
      "constant": true,
      "inputs": [],
      "name": "requiredSignatures",
      "outputs": [
        {
          "name": "",
          "type": "uint256"
        }
      ],
      "payable": false,
      "stateMutability": "view",
      "type": "function"
    },
    {
      "constant": true,
      "inputs": [],
      "name": "owner",
      "outputs": [
        {
          "name": "",
          "type": "address"
        }
      ],
      "payable": false,
      "stateMutability": "view",
      "type": "function"
    },
    {
      "constant": true,
      "inputs": [
        {
          "name": "_message",
          "type": "bytes32"
        }
      ],
      "name": "messagesSigned",
      "outputs": [
        {
          "name": "",
          "type": "bool"
        }
      ],
      "payable": false,
      "stateMutability": "view",
      "type": "function"
    },
    {
      "constant": false,
      "inputs": [
        {
          "name": "_token",
          "type": "address"
        },
        {
          "name": "_to",
          "type": "address"
        }
      ],
      "name": "claimTokensFromErc677",
      "outputs": [],
      "payable": false,
      "stateMutability": "nonpayable",
      "type": "function"
    },
    {
      "constant": true,
      "inputs": [],
      "name": "getHomeFee",
      "outputs": [
        {
          "name": "",
          "type": "uint256"
        }
      ],
      "payable": false,
      "stateMutability": "view",
      "type": "function"
    },
    {
      "constant": true,
      "inputs": [],
      "name": "validatorContract",
      "outputs": [
        {
          "name": "",
          "type": "address"
        }
      ],
      "payable": false,
      "stateMutability": "view",
      "type": "function"
    },
    {
      "constant": false,
      "inputs": [
        {
          "name": "recipient",
          "type": "address"
        },
        {
          "name": "value",
          "type": "uint256"
        },
        {
          "name": "transactionHash",
          "type": "bytes32"
        }
      ],
      "name": "executeAffirmation",
      "outputs": [],
      "payable": false,
      "stateMutability": "nonpayable",
      "type": "function"
    },
    {
      "constant": true,
      "inputs": [],
      "name": "deployedAtBlock",
      "outputs": [
        {
          "name": "",
          "type": "uint256"
        }
      ],
      "payable": false,
      "stateMutability": "view",
      "type": "function"
    },
    {
      "constant": true,
      "inputs": [],
      "name": "getBridgeInterfacesVersion",
      "outputs": [
        {
          "name": "major",
          "type": "uint64"
        },
        {
          "name": "minor",
          "type": "uint64"
        },
        {
          "name": "patch",
          "type": "uint64"
        }
      ],
      "payable": false,
      "stateMutability": "pure",
      "type": "function"
    },
    {
      "constant": true,
      "inputs": [],
      "name": "outOfLimitAmount",
      "outputs": [
        {
          "name": "",
          "type": "uint256"
        }
      ],
      "payable": false,
      "stateMutability": "view",
      "type": "function"
    },
    {
      "constant": false,
      "inputs": [
        {
          "name": "_minPerTx",
          "type": "uint256"
        }
      ],
      "name": "setMinPerTx",
      "outputs": [],
      "payable": false,
      "stateMutability": "nonpayable",
      "type": "function"
    },
    {
      "constant": false,
      "inputs": [
        {
          "name": "_from",
          "type": "address"
        },
        {
          "name": "_value",
          "type": "uint256"
        },
        {
          "name": "",
          "type": "bytes"
        }
      ],
      "name": "onTokenTransfer",
      "outputs": [
        {
          "name": "",
          "type": "bool"
        }
      ],
      "payable": false,
      "stateMutability": "nonpayable",
      "type": "function"
    },
    {
      "constant": false,
      "inputs": [
        {
          "name": "txHash",
          "type": "bytes32"
        },
        {
          "name": "unlockOnForeign",
          "type": "bool"
        },
        {
          "name": "valueToUnlock",
          "type": "uint256"
        }
      ],
      "name": "fixAssetsAboveLimits",
      "outputs": [],
      "payable": false,
      "stateMutability": "nonpayable",
      "type": "function"
    },
    {
      "constant": false,
      "inputs": [
        {
          "name": "_blockConfirmations",
          "type": "uint256"
        }
      ],
      "name": "setRequiredBlockConfirmations",
      "outputs": [],
      "payable": false,
      "stateMutability": "nonpayable",
      "type": "function"
    },
    {
      "constant": false,
      "inputs": [
        {
          "name": "_dailyLimit",
          "type": "uint256"
        }
      ],
      "name": "setDailyLimit",
      "outputs": [],
      "payable": false,
      "stateMutability": "nonpayable",
      "type": "function"
    },
    {
      "constant": false,
      "inputs": [
        {
          "name": "_gasPrice",
          "type": "uint256"
        }
      ],
      "name": "setGasPrice",
      "outputs": [],
      "payable": false,
      "stateMutability": "nonpayable",
      "type": "function"
    },
    {
      "constant": false,
      "inputs": [
        {
          "name": "_maxPerTx",
          "type": "uint256"
        }
      ],
      "name": "setMaxPerTx",
      "outputs": [],
      "payable": false,
      "stateMutability": "nonpayable",
      "type": "function"
    },
    {
      "constant": true,
      "inputs": [],
      "name": "decimalShift",
      "outputs": [
        {
          "name": "",
          "type": "uint256"
        }
      ],
      "payable": false,
      "stateMutability": "view",
      "type": "function"
    },
    {
      "constant": true,
      "inputs": [],
      "name": "feeManagerContract",
      "outputs": [
        {
          "name": "",
          "type": "address"
        }
      ],
      "payable": false,
      "stateMutability": "view",
      "type": "function"
    },
    {
      "constant": true,
      "inputs": [],
      "name": "minPerTx",
      "outputs": [
        {
          "name": "",
          "type": "uint256"
        }
      ],
      "payable": false,
      "stateMutability": "view",
      "type": "function"
    },
    {
      "constant": true,
      "inputs": [
        {
          "name": "_amount",
          "type": "uint256"
        }
      ],
      "name": "withinLimit",
      "outputs": [
        {
          "name": "",
          "type": "bool"
        }
      ],
      "payable": false,
      "stateMutability": "view",
      "type": "function"
    },
    {
      "constant": false,
      "inputs": [
        {
          "name": "_maxPerTx",
          "type": "uint256"
        }
      ],
      "name": "setExecutionMaxPerTx",
      "outputs": [],
      "payable": false,
      "stateMutability": "nonpayable",
      "type": "function"
    },
    {
      "constant": true,
      "inputs": [],
      "name": "getFeeManagerMode",
      "outputs": [
        {
          "name": "",
          "type": "bytes4"
        }
      ],
      "payable": false,
      "stateMutability": "view",
      "type": "function"
    },
    {
      "constant": false,
      "inputs": [
        {
          "name": "newOwner",
          "type": "address"
        }
      ],
      "name": "transferOwnership",
      "outputs": [],
      "payable": false,
      "stateMutability": "nonpayable",
      "type": "function"
    },
    {
      "constant": true,
      "inputs": [],
      "name": "maxPerTx",
      "outputs": [
        {
          "name": "",
          "type": "uint256"
        }
      ],
      "payable": false,
      "stateMutability": "view",
      "type": "function"
    },
    {
      "constant": true,
      "inputs": [],
      "name": "gasPrice",
      "outputs": [
        {
          "name": "",
          "type": "uint256"
        }
      ],
      "payable": false,
      "stateMutability": "view",
      "type": "function"
    },
    {
      "constant": true,
      "inputs": [
        {
          "name": "_number",
          "type": "uint256"
        }
      ],
      "name": "isAlreadyProcessed",
      "outputs": [
        {
          "name": "",
          "type": "bool"
        }
      ],
      "payable": false,
      "stateMutability": "pure",
      "type": "function"
    },
    {
      "constant": true,
      "inputs": [],
      "name": "getForeignFee",
      "outputs": [
        {
          "name": "",
          "type": "uint256"
        }
      ],
      "payable": false,
      "stateMutability": "view",
      "type": "function"
    },
    {
      "anonymous": false,
      "inputs": [
        {
          "indexed": false,
          "name": "recipient",
          "type": "address"
        },
        {
          "indexed": false,
          "name": "value",
          "type": "uint256"
        },
        {
          "indexed": false,
          "name": "transactionHash",
          "type": "bytes32"
        }
      ],
      "name": "AmountLimitExceeded",
      "type": "event"
    },
    {
      "anonymous": false,
      "inputs": [
        {
          "indexed": false,
          "name": "recipient",
          "type": "address"
        },
        {
          "indexed": false,
          "name": "value",
          "type": "uint256"
        }
      ],
      "name": "UserRequestForSignature",
      "type": "event"
    },
    {
      "anonymous": false,
      "inputs": [
        {
          "indexed": true,
          "name": "transactionHash",
          "type": "bytes32"
        },
        {
          "indexed": false,
          "name": "value",
          "type": "uint256"
        },
        {
          "indexed": false,
          "name": "remaining",
          "type": "uint256"
        }
      ],
      "name": "AssetAboveLimitsFixed",
      "type": "event"
    },
    {
      "anonymous": false,
      "inputs": [
        {
          "indexed": false,
          "name": "recipient",
          "type": "address"
        },
        {
          "indexed": false,
          "name": "value",
          "type": "uint256"
        },
        {
          "indexed": false,
          "name": "transactionHash",
          "type": "bytes32"
        }
      ],
      "name": "AffirmationCompleted",
      "type": "event"
    },
    {
      "anonymous": false,
      "inputs": [
        {
          "indexed": true,
          "name": "signer",
          "type": "address"
        },
        {
          "indexed": false,
          "name": "messageHash",
          "type": "bytes32"
        }
      ],
      "name": "SignedForUserRequest",
      "type": "event"
    },
    {
      "anonymous": false,
      "inputs": [
        {
          "indexed": true,
          "name": "signer",
          "type": "address"
        },
        {
          "indexed": false,
          "name": "transactionHash",
          "type": "bytes32"
        }
      ],
      "name": "SignedForAffirmation",
      "type": "event"
    },
    {
      "anonymous": false,
      "inputs": [
        {
          "indexed": false,
          "name": "authorityResponsibleForRelay",
          "type": "address"
        },
        {
          "indexed": false,
          "name": "messageHash",
          "type": "bytes32"
        },
        {
          "indexed": false,
          "name": "NumberOfCollectedSignatures",
          "type": "uint256"
        }
      ],
      "name": "CollectedSignatures",
      "type": "event"
    },
    {
      "anonymous": false,
      "inputs": [
        {
          "indexed": false,
          "name": "gasPrice",
          "type": "uint256"
        }
      ],
      "name": "GasPriceChanged",
      "type": "event"
    },
    {
      "anonymous": false,
      "inputs": [
        {
          "indexed": false,
          "name": "requiredBlockConfirmations",
          "type": "uint256"
        }
      ],
      "name": "RequiredBlockConfirmationChanged",
      "type": "event"
    },
    {
      "anonymous": false,
      "inputs": [
        {
          "indexed": false,
          "name": "newLimit",
          "type": "uint256"
        }
      ],
      "name": "DailyLimitChanged",
      "type": "event"
    },
    {
      "anonymous": false,
      "inputs": [
        {
          "indexed": false,
          "name": "newLimit",
          "type": "uint256"
        }
      ],
      "name": "ExecutionDailyLimitChanged",
      "type": "event"
    },
    {
      "anonymous": false,
      "inputs": [
        {
          "indexed": false,
          "name": "feeAmount",
          "type": "uint256"
        },
        {
          "indexed": true,
          "name": "transactionHash",
          "type": "bytes32"
        }
      ],
      "name": "FeeDistributedFromAffirmation",
      "type": "event"
    },
    {
      "anonymous": false,
      "inputs": [
        {
          "indexed": false,
          "name": "feeAmount",
          "type": "uint256"
        },
        {
          "indexed": true,
          "name": "transactionHash",
          "type": "bytes32"
        }
      ],
      "name": "FeeDistributedFromSignatures",
      "type": "event"
    },
    {
      "anonymous": false,
      "inputs": [
        {
          "indexed": false,
          "name": "previousOwner",
          "type": "address"
        },
        {
          "indexed": false,
          "name": "newOwner",
          "type": "address"
        }
      ],
      "name": "OwnershipTransferred",
      "type": "event"
    },
    {
      "constant": false,
      "inputs": [
        {
          "name": "_validatorContract",
          "type": "address"
        },
        {
          "name": "_dailyLimitMaxPerTxMinPerTxArray",
          "type": "uint256[]"
        },
        {
          "name": "_homeGasPrice",
          "type": "uint256"
        },
        {
          "name": "_requiredBlockConfirmations",
          "type": "uint256"
        },
        {
          "name": "_erc677token",
          "type": "address"
        },
        {
          "name": "_foreignDailyLimitForeignMaxPerTxArray",
          "type": "uint256[]"
        },
        {
          "name": "_owner",
          "type": "address"
        },
        {
          "name": "_feeManager",
          "type": "address"
        },
        {
          "name": "_homeFeeForeignFeeArray",
          "type": "uint256[]"
        },
        {
          "name": "_blockReward",
          "type": "address"
        },
        {
          "name": "_decimalShift",
          "type": "uint256"
        }
      ],
      "name": "rewardableInitialize",
      "outputs": [
        {
          "name": "",
          "type": "bool"
        }
      ],
      "payable": false,
      "stateMutability": "nonpayable",
      "type": "function"
    },
    {
      "constant": false,
      "inputs": [
        {
          "name": "_validatorContract",
          "type": "address"
        },
        {
          "name": "_dailyLimitMaxPerTxMinPerTxArray",
          "type": "uint256[]"
        },
        {
          "name": "_homeGasPrice",
          "type": "uint256"
        },
        {
          "name": "_requiredBlockConfirmations",
          "type": "uint256"
        },
        {
          "name": "_erc677token",
          "type": "address"
        },
        {
          "name": "_foreignDailyLimitForeignMaxPerTxArray",
          "type": "uint256[]"
        },
        {
          "name": "_owner",
          "type": "address"
        },
        {
          "name": "_feeManager",
          "type": "address"
        },
        {
          "name": "_homeFeeForeignFeeArray",
          "type": "uint256[]"
        },
        {
          "name": "_decimalShift",
          "type": "uint256"
        }
      ],
      "name": "rewardableInitialize",
      "outputs": [
        {
          "name": "",
          "type": "bool"
        }
      ],
      "payable": false,
      "stateMutability": "nonpayable",
      "type": "function"
    },
    {
      "constant": true,
      "inputs": [],
      "name": "blockRewardContract",
      "outputs": [
        {
          "name": "",
          "type": "address"
        }
      ],
      "payable": false,
      "stateMutability": "view",
      "type": "function"
    },
    {
      "constant": false,
      "inputs": [
        {
          "name": "_blockReward",
          "type": "address"
        }
      ],
      "name": "setBlockRewardContract",
      "outputs": [],
      "payable": false,
      "stateMutability": "nonpayable",
      "type": "function"
    }
  ],
  "bytecode": "0x608060405234801561001057600080fd5b50615c4380620000216000396000f30060806040526004361061028f5763ffffffff60e060020a6000350416630cbf060181146102945780631812d996146102be57806318d8f9c91461034e57806327a3e16b1461037f578063286c4066146103a25780632888bb9c146103ba5780632bd0bb05146103e657806334a9e148146103fe578063392e53cd146104165780633dd95d1b1461042b5780633e0ce3eb146104435780633e6968b6146104ae5780633f0a9f65146104c3578063408fef2e146104d8578063437764df146104ed57806343b37dd314610534578063490a32c6146105495780634fb3fef71461056157806356b54bae1461057957806360756f7c1461058e578063630cea8e146105af57806366124e41146105db57806367eeba0c1461062c57806369ffa08a146106415780636ae1a976146106685780637698da2414610680578063879ce676146106985780638aa1949a146106b05780638d068043146106c55780638da5cb5b146106da5780638f4b4b98146106ef5780639313dc431461070757806394da17cd1461072e5780639943908914610743578063995b2cff146107585780639a454b991461077f5780639cb7595a14610794578063a0189345146107d5578063a2a6ca27146107ea578063a4c0ed3614610802578063a7444c0d14610833578063acf5c68914610853578063b20d30a91461086b578063bf1fe42014610883578063c6f6f2161461089b578063dae5f0fd146108b3578063dbe03a8b146108c8578063df25f3f0146108dd578063e46c0df0146108f2578063ea9f496814610956578063f20151e11461096e578063f2ba956114610986578063f2fde38b1461099b578063f968adbe146109bc578063fe173b97146109d1578063ffd19e8c146109e6578063ffd66196146109fe575b600080fd5b3480156102a057600080fd5b506102ac600435610a13565b60408051918252519081900360200190f35b3480156102ca57600080fd5b506102d9600435602435610ad8565b6040805160208082528351818301528351919283929083019185019080838360005b838110156103135781810151838201526020016102fb565b50505050905090810190601f1680156103405780820380516001836020036101000a031916815260200191505b509250505060405180910390f35b34801561035a57600080fd5b50610363610cb5565b60408051600160a060020a039092168252519081900360200190f35b34801561038b57600080fd5b506103a0600160a060020a0360043516610d74565b005b3480156103ae57600080fd5b506103a0600435610daa565b3480156103c657600080fd5b506103d2600435610e64565b604080519115158252519081900360200190f35b3480156103f257600080fd5b506102ac600435610f2d565b34801561040a57600080fd5b506103a0600435610fa8565b34801561042257600080fd5b506103d261102c565b34801561043757600080fd5b506103a06004356110e4565b34801561044f57600080fd5b506103d2600160a060020a036004803582169160248035808201939081013592604435926064359260843583169260a43580840193908301359260c43583169260e4358116926101043590810192013590610124351661014435611204565b3480156104ba57600080fd5b506102ac6112d2565b3480156104cf57600080fd5b506102ac6112db565b3480156104e457600080fd5b506102ac61138f565b3480156104f957600080fd5b5061050261139e565b604080517bffffffffffffffffffffffffffffffffffffffffffffffffffffffff199092168252519081900360200190f35b34801561054057600080fd5b506102ac611441565b34801561055557600080fd5b506102d96004356114b4565b34801561056d57600080fd5b506102ac60043561161c565b34801561058557600080fd5b50610363611697565b34801561059a57600080fd5b506103a0600160a060020a0360043516611710565b3480156105bb57600080fd5b506103a0602460048035828101929082013591813591820191013561182e565b3480156105e757600080fd5b506103d260048035600160a060020a039081169160248035808201939083013592604435926064359260843581169260a4359283019201359060c4351660e435611cc1565b34801561063857600080fd5b506102ac611d50565b34801561064d57600080fd5b506103a0600160a060020a0360043581169060243516611dc3565b34801561067457600080fd5b506102ac600435611e66565b34801561068c57600080fd5b506103d2600435611ee9565b3480156106a457600080fd5b506103d2600435611f6d565b3480156106bc57600080fd5b506102ac611fb7565b3480156106d157600080fd5b506102ac61202a565b3480156106e657600080fd5b506103636120a2565b3480156106fb57600080fd5b506103d2600435612116565b34801561071357600080fd5b506103a0600160a060020a036004358116906024351661219a565b34801561073a57600080fd5b506102ac6122a9565b34801561074f57600080fd5b5061036361233d565b34801561076457600080fd5b506103a0600160a060020a03600435166024356044356123b1565b34801561078b57600080fd5b506102ac6126a3565b3480156107a057600080fd5b506107a9612716565b6040805167ffffffffffffffff9485168152928416602084015292168183015290519081900360600190f35b3480156107e157600080fd5b506102ac612721565b3480156107f657600080fd5b506103a0600435612794565b34801561080e57600080fd5b506103d260048035600160a060020a031690602480359160443591820191013561288b565b34801561083f57600080fd5b506103a060043560243515156044356128fc565b34801561085f57600080fd5b506103a0600435612b89565b34801561087757600080fd5b506103a0600435612c98565b34801561088f57600080fd5b506103a0600435612db8565b3480156108a757600080fd5b506103a0600435612ec7565b3480156108bf57600080fd5b506102ac612f68565b3480156108d457600080fd5b50610363612fdb565b3480156108e957600080fd5b506102ac61304f565b3480156108fe57600080fd5b506103d2600160a060020a036004803582169160248035808201939081013592604435926064359260843583169260a43580840193908301359260c43583169260e435169161010435908101910135610124356130c2565b34801561096257600080fd5b506103d2600435613185565b34801561097a57600080fd5b506103a06004356131d0565b34801561099257600080fd5b50610502613271565b3480156109a757600080fd5b506103a0600160a060020a03600435166132e3565b3480156109c857600080fd5b506102ac61331d565b3480156109dd57600080fd5b506102ac613390565b3480156109f257600080fd5b506103d2600435613403565b348015610a0a57600080fd5b506102ac61342b565b60008060008360405160200180807f6e756d4d657373616765735369676e656400000000000000000000000000000081525060110182600019166000191681526020019150506040516020818303038152906040526040518082805190602001908083835b60208310610a975780518252601f199092019160209182019101610a78565b51815160209384036101000a600019018019909216911617905260408051929094018290039091208652850195909552929092016000205495945050505050565b604080516020808201859052818301849052825180830384018152606092830193849052805192936000939192909182918401908083835b60208310610b2f5780518252601f199092019160209182019101610b10565b51815160209384036101000a6000190180199092169116179052604080519290940182900382207f7369676e6174757265730000000000000000000000000000000000000000000083830152602a80840182905285518085039091018152604a9093019485905282519097506003965060009550919392508291908401908083835b60208310610bd05780518252601f199092019160209182019101610bb1565b6001836020036101000a0380198251168184511680821785525050505050509050019150506040518091039020600019166000191681526020019081526020016000208054600181600116156101000203166002900480601f016020809104026020016040519081016040528092919081815260200182805460018160011615610100020316600290048015610ca75780601f10610c7c57610100808354040283529160200191610ca7565b820191906000526020600020905b815481529060010190602001808311610c8a57829003601f168201915b505050505091505092915050565b60006002600060405160200180807f657263363737746f6b656e000000000000000000000000000000000000000000815250600b0190506040516020818303038152906040526040518082805190602001908083835b60208310610d2a5780518252601f199092019160209182019101610d0b565b51815160209384036101000a6000190180199092169116179052604080519290940182900390912086528501959095529290920160002054600160a060020a031693505050505b90565b6000610d7e6120a2565b600160a060020a03163314610d9257600080fd5b610d9a612fdb565b9050610da6818361348c565b5050565b610db26120a2565b600160a060020a03163314610dc657600080fd5b610e61610dd1612fdb565b826040516020018080600080516020615bd8833981519152815250600b0190506040516020818303038152906040526040518082805190602001908083835b60208310610e2f5780518252601f199092019160209182019101610e10565b6001836020036101000a038019825116818451168082178552505050505050905001915050604051809103902061355e565b50565b6000600460008360405160200180807f6669786564417373657473000000000000000000000000000000000000000000815250600b0182600019166000191681526020019150506040516020818303038152906040526040518082805190602001908083835b60208310610ee95780518252601f199092019160209182019101610eca565b51815160209384036101000a600019018019909216911617905260408051929094018290039091208652850195909552929092016000205460ff1695945050505050565b60008060008360405160200180807f746f74616c5370656e745065724461790000000000000000000000000000000081525060100182815260200191505060405160208183030381529060405260405180828051906020019080838360208310610a975780518252601f199092019160209182019101610a78565b610fb06120a2565b600160a060020a03163314610fc457600080fd5b610e61610fcf612fdb565b826040516020018080600080516020615bf8833981519152815250600801905060405160208183030381529060405260405180828051906020019080838360208310610e2f5780518252601f199092019160209182019101610e10565b60006004600060405160200180807f6973496e697469616c697a656400000000000000000000000000000000000000815250600d0190506040516020818303038152906040526040518082805190602001908083835b602083106110a15780518252601f199092019160209182019101611082565b51815160209384036101000a600019018019909216911617905260408051929094018290039091208652850195909552929092016000205460ff16949350505050565b6110ec6120a2565b600160a060020a0316331461110057600080fd5b611108611fb7565b811180611113575080155b151561111e57600080fd5b8060008060405160200180807f657865637574696f6e4461696c794c696d69740000000000000000000000000081525060130190506040516020818303038152906040526040518082805190602001908083835b602083106111915780518252601f199092019160209182019101611172565b51815160001960209485036101000a019081169019919091161790526040805194909201849003909320865285830196909652509284016000209490945550815184815291517f9bebf928b90863f24cc31f726a3a7545efd409f1dcf552301b1ee3710da70d3b9350918290030190a150565b60006112a58f8f8f808060200260200160405190810160405280939291908181526020018383602002808284378201915050505050508e8e8e8e8e808060200260200160405190810160405280939291908181526020018383602002808284378201915050505050508d8d8d8d808060200260200160405190810160405280939291908181526020018383602002808284378201915050505050508b613710565b6112af868461348c565b6112b761390d565b6112bf61102c565b9f9e505050505050505050505050505050565b62015180420490565b600080600060405160200180807f7265717569726564426c6f636b436f6e6669726d6174696f6e73000000000000815250601a0190506040516020818303038152906040526040518082805190602001908083835b6020831061134f5780518252601f199092019160209182019101611330565b51815160209384036101000a6000190180199092169116179052604080519290940182900390912086528501959095529290920160002054949350505050565b60006113996139ce565b905090565b600060405160200180807f6572632d746f2d6572632d636f72650000000000000000000000000000000000815250600f0190506040516020818303038152906040526040518082805190602001908083835b6020831061140f5780518252601f1990920191602091820191016113f0565b6001836020036101000a0380198251168184511680821785525050505050509050019150506040518091039020905090565b600080600060405160200180807f657865637574696f6e4461696c794c696d69740000000000000000000000000081525060130190506040516020818303038152906040526040518082805190602001908083836020831061134f5780518252601f199092019160209182019101611330565b6060600360008360405160200180807f6d6573736167657300000000000000000000000000000000000000000000000081525060080182600019166000191681526020019150506040516020818303038152906040526040518082805190602001908083835b602083106115395780518252601f19909201916020918201910161151a565b6001836020036101000a0380198251168184511680821785525050505050509050019150506040518091039020600019166000191681526020019081526020016000208054600181600116156101000203166002900480601f0160208091040260200160405190810160405280929190818152602001828054600181600116156101000203166002900480156116105780601f106115e557610100808354040283529160200191611610565b820191906000526020600020905b8154815290600101906020018083116115f357829003601f168201915b50505050509050919050565b60008060008360405160200180807f746f74616c45786563757465645065724461790000000000000000000000000081525060130182815260200191505060405160208183030381529060405260405180828051906020019080838360208310610a975780518252601f199092019160209182019101610a78565b600080600060606116a6612fdb565b60408051600481526024810190915260208082018051600160e060020a03167f56b54bae0000000000000000000000000000000000000000000000000000000017815282519395509193509160009182865af2600051935080801561028f575b5092949350505050565b6117186120a2565b600160a060020a0316331461172c57600080fd5b600160a060020a03811615806117465750611746816139d3565b151561175157600080fd5b806002600060405160200180807f6665654d616e61676572436f6e7472616374000000000000000000000000000081525060120190506040516020818303038152906040526040518082805190602001908083835b602083106117c55780518252601f1990920191602091820191016117a6565b51815160209384036101000a60001901801990921691161790526040805192909401829003909120865285019590955292909201600020805473ffffffffffffffffffffffffffffffffffffffff1916600160a060020a03959095169490941790935550505050565b600080600080600061183e61233d565b600160a060020a031663facd743b336040518263ffffffff1660e060020a0281526004018082600160a060020a0316600160a060020a03168152602001915050602060405180830381600087803b15801561189857600080fd5b505af11580156118ac573d6000803e3d6000fd5b505050506040513d60208110156118c257600080fd5b505115156118cf57600080fd5b61190887878080601f016020809104026020016040519081016040528093929190818152602001838380828437506139db945050505050565b151561191357600080fd5b61197a89898080601f0160208091040260200160405190810160405280939291908181526020018383808284375050604080516020601f8f018190048102820181019092528d815294508d93508c92508291508401838280828437506139ef945050505050565b600160a060020a0316331461198e57600080fd5b8686604051602001808383808284378201915050925050506040516020818303038152906040526040518082805190602001908083835b602083106119e45780518252601f1990920191602091820191016119c5565b51815160209384036101000a600019018019909216911617905260408051929094018290038220336c0100000000000000000000000002838301526034808401829052855180850390910181526054909301948590528251909b509195509293508392850191508083835b60208310611a6e5780518252601f199092019160209182019101611a4f565b6001836020036101000a03801982511681845116808217855250505050505090500191505060405180910390209350611aa685610a13565b9250611ab183613403565b15611abb57600080fd5b600192830192831115611ae057611ad184612116565b15611adb57600080fd5b611b1a565b611b1a8588888080601f01602080910402602001604051908101604052809392919081815260200183838082843750613aaf945050505050565b611b25846001613b81565b604080516020808201889052600019860182840152825180830384018152606090920192839052815191929182918401908083835b60208310611b795780518252601f199092019160209182019101611b5a565b51815160209384036101000a600019018019909216911617905260408051929094018290038220601f8f018290048202830182019094528d8252929650611bda9450869350918d91508c908190840183828082843750613c53945050505050565b611be48584613cd6565b60408051868152905133917fbf06885f40778f5ccfb64497d3f92ce568ddaedb7e2fb4487f72690418cf8e4c919081900360200190a2611c2261202a565b9050808310611cb657611c3d85611c3885613d9b565b613cd6565b604080513381526020810187905280820183905290517f415557404d88a0c0b8e3b16967cafffc511213fd9c465c16832ee17ed57d72379181900360600190a1611cb687878080601f01602080910402602001604051908101604052809392919081815260200183838082843750613dc0945050505050565b505050505050505050565b6000611d318b8b8b808060200260200160405190810160405280939291908181526020018383602002808284378201915050505050508a8a8a8a8a808060200260200160405190810160405280939291908181526020018383602002808284378201915050505050508989613e74565b611d3961390d565b611d4161102c565b9b9a5050505050505050505050565b600080600060405160200180807f6461696c794c696d697400000000000000000000000000000000000000000000815250600a0190506040516020818303038152906040526040518082805190602001908083836020831061134f5780518252601f199092019160209182019101611330565b30600160a060020a0316636fde82026040518163ffffffff1660e060020a028152600401602060405180830381600087803b158015611e0157600080fd5b505af1158015611e15573d6000803e3d6000fd5b505050506040513d6020811015611e2b57600080fd5b5051600160a060020a03163314611e4157600080fd5b80600160a060020a0381161515611e5757600080fd5b611e618383614826565b505050565b60008060008360405160200180807f6e756d41666669726d6174696f6e735369676e65640000000000000000000000815250601501826000191660001916815260200191505060405160208183030381529060405260405180828051906020019080838360208310610a975780518252601f199092019160209182019101610a78565b6000600460008360405160200180807f61666669726d6174696f6e735369676e65640000000000000000000000000000815250601201826000191660001916815260200191505060405160208183030381529060405260405180828051906020019080838360208310610ee95780518252601f199092019160209182019101610eca565b600080611f9083611f84611f7f6112d2565b61161c565b9063ffffffff61484e16565b905080611f9b611441565b10158015611fb05750611fac611fb7565b8311155b9392505050565b600080600060405160200180807f657865637574696f6e4d6178506572547800000000000000000000000000000081525060110190506040516020818303038152906040526040518082805190602001908083836020831061134f5780518252601f199092019160209182019101611330565b600061203461233d565b600160a060020a0316638d0680436040518163ffffffff1660e060020a028152600401602060405180830381600087803b15801561207157600080fd5b505af1158015612085573d6000803e3d6000fd5b505050506040513d602081101561209b57600080fd5b5051905090565b60006002600060405160200180807f6f776e6572000000000000000000000000000000000000000000000000000000815250600501905060405160208183030381529060405260405180828051906020019080838360208310610d2a5780518252601f199092019160209182019101610d0b565b6000600460008360405160200180807f6d657373616765735369676e6564000000000000000000000000000000000000815250600e01826000191660001916815260200191505060405160208183030381529060405260405180828051906020019080838360208310610ee95780518252601f199092019160209182019101610eca565b30600160a060020a0316636fde82026040518163ffffffff1660e060020a028152600401602060405180830381600087803b1580156121d857600080fd5b505af11580156121ec573d6000803e3d6000fd5b505050506040513d602081101561220257600080fd5b5051600160a060020a0316331461221857600080fd5b612220610cb5565b604080517f69ffa08a000000000000000000000000000000000000000000000000000000008152600160a060020a0385811660048301528481166024830152915192909116916369ffa08a9160448082019260009290919082900301818387803b15801561228d57600080fd5b505af11580156122a1573d6000803e3d6000fd5b505050505050565b60006113996040516020018080600080516020615bf883398151915281525060080190506040516020818303038152906040526040518082805190602001908083835b6020831061230b5780518252601f1990920191602091820191016122ec565b6001836020036101000a0380198251168184511680821785525050505050509050019150506040518091039020614861565b60006002600060405160200180807f76616c696461746f72436f6e7472616374000000000000000000000000000000815250601101905060405160208183030381529060405260405180828051906020019080838360208310610d2a5780518252601f199092019160209182019101610d0b565b60008060006123be61233d565b600160a060020a031663facd743b336040518263ffffffff1660e060020a0281526004018082600160a060020a0316600160a060020a03168152602001915050602060405180830381600087803b15801561241857600080fd5b505af115801561242c573d6000803e3d6000fd5b505050506040513d602081101561244257600080fd5b5051151561244f57600080fd5b61245885611f6d565b1561269857604080516c01000000000000000000000000600160a060020a0389160260208083019190915260348201889052605480830188905283518084039091018152607490920192839052815191929182918401908083835b602083106124d25780518252601f1990920191602091820191016124b3565b51815160209384036101000a600019018019909216911617905260408051929094018290038220336c01000000000000000000000000028383015260348084018290528551808503909101815260549093019485905282519099509195509293508392850191508083835b6020831061255c5780518252601f19909201916020918201910161253d565b6001836020036101000a0380198251168184511680821785525050505050509050019150506040518091039020915061259482611ee9565b1561259e57600080fd5b6125a98260016149b6565b6125b283611e66565b90506125bd81613403565b156125c757600080fd5b6001016125d48382614a39565b60408051858152905133917f5df9cc3eb93d8a9a481857a3b70a8ca966e6b80b25cf0ee2cce180ec5afa80a1919081900360200190a261261261202a565b81106126935761262a8361262583613d9b565b614a39565b60008511156126495761263e868686614abb565b151561264957600080fd5b60408051600160a060020a03881681526020810187905280820186905290517f6fc115a803b8703117d9a3956c5a15401cb42401f91630f015eb6b043fa762539181900360600190a15b6122a1565b6122a1868686614c3a565b600080600060405160200180807f6465706c6f7965644174426c6f636b0000000000000000000000000000000000815250600f0190506040516020818303038152906040526040518082805190602001908083836020831061134f5780518252601f199092019160209182019101611330565b600260036000909192565b600080600060405160200180807f6f75744f664c696d6974416d6f756e740000000000000000000000000000000081525060100190506040516020818303038152906040526040518082805190602001908083836020831061134f5780518252601f199092019160209182019101611330565b61279c6120a2565b600160a060020a031633146127b057600080fd5b6127b8611d50565b811080156127cc57506127c961331d565b81105b15156127d757600080fd5b8060008060405160200180807f6d696e506572547800000000000000000000000000000000000000000000000081525060080190506040516020818303038152906040526040518082805190602001908083835b6020831061284a5780518252601f19909201916020918201910161282b565b51815160209384036101000a600019018019909216911617905260408051929094018290039091208652850195909552929092016000209390935550505050565b600080612896610cb5565b905033600160a060020a038216146128ad57600080fd5b6128b685613185565b15156128c157600080fd5b6128e56128cc6112d2565b6128e087611f846128db6112d2565b610f2d565b614cd5565b6128f0818787614d4f565b50600195945050505050565b60008060008060008030600160a060020a0316636fde82026040518163ffffffff1660e060020a028152600401602060405180830381600087803b15801561294357600080fd5b505af1158015612957573d6000803e3d6000fd5b505050506040513d602081101561296d57600080fd5b5051600160a060020a0316331461298357600080fd5b61298c89610e64565b1561299657600080fd5b61299e61331d565b8711156129aa57600080fd5b6129b389614dba565b9096509450600160a060020a038616158015906129d05750600085115b80156129dc5750868510155b15156129e757600080fd5b612a07612a02886129f6612721565b9063ffffffff614f4116565b614f53565b612a17858863ffffffff614f4116565b9350612a23848a614fc5565b604080518881526020810186905281518b927f5bcec6564fe8d2cbb4e4eb8237510ceb6b291a5c2ee2e429948d25e9c924c1fa928290030190a2831515612a6d57612a6d89615047565b8715611cb657612a7b612fdb565b9250869150600160a060020a03831615612b3a57612b25876000856040516020018080600080516020615bf883398151915281525060080190506040516020818303038152906040526040518082805190602001908083835b60208310612af35780518252601f199092019160209182019101612ad4565b6001836020036101000a0380198251168184511680821785525050505050509050019150506040518091039020615119565b9050612b37878263ffffffff614f4116565b91505b60408051600160a060020a03881681526020810184905281517f127650bcfb0ba017401abe4931453a405140a8fd36fece67bae2db174d3fdd63929181900390910190a1505050505050505050565b612b916120a2565b600160a060020a03163314612ba557600080fd5b60008111612bb257600080fd5b8060008060405160200180807f7265717569726564426c6f636b436f6e6669726d6174696f6e73000000000000815250601a0190506040516020818303038152906040526040518082805190602001908083835b60208310612c255780518252601f199092019160209182019101612c06565b51815160001960209485036101000a019081169019919091161790526040805194909201849003909320865285830196909652509284016000209490945550815184815291517f4fb76205cd57c896b21511d2114137d8e901b4ccd659e1a0f97d6306795264fb9350918290030190a150565b612ca06120a2565b600160a060020a03163314612cb457600080fd5b612cbc61331d565b811180612cc7575080155b1515612cd257600080fd5b8060008060405160200180807f6461696c794c696d697400000000000000000000000000000000000000000000815250600a0190506040516020818303038152906040526040518082805190602001908083835b60208310612d455780518252601f199092019160209182019101612d26565b51815160001960209485036101000a019081169019919091161790526040805194909201849003909320865285830196909652509284016000209490945550815184815291517fad4123ae17c414d9c6d2fec478b402e6b01856cc250fd01fbfd252fda0089d3c9350918290030190a150565b612dc06120a2565b600160a060020a03163314612dd457600080fd5b60008111612de157600080fd5b8060008060405160200180807f676173507269636500000000000000000000000000000000000000000000000081525060080190506040516020818303038152906040526040518082805190602001908083835b60208310612e545780518252601f199092019160209182019101612e35565b51815160001960209485036101000a019081169019919091161790526040805194909201849003909320865285830196909652509284016000209490945550815184815291517f52264b89e0fceafb26e79fd49ef8a366eb6297483bf4035b027f0c99a7ad512e9350918290030190a150565b612ecf6120a2565b600160a060020a03163314612ee357600080fd5b612eeb611d50565b8110612ef657600080fd5b8060008060405160200180807f6d6178506572547800000000000000000000000000000000000000000000000081525060080190506040516020818303038152906040526040518082805190602001908083836020831061284a5780518252601f19909201916020918201910161282b565b600080600060405160200180807f646563696d616c53686966740000000000000000000000000000000000000000815250600c0190506040516020818303038152906040526040518082805190602001908083836020831061134f5780518252601f199092019160209182019101611330565b60006002600060405160200180807f6665654d616e61676572436f6e74726163740000000000000000000000000000815250601201905060405160208183030381529060405260405180828051906020019080838360208310610d2a5780518252601f199092019160209182019101610d0b565b600080600060405160200180807f6d696e506572547800000000000000000000000000000000000000000000000081525060080190506040516020818303038152906040526040518082805190602001908083836020831061134f5780518252601f199092019160209182019101611330565b60006131638e8e8e808060200260200160405190810160405280939291908181526020018383602002808284378201915050505050508d8d8d8d8d808060200260200160405190810160405280939291908181526020018383602002808284378201915050505050508c8c8c8c808060200260200160405190810160405280939291908181526020018383602002808284378201915050505050508b613710565b61316b61390d565b61317361102c565b9e9d5050505050505050505050505050565b60008061319783611f846128db6112d2565b9050806131a2611d50565b101580156131b757506131b361331d565b8311155b8015611fb057506131c661304f565b9092101592915050565b6131d86120a2565b600160a060020a031633146131ec57600080fd5b6131f4611441565b81106131ff57600080fd5b8060008060405160200180807f657865637574696f6e4d6178506572547800000000000000000000000000000081525060110190506040516020818303038152906040526040518082805190602001908083836020831061284a5780518252601f19909201916020918201910161282b565b604080516004815260248101909152602081018051600160e060020a03167ff2ba9561000000000000000000000000000000000000000000000000000000001790526000908190816132c1612fdb565b9050600460008351602085016000855af2600051935080801561028f57611706565b6132eb6120a2565b600160a060020a031633146132ff57600080fd5b600160a060020a038116151561331457600080fd5b610e61816151a4565b600080600060405160200180807f6d6178506572547800000000000000000000000000000000000000000000000081525060080190506040516020818303038152906040526040518082805190602001908083836020831061134f5780518252601f199092019160209182019101611330565b600080600060405160200180807f676173507269636500000000000000000000000000000000000000000000000081525060080190506040516020818303038152906040526040518082805190602001908083836020831061134f5780518252601f199092019160209182019101611330565b7f80000000000000000000000000000000000000000000000000000000000000009081161490565b60006113996040516020018080600080516020615bd8833981519152815250600b0190506040516020818303038152906040526040518082805190602001908083836020831061230b5780518252601f1990920191602091820191016122ec565b60408051600160a060020a038381166024808401919091528351808403909101815260449092018352602082018051600160e060020a03167f27a3e16b000000000000000000000000000000000000000000000000000000001781529251825191861693909182919080838360005b838110156135135781810151838201526020016134fb565b50505050905090810190601f1680156135405780820380516001836020036101000a031916815260200191505b50915050600060405180830381855af49150501515610da657600080fd5b60006040516020018080600080516020615bf883398151915281525060080190506040516020818303038152906040526040518082805190602001908083835b602083106135bd5780518252601f19909201916020918201910161359e565b5181516020939093036101000a6000190180199091169216919091179052604051920182900390912085149250613617915050577f286c406600000000000000000000000000000000000000000000000000000000613639565b7f34a9e148000000000000000000000000000000000000000000000000000000005b6040805160248082018790528251808303909101815260449091018252602081018051600160e060020a03167bffffffffffffffffffffffffffffffffffffffffffffffffffffffff19851617815291518151939450600160a060020a038816939192909182919080838360005b838110156136bf5781810151838201526020016136a7565b50505050905090810190601f1680156136ec5780820380516001836020036101000a031916815260200191505b50915050600060405180830381855af4915050151561370a57600080fd5b50505050565b6137208a8a8a8a8a8a8a88613e74565b613729836139d3565b151561373457600080fd5b826002600060405160200180807f6665654d616e61676572436f6e7472616374000000000000000000000000000081525060120190506040516020818303038152906040526040518082805190602001908083835b602083106137a85780518252601f199092019160209182019101613789565b51815160209384036101000a600019018019909216911617905260408051929094018290039091208652850195909552929092016000908120805473ffffffffffffffffffffffffffffffffffffffff1916600160a060020a03969096169590951790945550508351613888928692508591811061382257fe5b906020019060200201516040516020018080600080516020615bf8833981519152815250600801905060405160208183030381529060405260405180828051906020019080838360208310610e2f5780518252601f199092019160209182019101610e10565b6139018383600181518110151561389b57fe5b906020019060200201516040516020018080600080516020615bd8833981519152815250600b01905060405160208183030381529060405260405180828051906020019080838360208310610e2f5780518252601f199092019160209182019101610e10565b50505050505050505050565b60016004600060405160200180807f6973496e697469616c697a656400000000000000000000000000000000000000815250600d0190506040516020818303038152906040526040518082805190602001908083835b602083106139825780518252601f199092019160209182019101613963565b51815160209384036101000a60001901801990921691161790526040805192909401829003909120865285019590955292909201600020805460ff191694151594909417909355505050565b606890565b6000903b1190565b60006139e56139ce565b8251149050919050565b60008060008085516041141515613a0557600080fd5b5050506020830151604084015160608501516001613a2286615262565b60408051600080825260208083018085529490945260ff7f0100000000000000000000000000000000000000000000000000000000000000870416828401526060820188905260808201879052915160a08083019493601f198301938390039091019190865af1158015613a9a573d6000803e3d6000fd5b5050604051601f190151979650505050505050565b80600360008460405160200180807f6d6573736167657300000000000000000000000000000000000000000000000081525060080182600019166000191681526020019150506040516020818303038152906040526040518082805190602001908083835b60208310613b335780518252601f199092019160209182019101613b14565b51815160001960209485036101000a01908116901991909116179052604080519490920184900390932086528583019690965250929093016000208451611e61959194509201919050615b0f565b80600460008460405160200180807f6d657373616765735369676e6564000000000000000000000000000000000000815250600e0182600019166000191681526020019150506040516020818303038152906040526040518082805190602001908083835b60208310613c055780518252601f199092019160209182019101613be6565b51815160209384036101000a60001901801990921691161790526040805192909401829003909120865285019590955292909201600020805460ff1916941515949094179093555050505050565b80600360008460405160200180807f7369676e61747572657300000000000000000000000000000000000000000000815250600a01826000191660001916815260200191505060405160208183030381529060405260405180828051906020019080838360208310613b335780518252601f199092019160209182019101613b14565b806000808460405160200180807f6e756d4d657373616765735369676e656400000000000000000000000000000081525060110182600019166000191681526020019150506040516020818303038152906040526040518082805190602001908083835b60208310613d595780518252601f199092019160209182019101613d3a565b51815160209384036101000a60001901801990921691161790526040805192909401829003909120865285019590955292909201600020939093555050505050565b7f80000000000000000000000000000000000000000000000000000000000000001790565b600080600080600080613dd1612fdb565b9550600160a060020a03861615613e6b57613deb87615427565b80955081965082975083985050505050613e5e846001886040516020018080600080516020615bf8833981519152815250600801905060405160208183030381529060405260405180828051906020019080838360208310612af35780518252601f199092019160209182019101612ad4565b9050613e6b818785615462565b50505050505050565b613e7c61102c565b15613e8657600080fd5b613e8f886139d3565b1515613e9a57600080fd5b60008511613ea757600080fd5b6000876002815181101515613eb857fe5b90602001906020020151118015613efe5750866002815181101515613ed957fe5b90602001906020020151876001815181101515613ef257fe5b90602001906020020151115b8015613f395750866001815181101515613f1457fe5b90602001906020020151876000815181101515613f2d57fe5b90602001906020020151115b1515613f4457600080fd5b826000815181101515613f5357fe5b90602001906020020151836001815181101515613f6c57fe5b6020908102909101015110613f8057600080fd5b600160a060020a0382161515613f9557600080fd5b876002600060405160200180807f76616c696461746f72436f6e747261637400000000000000000000000000000081525060110190506040516020818303038152906040526040518082805190602001908083835b602083106140095780518252601f199092019160209182019101613fea565b51815160209384036101000a60001901801990921691161790526040805192909401829003909120865285810196909652509283016000908120805473ffffffffffffffffffffffffffffffffffffffff1916600160a060020a039790971696909617909555505080517f6465706c6f7965644174426c6f636b0000000000000000000000000000000000818401528151600f818303018152602f90910191829052805143949384939182918401908083835b602083106140db5780518252601f1990920191602091820191016140bc565b51815160209384036101000a600019018019909216911617905260408051929094018290039091208652850195909552929092016000908120949094555050885189929150811061412857fe5b9060200190602002015160008060405160200180807f6461696c794c696d697400000000000000000000000000000000000000000000815250600a0190506040516020818303038152906040526040518082805190602001908083835b602083106141a45780518252601f199092019160209182019101614185565b51815160209384036101000a60001901801990921691161790526040805192909401829003909120865285019590955292909201600020939093555050875188915060019081106141f157fe5b9060200190602002015160008060405160200180807f6d6178506572547800000000000000000000000000000000000000000000000081525060080190506040516020818303038152906040526040518082805190602001908083835b6020831061426d5780518252601f19909201916020918201910161424e565b51815160209384036101000a60001901801990921691161790526040805192909401829003909120865285019590955292909201600020939093555050875188915060029081106142ba57fe5b9060200190602002015160008060405160200180807f6d696e506572547800000000000000000000000000000000000000000000000081525060080190506040516020818303038152906040526040518082805190602001908083835b602083106143365780518252601f199092019160209182019101614317565b51815160209384036101000a6000190180199092169116179052604080519290940182900390912086528581019690965250928301600090812095909555505080517f6761735072696365000000000000000000000000000000000000000000000000818401528151600881830301815260289091019182905280518a949384939182918401908083835b602083106143e05780518252601f1990920191602091820191016143c1565b51815160209384036101000a6000190180199092169116179052604080519290940182900390912086528581019690965250928301600090812095909555505080517f7265717569726564426c6f636b436f6e6669726d6174696f6e73000000000000818401528151601a818303018152603a90910191829052805189949384939182918401908083835b6020831061448a5780518252601f19909201916020918201910161446b565b51815160209384036101000a60001901801990921691161790526040805192909401829003909120865285019590955292909201600090812094909455505084518592915081106144d757fe5b9060200190602002015160008060405160200180807f657865637574696f6e4461696c794c696d69740000000000000000000000000081525060130190506040516020818303038152906040526040518082805190602001908083835b602083106145535780518252601f199092019160209182019101614534565b51815160209384036101000a60001901801990921691161790526040805192909401829003909120865285019590955292909201600020939093555050835184915060019081106145a057fe5b9060200190602002015160008060405160200180807f657865637574696f6e4d6178506572547800000000000000000000000000000081525060110190506040516020818303038152906040526040518082805190602001908083835b6020831061461c5780518252601f1990920191602091820191016145fd565b51815160209384036101000a6000190180199092169116179052604080519290940182900390912086528581019690965250928301600090812095909555505080517f646563696d616c53686966740000000000000000000000000000000000000000818401528151600c818303018152602c90910191829052805185949384939182918401908083835b602083106146c65780518252601f1990920191602091820191016146a7565b51815160209384036101000a60001901801990921691161790526040805192909401829003909120865285019590955292909201600020939093555061470f91508390506151a4565b61471884615567565b6040805186815290517f4fb76205cd57c896b21511d2114137d8e901b4ccd659e1a0f97d6306795264fb9181900360200190a16040805187815290517f52264b89e0fceafb26e79fd49ef8a366eb6297483bf4035b027f0c99a7ad512e9181900360200190a17fad4123ae17c414d9c6d2fec478b402e6b01856cc250fd01fbfd252fda0089d3c8760008151811015156147ae57fe5b906020019060200201516040518082815260200191505060405180910390a17f9bebf928b90863f24cc31f726a3a7545efd409f1dcf552301b1ee3710da70d3b8360008151811015156147fd57fe5b906020019060200201516040518082815260200191505060405180910390a15050505050505050565b600160a060020a03821615156148445761483f816155ee565b610da6565b610da68282615659565b8181018281101561485b57fe5b92915050565b6000806000806060614871612fdb565b92506040516020018080600080516020615bf883398151915281525060080190506040516020818303038152906040526040518082805190602001908083835b602083106148d05780518252601f1990920191602091820191016148b1565b5181516020939093036101000a600019018019909116921691909117905260405192018290039091208914925061492a915050577fffd661960000000000000000000000000000000000000000000000000000000061494c565b7f94da17cd000000000000000000000000000000000000000000000000000000005b60408051600481526024810190915260208082018051600160e060020a03167bffffffffffffffffffffffffffffffffffffffffffffffffffffffff19851617815282519395509193509160009182875af2600051945080801561028f5750939695505050505050565b80600460008460405160200180807f61666669726d6174696f6e735369676e65640000000000000000000000000000815250601201826000191660001916815260200191505060405160208183030381529060405260405180828051906020019080838360208310613c055780518252601f199092019160209182019101613be6565b806000808460405160200180807f6e756d41666669726d6174696f6e735369676e65640000000000000000000000815250601501826000191660001916815260200191505060405160208183030381529060405260405180828051906020019080838360208310613d595780518252601f199092019160209182019101613d3a565b600080600080614ae0614acc6112d2565b614adb88611f84611f7f6112d2565b6156f7565b614afb614aeb612f68565b8790600a0a63ffffffff61577116565b9250614b05612fdb565b9150600160a060020a03821615614b9957614b79836000846040516020018080600080516020615bd8833981519152815250600b01905060405160208183030381529060405260405180828051906020019080838360208310612af35780518252601f199092019160209182019101612ad4565b9050614b8681838761579a565b614b96838263ffffffff614f4116565b92505b614ba1610cb5565b600160a060020a03166340c10f1988856040518363ffffffff1660e060020a0281526004018083600160a060020a0316600160a060020a0316815260200182815260200192505050602060405180830381600087803b158015614c0357600080fd5b505af1158015614c17573d6000803e3d6000fd5b505050506040513d6020811015614c2d57600080fd5b5051979650505050505050565b600080614c4683614dba565b9092509050600160a060020a038216158015614c60575080155b1515614c6b57600080fd5b614c7a612a0285611f84612721565b614c8585858561589f565b60408051600160a060020a03871681526020810186905280820185905290517f159c0773f543f1e17d5e78327702770947055eb4e871b529bbc78bc9fde456929181900360600190a15050505050565b806000808460405160200180807f746f74616c5370656e745065724461790000000000000000000000000000000081525060100182815260200191505060405160208183030381529060405260405180828051906020019080838360208310613d595780518252601f199092019160209182019101613d3a565b82600160a060020a03166342966c68826040518263ffffffff1660e060020a02815260040180828152602001915050600060405180830381600087803b158015614d9857600080fd5b505af1158015614dac573d6000803e3d6000fd5b50505050611e618282615995565b600080600260008460405160200180807f74784f75744f664c696d6974526563697069656e74000000000000000000000081525060150182600019166000191681526020019150506040516020818303038152906040526040518082805190602001908083835b60208310614e405780518252601f199092019160209182019101614e21565b51815160209384036101000a600019018019909216911617905260408051929094018290039091208652858101969096525092830160009081205484517f74784f75744f664c696d697456616c75650000000000000000000000000000008188015260318082018b9052865180830390910181526051909101958690528051600160a060020a0390921698509195869592945091925082918401908083835b60208310614efe5780518252601f199092019160209182019101614edf565b51815160209384036101000a6000190180199092169116179052604080519290940182900390912086528501959095529290920160002054949694955050505050565b600082821115614f4d57fe5b50900390565b8060008060405160200180807f6f75744f664c696d6974416d6f756e740000000000000000000000000000000081525060100190506040516020818303038152906040526040518082805190602001908083836020831061284a5780518252601f19909201916020918201910161282b565b816000808360405160200180807f74784f75744f664c696d697456616c7565000000000000000000000000000000815250601101826000191660001916815260200191505060405160208183030381529060405260405180828051906020019080838360208310613d595780518252601f199092019160209182019101613d3a565b6001600460008360405160200180807f6669786564417373657473000000000000000000000000000000000000000000815250600b0182600019166000191681526020019150506040516020818303038152906040526040518082805190602001908083835b602083106150cc5780518252601f1990920191602091820191016150ad565b51815160209384036101000a60001901801990921691161790526040805192909401829003909120865285019590955292909201600020805460ff19169415159490941790935550505050565b60408051602481018690528415156044820152606480820184905282518083039091018152608490910190915260208181018051600160e060020a03167f9862f26f000000000000000000000000000000000000000000000000000000001781528251600093849390929091849182895af2600051925080801561028f575091979650505050505050565b7f8be0079c531659141344cd1fd0a4f28419497f9722a3daafe3b4186f6b6457e06151cd6120a2565b60408051600160a060020a03928316815291841660208301528051918290030190a1806002600060405160200180807f6f776e65720000000000000000000000000000000000000000000000000000008152506005019050604051602081830303815290604052604051808280519060200190808383602083106117c55780518252601f1990920191602091820191016117a6565b604080518082018252601a81527f19457468657265756d205369676e6564204d6573736167653a0a000000000000602080830191825283518085018552600381527f313034000000000000000000000000000000000000000000000000000000000081830152935183516000959385938593899391019182918083835b602083106152fe5780518252601f1990920191602091820191016152df565b51815160209384036101000a600019018019909216911617905286519190930192860191508083835b602083106153465780518252601f199092019160209182019101615327565b51815160209384036101000a600019018019909216911617905285519190930192850191508083835b6020831061538e5780518252601f19909201916020918201910161536f565b6001836020036101000a03801982511681845116808217855250505050505090500193505050506040516020818303038152906040526040518082805190602001908083835b602083106153f35780518252601f1990920191602091820191016153d4565b5181516020939093036101000a60001901801990911692169190911790526040519201829003909120979650505050505050565b600080600080615436856139db565b151561544157600080fd5b50505050601481015160348201516054830151606890930151919390929190565b6040805160248082018690528251808303909101815260449091018252602081018051600160e060020a03167f59d784640000000000000000000000000000000000000000000000000000000017815291518151600160a060020a03861693829180838360005b838110156154e15781810151838201526020016154c9565b50505050905090810190601f16801561550e5780820380516001836020036101000a031916815260200191505b50915050600060405180830381855af4915050151561552c57600080fd5b60408051848152905182917f858abdcd5efcaebb936e8e8516f0cfe9a0ef5157ff99d16cdabb6db625be90d0919081900360200190a2505050565b615570816139d3565b151561557b57600080fd5b806002600060405160200180807f657263363737746f6b656e000000000000000000000000000000000000000000815250600b019050604051602081830303815290604052604051808280519060200190808383602083106117c55780518252601f1990920191602091820191016117a6565b604051303190600160a060020a0383169082156108fc029083906000818181858888f193505050501515610da6578082615626615b8d565b600160a060020a039091168152604051908190036020019082f080158015615652573d6000803e3d6000fd5b5050505050565b604080517f70a0823100000000000000000000000000000000000000000000000000000000815230600482015290518391600091600160a060020a038416916370a0823191602480830192602092919082900301818787803b1580156156be57600080fd5b505af11580156156d2573d6000803e3d6000fd5b505050506040513d60208110156156e857600080fd5b5051905061370a848483615a75565b806000808460405160200180807f746f74616c45786563757465645065724461790000000000000000000000000081525060130182815260200191505060405160208183030381529060405260405180828051906020019080838360208310613d595780518252601f199092019160209182019101613d3a565b60008215156157825750600061485b565b5081810281838281151561579257fe5b041461485b57fe5b6040805160248082018690528251808303909101815260449091018252602081018051600160e060020a03167f054d46ec0000000000000000000000000000000000000000000000000000000017815291518151600160a060020a03861693829180838360005b83811015615819578181015183820152602001615801565b50505050905090810190601f1680156158465780820380516001836020036101000a031916815260200191505b50915050600060405180830381855af4915050151561586457600080fd5b60408051848152905182917fa52d3c9cbc541772e4edd92e2e4e2a3865ab73630f25deed8a6c8de41ff0f65c919081900360200190a2505050565b82600260008360405160200180807f74784f75744f664c696d6974526563697069656e74000000000000000000000081525060150182600019166000191681526020019150506040516020818303038152906040526040518082805190602001908083835b602083106159235780518252601f199092019160209182019101615904565b51815160209384036101000a60001901801990921691161790526040805192909401829003909120865285019590955292909201600020805473ffffffffffffffffffffffffffffffffffffffff1916600160a060020a03959095169490941790935550611e61915083905082614fc5565b806000806159a1612fdb565b9150600160a060020a03821615615a2a57615a15836000846040516020018080600080516020615bf8833981519152815250600801905060405160208183030381529060405260405180828051906020019080838360208310612af35780518252601f199092019160209182019101612ad4565b9050615a27838263ffffffff614f4116565b92505b60408051600160a060020a03871681526020810185905281517f127650bcfb0ba017401abe4931453a405140a8fd36fece67bae2db174d3fdd63929181900390910190a15050505050565b60408051600160a060020a0384166024820152604480820184905282518083039091018152606490910190915260208181018051600160e060020a03167fa9059cbb000000000000000000000000000000000000000000000000000000001781528251606093600093909290918491828a5af1600051935083925080801561028f5750506000835111156122a1578115156122a157600080fd5b828054600181600116156101000203166002900490600052602060002090601f016020900481019282601f10615b5057805160ff1916838001178555615b7d565b82800160010185558215615b7d579182015b82811115615b7d578251825591602001919060010190615b62565b50615b89929150615b9c565b5090565b604051602180615bb783390190565b610d7191905b80821115615b895760008155600101615ba25600608060405260405160208060218339810160405251600160a060020a038116ff00666f726569676e2d666565000000000000000000000000000000000000000000686f6d652d666565000000000000000000000000000000000000000000000000a165627a7a723058207a0dd62a6b4885672bd4f2fa74a0da9892485f04611995b214831b06790a8d260029",
  "source": "pragma solidity 0.4.24;\n\nimport \"./HomeBridgeErcToErc.sol\";\n\ncontract HomeBridgeErcToErcPOSDAO is HomeBridgeErcToErc {\n    bytes4 internal constant BLOCK_REWARD_CONTRACT_SELECTOR = 0x56b54bae; // blockRewardContract()\n    bytes4 internal constant SET_BLOCK_REWARD_CONTRACT = 0x27a3e16b; // setBlockRewardContract(address)\n\n    function rewardableInitialize(\n        address _validatorContract,\n        uint256[] _dailyLimitMaxPerTxMinPerTxArray, // [ 0 = _dailyLimit, 1 = _maxPerTx, 2 = _minPerTx ]\n        uint256 _homeGasPrice,\n        uint256 _requiredBlockConfirmations,\n        address _erc677token,\n        uint256[] _foreignDailyLimitForeignMaxPerTxArray, // [ 0 = _foreignDailyLimit, 1 = _foreignMaxPerTx ]\n        address _owner,\n        address _feeManager,\n        uint256[] _homeFeeForeignFeeArray, // [ 0 = _homeFee, 1 = _foreignFee ]\n        address _blockReward,\n        uint256 _decimalShift\n    ) external returns (bool) {\n        _rewardableInitialize(\n            _validatorContract,\n            _dailyLimitMaxPerTxMinPerTxArray,\n            _homeGasPrice,\n            _requiredBlockConfirmations,\n            _erc677token,\n            _foreignDailyLimitForeignMaxPerTxArray,\n            _owner,\n            _feeManager,\n            _homeFeeForeignFeeArray,\n            _decimalShift\n        );\n        _setBlockRewardContract(_feeManager, _blockReward);\n        setInitialize();\n\n        return isInitialized();\n    }\n\n    function blockRewardContract() public view returns (address) {\n        address blockReward;\n        address feeManager = feeManagerContract();\n        bytes memory callData = abi.encodeWithSelector(BLOCK_REWARD_CONTRACT_SELECTOR);\n\n        assembly {\n            let result := callcode(gas, feeManager, 0x0, add(callData, 0x20), mload(callData), 0, 32)\n            blockReward := mload(0)\n\n            switch result\n                case 0 {\n                    revert(0, 0)\n                }\n        }\n\n        return blockReward;\n    }\n\n    function setBlockRewardContract(address _blockReward) external onlyOwner {\n        address feeManager = feeManagerContract();\n        _setBlockRewardContract(feeManager, _blockReward);\n    }\n\n    function _setBlockRewardContract(address _feeManager, address _blockReward) internal {\n        require(_feeManager.delegatecall(abi.encodeWithSelector(SET_BLOCK_REWARD_CONTRACT, _blockReward)));\n    }\n}\n",
  "sourcePath": "/mono/contracts/contracts/upgradeable_contracts/erc20_to_erc20/HomeBridgeErcToErcPOSDAO.sol",
  "compiler": {
    "name": "solc",
    "version": "0.4.24+commit.e67f0147.Emscripten.clang"
  },
  "schemaVersion": "3.0.11",
  "updatedAt": "2019-09-03T09:43:49.693Z",
  "devdoc": {
    "methods": {
      "owner()": {
        "details": "Tells the address of the owner",
        "return": "the address of the owner"
      },
      "transferOwnership(address)": {
        "details": "Allows the current owner to transfer control of the contract to a newOwner.",
        "params": {
          "newOwner": "the address to transfer ownership to."
        }
      }
    }
  },
  "userdoc": {
    "methods": {}
  }
}