{
  "contractName": "HomeBridgeErcToNative",
  "abi": [
    {
      "constant": true,
      "inputs": [
        {
          "name": "_message",
          "type": "bytes32"
        }
      ],
      "name": "numMessagesSigned",
      "outputs": [
        {
          "name": "",
          "type": "uint256"
        }
      ],
      "payable": false,
      "stateMutability": "view",
      "type": "function"
    },
    {
      "constant": true,
      "inputs": [
        {
          "name": "_hash",
          "type": "bytes32"
        },
        {
          "name": "_index",
          "type": "uint256"
        }
      ],
      "name": "signature",
      "outputs": [
        {
          "name": "",
          "type": "bytes"
        }
      ],
      "payable": false,
      "stateMutability": "view",
      "type": "function"
    },
    {
      "constant": false,
      "inputs": [
        {
          "name": "_fee",
          "type": "uint256"
        }
      ],
      "name": "setForeignFee",
      "outputs": [],
      "payable": false,
      "stateMutability": "nonpayable",
      "type": "function"
    },
    {
      "constant": true,
      "inputs": [
        {
          "name": "_txHash",
          "type": "bytes32"
        }
      ],
      "name": "fixedAssets",
      "outputs": [
        {
          "name": "",
          "type": "bool"
        }
      ],
      "payable": false,
      "stateMutability": "view",
      "type": "function"
    },
    {
      "constant": true,
      "inputs": [
        {
          "name": "_day",
          "type": "uint256"
        }
      ],
      "name": "totalSpentPerDay",
      "outputs": [
        {
          "name": "",
          "type": "uint256"
        }
      ],
      "payable": false,
      "stateMutability": "view",
      "type": "function"
    },
    {
      "constant": false,
      "inputs": [
        {
          "name": "_fee",
          "type": "uint256"
        }
      ],
      "name": "setHomeFee",
      "outputs": [],
      "payable": false,
      "stateMutability": "nonpayable",
      "type": "function"
    },
    {
      "constant": true,
      "inputs": [],
      "name": "isInitialized",
      "outputs": [
        {
          "name": "",
          "type": "bool"
        }
      ],
      "payable": false,
      "stateMutability": "view",
      "type": "function"
    },
    {
      "constant": false,
      "inputs": [
        {
          "name": "_dailyLimit",
          "type": "uint256"
        }
      ],
      "name": "setExecutionDailyLimit",
      "outputs": [],
      "payable": false,
      "stateMutability": "nonpayable",
      "type": "function"
    },
    {
      "constant": true,
      "inputs": [],
      "name": "getCurrentDay",
      "outputs": [
        {
          "name": "",
          "type": "uint256"
        }
      ],
      "payable": false,
      "stateMutability": "view",
      "type": "function"
    },
    {
      "constant": true,
      "inputs": [],
      "name": "requiredBlockConfirmations",
      "outputs": [
        {
          "name": "",
          "type": "uint256"
        }
      ],
      "payable": false,
      "stateMutability": "view",
      "type": "function"
    },
    {
      "constant": true,
      "inputs": [],
      "name": "requiredMessageLength",
      "outputs": [
        {
          "name": "",
          "type": "uint256"
        }
      ],
      "payable": false,
      "stateMutability": "pure",
      "type": "function"
    },
    {
      "constant": true,
      "inputs": [],
      "name": "executionDailyLimit",
      "outputs": [
        {
          "name": "",
          "type": "uint256"
        }
      ],
      "payable": false,
      "stateMutability": "view",
      "type": "function"
    },
    {
      "constant": true,
      "inputs": [
        {
          "name": "_hash",
          "type": "bytes32"
        }
      ],
      "name": "message",
      "outputs": [
        {
          "name": "",
          "type": "bytes"
        }
      ],
      "payable": false,
      "stateMutability": "view",
      "type": "function"
    },
    {
      "constant": true,
      "inputs": [
        {
          "name": "_day",
          "type": "uint256"
        }
      ],
      "name": "totalExecutedPerDay",
      "outputs": [
        {
          "name": "",
          "type": "uint256"
        }
      ],
      "payable": false,
      "stateMutability": "view",
      "type": "function"
    },
    {
      "constant": false,
      "inputs": [
        {
          "name": "_feeManager",
          "type": "address"
        }
      ],
      "name": "setFeeManagerContract",
      "outputs": [],
      "payable": false,
      "stateMutability": "nonpayable",
      "type": "function"
    },
    {
      "constant": false,
      "inputs": [
        {
          "name": "signature",
          "type": "bytes"
        },
        {
          "name": "message",
          "type": "bytes"
        }
      ],
      "name": "submitSignature",
      "outputs": [],
      "payable": false,
      "stateMutability": "nonpayable",
      "type": "function"
    },
    {
      "constant": false,
      "inputs": [
        {
          "name": "txHash",
          "type": "bytes32"
        },
        {
          "name": "unlockOnForeign",
          "type": "bool"
        }
      ],
      "name": "fixAssetsAboveLimits",
      "outputs": [],
      "payable": false,
      "stateMutability": "nonpayable",
      "type": "function"
    },
    {
      "constant": true,
      "inputs": [],
      "name": "dailyLimit",
      "outputs": [
        {
          "name": "",
          "type": "uint256"
        }
      ],
      "payable": false,
      "stateMutability": "view",
      "type": "function"
    },
    {
      "constant": false,
      "inputs": [
        {
          "name": "_token",
          "type": "address"
        },
        {
          "name": "_to",
          "type": "address"
        }
      ],
      "name": "claimTokens",
      "outputs": [],
      "payable": false,
      "stateMutability": "nonpayable",
      "type": "function"
    },
    {
      "constant": true,
      "inputs": [
        {
          "name": "_withdrawal",
          "type": "bytes32"
        }
      ],
      "name": "numAffirmationsSigned",
      "outputs": [
        {
          "name": "",
          "type": "uint256"
        }
      ],
      "payable": false,
      "stateMutability": "view",
      "type": "function"
    },
    {
      "constant": true,
      "inputs": [
        {
          "name": "_withdrawal",
          "type": "bytes32"
        }
      ],
      "name": "affirmationsSigned",
      "outputs": [
        {
          "name": "",
          "type": "bool"
        }
      ],
      "payable": false,
      "stateMutability": "view",
      "type": "function"
    },
    {
      "constant": true,
      "inputs": [
        {
          "name": "_amount",
          "type": "uint256"
        }
      ],
      "name": "withinExecutionLimit",
      "outputs": [
        {
          "name": "",
          "type": "bool"
        }
      ],
      "payable": false,
      "stateMutability": "view",
      "type": "function"
    },
    {
      "constant": true,
      "inputs": [],
      "name": "executionMaxPerTx",
      "outputs": [
        {
          "name": "",
          "type": "uint256"
        }
      ],
      "payable": false,
      "stateMutability": "view",
      "type": "function"
    },
    {
      "constant": true,
      "inputs": [],
      "name": "requiredSignatures",
      "outputs": [
        {
          "name": "",
          "type": "uint256"
        }
      ],
      "payable": false,
      "stateMutability": "view",
      "type": "function"
    },
    {
      "constant": true,
      "inputs": [],
      "name": "owner",
      "outputs": [
        {
          "name": "",
          "type": "address"
        }
      ],
      "payable": false,
      "stateMutability": "view",
      "type": "function"
    },
    {
      "constant": true,
      "inputs": [
        {
          "name": "_message",
          "type": "bytes32"
        }
      ],
      "name": "messagesSigned",
      "outputs": [
        {
          "name": "",
          "type": "bool"
        }
      ],
      "payable": false,
      "stateMutability": "view",
      "type": "function"
    },
    {
      "constant": true,
      "inputs": [
        {
          "name": "_value",
          "type": "uint256"
        }
      ],
      "name": "getAmountToBurn",
      "outputs": [
        {
          "name": "",
          "type": "uint256"
        }
      ],
      "payable": false,
      "stateMutability": "view",
      "type": "function"
    },
    {
      "constant": true,
      "inputs": [],
      "name": "getHomeFee",
      "outputs": [
        {
          "name": "",
          "type": "uint256"
        }
      ],
      "payable": false,
      "stateMutability": "view",
      "type": "function"
    },
    {
      "constant": true,
      "inputs": [],
      "name": "validatorContract",
      "outputs": [
        {
          "name": "",
          "type": "address"
        }
      ],
      "payable": false,
      "stateMutability": "view",
      "type": "function"
    },
    {
      "constant": false,
      "inputs": [
        {
          "name": "recipient",
          "type": "address"
        },
        {
          "name": "value",
          "type": "uint256"
        },
        {
          "name": "transactionHash",
          "type": "bytes32"
        }
      ],
      "name": "executeAffirmation",
      "outputs": [],
      "payable": false,
      "stateMutability": "nonpayable",
      "type": "function"
    },
    {
      "constant": true,
      "inputs": [],
      "name": "deployedAtBlock",
      "outputs": [
        {
          "name": "",
          "type": "uint256"
        }
      ],
      "payable": false,
      "stateMutability": "view",
      "type": "function"
    },
    {
      "constant": true,
      "inputs": [],
      "name": "getBridgeInterfacesVersion",
      "outputs": [
        {
          "name": "major",
          "type": "uint64"
        },
        {
          "name": "minor",
          "type": "uint64"
        },
        {
          "name": "patch",
          "type": "uint64"
        }
      ],
      "payable": false,
      "stateMutability": "pure",
      "type": "function"
    },
    {
      "constant": true,
      "inputs": [],
      "name": "outOfLimitAmount",
      "outputs": [
        {
          "name": "",
          "type": "uint256"
        }
      ],
      "payable": false,
      "stateMutability": "view",
      "type": "function"
    },
    {
      "constant": false,
      "inputs": [
        {
          "name": "_minPerTx",
          "type": "uint256"
        }
      ],
      "name": "setMinPerTx",
      "outputs": [],
      "payable": false,
      "stateMutability": "nonpayable",
      "type": "function"
    },
    {
      "constant": false,
      "inputs": [
        {
          "name": "_blockConfirmations",
          "type": "uint256"
        }
      ],
      "name": "setRequiredBlockConfirmations",
      "outputs": [],
      "payable": false,
      "stateMutability": "nonpayable",
      "type": "function"
    },
    {
      "constant": false,
      "inputs": [
        {
          "name": "_dailyLimit",
          "type": "uint256"
        }
      ],
      "name": "setDailyLimit",
      "outputs": [],
      "payable": false,
      "stateMutability": "nonpayable",
      "type": "function"
    },
    {
      "constant": false,
      "inputs": [
        {
          "name": "_gasPrice",
          "type": "uint256"
        }
      ],
      "name": "setGasPrice",
      "outputs": [],
      "payable": false,
      "stateMutability": "nonpayable",
      "type": "function"
    },
    {
      "constant": false,
      "inputs": [
        {
          "name": "_maxPerTx",
          "type": "uint256"
        }
      ],
      "name": "setMaxPerTx",
      "outputs": [],
      "payable": false,
      "stateMutability": "nonpayable",
      "type": "function"
    },
    {
      "constant": true,
      "inputs": [],
      "name": "feeManagerContract",
      "outputs": [
        {
          "name": "",
          "type": "address"
        }
      ],
      "payable": false,
      "stateMutability": "view",
      "type": "function"
    },
    {
      "constant": true,
      "inputs": [],
      "name": "upgradeabilityAdmin",
      "outputs": [
        {
          "name": "",
          "type": "address"
        }
      ],
      "payable": false,
      "stateMutability": "view",
      "type": "function"
    },
    {
      "constant": true,
      "inputs": [],
      "name": "minPerTx",
      "outputs": [
        {
          "name": "",
          "type": "uint256"
        }
      ],
      "payable": false,
      "stateMutability": "view",
      "type": "function"
    },
    {
      "constant": true,
      "inputs": [
        {
          "name": "_amount",
          "type": "uint256"
        }
      ],
      "name": "withinLimit",
      "outputs": [
        {
          "name": "",
          "type": "bool"
        }
      ],
      "payable": false,
      "stateMutability": "view",
      "type": "function"
    },
    {
      "constant": false,
      "inputs": [
        {
          "name": "_maxPerTx",
          "type": "uint256"
        }
      ],
      "name": "setExecutionMaxPerTx",
      "outputs": [],
      "payable": false,
      "stateMutability": "nonpayable",
      "type": "function"
    },
    {
      "constant": true,
      "inputs": [],
      "name": "getFeeManagerMode",
      "outputs": [
        {
          "name": "",
          "type": "bytes4"
        }
      ],
      "payable": false,
      "stateMutability": "view",
      "type": "function"
    },
    {
      "constant": false,
      "inputs": [
        {
          "name": "newOwner",
          "type": "address"
        }
      ],
      "name": "transferOwnership",
      "outputs": [],
      "payable": false,
      "stateMutability": "nonpayable",
      "type": "function"
    },
    {
      "constant": true,
      "inputs": [],
      "name": "maxPerTx",
      "outputs": [
        {
          "name": "",
          "type": "uint256"
        }
      ],
      "payable": false,
      "stateMutability": "view",
      "type": "function"
    },
    {
      "constant": true,
      "inputs": [],
      "name": "gasPrice",
      "outputs": [
        {
          "name": "",
          "type": "uint256"
        }
      ],
      "payable": false,
      "stateMutability": "view",
      "type": "function"
    },
    {
      "constant": true,
      "inputs": [
        {
          "name": "_number",
          "type": "uint256"
        }
      ],
      "name": "isAlreadyProcessed",
      "outputs": [
        {
          "name": "",
          "type": "bool"
        }
      ],
      "payable": false,
      "stateMutability": "pure",
      "type": "function"
    },
    {
      "constant": true,
      "inputs": [],
      "name": "getForeignFee",
      "outputs": [
        {
          "name": "",
          "type": "uint256"
        }
      ],
      "payable": false,
      "stateMutability": "view",
      "type": "function"
    },
    {
      "payable": true,
      "stateMutability": "payable",
      "type": "fallback"
    },
    {
      "anonymous": false,
      "inputs": [
        {
          "indexed": false,
          "name": "recipient",
          "type": "address"
        },
        {
          "indexed": false,
          "name": "value",
          "type": "uint256"
        },
        {
          "indexed": false,
          "name": "transactionHash",
          "type": "bytes32"
        }
      ],
      "name": "AmountLimitExceeded",
      "type": "event"
    },
    {
      "anonymous": false,
      "inputs": [
        {
          "indexed": false,
          "name": "feeAmount",
          "type": "uint256"
        },
        {
          "indexed": true,
          "name": "transactionHash",
          "type": "bytes32"
        }
      ],
      "name": "FeeDistributedFromAffirmation",
      "type": "event"
    },
    {
      "anonymous": false,
      "inputs": [
        {
          "indexed": false,
          "name": "feeAmount",
          "type": "uint256"
        },
        {
          "indexed": true,
          "name": "transactionHash",
          "type": "bytes32"
        }
      ],
      "name": "FeeDistributedFromSignatures",
      "type": "event"
    },
    {
      "anonymous": false,
      "inputs": [
        {
          "indexed": false,
          "name": "recipient",
          "type": "address"
        },
        {
          "indexed": false,
          "name": "value",
          "type": "uint256"
        }
      ],
      "name": "UserRequestForSignature",
      "type": "event"
    },
    {
      "anonymous": false,
      "inputs": [
        {
          "indexed": false,
          "name": "recipient",
          "type": "address"
        },
        {
          "indexed": false,
          "name": "value",
          "type": "uint256"
        },
        {
          "indexed": false,
          "name": "transactionHash",
          "type": "bytes32"
        }
      ],
      "name": "AffirmationCompleted",
      "type": "event"
    },
    {
      "anonymous": false,
      "inputs": [
        {
          "indexed": true,
          "name": "signer",
          "type": "address"
        },
        {
          "indexed": false,
          "name": "messageHash",
          "type": "bytes32"
        }
      ],
      "name": "SignedForUserRequest",
      "type": "event"
    },
    {
      "anonymous": false,
      "inputs": [
        {
          "indexed": true,
          "name": "signer",
          "type": "address"
        },
        {
          "indexed": false,
          "name": "transactionHash",
          "type": "bytes32"
        }
      ],
      "name": "SignedForAffirmation",
      "type": "event"
    },
    {
      "anonymous": false,
      "inputs": [
        {
          "indexed": false,
          "name": "authorityResponsibleForRelay",
          "type": "address"
        },
        {
          "indexed": false,
          "name": "messageHash",
          "type": "bytes32"
        },
        {
          "indexed": false,
          "name": "NumberOfCollectedSignatures",
          "type": "uint256"
        }
      ],
      "name": "CollectedSignatures",
      "type": "event"
    },
    {
      "anonymous": false,
      "inputs": [
        {
          "indexed": false,
          "name": "gasPrice",
          "type": "uint256"
        }
      ],
      "name": "GasPriceChanged",
      "type": "event"
    },
    {
      "anonymous": false,
      "inputs": [
        {
          "indexed": false,
          "name": "requiredBlockConfirmations",
          "type": "uint256"
        }
      ],
      "name": "RequiredBlockConfirmationChanged",
      "type": "event"
    },
    {
      "anonymous": false,
      "inputs": [
        {
          "indexed": false,
          "name": "newLimit",
          "type": "uint256"
        }
      ],
      "name": "DailyLimitChanged",
      "type": "event"
    },
    {
      "anonymous": false,
      "inputs": [
        {
          "indexed": false,
          "name": "newLimit",
          "type": "uint256"
        }
      ],
      "name": "ExecutionDailyLimitChanged",
      "type": "event"
    },
    {
      "anonymous": false,
      "inputs": [
        {
          "indexed": false,
          "name": "previousOwner",
          "type": "address"
        },
        {
          "indexed": false,
          "name": "newOwner",
          "type": "address"
        }
      ],
      "name": "OwnershipTransferred",
      "type": "event"
    },
    {
      "constant": false,
      "inputs": [
        {
          "name": "_validatorContract",
          "type": "address"
        },
        {
          "name": "_dailyLimit",
          "type": "uint256"
        },
        {
          "name": "_maxPerTx",
          "type": "uint256"
        },
        {
          "name": "_minPerTx",
          "type": "uint256"
        },
        {
          "name": "_homeGasPrice",
          "type": "uint256"
        },
        {
          "name": "_requiredBlockConfirmations",
          "type": "uint256"
        },
        {
          "name": "_blockReward",
          "type": "address"
        },
        {
          "name": "_foreignDailyLimit",
          "type": "uint256"
        },
        {
          "name": "_foreignMaxPerTx",
          "type": "uint256"
        },
        {
          "name": "_owner",
          "type": "address"
        }
      ],
      "name": "initialize",
      "outputs": [
        {
          "name": "",
          "type": "bool"
        }
      ],
      "payable": false,
      "stateMutability": "nonpayable",
      "type": "function"
    },
    {
      "constant": false,
      "inputs": [
        {
          "name": "_validatorContract",
          "type": "address"
        },
        {
          "name": "_dailyLimit",
          "type": "uint256"
        },
        {
          "name": "_maxPerTx",
          "type": "uint256"
        },
        {
          "name": "_minPerTx",
          "type": "uint256"
        },
        {
          "name": "_homeGasPrice",
          "type": "uint256"
        },
        {
          "name": "_requiredBlockConfirmations",
          "type": "uint256"
        },
        {
          "name": "_blockReward",
          "type": "address"
        },
        {
          "name": "_foreignDailyLimit",
          "type": "uint256"
        },
        {
          "name": "_foreignMaxPerTx",
          "type": "uint256"
        },
        {
          "name": "_owner",
          "type": "address"
        },
        {
          "name": "_feeManager",
          "type": "address"
        },
        {
          "name": "_homeFee",
          "type": "uint256"
        },
        {
          "name": "_foreignFee",
          "type": "uint256"
        }
      ],
      "name": "rewardableInitialize",
      "outputs": [
        {
          "name": "",
          "type": "bool"
        }
      ],
      "payable": false,
      "stateMutability": "nonpayable",
      "type": "function"
    },
    {
      "constant": true,
      "inputs": [],
      "name": "getBridgeMode",
      "outputs": [
        {
          "name": "_data",
          "type": "bytes4"
        }
      ],
      "payable": false,
      "stateMutability": "pure",
      "type": "function"
    },
    {
      "constant": true,
      "inputs": [],
      "name": "blockRewardContract",
      "outputs": [
        {
          "name": "",
          "type": "address"
        }
      ],
      "payable": false,
      "stateMutability": "view",
      "type": "function"
    },
    {
      "constant": true,
      "inputs": [],
      "name": "totalBurntCoins",
      "outputs": [
        {
          "name": "",
          "type": "uint256"
        }
      ],
      "payable": false,
      "stateMutability": "view",
      "type": "function"
    },
    {
      "constant": false,
      "inputs": [
        {
          "name": "_blockReward",
          "type": "address"
        }
      ],
      "name": "setBlockRewardContract",
      "outputs": [],
      "payable": false,
      "stateMutability": "nonpayable",
      "type": "function"
    }
  ],
  "bytecode": "0x608060405234801561001057600080fd5b506154c9806100206000396000f3006080604052600436106102795763ffffffff60e060020a6000350416630cbf060181146104f45780630e8162ba1461051e5780631812d9961461053357806327a3e16b146105c3578063286c4066146105e65780632888bb9c146105fe5780632bd0bb051461062a57806334a9e14814610642578063392e53cd1461065a5780633dd95d1b1461066f5780633e6968b6146106875780633f0a9f651461069c578063408fef2e146106b1578063437764df146106c657806343b37dd31461070d578063490a32c6146107225780634fb3fef71461073a57806354a2b2b81461075257806356b54bae1461079d57806360756f7c146107ce57806362d4ed34146107ef578063630cea8e1461084957806364d188eb1461087557806367eeba0c1461089257806369ffa08a146108a75780636ae1a976146108ce5780637698da24146108e6578063879ce676146108fe5780638aa1949a146109165780638d0680431461092b5780638da5cb5b146109405780638f4b4b9814610955578063916850e91461096d57806394da17cd14610985578063994390891461099a578063995b2cff146109af5780639a454b99146109d65780639cb7595a146109eb578063a018934514610a2c578063a2a6ca2714610a41578063acf5c68914610a59578063b20d30a914610a71578063bf1fe42014610a89578063c6f6f21614610aa1578063dbe03a8b14610ab9578063df0ad3de14610ace578063df25f3f014610ae3578063ea9f496814610af8578063f20151e114610b10578063f2ba956114610b28578063f2fde38b14610b3d578063f968adbe14610b5e578063fe173b9714610b73578063ffd19e8c14610b88578063ffd6619614610ba0575b6000808080808034811061028c57600080fd5b361561029757600080fd5b6102a034610bb5565b15156102ab57600080fd5b6102b3610c01565b604080517fb4a523e80000000000000000000000000000000000000000000000000000000081523060048201529051919750600160a060020a0388169163b4a523e8916024808201926020929091908290030181600087803b15801561031857600080fd5b505af115801561032c573d6000803e3d6000fd5b505050506040513d602081101561034257600080fd5b5051945061035e610351610cc0565b869063ffffffff610d7416565b34111561036a57600080fd5b61039a610375610d86565b61039534610389610384610d86565b610d8f565b9063ffffffff610e4c16565b610e5b565b3493506103a5610f18565b9250349150600160a060020a0383161561046f5761044f84600085604051602001808060008051602061547e83398151915281525060080190506040516020818303038152906040526040518082805190602001908083835b6020831061041d5780518252601f1990920191602091820191016103fe565b6001836020036101000a0380198251168184511680821785525050505050509050019150506040518091039020610f8c565b9050610461848263ffffffff610d7416565b935061046c82611021565b91505b61048361047e83610389610cc0565b6110a8565b60405160009083156108fc0290849083818181858288f193505050501580156104b0573d6000803e3d6000fd5b50604080513381526020810186905281517f127650bcfb0ba017401abe4931453a405140a8fd36fece67bae2db174d3fdd63929181900390910190a1505050505050005b34801561050057600080fd5b5061050c60043561115c565b60408051918252519081900360200190f35b34801561052a57600080fd5b5061050c610cc0565b34801561053f57600080fd5b5061054e6004356024356111df565b6040805160208082528351818301528351919283929083019185019080838360005b83811015610588578181015183820152602001610570565b50505050905090810190601f1680156105b55780820380516001836020036101000a031916815260200191505b509250505060405180910390f35b3480156105cf57600080fd5b506105e4600160a060020a0360043516611276565b005b3480156105f257600080fd5b506105e460043561140a565b34801561060a57600080fd5b506106166004356114c4565b604080519115158252519081900360200190f35b34801561063657600080fd5b5061050c600435610d8f565b34801561064e57600080fd5b506105e460043561158d565b34801561066657600080fd5b50610616611611565b34801561067b57600080fd5b506105e46004356116c9565b34801561069357600080fd5b5061050c610d86565b3480156106a857600080fd5b5061050c6117cb565b3480156106bd57600080fd5b5061050c61183e565b3480156106d257600080fd5b506106db61184d565b604080517bffffffffffffffffffffffffffffffffffffffffffffffffffffffff199092168252519081900360200190f35b34801561071957600080fd5b5061050c6118f0565b34801561072e57600080fd5b5061054e600435611963565b34801561074657600080fd5b5061050c600435611974565b34801561075e57600080fd5b50610616600160a060020a036004358116906024359060443590606435906084359060a4359060c43581169060e43590610104359061012435166119ef565b3480156107a957600080fd5b506107b2610c01565b60408051600160a060020a039092168252519081900360200190f35b3480156107da57600080fd5b506105e4600160a060020a0360043516611a24565b3480156107fb57600080fd5b50610616600160a060020a036004358116906024359060443590606435906084359060a4359060c43581169060e4359061010435906101243581169061014435166101643561018435611ad8565b34801561085557600080fd5b506105e46024600480358281019290820135918135918201910135611cbc565b34801561088157600080fd5b506105e4600435602435151561214f565b34801561089e57600080fd5b5061050c61222e565b3480156108b357600080fd5b506105e4600160a060020a03600435811690602435166122a1565b3480156108da57600080fd5b5061050c600435612457565b3480156108f257600080fd5b506106166004356124da565b34801561090a57600080fd5b5061061660043561255e565b34801561092257600080fd5b5061050c61259b565b34801561093757600080fd5b5061050c61260e565b34801561094c57600080fd5b506107b2612686565b34801561096157600080fd5b506106166004356126fa565b34801561097957600080fd5b5061050c600435611021565b34801561099157600080fd5b5061050c61277e565b3480156109a657600080fd5b506107b2612812565b3480156109bb57600080fd5b506105e4600160a060020a0360043516602435604435612886565b3480156109e257600080fd5b5061050c612b80565b3480156109f757600080fd5b50610a00612bf3565b6040805167ffffffffffffffff9485168152928416602084015292168183015290519081900360600190f35b348015610a3857600080fd5b5061050c612bfd565b348015610a4d57600080fd5b506105e4600435612c70565b348015610a6557600080fd5b506105e4600435612d25565b348015610a7d57600080fd5b506105e4600435612e34565b348015610a9557600080fd5b506105e4600435612f36565b348015610aad57600080fd5b506105e4600435613045565b348015610ac557600080fd5b506107b2610f18565b348015610ada57600080fd5b506107b26130e6565b348015610aef57600080fd5b5061050c613126565b348015610b0457600080fd5b50610616600435610bb5565b348015610b1c57600080fd5b506105e4600435613199565b348015610b3457600080fd5b506106db61323a565b348015610b4957600080fd5b506105e4600160a060020a03600435166132b1565b348015610b6a57600080fd5b5061050c6132eb565b348015610b7f57600080fd5b5061050c61335e565b348015610b9457600080fd5b506106166004356133d1565b348015610bac57600080fd5b5061050c6133f9565b600080610bc783610389610384610d86565b905080610bd261222e565b10158015610be75750610be36132eb565b8311155b8015610bfa5750610bf6613126565b8310155b9392505050565b60006002600060405160200180807f626c6f636b526577617264436f6e74726163740000000000000000000000000081525060130190506040516020818303038152906040526040518082805190602001908083835b60208310610c765780518252601f199092019160209182019101610c57565b51815160209384036101000a6000190180199092169116179052604080519290940182900390912086528501959095529290920160002054600160a060020a031693505050505b90565b600080600060405160200180807f746f74616c4275726e74436f696e730000000000000000000000000000000000815250600f0190506040516020818303038152906040526040518082805190602001908083835b60208310610d345780518252601f199092019160209182019101610d15565b51815160209384036101000a6000190180199092169116179052604080519290940182900390912086528501959095529290920160002054949350505050565b600082821115610d8057fe5b50900390565b62015180420490565b60008060008360405160200180807f746f74616c5370656e74506572446179000000000000000000000000000000008152506010018281526020019150506040516020818303038152906040526040518082805190602001908083835b60208310610e0b5780518252601f199092019160209182019101610dec565b51815160209384036101000a600019018019909216911617905260408051929094018290039091208652850195909552929092016000205495945050505050565b600082820183811015610bfa57fe5b806000808460405160200180807f746f74616c5370656e74506572446179000000000000000000000000000000008152506010018281526020019150506040516020818303038152906040526040518082805190602001908083835b60208310610ed65780518252601f199092019160209182019101610eb7565b51815160209384036101000a60001901801990921691161790526040805192909401829003909120865285019590955292909201600020939093555050505050565b60006002600060405160200180807f6665654d616e61676572436f6e74726163740000000000000000000000000000815250601201905060405160208183030381529060405260405180828051906020019080838360208310610c765780518252601f199092019160209182019101610c57565b60408051602481018690528415156044820152606480820184905282518083039091018152608490910190915260208181018051600160e060020a03167f9862f26f000000000000000000000000000000000000000000000000000000001781528251600093849390929091849182895af2600051925080801561100f57611014565b600080fd5b5091979650505050505050565b604080516024808201849052825180830390910181526044909101909152602081018051600160e060020a03167f916850e900000000000000000000000000000000000000000000000000000000179052600090819081611080610f18565b9050602060008351602085016000855af2600051935080801561100f57509295945050505050565b8060008060405160200180807f746f74616c4275726e74436f696e730000000000000000000000000000000000815250600f0190506040516020818303038152906040526040518082805190602001908083835b6020831061111b5780518252601f1990920191602091820191016110fc565b51815160209384036101000a600019018019909216911617905260408051929094018290039091208652850195909552929092016000209390935550505050565b60008060008360405160200180807f6e756d4d657373616765735369676e6564000000000000000000000000000000815250601101826000191660001916815260200191505060405160208183030381529060405260405180828051906020019080838360208310610e0b5780518252601f199092019160209182019101610dec565b604080516020808201859052818301849052825180830384018152606092830193849052805192936000939192909182918401908083835b602083106112365780518252601f199092019160209182019101611217565b6001836020036101000a0380198251168184511680821785525050505050509050019150506040518091039020905061126e8161345a565b949350505050565b61127e612686565b600160a060020a0316331461129257600080fd5b600160a060020a038116158015906112ae57506112ae816135c2565b8015611322575080600160a060020a03166310f2ee7c6040518163ffffffff1660e060020a028152600401602060405180830381600087803b1580156112f357600080fd5b505af1158015611307573d6000803e3d6000fd5b505050506040513d602081101561131d57600080fd5b505115155b151561132d57600080fd5b806002600060405160200180807f626c6f636b526577617264436f6e74726163740000000000000000000000000081525060130190506040516020818303038152906040526040518082805190602001908083835b602083106113a15780518252601f199092019160209182019101611382565b51815160209384036101000a60001901801990921691161790526040805192909401829003909120865285019590955292909201600020805473ffffffffffffffffffffffffffffffffffffffff1916600160a060020a03959095169490941790935550505050565b611412612686565b600160a060020a0316331461142657600080fd5b6114c1611431610f18565b82604051602001808060008051602061545e833981519152815250600b0190506040516020818303038152906040526040518082805190602001908083835b6020831061148f5780518252601f199092019160209182019101611470565b6001836020036101000a03801982511681845116808217855250505050505090500191505060405180910390206135ca565b50565b6000600460008360405160200180807f6669786564417373657473000000000000000000000000000000000000000000815250600b0182600019166000191681526020019150506040516020818303038152906040526040518082805190602001908083835b602083106115495780518252601f19909201916020918201910161152a565b51815160209384036101000a600019018019909216911617905260408051929094018290039091208652850195909552929092016000205460ff1695945050505050565b611595612686565b600160a060020a031633146115a957600080fd5b6114c16115b4610f18565b82604051602001808060008051602061547e83398151915281525060080190506040516020818303038152906040526040518082805190602001908083836020831061148f5780518252601f199092019160209182019101611470565b60006004600060405160200180807f6973496e697469616c697a656400000000000000000000000000000000000000815250600d0190506040516020818303038152906040526040518082805190602001908083835b602083106116865780518252601f199092019160209182019101611667565b51815160209384036101000a600019018019909216911617905260408051929094018290039091208652850195909552929092016000205460ff16949350505050565b6116d1612686565b600160a060020a031633146116e557600080fd5b8060008060405160200180807f657865637574696f6e4461696c794c696d69740000000000000000000000000081525060130190506040516020818303038152906040526040518082805190602001908083835b602083106117585780518252601f199092019160209182019101611739565b51815160001960209485036101000a019081169019919091161790526040805194909201849003909320865285830196909652509284016000209490945550815184815291517f9bebf928b90863f24cc31f726a3a7545efd409f1dcf552301b1ee3710da70d3b9350918290030190a150565b600080600060405160200180807f7265717569726564426c6f636b436f6e6669726d6174696f6e73000000000000815250601a01905060405160208183030381529060405260405180828051906020019080838360208310610d345780518252601f199092019160209182019101610d15565b60006118486137fb565b905090565b600060405160200180807f6572632d746f2d6e61746976652d636f7265000000000000000000000000000081525060120190506040516020818303038152906040526040518082805190602001908083835b602083106118be5780518252601f19909201916020918201910161189f565b6001836020036101000a0380198251168184511680821785525050505050509050019150506040518091039020905090565b600080600060405160200180807f657865637574696f6e4461696c794c696d697400000000000000000000000000815250601301905060405160208183030381529060405260405180828051906020019080838360208310610d345780518252601f199092019160209182019101610d15565b606061196e82613800565b92915050565b60008060008360405160200180807f746f74616c45786563757465645065724461790000000000000000000000000081525060130182815260200191505060405160208183030381529060405260405180828051906020019080838360208310610e0b5780518252601f199092019160209182019101610dec565b6000611a038b8b8b8b8b8b8b8b8b8b613884565b611a0d600161404a565b611a15611611565b9b9a5050505050505050505050565b611a2c612686565b600160a060020a03163314611a4057600080fd5b600160a060020a0381161580611a5a5750611a5a816135c2565b1515611a6557600080fd5b806002600060405160200180807f6665654d616e61676572436f6e747261637400000000000000000000000000008152506012019050604051602081830303815290604052604051808280519060200190808383602083106113a15780518252601f199092019160209182019101611382565b6000611aec8e8e8e8e8e8e8e8e8e8e613884565b611af5846135c2565b1515611b0057600080fd5b836002600060405160200180807f6665654d616e61676572436f6e7472616374000000000000000000000000000081525060120190506040516020818303038152906040526040518082805190602001908083835b60208310611b745780518252601f199092019160209182019101611b55565b51815160209384036101000a6000190180199092169116179052604080519290940182900390912086528581019690965250928301600020805473ffffffffffffffffffffffffffffffffffffffff1916600160a060020a03969096169590951790945550805160008051602061547e83398151915281840152815160088183030181526028909101918290528051611c379450889388939182918481019190819084908490831061148f5780518252601f199092019160209182019101611470565b611c988483604051602001808060008051602061545e833981519152815250600b0190506040516020818303038152906040526040518082805190602001908083836020831061148f5780518252601f199092019160209182019101611470565b611ca2600161404a565b611caa611611565b9e9d5050505050505050505050505050565b6000806000806000611ccc612812565b600160a060020a031663facd743b336040518263ffffffff1660e060020a0281526004018082600160a060020a0316600160a060020a03168152602001915050602060405180830381600087803b158015611d2657600080fd5b505af1158015611d3a573d6000803e3d6000fd5b505050506040513d6020811015611d5057600080fd5b50511515611d5d57600080fd5b611d9687878080601f0160208091040260200160405190810160405280939291908181526020018383808284375061410b945050505050565b1515611da157600080fd5b611e0889898080601f0160208091040260200160405190810160405280939291908181526020018383808284375050604080516020601f8f018190048102820181019092528d815294508d93508c925082915084018382808284375061411f945050505050565b600160a060020a03163314611e1c57600080fd5b8686604051602001808383808284378201915050925050506040516020818303038152906040526040518082805190602001908083835b60208310611e725780518252601f199092019160209182019101611e53565b51815160209384036101000a600019018019909216911617905260408051929094018290038220336c0100000000000000000000000002838301526034808401829052855180850390910181526054909301948590528251909b509195509293508392850191508083835b60208310611efc5780518252601f199092019160209182019101611edd565b6001836020036101000a03801982511681845116808217855250505050505090500191505060405180910390209350611f348561115c565b9250611f3f836133d1565b15611f4957600080fd5b600192830192831115611f6e57611f5f846126fa565b15611f6957600080fd5b611fa8565b611fa88588888080601f016020809104026020016040519081016040528093929190818152602001838380828437506141df945050505050565b611fb38460016142b6565b604080516020808201889052600019860182840152825180830384018152606090920192839052815191929182918401908083835b602083106120075780518252601f199092019160209182019101611fe8565b51815160209384036101000a600019018019909216911617905260408051929094018290038220601f8f018290048202830182019094528d82529296506120689450869350918d91508c908190840183828082843750614388945050505050565b612072858461440b565b60408051868152905133917fbf06885f40778f5ccfb64497d3f92ce568ddaedb7e2fb4487f72690418cf8e4c919081900360200190a26120b061260e565b9050808310612144576120cb856120c68561448d565b61440b565b604080513381526020810187905280820183905290517f415557404d88a0c0b8e3b16967cafffc511213fd9c465c16832ee17ed57d72379181900360600190a161214487878080601f016020809104026020016040519081016040528093929190818152602001838380828437506144b2945050505050565b505050505050505050565b60008061215a6130e6565b600160a060020a0316331461216e57600080fd5b612177846114c4565b1561218157600080fd5b61218a84614566565b9092509050600160a060020a038216158015906121a75750600081115b15156121b257600080fd5b6121d26121cd826121c1612bfd565b9063ffffffff610d7416565b6146ed565b821561221d5760408051600160a060020a03841681526020810183905281517f127650bcfb0ba017401abe4931453a405140a8fd36fece67bae2db174d3fdd63929181900390910190a15b61222884600161475f565b50505050565b600080600060405160200180807f6461696c794c696d697400000000000000000000000000000000000000000000815250600a01905060405160208183030381529060405260405180828051906020019080838360208310610d345780518252601f199092019160209182019101610d15565b6000806122ac6130e6565b600160a060020a031633146122c057600080fd5b600160a060020a03831615156122d557600080fd5b600160a060020a038416151561232157604051600160a060020a03841690303180156108fc02916000818181858888f1935050505015801561231b573d6000803e3d6000fd5b50612228565b604080517f70a082310000000000000000000000000000000000000000000000000000000081523060048201529051859350600160a060020a038416916370a082319160248083019260209291908290030181600087803b15801561238557600080fd5b505af1158015612399573d6000803e3d6000fd5b505050506040513d60208110156123af57600080fd5b5051604080517fa9059cbb000000000000000000000000000000000000000000000000000000008152600160a060020a0386811660048301526024820184905291519293509084169163a9059cbb916044808201926020929091908290030181600087803b15801561242057600080fd5b505af1158015612434573d6000803e3d6000fd5b505050506040513d602081101561244a57600080fd5b5051151561222857600080fd5b60008060008360405160200180807f6e756d41666669726d6174696f6e735369676e65640000000000000000000000815250601501826000191660001916815260200191505060405160208183030381529060405260405180828051906020019080838360208310610e0b5780518252601f199092019160209182019101610dec565b6000600460008360405160200180807f61666669726d6174696f6e735369676e656400000000000000000000000000008152506012018260001916600019168152602001915050604051602081830303815290604052604051808280519060200190808383602083106115495780518252601f19909201916020918201910161152a565b60008061257583610389612570610d86565b611974565b9050806125806118f0565b10158015610bfa575061259161259b565b9092111592915050565b600080600060405160200180807f657865637574696f6e4d61785065725478000000000000000000000000000000815250601101905060405160208183030381529060405260405180828051906020019080838360208310610d345780518252601f199092019160209182019101610d15565b6000612618612812565b600160a060020a0316638d0680436040518163ffffffff1660e060020a028152600401602060405180830381600087803b15801561265557600080fd5b505af1158015612669573d6000803e3d6000fd5b505050506040513d602081101561267f57600080fd5b5051905090565b60006002600060405160200180807f6f776e6572000000000000000000000000000000000000000000000000000000815250600501905060405160208183030381529060405260405180828051906020019080838360208310610c765780518252601f199092019160209182019101610c57565b6000600460008360405160200180807f6d657373616765735369676e6564000000000000000000000000000000000000815250600e018260001916600019168152602001915050604051602081830303815290604052604051808280519060200190808383602083106115495780518252601f19909201916020918201910161152a565b6000611848604051602001808060008051602061547e83398151915281525060080190506040516020818303038152906040526040518082805190602001908083835b602083106127e05780518252601f1990920191602091820191016127c1565b6001836020036101000a03801982511681845116808217855250505050505090500191505060405180910390206147e2565b60006002600060405160200180807f76616c696461746f72436f6e7472616374000000000000000000000000000000815250601101905060405160208183030381529060405260405180828051906020019080838360208310610c765780518252601f199092019160209182019101610c57565b6000806000612893612812565b600160a060020a031663facd743b336040518263ffffffff1660e060020a0281526004018082600160a060020a0316600160a060020a03168152602001915050602060405180830381600087803b1580156128ed57600080fd5b505af1158015612901573d6000803e3d6000fd5b505050506040513d602081101561291757600080fd5b5051151561292457600080fd5b61292d856149be565b15612b6d57604080516c01000000000000000000000000600160a060020a0389160260208083019190915260348201889052605480830188905283518084039091018152607490920192839052815191929182918401908083835b602083106129a75780518252601f199092019160209182019101612988565b51815160209384036101000a600019018019909216911617905260408051929094018290038220336c01000000000000000000000000028383015260348084018290528551808503909101815260549093019485905282519099509195509293508392850191508083835b60208310612a315780518252601f199092019160209182019101612a12565b6001836020036101000a03801982511681845116808217855250505050505090500191505060405180910390209150612a69826124da565b15612a7357600080fd5b612a7e8260016149c9565b612a8783612457565b9050612a92816133d1565b15612a9c57600080fd5b600101612aa98382614a4c565b60408051858152905133917f5df9cc3eb93d8a9a481857a3b70a8ca966e6b80b25cf0ee2cce180ec5afa80a1919081900360200190a2612ae761260e565b8110612b6857612aff83612afa8361448d565b614a4c565b6000851115612b1e57612b13868686614ace565b1515612b1e57600080fd5b60408051600160a060020a03881681526020810187905280820186905290517f6fc115a803b8703117d9a3956c5a15401cb42401f91630f015eb6b043fa762539181900360600190a15b612b78565b612b78868686614c3c565b505050505050565b600080600060405160200180807f6465706c6f7965644174426c6f636b0000000000000000000000000000000000815250600f01905060405160208183030381529060405260405180828051906020019080838360208310610d345780518252601f199092019160209182019101610d15565b6002806000909192565b600080600060405160200180807f6f75744f664c696d6974416d6f756e7400000000000000000000000000000000815250601001905060405160208183030381529060405260405180828051906020019080838360208310610d345780518252601f199092019160209182019101610d15565b612c78612686565b600160a060020a03163314612c8c57600080fd5b612c9461222e565b81108015612ca85750612ca56132eb565b81105b1515612cb357600080fd5b8060008060405160200180807f6d696e506572547800000000000000000000000000000000000000000000000081525060080190506040516020818303038152906040526040518082805190602001908083836020831061111b5780518252601f1990920191602091820191016110fc565b612d2d612686565b600160a060020a03163314612d4157600080fd5b60008111612d4e57600080fd5b8060008060405160200180807f7265717569726564426c6f636b436f6e6669726d6174696f6e73000000000000815250601a0190506040516020818303038152906040526040518082805190602001908083835b60208310612dc15780518252601f199092019160209182019101612da2565b51815160001960209485036101000a019081169019919091161790526040805194909201849003909320865285830196909652509284016000209490945550815184815291517f4fb76205cd57c896b21511d2114137d8e901b4ccd659e1a0f97d6306795264fb9350918290030190a150565b612e3c612686565b600160a060020a03163314612e5057600080fd5b8060008060405160200180807f6461696c794c696d697400000000000000000000000000000000000000000000815250600a0190506040516020818303038152906040526040518082805190602001908083835b60208310612ec35780518252601f199092019160209182019101612ea4565b51815160001960209485036101000a019081169019919091161790526040805194909201849003909320865285830196909652509284016000209490945550815184815291517fad4123ae17c414d9c6d2fec478b402e6b01856cc250fd01fbfd252fda0089d3c9350918290030190a150565b612f3e612686565b600160a060020a03163314612f5257600080fd5b60008111612f5f57600080fd5b8060008060405160200180807f676173507269636500000000000000000000000000000000000000000000000081525060080190506040516020818303038152906040526040518082805190602001908083835b60208310612fd25780518252601f199092019160209182019101612fb3565b51815160001960209485036101000a019081169019919091161790526040805194909201849003909320865285830196909652509284016000209490945550815184815291517f52264b89e0fceafb26e79fd49ef8a366eb6297483bf4035b027f0c99a7ad512e9350918290030190a150565b61304d612686565b600160a060020a0316331461306157600080fd5b61306961222e565b811061307457600080fd5b8060008060405160200180807f6d6178506572547800000000000000000000000000000000000000000000000081525060080190506040516020818303038152906040526040518082805190602001908083836020831061111b5780518252601f1990920191602091820191016110fc565b600030600160a060020a031663025313a26040518163ffffffff1660e060020a028152600401602060405180830381600087803b15801561265557600080fd5b600080600060405160200180807f6d696e5065725478000000000000000000000000000000000000000000000000815250600801905060405160208183030381529060405260405180828051906020019080838360208310610d345780518252601f199092019160209182019101610d15565b6131a1612686565b600160a060020a031633146131b557600080fd5b6131bd6118f0565b81106131c857600080fd5b8060008060405160200180807f657865637574696f6e4d6178506572547800000000000000000000000000000081525060110190506040516020818303038152906040526040518082805190602001908083836020831061111b5780518252601f1990920191602091820191016110fc565b604080516004815260248101909152602081018051600160e060020a03167ff2ba95610000000000000000000000000000000000000000000000000000000017905260009081908161328a610f18565b9050600460008351602085016000855af2600051935080801561100f575092949350505050565b6132b9612686565b600160a060020a031633146132cd57600080fd5b600160a060020a03811615156132e257600080fd5b6114c181614cd7565b600080600060405160200180807f6d61785065725478000000000000000000000000000000000000000000000000815250600801905060405160208183030381529060405260405180828051906020019080838360208310610d345780518252601f199092019160209182019101610d15565b600080600060405160200180807f6761735072696365000000000000000000000000000000000000000000000000815250600801905060405160208183030381529060405260405180828051906020019080838360208310610d345780518252601f199092019160209182019101610d15565b7f80000000000000000000000000000000000000000000000000000000000000009081161490565b6000611848604051602001808060008051602061545e833981519152815250600b019050604051602081830303815290604052604051808280519060200190808383602083106127e05780518252601f1990920191602091820191016127c1565b6060600360008360405160200180807f7369676e61747572657300000000000000000000000000000000000000000000815250600a0182600019166000191681526020019150506040516020818303038152906040526040518082805190602001908083835b602083106134df5780518252601f1990920191602091820191016134c0565b6001836020036101000a0380198251168184511680821785525050505050509050019150506040518091039020600019166000191681526020019081526020016000208054600181600116156101000203166002900480601f0160208091040260200160405190810160405280929190818152602001828054600181600116156101000203166002900480156135b65780601f1061358b576101008083540402835291602001916135b6565b820191906000526020600020905b81548152906001019060200180831161359957829003601f168201915b50505050509050919050565b6000903b1190565b6060604051602001808060008051602061547e83398151915281525060080190506040516020818303038152906040526040518082805190602001908083835b602083106136295780518252601f19909201916020918201910161360a565b5181516020939093036101000a60001901801990911692169190911790526040519201829003909120851492506136969150505760408051808201909152601681527f736574466f726569676e4665652875696e74323536290000000000000000000060208201526136cb565b60408051808201909152601381527f736574486f6d654665652875696e74323536290000000000000000000000000060208201525b905083600160a060020a0316818460405160240180828152602001915050604051602081830303815290604052906040518082805190602001908083835b602083106137285780518252601f199092019160209182019101613709565b51815160001960209485036101000a0190811690199190911617905260408051949092018490039093209286018051600160e060020a03167bffffffffffffffffffffffffffffffffffffffffffffffffffffffff19909416939093178352518551909450849350905080838360005b838110156137b0578181015183820152602001613798565b50505050905090810190601f1680156137dd5780820380516001836020036101000a031916815260200191505b50915050600060405180830381855af4915050151561222857600080fd5b606890565b6060600360008360405160200180807f6d657373616765730000000000000000000000000000000000000000000000008152506008018260001916600019168152602001915050604051602081830303815290604052604051808280519060200190808383602083106134df5780518252601f1990920191602091820191016134c0565b61388c611611565b1561389657600080fd5b600160a060020a038a16158015906138b257506138b28a6135c2565b15156138bd57600080fd5b600085116138ca57600080fd5b6000871180156138d957508688115b80156138e457508789115b15156138ef57600080fd5b600160a060020a03841615806139095750613909846135c2565b151561391457600080fd5b82821061392057600080fd5b600160a060020a038116151561393557600080fd5b896002600060405160200180807f76616c696461746f72436f6e747261637400000000000000000000000000000081525060110190506040516020818303038152906040526040518082805190602001908083835b602083106139a95780518252601f19909201916020918201910161398a565b51815160209384036101000a60001901801990921691161790526040805192909401829003909120865285810196909652509283016000908120805473ffffffffffffffffffffffffffffffffffffffff1916600160a060020a039790971696909617909555505080517f6465706c6f7965644174426c6f636b0000000000000000000000000000000000818401528151600f818303018152602f90910191829052805143949384939182918401908083835b60208310613a7b5780518252601f199092019160209182019101613a5c565b51815160209384036101000a6000190180199092169116179052604080519290940182900390912086528581019690965250928301600090812095909555505080517f6461696c794c696d697400000000000000000000000000000000000000000000818401528151600a818303018152602a9091019182905280518d949384939182918401908083835b60208310613b255780518252601f199092019160209182019101613b06565b51815160209384036101000a6000190180199092169116179052604080519290940182900390912086528581019690965250928301600090812095909555505080517f6d61785065725478000000000000000000000000000000000000000000000000818401528151600881830301815260289091019182905280518c949384939182918401908083835b60208310613bcf5780518252601f199092019160209182019101613bb0565b51815160209384036101000a6000190180199092169116179052604080519290940182900390912086528581019690965250928301600090812095909555505080517f6d696e5065725478000000000000000000000000000000000000000000000000818401528151600881830301815260289091019182905280518b949384939182918401908083835b60208310613c795780518252601f199092019160209182019101613c5a565b51815160209384036101000a6000190180199092169116179052604080519290940182900390912086528581019690965250928301600090812095909555505080517f6761735072696365000000000000000000000000000000000000000000000000818401528151600881830301815260289091019182905280518a949384939182918401908083835b60208310613d235780518252601f199092019160209182019101613d04565b51815160209384036101000a6000190180199092169116179052604080519290940182900390912086528581019690965250928301600090812095909555505080517f7265717569726564426c6f636b436f6e6669726d6174696f6e73000000000000818401528151601a818303018152603a90910191829052805189949384939182918401908083835b60208310613dcd5780518252601f199092019160209182019101613dae565b51815160209384036101000a6000190180199092169116179052604080519290940182900390912086528581019690965250928301600090812095909555505080517f626c6f636b526577617264436f6e74726163740000000000000000000000000081840152815160138183030181526033909101918290528051889460029490939182918401908083835b60208310613e795780518252601f199092019160209182019101613e5a565b51815160209384036101000a60001901801990921691161790526040805192909401829003909120865285810196909652509283016000908120805473ffffffffffffffffffffffffffffffffffffffff1916600160a060020a039790971696909617909555505080517f657865637574696f6e4461696c794c696d6974000000000000000000000000008184015281516013818303018152603390910191829052805187949384939182918401908083835b60208310613f4b5780518252601f199092019160209182019101613f2c565b51815160209384036101000a6000190180199092169116179052604080519290940182900390912086528581019690965250928301600090812095909555505080517f657865637574696f6e4d617850657254780000000000000000000000000000008184015281516011818303018152603190910191829052805186949384939182918401908083835b60208310613ff55780518252601f199092019160209182019101613fd6565b51815160209384036101000a60001901801990921691161790526040805192909401829003909120865285019590955292909201600020939093555061403e9150829050614cd7565b50505050505050505050565b806004600060405160200180807f6973496e697469616c697a656400000000000000000000000000000000000000815250600d0190506040516020818303038152906040526040518082805190602001908083835b602083106140be5780518252601f19909201916020918201910161409f565b51815160209384036101000a60001901801990921691161790526040805192909401829003909120865285019590955292909201600020805460ff19169415159490941790935550505050565b60006141156137fb565b8251149050919050565b6000806000808551604114151561413557600080fd5b505050602083015160408401516060850151600161415286614d95565b60408051600080825260208083018085529490945260ff7f0100000000000000000000000000000000000000000000000000000000000000870416828401526060820188905260808201879052915160a08083019493601f198301938390039091019190865af11580156141ca573d6000803e3d6000fd5b5050604051601f190151979650505050505050565b80600360008460405160200180807f6d6573736167657300000000000000000000000000000000000000000000000081525060080182600019166000191681526020019150506040516020818303038152906040526040518082805190602001908083835b602083106142635780518252601f199092019160209182019101614244565b51815160001960209485036101000a019081169019919091161790526040805194909201849003909320865285830196909652509290930160002084516142b19591945092019190506153c5565b505050565b80600460008460405160200180807f6d657373616765735369676e6564000000000000000000000000000000000000815250600e0182600019166000191681526020019150506040516020818303038152906040526040518082805190602001908083835b6020831061433a5780518252601f19909201916020918201910161431b565b51815160209384036101000a60001901801990921691161790526040805192909401829003909120865285019590955292909201600020805460ff1916941515949094179093555050505050565b80600360008460405160200180807f7369676e61747572657300000000000000000000000000000000000000000000815250600a018260001916600019168152602001915050604051602081830303815290604052604051808280519060200190808383602083106142635780518252601f199092019160209182019101614244565b806000808460405160200180807f6e756d4d657373616765735369676e6564000000000000000000000000000000815250601101826000191660001916815260200191505060405160208183030381529060405260405180828051906020019080838360208310610ed65780518252601f199092019160209182019101610eb7565b7f80000000000000000000000000000000000000000000000000000000000000001790565b6000806000806000806144c3610f18565b9550600160a060020a0386161561455d576144dd87614f5a565b8095508196508297508398505050505061455084600188604051602001808060008051602061547e83398151915281525060080190506040516020818303038152906040526040518082805190602001908083836020831061041d5780518252601f1990920191602091820191016103fe565b905061455d818785614fa0565b50505050505050565b600080600260008460405160200180807f74784f75744f664c696d6974526563697069656e74000000000000000000000081525060150182600019166000191681526020019150506040516020818303038152906040526040518082805190602001908083835b602083106145ec5780518252601f1990920191602091820191016145cd565b51815160209384036101000a600019018019909216911617905260408051929094018290039091208652858101969096525092830160009081205484517f74784f75744f664c696d697456616c75650000000000000000000000000000008188015260318082018b9052865180830390910181526051909101958690528051600160a060020a0390921698509195869592945091925082918401908083835b602083106146aa5780518252601f19909201916020918201910161468b565b51815160209384036101000a6000190180199092169116179052604080519290940182900390912086528501959095529290920160002054949694955050505050565b8060008060405160200180807f6f75744f664c696d6974416d6f756e740000000000000000000000000000000081525060100190506040516020818303038152906040526040518082805190602001908083836020831061111b5780518252601f1990920191602091820191016110fc565b80600460008460405160200180807f6669786564417373657473000000000000000000000000000000000000000000815250600b0182600019166000191681526020019150506040516020818303038152906040526040518082805190602001908083836020831061433a5780518252601f19909201916020918201910161431b565b60008060006060806147f2610f18565b9250604051602001808060008051602061547e83398151915281525060080190506040516020818303038152906040526040518082805190602001908083835b602083106148515780518252601f199092019160209182019101614832565b5181516020939093036101000a60001901801990911692169190911790526040519201829003909120891492506148be9150505760408051808201909152600f81527f676574466f726569676e4665652829000000000000000000000000000000000060208201526148f3565b60408051808201909152600c81527f676574486f6d654665652829000000000000000000000000000000000000000060208201525b60408051600481526024810191829052825192945091849190819060208401908083835b602083106149365780518252601f199092019160209182019101614917565b51815160209384036101000a600019018019909216911617905260405191909301819003902085830180517bffffffffffffffffffffffffffffffffffffffffffffffffffffffff19909216600160e060020a0390921691909117815285519596509194600094509250839050875af2600051945080801561100f5750939695505050505050565b600061196e8261255e565b80600460008460405160200180807f61666669726d6174696f6e735369676e6564000000000000000000000000000081525060120182600019166000191681526020019150506040516020818303038152906040526040518082805190602001908083836020831061433a5780518252601f19909201916020918201910161431b565b806000808460405160200180807f6e756d41666669726d6174696f6e735369676e65640000000000000000000000815250601501826000191660001916815260200191505060405160208183030381529060405260405180828051906020019080838360208310610ed65780518252601f199092019160209182019101610eb7565b6000806000806000614af5614ae1610d86565b614af089610389612570610d86565b6150a5565b614afd610c01565b9350600160a060020a0384161515614b1457600080fd5b869250614b1f610f18565b9150600160a060020a03821615614bb357614b9383600084604051602001808060008051602061545e833981519152815250600b0190506040516020818303038152906040526040518082805190602001908083836020831061041d5780518252601f1990920191602091820191016103fe565b9050614ba081838861511f565b614bb0838263ffffffff610d7416565b92505b83600160a060020a031663aa9fa274848a6040518363ffffffff1660e060020a0281526004018083815260200182600160a060020a0316600160a060020a0316815260200192505050600060405180830381600087803b158015614c1657600080fd5b505af1158015614c2a573d6000803e3d6000fd5b5060019b9a5050505050505050505050565b600080614c4883614566565b9092509050600160a060020a038216158015614c62575080155b1515614c6d57600080fd5b614c7c6121cd85610389612bfd565b614c87858585615224565b60408051600160a060020a03871681526020810186905280820185905290517f159c0773f543f1e17d5e78327702770947055eb4e871b529bbc78bc9fde456929181900360600190a15050505050565b7f8be0079c531659141344cd1fd0a4f28419497f9722a3daafe3b4186f6b6457e0614d00612686565b60408051600160a060020a03928316815291841660208301528051918290030190a1806002600060405160200180807f6f776e65720000000000000000000000000000000000000000000000000000008152506005019050604051602081830303815290604052604051808280519060200190808383602083106113a15780518252601f199092019160209182019101611382565b604080518082018252601a81527f19457468657265756d205369676e6564204d6573736167653a0a000000000000602080830191825283518085018552600381527f313034000000000000000000000000000000000000000000000000000000000081830152935183516000959385938593899391019182918083835b60208310614e315780518252601f199092019160209182019101614e12565b51815160209384036101000a600019018019909216911617905286519190930192860191508083835b60208310614e795780518252601f199092019160209182019101614e5a565b51815160209384036101000a600019018019909216911617905285519190930192850191508083835b60208310614ec15780518252601f199092019160209182019101614ea2565b6001836020036101000a03801982511681845116808217855250505050505090500193505050506040516020818303038152906040526040518082805190602001908083835b60208310614f265780518252601f199092019160209182019101614f07565b5181516020939093036101000a60001901801990911692169190911790526040519201829003909120979650505050505050565b600080600080614f698561410b565b1515614f7457600080fd5b600160a060020a0360148601511693506034850151925060548501519150606885015190509193509193565b6040805160248082018690528251808303909101815260449091018252602081018051600160e060020a03167f59d784640000000000000000000000000000000000000000000000000000000017815291518151600160a060020a03861693829180838360005b8381101561501f578181015183820152602001615007565b50505050905090810190601f16801561504c5780820380516001836020036101000a031916815260200191505b50915050600060405180830381855af4915050151561506a57600080fd5b60408051848152905182917f858abdcd5efcaebb936e8e8516f0cfe9a0ef5157ff99d16cdabb6db625be90d0919081900360200190a2505050565b806000808460405160200180807f746f74616c45786563757465645065724461790000000000000000000000000081525060130182815260200191505060405160208183030381529060405260405180828051906020019080838360208310610ed65780518252601f199092019160209182019101610eb7565b6040805160248082018690528251808303909101815260449091018252602081018051600160e060020a03167f054d46ec0000000000000000000000000000000000000000000000000000000017815291518151600160a060020a03861693829180838360005b8381101561519e578181015183820152602001615186565b50505050905090810190601f1680156151cb5780820380516001836020036101000a031916815260200191505b50915050600060405180830381855af491505015156151e957600080fd5b60408051848152905182917fa52d3c9cbc541772e4edd92e2e4e2a3865ab73630f25deed8a6c8de41ff0f65c919081900360200190a2505050565b82600260008360405160200180807f74784f75744f664c696d6974526563697069656e74000000000000000000000081525060150182600019166000191681526020019150506040516020818303038152906040526040518082805190602001908083835b602083106152a85780518252601f199092019160209182019101615289565b51815160209384036101000a60001901801990921691161790526040805192909401829003909120865285810196909652509283016000908120805473ffffffffffffffffffffffffffffffffffffffff1916600160a060020a039790971696909617909555505080517f74784f75744f664c696d697456616c756500000000000000000000000000000081840152603180820186905282518083039091018152605190910191829052805186949384939182918401908083835b602083106153825780518252601f199092019160209182019101615363565b51815160209384036101000a6000190180199092169116179052604080519290940182900390912086528501959095529290920160002093909355505050505050565b828054600181600116156101000203166002900490600052602060002090601f016020900481019282601f1061540657805160ff1916838001178555615433565b82800160010185558215615433579182015b82811115615433578251825591602001919060010190615418565b5061543f929150615443565b5090565b610cbd91905b8082111561543f57600081556001016154495600666f726569676e2d666565000000000000000000000000000000000000000000686f6d652d666565000000000000000000000000000000000000000000000000a165627a7a723058204250ab56d728bf16ae58efc96035178c04bb45a8cc58318615a9ba1b464294940029",
  "source": "pragma solidity 0.4.24;\nimport \"../../libraries/SafeMath.sol\";\nimport \"../../libraries/Message.sol\";\nimport \"../BasicBridge.sol\";\nimport \"../../upgradeability/EternalStorage.sol\";\nimport \"../../IBlockReward.sol\";\nimport \"../../ERC677Receiver.sol\";\nimport \"../BasicHomeBridge.sol\";\nimport \"../ERC677Bridge.sol\";\nimport \"../OverdrawManagement.sol\";\nimport \"./RewardableHomeBridgeErcToNative.sol\";\n\n\ncontract HomeBridgeErcToNative is EternalStorage, BasicBridge, BasicHomeBridge, OverdrawManagement, RewardableHomeBridgeErcToNative {\n\n    event AmountLimitExceeded(address recipient, uint256 value, bytes32 transactionHash);\n\n    function () public payable {\n        require(msg.value > 0);\n        require(msg.data.length == 0);\n        require(withinLimit(msg.value));\n        IBlockReward blockReward = blockRewardContract();\n        uint256 totalMinted = blockReward.mintedTotallyByBridge(address(this));\n        require(msg.value <= totalMinted.sub(totalBurntCoins()));\n        setTotalSpentPerDay(getCurrentDay(), totalSpentPerDay(getCurrentDay()).add(msg.value));\n        uint256 valueToTransfer = msg.value;\n        address feeManager = feeManagerContract();\n        uint256 valueToBurn = msg.value;\n        if (feeManager != address(0)) {\n            uint256 fee = calculateFee(valueToTransfer, false, feeManager, HOME_FEE);\n            valueToTransfer = valueToTransfer.sub(fee);\n            valueToBurn = getAmountToBurn(valueToBurn);\n        }\n        setTotalBurntCoins(totalBurntCoins().add(valueToBurn));\n        address(0).transfer(valueToBurn);\n        emit UserRequestForSignature(msg.sender, valueToTransfer);\n    }\n\n    function initialize (\n        address _validatorContract,\n        uint256 _dailyLimit,\n        uint256 _maxPerTx,\n        uint256 _minPerTx,\n        uint256 _homeGasPrice,\n        uint256 _requiredBlockConfirmations,\n        address _blockReward,\n        uint256 _foreignDailyLimit,\n        uint256 _foreignMaxPerTx,\n        address _owner\n    ) public returns(bool)\n    {\n        _initialize(\n            _validatorContract,\n            _dailyLimit,\n            _maxPerTx,\n            _minPerTx,\n            _homeGasPrice,\n            _requiredBlockConfirmations,\n            _blockReward,\n            _foreignDailyLimit,\n            _foreignMaxPerTx,\n            _owner\n        );\n        setInitialize(true);\n\n        return isInitialized();\n    }\n\n    function rewardableInitialize (\n        address _validatorContract,\n        uint256 _dailyLimit,\n        uint256 _maxPerTx,\n        uint256 _minPerTx,\n        uint256 _homeGasPrice,\n        uint256 _requiredBlockConfirmations,\n        address _blockReward,\n        uint256 _foreignDailyLimit,\n        uint256 _foreignMaxPerTx,\n        address _owner,\n        address _feeManager,\n        uint256 _homeFee,\n        uint256 _foreignFee\n    ) public returns(bool)\n    {\n        _initialize(\n            _validatorContract,\n            _dailyLimit,\n            _maxPerTx,\n            _minPerTx,\n            _homeGasPrice,\n            _requiredBlockConfirmations,\n            _blockReward,\n            _foreignDailyLimit,\n            _foreignMaxPerTx,\n            _owner\n        );\n        require(isContract(_feeManager));\n        addressStorage[keccak256(abi.encodePacked(\"feeManagerContract\"))] = _feeManager;\n        _setFee(_feeManager, _homeFee, HOME_FEE);\n        _setFee(_feeManager, _foreignFee, FOREIGN_FEE);\n        setInitialize(true);\n\n        return isInitialized();\n    }\n\n    function getBridgeMode() public pure returns(bytes4 _data) {\n        return bytes4(keccak256(abi.encodePacked(\"erc-to-native-core\")));\n    }\n\n    function blockRewardContract() public view returns(IBlockReward) {\n        return IBlockReward(addressStorage[keccak256(abi.encodePacked(\"blockRewardContract\"))]);\n    }\n\n    function totalBurntCoins() public view returns(uint256) {\n        return uintStorage[keccak256(abi.encodePacked(\"totalBurntCoins\"))];\n    }\n\n    function setBlockRewardContract(address _blockReward) public onlyOwner {\n        require(_blockReward != address(0) && isContract(_blockReward) && (IBlockReward(_blockReward).bridgesAllowedLength() != 0));\n        addressStorage[keccak256(abi.encodePacked(\"blockRewardContract\"))] = _blockReward;\n    }\n\n    function _initialize (\n        address _validatorContract,\n        uint256 _dailyLimit,\n        uint256 _maxPerTx,\n        uint256 _minPerTx,\n        uint256 _homeGasPrice,\n        uint256 _requiredBlockConfirmations,\n        address _blockReward,\n        uint256 _foreignDailyLimit,\n        uint256 _foreignMaxPerTx,\n        address _owner\n    ) internal\n    {\n        require(!isInitialized());\n        require(_validatorContract != address(0) && isContract(_validatorContract));\n        require(_requiredBlockConfirmations > 0);\n        require(_minPerTx > 0 && _maxPerTx > _minPerTx && _dailyLimit > _maxPerTx);\n        require(_blockReward == address(0) || isContract(_blockReward));\n        require(_foreignMaxPerTx < _foreignDailyLimit);\n        require(_owner != address(0));\n        addressStorage[keccak256(abi.encodePacked(\"validatorContract\"))] = _validatorContract;\n        uintStorage[keccak256(abi.encodePacked(\"deployedAtBlock\"))] = block.number;\n        uintStorage[keccak256(abi.encodePacked(\"dailyLimit\"))] = _dailyLimit;\n        uintStorage[keccak256(abi.encodePacked(\"maxPerTx\"))] = _maxPerTx;\n        uintStorage[keccak256(abi.encodePacked(\"minPerTx\"))] = _minPerTx;\n        uintStorage[keccak256(abi.encodePacked(\"gasPrice\"))] = _homeGasPrice;\n        uintStorage[keccak256(abi.encodePacked(\"requiredBlockConfirmations\"))] = _requiredBlockConfirmations;\n        addressStorage[keccak256(abi.encodePacked(\"blockRewardContract\"))] = _blockReward;\n        uintStorage[keccak256(abi.encodePacked(\"executionDailyLimit\"))] = _foreignDailyLimit;\n        uintStorage[keccak256(abi.encodePacked(\"executionMaxPerTx\"))] = _foreignMaxPerTx;\n        setOwner(_owner);\n    }\n\n    function onExecuteAffirmation(address _recipient, uint256 _value, bytes32 txHash) internal returns(bool) {\n        setTotalExecutedPerDay(getCurrentDay(), totalExecutedPerDay(getCurrentDay()).add(_value));\n        IBlockReward blockReward = blockRewardContract();\n        require(blockReward != address(0));\n        uint256 valueToMint = _value;\n\n        address feeManager = feeManagerContract();\n        if (feeManager != address(0)) {\n            uint256 fee = calculateFee(valueToMint, false, feeManager, FOREIGN_FEE);\n            distributeFeeFromAffirmation(fee, feeManager, txHash);\n            valueToMint = valueToMint.sub(fee);\n        }\n        blockReward.addExtraReceiver(valueToMint, _recipient);\n        return true;\n    }\n\n    function onSignaturesCollected(bytes _message) internal {\n        address feeManager = feeManagerContract();\n        if (feeManager != address(0)) {\n            address recipient;\n            uint256 amount;\n            bytes32 txHash;\n            address contractAddress;\n            (recipient, amount, txHash, contractAddress) = Message.parseMessage(_message);\n            uint256 fee = calculateFee(amount, true, feeManager, HOME_FEE);\n            distributeFeeFromSignatures(fee, feeManager, txHash);\n        }\n    }\n\n    function fireEventOnTokenTransfer(address _from, uint256 _value) internal {\n        emit UserRequestForSignature(_from, _value);\n    }\n\n    function setTotalBurntCoins(uint256 _amount) internal {\n        uintStorage[keccak256(abi.encodePacked(\"totalBurntCoins\"))] = _amount;\n    }\n\n    function affirmationWithinLimits(uint256 _amount) internal view returns(bool) {\n        return withinExecutionLimit(_amount);\n    }\n\n    function onFailedAffirmation(address _recipient, uint256 _value, bytes32 _txHash) internal {\n        address recipient;\n        uint256 value;\n        (recipient, value) = txAboveLimits(_txHash);\n        require(recipient == address(0) && value == 0);\n        setOutOfLimitAmount(outOfLimitAmount().add(_value));\n        setTxAboveLimits(_recipient, _value, _txHash);\n        emit AmountLimitExceeded(_recipient, _value, _txHash);\n    }\n}\n",
  "sourcePath": "/Users/fbranci/iexecdev/vivani/tokenbridge/contracts/contracts/upgradeable_contracts/erc20_to_native/HomeBridgeErcToNative.sol",
  "compiler": {
    "name": "solc",
    "version": "0.4.24+commit.e67f0147.Emscripten.clang"
  },
  "schemaVersion": "3.0.13",
  "updatedAt": "2019-08-28T14:04:53.313Z",
  "devdoc": {
    "methods": {
      "owner()": {
        "details": "Tells the address of the owner",
        "return": "the address of the owner"
      },
      "transferOwnership(address)": {
        "details": "Allows the current owner to transfer control of the contract to a newOwner.",
        "params": {
          "newOwner": "the address to transfer ownership to."
        }
      }
    }
  },
  "userdoc": {
    "methods": {}
  }
}