{
  "contractName": "Initializable",
  "abi": [
    {
      "constant": true,
      "inputs": [],
      "name": "isInitialized",
      "outputs": [
        {
          "name": "",
          "type": "bool"
        }
      ],
      "payable": false,
      "stateMutability": "view",
      "type": "function"
    },
    {
      "constant": true,
      "inputs": [],
      "name": "deployedAtBlock",
      "outputs": [
        {
          "name": "",
          "type": "uint256"
        }
      ],
      "payable": false,
      "stateMutability": "view",
      "type": "function"
    }
  ],
  "bytecode": "0x608060405234801561001057600080fd5b50610238806100206000396000f30060806040526004361061004b5763ffffffff7c0100000000000000000000000000000000000000000000000000000000600035041663392e53cd81146100505780639a454b9914610079575b600080fd5b34801561005c57600080fd5b506100656100a0565b604080519115158252519081900360200190f35b34801561008557600080fd5b5061008e610158565b60408051918252519081900360200190f35b60006004600060405160200180807f6973496e697469616c697a656400000000000000000000000000000000000000815250600d0190506040516020818303038152906040526040518082805190602001908083835b602083106101155780518252601f1990920191602091820191016100f6565b51815160209384036101000a600019018019909216911617905260408051929094018290039091208652850195909552929092016000205460ff16949350505050565b600080600060405160200180807f6465706c6f7965644174426c6f636b0000000000000000000000000000000000815250600f0190506040516020818303038152906040526040518082805190602001908083835b602083106101cc5780518252601f1990920191602091820191016101ad565b51815160209384036101000a60001901801990921691161790526040805192909401829003909120865285019590955292909201600020549493505050505600a165627a7a7230582004541341343b9a77fdac02d3615aa87010636180785a8c0ce4ea1d677b736f7a0029",
  "source": "pragma solidity 0.4.24;\n\nimport \"../upgradeability/EternalStorage.sol\";\n\ncontract Initializable is EternalStorage {\n    bytes32 internal constant INITIALIZED = keccak256(abi.encodePacked(\"isInitialized\"));\n    bytes32 internal constant DEPLOYED_AT_BLOCK = keccak256(abi.encodePacked(\"deployedAtBlock\"));\n\n    function setInitialize() internal {\n        boolStorage[INITIALIZED] = true;\n    }\n\n    function isInitialized() public view returns (bool) {\n        return boolStorage[INITIALIZED];\n    }\n\n    function deployedAtBlock() external view returns (uint256) {\n        return uintStorage[DEPLOYED_AT_BLOCK];\n    }\n}\n",
  "sourcePath": "/mono/contracts/contracts/upgradeable_contracts/Initializable.sol",
  "compiler": {
    "name": "solc",
    "version": "0.4.24+commit.e67f0147.Emscripten.clang"
  },
  "schemaVersion": "3.0.11",
  "updatedAt": "2019-09-03T09:43:49.658Z",
  "devdoc": {
    "methods": {}
  },
  "userdoc": {
    "methods": {}
  }
}