{
  "contractName": "NoReturnTransferTokenMock",
  "abi": [
    {
      "anonymous": false,
      "inputs": [
        {
          "indexed": true,
          "name": "from",
          "type": "address"
        },
        {
          "indexed": true,
          "name": "to",
          "type": "address"
        },
        {
          "indexed": false,
          "name": "value",
          "type": "uint256"
        }
      ],
      "name": "Transfer",
      "type": "event"
    },
    {
      "constant": true,
      "inputs": [],
      "name": "totalSupply",
      "outputs": [
        {
          "name": "",
          "type": "uint256"
        }
      ],
      "payable": false,
      "stateMutability": "view",
      "type": "function"
    },
    {
      "constant": false,
      "inputs": [
        {
          "name": "_to",
          "type": "address"
        },
        {
          "name": "_amount",
          "type": "uint256"
        }
      ],
      "name": "mint",
      "outputs": [
        {
          "name": "",
          "type": "bool"
        }
      ],
      "payable": false,
      "stateMutability": "nonpayable",
      "type": "function"
    },
    {
      "constant": true,
      "inputs": [
        {
          "name": "_owner",
          "type": "address"
        }
      ],
      "name": "balanceOf",
      "outputs": [
        {
          "name": "",
          "type": "uint256"
        }
      ],
      "payable": false,
      "stateMutability": "view",
      "type": "function"
    },
    {
      "constant": false,
      "inputs": [
        {
          "name": "_to",
          "type": "address"
        },
        {
          "name": "_value",
          "type": "uint256"
        }
      ],
      "name": "transfer",
      "outputs": [],
      "payable": false,
      "stateMutability": "nonpayable",
      "type": "function"
    }
  ],
  "bytecode": "0x608060405234801561001057600080fd5b506102f5806100206000396000f3006080604052600436106100615763ffffffff7c010000000000000000000000000000000000000000000000000000000060003504166318160ddd811461006657806340c10f191461008d57806370a08231146100c5578063a9059cbb146100e6575b600080fd5b34801561007257600080fd5b5061007b61010c565b60408051918252519081900360200190f35b34801561009957600080fd5b506100b1600160a060020a0360043516602435610112565b604080519115158252519081900360200190f35b3480156100d157600080fd5b5061007b600160a060020a03600435166101af565b3480156100f257600080fd5b5061010a600160a060020a03600435166024356101ca565b005b60015490565b600154600090610128908363ffffffff6102a416565b600155600160a060020a038316600090815260208190526040902054610154908363ffffffff6102a416565b600160a060020a0384166000818152602081815260408083209490945583518681529351929391927fddf252ad1be2c89b69c2b068fc378daa952ba7f163c4a11628f55a4df523b3ef9281900390910190a350600192915050565b600160a060020a031660009081526020819052604090205490565b336000908152602081905260409020548111156101e657600080fd5b600160a060020a03821615156101fb57600080fd5b3360009081526020819052604090205461021b908263ffffffff6102b716565b3360009081526020819052604080822092909255600160a060020a0384168152205461024d908263ffffffff6102a416565b600160a060020a038316600081815260208181526040918290209390935580518481529051919233927fddf252ad1be2c89b69c2b068fc378daa952ba7f163c4a11628f55a4df523b3ef9281900390910190a35050565b818101828110156102b157fe5b92915050565b6000828211156102c357fe5b509003905600a165627a7a72305820baf78ad723347c3e3d8d5d887f0beb727099ec3088783ed2b9f7a9de1f50893c0029",
  "source": "pragma solidity 0.4.24;\n\nimport \"openzeppelin-solidity/contracts/math/SafeMath.sol\";\n\ncontract NoReturnTransferTokenMock {\n    using SafeMath for uint256;\n\n    event Transfer(address indexed from, address indexed to, uint256 value);\n\n    mapping(address => uint256) internal balances;\n    uint256 internal totalSupply_;\n\n    function totalSupply() public view returns (uint256) {\n        return totalSupply_;\n    }\n\n    function mint(address _to, uint256 _amount) public returns (bool) {\n        totalSupply_ = totalSupply_.add(_amount);\n        balances[_to] = balances[_to].add(_amount);\n        emit Transfer(address(0), _to, _amount);\n        return true;\n    }\n\n    function balanceOf(address _owner) public view returns (uint256) {\n        return balances[_owner];\n    }\n\n    // solhint-disable-next-line no-simple-event-func-name\n    function transfer(address _to, uint256 _value) public {\n        require(_value <= balances[msg.sender]);\n        require(_to != address(0));\n\n        balances[msg.sender] = balances[msg.sender].sub(_value);\n        balances[_to] = balances[_to].add(_value);\n        emit Transfer(msg.sender, _to, _value);\n    }\n}\n",
  "sourcePath": "/mono/contracts/contracts/mocks/NoReturnTransferTokenMock.sol",
  "compiler": {
    "name": "solc",
    "version": "0.4.24+commit.e67f0147.Emscripten.clang"
  },
  "schemaVersion": "3.0.11",
  "updatedAt": "2019-09-03T09:43:49.618Z",
  "devdoc": {
    "methods": {}
  },
  "userdoc": {
    "methods": {}
  }
}