{
  "contractName": "OwnedUpgradeabilityProxy",
  "abi": [
    {
      "constant": true,
      "inputs": [],
      "name": "version",
      "outputs": [
        {
          "name": "",
          "type": "uint256"
        }
      ],
      "payable": false,
      "stateMutability": "view",
      "type": "function"
    },
    {
      "constant": true,
      "inputs": [],
      "name": "implementation",
      "outputs": [
        {
          "name": "",
          "type": "address"
        }
      ],
      "payable": false,
      "stateMutability": "view",
      "type": "function"
    },
    {
      "constant": true,
      "inputs": [],
      "name": "upgradeabilityOwner",
      "outputs": [
        {
          "name": "",
          "type": "address"
        }
      ],
      "payable": false,
      "stateMutability": "view",
      "type": "function"
    },
    {
      "inputs": [],
      "payable": false,
      "stateMutability": "nonpayable",
      "type": "constructor"
    },
    {
      "payable": true,
      "stateMutability": "payable",
      "type": "fallback"
    },
    {
      "anonymous": false,
      "inputs": [
        {
          "indexed": false,
          "name": "previousOwner",
          "type": "address"
        },
        {
          "indexed": false,
          "name": "newOwner",
          "type": "address"
        }
      ],
      "name": "ProxyOwnershipTransferred",
      "type": "event"
    },
    {
      "anonymous": false,
      "inputs": [
        {
          "indexed": false,
          "name": "version",
          "type": "uint256"
        },
        {
          "indexed": true,
          "name": "implementation",
          "type": "address"
        }
      ],
      "name": "Upgraded",
      "type": "event"
    },
    {
      "constant": false,
      "inputs": [
        {
          "name": "newOwner",
          "type": "address"
        }
      ],
      "name": "transferProxyOwnership",
      "outputs": [],
      "payable": false,
      "stateMutability": "nonpayable",
      "type": "function"
    },
    {
      "constant": false,
      "inputs": [
        {
          "name": "version",
          "type": "uint256"
        },
        {
          "name": "implementation",
          "type": "address"
        }
      ],
      "name": "upgradeTo",
      "outputs": [],
      "payable": false,
      "stateMutability": "nonpayable",
      "type": "function"
    },
    {
      "constant": false,
      "inputs": [
        {
          "name": "version",
          "type": "uint256"
        },
        {
          "name": "implementation",
          "type": "address"
        },
        {
          "name": "data",
          "type": "bytes"
        }
      ],
      "name": "upgradeToAndCall",
      "outputs": [],
      "payable": true,
      "stateMutability": "payable",
      "type": "function"
    }
  ],
  "bytecode": "0x608060405234801561001057600080fd5b5061002333640100000000610028810204565b61004a565b60008054600160a060020a031916600160a060020a0392909216919091179055565b6103e0806100596000396000f3006080604052600436106100775763ffffffff7c01000000000000000000000000000000000000000000000000000000006000350416633ad06d1681146100c257806354fd4d50146100e85780635c60da1b1461010f5780636fde820214610140578063a9c45fcb14610155578063f1739cae14610179575b600061008161019a565b9050600160a060020a038116151561009857600080fd5b60405136600082376000803683855af43d82016040523d6000833e8080156100be573d83f35b3d83fd5b3480156100ce57600080fd5b506100e6600435600160a060020a03602435166101a9565b005b3480156100f457600080fd5b506100fd6101d3565b60408051918252519081900360200190f35b34801561011b57600080fd5b5061012461019a565b60408051600160a060020a039092168252519081900360200190f35b34801561014c57600080fd5b506101246101d9565b6100e6600480359060248035600160a060020a0316916044359182019101356101e8565b34801561018557600080fd5b506100e6600160a060020a0360043516610250565b600254600160a060020a031690565b6101b16101d9565b600160a060020a031633146101c557600080fd5b6101cf82826102d8565b5050565b60015490565b600054600160a060020a031690565b6101f06101d9565b600160a060020a0316331461020457600080fd5b61020e84846101a9565b30600160a060020a03163483836040518083838082843782019150509250505060006040518083038185875af192505050151561024a57600080fd5b50505050565b6102586101d9565b600160a060020a0316331461026c57600080fd5b600160a060020a038116151561028157600080fd5b7f5a3e66efaa1e445ebd894728a69d6959842ea1e97bd79b892797106e270efcd96102aa6101d9565b60408051600160a060020a03928316815291841660208301528051918290030190a16102d58161037d565b50565b600254600160a060020a03828116911614156102f357600080fd5b6102fc816103ac565b151561030757600080fd5b600154821161031557600080fd5b600182905560028054600160a060020a03831673ffffffffffffffffffffffffffffffffffffffff1990911681179091556040805184815290517f4289d6195cf3c2d2174adf98d0e19d4d2d08887995b99cb7b100e7ffe795820e9181900360200190a25050565b6000805473ffffffffffffffffffffffffffffffffffffffff1916600160a060020a0392909216919091179055565b6000903b11905600a165627a7a72305820f0ec63b103decab4f3ab749308fe69f969b771909335d0889ce24ab90d6093250029",
  "source": "pragma solidity 0.4.24;\n\nimport \"./UpgradeabilityProxy.sol\";\nimport \"./UpgradeabilityOwnerStorage.sol\";\n\n/**\n * @title OwnedUpgradeabilityProxy\n * @dev This contract combines an upgradeability proxy with basic authorization control functionalities\n */\ncontract OwnedUpgradeabilityProxy is UpgradeabilityOwnerStorage, UpgradeabilityProxy {\n    /**\n    * @dev Event to show ownership has been transferred\n    * @param previousOwner representing the address of the previous owner\n    * @param newOwner representing the address of the new owner\n    */\n    event ProxyOwnershipTransferred(address previousOwner, address newOwner);\n\n    /**\n    * @dev the constructor sets the original owner of the contract to the sender account.\n    */\n    constructor() public {\n        setUpgradeabilityOwner(msg.sender);\n    }\n\n    /**\n    * @dev Throws if called by any account other than the owner.\n    */\n    modifier onlyUpgradeabilityOwner() {\n        require(msg.sender == upgradeabilityOwner());\n        /* solcov ignore next */\n        _;\n    }\n\n    /**\n    * @dev Allows the current owner to transfer control of the contract to a newOwner.\n    * @param newOwner The address to transfer ownership to.\n    */\n    function transferProxyOwnership(address newOwner) external onlyUpgradeabilityOwner {\n        require(newOwner != address(0));\n        emit ProxyOwnershipTransferred(upgradeabilityOwner(), newOwner);\n        setUpgradeabilityOwner(newOwner);\n    }\n\n    /**\n    * @dev Allows the upgradeability owner to upgrade the current version of the proxy.\n    * @param version representing the version name of the new implementation to be set.\n    * @param implementation representing the address of the new implementation to be set.\n    */\n    function upgradeTo(uint256 version, address implementation) public onlyUpgradeabilityOwner {\n        _upgradeTo(version, implementation);\n    }\n\n    /**\n    * @dev Allows the upgradeability owner to upgrade the current version of the proxy and call the new implementation\n    * to initialize whatever is needed through a low level call.\n    * @param version representing the version name of the new implementation to be set.\n    * @param implementation representing the address of the new implementation to be set.\n    * @param data represents the msg.data to bet sent in the low level call. This parameter may include the function\n    * signature of the implementation to be called with the needed payload\n    */\n    function upgradeToAndCall(uint256 version, address implementation, bytes data)\n        external\n        payable\n        onlyUpgradeabilityOwner\n    {\n        upgradeTo(version, implementation);\n        // solhint-disable-next-line avoid-call-value\n        require(address(this).call.value(msg.value)(data));\n    }\n}\n",
  "sourcePath": "/mono/contracts/contracts/upgradeability/OwnedUpgradeabilityProxy.sol",
  "compiler": {
    "name": "solc",
    "version": "0.4.24+commit.e67f0147.Emscripten.clang"
  },
  "schemaVersion": "3.0.11",
  "updatedAt": "2019-09-03T09:43:49.621Z",
  "devdoc": {
    "methods": {
      "implementation()": {
        "details": "Tells the address of the current implementation",
        "return": "address of the current implementation"
      },
      "transferProxyOwnership(address)": {
        "details": "Allows the current owner to transfer control of the contract to a newOwner.",
        "params": {
          "newOwner": "The address to transfer ownership to."
        }
      },
      "upgradeTo(uint256,address)": {
        "details": "Allows the upgradeability owner to upgrade the current version of the proxy.",
        "params": {
          "implementation": "representing the address of the new implementation to be set.",
          "version": "representing the version name of the new implementation to be set."
        }
      },
      "upgradeToAndCall(uint256,address,bytes)": {
        "details": "Allows the upgradeability owner to upgrade the current version of the proxy and call the new implementation to initialize whatever is needed through a low level call.",
        "params": {
          "data": "represents the msg.data to bet sent in the low level call. This parameter may include the function signature of the implementation to be called with the needed payload",
          "implementation": "representing the address of the new implementation to be set.",
          "version": "representing the version name of the new implementation to be set."
        }
      },
      "upgradeabilityOwner()": {
        "details": "Tells the address of the owner",
        "return": "the address of the owner"
      },
      "version()": {
        "details": "Tells the version name of the current implementation",
        "return": "uint256 representing the name of the current version"
      }
    },
    "title": "OwnedUpgradeabilityProxy"
  },
  "userdoc": {
    "methods": {}
  }
}