{
  "contractName": "OwnedUpgradeability",
  "abi": [
    {
      "constant": true,
      "inputs": [],
      "name": "upgradeabilityAdmin",
      "outputs": [
        {
          "name": "",
          "type": "address"
        }
      ],
      "payable": false,
      "stateMutability": "view",
      "type": "function"
    }
  ],
  "bytecode": "0x608060405234801561001057600080fd5b50610146806100206000396000f3006080604052600436106100405763ffffffff7c0100000000000000000000000000000000000000000000000000000000600035041663df0ad3de8114610045575b600080fd5b34801561005157600080fd5b5061005a610083565b6040805173ffffffffffffffffffffffffffffffffffffffff9092168252519081900360200190f35b60003073ffffffffffffffffffffffffffffffffffffffff1663025313a26040518163ffffffff167c0100000000000000000000000000000000000000000000000000000000028152600401602060405180830381600087803b1580156100e957600080fd5b505af11580156100fd573d6000803e3d6000fd5b505050506040513d602081101561011357600080fd5b50519050905600a165627a7a723058203e652bc75dd58d25045e92a98754314ed55842729b4dcce826475fc09d7124ed0029",
  "source": "pragma solidity 0.4.24;\n\nimport \"../IOwnedUpgradeabilityProxy.sol\";\n\n\ncontract OwnedUpgradeability {\n\n    function upgradeabilityAdmin() public view returns (address) {\n        return IOwnedUpgradeabilityProxy(this).proxyOwner();\n    }\n\n    // Avoid using onlyProxyOwner name to prevent issues with implementation from proxy contract\n    modifier onlyIfOwnerOfProxy() {\n        require(msg.sender == upgradeabilityAdmin());\n        _;\n    }\n}\n",
  "sourcePath": "/Users/fbranci/iexecdev/vivani/tokenbridge/contracts/contracts/upgradeable_contracts/OwnedUpgradeability.sol",
  "compiler": {
    "name": "solc",
    "version": "0.4.24+commit.e67f0147.Emscripten.clang"
  },
  "schemaVersion": "3.0.13",
  "updatedAt": "2019-08-28T14:04:53.250Z",
  "devdoc": {
    "methods": {}
  },
  "userdoc": {
    "methods": {}
  }
}