{
  "contractName": "POSDAOHomeBridgeErcToErc",
  "abi": [
    {
      "constant": true,
      "inputs": [
        {
          "name": "_message",
          "type": "bytes32"
        }
      ],
      "name": "numMessagesSigned",
      "outputs": [
        {
          "name": "",
          "type": "uint256"
        }
      ],
      "payable": false,
      "stateMutability": "view",
      "type": "function"
    },
    {
      "constant": true,
      "inputs": [
        {
          "name": "_hash",
          "type": "bytes32"
        },
        {
          "name": "_index",
          "type": "uint256"
        }
      ],
      "name": "signature",
      "outputs": [
        {
          "name": "",
          "type": "bytes"
        }
      ],
      "payable": false,
      "stateMutability": "view",
      "type": "function"
    },
    {
      "constant": true,
      "inputs": [],
      "name": "erc677token",
      "outputs": [
        {
          "name": "",
          "type": "address"
        }
      ],
      "payable": false,
      "stateMutability": "view",
      "type": "function"
    },
    {
      "constant": false,
      "inputs": [
        {
          "name": "_fee",
          "type": "uint256"
        }
      ],
      "name": "setForeignFee",
      "outputs": [],
      "payable": false,
      "stateMutability": "nonpayable",
      "type": "function"
    },
    {
      "constant": true,
      "inputs": [
        {
          "name": "_txHash",
          "type": "bytes32"
        }
      ],
      "name": "fixedAssets",
      "outputs": [
        {
          "name": "",
          "type": "bool"
        }
      ],
      "payable": false,
      "stateMutability": "view",
      "type": "function"
    },
    {
      "constant": true,
      "inputs": [
        {
          "name": "_day",
          "type": "uint256"
        }
      ],
      "name": "totalSpentPerDay",
      "outputs": [
        {
          "name": "",
          "type": "uint256"
        }
      ],
      "payable": false,
      "stateMutability": "view",
      "type": "function"
    },
    {
      "constant": false,
      "inputs": [
        {
          "name": "_fee",
          "type": "uint256"
        }
      ],
      "name": "setHomeFee",
      "outputs": [],
      "payable": false,
      "stateMutability": "nonpayable",
      "type": "function"
    },
    {
      "constant": true,
      "inputs": [],
      "name": "isInitialized",
      "outputs": [
        {
          "name": "",
          "type": "bool"
        }
      ],
      "payable": false,
      "stateMutability": "view",
      "type": "function"
    },
    {
      "constant": false,
      "inputs": [
        {
          "name": "_dailyLimit",
          "type": "uint256"
        }
      ],
      "name": "setExecutionDailyLimit",
      "outputs": [],
      "payable": false,
      "stateMutability": "nonpayable",
      "type": "function"
    },
    {
      "constant": true,
      "inputs": [],
      "name": "getCurrentDay",
      "outputs": [
        {
          "name": "",
          "type": "uint256"
        }
      ],
      "payable": false,
      "stateMutability": "view",
      "type": "function"
    },
    {
      "constant": true,
      "inputs": [],
      "name": "requiredBlockConfirmations",
      "outputs": [
        {
          "name": "",
          "type": "uint256"
        }
      ],
      "payable": false,
      "stateMutability": "view",
      "type": "function"
    },
    {
      "constant": true,
      "inputs": [],
      "name": "requiredMessageLength",
      "outputs": [
        {
          "name": "",
          "type": "uint256"
        }
      ],
      "payable": false,
      "stateMutability": "pure",
      "type": "function"
    },
    {
      "constant": true,
      "inputs": [],
      "name": "getBridgeMode",
      "outputs": [
        {
          "name": "_data",
          "type": "bytes4"
        }
      ],
      "payable": false,
      "stateMutability": "pure",
      "type": "function"
    },
    {
      "constant": true,
      "inputs": [],
      "name": "executionDailyLimit",
      "outputs": [
        {
          "name": "",
          "type": "uint256"
        }
      ],
      "payable": false,
      "stateMutability": "view",
      "type": "function"
    },
    {
      "constant": true,
      "inputs": [
        {
          "name": "_hash",
          "type": "bytes32"
        }
      ],
      "name": "message",
      "outputs": [
        {
          "name": "",
          "type": "bytes"
        }
      ],
      "payable": false,
      "stateMutability": "view",
      "type": "function"
    },
    {
      "constant": true,
      "inputs": [
        {
          "name": "_day",
          "type": "uint256"
        }
      ],
      "name": "totalExecutedPerDay",
      "outputs": [
        {
          "name": "",
          "type": "uint256"
        }
      ],
      "payable": false,
      "stateMutability": "view",
      "type": "function"
    },
    {
      "constant": false,
      "inputs": [
        {
          "name": "_validatorContract",
          "type": "address"
        },
        {
          "name": "_dailyLimit",
          "type": "uint256"
        },
        {
          "name": "_maxPerTx",
          "type": "uint256"
        },
        {
          "name": "_minPerTx",
          "type": "uint256"
        },
        {
          "name": "_homeGasPrice",
          "type": "uint256"
        },
        {
          "name": "_requiredBlockConfirmations",
          "type": "uint256"
        },
        {
          "name": "_erc677token",
          "type": "address"
        },
        {
          "name": "_foreignDailyLimit",
          "type": "uint256"
        },
        {
          "name": "_foreignMaxPerTx",
          "type": "uint256"
        },
        {
          "name": "_owner",
          "type": "address"
        }
      ],
      "name": "initialize",
      "outputs": [
        {
          "name": "",
          "type": "bool"
        }
      ],
      "payable": false,
      "stateMutability": "nonpayable",
      "type": "function"
    },
    {
      "constant": false,
      "inputs": [
        {
          "name": "_feeManager",
          "type": "address"
        }
      ],
      "name": "setFeeManagerContract",
      "outputs": [],
      "payable": false,
      "stateMutability": "nonpayable",
      "type": "function"
    },
    {
      "constant": false,
      "inputs": [
        {
          "name": "signature",
          "type": "bytes"
        },
        {
          "name": "message",
          "type": "bytes"
        }
      ],
      "name": "submitSignature",
      "outputs": [],
      "payable": false,
      "stateMutability": "nonpayable",
      "type": "function"
    },
    {
      "constant": false,
      "inputs": [
        {
          "name": "txHash",
          "type": "bytes32"
        },
        {
          "name": "unlockOnForeign",
          "type": "bool"
        }
      ],
      "name": "fixAssetsAboveLimits",
      "outputs": [],
      "payable": false,
      "stateMutability": "nonpayable",
      "type": "function"
    },
    {
      "constant": true,
      "inputs": [],
      "name": "dailyLimit",
      "outputs": [
        {
          "name": "",
          "type": "uint256"
        }
      ],
      "payable": false,
      "stateMutability": "view",
      "type": "function"
    },
    {
      "constant": false,
      "inputs": [
        {
          "name": "_token",
          "type": "address"
        },
        {
          "name": "_to",
          "type": "address"
        }
      ],
      "name": "claimTokens",
      "outputs": [],
      "payable": false,
      "stateMutability": "nonpayable",
      "type": "function"
    },
    {
      "constant": true,
      "inputs": [
        {
          "name": "_withdrawal",
          "type": "bytes32"
        }
      ],
      "name": "numAffirmationsSigned",
      "outputs": [
        {
          "name": "",
          "type": "uint256"
        }
      ],
      "payable": false,
      "stateMutability": "view",
      "type": "function"
    },
    {
      "constant": true,
      "inputs": [
        {
          "name": "_withdrawal",
          "type": "bytes32"
        }
      ],
      "name": "affirmationsSigned",
      "outputs": [
        {
          "name": "",
          "type": "bool"
        }
      ],
      "payable": false,
      "stateMutability": "view",
      "type": "function"
    },
    {
      "constant": true,
      "inputs": [
        {
          "name": "_amount",
          "type": "uint256"
        }
      ],
      "name": "withinExecutionLimit",
      "outputs": [
        {
          "name": "",
          "type": "bool"
        }
      ],
      "payable": false,
      "stateMutability": "view",
      "type": "function"
    },
    {
      "constant": true,
      "inputs": [],
      "name": "executionMaxPerTx",
      "outputs": [
        {
          "name": "",
          "type": "uint256"
        }
      ],
      "payable": false,
      "stateMutability": "view",
      "type": "function"
    },
    {
      "constant": true,
      "inputs": [],
      "name": "requiredSignatures",
      "outputs": [
        {
          "name": "",
          "type": "uint256"
        }
      ],
      "payable": false,
      "stateMutability": "view",
      "type": "function"
    },
    {
      "constant": true,
      "inputs": [],
      "name": "owner",
      "outputs": [
        {
          "name": "",
          "type": "address"
        }
      ],
      "payable": false,
      "stateMutability": "view",
      "type": "function"
    },
    {
      "constant": true,
      "inputs": [
        {
          "name": "_message",
          "type": "bytes32"
        }
      ],
      "name": "messagesSigned",
      "outputs": [
        {
          "name": "",
          "type": "bool"
        }
      ],
      "payable": false,
      "stateMutability": "view",
      "type": "function"
    },
    {
      "constant": true,
      "inputs": [],
      "name": "getHomeFee",
      "outputs": [
        {
          "name": "",
          "type": "uint256"
        }
      ],
      "payable": false,
      "stateMutability": "view",
      "type": "function"
    },
    {
      "constant": true,
      "inputs": [],
      "name": "validatorContract",
      "outputs": [
        {
          "name": "",
          "type": "address"
        }
      ],
      "payable": false,
      "stateMutability": "view",
      "type": "function"
    },
    {
      "constant": false,
      "inputs": [
        {
          "name": "recipient",
          "type": "address"
        },
        {
          "name": "value",
          "type": "uint256"
        },
        {
          "name": "transactionHash",
          "type": "bytes32"
        }
      ],
      "name": "executeAffirmation",
      "outputs": [],
      "payable": false,
      "stateMutability": "nonpayable",
      "type": "function"
    },
    {
      "constant": true,
      "inputs": [],
      "name": "deployedAtBlock",
      "outputs": [
        {
          "name": "",
          "type": "uint256"
        }
      ],
      "payable": false,
      "stateMutability": "view",
      "type": "function"
    },
    {
      "constant": true,
      "inputs": [],
      "name": "getBridgeInterfacesVersion",
      "outputs": [
        {
          "name": "major",
          "type": "uint64"
        },
        {
          "name": "minor",
          "type": "uint64"
        },
        {
          "name": "patch",
          "type": "uint64"
        }
      ],
      "payable": false,
      "stateMutability": "pure",
      "type": "function"
    },
    {
      "constant": true,
      "inputs": [],
      "name": "outOfLimitAmount",
      "outputs": [
        {
          "name": "",
          "type": "uint256"
        }
      ],
      "payable": false,
      "stateMutability": "view",
      "type": "function"
    },
    {
      "constant": false,
      "inputs": [
        {
          "name": "_minPerTx",
          "type": "uint256"
        }
      ],
      "name": "setMinPerTx",
      "outputs": [],
      "payable": false,
      "stateMutability": "nonpayable",
      "type": "function"
    },
    {
      "constant": false,
      "inputs": [
        {
          "name": "_from",
          "type": "address"
        },
        {
          "name": "_value",
          "type": "uint256"
        },
        {
          "name": "",
          "type": "bytes"
        }
      ],
      "name": "onTokenTransfer",
      "outputs": [
        {
          "name": "",
          "type": "bool"
        }
      ],
      "payable": false,
      "stateMutability": "nonpayable",
      "type": "function"
    },
    {
      "constant": false,
      "inputs": [
        {
          "name": "_blockConfirmations",
          "type": "uint256"
        }
      ],
      "name": "setRequiredBlockConfirmations",
      "outputs": [],
      "payable": false,
      "stateMutability": "nonpayable",
      "type": "function"
    },
    {
      "constant": false,
      "inputs": [
        {
          "name": "_dailyLimit",
          "type": "uint256"
        }
      ],
      "name": "setDailyLimit",
      "outputs": [],
      "payable": false,
      "stateMutability": "nonpayable",
      "type": "function"
    },
    {
      "constant": false,
      "inputs": [
        {
          "name": "_gasPrice",
          "type": "uint256"
        }
      ],
      "name": "setGasPrice",
      "outputs": [],
      "payable": false,
      "stateMutability": "nonpayable",
      "type": "function"
    },
    {
      "constant": false,
      "inputs": [
        {
          "name": "_maxPerTx",
          "type": "uint256"
        }
      ],
      "name": "setMaxPerTx",
      "outputs": [],
      "payable": false,
      "stateMutability": "nonpayable",
      "type": "function"
    },
    {
      "constant": true,
      "inputs": [],
      "name": "feeManagerContract",
      "outputs": [
        {
          "name": "",
          "type": "address"
        }
      ],
      "payable": false,
      "stateMutability": "view",
      "type": "function"
    },
    {
      "constant": true,
      "inputs": [],
      "name": "upgradeabilityAdmin",
      "outputs": [
        {
          "name": "",
          "type": "address"
        }
      ],
      "payable": false,
      "stateMutability": "view",
      "type": "function"
    },
    {
      "constant": true,
      "inputs": [],
      "name": "minPerTx",
      "outputs": [
        {
          "name": "",
          "type": "uint256"
        }
      ],
      "payable": false,
      "stateMutability": "view",
      "type": "function"
    },
    {
      "constant": true,
      "inputs": [
        {
          "name": "_amount",
          "type": "uint256"
        }
      ],
      "name": "withinLimit",
      "outputs": [
        {
          "name": "",
          "type": "bool"
        }
      ],
      "payable": false,
      "stateMutability": "view",
      "type": "function"
    },
    {
      "constant": false,
      "inputs": [
        {
          "name": "_maxPerTx",
          "type": "uint256"
        }
      ],
      "name": "setExecutionMaxPerTx",
      "outputs": [],
      "payable": false,
      "stateMutability": "nonpayable",
      "type": "function"
    },
    {
      "constant": true,
      "inputs": [],
      "name": "getFeeManagerMode",
      "outputs": [
        {
          "name": "",
          "type": "bytes4"
        }
      ],
      "payable": false,
      "stateMutability": "view",
      "type": "function"
    },
    {
      "constant": false,
      "inputs": [
        {
          "name": "newOwner",
          "type": "address"
        }
      ],
      "name": "transferOwnership",
      "outputs": [],
      "payable": false,
      "stateMutability": "nonpayable",
      "type": "function"
    },
    {
      "constant": true,
      "inputs": [],
      "name": "maxPerTx",
      "outputs": [
        {
          "name": "",
          "type": "uint256"
        }
      ],
      "payable": false,
      "stateMutability": "view",
      "type": "function"
    },
    {
      "constant": true,
      "inputs": [],
      "name": "gasPrice",
      "outputs": [
        {
          "name": "",
          "type": "uint256"
        }
      ],
      "payable": false,
      "stateMutability": "view",
      "type": "function"
    },
    {
      "constant": true,
      "inputs": [
        {
          "name": "_number",
          "type": "uint256"
        }
      ],
      "name": "isAlreadyProcessed",
      "outputs": [
        {
          "name": "",
          "type": "bool"
        }
      ],
      "payable": false,
      "stateMutability": "pure",
      "type": "function"
    },
    {
      "constant": true,
      "inputs": [],
      "name": "getForeignFee",
      "outputs": [
        {
          "name": "",
          "type": "uint256"
        }
      ],
      "payable": false,
      "stateMutability": "view",
      "type": "function"
    },
    {
      "payable": true,
      "stateMutability": "payable",
      "type": "fallback"
    },
    {
      "anonymous": false,
      "inputs": [
        {
          "indexed": false,
          "name": "recipient",
          "type": "address"
        },
        {
          "indexed": false,
          "name": "value",
          "type": "uint256"
        },
        {
          "indexed": false,
          "name": "transactionHash",
          "type": "bytes32"
        }
      ],
      "name": "AmountLimitExceeded",
      "type": "event"
    },
    {
      "anonymous": false,
      "inputs": [
        {
          "indexed": false,
          "name": "feeAmount",
          "type": "uint256"
        },
        {
          "indexed": true,
          "name": "transactionHash",
          "type": "bytes32"
        }
      ],
      "name": "FeeDistributedFromAffirmation",
      "type": "event"
    },
    {
      "anonymous": false,
      "inputs": [
        {
          "indexed": false,
          "name": "feeAmount",
          "type": "uint256"
        },
        {
          "indexed": true,
          "name": "transactionHash",
          "type": "bytes32"
        }
      ],
      "name": "FeeDistributedFromSignatures",
      "type": "event"
    },
    {
      "anonymous": false,
      "inputs": [
        {
          "indexed": false,
          "name": "recipient",
          "type": "address"
        },
        {
          "indexed": false,
          "name": "value",
          "type": "uint256"
        }
      ],
      "name": "UserRequestForSignature",
      "type": "event"
    },
    {
      "anonymous": false,
      "inputs": [
        {
          "indexed": false,
          "name": "recipient",
          "type": "address"
        },
        {
          "indexed": false,
          "name": "value",
          "type": "uint256"
        },
        {
          "indexed": false,
          "name": "transactionHash",
          "type": "bytes32"
        }
      ],
      "name": "AffirmationCompleted",
      "type": "event"
    },
    {
      "anonymous": false,
      "inputs": [
        {
          "indexed": true,
          "name": "signer",
          "type": "address"
        },
        {
          "indexed": false,
          "name": "messageHash",
          "type": "bytes32"
        }
      ],
      "name": "SignedForUserRequest",
      "type": "event"
    },
    {
      "anonymous": false,
      "inputs": [
        {
          "indexed": true,
          "name": "signer",
          "type": "address"
        },
        {
          "indexed": false,
          "name": "transactionHash",
          "type": "bytes32"
        }
      ],
      "name": "SignedForAffirmation",
      "type": "event"
    },
    {
      "anonymous": false,
      "inputs": [
        {
          "indexed": false,
          "name": "authorityResponsibleForRelay",
          "type": "address"
        },
        {
          "indexed": false,
          "name": "messageHash",
          "type": "bytes32"
        },
        {
          "indexed": false,
          "name": "NumberOfCollectedSignatures",
          "type": "uint256"
        }
      ],
      "name": "CollectedSignatures",
      "type": "event"
    },
    {
      "anonymous": false,
      "inputs": [
        {
          "indexed": false,
          "name": "gasPrice",
          "type": "uint256"
        }
      ],
      "name": "GasPriceChanged",
      "type": "event"
    },
    {
      "anonymous": false,
      "inputs": [
        {
          "indexed": false,
          "name": "requiredBlockConfirmations",
          "type": "uint256"
        }
      ],
      "name": "RequiredBlockConfirmationChanged",
      "type": "event"
    },
    {
      "anonymous": false,
      "inputs": [
        {
          "indexed": false,
          "name": "newLimit",
          "type": "uint256"
        }
      ],
      "name": "DailyLimitChanged",
      "type": "event"
    },
    {
      "anonymous": false,
      "inputs": [
        {
          "indexed": false,
          "name": "newLimit",
          "type": "uint256"
        }
      ],
      "name": "ExecutionDailyLimitChanged",
      "type": "event"
    },
    {
      "anonymous": false,
      "inputs": [
        {
          "indexed": false,
          "name": "previousOwner",
          "type": "address"
        },
        {
          "indexed": false,
          "name": "newOwner",
          "type": "address"
        }
      ],
      "name": "OwnershipTransferred",
      "type": "event"
    },
    {
      "constant": false,
      "inputs": [
        {
          "name": "_validatorContract",
          "type": "address"
        },
        {
          "name": "_dailyLimit",
          "type": "uint256"
        },
        {
          "name": "_maxPerTx",
          "type": "uint256"
        },
        {
          "name": "_minPerTx",
          "type": "uint256"
        },
        {
          "name": "_homeGasPrice",
          "type": "uint256"
        },
        {
          "name": "_requiredBlockConfirmations",
          "type": "uint256"
        },
        {
          "name": "_erc677token",
          "type": "address"
        },
        {
          "name": "_foreignDailyLimit",
          "type": "uint256"
        },
        {
          "name": "_foreignMaxPerTx",
          "type": "uint256"
        },
        {
          "name": "_owner",
          "type": "address"
        },
        {
          "name": "_feeManager",
          "type": "address"
        },
        {
          "name": "_homeFee",
          "type": "uint256"
        },
        {
          "name": "_foreignFee",
          "type": "uint256"
        },
        {
          "name": "_blockReward",
          "type": "address"
        }
      ],
      "name": "rewardableInitialize",
      "outputs": [
        {
          "name": "",
          "type": "bool"
        }
      ],
      "payable": false,
      "stateMutability": "nonpayable",
      "type": "function"
    },
    {
      "constant": false,
      "inputs": [
        {
          "name": "_validatorContract",
          "type": "address"
        },
        {
          "name": "_dailyLimit",
          "type": "uint256"
        },
        {
          "name": "_maxPerTx",
          "type": "uint256"
        },
        {
          "name": "_minPerTx",
          "type": "uint256"
        },
        {
          "name": "_homeGasPrice",
          "type": "uint256"
        },
        {
          "name": "_requiredBlockConfirmations",
          "type": "uint256"
        },
        {
          "name": "_erc677token",
          "type": "address"
        },
        {
          "name": "_foreignDailyLimit",
          "type": "uint256"
        },
        {
          "name": "_foreignMaxPerTx",
          "type": "uint256"
        },
        {
          "name": "_owner",
          "type": "address"
        },
        {
          "name": "_feeManager",
          "type": "address"
        },
        {
          "name": "_homeFee",
          "type": "uint256"
        },
        {
          "name": "_foreignFee",
          "type": "uint256"
        }
      ],
      "name": "rewardableInitialize",
      "outputs": [
        {
          "name": "",
          "type": "bool"
        }
      ],
      "payable": false,
      "stateMutability": "nonpayable",
      "type": "function"
    },
    {
      "constant": true,
      "inputs": [],
      "name": "blockRewardContract",
      "outputs": [
        {
          "name": "",
          "type": "address"
        }
      ],
      "payable": false,
      "stateMutability": "view",
      "type": "function"
    },
    {
      "constant": false,
      "inputs": [
        {
          "name": "_blockReward",
          "type": "address"
        }
      ],
      "name": "setBlockRewardContract",
      "outputs": [],
      "payable": false,
      "stateMutability": "nonpayable",
      "type": "function"
    }
  ],
  "bytecode": "0x608060405234801561001057600080fd5b506153ba806100206000396000f3006080604052600436106102845763ffffffff60e060020a6000350416630cbf060181146102895780631812d996146102b357806318d8f9c9146103435780631beca5891461037457806327a3e16b146103eb578063286c40661461040e5780632888bb9c146104265780632bd0bb051461043e57806334a9e14814610456578063392e53cd1461046e5780633dd95d1b146104835780633e6968b61461049b5780633f0a9f65146104b0578063408fef2e146104c5578063437764df146104da57806343b37dd314610521578063490a32c6146105365780634fb3fef71461054e57806354a2b2b81461056657806356b54bae146105b157806360756f7c146105c657806362d4ed34146105e7578063630cea8e1461064157806364d188eb1461066d57806367eeba0c1461068a57806369ffa08a1461069f5780636ae1a976146106c65780637698da24146106de578063879ce676146106f65780638aa1949a1461070e5780638d068043146107235780638da5cb5b146107385780638f4b4b981461074d57806394da17cd14610765578063994390891461077a578063995b2cff1461078f5780639a454b99146107b65780639cb7595a146107cb578063a01893451461080c578063a2a6ca2714610821578063a4c0ed3614610839578063acf5c6891461086a578063b20d30a914610882578063bf1fe4201461089a578063c6f6f216146108b2578063dbe03a8b146108ca578063df0ad3de146108df578063df25f3f0146108f4578063ea9f496814610909578063f20151e114610921578063f2ba956114610939578063f2fde38b1461094e578063f968adbe1461096f578063fe173b9714610984578063ffd19e8c14610999578063ffd66196146109b1575b600080fd5b34801561029557600080fd5b506102a16004356109c6565b60408051918252519081900360200190f35b3480156102bf57600080fd5b506102ce600435602435610a8b565b6040805160208082528351818301528351919283929083019185019080838360005b838110156103085781810151838201526020016102f0565b50505050905090810190601f1680156103355780820380516001836020036101000a031916815260200191505b509250505060405180910390f35b34801561034f57600080fd5b50610358610b22565b60408051600160a060020a039092168252519081900360200190f35b34801561038057600080fd5b506103d7600160a060020a036004358116906024359060443590606435906084359060a4359060c43581169060e4359061010435906101243581169061014435811690610164359061018435906101a43516610be1565b604080519115158252519081900360200190f35b3480156103f757600080fd5b5061040c600160a060020a0360043516610c28565b005b34801561041a57600080fd5b5061040c600435610c5e565b34801561043257600080fd5b506103d7600435610d18565b34801561044a57600080fd5b506102a1600435610de1565b34801561046257600080fd5b5061040c600435610e5c565b34801561047a57600080fd5b506103d7610ee0565b34801561048f57600080fd5b5061040c600435610f98565b3480156104a757600080fd5b506102a161109a565b3480156104bc57600080fd5b506102a16110a3565b3480156104d157600080fd5b506102a1611157565b3480156104e657600080fd5b506104ef611166565b604080517bffffffffffffffffffffffffffffffffffffffffffffffffffffffff199092168252519081900360200190f35b34801561052d57600080fd5b506102a1611209565b34801561054257600080fd5b506102ce60043561127c565b34801561055a57600080fd5b506102a160043561128d565b34801561057257600080fd5b506103d7600160a060020a036004358116906024359060443590606435906084359060a4359060c43581169060e4359061010435906101243516611308565b3480156105bd57600080fd5b50610358611340565b3480156105d257600080fd5b5061040c600160a060020a03600435166113b9565b3480156105f357600080fd5b506103d7600160a060020a036004358116906024359060443590606435906084359060a4359060c43581169060e43590610104359061012435811690610144351661016435610184356114d7565b34801561064d57600080fd5b5061040c6024600480358281019290820135918135918201910135611515565b34801561067957600080fd5b5061040c60043560243515156119a8565b34801561069657600080fd5b506102a1611a87565b3480156106ab57600080fd5b5061040c600160a060020a0360043581169060243516611afa565b3480156106d257600080fd5b506102a1600435611cb0565b3480156106ea57600080fd5b506103d7600435611d33565b34801561070257600080fd5b506103d7600435611db7565b34801561071a57600080fd5b506102a1611e01565b34801561072f57600080fd5b506102a1611e74565b34801561074457600080fd5b50610358611eec565b34801561075957600080fd5b506103d7600435611f60565b34801561077157600080fd5b506102a1611fe4565b34801561078657600080fd5b50610358612078565b34801561079b57600080fd5b5061040c600160a060020a03600435166024356044356120ec565b3480156107c257600080fd5b506102a16123e6565b3480156107d757600080fd5b506107e0612459565b6040805167ffffffffffffffff9485168152928416602084015292168183015290519081900360600190f35b34801561081857600080fd5b506102a1612463565b34801561082d57600080fd5b5061040c6004356124d6565b34801561084557600080fd5b506103d760048035600160a060020a03169060248035916044359182019101356125cd565b34801561087657600080fd5b5061040c60043561263e565b34801561088e57600080fd5b5061040c60043561274d565b3480156108a657600080fd5b5061040c60043561284f565b3480156108be57600080fd5b5061040c60043561295e565b3480156108d657600080fd5b506103586129ff565b3480156108eb57600080fd5b50610358612a73565b34801561090057600080fd5b506102a1612ab3565b34801561091557600080fd5b506103d7600435612b26565b34801561092d57600080fd5b5061040c600435612b71565b34801561094557600080fd5b506104ef612c12565b34801561095a57600080fd5b5061040c600160a060020a0360043516612c84565b34801561097b57600080fd5b506102a1612cbe565b34801561099057600080fd5b506102a1612d31565b3480156109a557600080fd5b506103d7600435612da4565b3480156109bd57600080fd5b506102a1612dcc565b60008060008360405160200180807f6e756d4d657373616765735369676e656400000000000000000000000000000081525060110182600019166000191681526020019150506040516020818303038152906040526040518082805190602001908083835b60208310610a4a5780518252601f199092019160209182019101610a2b565b51815160209384036101000a600019018019909216911617905260408051929094018290039091208652850195909552929092016000205495945050505050565b604080516020808201859052818301849052825180830384018152606092830193849052805192936000939192909182918401908083835b60208310610ae25780518252601f199092019160209182019101610ac3565b6001836020036101000a03801982511681845116808217855250505050505090500191505060405180910390209050610b1a81612e2d565b949350505050565b60006002600060405160200180807f657263363737746f6b656e000000000000000000000000000000000000000000815250600b0190506040516020818303038152906040526040518082805190602001908083835b60208310610b975780518252601f199092019160209182019101610b78565b51815160209384036101000a6000190180199092169116179052604080519290940182900390912086528501959095529290920160002054600160a060020a031693505050505b90565b6000610bf88f8f8f8f8f8f8f8f8f8f8f8f8f612f95565b50610c038583613156565b610c0d6001613228565b610c15610ee0565b9f9e505050505050505050505050505050565b6000610c32611eec565b600160a060020a03163314610c4657600080fd5b610c4e6129ff565b9050610c5a8183613156565b5050565b610c66611eec565b600160a060020a03163314610c7a57600080fd5b610d15610c856129ff565b82604051602001808060008051602061534f833981519152815250600b0190506040516020818303038152906040526040518082805190602001908083835b60208310610ce35780518252601f199092019160209182019101610cc4565b6001836020036101000a03801982511681845116808217855250505050505090500191505060405180910390206132e9565b50565b6000600460008360405160200180807f6669786564417373657473000000000000000000000000000000000000000000815250600b0182600019166000191681526020019150506040516020818303038152906040526040518082805190602001908083835b60208310610d9d5780518252601f199092019160209182019101610d7e565b51815160209384036101000a600019018019909216911617905260408051929094018290039091208652850195909552929092016000205460ff1695945050505050565b60008060008360405160200180807f746f74616c5370656e745065724461790000000000000000000000000000000081525060100182815260200191505060405160208183030381529060405260405180828051906020019080838360208310610a4a5780518252601f199092019160209182019101610a2b565b610e64611eec565b600160a060020a03163314610e7857600080fd5b610d15610e836129ff565b82604051602001808060008051602061536f833981519152815250600801905060405160208183030381529060405260405180828051906020019080838360208310610ce35780518252601f199092019160209182019101610cc4565b60006004600060405160200180807f6973496e697469616c697a656400000000000000000000000000000000000000815250600d0190506040516020818303038152906040526040518082805190602001908083835b60208310610f555780518252601f199092019160209182019101610f36565b51815160209384036101000a600019018019909216911617905260408051929094018290039091208652850195909552929092016000205460ff16949350505050565b610fa0611eec565b600160a060020a03163314610fb457600080fd5b8060008060405160200180807f657865637574696f6e4461696c794c696d69740000000000000000000000000081525060130190506040516020818303038152906040526040518082805190602001908083835b602083106110275780518252601f199092019160209182019101611008565b51815160001960209485036101000a019081169019919091161790526040805194909201849003909320865285830196909652509284016000209490945550815184815291517f9bebf928b90863f24cc31f726a3a7545efd409f1dcf552301b1ee3710da70d3b9350918290030190a150565b62015180420490565b600080600060405160200180807f7265717569726564426c6f636b436f6e6669726d6174696f6e73000000000000815250601a0190506040516020818303038152906040526040518082805190602001908083835b602083106111175780518252601f1990920191602091820191016110f8565b51815160209384036101000a6000190180199092169116179052604080519290940182900390912086528501959095529290920160002054949350505050565b600061116161351a565b905090565b600060405160200180807f6572632d746f2d6572632d636f72650000000000000000000000000000000000815250600f0190506040516020818303038152906040526040518082805190602001908083835b602083106111d75780518252601f1990920191602091820191016111b8565b6001836020036101000a0380198251168184511680821785525050505050509050019150506040518091039020905090565b600080600060405160200180807f657865637574696f6e4461696c794c696d6974000000000000000000000000008152506013019050604051602081830303815290604052604051808280519060200190808383602083106111175780518252601f1990920191602091820191016110f8565b60606112878261351f565b92915050565b60008060008360405160200180807f746f74616c45786563757465645065724461790000000000000000000000000081525060130182815260200191505060405160208183030381529060405260405180828051906020019080838360208310610a4a5780518252601f199092019160209182019101610a2b565b600061131c8b8b8b8b8b8b8b8b8b8b6135a3565b506113276001613228565b61132f610ee0565b90505b9a9950505050505050505050565b6000806000606061134f6129ff565b60408051600481526024810190915260208082018051600160e060020a03167f56b54bae0000000000000000000000000000000000000000000000000000000017815282519395509193509160009182865af26000519350808015610284575b5092949350505050565b6113c1611eec565b600160a060020a031633146113d557600080fd5b600160a060020a03811615806113ef57506113ef81613c7c565b15156113fa57600080fd5b806002600060405160200180807f6665654d616e61676572436f6e7472616374000000000000000000000000000081525060120190506040516020818303038152906040526040518082805190602001908083835b6020831061146e5780518252601f19909201916020918201910161144f565b51815160209384036101000a60001901801990921691161790526040805192909401829003909120865285019590955292909201600020805473ffffffffffffffffffffffffffffffffffffffff1916600160a060020a03959095169490941790935550505050565b60006114ee8e8e8e8e8e8e8e8e8e8e8e8e8e612f95565b506114f96001613228565b611501610ee0565b90505b9d9c50505050505050505050505050565b6000806000806000611525612078565b600160a060020a031663facd743b336040518263ffffffff1660e060020a0281526004018082600160a060020a0316600160a060020a03168152602001915050602060405180830381600087803b15801561157f57600080fd5b505af1158015611593573d6000803e3d6000fd5b505050506040513d60208110156115a957600080fd5b505115156115b657600080fd5b6115ef87878080601f01602080910402602001604051908101604052809392919081815260200183838082843750613c84945050505050565b15156115fa57600080fd5b61166189898080601f0160208091040260200160405190810160405280939291908181526020018383808284375050604080516020601f8f018190048102820181019092528d815294508d93508c9250829150840183828082843750613c98945050505050565b600160a060020a0316331461167557600080fd5b8686604051602001808383808284378201915050925050506040516020818303038152906040526040518082805190602001908083835b602083106116cb5780518252601f1990920191602091820191016116ac565b51815160209384036101000a600019018019909216911617905260408051929094018290038220336c0100000000000000000000000002838301526034808401829052855180850390910181526054909301948590528251909b509195509293508392850191508083835b602083106117555780518252601f199092019160209182019101611736565b6001836020036101000a0380198251168184511680821785525050505050509050019150506040518091039020935061178d856109c6565b925061179883612da4565b156117a257600080fd5b6001928301928311156117c7576117b884611f60565b156117c257600080fd5b611801565b6118018588888080601f01602080910402602001604051908101604052809392919081815260200183838082843750613d58945050505050565b61180c846001613e2f565b604080516020808201889052600019860182840152825180830384018152606090920192839052815191929182918401908083835b602083106118605780518252601f199092019160209182019101611841565b51815160209384036101000a600019018019909216911617905260408051929094018290038220601f8f018290048202830182019094528d82529296506118c19450869350918d91508c908190840183828082843750613f01945050505050565b6118cb8584613f84565b60408051868152905133917fbf06885f40778f5ccfb64497d3f92ce568ddaedb7e2fb4487f72690418cf8e4c919081900360200190a2611909611e74565b905080831061199d576119248561191f85614049565b613f84565b604080513381526020810187905280820183905290517f415557404d88a0c0b8e3b16967cafffc511213fd9c465c16832ee17ed57d72379181900360600190a161199d87878080601f0160208091040260200160405190810160405280939291908181526020018383808284375061406e945050505050565b505050505050505050565b6000806119b3612a73565b600160a060020a031633146119c757600080fd5b6119d084610d18565b156119da57600080fd5b6119e384614155565b9092509050600160a060020a03821615801590611a005750600081115b1515611a0b57600080fd5b611a2b611a2682611a1a612463565b9063ffffffff6142dc16565b6142ee565b8215611a765760408051600160a060020a03841681526020810183905281517f127650bcfb0ba017401abe4931453a405140a8fd36fece67bae2db174d3fdd63929181900390910190a15b611a81846001614360565b50505050565b600080600060405160200180807f6461696c794c696d697400000000000000000000000000000000000000000000815250600a019050604051602081830303815290604052604051808280519060200190808383602083106111175780518252601f1990920191602091820191016110f8565b600080611b05612a73565b600160a060020a03163314611b1957600080fd5b600160a060020a0383161515611b2e57600080fd5b600160a060020a0384161515611b7a57604051600160a060020a03841690303180156108fc02916000818181858888f19350505050158015611b74573d6000803e3d6000fd5b50611a81565b604080517f70a082310000000000000000000000000000000000000000000000000000000081523060048201529051859350600160a060020a038416916370a082319160248083019260209291908290030181600087803b158015611bde57600080fd5b505af1158015611bf2573d6000803e3d6000fd5b505050506040513d6020811015611c0857600080fd5b5051604080517fa9059cbb000000000000000000000000000000000000000000000000000000008152600160a060020a0386811660048301526024820184905291519293509084169163a9059cbb916044808201926020929091908290030181600087803b158015611c7957600080fd5b505af1158015611c8d573d6000803e3d6000fd5b505050506040513d6020811015611ca357600080fd5b50511515611a8157600080fd5b60008060008360405160200180807f6e756d41666669726d6174696f6e735369676e65640000000000000000000000815250601501826000191660001916815260200191505060405160208183030381529060405260405180828051906020019080838360208310610a4a5780518252601f199092019160209182019101610a2b565b6000600460008360405160200180807f61666669726d6174696f6e735369676e65640000000000000000000000000000815250601201826000191660001916815260200191505060405160208183030381529060405260405180828051906020019080838360208310610d9d5780518252601f199092019160209182019101610d7e565b600080611dda83611dce611dc961109a565b61128d565b9063ffffffff6143e316565b905080611de5611209565b10158015611dfa5750611df6611e01565b8311155b9392505050565b600080600060405160200180807f657865637574696f6e4d617850657254780000000000000000000000000000008152506011019050604051602081830303815290604052604051808280519060200190808383602083106111175780518252601f1990920191602091820191016110f8565b6000611e7e612078565b600160a060020a0316638d0680436040518163ffffffff1660e060020a028152600401602060405180830381600087803b158015611ebb57600080fd5b505af1158015611ecf573d6000803e3d6000fd5b505050506040513d6020811015611ee557600080fd5b5051905090565b60006002600060405160200180807f6f776e6572000000000000000000000000000000000000000000000000000000815250600501905060405160208183030381529060405260405180828051906020019080838360208310610b975780518252601f199092019160209182019101610b78565b6000600460008360405160200180807f6d657373616765735369676e6564000000000000000000000000000000000000815250600e01826000191660001916815260200191505060405160208183030381529060405260405180828051906020019080838360208310610d9d5780518252601f199092019160209182019101610d7e565b6000611161604051602001808060008051602061536f83398151915281525060080190506040516020818303038152906040526040518082805190602001908083835b602083106120465780518252601f199092019160209182019101612027565b6001836020036101000a03801982511681845116808217855250505050505090500191505060405180910390206143f2565b60006002600060405160200180807f76616c696461746f72436f6e7472616374000000000000000000000000000000815250601101905060405160208183030381529060405260405180828051906020019080838360208310610b975780518252601f199092019160209182019101610b78565b60008060006120f9612078565b600160a060020a031663facd743b336040518263ffffffff1660e060020a0281526004018082600160a060020a0316600160a060020a03168152602001915050602060405180830381600087803b15801561215357600080fd5b505af1158015612167573d6000803e3d6000fd5b505050506040513d602081101561217d57600080fd5b5051151561218a57600080fd5b612193856145ce565b156123d357604080516c01000000000000000000000000600160a060020a0389160260208083019190915260348201889052605480830188905283518084039091018152607490920192839052815191929182918401908083835b6020831061220d5780518252601f1990920191602091820191016121ee565b51815160209384036101000a600019018019909216911617905260408051929094018290038220336c01000000000000000000000000028383015260348084018290528551808503909101815260549093019485905282519099509195509293508392850191508083835b602083106122975780518252601f199092019160209182019101612278565b6001836020036101000a038019825116818451168082178552505050505050905001915050604051809103902091506122cf82611d33565b156122d957600080fd5b6122e48260016145d9565b6122ed83611cb0565b90506122f881612da4565b1561230257600080fd5b60010161230f838261465c565b60408051858152905133917f5df9cc3eb93d8a9a481857a3b70a8ca966e6b80b25cf0ee2cce180ec5afa80a1919081900360200190a261234d611e74565b81106123ce576123658361236083614049565b61465c565b6000851115612384576123798686866146de565b151561238457600080fd5b60408051600160a060020a03881681526020810187905280820186905290517f6fc115a803b8703117d9a3956c5a15401cb42401f91630f015eb6b043fa762539181900360600190a15b6123de565b6123de868686614843565b505050505050565b600080600060405160200180807f6465706c6f7965644174426c6f636b0000000000000000000000000000000000815250600f019050604051602081830303815290604052604051808280519060200190808383602083106111175780518252601f1990920191602091820191016110f8565b6002806000909192565b600080600060405160200180807f6f75744f664c696d6974416d6f756e74000000000000000000000000000000008152506010019050604051602081830303815290604052604051808280519060200190808383602083106111175780518252601f1990920191602091820191016110f8565b6124de611eec565b600160a060020a031633146124f257600080fd5b6124fa611a87565b8110801561250e575061250b612cbe565b81105b151561251957600080fd5b8060008060405160200180807f6d696e506572547800000000000000000000000000000000000000000000000081525060080190506040516020818303038152906040526040518082805190602001908083835b6020831061258c5780518252601f19909201916020918201910161256d565b51815160209384036101000a600019018019909216911617905260408051929094018290039091208652850195909552929092016000209390935550505050565b6000806125d8610b22565b905033600160a060020a038216146125ef57600080fd5b6125f885612b26565b151561260357600080fd5b61262761260e61109a565b61262287611dce61261d61109a565b610de1565b6148de565b612632818787614958565b50600195945050505050565b612646611eec565b600160a060020a0316331461265a57600080fd5b6000811161266757600080fd5b8060008060405160200180807f7265717569726564426c6f636b436f6e6669726d6174696f6e73000000000000815250601a0190506040516020818303038152906040526040518082805190602001908083835b602083106126da5780518252601f1990920191602091820191016126bb565b51815160001960209485036101000a019081169019919091161790526040805194909201849003909320865285830196909652509284016000209490945550815184815291517f4fb76205cd57c896b21511d2114137d8e901b4ccd659e1a0f97d6306795264fb9350918290030190a150565b612755611eec565b600160a060020a0316331461276957600080fd5b8060008060405160200180807f6461696c794c696d697400000000000000000000000000000000000000000000815250600a0190506040516020818303038152906040526040518082805190602001908083835b602083106127dc5780518252601f1990920191602091820191016127bd565b51815160001960209485036101000a019081169019919091161790526040805194909201849003909320865285830196909652509284016000209490945550815184815291517fad4123ae17c414d9c6d2fec478b402e6b01856cc250fd01fbfd252fda0089d3c9350918290030190a150565b612857611eec565b600160a060020a0316331461286b57600080fd5b6000811161287857600080fd5b8060008060405160200180807f676173507269636500000000000000000000000000000000000000000000000081525060080190506040516020818303038152906040526040518082805190602001908083835b602083106128eb5780518252601f1990920191602091820191016128cc565b51815160001960209485036101000a019081169019919091161790526040805194909201849003909320865285830196909652509284016000209490945550815184815291517f52264b89e0fceafb26e79fd49ef8a366eb6297483bf4035b027f0c99a7ad512e9350918290030190a150565b612966611eec565b600160a060020a0316331461297a57600080fd5b612982611a87565b811061298d57600080fd5b8060008060405160200180807f6d6178506572547800000000000000000000000000000000000000000000000081525060080190506040516020818303038152906040526040518082805190602001908083836020831061258c5780518252601f19909201916020918201910161256d565b60006002600060405160200180807f6665654d616e61676572436f6e74726163740000000000000000000000000000815250601201905060405160208183030381529060405260405180828051906020019080838360208310610b975780518252601f199092019160209182019101610b78565b600030600160a060020a031663025313a26040518163ffffffff1660e060020a028152600401602060405180830381600087803b158015611ebb57600080fd5b600080600060405160200180807f6d696e50657254780000000000000000000000000000000000000000000000008152506008019050604051602081830303815290604052604051808280519060200190808383602083106111175780518252601f1990920191602091820191016110f8565b600080612b3883611dce61261d61109a565b905080612b43611a87565b10158015612b585750612b54612cbe565b8311155b8015611dfa5750612b67612ab3565b9092101592915050565b612b79611eec565b600160a060020a03163314612b8d57600080fd5b612b95611209565b8110612ba057600080fd5b8060008060405160200180807f657865637574696f6e4d6178506572547800000000000000000000000000000081525060110190506040516020818303038152906040526040518082805190602001908083836020831061258c5780518252601f19909201916020918201910161256d565b604080516004815260248101909152602081018051600160e060020a03167ff2ba956100000000000000000000000000000000000000000000000000000000179052600090819081612c626129ff565b9050600460008351602085016000855af26000519350808015610284576113af565b612c8c611eec565b600160a060020a03163314612ca057600080fd5b600160a060020a0381161515612cb557600080fd5b610d15816149c3565b600080600060405160200180807f6d617850657254780000000000000000000000000000000000000000000000008152506008019050604051602081830303815290604052604051808280519060200190808383602083106111175780518252601f1990920191602091820191016110f8565b600080600060405160200180807f67617350726963650000000000000000000000000000000000000000000000008152506008019050604051602081830303815290604052604051808280519060200190808383602083106111175780518252601f1990920191602091820191016110f8565b7f80000000000000000000000000000000000000000000000000000000000000009081161490565b6000611161604051602001808060008051602061534f833981519152815250600b019050604051602081830303815290604052604051808280519060200190808383602083106120465780518252601f199092019160209182019101612027565b6060600360008360405160200180807f7369676e61747572657300000000000000000000000000000000000000000000815250600a0182600019166000191681526020019150506040516020818303038152906040526040518082805190602001908083835b60208310612eb25780518252601f199092019160209182019101612e93565b6001836020036101000a0380198251168184511680821785525050505050509050019150506040518091039020600019166000191681526020019081526020016000208054600181600116156101000203166002900480601f016020809104026020016040519081016040528092919081815260200182805460018160011615610100020316600290048015612f895780601f10612f5e57610100808354040283529160200191612f89565b820191906000526020600020905b815481529060010190602001808311612f6c57829003601f168201915b50505050509050919050565b6000612fa98e8e8e8e8e8e8e8e8e8e6135a3565b50612fb384613c7c565b1515612fbe57600080fd5b836002600060405160200180807f6665654d616e61676572436f6e7472616374000000000000000000000000000081525060120190506040516020818303038152906040526040518082805190602001908083835b602083106130325780518252601f199092019160209182019101613013565b51815160209384036101000a6000190180199092169116179052604080519290940182900390912086528581019690965250928301600020805473ffffffffffffffffffffffffffffffffffffffff1916600160a060020a03969096169590951790945550805160008051602061536f833981519152818401528151600881830301815260289091019182905280516130f594508893889391829184810191908190849084908310610ce35780518252601f199092019160209182019101610cc4565b6115048483604051602001808060008051602061534f833981519152815250600b01905060405160208183030381529060405260405180828051906020019080838360208310610ce35780518252601f199092019160209182019101610cc4565b60408051600160a060020a038381166024808401919091528351808403909101815260449092018352602082018051600160e060020a03167f27a3e16b000000000000000000000000000000000000000000000000000000001781529251825191861693909182919080838360005b838110156131dd5781810151838201526020016131c5565b50505050905090810190601f16801561320a5780820380516001836020036101000a031916815260200191505b50915050600060405180830381855af49150501515610c5a57600080fd5b806004600060405160200180807f6973496e697469616c697a656400000000000000000000000000000000000000815250600d0190506040516020818303038152906040526040518082805190602001908083835b6020831061329c5780518252601f19909201916020918201910161327d565b51815160209384036101000a60001901801990921691161790526040805192909401829003909120865285019590955292909201600020805460ff19169415159490941790935550505050565b6060604051602001808060008051602061536f83398151915281525060080190506040516020818303038152906040526040518082805190602001908083835b602083106133485780518252601f199092019160209182019101613329565b5181516020939093036101000a60001901801990911692169190911790526040519201829003909120851492506133b59150505760408051808201909152601681527f736574466f726569676e4665652875696e74323536290000000000000000000060208201526133ea565b60408051808201909152601381527f736574486f6d654665652875696e74323536290000000000000000000000000060208201525b905083600160a060020a0316818460405160240180828152602001915050604051602081830303815290604052906040518082805190602001908083835b602083106134475780518252601f199092019160209182019101613428565b51815160001960209485036101000a0190811690199190911617905260408051949092018490039093209286018051600160e060020a03167bffffffffffffffffffffffffffffffffffffffffffffffffffffffff19909416939093178352518551909450849350905080838360005b838110156134cf5781810151838201526020016134b7565b50505050905090810190601f1680156134fc5780820380516001836020036101000a031916815260200191505b50915050600060405180830381855af49150501515611a8157600080fd5b606890565b6060600360008360405160200180807f6d65737361676573000000000000000000000000000000000000000000000000815250600801826000191660001916815260200191505060405160208183030381529060405260405180828051906020019080838360208310612eb25780518252601f199092019160209182019101612e93565b60006135ad610ee0565b156135b757600080fd5b600160a060020a038b16158015906135d357506135d38b613c7c565b15156135de57600080fd5b600087116135eb57600080fd5b600086116135f857600080fd5b60008811801561360757508789115b80156136125750888a115b151561361d57600080fd5b83831061362957600080fd5b600160a060020a038216151561363e57600080fd5b8a6002600060405160200180807f76616c696461746f72436f6e747261637400000000000000000000000000000081525060110190506040516020818303038152906040526040518082805190602001908083835b602083106136b25780518252601f199092019160209182019101613693565b51815160209384036101000a60001901801990921691161790526040805192909401829003909120865285810196909652509283016000908120805473ffffffffffffffffffffffffffffffffffffffff1916600160a060020a039790971696909617909555505080517f6465706c6f7965644174426c6f636b0000000000000000000000000000000000818401528151600f818303018152602f90910191829052805143949384939182918401908083835b602083106137845780518252601f199092019160209182019101613765565b51815160209384036101000a6000190180199092169116179052604080519290940182900390912086528581019690965250928301600090812095909555505080517f6461696c794c696d697400000000000000000000000000000000000000000000818401528151600a818303018152602a9091019182905280518e949384939182918401908083835b6020831061382e5780518252601f19909201916020918201910161380f565b51815160209384036101000a6000190180199092169116179052604080519290940182900390912086528581019690965250928301600090812095909555505080517f6d61785065725478000000000000000000000000000000000000000000000000818401528151600881830301815260289091019182905280518d949384939182918401908083835b602083106138d85780518252601f1990920191602091820191016138b9565b51815160209384036101000a6000190180199092169116179052604080519290940182900390912086528581019690965250928301600090812095909555505080517f6d696e5065725478000000000000000000000000000000000000000000000000818401528151600881830301815260289091019182905280518c949384939182918401908083835b602083106139825780518252601f199092019160209182019101613963565b51815160209384036101000a6000190180199092169116179052604080519290940182900390912086528581019690965250928301600090812095909555505080517f6761735072696365000000000000000000000000000000000000000000000000818401528151600881830301815260289091019182905280518b949384939182918401908083835b60208310613a2c5780518252601f199092019160209182019101613a0d565b51815160209384036101000a6000190180199092169116179052604080519290940182900390912086528581019690965250928301600090812095909555505080517f7265717569726564426c6f636b436f6e6669726d6174696f6e73000000000000818401528151601a818303018152603a9091019182905280518a949384939182918401908083835b60208310613ad65780518252601f199092019160209182019101613ab7565b51815160209384036101000a6000190180199092169116179052604080519290940182900390912086528581019690965250928301600090812095909555505080517f657865637574696f6e4461696c794c696d6974000000000000000000000000008184015281516013818303018152603390910191829052805188949384939182918401908083835b60208310613b805780518252601f199092019160209182019101613b61565b51815160209384036101000a6000190180199092169116179052604080519290940182900390912086528581019690965250928301600090812095909555505080517f657865637574696f6e4d617850657254780000000000000000000000000000008184015281516011818303018152603190910191829052805187949384939182918401908083835b60208310613c2a5780518252601f199092019160209182019101613c0b565b51815160209384036101000a600019018019909216911617905260408051929094018290039091208652850195909552929092016000209390935550613c7391508390506149c3565b61133285614a81565b6000903b1190565b6000613c8e61351a565b8251149050919050565b60008060008085516041141515613cae57600080fd5b5050506020830151604084015160608501516001613ccb86614b1b565b60408051600080825260208083018085529490945260ff7f0100000000000000000000000000000000000000000000000000000000000000870416828401526060820188905260808201879052915160a08083019493601f198301938390039091019190865af1158015613d43573d6000803e3d6000fd5b5050604051601f190151979650505050505050565b80600360008460405160200180807f6d6573736167657300000000000000000000000000000000000000000000000081525060080182600019166000191681526020019150506040516020818303038152906040526040518082805190602001908083835b60208310613ddc5780518252601f199092019160209182019101613dbd565b51815160001960209485036101000a01908116901991909116179052604080519490920184900390932086528583019690965250929093016000208451613e2a9591945092019190506152b6565b505050565b80600460008460405160200180807f6d657373616765735369676e6564000000000000000000000000000000000000815250600e0182600019166000191681526020019150506040516020818303038152906040526040518082805190602001908083835b60208310613eb35780518252601f199092019160209182019101613e94565b51815160209384036101000a60001901801990921691161790526040805192909401829003909120865285019590955292909201600020805460ff1916941515949094179093555050505050565b80600360008460405160200180807f7369676e61747572657300000000000000000000000000000000000000000000815250600a01826000191660001916815260200191505060405160208183030381529060405260405180828051906020019080838360208310613ddc5780518252601f199092019160209182019101613dbd565b806000808460405160200180807f6e756d4d657373616765735369676e656400000000000000000000000000000081525060110182600019166000191681526020019150506040516020818303038152906040526040518082805190602001908083835b602083106140075780518252601f199092019160209182019101613fe8565b51815160209384036101000a60001901801990921691161790526040805192909401829003909120865285019590955292909201600020939093555050505050565b7f80000000000000000000000000000000000000000000000000000000000000001790565b60008060008060008061407f6129ff565b9550600160a060020a0386161561414c5761409987614ce0565b8095508196508297508398505050505061413f84600188604051602001808060008051602061536f83398151915281525060080190506040516020818303038152906040526040518082805190602001908083835b6020831061410d5780518252601f1990920191602091820191016140ee565b6001836020036101000a0380198251168184511680821785525050505050509050019150506040518091039020614d26565b905061414c818785614db1565b50505050505050565b600080600260008460405160200180807f74784f75744f664c696d6974526563697069656e74000000000000000000000081525060150182600019166000191681526020019150506040516020818303038152906040526040518082805190602001908083835b602083106141db5780518252601f1990920191602091820191016141bc565b51815160209384036101000a600019018019909216911617905260408051929094018290039091208652858101969096525092830160009081205484517f74784f75744f664c696d697456616c75650000000000000000000000000000008188015260318082018b9052865180830390910181526051909101958690528051600160a060020a0390921698509195869592945091925082918401908083835b602083106142995780518252601f19909201916020918201910161427a565b51815160209384036101000a6000190180199092169116179052604080519290940182900390912086528501959095529290920160002054949694955050505050565b6000828211156142e857fe5b50900390565b8060008060405160200180807f6f75744f664c696d6974416d6f756e740000000000000000000000000000000081525060100190506040516020818303038152906040526040518082805190602001908083836020831061258c5780518252601f19909201916020918201910161256d565b80600460008460405160200180807f6669786564417373657473000000000000000000000000000000000000000000815250600b01826000191660001916815260200191505060405160208183030381529060405260405180828051906020019080838360208310613eb35780518252601f199092019160209182019101613e94565b600082820183811015611dfa57fe5b60008060006060806144026129ff565b9250604051602001808060008051602061536f83398151915281525060080190506040516020818303038152906040526040518082805190602001908083835b602083106144615780518252601f199092019160209182019101614442565b5181516020939093036101000a60001901801990911692169190911790526040519201829003909120891492506144ce9150505760408051808201909152600f81527f676574466f726569676e466565282900000000000000000000000000000000006020820152614503565b60408051808201909152600c81527f676574486f6d654665652829000000000000000000000000000000000000000060208201525b60408051600481526024810191829052825192945091849190819060208401908083835b602083106145465780518252601f199092019160209182019101614527565b51815160209384036101000a600019018019909216911617905260405191909301819003902085830180517bffffffffffffffffffffffffffffffffffffffffffffffffffffffff19909216600160e060020a0390921691909117815285519596509194600094509250839050875af260005194508080156102845750939695505050505050565b600061128782611db7565b80600460008460405160200180807f61666669726d6174696f6e735369676e65640000000000000000000000000000815250601201826000191660001916815260200191505060405160208183030381529060405260405180828051906020019080838360208310613eb35780518252601f199092019160209182019101613e94565b806000808460405160200180807f6e756d41666669726d6174696f6e735369676e656400000000000000000000008152506015018260001916600019168152602001915050604051602081830303815290604052604051808280519060200190808383602083106140075780518252601f199092019160209182019101613fe8565b6000806000806147036146ef61109a565b6146fe88611dce611dc961109a565b614eb6565b85925061470e6129ff565b9150600160a060020a038216156147a25761478283600084604051602001808060008051602061534f833981519152815250600b0190506040516020818303038152906040526040518082805190602001908083836020831061410d5780518252601f1990920191602091820191016140ee565b905061478f818387614f30565b61479f838263ffffffff6142dc16565b92505b6147aa610b22565b600160a060020a03166340c10f1988856040518363ffffffff1660e060020a0281526004018083600160a060020a0316600160a060020a0316815260200182815260200192505050602060405180830381600087803b15801561480c57600080fd5b505af1158015614820573d6000803e3d6000fd5b505050506040513d602081101561483657600080fd5b5051979650505050505050565b60008061484f83614155565b9092509050600160a060020a038216158015614869575080155b151561487457600080fd5b614883611a2685611dce612463565b61488e858585615035565b60408051600160a060020a03871681526020810186905280820185905290517f159c0773f543f1e17d5e78327702770947055eb4e871b529bbc78bc9fde456929181900360600190a15050505050565b806000808460405160200180807f746f74616c5370656e7450657244617900000000000000000000000000000000815250601001828152602001915050604051602081830303815290604052604051808280519060200190808383602083106140075780518252601f199092019160209182019101613fe8565b82600160a060020a03166342966c68826040518263ffffffff1660e060020a02815260040180828152602001915050600060405180830381600087803b1580156149a157600080fd5b505af11580156149b5573d6000803e3d6000fd5b50505050613e2a82826151d6565b7f8be0079c531659141344cd1fd0a4f28419497f9722a3daafe3b4186f6b6457e06149ec611eec565b60408051600160a060020a03928316815291841660208301528051918290030190a1806002600060405160200180807f6f776e657200000000000000000000000000000000000000000000000000000081525060050190506040516020818303038152906040526040518082805190602001908083836020831061146e5780518252601f19909201916020918201910161144f565b600160a060020a03811615801590614a9d5750614a9d81613c7c565b1515614aa857600080fd5b806002600060405160200180807f657263363737746f6b656e000000000000000000000000000000000000000000815250600b0190506040516020818303038152906040526040518082805190602001908083836020831061146e5780518252601f19909201916020918201910161144f565b604080518082018252601a81527f19457468657265756d205369676e6564204d6573736167653a0a000000000000602080830191825283518085018552600381527f313034000000000000000000000000000000000000000000000000000000000081830152935183516000959385938593899391019182918083835b60208310614bb75780518252601f199092019160209182019101614b98565b51815160209384036101000a600019018019909216911617905286519190930192860191508083835b60208310614bff5780518252601f199092019160209182019101614be0565b51815160209384036101000a600019018019909216911617905285519190930192850191508083835b60208310614c475780518252601f199092019160209182019101614c28565b6001836020036101000a03801982511681845116808217855250505050505090500193505050506040516020818303038152906040526040518082805190602001908083835b60208310614cac5780518252601f199092019160209182019101614c8d565b5181516020939093036101000a60001901801990911692169190911790526040519201829003909120979650505050505050565b600080600080614cef85613c84565b1515614cfa57600080fd5b600160a060020a0360148601511693506034850151925060548501519150606885015190509193509193565b60408051602481018690528415156044820152606480820184905282518083039091018152608490910190915260208181018051600160e060020a03167f9862f26f000000000000000000000000000000000000000000000000000000001781528251600093849390929091849182895af26000519250808015610284575091979650505050505050565b6040805160248082018690528251808303909101815260449091018252602081018051600160e060020a03167f59d784640000000000000000000000000000000000000000000000000000000017815291518151600160a060020a03861693829180838360005b83811015614e30578181015183820152602001614e18565b50505050905090810190601f168015614e5d5780820380516001836020036101000a031916815260200191505b50915050600060405180830381855af49150501515614e7b57600080fd5b60408051848152905182917f858abdcd5efcaebb936e8e8516f0cfe9a0ef5157ff99d16cdabb6db625be90d0919081900360200190a2505050565b806000808460405160200180807f746f74616c457865637574656450657244617900000000000000000000000000815250601301828152602001915050604051602081830303815290604052604051808280519060200190808383602083106140075780518252601f199092019160209182019101613fe8565b6040805160248082018690528251808303909101815260449091018252602081018051600160e060020a03167f054d46ec0000000000000000000000000000000000000000000000000000000017815291518151600160a060020a03861693829180838360005b83811015614faf578181015183820152602001614f97565b50505050905090810190601f168015614fdc5780820380516001836020036101000a031916815260200191505b50915050600060405180830381855af49150501515614ffa57600080fd5b60408051848152905182917fa52d3c9cbc541772e4edd92e2e4e2a3865ab73630f25deed8a6c8de41ff0f65c919081900360200190a2505050565b82600260008360405160200180807f74784f75744f664c696d6974526563697069656e74000000000000000000000081525060150182600019166000191681526020019150506040516020818303038152906040526040518082805190602001908083835b602083106150b95780518252601f19909201916020918201910161509a565b51815160209384036101000a60001901801990921691161790526040805192909401829003909120865285810196909652509283016000908120805473ffffffffffffffffffffffffffffffffffffffff1916600160a060020a039790971696909617909555505080517f74784f75744f664c696d697456616c756500000000000000000000000000000081840152603180820186905282518083039091018152605190910191829052805186949384939182918401908083835b602083106151935780518252601f199092019160209182019101615174565b51815160209384036101000a6000190180199092169116179052604080519290940182900390912086528501959095529290920160002093909355505050505050565b806000806151e26129ff565b9150600160a060020a0382161561526b5761525683600084604051602001808060008051602061536f83398151915281525060080190506040516020818303038152906040526040518082805190602001908083836020831061410d5780518252601f1990920191602091820191016140ee565b9050615268838263ffffffff6142dc16565b92505b60408051600160a060020a03871681526020810185905281517f127650bcfb0ba017401abe4931453a405140a8fd36fece67bae2db174d3fdd63929181900390910190a15050505050565b828054600181600116156101000203166002900490600052602060002090601f016020900481019282601f106152f757805160ff1916838001178555615324565b82800160010185558215615324579182015b82811115615324578251825591602001919060010190615309565b50615330929150615334565b5090565b610bde91905b80821115615330576000815560010161533a5600666f726569676e2d666565000000000000000000000000000000000000000000686f6d652d666565000000000000000000000000000000000000000000000000a165627a7a723058209315fb677d26c187b921d0ed5367e492cb3ee3d208e67e67148b4e9f3dff24160029",
  "source": "pragma solidity 0.4.24;\n\nimport \"./HomeBridgeErcToErc.sol\";\n\ncontract POSDAOHomeBridgeErcToErc is HomeBridgeErcToErc {\n\n    function rewardableInitialize (\n        address _validatorContract,\n        uint256 _dailyLimit,\n        uint256 _maxPerTx,\n        uint256 _minPerTx,\n        uint256 _homeGasPrice,\n        uint256 _requiredBlockConfirmations,\n        address _erc677token,\n        uint256 _foreignDailyLimit,\n        uint256 _foreignMaxPerTx,\n        address _owner,\n        address _feeManager,\n        uint256 _homeFee,\n        uint256 _foreignFee,\n        address _blockReward\n    ) public\n    returns(bool)\n    {\n        _rewardableInitialize (\n            _validatorContract,\n            _dailyLimit,\n            _maxPerTx,\n            _minPerTx,\n            _homeGasPrice,\n            _requiredBlockConfirmations,\n            _erc677token,\n            _foreignDailyLimit,\n            _foreignMaxPerTx,\n            _owner,\n            _feeManager,\n            _homeFee,\n            _foreignFee\n        );\n        _setBlockRewardContract(_feeManager, _blockReward);\n        setInitialize(true);\n\n        return isInitialized();\n    }\n\n    function blockRewardContract() public view returns(address) {\n        address blockReward;\n        address feeManager = feeManagerContract();\n        bytes memory callData = abi.encodeWithSignature(\"blockRewardContract()\");\n\n        assembly {\n            let result := callcode(gas, feeManager, 0x0, add(callData, 0x20), mload(callData), 0, 32)\n            blockReward := mload(0)\n\n            switch result\n            case 0 { revert(0, 0) }\n        }\n\n        return blockReward;\n    }\n\n    function setBlockRewardContract(address _blockReward) public onlyOwner {\n        address feeManager = feeManagerContract();\n        _setBlockRewardContract(feeManager, _blockReward);\n    }\n\n    function _setBlockRewardContract(address _feeManager, address _blockReward) internal {\n        require(_feeManager.delegatecall(abi.encodeWithSignature(\"setBlockRewardContract(address)\", _blockReward)));\n    }\n}\n",
  "sourcePath": "/Users/fbranci/iexecdev/vivani/tokenbridge/contracts/contracts/upgradeable_contracts/erc20_to_erc20/POSDAOHomeBridgeErcToErc.sol",
  "compiler": {
    "name": "solc",
    "version": "0.4.24+commit.e67f0147.Emscripten.clang"
  },
  "schemaVersion": "3.0.13",
  "updatedAt": "2019-08-28T14:04:53.299Z",
  "devdoc": {
    "methods": {
      "owner()": {
        "details": "Tells the address of the owner",
        "return": "the address of the owner"
      },
      "transferOwnership(address)": {
        "details": "Allows the current owner to transfer control of the contract to a newOwner.",
        "params": {
          "newOwner": "the address to transfer ownership to."
        }
      }
    }
  },
  "userdoc": {
    "methods": {}
  }
}