{
  "contractName": "RewardableForeignBridgeNativeToErc",
  "abi": [
    {
      "constant": false,
      "inputs": [
        {
          "name": "_feeManager",
          "type": "address"
        }
      ],
      "name": "setFeeManagerContract",
      "outputs": [],
      "payable": false,
      "stateMutability": "nonpayable",
      "type": "function"
    },
    {
      "constant": true,
      "inputs": [],
      "name": "owner",
      "outputs": [
        {
          "name": "",
          "type": "address"
        }
      ],
      "payable": false,
      "stateMutability": "view",
      "type": "function"
    },
    {
      "constant": true,
      "inputs": [],
      "name": "feeManagerContract",
      "outputs": [
        {
          "name": "",
          "type": "address"
        }
      ],
      "payable": false,
      "stateMutability": "view",
      "type": "function"
    },
    {
      "constant": true,
      "inputs": [],
      "name": "getFeeManagerMode",
      "outputs": [
        {
          "name": "",
          "type": "bytes4"
        }
      ],
      "payable": false,
      "stateMutability": "view",
      "type": "function"
    },
    {
      "constant": false,
      "inputs": [
        {
          "name": "newOwner",
          "type": "address"
        }
      ],
      "name": "transferOwnership",
      "outputs": [],
      "payable": false,
      "stateMutability": "nonpayable",
      "type": "function"
    },
    {
      "anonymous": false,
      "inputs": [
        {
          "indexed": false,
          "name": "feeAmount",
          "type": "uint256"
        },
        {
          "indexed": true,
          "name": "transactionHash",
          "type": "bytes32"
        }
      ],
      "name": "FeeDistributedFromAffirmation",
      "type": "event"
    },
    {
      "anonymous": false,
      "inputs": [
        {
          "indexed": false,
          "name": "feeAmount",
          "type": "uint256"
        },
        {
          "indexed": true,
          "name": "transactionHash",
          "type": "bytes32"
        }
      ],
      "name": "FeeDistributedFromSignatures",
      "type": "event"
    },
    {
      "anonymous": false,
      "inputs": [
        {
          "indexed": false,
          "name": "previousOwner",
          "type": "address"
        },
        {
          "indexed": false,
          "name": "newOwner",
          "type": "address"
        }
      ],
      "name": "OwnershipTransferred",
      "type": "event"
    },
    {
      "constant": false,
      "inputs": [
        {
          "name": "_fee",
          "type": "uint256"
        }
      ],
      "name": "setHomeFee",
      "outputs": [],
      "payable": false,
      "stateMutability": "nonpayable",
      "type": "function"
    },
    {
      "constant": true,
      "inputs": [],
      "name": "getHomeFee",
      "outputs": [
        {
          "name": "",
          "type": "uint256"
        }
      ],
      "payable": false,
      "stateMutability": "view",
      "type": "function"
    }
  ],
  "bytecode": "0x608060405234801561001057600080fd5b50610b4f806100206000396000f3006080604052600436106100825763ffffffff7c010000000000000000000000000000000000000000000000000000000060003504166334a9e148811461008757806360756f7c146100a15780638da5cb5b146100c257806394da17cd146100f3578063dbe03a8b1461011a578063f2ba95611461012f578063f2fde38b14610176575b600080fd5b34801561009357600080fd5b5061009f600435610197565b005b3480156100ad57600080fd5b5061009f600160a060020a0360043516610251565b3480156100ce57600080fd5b506100d761036f565b60408051600160a060020a039092168252519081900360200190f35b3480156100ff57600080fd5b5061010861042d565b60408051918252519081900360200190f35b34801561012657600080fd5b506100d76104c6565b34801561013b57600080fd5b5061014461053a565b604080517bffffffffffffffffffffffffffffffffffffffffffffffffffffffff199092168252519081900360200190f35b34801561018257600080fd5b5061009f600160a060020a03600435166105c6565b61019f61036f565b600160a060020a031633146101b357600080fd5b61024e6101be6104c6565b826040516020018080600080516020610b0483398151915281525060080190506040516020818303038152906040526040518082805190602001908083835b6020831061021c5780518252601f1990920191602091820191016101fd565b6001836020036101000a0380198251168184511680821785525050505050509050019150506040518091039020610600565b50565b61025961036f565b600160a060020a0316331461026d57600080fd5b600160a060020a038116158061028757506102878161084c565b151561029257600080fd5b806002600060405160200180807f6665654d616e61676572436f6e7472616374000000000000000000000000000081525060120190506040516020818303038152906040526040518082805190602001908083835b602083106103065780518252601f1990920191602091820191016102e7565b51815160209384036101000a60001901801990921691161790526040805192909401829003909120865285019590955292909201600020805473ffffffffffffffffffffffffffffffffffffffff1916600160a060020a03959095169490941790935550505050565b60006002600060405160200180807f6f776e657200000000000000000000000000000000000000000000000000000081525060050190506040516020818303038152906040526040518082805190602001908083835b602083106103e45780518252601f1990920191602091820191016103c5565b51815160209384036101000a6000190180199092169116179052604080519290940182900390912086528501959095529290920160002054600160a060020a0316949350505050565b60006104c16040516020018080600080516020610b0483398151915281525060080190506040516020818303038152906040526040518082805190602001908083835b6020831061048f5780518252601f199092019160209182019101610470565b6001836020036101000a0380198251168184511680821785525050505050509050019150506040518091039020610854565b905090565b60006002600060405160200180807f6665654d616e61676572436f6e747261637400000000000000000000000000008152506012019050604051602081830303815290604052604051808280519060200190808383602083106103e45780518252601f1990920191602091820191016103c5565b6040805160048152602481019091526020810180517bffffffffffffffffffffffffffffffffffffffffffffffffffffffff167ff2ba95610000000000000000000000000000000000000000000000000000000017905260009081908161059f6104c6565b9050600460008351602085016000855af26000519350808015610082575092949350505050565b6105ce61036f565b600160a060020a031633146105e257600080fd5b600160a060020a03811615156105f757600080fd5b61024e81610a45565b60606040516020018080600080516020610b0483398151915281525060080190506040516020818303038152906040526040518082805190602001908083835b6020831061065f5780518252601f199092019160209182019101610640565b5181516020939093036101000a60001901801990911692169190911790526040519201829003909120851492506106cc9150505760408051808201909152601681527f736574466f726569676e4665652875696e7432353629000000000000000000006020820152610701565b60408051808201909152601381527f736574486f6d654665652875696e74323536290000000000000000000000000060208201525b905083600160a060020a0316818460405160240180828152602001915050604051602081830303815290604052906040518082805190602001908083835b6020831061075e5780518252601f19909201916020918201910161073f565b51815160001960209485036101000a01908116901991909116179052604080519490920184900390932092860180517bffffffffffffffffffffffffffffffffffffffffffffffffffffffff167bffffffffffffffffffffffffffffffffffffffffffffffffffffffff19909416939093178352518551909450849350905080838360005b838110156107fb5781810151838201526020016107e3565b50505050905090810190601f1680156108285780820380516001836020036101000a031916815260200191505b50915050600060405180830381855af4915050151561084657600080fd5b50505050565b6000903b1190565b60008060006060806108646104c6565b92506040516020018080600080516020610b0483398151915281525060080190506040516020818303038152906040526040518082805190602001908083835b602083106108c35780518252601f1990920191602091820191016108a4565b5181516020939093036101000a60001901801990911692169190911790526040519201829003909120891492506109309150505760408051808201909152600f81527f676574466f726569676e466565282900000000000000000000000000000000006020820152610965565b60408051808201909152600c81527f676574486f6d654665652829000000000000000000000000000000000000000060208201525b60408051600481526024810191829052825192945091849190819060208401908083835b602083106109a85780518252601f199092019160209182019101610989565b51815160209384036101000a600019018019909216911617905260405191909301819003902085830180517bffffffffffffffffffffffffffffffffffffffffffffffffffffffff199092167bffffffffffffffffffffffffffffffffffffffffffffffffffffffff90921691909117815285519596509194600094509250839050875af260005194508080156100825750939695505050505050565b7f8be0079c531659141344cd1fd0a4f28419497f9722a3daafe3b4186f6b6457e0610a6e61036f565b60408051600160a060020a03928316815291841660208301528051918290030190a1806002600060405160200180807f6f776e65720000000000000000000000000000000000000000000000000000008152506005019050604051602081830303815290604052604051808280519060200190808383602083106103065780518252601f1990920191602091820191016102e75600686f6d652d666565000000000000000000000000000000000000000000000000a165627a7a723058201e9e6b7dbaca2a54053a55f2f290b0e71f9a3e7b2db07ad602208645222b25a50029",
  "source": "pragma solidity 0.4.24;\n\nimport \"../RewardableBridge.sol\";\n\n\ncontract RewardableForeignBridgeNativeToErc is RewardableBridge {\n\n    function setHomeFee(uint256 _fee) external onlyOwner {\n        _setFee(feeManagerContract(), _fee, HOME_FEE);\n    }\n\n    function getHomeFee() public view returns(uint256) {\n        return _getFee(HOME_FEE);\n    }\n}\n",
  "sourcePath": "/Users/fbranci/iexecdev/vivani/tokenbridge/contracts/contracts/upgradeable_contracts/native_to_erc20/RewardableForeignBridgeNativeToErc.sol",
  "compiler": {
    "name": "solc",
    "version": "0.4.24+commit.e67f0147.Emscripten.clang"
  },
  "schemaVersion": "3.0.13",
  "updatedAt": "2019-08-28T14:04:53.361Z",
  "devdoc": {
    "methods": {
      "owner()": {
        "details": "Tells the address of the owner",
        "return": "the address of the owner"
      },
      "transferOwnership(address)": {
        "details": "Allows the current owner to transfer control of the contract to a newOwner.",
        "params": {
          "newOwner": "the address to transfer ownership to."
        }
      }
    }
  },
  "userdoc": {
    "methods": {}
  }
}