{
  "contractName": "RewardableValidators",
  "abi": [
    {
      "constant": true,
      "inputs": [],
      "name": "validatorCount",
      "outputs": [
        {
          "name": "",
          "type": "uint256"
        }
      ],
      "payable": false,
      "stateMutability": "view",
      "type": "function"
    },
    {
      "constant": true,
      "inputs": [],
      "name": "getBridgeValidatorsInterfacesVersion",
      "outputs": [
        {
          "name": "major",
          "type": "uint64"
        },
        {
          "name": "minor",
          "type": "uint64"
        },
        {
          "name": "patch",
          "type": "uint64"
        }
      ],
      "payable": false,
      "stateMutability": "pure",
      "type": "function"
    },
    {
      "constant": true,
      "inputs": [],
      "name": "isInitialized",
      "outputs": [
        {
          "name": "",
          "type": "bool"
        }
      ],
      "payable": false,
      "stateMutability": "view",
      "type": "function"
    },
    {
      "constant": true,
      "inputs": [],
      "name": "validatorList",
      "outputs": [
        {
          "name": "",
          "type": "address[]"
        }
      ],
      "payable": false,
      "stateMutability": "view",
      "type": "function"
    },
    {
      "constant": false,
      "inputs": [
        {
          "name": "_requiredSignatures",
          "type": "uint256"
        }
      ],
      "name": "setRequiredSignatures",
      "outputs": [],
      "payable": false,
      "stateMutability": "nonpayable",
      "type": "function"
    },
    {
      "constant": true,
      "inputs": [],
      "name": "requiredSignatures",
      "outputs": [
        {
          "name": "",
          "type": "uint256"
        }
      ],
      "payable": false,
      "stateMutability": "view",
      "type": "function"
    },
    {
      "constant": true,
      "inputs": [
        {
          "name": "_address",
          "type": "address"
        }
      ],
      "name": "getNextValidator",
      "outputs": [
        {
          "name": "",
          "type": "address"
        }
      ],
      "payable": false,
      "stateMutability": "view",
      "type": "function"
    },
    {
      "constant": true,
      "inputs": [],
      "name": "owner",
      "outputs": [
        {
          "name": "",
          "type": "address"
        }
      ],
      "payable": false,
      "stateMutability": "view",
      "type": "function"
    },
    {
      "constant": true,
      "inputs": [],
      "name": "deployedAtBlock",
      "outputs": [
        {
          "name": "",
          "type": "uint256"
        }
      ],
      "payable": false,
      "stateMutability": "view",
      "type": "function"
    },
    {
      "constant": true,
      "inputs": [],
      "name": "F_ADDR",
      "outputs": [
        {
          "name": "",
          "type": "address"
        }
      ],
      "payable": false,
      "stateMutability": "view",
      "type": "function"
    },
    {
      "constant": false,
      "inputs": [
        {
          "name": "newOwner",
          "type": "address"
        }
      ],
      "name": "transferOwnership",
      "outputs": [],
      "payable": false,
      "stateMutability": "nonpayable",
      "type": "function"
    },
    {
      "constant": true,
      "inputs": [
        {
          "name": "_validator",
          "type": "address"
        }
      ],
      "name": "isValidator",
      "outputs": [
        {
          "name": "",
          "type": "bool"
        }
      ],
      "payable": false,
      "stateMutability": "view",
      "type": "function"
    },
    {
      "anonymous": false,
      "inputs": [
        {
          "indexed": true,
          "name": "validator",
          "type": "address"
        }
      ],
      "name": "ValidatorAdded",
      "type": "event"
    },
    {
      "anonymous": false,
      "inputs": [
        {
          "indexed": true,
          "name": "validator",
          "type": "address"
        }
      ],
      "name": "ValidatorRemoved",
      "type": "event"
    },
    {
      "anonymous": false,
      "inputs": [
        {
          "indexed": false,
          "name": "requiredSignatures",
          "type": "uint256"
        }
      ],
      "name": "RequiredSignaturesChanged",
      "type": "event"
    },
    {
      "anonymous": false,
      "inputs": [
        {
          "indexed": false,
          "name": "previousOwner",
          "type": "address"
        },
        {
          "indexed": false,
          "name": "newOwner",
          "type": "address"
        }
      ],
      "name": "OwnershipTransferred",
      "type": "event"
    },
    {
      "constant": false,
      "inputs": [
        {
          "name": "_requiredSignatures",
          "type": "uint256"
        },
        {
          "name": "_initialValidators",
          "type": "address[]"
        },
        {
          "name": "_initialRewards",
          "type": "address[]"
        },
        {
          "name": "_owner",
          "type": "address"
        }
      ],
      "name": "initialize",
      "outputs": [
        {
          "name": "",
          "type": "bool"
        }
      ],
      "payable": false,
      "stateMutability": "nonpayable",
      "type": "function"
    },
    {
      "constant": false,
      "inputs": [
        {
          "name": "_validator",
          "type": "address"
        },
        {
          "name": "_reward",
          "type": "address"
        }
      ],
      "name": "addRewardableValidator",
      "outputs": [],
      "payable": false,
      "stateMutability": "nonpayable",
      "type": "function"
    },
    {
      "constant": false,
      "inputs": [
        {
          "name": "_validator",
          "type": "address"
        }
      ],
      "name": "removeValidator",
      "outputs": [],
      "payable": false,
      "stateMutability": "nonpayable",
      "type": "function"
    },
    {
      "constant": true,
      "inputs": [
        {
          "name": "_validator",
          "type": "address"
        }
      ],
      "name": "getValidatorRewardAddress",
      "outputs": [
        {
          "name": "",
          "type": "address"
        }
      ],
      "payable": false,
      "stateMutability": "view",
      "type": "function"
    }
  ],
  "bytecode": "0x608060405234801561001057600080fd5b506117a2806100206000396000f3006080604052600436106100e55763ffffffff7c01000000000000000000000000000000000000000000000000000000006000350416630f43a67781146100ea5780632bda4eee14610111578063392e53cd1461015257806340a141ff1461017b5780635890ef791461019e5780637739ab29146102035780637d2b9cc01461022a57806381b91174146102425780638d0680431461027f5780638d37052c146102945780638da5cb5b146102b55780639a454b99146102ca578063c4c4c7b3146102df578063c794c7691461037d578063f2fde38b14610392578063facd743b146103b3575b600080fd5b3480156100f657600080fd5b506100ff6103d4565b60408051918252519081900360200190f35b34801561011d57600080fd5b50610126610488565b6040805167ffffffffffffffff9485168152928416602084015292168183015290519081900360600190f35b34801561015e57600080fd5b50610167610492565b604080519115158252519081900360200190f35b34801561018757600080fd5b5061019c600160a060020a036004351661054a565b005b3480156101aa57600080fd5b506101b36105e5565b60408051602080825283518183015283519192839290830191858101910280838360005b838110156101ef5781810151838201526020016101d7565b505050509050019250505060405180910390f35b34801561020f57600080fd5b5061019c600160a060020a03600435811690602435166106b3565b34801561023657600080fd5b5061019c60043561072f565b34801561024e57600080fd5b50610263600160a060020a0360043516610851565b60408051600160a060020a039092168252519081900360200190f35b34801561028b57600080fd5b506100ff610939565b3480156102a057600080fd5b50610263600160a060020a03600435166109ac565b3480156102c157600080fd5b50610263610a49565b3480156102d657600080fd5b506100ff610b07565b3480156102eb57600080fd5b5060408051602060046024803582810135848102808701860190975280865261016796843596369660449591949091019291829185019084908082843750506040805187358901803560208181028481018201909552818452989b9a99890198929750908201955093508392508501908490808284375094975050509235600160a060020a03169350610b7a92505050565b34801561038957600080fd5b50610263610fb3565b34801561039e57600080fd5b5061019c600160a060020a0360043516610fbe565b3480156103bf57600080fd5b50610167600160a060020a0360043516610ffb565b600080600060405160200180807f76616c696461746f72436f756e74000000000000000000000000000000000000815250600e0190506040516020818303038152906040526040518082805190602001908083835b602083106104485780518252601f199092019160209182019101610429565b51815160209384036101000a6000190180199092169116179052604080519290940182900390912086528501959095529290920160002054949350505050565b6002806000909192565b60006004600060405160200180807f6973496e697469616c697a656400000000000000000000000000000000000000815250600d0190506040516020818303038152906040526040518082805190602001908083835b602083106105075780518252601f1990920191602091820191016104e8565b51815160209384036101000a600019018019909216911617905260408051929094018290039091208652850195909552929092016000205460ff16949350505050565b610552610a49565b600160a060020a0316331461056657600080fd5b61056f8161102e565b6105ae6040805190810160405280601181526020017f76616c696461746f72735265776172647300000000000000000000000000000081525082611158565b604051600160a060020a038216907fe1434e25d6611e0db941968fdc97811c982ac1602e951637d206f5fdda9dd8f190600090a250565b6060806000806105f36103d4565b60405190808252806020026020018201604052801561061c578160200160208202803883390190505b50925060009150610633600160a060020a036109ac565b9050600160a060020a038116151561064a57600080fd5b600160a060020a03818116146106ab5780838381518110151561066957fe5b600160a060020a03909216602092830290910190910152610689816109ac565b6001909201919050600160a060020a03811615156106a657600080fd5b61064a565b509092915050565b6106bb610a49565b600160a060020a031633146106cf57600080fd5b600160a060020a03811615156106e457600080fd5b6106ed82611274565b6106f78282611317565b604051600160a060020a038316907fe366c1c0452ed8eec96861e9e54141ebff23c9ec89fe27b996b45f5ec388498790600090a25050565b610737610a49565b600160a060020a0316331461074b57600080fd5b806107546103d4565b101561075f57600080fd5b80151561076b57600080fd5b8060008060405160200180807f72657175697265645369676e617475726573000000000000000000000000000081525060120190506040516020818303038152906040526040518082805190602001908083835b602083106107de5780518252601f1990920191602091820191016107bf565b51815160001960209485036101000a019081169019919091161790526040805194909201849003909320865285830196909652509284016000209490945550815184815291517f10dbc913050d3180c3b99f7da91fd514af7cbc9c1bb59a0da5d2bc38f0cf395a9350918290030190a150565b6000600260008360405160200180807f76616c696461746f72735265776172647300000000000000000000000000000081525060110182600160a060020a0316600160a060020a03166c010000000000000000000000000281526014019150506040516020818303038152906040526040518082805190602001908083835b602083106108ef5780518252601f1990920191602091820191016108d0565b51815160209384036101000a6000190180199092169116179052604080519290940182900390912086528501959095529290920160002054600160a060020a031695945050505050565b600080600060405160200180807f72657175697265645369676e61747572657300000000000000000000000000008152506012019050604051602081830303815290604052604051808280519060200190808383602083106104485780518252601f199092019160209182019101610429565b6000600260008360405160200180807f76616c696461746f72734c697374000000000000000000000000000000000000815250600e0182600160a060020a0316600160a060020a03166c01000000000000000000000000028152601401915050604051602081830303815290604052604051808280519060200190808383602083106108ef5780518252601f1990920191602091820191016108d0565b60006002600060405160200180807f6f776e657200000000000000000000000000000000000000000000000000000081525060050190506040516020818303038152906040526040518082805190602001908083835b60208310610abe5780518252601f199092019160209182019101610a9f565b51815160209384036101000a6000190180199092169116179052604080519290940182900390912086528501959095529290920160002054600160a060020a0316949350505050565b600080600060405160200180807f6465706c6f7965644174426c6f636b0000000000000000000000000000000000815250600f019050604051602081830303815290604052604051808280519060200190808383602083106104485780518252601f199092019160209182019101610429565b600080610b85610492565b15610b8f57600080fd5b600160a060020a0383161515610ba457600080fd5b610bad8361141e565b851515610bb957600080fd5b8451861115610bc757600080fd5b845160641015610bd657600080fd5b8351855114610be457600080fd5b5060005b8451811015610dff578451600090869083908110610c0257fe5b90602001906020020151600160a060020a031614158015610c4b57508451600160a060020a0390869083908110610c3557fe5b90602001906020020151600160a060020a031614155b1515610c5657600080fd5b8351600090859083908110610c6757fe5b60209081029091010151600160a060020a03161415610c8557600080fd5b610ca58582815181101515610c9657fe5b90602001906020020151610ffb565b15610caf57600080fd5b801515610d1557610cde600160a060020a038683815181101515610ccf57fe5b90602001906020020151611546565b845160011415610d1057610d108582815181101515610cf957fe5b90602001906020020151600160a060020a03611546565b610d72565b6001855103811415610d5e57610d4d8560018303815181101515610d3557fe5b906020019060200201518683815181101515610ccf57fe5b610d108582815181101515610cf957fe5b610d728560018303815181101515610d3557fe5b610daa8582815181101515610d8357fe5b906020019060200201518583815181101515610d9b57fe5b90602001906020020151611317565b8481815181101515610db857fe5b90602001906020020151600160a060020a03167fe366c1c0452ed8eec96861e9e54141ebff23c9ec89fe27b996b45f5ec388498760405160405180910390a2600101610be8565b610e0985516115e2565b8560008060405160200180807f72657175697265645369676e617475726573000000000000000000000000000081525060120190506040516020818303038152906040526040518082805190602001908083835b60208310610e7c5780518252601f199092019160209182019101610e5d565b51815160209384036101000a6000190180199092169116179052604080519290940182900390912086528581019690965250928301600090812095909555505080517f6465706c6f7965644174426c6f636b0000000000000000000000000000000000818401528151600f818303018152602f90910191829052805143949384939182918401908083835b60208310610f265780518252601f199092019160209182019101610f07565b51815160209384036101000a600019018019909216911617905260408051929094018290039091208652850195909552929092016000209390935550610f6e91506116969050565b6040805187815290517f10dbc913050d3180c3b99f7da91fd514af7cbc9c1bb59a0da5d2bc38f0cf395a9181900360200190a1610fa9610492565b9695505050505050565b600160a060020a0381565b610fc6610a49565b600160a060020a03163314610fda57600080fd5b600160a060020a0381161515610fef57600080fd5b610ff88161141e565b50565b6000600160a060020a03828116148015906110285750600061101c836109ac565b600160a060020a031614155b92915050565b600080600061103b610939565b6110436103d4565b1161104d57600080fd5b61105684610ffb565b151561106157600080fd5b61106a846109ac565b9250600160a060020a03915061107f826109ac565b9050600160a060020a038116151561109657600080fd5b600160a060020a03818116908516146110e8578091506110b5826109ac565b9050600160a060020a03808216148015906110d85750600160a060020a03811615155b15156110e357600080fd5b611096565b6110f28284611546565b6111316040805190810160405280600e81526020017f76616c696461746f72734c69737400000000000000000000000000000000000081525085611158565b61115261114d60016111416103d4565b9063ffffffff61175716565b6115e2565b50505050565b6002600083836040516020018083805190602001908083835b602083106111905780518252601f199092019160209182019101611171565b6001836020036101000a03801982511681845116808217855250505050505090500182600160a060020a0316600160a060020a03166c01000000000000000000000000028152601401925050506040516020818303038152906040526040518082805190602001908083835b6020831061121b5780518252601f1990920191602091820191016111fc565b51815160209384036101000a60001901801990921691161790526040805192909401829003909120865285019590955292909201600020805473ffffffffffffffffffffffffffffffffffffffff191690555050505050565b6000600160a060020a038216158015906112975750600160a060020a0382811614155b15156112a257600080fd5b6112ab82610ffb565b156112b557600080fd5b6112c5600160a060020a036109ac565b9050600160a060020a03811615156112dc57600080fd5b6112e68282611546565b6112f7600160a060020a0383611546565b61131361114d60016113076103d4565b9063ffffffff61176916565b5050565b80600260008460405160200180807f76616c696461746f72735265776172647300000000000000000000000000000081525060110182600160a060020a0316600160a060020a03166c010000000000000000000000000281526014019150506040516020818303038152906040526040518082805190602001908083835b602083106113b45780518252601f199092019160209182019101611395565b51815160209384036101000a60001901801990921691161790526040805192909401829003909120865285019590955292909201600020805473ffffffffffffffffffffffffffffffffffffffff1916600160a060020a0395909516949094179093555050505050565b7f8be0079c531659141344cd1fd0a4f28419497f9722a3daafe3b4186f6b6457e0611447610a49565b60408051600160a060020a03928316815291841660208301528051918290030190a1806002600060405160200180807f6f776e657200000000000000000000000000000000000000000000000000000081525060050190506040516020818303038152906040526040518082805190602001908083835b602083106114dd5780518252601f1990920191602091820191016114be565b51815160209384036101000a60001901801990921691161790526040805192909401829003909120865285019590955292909201600020805473ffffffffffffffffffffffffffffffffffffffff1916600160a060020a03959095169490941790935550505050565b80600260008460405160200180807f76616c696461746f72734c697374000000000000000000000000000000000000815250600e0182600160a060020a0316600160a060020a03166c01000000000000000000000000028152601401915050604051602081830303815290604052604051808280519060200190808383602083106113b45780518252601f199092019160209182019101611395565b8060008060405160200180807f76616c696461746f72436f756e74000000000000000000000000000000000000815250600e0190506040516020818303038152906040526040518082805190602001908083835b602083106116555780518252601f199092019160209182019101611636565b51815160209384036101000a600019018019909216911617905260408051929094018290039091208652850195909552929092016000209390935550505050565b60016004600060405160200180807f6973496e697469616c697a656400000000000000000000000000000000000000815250600d0190506040516020818303038152906040526040518082805190602001908083835b6020831061170b5780518252601f1990920191602091820191016116ec565b51815160209384036101000a60001901801990921691161790526040805192909401829003909120865285019590955292909201600020805460ff191694151594909417909355505050565b60008282111561176357fe5b50900390565b8181018281101561102857fe00a165627a7a72305820715e21fc22fd40ad1a396e70c07aadf1476b5a42c7128c757a1c00422a6b6e730029",
  "source": "pragma solidity 0.4.24;\n\nimport \"./BaseBridgeValidators.sol\";\n\ncontract RewardableValidators is BaseBridgeValidators {\n    function initialize(\n        uint256 _requiredSignatures,\n        address[] _initialValidators,\n        address[] _initialRewards,\n        address _owner\n    ) public returns (bool) {\n        require(!isInitialized());\n        require(_owner != address(0));\n        setOwner(_owner);\n        require(_requiredSignatures != 0);\n        require(_initialValidators.length >= _requiredSignatures);\n        require(_initialValidators.length <= MAX_VALIDATORS);\n        require(_initialValidators.length == _initialRewards.length);\n\n        for (uint256 i = 0; i < _initialValidators.length; i++) {\n            require(_initialValidators[i] != address(0) && _initialValidators[i] != F_ADDR);\n            require(_initialRewards[i] != address(0));\n            require(!isValidator(_initialValidators[i]));\n\n            if (i == 0) {\n                setNextValidator(F_ADDR, _initialValidators[i]);\n                if (_initialValidators.length == 1) {\n                    setNextValidator(_initialValidators[i], F_ADDR);\n                }\n            } else if (i == _initialValidators.length - 1) {\n                setNextValidator(_initialValidators[i - 1], _initialValidators[i]);\n                setNextValidator(_initialValidators[i], F_ADDR);\n            } else {\n                setNextValidator(_initialValidators[i - 1], _initialValidators[i]);\n            }\n\n            setValidatorRewardAddress(_initialValidators[i], _initialRewards[i]);\n            emit ValidatorAdded(_initialValidators[i]);\n        }\n\n        setValidatorCount(_initialValidators.length);\n        uintStorage[REQUIRED_SIGNATURES] = _requiredSignatures;\n        uintStorage[DEPLOYED_AT_BLOCK] = block.number;\n        setInitialize();\n        emit RequiredSignaturesChanged(_requiredSignatures);\n\n        return isInitialized();\n    }\n\n    function addRewardableValidator(address _validator, address _reward) external onlyOwner {\n        require(_reward != address(0));\n        _addValidator(_validator);\n        setValidatorRewardAddress(_validator, _reward);\n        emit ValidatorAdded(_validator);\n    }\n\n    function removeValidator(address _validator) external onlyOwner {\n        _removeValidator(_validator);\n        deleteItemFromAddressStorage(\"validatorsRewards\", _validator);\n        emit ValidatorRemoved(_validator);\n    }\n\n    function getValidatorRewardAddress(address _validator) external view returns (address) {\n        return addressStorage[keccak256(abi.encodePacked(\"validatorsRewards\", _validator))];\n    }\n\n    function setValidatorRewardAddress(address _validator, address _reward) internal {\n        addressStorage[keccak256(abi.encodePacked(\"validatorsRewards\", _validator))] = _reward;\n    }\n}\n",
  "sourcePath": "/mono/contracts/contracts/upgradeable_contracts/RewardableValidators.sol",
  "compiler": {
    "name": "solc",
    "version": "0.4.24+commit.e67f0147.Emscripten.clang"
  },
  "schemaVersion": "3.0.11",
  "updatedAt": "2019-09-03T09:43:49.666Z",
  "devdoc": {
    "methods": {
      "owner()": {
        "details": "Tells the address of the owner",
        "return": "the address of the owner"
      },
      "transferOwnership(address)": {
        "details": "Allows the current owner to transfer control of the contract to a newOwner.",
        "params": {
          "newOwner": "the address to transfer ownership to."
        }
      }
    }
  },
  "userdoc": {
    "methods": {}
  }
}