{
  "contractName": "RewardableHomeBridgeErcToErc",
  "abi": [
    {
      "constant": false,
      "inputs": [
        {
          "name": "_feeManager",
          "type": "address"
        }
      ],
      "name": "setFeeManagerContract",
      "outputs": [],
      "payable": false,
      "stateMutability": "nonpayable",
      "type": "function"
    },
    {
      "constant": true,
      "inputs": [],
      "name": "owner",
      "outputs": [
        {
          "name": "",
          "type": "address"
        }
      ],
      "payable": false,
      "stateMutability": "view",
      "type": "function"
    },
    {
      "constant": true,
      "inputs": [],
      "name": "feeManagerContract",
      "outputs": [
        {
          "name": "",
          "type": "address"
        }
      ],
      "payable": false,
      "stateMutability": "view",
      "type": "function"
    },
    {
      "constant": true,
      "inputs": [],
      "name": "getFeeManagerMode",
      "outputs": [
        {
          "name": "",
          "type": "bytes4"
        }
      ],
      "payable": false,
      "stateMutability": "view",
      "type": "function"
    },
    {
      "constant": false,
      "inputs": [
        {
          "name": "newOwner",
          "type": "address"
        }
      ],
      "name": "transferOwnership",
      "outputs": [],
      "payable": false,
      "stateMutability": "nonpayable",
      "type": "function"
    },
    {
      "anonymous": false,
      "inputs": [
        {
          "indexed": false,
          "name": "feeAmount",
          "type": "uint256"
        },
        {
          "indexed": true,
          "name": "transactionHash",
          "type": "bytes32"
        }
      ],
      "name": "FeeDistributedFromAffirmation",
      "type": "event"
    },
    {
      "anonymous": false,
      "inputs": [
        {
          "indexed": false,
          "name": "feeAmount",
          "type": "uint256"
        },
        {
          "indexed": true,
          "name": "transactionHash",
          "type": "bytes32"
        }
      ],
      "name": "FeeDistributedFromSignatures",
      "type": "event"
    },
    {
      "anonymous": false,
      "inputs": [
        {
          "indexed": false,
          "name": "previousOwner",
          "type": "address"
        },
        {
          "indexed": false,
          "name": "newOwner",
          "type": "address"
        }
      ],
      "name": "OwnershipTransferred",
      "type": "event"
    },
    {
      "constant": false,
      "inputs": [
        {
          "name": "_fee",
          "type": "uint256"
        }
      ],
      "name": "setHomeFee",
      "outputs": [],
      "payable": false,
      "stateMutability": "nonpayable",
      "type": "function"
    },
    {
      "constant": false,
      "inputs": [
        {
          "name": "_fee",
          "type": "uint256"
        }
      ],
      "name": "setForeignFee",
      "outputs": [],
      "payable": false,
      "stateMutability": "nonpayable",
      "type": "function"
    },
    {
      "constant": true,
      "inputs": [],
      "name": "getHomeFee",
      "outputs": [
        {
          "name": "",
          "type": "uint256"
        }
      ],
      "payable": false,
      "stateMutability": "view",
      "type": "function"
    },
    {
      "constant": true,
      "inputs": [],
      "name": "getForeignFee",
      "outputs": [
        {
          "name": "",
          "type": "uint256"
        }
      ],
      "payable": false,
      "stateMutability": "view",
      "type": "function"
    }
  ],
  "bytecode": "0x608060405234801561001057600080fd5b50610c9b806100206000396000f3006080604052600436106100985763ffffffff7c0100000000000000000000000000000000000000000000000000000000600035041663286c4066811461009d57806334a9e148146100b757806360756f7c146100cf5780638da5cb5b146100f057806394da17cd14610121578063dbe03a8b14610148578063f2ba95611461015d578063f2fde38b146101a4578063ffd66196146101c5575b600080fd5b3480156100a957600080fd5b506100b56004356101da565b005b3480156100c357600080fd5b506100b56004356102a6565b3480156100db57600080fd5b506100b5600160a060020a036004351661032a565b3480156100fc57600080fd5b50610105610448565b60408051600160a060020a039092168252519081900360200190f35b34801561012d57600080fd5b50610136610506565b60408051918252519081900360200190f35b34801561015457600080fd5b5061010561059f565b34801561016957600080fd5b50610172610613565b604080517bffffffffffffffffffffffffffffffffffffffffffffffffffffffff199092168252519081900360200190f35b3480156101b057600080fd5b506100b5600160a060020a036004351661069f565b3480156101d157600080fd5b506101366106d9565b6101e2610448565b600160a060020a031633146101f657600080fd5b6102a361020161059f565b8260405160200180807f666f726569676e2d666565000000000000000000000000000000000000000000815250600b0190506040516020818303038152906040526040518082805190602001908083835b602083106102715780518252601f199092019160209182019101610252565b6001836020036101000a038019825116818451168082178552505050505050905001915050604051809103902061074c565b50565b6102ae610448565b600160a060020a031633146102c257600080fd5b6102a36102cd61059f565b826040516020018080600080516020610c508339815191528152506008019050604051602081830303815290604052604051808280519060200190808383602083106102715780518252601f199092019160209182019101610252565b610332610448565b600160a060020a0316331461034657600080fd5b600160a060020a0381161580610360575061036081610998565b151561036b57600080fd5b806002600060405160200180807f6665654d616e61676572436f6e7472616374000000000000000000000000000081525060120190506040516020818303038152906040526040518082805190602001908083835b602083106103df5780518252601f1990920191602091820191016103c0565b51815160209384036101000a60001901801990921691161790526040805192909401829003909120865285019590955292909201600020805473ffffffffffffffffffffffffffffffffffffffff1916600160a060020a03959095169490941790935550505050565b60006002600060405160200180807f6f776e657200000000000000000000000000000000000000000000000000000081525060050190506040516020818303038152906040526040518082805190602001908083835b602083106104bd5780518252601f19909201916020918201910161049e565b51815160209384036101000a6000190180199092169116179052604080519290940182900390912086528501959095529290920160002054600160a060020a0316949350505050565b600061059a6040516020018080600080516020610c5083398151915281525060080190506040516020818303038152906040526040518082805190602001908083835b602083106105685780518252601f199092019160209182019101610549565b6001836020036101000a03801982511681845116808217855250505050505090500191505060405180910390206109a0565b905090565b60006002600060405160200180807f6665654d616e61676572436f6e747261637400000000000000000000000000008152506012019050604051602081830303815290604052604051808280519060200190808383602083106104bd5780518252601f19909201916020918201910161049e565b6040805160048152602481019091526020810180517bffffffffffffffffffffffffffffffffffffffffffffffffffffffff167ff2ba95610000000000000000000000000000000000000000000000000000000017905260009081908161067861059f565b9050600460008351602085016000855af26000519350808015610098575092949350505050565b6106a7610448565b600160a060020a031633146106bb57600080fd5b600160a060020a03811615156106d057600080fd5b6102a381610b91565b600061059a60405160200180807f666f726569676e2d666565000000000000000000000000000000000000000000815250600b019050604051602081830303815290604052604051808280519060200190808383602083106105685780518252601f199092019160209182019101610549565b60606040516020018080600080516020610c5083398151915281525060080190506040516020818303038152906040526040518082805190602001908083835b602083106107ab5780518252601f19909201916020918201910161078c565b5181516020939093036101000a60001901801990911692169190911790526040519201829003909120851492506108189150505760408051808201909152601681527f736574466f726569676e4665652875696e743235362900000000000000000000602082015261084d565b60408051808201909152601381527f736574486f6d654665652875696e74323536290000000000000000000000000060208201525b905083600160a060020a0316818460405160240180828152602001915050604051602081830303815290604052906040518082805190602001908083835b602083106108aa5780518252601f19909201916020918201910161088b565b51815160001960209485036101000a01908116901991909116179052604080519490920184900390932092860180517bffffffffffffffffffffffffffffffffffffffffffffffffffffffff167bffffffffffffffffffffffffffffffffffffffffffffffffffffffff19909416939093178352518551909450849350905080838360005b8381101561094757818101518382015260200161092f565b50505050905090810190601f1680156109745780820380516001836020036101000a031916815260200191505b50915050600060405180830381855af4915050151561099257600080fd5b50505050565b6000903b1190565b60008060006060806109b061059f565b92506040516020018080600080516020610c5083398151915281525060080190506040516020818303038152906040526040518082805190602001908083835b60208310610a0f5780518252601f1990920191602091820191016109f0565b5181516020939093036101000a6000190180199091169216919091179052604051920182900390912089149250610a7c9150505760408051808201909152600f81527f676574466f726569676e466565282900000000000000000000000000000000006020820152610ab1565b60408051808201909152600c81527f676574486f6d654665652829000000000000000000000000000000000000000060208201525b60408051600481526024810191829052825192945091849190819060208401908083835b60208310610af45780518252601f199092019160209182019101610ad5565b51815160209384036101000a600019018019909216911617905260405191909301819003902085830180517bffffffffffffffffffffffffffffffffffffffffffffffffffffffff199092167bffffffffffffffffffffffffffffffffffffffffffffffffffffffff90921691909117815285519596509194600094509250839050875af260005194508080156100985750939695505050505050565b7f8be0079c531659141344cd1fd0a4f28419497f9722a3daafe3b4186f6b6457e0610bba610448565b60408051600160a060020a03928316815291841660208301528051918290030190a1806002600060405160200180807f6f776e65720000000000000000000000000000000000000000000000000000008152506005019050604051602081830303815290604052604051808280519060200190808383602083106103df5780518252601f1990920191602091820191016103c05600686f6d652d666565000000000000000000000000000000000000000000000000a165627a7a72305820a1b1ab92a7b459730c875cff24570aeb2544ec3bcbd9e64ad74a31ed69fa3d590029",
  "source": "pragma solidity 0.4.24;\n\nimport \"../RewardableBridge.sol\";\n\n\ncontract RewardableHomeBridgeErcToErc is RewardableBridge {\n\n    function setHomeFee(uint256 _fee) external onlyOwner {\n        _setFee(feeManagerContract(), _fee, HOME_FEE);\n    }\n\n    function setForeignFee(uint256 _fee) external onlyOwner {\n        _setFee(feeManagerContract(), _fee, FOREIGN_FEE);\n    }\n\n    function getHomeFee() public view returns(uint256) {\n        return _getFee(HOME_FEE);\n    }\n\n    function getForeignFee() public view returns(uint256) {\n        return _getFee(FOREIGN_FEE);\n    }\n}\n",
  "sourcePath": "/Users/fbranci/iexecdev/vivani/tokenbridge/contracts/contracts/upgradeable_contracts/erc20_to_erc20/RewardableHomeBridgeErcToErc.sol",
  "compiler": {
    "name": "solc",
    "version": "0.4.24+commit.e67f0147.Emscripten.clang"
  },
  "schemaVersion": "3.0.13",
  "updatedAt": "2019-08-28T14:04:53.302Z",
  "devdoc": {
    "methods": {
      "owner()": {
        "details": "Tells the address of the owner",
        "return": "the address of the owner"
      },
      "transferOwnership(address)": {
        "details": "Allows the current owner to transfer control of the contract to a newOwner.",
        "params": {
          "newOwner": "the address to transfer ownership to."
        }
      }
    }
  },
  "userdoc": {
    "methods": {}
  }
}