{
  "contractName": "RewardableHomeBridgeErcToNative",
  "abi": [
    {
      "constant": false,
      "inputs": [
        {
          "name": "_feeManager",
          "type": "address"
        }
      ],
      "name": "setFeeManagerContract",
      "outputs": [],
      "payable": false,
      "stateMutability": "nonpayable",
      "type": "function"
    },
    {
      "constant": true,
      "inputs": [],
      "name": "owner",
      "outputs": [
        {
          "name": "",
          "type": "address"
        }
      ],
      "payable": false,
      "stateMutability": "view",
      "type": "function"
    },
    {
      "constant": true,
      "inputs": [],
      "name": "feeManagerContract",
      "outputs": [
        {
          "name": "",
          "type": "address"
        }
      ],
      "payable": false,
      "stateMutability": "view",
      "type": "function"
    },
    {
      "constant": true,
      "inputs": [],
      "name": "getFeeManagerMode",
      "outputs": [
        {
          "name": "",
          "type": "bytes4"
        }
      ],
      "payable": false,
      "stateMutability": "view",
      "type": "function"
    },
    {
      "constant": false,
      "inputs": [
        {
          "name": "newOwner",
          "type": "address"
        }
      ],
      "name": "transferOwnership",
      "outputs": [],
      "payable": false,
      "stateMutability": "nonpayable",
      "type": "function"
    },
    {
      "anonymous": false,
      "inputs": [
        {
          "indexed": false,
          "name": "feeAmount",
          "type": "uint256"
        },
        {
          "indexed": true,
          "name": "transactionHash",
          "type": "bytes32"
        }
      ],
      "name": "FeeDistributedFromAffirmation",
      "type": "event"
    },
    {
      "anonymous": false,
      "inputs": [
        {
          "indexed": false,
          "name": "feeAmount",
          "type": "uint256"
        },
        {
          "indexed": true,
          "name": "transactionHash",
          "type": "bytes32"
        }
      ],
      "name": "FeeDistributedFromSignatures",
      "type": "event"
    },
    {
      "anonymous": false,
      "inputs": [
        {
          "indexed": false,
          "name": "previousOwner",
          "type": "address"
        },
        {
          "indexed": false,
          "name": "newOwner",
          "type": "address"
        }
      ],
      "name": "OwnershipTransferred",
      "type": "event"
    },
    {
      "constant": false,
      "inputs": [
        {
          "name": "_fee",
          "type": "uint256"
        }
      ],
      "name": "setHomeFee",
      "outputs": [],
      "payable": false,
      "stateMutability": "nonpayable",
      "type": "function"
    },
    {
      "constant": false,
      "inputs": [
        {
          "name": "_fee",
          "type": "uint256"
        }
      ],
      "name": "setForeignFee",
      "outputs": [],
      "payable": false,
      "stateMutability": "nonpayable",
      "type": "function"
    },
    {
      "constant": true,
      "inputs": [],
      "name": "getHomeFee",
      "outputs": [
        {
          "name": "",
          "type": "uint256"
        }
      ],
      "payable": false,
      "stateMutability": "view",
      "type": "function"
    },
    {
      "constant": true,
      "inputs": [],
      "name": "getForeignFee",
      "outputs": [
        {
          "name": "",
          "type": "uint256"
        }
      ],
      "payable": false,
      "stateMutability": "view",
      "type": "function"
    },
    {
      "constant": true,
      "inputs": [
        {
          "name": "_value",
          "type": "uint256"
        }
      ],
      "name": "getAmountToBurn",
      "outputs": [
        {
          "name": "",
          "type": "uint256"
        }
      ],
      "payable": false,
      "stateMutability": "view",
      "type": "function"
    }
  ],
  "bytecode": "0x608060405234801561001057600080fd5b50610d06806100206000396000f3006080604052600436106100a35763ffffffff7c0100000000000000000000000000000000000000000000000000000000600035041663286c406681146100a857806334a9e148146100c257806360756f7c146100da5780638da5cb5b146100fb578063916850e91461012c57806394da17cd14610156578063dbe03a8b1461016b578063f2ba956114610180578063f2fde38b146101c7578063ffd66196146101e8575b600080fd5b3480156100b457600080fd5b506100c06004356101fd565b005b3480156100ce57600080fd5b506100c06004356102c9565b3480156100e657600080fd5b506100c0600160a060020a036004351661034d565b34801561010757600080fd5b5061011061046b565b60408051600160a060020a039092168252519081900360200190f35b34801561013857600080fd5b50610144600435610529565b60408051918252519081900360200190f35b34801561016257600080fd5b506101446105b0565b34801561017757600080fd5b50610110610649565b34801561018c57600080fd5b506101956106bd565b604080517bffffffffffffffffffffffffffffffffffffffffffffffffffffffff199092168252519081900360200190f35b3480156101d357600080fd5b506100c0600160a060020a0360043516610734565b3480156101f457600080fd5b5061014461076e565b61020561046b565b600160a060020a0316331461021957600080fd5b6102c6610224610649565b8260405160200180807f666f726569676e2d666565000000000000000000000000000000000000000000815250600b0190506040516020818303038152906040526040518082805190602001908083835b602083106102945780518252601f199092019160209182019101610275565b6001836020036101000a03801982511681845116808217855250505050505090500191505060405180910390206107e1565b50565b6102d161046b565b600160a060020a031633146102e557600080fd5b6102c66102f0610649565b826040516020018080600080516020610cbb8339815191528152506008019050604051602081830303815290604052604051808280519060200190808383602083106102945780518252601f199092019160209182019101610275565b61035561046b565b600160a060020a0316331461036957600080fd5b600160a060020a0381161580610383575061038381610a18565b151561038e57600080fd5b806002600060405160200180807f6665654d616e61676572436f6e7472616374000000000000000000000000000081525060120190506040516020818303038152906040526040518082805190602001908083835b602083106104025780518252601f1990920191602091820191016103e3565b51815160209384036101000a60001901801990921691161790526040805192909401829003909120865285019590955292909201600020805473ffffffffffffffffffffffffffffffffffffffff1916600160a060020a03959095169490941790935550505050565b60006002600060405160200180807f6f776e657200000000000000000000000000000000000000000000000000000081525060050190506040516020818303038152906040526040518082805190602001908083835b602083106104e05780518252601f1990920191602091820191016104c1565b51815160209384036101000a6000190180199092169116179052604080519290940182900390912086528501959095529290920160002054600160a060020a0316949350505050565b604080516024808201849052825180830390910181526044909101909152602081018051600160e060020a03167f916850e900000000000000000000000000000000000000000000000000000000179052600090819081610588610649565b9050602060008351602085016000855af260005193508080156100a357509295945050505050565b60006106446040516020018080600080516020610cbb83398151915281525060080190506040516020818303038152906040526040518082805190602001908083835b602083106106125780518252601f1990920191602091820191016105f3565b6001836020036101000a0380198251168184511680821785525050505050509050019150506040518091039020610a20565b905090565b60006002600060405160200180807f6665654d616e61676572436f6e747261637400000000000000000000000000008152506012019050604051602081830303815290604052604051808280519060200190808383602083106104e05780518252601f1990920191602091820191016104c1565b604080516004815260248101909152602081018051600160e060020a03167ff2ba95610000000000000000000000000000000000000000000000000000000017905260009081908161070d610649565b9050600460008351602085016000855af260005193508080156100a3575092949350505050565b61073c61046b565b600160a060020a0316331461075057600080fd5b600160a060020a038116151561076557600080fd5b6102c681610bfc565b600061064460405160200180807f666f726569676e2d666565000000000000000000000000000000000000000000815250600b019050604051602081830303815290604052604051808280519060200190808383602083106106125780518252601f1990920191602091820191016105f3565b60606040516020018080600080516020610cbb83398151915281525060080190506040516020818303038152906040526040518082805190602001908083835b602083106108405780518252601f199092019160209182019101610821565b5181516020939093036101000a60001901801990911692169190911790526040519201829003909120851492506108ad9150505760408051808201909152601681527f736574466f726569676e4665652875696e74323536290000000000000000000060208201526108e2565b60408051808201909152601381527f736574486f6d654665652875696e74323536290000000000000000000000000060208201525b905083600160a060020a0316818460405160240180828152602001915050604051602081830303815290604052906040518082805190602001908083835b6020831061093f5780518252601f199092019160209182019101610920565b51815160001960209485036101000a0190811690199190911617905260408051949092018490039093209286018051600160e060020a03167bffffffffffffffffffffffffffffffffffffffffffffffffffffffff19909416939093178352518551909450849350905080838360005b838110156109c75781810151838201526020016109af565b50505050905090810190601f1680156109f45780820380516001836020036101000a031916815260200191505b50915050600060405180830381855af49150501515610a1257600080fd5b50505050565b6000903b1190565b6000806000606080610a30610649565b92506040516020018080600080516020610cbb83398151915281525060080190506040516020818303038152906040526040518082805190602001908083835b60208310610a8f5780518252601f199092019160209182019101610a70565b5181516020939093036101000a6000190180199091169216919091179052604051920182900390912089149250610afc9150505760408051808201909152600f81527f676574466f726569676e466565282900000000000000000000000000000000006020820152610b31565b60408051808201909152600c81527f676574486f6d654665652829000000000000000000000000000000000000000060208201525b60408051600481526024810191829052825192945091849190819060208401908083835b60208310610b745780518252601f199092019160209182019101610b55565b51815160209384036101000a600019018019909216911617905260405191909301819003902085830180517bffffffffffffffffffffffffffffffffffffffffffffffffffffffff19909216600160e060020a0390921691909117815285519596509194600094509250839050875af260005194508080156100a35750939695505050505050565b7f8be0079c531659141344cd1fd0a4f28419497f9722a3daafe3b4186f6b6457e0610c2561046b565b60408051600160a060020a03928316815291841660208301528051918290030190a1806002600060405160200180807f6f776e65720000000000000000000000000000000000000000000000000000008152506005019050604051602081830303815290604052604051808280519060200190808383602083106104025780518252601f1990920191602091820191016103e35600686f6d652d666565000000000000000000000000000000000000000000000000a165627a7a72305820146e7a0e52677d2ae5913a55c5ff53c970a19e0bcff3ae9a8f911d0b251c2ce70029",
  "source": "pragma solidity 0.4.24;\n\nimport \"../RewardableBridge.sol\";\n\n\ncontract RewardableHomeBridgeErcToNative is RewardableBridge {\n\n    function setHomeFee(uint256 _fee) external onlyOwner {\n        _setFee(feeManagerContract(), _fee, HOME_FEE);\n    }\n\n    function setForeignFee(uint256 _fee) external onlyOwner {\n        _setFee(feeManagerContract(), _fee, FOREIGN_FEE);\n    }\n\n    function getHomeFee() public view returns(uint256) {\n        return _getFee(HOME_FEE);\n    }\n\n    function getForeignFee() public view returns(uint256) {\n        return _getFee(FOREIGN_FEE);\n    }\n\n    function getAmountToBurn(uint256 _value) public view returns(uint256) {\n        uint256 amount;\n        bytes memory callData = abi.encodeWithSignature(\"getAmountToBurn(uint256)\", _value);\n        address feeManager = feeManagerContract();\n        assembly {\n            let result := callcode(gas, feeManager, 0x0, add(callData, 0x20), mload(callData), 0, 32)\n            amount := mload(0)\n\n            switch result\n            case 0 { revert(0, 0) }\n        }\n        return amount;\n    }\n}\n",
  "sourcePath": "/Users/fbranci/iexecdev/vivani/tokenbridge/contracts/contracts/upgradeable_contracts/erc20_to_native/RewardableHomeBridgeErcToNative.sol",
  "compiler": {
    "name": "solc",
    "version": "0.4.24+commit.e67f0147.Emscripten.clang"
  },
  "schemaVersion": "3.0.13",
  "updatedAt": "2019-08-28T14:04:53.326Z",
  "devdoc": {
    "methods": {
      "owner()": {
        "details": "Tells the address of the owner",
        "return": "the address of the owner"
      },
      "transferOwnership(address)": {
        "details": "Allows the current owner to transfer control of the contract to a newOwner.",
        "params": {
          "newOwner": "the address to transfer ownership to."
        }
      }
    }
  },
  "userdoc": {
    "methods": {}
  }
}