{
  "contractName": "Validatable",
  "abi": [
    {
      "constant": true,
      "inputs": [],
      "name": "validatorContract",
      "outputs": [
        {
          "name": "",
          "type": "address"
        }
      ],
      "payable": false,
      "stateMutability": "view",
      "type": "function"
    },
    {
      "constant": true,
      "inputs": [],
      "name": "requiredSignatures",
      "outputs": [
        {
          "name": "",
          "type": "uint256"
        }
      ],
      "payable": false,
      "stateMutability": "view",
      "type": "function"
    }
  ],
  "bytecode": "0x608060405234801561001057600080fd5b5061024a806100206000396000f30060806040526004361061004b5763ffffffff7c01000000000000000000000000000000000000000000000000000000006000350416638d06804381146100505780639943908914610077575b600080fd5b34801561005c57600080fd5b506100656100b5565b60408051918252519081900360200190f35b34801561008357600080fd5b5061008c610153565b6040805173ffffffffffffffffffffffffffffffffffffffff9092168252519081900360200190f35b60006100bf610153565b73ffffffffffffffffffffffffffffffffffffffff16638d0680436040518163ffffffff167c0100000000000000000000000000000000000000000000000000000000028152600401602060405180830381600087803b15801561012257600080fd5b505af1158015610136573d6000803e3d6000fd5b505050506040513d602081101561014c57600080fd5b5051905090565b60006002600060405160200180807f76616c696461746f72436f6e747261637400000000000000000000000000000081525060110190506040516020818303038152906040526040518082805190602001908083835b602083106101c85780518252601f1990920191602091820191016101a9565b51815160209384036101000a600019018019909216911617905260408051929094018290039091208652850195909552929092016000205473ffffffffffffffffffffffffffffffffffffffff169493505050505600a165627a7a72305820860a73cc50714f9e9d224988ad00195f312b4894821185218ba98b228c79db3c0029",
  "source": "pragma solidity 0.4.24;\nimport \"../IBridgeValidators.sol\";\nimport \"../upgradeability/EternalStorage.sol\";\n\n\ncontract Validatable is EternalStorage {\n    function validatorContract() public view returns(IBridgeValidators) {\n        return IBridgeValidators(addressStorage[keccak256(abi.encodePacked(\"validatorContract\"))]);\n    }\n\n    modifier onlyValidator() {\n        require(validatorContract().isValidator(msg.sender));\n        _;\n    }\n\n    function requiredSignatures() public view returns(uint256) {\n        return validatorContract().requiredSignatures();\n    }\n\n}\n",
  "sourcePath": "/Users/fbranci/iexecdev/vivani/tokenbridge/contracts/contracts/upgradeable_contracts/Validatable.sol",
  "compiler": {
    "name": "solc",
    "version": "0.4.24+commit.e67f0147.Emscripten.clang"
  },
  "schemaVersion": "3.0.13",
  "updatedAt": "2019-08-28T14:04:53.271Z",
  "devdoc": {
    "methods": {}
  },
  "userdoc": {
    "methods": {}
  }
}